:100000000C94760E0C949E0E0C949E0E0C949E0EE8
:100010000C949E0E0C949E0E0C949E0E0C949E0EB0
:100020000C949E0E0C949E0E0C94BC1A0C942E1BD9
:100030000C949E0E0C949E0E0C949E0E0C949E0E90
:100040000C949E0E0C949E0E0C949E0E0C949E0E80
:100050000C949E0E0C949E0E0C949E0E0C944E0FBF
:100060000C949E0E0C949E0E0C949E0E0C949E0E60
:100070000C949E0E0C949E0E0C949E0E0C949E0E50
:100080000C9446100C949E0E0C949E0E0C949E0E96
:100090000C949E0E0C949E0E0C949E0E0C949E0E30
:1000A0000C949E0E0C949E0E0C949E0E05A84CCDA6
:1000B000B2D44EB93836A9020C50B9918688083CA2
:1000C000A6AAAA2ABE000000803FD5F08D14A1C8C0
:1000D00081CFD9F1AF2000430D00F800FCF8FEFC01
:1000E000FF0CFF0CFF1CFF18FE00FCF8FEFCFF0CD1
:1000F000FF0CFFFCFFF8FE00FEFCFFFCFF78FEF0AB
:10010000FC78FEFCFFFCFF00FEFCFFFCFFCCFFCCFC
:10011000FFFCFF78FE00FE3CFF7CFFE0FEE0FE7C83
:10012000FF3CFF00FEF8FEFCFF0CFF0CFF1CFF185D
:10013000FE00FCF8FEFCFF0CFF0CFFFCFFF8FE00CD
:10014000FEFCFFFCFFCCFFCCFFFCFF78FE00FEFCBA
:10015000FFFCFF6CFF6CFF0CFF0CFF001E000C008F
:10016000030007030F071F061F061F071F030F00CB
:1001700007030F071F061F061F071F030F000F07A8
:100180001F071F000F0007000F071F071F000F07A3
:100190001F071F000F0007000300010000000700F9
:1001A0000F071F071F000F00070007030F071F0699
:1001B0001F061F071F030F0007030F071F061F0659
:1001C0001F071F030F000F071F071F000F000F0758
:1001D0001F071F000F071F071F061F061F061F060A
:1001E0001F000F00060706180C0606060C00412E1D
:1001F00000000000000000000000000000C0E0F06F
:10020000F8FCFCFEFE04000000000000000000807E
:1002100080808080808080808080800002071FFF37
:10022000FEFEFCFCF8F0E080000000000000000092
:10023000000000000000000000000000001E7FFF22
:10024000FFFFFFFFFFFFFFFEFCFC060603030303A7
:100250000101010101010101010101010303030782
:10026000070F1F3F7FFFFF3F070000000000000057
:1002700000000000808080808080C0C0C0C0E0F0AE
:10028000FD8F0307070707070301000080C0E0E0B8
:10029000F0F0F0F0F0F06000C0E0E0F0F0F0F0F02E
:1002A000E0D83C9CDCDC98333F7FFFDFDF6F6F37AB
:1002B0001B0E0402070D1B3337676F6FCFCFCFCFF5
:1002C000DFDF1F1E0000000000000000010D07031B
:1002D000010101183C7E7E7E3C18030F1F7FFF9FAB
:1002E0009F0F0F0FCD330301000000FFFF00000040
:1002F00000000000000000000000000000000000FE
:100300000000030F1C3060C08000000000000000EF
:100310000000000000000000000000003830200055
:1003200020202111D1D0E8C7E2B01C0F030000004B
:1003300000000000000000000000000000000000BD
:1003400000000000000000000001030306060C0C82
:100350001818181830303030303030181818181875
:100360000C0C0C060603010307030000000000004C
:100370000000000000001008007F3E7F3E7F227FCB
:100380003E7F007F3E7F3E7F0A7F021F007F3E7FD1
:100390003E7F0A7F021F00070B08007F3E7F3E7FE3
:1003A000227F3E7F007F3E7F0C7F187F3E7F007F55
:1003B0001308007F2E7F2E7F3A7F3A7F007F3E7F9B
:1003C0003E7F0A7F021F007F367F3E7F087F367F99
:1003D000007F007F367F007F1508007F3E7F3E7FD5
:1003E000227F2277007F3E7F3E7F227F3E7F007FFD
:1003F0003E7F0C7F187F3E7F007F3E7F3E7F0A7FDF
:10040000021F000715080077227F3E7F3E7F227F74
:10041000007F3E7F0C7F187F3E7F007F3E7F3E7FC8
:100420000A7F021F007F3E7F3E7F227F3E7F007F4C
:100430001508007F3E7F3E7F127F1E3F007F3E7F7C
:100440003E7F207F2070007F3E7F3E7F127F3E7F79
:10045000007F0E7F3E7F387F0E7F001F1508007FD4
:100460003E7F3E7F187F3E7F007F3E7F3E7F2A7F1C
:10047000227F007F3E7F3E7F207F2070007F3E7F77
:100480003E7F127F1E3F003F6C3E000000000000D8
:100490000000000000FCFEFEFEFEFE0E0E0E7E7E44
:1004A0007C000000FEFEFEFEFEFE8E8E8EFEFEFC3A
:1004B00000D400FCFEFEFEFEFE0EEE0EFEFEFC0074
:1004C000EAE0EEEE0EFEFEFEFEFEFE0EEECEC0D426
:1004D00000FEFEFEFEFEFE8E8EAE0E0E0E00000034
:1004E000FCFEFEFEFEFE8E8E8E8E8E0E0000000046
:1004F00000000000000000000000000000000000FC
:10050000007FFFFFFFFFFFE0E8E0FCFC7C009800BD
:10051000FFFFFFFFFFFF3F7FFFFFFBF1045300FFE3
:10052000FFFFFFFFFF1C9C1CFFFFFF00AA55A95502
:1005300000FFFFFFFFFFFF00BF3F9F9F00FFFFFF88
:10054000FFFFFFE3EBE3E8EBE4086000E9EBEBEB34
:10055000EBE3FFFFFFFFFF7F000000000000000053
:100560000000000000000000000000000082844A3B
:100570004AAADADAEAEAF6FA7A3C3F181696D6760A
:1005800016161696F6F6F63082158A44AA54A25428
:1005900022502A502A50285228512A512A50225497
:1005A000A254AA54AA142107F6F6F6F6F6F6F0F0CD
:1005B000F2F6F6F6F8FEFCFAFAF6EAEADADAAA4A0F
:1005C0004A848200000000000000000000000000DB
:1005D000C020D0E8F4B4FABAFDBEBEBFAFA7A7A34F
:1005E000A1E1E0F0785C4EC6C3C1404040F0FEFFA0
:1005F000FF7F60150A01E2F1F8FCFCF6E6E4F4FC8A
:10060000C88050505080C8FCF4E4E6F6FCFCF8F1D9
:10061000E2050A1448637FFFFFFFFF7F7F7FFFFF34
:10062000FF7F7F7FFFFFFFBFBFBFBFBFBFBEBEFD5E
:10063000BAFAB4F4E8D020C00000E01EE1FEFFFFEB
:10064000FF3F4FA75707E4F4F4F4F4F4F4F4F4E7AD
:1006500017A555A54DA949A9499F5F9F5F1F8F57B2
:10066000A047BF3FBF7F7F7F7FFFFFFFFFFFFFFFF1
:10067000FFFFFFFFFFFFFFFF7F7FBF3FBF4F8057A1
:10068000AF1F5F9F5F9F5FAF4FAF4FAF57A757073A
:10069000E7F7F7F7F7F7F7F7F7E717A7578F3FFFF2
:1006A000FFFFFEE11EE0011EE11FFFFFFF3E5DBCFC
:1006B000397853776FEFAF2F2F2F37F3F41215924E
:1006C000994C4642427E7E7E7E7822150A152A1576
:1006D0002A152A152A142A14289589950905090529
:1006E0000A04020402050A050A050A150A05387EED
:1006F0007E7E7E7E7E7E7DFAF5F2F5F0F3F7EFEFFB
:10070000EFEFEF6F777378BA3D9C3EFFFFFF1FE17D
:100710001E010000000F304FBFBF7C7AF5F29592AA
:100720009592959B8E8080FF93919592949295924D
:1007300095F2F5F2F5F0F0E00000000080C0C0C0D6
:10074000C0E0E0E0E0F0F0F9F9FDFEFCFCF8F8F0C4
:10075000F0F0E0E00000000000F0F4F2F5F2F5F255
:10076000F5F2F5F2F4F1F5F3FFFFFFFFFBF1F4F220
:10077000F5F2F5F2797CBFBF4F300F0000000000AA
:100780000000000000000101020202020608101031
:1007900010101010101010101008060202020202B1
:1007A0000505050504000000071F3F3F3F3F3F3F91
:1007B0003F3F3F3F3F3F3F3F3F3F3F3F3F3F1F07A1
:1007C00000000000040505050202020202060810EE
:1007D0001010101010101010101008060202020263
:1007E00001010000000000000000141000000000E3
:1007F000F8F810F0A0E038F808F828F828F828F8F9
:1008000028F828F888F818F8A0E020E060E0C0C0D8
:1008100000000000000000001F1F101F363F223F95
:10082000637F637F373F171F171F373F233F607F6B
:10083000627F223F101F1F1F000000000000000009
:10084000F0F020E0B0F018F848F828F8A8F828F8F8
:1008500028F828F848F830F030F030F060E0C0C0F8
:1008600000000000000003030F0F323F101F363F4F
:10087000627F437F427F363F171F171F171F233F9B
:10088000203F213F101F0B0F0F0F00000000C0C0C2
:10089000E0E040C070F018F8C8F8A8F828F8A8F808
:1008A00028F808F818F890F030F020E060E0C0C0B8
:1008B0000000000000000707080F1B1F363F203F05
:1008C0002D3F467F437F427F263F171F131F131F75
:1008D000213F313F101F0F0F0606000000000000EF
:1008E000C0C040C070F010F0D0F0A8F8A8F828F808
:1008F000A8F808F808F8D0F0B0F0A0E020E0E0E0B8
:1009000000000000000000001F1F101F161F2E3FD8
:100910002E3F203F4D7F467F427F677F1B1F131F67
:10092000111F101F181F0707000000000000000023
:1009300000008080E0E030F0D0F088F8A8F8A8F857
:1009400028F828F808F818F8B0F020E0E0E00000F7
:1009500000000000000000001C1C1F1F303F2E3F45
:100960002E3F2C3F6C7F417F467F427F737F131F5A
:10097000101F181F0F0F00000000000000000000F3
:10098000000000008080E0E010F088F8A8F8A8F8E7
:10099000A8F828F808F888F818F8F0F00000000027
:1009A0000000000000000000000000003F3F203F6A
:1009B0002E3F2C3F6C7F4C7F4D7F407F437F797F64
:1009C000080F0F0F000000000000000000000000F2
:1009D000000000000000C0C078F808F8A8F8A8F8E7
:1009E000A8F8A8F808F878F8C0C0000000000000D7
:1009F00000000000000000000000000000007F7FF9
:100A0000407F4C7F4C7F4C7F487F4C7F4C7F407FAA
:100A10007F7F0000000000000000000000000000D8
:100A200000000000F0F018F888F808F828F8A8F896
:100A3000A8F8A8F888F810F0E0E080800000000036
:100A40000000000000000000000000000F0F080F71
:100A5000797F437F407F4D7F447F6C7F2C3F2A3FCF
:100A6000203F3F3F000000000000000000000000A9
:100A70000000E0E020E0B0F018F808F828F828F8C6
:100A8000A8F8A8F888F8D0F030F0E0E08080000006
:100A9000000000000000000000000F0F181F101FD2
:100AA000131F737F427F467F417F6C7F2C3F263F21
:100AB0002E3F303F1F1F1C1C0000000000000000E4
:100AC000E0E020E0A0E0B0F0D0F008F808F8A8F8E6
:100AD00028F8A8F8A8F8D0F010F070F040C0C0C016
:100AE00000000000000000000707181F101F111F62
:100AF000131F1B1F677F427F467F4D7F203F2E3F86
:100B00002E3F121F101F1F1F0000000000000000DA
:100B1000C0C060E020E030F090F018F808F828F845
:100B2000A8F828F8A8F8C8F818F870F040C0E0E075
:100B3000C0C00000000006060F0F101F313F213F0C
:100B4000131F131F171F263F427F437F447F2C3FF5
:100B5000203F363F1B1F080F070700000000000062
:100B6000C0C060E030F030F030F048F828F828F8E5
:100B700028F8A8F828F848F818F8B0F020E0F0F0C5
:100B80000000000000000F0F0B0F101F213F213F3E
:100B9000233F171F171F171F363F427F437F627F78
:100BA000363F101F323F0F0F03030000000000000C
:100BB000C0C060E020E0A0E018F888F828F828F825
:100BC00028F828F828F808F838F8A0E010F0F8F825
:100BD00000000000000000001F1F101F223F627F66
:100BE000627F233F373F171F171F373F637F617FA8
:100BF000223F363F101F1F1F0000000000000000B2
:100C0000C0C060E0A0E0B0F058F848F8A8F828F8B4
:100C100028F828F808F808F810F018F820E0C0C004
:100C200080800000000003030F0F303F303F667FDD
:100C3000427F427F677F363F171F171F333F233F97
:100C4000203F333F1B1F090F0F0F00000000000063
:100C5000C0C040C060E038F848F8C8F808F8A8F804
:100C600028F81CFC48F808F810F010F020E0E0E04C
:100C700080800000000007070B0F181F303F203F47
:100C80006D7F467F427F677F363F171F131F233FCD
:100C9000213F313F1B1F0D0F070700000000000020
:100CA0008080808040C030F0D0F0C8F8C8F828F8C4
:100CB000B4FC0CFC48F808F898F890F030F0E0E04C
:100CC00000000000000000001F1F101F303F263FE3
:100CD000203F407F447F427F477F373F131F131FD2
:100CE000111F111F0C0F070700000000000000007B
:100CF00000008080C0C070F090F0C8F8C8F8B4FC64
:100D00002CFC28F848F888F898F810F0F0F000006B
:100D1000000000000000000018183F3F203F283F5F
:100D20002C3F407F407F407F467F437F737F131F70
:100D3000101F181F0707000000000000000000003F
:100D4000000000000000E0E010F0C8F8C4FCACFCBB
:100D5000A8F828F808F888F818F8F0F00000000063
:100D60000000000000000000000000003F3F607F26
:100D7000607F487F4C7F407F407F407F437F787F0C
:100D8000181F0F0F0000000000000000000000000E
:100D9000000000000000C0C078F808F8B8F8B8F803
:100DA000B8F8B8F808F878F8C0C0000000000000F3
:100DB00000000000000000000000000000007F7F35
:100DC000407F407F407F4C7F4C7F407F407F407F13
:100DD0007F7F000000000000000000000000000015
:100DE00000000000F0F018F888F808F828F8A8F8D3
:100DF000ACFCC4FCC8F810F0E0E00000000000000B
:100E00000000000000000000000000000F0F181F8D
:100E1000787F437F407F407F407F4C7F487F607F6B
:100E2000607F3F3F00000000000000000000000065
:100E30000000F0F010F098F888F848F828F82CFC3A
:100E4000B4FCC8F8C8F890F070F0C0C08080000012
:100E5000000000000000000000000707181F101F1E
:100E6000131F737F437F447F407F487F407F2C3F29
:100E7000283F203F3F3F18180000000000000000FE
:100E8000E0E030F090F098F808F848F80CFCB4FC7A
:100E900028F8C8F848F8D0F030F040C08080808052
:100EA000000000000000000007070C0F111F111FB9
:100EB000131F131F373F477F427F447F407F203FF0
:100EC000263F303F101F1F1F0000000000008080E1
:100ED000E0E020E050F010F008F848F81CFC28F89A
:100EE000A8F808F8C8F848F838F860E040C0C0C072
:100EF00000000000000007070D0F1B1F313F213FBE
:100F0000233F131F171F363F677F427F467F6D7F4A
:100F1000203F303F181F0B0F0707000000008080A4
:100F2000C0C020E018F810F008F808F828F828F8F1
:100F300028F8A8F848F858F8B0F0A0E060E0C0C081
:100F40000000000000000F0F090F1B1F333F213F5F
:100F5000233F333F171F171F363F677F427F427F74
:100F6000667F303F303F0F0F030300000E1000007C
:100F70000000F0F018F8C8F810F0E8F8E8F810F001
:100F8000B0F020E0E0E000000000000000000101FF
:100F900003031E1F111F2F3F2F3F111F1E1F03038F
:100FA000010100000000141000000000000000001B
:100FB0000000000000000000000000000000000031
:100FC0000000000000000000000000000000000021
:100FD00000000000000000000000000000140004F9
:100FE00000000000000000000000001400140000D9
:100FF00000000000000000000000000000000000F1
:1010000000000000000000000000000000000000E0
:1010100000000000000000000000000000000000D0
:10102000000000000000000000000000001C001094
:101030000000000000000000000400040010000098
:1010400000000000000000000000000000000000A0
:101050000000000000000000000000000000000090
:101060000000000000000000000000000000000080
:101070000000000000000000000000080008000060
:101080000030000000000004000400080008000810
:101090000000000000000000000000000000000050
:1010A0000000000000000000000000000000000040
:1010B0000000000000000000000000000000000030
:1010C0000000000000000000000000080008000010
:1010D0000020003000260000000000080008000882
:1010E0000000000000000000000000000000000000
:1010F00000000000000000000000000000000000F0
:1011000000000000000000000000000000000000DF
:1011100000000000000000000000001000100000AF
:101120000000002600200000000000040004000071
:1011300000000000000000000000000000000000AF
:10114000000000000000000000000000000000009F
:10115000000000000000000000000000000000008F
:10116000000000000000000000000000001000105F
:101170000004000000000030000400040000000033
:10118000000000000000000000000000000000005F
:10119000000000000000000000000000000000004F
:1011A000000000000000000000000000000000003F
:1011B000000000000000000000000000001000140B
:1011C00000000000000000000014001000000000FB
:1011D000000000000000000000000000000000000F
:1011E00000000000000000000000000000000000FF
:1011F00000000000000000000000000000000000EF
:1012000000000000000000000000000000040004D6
:10121000003000000000000400100010000000007A
:1012200000000000000000000000000000000000BE
:1012300000000000000000000000000000000000AE
:10124000000000000000000000000000000000009E
:101250000000000000000000000000040004000086
:101260000000002000260000000000100010000018
:10127000000000000000000000000000000000006E
:10128000000000000000000000000000000000005E
:10129000000000000000000000000000000000004E
:1012A0000000000000000000000800080008000026
:1012B00000000026003000200000000800080000A8
:1012C000000000000000000000000000000000001E
:1012D000000000000000000000000000000000000E
:1012E00000000000000000000000000000000000FE
:1012F00000000000000000000008000800080004D2
:101300000004000000000030000000080008000099
:1013100000000000000000000000000000000000CD
:1013200000000000000000000000000000000000BD
:1013300000000000000000000000000000000000AD
:101340000000000000000000000000100004000485
:1013500000000000000000000010001C0000000061
:10136000000000000000000000000000000000007D
:10137000000000000000000000000000000000006D
:10138000000000000000000000000000000000005D
:101390000000000000000000000000140014000025
:1013A0000000000000000000000400140000000025
:1013B000000000000000000000000000000000002D
:1013C000000000000000000000000000000000001D
:1013D000000000000000000000000000000000000D
:1013E00000000000000000000000000800380010AD
:1013F00000000000000000000004001000100000C9
:1014000000000000000000000000000000000000DC
:1014100000000000000000000000000000000000CC
:1014200000000000000000000000000000000000BC
:101430000000000000000000000800080008002074
:101440000020000000000004000400080008000064
:10145000000000000000000000000000000000008C
:10146000000000000000000000000000000000007C
:10147000000000000000000000000000000000006C
:101480000000000000000000000000180000000044
:1014900000200020000600000000000800080000F6
:1014A000000000000000000000000000000000003C
:1014B000000000000000000000000000000000002C
:1014C000000000000000000000000000000000001C
:1014D00000000000000000000000001000100000EC
:1014E00000000024002000000000000C00000000AC
:1014F00000000000000000000000000000000000EC
:1015000000000000000000000000000000000000DB
:1015100000000000000000000000000000000000CB
:1015200000000000000000000000000000100004A7
:10153000000400000000002000040004000000007F
:10154000000000000000000000000000000000009B
:10155000000000000000000000000000000000008B
:10156000000000000000000000000000000000007B
:101570000000000000000000000000000030003407
:1015800000000000000000000034003000000000F7
:10159000000000000000000000000000000000004B
:1015A000000000000000000000000000000000003B
:1015B000000000000000000000000000000000002B
:1015C0000000000000000000000000000004000413
:1015D00000200000000000040004001000000000D3
:1015E00000000000000000000000000000000000FB
:1015F00000000000000000000000000000000000EB
:1016000000000000000000000000000000000000DA
:10161000000000000000000000000000000C0000BE
:101620000000002000240000000000100010000056
:1016300000000000000000000000000000000000AA
:10164000000000000000000000000000000000009A
:10165000000000000000000000000000000000008A
:10166000000000000000000000000008000800006A
:10167000000000060020002000000000001800000C
:10168000000000000000000000000000000000005A
:10169000000000000000000000000000000000004A
:1016A000000000000000000000000000000000003A
:1016B0000000000000000000000000080008000416
:1016C00000040000000000200020000800080008BE
:1016D000000000000000000000000000000000000A
:1016E00000000000000000000000000000000000FA
:1016F00000000000000000000000000000000000EA
:1017000000000000000000000000001000100004B5
:101710000000000000000000001000380008000079
:1017200000000000000000000808000000007878B9
:101730004878687838380000000000001C1C363EED
:101740002A3E223E363E1C1C00007E7E4B7F517F8F
:101750006B7FC5FF89FFD7FF7C7C1C1CF4FCACFCB5
:10176000D6FEAAFED6FE6C7C383801020408102092
:10177000408000000000003E5B4F5B3E3E6B4F6BC5
:101780003E1C3E7C3E1C183C7E3C181C577D571C62
:101790001C5E7F5E1C00183C1800FFE7C3E7FF00DB
:1017A00018241800FFE7DBE7FF30483A060E262929
:1017B000792926407F050507407F05253F5A3CE7EC
:1017C0003C5A7F3E1C1C08081C1C3E7F14227F22B2
:1017D000145F5F005F5F06097F017F006689956A7D
:1017E000606060606094A2FFA29408047E04081008
:1017F000207E201008082A1C08081C2A08081E1031
:101800001010100C1E0C1E0C30383E3830060E3EE8
:101810000E06000000000000005F00000007000747
:1018200000147F147F14242A7F2A12231308646271
:1018300036495620500008070300001C22410000D2
:1018400041221C002A1C7F1C2A08083E0808008030
:1018500070300008080808080000606000201008C8
:1018600004023E5149453E00427F400072494949C9
:10187000462141494D331814127F102745454539FB
:101880003C4A4949314121110907364949493646FF
:101890004949291E000014000000403400000008DF
:1018A0001422411414141414004122140802015982
:1018B00009063E415D594E7C1211127C7F4949490F
:1018C000363E414141227F4141413E7F49494941A4
:1018D0007F090909013E414151737F0808087F00D3
:1018E000417F41002040413F017F081422417F4059
:1018F0004040407F021C027F7F0408107F3E414130
:10190000413E7F090909063E4151215E7F0919299F
:1019100046264949493203017F01033F4040403F89
:101920001F2040201F3F4038403F631408146303CA
:10193000047804036159494D43007F414141020449
:10194000081020004141417F040201020440404050
:101950004040000307080020545478407F28444446
:10196000383844444428384444287F385454541860
:1019700000087E090218A4A49C787F08040478005B
:10198000447D40002040403D007F1028440000413D
:101990007F40007C047804787C0804047838444450
:1019A0004438FC1824241818242418FC7C08040447
:1019B00008485454542404043F44243C4040207CB0
:1019C0001C2040201C3C4030403C44281028444C03
:1019D0009090907C4464544C4400083641000000D0
:1019E000770000004136080002010204023C262371
:1019F000263C1EA1A161123A4040207A3854545529
:101A000059215555794121545478412155547840F4
:101A100020545579400C1E5272123955555559397A
:101A20005454545939555454580000457C410002CF
:101A3000457D420001457C40F0292429F0F028250D
:101A400028F07C545545002054547C547C0A097F6E
:101A50004932494949323248484832324A48483086
:101A60003A4141217A3A42402078009DA0A07D3938
:101A7000444444393D4040403D3C24FF2424487EBA
:101A80004943662B2FFC2F2BFF0929F620C0887EA7
:101A9000090320545479410000447D413048484AAC
:101AA00032384040227A007A0A0A727D0D19317D5F
:101AB0002629292F28262929292630484D40203833
:101AC0000808080808080808382F10C8ACBA2F10F2
:101AD0002834FA00007B000008142A142222142A59
:101AE00014089500220095AA005500AAAA55AA55E7
:101AF000AA000000FF00101010FF00141414FF00D3
:101B00001010FF00FF1010F010F0141414FC00145B
:101B100014F700FF0000FF00FF1414F404FC141479
:101B200017101F10101F101F1414141F0010101076
:101B3000F0000000001F101010101F10101010F007
:101B400010000000FF101010101010101010FF10E7
:101B5000000000FF140000FF00FF00001F1017002E
:101B600000FC04F414141710171414F404F4000007
:101B7000FF00F714141414141414F700F7141414B9
:101B8000171410101F101F141414F4141010F01058
:101B9000F000001F101F0000001F14000000FC14C4
:101BA0000000F010F01010FF10FF141414FF1410B8
:101BB00010101F00000000F010FFFFFFFFFFF0F00B
:101BC000F0F0F0FFFFFF0000000000FFFF0F0F0F1D
:101BD0000F0F38444438447C2A2A3E147E02020601
:101BE00006027E027E0263554941633844443C0448
:101BF000407E201E2006027E020299A5E7A5991CC0
:101C00002A492A1C4C7201724C304A4D4D303048E2
:101C1000784830BC625A463D3E494949007E010140
:101C2000017E2A2A2A2A2A44445F444440514A44D5
:101C30004040444A51400000FF0103E080FF0000A3
:101C400008086B6B083612362436060F090F06009B
:101C50000018180000001010003040FF0101001FA4
:101C600001011E00191D1712003C3C3C3C00000005
:101C70000000080B0002020201000904000001023A
:101C800002000005240010010524010101042402C2
:101C90000605240600010705810310004009040120
:101CA00000020A0000000705020240000007058349
:101CB000024000000403090412010002EF02014087
:101CC0004123368000010102030141726475696E8F
:101CD0006F204C4C430041726475696E6F204C65F7
:101CE0006F6E6172646F0000E129CF2911241FBE5D
:101CF000CFEFDAE0DEBFCDBF11E0A0E0B1E0E8E277
:101D0000F1E602C005900D92A637B107D9F726E09B
:101D1000A6E7B1E001C01D92A73CB207E1F71EE0C3
:101D2000C5E7DEE004C02197FE010E94462FC437BC
:101D3000D107C9F70E945E1D0C9487300C940000F7
:101D4000CF92DF92EF92FF920F931F93CF93DF9387
:101D50006C017A018B01C0E0D0E0CE15DF0589F07F
:101D6000D8016D918D01D601ED91FC910190F0812A
:101D7000E02DC6010995892B11F47E0102C0219640
:101D8000ECCFC701DF91CF911F910F91FF90EF90A2
:101D9000DF90CF90089580917E01E0917C01F091D9
:101DA0007D01882349F0CF01029690937D018093B5
:101DB0007C01859194910895CF01029690937D01C5
:101DC00080937C0180819181089580917F010895A5
:101DD0000895089580E090E008950E9479303FB71B
:101DE000F89480918A0190918B01A0918C01B0911F
:101DF0008D0126B5A89B05C02F3F19F00196A11DA6
:101E0000B11D3FBFBA2FA92F982F8827820F911D90
:101E1000A11DB11DBC01CD0142E0660F771F881FD7
:101E2000991F4A95D1F708958F929F92AF92BF92D2
:101E3000CF92DF92EF92FF926B017C010E94EF0E36
:101E40004B015C01C114D104E104F104F1F00E94E2
:101E5000EF0EDC01CB0188199909AA09BB09883E5C
:101E60009340A105B10570F321E0C21AD108E10841
:101E7000F10888EE880E83E0981EA11CB11CC114E5
:101E8000D104E104F10419F7DDCFFF90EF90DF906A
:101E9000CF90BF90AF909F908F9008951F920F9218
:101EA0000FB60F9211242F933F938F939F93AF936D
:101EB000BF938091760190917701A0917801B091C4
:101EC00079013091890123E0230F2D3720F4019609
:101ED000A11DB11D05C026E8230F0296A11DB11D4D
:101EE000209389018093760190937701A0937801E4
:101EF000B093790180918A0190918B01A0918C011E
:101F0000B0918D010196A11DB11D80938A0190931E
:101F10008B01A0938C01B0938D01BF91AF919F91E4
:101F20008F913F912F910F900FBE0F901F9018959A
:101F3000CF92DF92EF92FF920F931F93CF93DF9395
:101F40000E94CB0E811520E8920761F48091710008
:101F50008D7F80937100109291004698479810925F
:101F600082018BC021E020938201813020E892071A
:101F700051F480917A0190917B0190937D0180933F
:101F80007C010E94CB0E97FD05C020918101222388
:101F900009F43FC02091800121113BC021E0209332
:101FA0008301EC01DF77209769F481E0809384015D
:101FB00046983FE9C32E3FE0D32EE12CF12CCAEF27
:101FC000D0E014C08E0120E030E060E472E48FE0E5
:101FD00090E0A90198010E94E82B69017A0181E053
:101FE000C81AD108E108F10810928401E091A00517
:101FF000F091A1050995811103C081E080938401CE
:10200000809183018823B9F180918401811133C0CB
:1020100003C010928301C5CF46992DC0479A0E94F4
:10202000CB0E009771F09C01DE010E943C2CDC017C
:10203000CB0129E0B595A795979587952A95D1F776
:1020400003C08FEF9FEFDC01109290002AE02093F5
:102050009100D0929900C09298008093850190934E
:102060008601A0938701B0938801809171008260FE
:102070008093710002C04798D2CFDF91CF911F911A
:102080000F91FF90EF90DF90CF9008951F920F92E5
:102090000FB60F9211242F933F934F935F936F933B
:1020A0007F938F939F93AF93BF93EF93FF93809111
:1020B000850190918601A0918701B0918801892BBB
:1020C0008A2B8B2B81F18091840181110BC098B1F7
:1020D00080E4892788B980918301882319F088B129
:1020E000805888B98091850190918601A0918701DF
:1020F000B0918801181619061A061B06B4F48091CF
:10210000850190918601A0918701B0918801019786
:10211000A109B1098093850190938601A09387015D
:10212000B093880102C00E94980FFF91EF91BF9178
:10213000AF919F918F917F916F915F914F913F915F
:102140002F910F900FBE0F901F9018954F925F9296
:102150006F927F928F929F92AF92BF92CF92DF92B7
:10216000EF92FF920F931F93CF93DF9300D000D095
:10217000CDB7DEB749012C2DA02EB12CDC01AA0D64
:10218000BB1D1A161B060CF0B3C1803891050CF06C
:10219000AFC1FB01EE0DF11D1E161F060CF0A8C10C
:1021A000603471050CF0A4C14115510509F4A0C1BA
:1021B000FB0177FF04C0EE27FF27E61BF70B3E2F3E
:1021C0003770732EFB0177FD379633E0F595E79571
:1021D0003A95E1F73E2F77FF07C0772029F03FEFD0
:1021E0003E0F68E06719762E97FF05C0EE27FF27A0
:1021F000E81BF90B02C0E0E0F0E0A038B10524F0E4
:1022000060E8F62EF81A01C0F02EFE1A632F032E96
:10221000000C770B3F3F1CF4A62FA09501C0A0E057
:1022200011E0BE2DB77009F410E0E694E694E69450
:10223000E10E6E0D711D693071051CF068E0E62E2F
:10224000E31AEA1A3A0F60E83603800D911D112453
:102250008E0F9F1FA09FE00DF11D11244E0F5F1FD9
:1022600061E070E0072C02C0660F771F0A94E2F766
:10227000233009F4FCC098F4213009F4AEC02230B8
:1022800009F036C12FEF269F8001279F100D1124E2
:10229000009510951C830B835C80E30E27C02A3FBA
:1022A00029F02B3F09F024C1E30E83C0E30E4EC09A
:1022B000FA01EC0DFD1DE491E69F4001E79F900CB3
:1022C00011249A82898237FD04C02C912023822A0E
:1022D0008C92711014C0EFEFCE1ADE0A1196CF1453
:1022E00038F33F5F4A0D5B1D80589F4F3E1509F440
:1022F000FFC0DC01AE56BE4FC12CD12CF0CF373021
:1023000054F7FD01E058FF4F208125219A802929AB
:102310002083E1CFFA01E00FF11FE491E69F600115
:10232000E79FD00C1124DA82C98237FD03C02C91BB
:10233000C22ACC92711013C00F5F1F4F11960F1558
:1023400048F33F5F4A0D5B1D80589F4F3E1509F4CF
:10235000CFC0DC01AE56BE4F00E010E0F0CF37300A
:102360005CF7FD01E058FF4FD0802A812D292083A2
:10237000E3CFFA01EC0DFD1DE491E69FD001E79F4C
:10238000B00D1124BA83A98337FD05C0A095F801CB
:102390002081A223A083711015C0FFEFCF1ADF0A9E
:1023A0000F5F1F4FCF1428F33F5F4A0D5B1D80580E
:1023B0009F4F3E1509F49CC08C010E561E4FC12C38
:1023C000D12CF0CF37304CF7F801E058FF4F2A817D
:1023D0002095A0812A232083E0CFD401AE0FBF1F18
:1023E000E30E3E1509F484C0FC01EE56FE4F4F018A
:1023F000C12CD12CCF1498F5FD01EC0DFD1DE491FD
:10240000E69F8001E79F100D1124009510951C8315
:102410000B83FA01EC0DFD1DE491E69F2001E79F7F
:10242000500C11245A82498237FD05C0F4012081E5
:102430000223402A4082772059F037304CF4F401CF
:10244000E058FF4F10812C8121231A81212B2083FA
:10245000FFEFCF1ADF0A2FEF821A920ACBCF3F5F2E
:102460004A0D5B1DAA0DBB1D80589F4FBACFCF2CC4
:10247000D12CE40FF51FDC01AE56BE4FAC014E5E11
:102480005D4F00E810E00C191D09AC18BD08AA0C3E
:10249000BB1C6F2C2E2DCF93DF93EA018590C59046
:1024A000772059F0869E4001C69E600137302CF49B
:1024B0009881D0949D219929999333233AF09C9146
:1024C000C0949C2198299D930C9467121196FA94BC
:1024D00029F7EA9451F0F62C33951124EA0DF11DF9
:1024E000A00FB11DC00FD11DD9CFDF91CF91112405
:1024F0000F900F900F900F90DF91CF911F910F9140
:10250000FF90EF90DF90CF90BF90AF909F908F9013
:102510007F906F905F904F900895CF92DF92EF92EF
:102520000F931F93CF93DF934115510591F1FA015A
:1025300004913196E4904E5F5F4F222321F130E009
:10254000220F331FC02FD0E0AE2DA695A695A695DD
:10255000EA2FF0E0A1E0B0E01E2D177011F4A0E02A
:10256000B0E0AE0FBF1FCA9F6001CB9FD00CDA9FB7
:10257000D00C11242C9DF0012D9DF00D3C9DF00DF3
:1025800011244E0F5F1F23E0C22E20E030E00E9496
:10259000A610DF91CF911F910F91EF90DF90CF9018
:1025A0000895BC0180E090E00C94140F8FB12CB121
:1025B00093B130E02095309520743327A90123E0B2
:1025C000559547952A95E1F7292F30E020953095CC
:1025D000207133273595279535952795242B8095A0
:1025E000807F822B089583B7817F83BF83B781600B
:1025F00083BF889583B78E7F83BF08958EBD00000B
:102600000DB407FEFDCF089510927F013E983F98CC
:1026100008953E9A3F9A81E080937F010895FC01DE
:10262000840F911D18161906E4F5E038F105CCF574
:10263000F7FF02C0E0E0F0E08138910514F080E897
:1026400090E0382F3E1BAB0177FF02C0495F5F4F20
:1026500083E0559547958A95E1F75695542F442781
:1026600057954795E40FF51FEE56FE4F6770772795
:1026700081E090E001C0880F6A95EAF7482F222395
:1026800049F0213071F4315020F08081842B819306
:10269000FACF08958095315020F09081982391933E
:1026A000FACF089560387105D0F440345105B8F47C
:1026B000EAE6F7E180E1849FD001A0781124A60F1B
:1026C0004770E40FF11D8491AE56BE4F222319F0DE
:1026D0006C91862B03C080956C9186238C93089512
:1026E0002F923F924F925F926F927F928F929F9222
:1026F000AF92BF92CF92DF92EF92FF920F931F9310
:10270000CF93DF93CDB7DEB729970FB6F894DEBF2E
:102710000FBECDBFFC016A3069F4248D808D918D90
:1027200038E0239F800D911D1124918F808F178A8F
:10273000168AAAC06D3009F4A7C099878887F48CDF
:10274000338C228C608C718C0689178900381105B6
:10275000C4F0A885B9855C962C915C97422F50E017
:1027600056968D919C915797B6E02B9F800D911DA9
:102770001124E885F985978B868B258D21116EC0F4
:1027800083C0F0E46F16710424F7C80125E0F29EBF
:10279000800D911D112418161906DCF68F2D90E07E
:1027A0009C838B83C301A8E0FA9E800D911D1124A8
:1027B0001816190674F6B5E06B9FB0011124FB01E1
:1027C000EE58F84EFA83E98330E0888599850496BF
:1027D0009E838D83E981FA81E490353009F4E12C00
:1027E000430188E0482EE0FC02C0532C01C0522C6B
:1027F00051100BC0321009C0E6944A948B819C8121
:10280000880E991E4110EFCF1BC068018C2D801BD4
:102810008F1590F754018A2D88198F1568F4252D8E
:10282000A501B6018D819E813F830E9452139FEFC7
:10283000A91AB90A3F81EFCFAFEFCA1ADA0AE6CF79
:102840003F5FEB81FC810E0F1F1F89819A810196EA
:102850009A838983363009F0BDCF7BCF6AEF64035A
:102860009001659F300D112420583F4F28173907DC
:102870005CF4A885B985ED91FC9111970190F081E8
:10288000E02D6AE0CD01099581E090E029960FB630
:10289000F894DEBF0FBECDBFDF91CF911F910F9196
:1028A000FF90EF90DF90CF90BF90AF909F908F9070
:1028B0007F906F905F904F903F902F900895AF92D0
:1028C000BF92CF92DF92EF92FF920F931F93CF931D
:1028D000DF936C01EB01142F022F7C015C01A40E2D
:1028E000B11CEA14FB0454F421E0402FBE01C701DF
:1028F0000E94CA178FEFE81AF80AF3CF22E0200FE0
:1029000042E0410FBE016150710900E0C60101972C
:102910000E94F617DF91CF911F910F91FF90EF90DA
:10292000DF90CF90BF90AF9008954F925F926F92DB
:102930007F928F929F92AF92BF92CF92DF92EF924F
:10294000FF920F931F93CF93DF93EC01CCA0DDA0F8
:10295000EEA0FFA020E030E04AE754E468A179A1AE
:102960008AA19BA10E94602E20E030ED4FE557E444
:102970000E94C22C4B015C010E94BD2C9B01AC014A
:10298000C701B6010E94602E288139814A815B818E
:102990000E944C2C2B013C01688379838A839B83A2
:1029A000C501B4010E94CD2E9B01AC01C701B60147
:1029B0000E94602E9B01AC016C817D818E819F8184
:1029C0000E944B2C6B017C016C837D838E839F83E3
:1029D00020E030E0A901C301B2010E94B82C87FFBA
:1029E00005C0188219821A821B822EC0A888B98855
:1029F0000091080110910901B50180E090E00E946A
:102A00006A2D9B01AC01C301B2010E944C2C2B0129
:102A10003C01B801012E000C880B990B0E946C2D13
:102A20009B01AC01C301B2010E945B2E181664F435
:102A3000C8018A199B09BC0180E090E00E946A2DC0
:102A4000688379838A839B8320E030E0A901C701F2
:102A5000B6010E94B82C87FF05C01C821D821E8211
:102A60001F822DC0AA88BB8800910A0110910B011A
:102A7000B50180E090E00E946A2D9B01AC01C70186
:102A8000B6010E944C2C6B017C01B801012E000C98
:102A9000880B990B0E946C2D9B01AC01C701B601FC
:102AA0000E945B2E18165CF4B8016A197B0980E05D
:102AB00090E00E946A2D6C837D838E839F83DF91DB
:102AC000CF911F910F91FF90EF90DF90CF90BF902B
:102AD000AF909F908F907F906F905F904F900895F0
:102AE0004F925F926F927F928F929F92AF92BF921E
:102AF000CF92DF92EF92FF920F931F93CF93DF93CA
:102B000000D000D000D0CDB7DEB7FC0129833A83D6
:102B10004B835C8329813A81EB80FC80472F828D37
:102B2000938DA48CB58C578D768DDC01A70FB11DCC
:102B30002A173B070CF0B4C0D901A60FB11DBD0187
:102B40008A179B070CF0ACC0D501A50FB11DEA1682
:102B5000FB060CF0A5C06701C40ED11CAC14BD046B
:102B60000CF09EC08F014489558982179307ACF4FD
:102B7000F801808DB901681B7109641B750B6F5FCB
:102B80007F4F072E000C880B990B0E946C2DD801EB
:102B90002D913D914D915C910DC0641B750B072EDD
:102BA000000C880B990B0E946C2DF801208131815B
:102BB000428153810E944B2C2B013C01D801569637
:102BC0008D919C915797AE14BF04ACF459962C91FB
:102BD000B701621B7109681B790B6F5F7F4F072E6E
:102BE000000C880B990B0E946C2DF8012481358113
:102BF0004681578110C0B601681B790B072E000C67
:102C0000880B990B0E946C2DD80114962D913D9143
:102C10004D915C9117970E944B2C6B017C0120E039
:102C200030E0A901C301B2010E945B2E53014201B1
:102C3000181624F0B7FAB094B7F8B09420E030E05A
:102C4000A901C701B6010E945B2EA70196011816C3
:102C50000CF05058C501B4010E94B82C87FF10C079
:102C6000A3019201F80160817181828193810E94A8
:102C70004C2CD8016D937D938D939C93139710C02A
:102C8000A7019601F80164817581868197810E9470
:102C90004C2CD80114966D937D938D939C9317972C
:102CA00026960FB6F894DEBF0FBECDBFDF91CF9151
:102CB0001F910F91FF90EF90DF90CF90BF90AF905A
:102CC0009F908F907F906F905F904F900895CF92DC
:102CD000DF92EF92FF920F931F93CF93DF93EC015C
:102CE0006E897F89072E000C880B990B0E946C2D32
:102CF0002C813D814E815F810E944C2C0E94342D9D
:102D00006B017C01088D198D8C899D89BC01990FFF
:102D1000880B990B0E946C2D288139814A815B8137
:102D20000E944C2C0E94342D7B8F6A8FDD8ECC8EBE
:102D30000E8F1F8FDF91CF911F910F91FF90EF901A
:102D4000DF90CF900895FC0180919101811103C023
:102D50008FEF9FEF08959FB7F89482E08093E9008A
:102D60002091F20030E01216130614F421E030E056
:102D70002115310559F0289884E6809390018091BF
:102D8000F10080838091F200882319F09FBFC90170
:102D900008958BE68093E800F9CF2FB7F89483E08D
:102DA0008093E9009091E800892F807295FF04C01C
:102DB0009091F20080E4891B2FBF0895CF93DF9399
:102DC0001F92CDB7DEB76983DC01ED91FC910280E3
:102DD000F381E02D41E050E0BE016F5F7F4F099528
:102DE0000F90DF91CF91089583E08093E900809167
:102DF000F200882319F08AE38093E80008950E9486
:102E0000CD1690E00895CF93DF931F92CDB7DEB734
:102E1000FC018485958597FD05C02FEF3FEF358731
:102E200024870BC0CE0101960E94A316019719F4C6
:102E3000898190E002C08FEF9FEF0F90DF91CF91DB
:102E400008950F931F93CF93DF931F92CDB7DEB7F3
:102E50008C01FC018485958597FF0EC0CE010196FB
:102E60000E94A316019719F4298130E002C02FEFC8
:102E70003FEFF80135872487F801848595850F9009
:102E8000DF91CF911F910F9108958F929F92AF92F2
:102E9000BF92CF92DF92EF92FF920F931F93CF9347
:102EA000DF935C016B017A0180912D01882309F485
:102EB0005BC080919101882309F456C080918F01F5
:102EC00080FF05C08091E00082608093E000E70110
:102ED00010E00AEF83E0882E9AE3992E2097D9F12B
:102EE0000E94CD1681110AC0015009F43DC061E075
:102EF00070E080E090E00E94140FF0CF282F30E0C7
:102F0000C217D3070CF48C2F4FB7F8948092E900C6
:102F10009091E80095FF1DC0282F30E0C21BD30B15
:102F2000F601982F915020F081918093F100FACF13
:102F3000C20ED31E112319F09092E80009C08091AF
:102F4000E80085FD06C09092E80011E0209709F0A6
:102F500010E04FBFC3CF1111C3CF5D9884E68093BB
:102F60008E011E141F0444F081E090E0F50193836C
:102F7000828380E090E001C0C701DF91CF911F9173
:102F80000F91FF90EF90DF90CF90BF90AF909F9008
:102F90008F900895DF92EF92FF920F931F93CF933C
:102FA000DF937C01D22E8B01040F111DEB0177FF03
:102FB0000EC0C0E0D0E00BC0C417D5077CF42D2DA7
:102FC000AE01B70187E496E00E9452132196A80152
:102FD000013411058CF340E450E0EECFDF91CF9146
:102FE0001F910F91FF90EF90DF900895DF92EF9285
:102FF000FF920F931F93CF93DF93EC017B01D42EAD
:10300000122F6034710520F4202FCE010E940F137F
:10301000B701610F711D615071096034710528F4A9
:10302000202F4D2DCE010E940F13202F412FB701CD
:10303000CE010E94CA17CE018D0D911D202F412F68
:10304000B7010197DF91CF911F910F91FF90EF9002
:10305000DF900C94CA17909192019EBD811110923D
:103060009201E3E9F1E022E030E0908181111082E9
:103070000DB407FEFDCF9EBD2F5F3F4F319621302F
:1030800094E0390791F70DB407FEFDCF0895209124
:103090004D06282329F490914C06982381E009F4E9
:1030A00080E008955F926F927F928F929F92AF928D
:1030B000BF92CF92DF92EF92FF920F931F93CF9325
:1030C000DF93EC018B017A01A901461B570B57FFD7
:1030D00003C0519541955109C7018C1B9D0B97FF6A
:1030E00003C09195819591095524539484179507B0
:1030F00014F0512C0AC09E2D8F2D7901292F382FC5
:103100009C2F8D2FE801092F182FEC16FD0654F483
:10311000902F812F8901292F382F9C2F8D2FE70188
:10312000E92EF82E37016C1A7D0A5901A01AB10A4E
:10313000B7FE03C0B194A194B108630177FE03C048
:103140008FEFC81AD80AD594C7940217130714F042
:103150008FEF01C081E0882E880F9908EC16FD06DC
:10316000B4F020E0552019F0AE01B80102C0A8016A
:10317000BE0187E496E00E945213CA18DB08D7FE0E
:1031800004C0080D191DC60CD71C2196E7CFDF918E
:10319000CF911F910F91FF90EF90DF90CF90BF9054
:1031A000AF909F908F907F906F905F9008952F9237
:1031B0003F924F925F926F927F928F929F92AF92C7
:1031C000BF92CF92DF92EF92FF920F931F93CF9314
:1031D000DF93CDB7DEB7A5970FB6F894DEBF0FBE6D
:1031E000CDBF8C017B01FC01248435846481758111
:1031F000868197810E94342D4B015C01F80160812A
:103200007181828193810E94342D2B013C0186E0E3
:10321000F8017496DE015D9601900D928A95E1F7B2
:1032200086E0FE017D96DE01199601900D928A9549
:10323000E1F75A8249829C828B82FE82ED82388637
:103240002F828EE0FE013196DE011F9601900D92D5
:103250008A95E1F7209108063091090680910A06C7
:1032600090910B062817390708F043C040910606D5
:103270005091070624173507E1F52115310521F096
:10328000A901440F551F02C041E050E08417950783
:1032900028F0509309064093080604C0909309064D
:1032A0008093080680910806909109066EE0AC01B3
:1032B000649FC001659F900D11242BA33CA36DA3B7
:1032C0000E944C2F8C01C0900C06D0900D062BA1B3
:1032D0003CA16DA1629FA001639F500D1124B60116
:1032E0000E947E30C6010E94E12F10930D060093CC
:1032F0000C064091060650910706809108069091B1
:1033000009064817590700F5A0910C06B0910D0663
:10331000CA0101969093070680930606588A4F8645
:103320009A8A898AFC8AEB8A3E8A2D8A8EE0849F5B
:103330009001859F300D1124A20FB31FFE013F960F
:1033400001900D928A95E1F7A5960FB6F894DEBF2D
:103350000FBECDBFDF91CF911F910F91FF90EF90E6
:10336000DF90CF90BF90AF909F908F907F906F90A5
:103370005F904F903F902F90089580916506811146
:103380000DC082E08093610684E080936206109213
:1033900064061092630681E08093650681E696E0FC
:1033A0000895FC018485958597FD0BC09FB7F8941F
:1033B00082E08093E9008091F2009FBF90E0019647
:1033C00008959FB7F89482E08093E9008091F2001D
:1033D0009FBF90E008954091C1065091C206209190
:1033E000BF063091C00642175307B4F49091E8002D
:1033F0009570E1F39091E80092FD19C08093F1007F
:103400008091C1069091C20601968F739927892BEE
:1034100019F48EEF8093E8008091C1069091C20666
:1034200001969093C2068093C10681E0089580E0E2
:103430000895CF92DF92EF92FF920F931F93CF9355
:10344000DF931F92CDB7DEB7182F062FE42E862FFD
:10345000880F8E5F99830E94EB1983E00E94EB191D
:10346000F12EC12E9981D92E8C2D8F19801798F4A9
:10347000F601E7FE02C0849101C080810E94EB1931
:10348000182F80E00E94EB198123FFEFCF1ADF0A8B
:103490008111EACF01C081E00F90DF91CF911F91A0
:1034A0000F91FF90EF90DF90CF900895DF92EF9211
:1034B000FF920F931F93CF93DF93D82E8A017B0146
:1034C000E40EF51EEB01CE15DF0571F0D7FE03C04B
:1034D000FE01849101C088810E94EB19219681111F
:1034E000F2CF8FEF9FEF01C0C801DF91CF911F9105
:1034F0000F91FF90EF90DF900895615030F0209190
:10350000F100FC0120830196F8CF289884E680938F
:10351000900108950F931F93CF93DF931F92CDB720
:10352000DEB782E0898342E450E062E77CE180E834
:103530000E94561A0E94BD19DC0112960D911C9131
:1035400013970115110569F0D801ED91FC910280E6
:10355000F381E02DBE016F5F7F4FC801099597FF92
:1035600007C089810F90DF91CF911F910F9108952E
:10357000F80100851185E5CF1F920F920FB60F92CB
:1035800011248F939F938091E1009091E100937FAC
:103590009093E10083FF0FC01092E90091E09093B7
:1035A000EB001092EC0092E39093ED0010929101E9
:1035B00098E09093F00082FF20C093E09093E900A0
:1035C0009091F200992319F09AE39093E80090917A
:1035D0008E01992339F090918E01915090938E0134
:1035E000992389F190919001992339F0909190015C
:1035F000915090939001992341F184FF10C08091E4
:10360000E2008E7E81608093E2008091E1008F7EF7
:103610008093E10080918F018E7E806111C080FFD8
:1036200016C08091E2008E7E80618093E2008091DE
:10363000E1008E7E8093E10080918F018E7E81601B
:1036400080938F0104C05D9ACDCF289AD6CF9F91E9
:103650008F910F900FBE0F901F9018951F920F9291
:103660000FB60F921124CF92DF92EF92FF920F9339
:103670001F932F933F934F935F936F937F938F93FA
:103680009F93AF93BF93EF93FF93CF93DF93CDB708
:10369000DEB76C97DEBFCDBF1092E9008091E800E5
:1036A00083FFEDC168E0CE0145960E947D1A82EF4E
:1036B0008093E8008D8987FF05C09091E80090FF16
:1036C000FCCF03C09EEF9093E800982F907609F00E
:1036D000C6C09E892F89188D91110CC0803829F49D
:1036E0008091BE068093F10002C01092F10010920A
:1036F000F10048C1422F50E0512B913051F481111B
:1037000041C14130510509F03DC18091BE068D7F18
:103710000BC0933061F4811135C14130510509F07E
:1037200031C18091BE0682608093BE062BC1953068
:1037300041F48091E80080FFFCCF20682093E300F3
:1037400021C1963009F05FC0EB8CFC8C1092E9002F
:103750001092C2061092C106123091F51092C00666
:103760001092BF060E948A1A99E0BE016F5F7F4FD8
:10377000DB01E92F1D92EA95E9F799831A8391E01D
:103780009E8390EA98879AEF99872091C10630919D
:10379000C206275F3F4F3C832B838D831092E90045
:1037A0001092C2061092C106F092C006E092BF06C7
:1037B00049E050E080E00E94561A0E948A1AE2C056
:1037C000F092C006E092BF060E94BD19DC0112967D
:1037D000ED90FC901397E114F10409F4C0C0D701F7
:1037E000ED91FC910480F581E02DBE016B5E7F4F71
:1037F000C7010995009719F00CF0C4C0C7C0F701C4
:10380000E084F184E8CF973009F4C0C0983021F407
:1038100081E08093F100B6C0993009F0B3C08370A5
:1038200009F0B4C0EFE6F1E081E021E036E39081F9
:10383000992361F08093E9002093EB00919190939C
:10384000EC003093ED008F5F873089F78EE780932F
:10385000EA001092EA008F898093910193C08B8DCA
:103860009C8D1092E9001092C2061092C1069093AE
:10387000C0068093BF06898D811156C08E899D89AF
:10388000913A59F4813209F081C047E050E066E294
:1038900071E080E00E94561A75C0913209F076C03E
:1038A000833289F4888D90E0982F88272F89822B86
:1038B000A0E0B0E080932E0190932F01A0933001FF
:1038C000B09331015FC0803269F48091E80082FFDB
:1038D000FCCF67E086E291E00E947D1A8BEF809337
:1038E000E80006C0823209F04DC08F8980932D0117
:1038F0008091BD06882319F0EEEFFAE002C0E0E007
:10390000F8E08091260190912701A0912801B091C3
:103910002901803B9440A105B10509F07BC080914D
:103920002D0180FF93C076C00E94BD19DC01129664
:103930000D911C9113970115110541F1D801ED91DD
:10394000FC910190F081E02DBE016B5E7F4FC801BC
:103950000995811117C0F80100851185ECCF113050
:1039600009F44EC0133091F48F89882309F445C0BF
:10397000823081F440E860E186ED9CE10E94191AF2
:10398000882321F08EEF8093E80079C081E2809354
:10399000EB0075C0813029F440E86BE08AEC9CE1D3
:1039A000EDCF833099F70E94BD19DC011296ED909E
:1039B000FC9013978E010F5F1F4F6801E114F10413
:1039C00079F0D701ED91FC910680F781E02DB801E7
:1039D000C7010995080F111DF701E084F184EECFAE
:1039E000D8011C92F60101900020E9F73197BF0140
:1039F0006C197D0940E0C601C1CF64EB7CE102C0D7
:103A000068EB7CE16115710509F2FB01449150E01E
:103A100080E840CF0FB6F894A89580916000886147
:103A200080936000109260000FBEA895EE3F2AE0E0
:103A3000F20739F08091FE0A9091FF0A918380830A
:103A4000A1CF1092FF0A1092FE0A9CCFEE3F8AE0AF
:103A5000F80731F0808191819093FF0A8093FE0AEC
:103A600087E797E7918380839BE088E10FB6F8941E
:103A7000A895809360000FBE9093600083CF6C96F2
:103A80000FB6F894DEBF0FBECDBFDF91CF91FF918F
:103A9000EF91BF91AF919F918F917F916F915F91C6
:103AA0004F913F912F911F910F91FF90EF90DF90D9
:103AB000CF900F900FBE0F901F901895CF93DF936C
:103AC00000D000D000D0CDB7DEB7789484B5826046
:103AD00084BD84B5816084BD85B5826085BD85B5B2
:103AE000816085BD80916E00816080936E00109230
:103AF00081008091810082608093810080918100AB
:103B0000816080938100809180008160809380003B
:103B100080919100826080939100809191008160FA
:103B200080939100809190008160809390008091BB
:103B3000C10084608093C1008091C1008260809345
:103B4000C1008091C10081608093C1008091C30059
:103B500081608093C3008091C00082608093C00028
:103B60008091C20081608093C20080917A0084605D
:103B700080937A0080917A00826080937A008091AD
:103B80007A00816080937A0080917A0080688093C7
:103B90007A00109291011092BE0610928F018091CE
:103BA000D70081608093D70080EA8093D80089B5E0
:103BB000806189BD89B5826089BD09B400FEFDCFF1
:103BC00061E070E080E090E00E94140F8091D800E6
:103BD0008F7C80618093D8008091E000807F80930B
:103BE000E0008091E1008E7E8093E1008DE0809383
:103BF000E200559A209AEEEFFFE7859194918B3F72
:103C00009C4D19F481E08093BD0681EC80937C008B
:103C100085B1806F85B9249884B1866E84B95E9A27
:103C20005F988AB1806D8AB9769A6E9881B3806FF9
:103C300081BB899880B38D7080BB80E58CBD81E0AD
:103C40008DBD85E090E00E94D1125F9A85E090E002
:103C50000E94D1125E985C98FAECEF2EF0E0FF2EF5
:103C60000DE00E0DF70184910E94FE12FFEFEF1A96
:103C7000FF0A0E11F7CF5C9A81E88093640081E01F
:103C80008093650000E014E080E00E94FE12015085
:103C90001109D1F70E94D61287FF1FC05C9885EAF0
:103CA0000E94FE125C9A2E982F982D9880916400A5
:103CB0008062809364000E94F312FDCF2D980E94D1
:103CC000D6128478843871F00E94D61284718431BF
:103CD00029F188EC90E00E94D1120E94D61282FD58
:103CE000EDCF38C02D9A88EC90E00E94D1122F9829
:103CF00082E090E00E94D22B8F3F29F06FEF82E0AC
:103D000090E00E94DA2B84EF91E00E94D1122F9A6A
:103D10000E94D61284788438D9F3D6CF2D9A88ECB5
:103D200090E00E94D1122E9882E090E00E94D22B67
:103D3000882329F060E082E090E00E94DA2B84EF93
:103D400091E00E94D1122E9A0E94D6128471843181
:103D5000D9F3BFCF2D9A82E090E00E94D22B882326
:103D600019F00E94091302C00E94041382E390E03C
:103D70000E94D1120E94D6128111F8CF8091640066
:103D80008E7F8093640080917A00806480937A00B3
:103D900080917A0086FDFCCF009178001091790027
:103DA0000E94EF0E20E030E0980111270027600FFD
:103DB000711F821F931F611571058105910511F017
:103DC0000E94C92B8091640081608093640054E05C
:103DD000252E312C10E12FB7F89480917601909127
:103DE0007701A0917801B09179012FBF40915306DE
:103DF00050915406609155067091560620915706D1
:103E0000222341F020914F06821B80935806109286
:103E100057060AC284179507A607B70738F4481B48
:103E2000423008F401C20E94F312FEC101E0009387
:103E3000570680934F0690935006A0935106B09377
:103E4000520620914E06820F911DA11DB11D809337
:103E5000530690935406A0935506B093560680914E
:103E60004A0690914B06019690934B0680934A0622
:103E700080914C0680934D060E94D61280934C068A
:103E800080912001811110C00E94D61286FD0CC0C5
:103E9000D3C180914A0690914B0666E970E00E947A
:103EA0001E2F892B09F0E9C181E0809320018091C8
:103EB0000C01811153C2F0901B01F1100AC08091D6
:103EC0007F0121E030E0281B310930931F0120934E
:103ED0001E0180E20E9447188823A1F0F11009C05A
:103EE00080910D0190910E01181619065CF501974D
:103EF00018C080911E0190911F011816190614F523
:103F000001971CC080E40E9447188823D9F0F11063
:103F10000DC080910D0190910E018330910594F4B4
:103F2000019690930E0180930D010CC080911E01AB
:103F300090911F01181619062CF0019690931F01FD
:103F400080931E0188E00E944718882309F482C0EC
:103F5000F1105DC080910D0190910E0181309105AD
:103F600021F481E080930C01F9C190931D018093AD
:103F70001C0181E080931B01E8E8F4E00491E9E88A
:103F8000F4E0E490B2E0CB2E20E030E04AE854E0E8
:103F900062E070E08AE090E00E94A61080911B0130
:103FA0008111F5C020910D0130910E01E0901501B5
:103FB000F0901601F1E0EF1AF108409113015091D1
:103FC0001401249FC001259F900D349F900D112452
:103FD000E80EF91E4091170150911801249FC0016D
:103FE000259F900D349F900D1124E80EF91E7090BE
:103FF000110180910F01A0901901B0901A0121E0E8
:10400000A21AB10867014701880E911C2CC080914B
:104010001C0190911D01039709F0AECF80911E0104
:1040200090911F01009719F40E94091304C0019791
:1040300011F40E94041360917F0182E090E06D838F
:104040000E94D22B6D81681759F082E090E00E94A7
:10405000DA2B06C084E00E944718882309F48CCF2D
:1040600010921B0189CFC814D90454F421E0472DC4
:10407000B501C6010E94CA173FEFC31AD30AF3CF96
:10408000209111012E5F40910F014E5F6091190147
:1040900070911A016250710900E0C70101970E94F6
:1040A000F617209111013091120140910F015091AA
:1040B00010016091190170911A0161507109C701D5
:1040C0000E945F146091190170911A0120E04CE583
:1040D00054E080911501909116010E948D1260911B
:1040E000190170911A0120911501309116018091EA
:1040F000130190911401820F931FE0911701F09129
:10410000180120E040E354E08E0F9F1F0E948D12A3
:104110006091190170911A0180911301909114011D
:10412000880F991F2091150130911601820F931F5E
:10413000E0911701F0911801EE0FFF1F20E044E01D
:1041400054E08E0F9F1F0E948D1260911901709193
:104150001A0180911301909114019C01220F331FC9
:10416000820F931F2091150130911601820F931F2A
:104170002091170130911801F901EE0FFF1FE20F96
:10418000F31F20E048ED53E08E0F9F1F48C0809141
:104190001C0190911D01039709F043C080911E01FD
:1041A00090911F01009739F0019751F442E150E0DE
:1041B0008AE490E009C04DE050E08BE390E004C059
:1041C00040E050E080E090E0209111013091120138
:1041D0006091190170911A01615071090E945F1478
:1041E0006091190170911A0120E040EB53E085E2E3
:1041F00090E00E948D126091190170911A0120E0E7
:1042000048E953E08CE390E00E948D12609119011F
:1042100070911A0120E046E753E08BE490E00E94A1
:104220008D1280E00E942B1880E090E0892B09F429
:10423000D2CD0E940000CECD609124017091250165
:10424000653071050CF025CE6F5F7F4F70932501AF
:10425000609324018091220190912301EEEEF1E020
:104260000491EFEEF1E0E4904AEFC42E20E030E05C
:1042700040EF51E00E94A6106FC080912101811192
:1042800033C0809171008D7F8093710010927E0108
:1042900082E995E090937D0180937C0190937B016E
:1042A00080937A0186E194E0909393058093920540
:1042B00082E390E090939505809394058DE298E0D9
:1042C000909397058093960584E690E090939905E6
:1042D0008093980580E090E890939B0580939A05E1
:1042E0000E94980F00932101609124017091250193
:1042F0008091220190912301EEEEF1E00491EFEE26
:10430000F1E0E4902AEFC22E20E030E040EF51E0EF
:104310000E94A6106091240170912501675E7F4F75
:1043200080912201909123018096E5EEF1E00491C5
:10433000E6EEF1E0E49032E0C32E20E030E047EE1C
:1043400051E00E94A61020E047ED50E06EE270E0E0
:104350008EE190E00E948D1281E064CF81E0E2E97D
:10436000F1E081118FEF00248193819381938193F8
:104370000394D1F71092070610920606E12CF12C57
:104380008091AA059091AB05E816F90608F0A0C047
:10439000F70124E0EE0FFF1F2A95E1F78090B005AA
:1043A0009090B10534016E0E7F1ED3011896CD900A
:1043B000DC901997C114D10411F4A70169C0D3018D
:1043C0001E96AD90BC901F97BB2480914A06909199
:1043D0004B06B5010E941E2F892B41F4B1E0CB1A88
:1043E000D108D3011996DC92CE92189780914A0693
:1043F00090914B06B5010E941E2F892BC9F4D30161
:104400001C968D919C911D971A964D915C911B97CE
:10441000415051098417950730F401961D969C93DD
:104420008E931C9705C0D3011D961C921E921C975B
:104430008E0E9F1E209104013091050140910601CE
:1044400050910701F40164817581868197810E94F2
:104450004B2C0E94342D2B013C0120910001309106
:1044600001014091020150910301D4016D917D91B0
:104470008D919C910E944B2C0E94342DDC01CB012C
:10448000F401248548E257E1B2010E948D121CC05C
:104490004817590781F0D301AC0DBD1DFD01709681
:1044A000612F01900D926A95E1F74F5F5F4FF0E148
:1044B000CF0ED11CEDCF415051095093AB05409325
:1044C000AA0521E0E21AF1083FEFE31AF30A58CFF8
:1044D0000E94C42B24E630E040E050E00E94E82B2C
:1044E00062307105810591050CF08BC020E030E051
:1044F000A901609132067091330680913406909143
:1045000035060E945B2E18160CF07BC060912006C9
:10451000709121067695679580E090E00E946A2D63
:104520002091120630911306409114065091150601
:104530000E944C2C20E030E040E850E40E944B2CDC
:104540002B013C0160911E0670911F0676956795C0
:1045500080E090E00E946A2D20910E0630910F06B7
:1045600040911006509111060E944C2C20E030E042
:1045700040E850E40E944B2C4B015C01E090AC05FC
:10458000F090AD058091AE059091AF05E816F90663
:1045900040F42091AA053091AB05E216F30609F428
:1045A0007FC68091AA059091AB052091AC05309112
:1045B000AD058217930728F52091B0053091B1051C
:1045C000AC014F5F5F4F5093AB054093AA05F4E0F9
:1045D000880F991FFA95E1F7F901E80FF91F80821A
:1045E0009182A282B382448255826682778231862A
:1045F0002086338622861586148688E090E0978789
:104600008687C12CD12C4091A2055091A305C416D8
:10461000D50608F064C0E090A805F090A905C60191
:10462000E4E0880F991FEA95E1F7E80EF91ED7013B
:1046300018968D919C911997009711F4960131C0AD
:104640000197F7019187808720910401309105013E
:10465000409106015091070164817581868197819F
:104660000E944B2C0E94342D4B015C0120910001D3
:10467000309101014091020150910301D7016D91E8
:104680007D918D919C910E944B2C0E94342DDC01D8
:10469000CB01F701248546EA5FE0B4010E948D1248
:1046A0001AC02417350771F0D701A80FB91FFD01F3
:1046B0007096612F01900D926A95E1F72F5F3F4F41
:1046C0004096EFCF215031093093A3052093A205E6
:1046D000F1E0CF1AD1082FEFC21AD20A94CF0E946C
:1046E000D61284FF92C080901A0690901B064090CC
:1046F0001206509013066090140670901506809173
:104700000E0690910F06A0911006B09111068983B4
:104710009A83AB83BC83E090A405F090A5058091BB
:10472000A6059091A705E816F906E0F52091A205E7
:104730003091A305E216F306A9F5E114F10421F086
:104740009701220F331F02C021E030E08217930748
:1047500028F03093A5052093A40504C09093A505E7
:104760008093A4058091A4059091A50554E0880F3D
:10477000991F5A95E1F70E944C2F6C01A090A80553
:10478000B090A905A70164E0440F551F6A95E1F7B1
:10479000B5010E947E30C5010E94E12FD092A9058B
:1047A000C092A8058091A2059091A3052091A4052F
:1047B0003091A5058217930740F5E091A805F09187
:1047C000A9059C012F5F3F4F3093A3052093A205BD
:1047D00044E0880F991F4A95E1F7E80FF91F898196
:1047E0009A81AB81BC8180839183A283B38344820D
:1047F000558266827782AAE0B0E0B187A0871386EF
:104800001286958684861786168682EB95E00E942E
:1048100067166CE67FE082EB95E00E94D71820E0F7
:1048200030E0A90160913206709133068091340620
:10483000909135060E945B2E1816ACF50E94D61298
:1048400085FF13C020913A0630913B0640913C060B
:1048500050913D0660912E0670912F068091300692
:10486000909131060E944C2C16C00E94D61286FFF1
:104870001AC020913A0630913B0640913C06509177
:104880003D0660912E0670912F0680913006909122
:1048900031060E944B2C60932E0670932F06809356
:1048A00030069093310660912E0670912F0680910C
:1048B0003006909131060E94342DCB0168E671E0FC
:1048C0000E94322FBC01990F880B990B0E946C2D0E
:1048D0006B017C0120E030E0A9010E94B82C87FF29
:1048E0000AC020E030E044EB53E4C701B6010E9467
:1048F0004C2C6B017C01C0922E06D0922F06E092C8
:104900003006F09231060E94D61283FF29C0209112
:104910003E0630913F06409140065091410660911D
:1049200032067091330680913406909135060E94CC
:104930004C2C609332067093330680933406909328
:104940003506C0903606D0903706E0903806F090D5
:104950003906A70196010E945B2E181604F130C09B
:104960000E94D61282FF2CC020913E0630913F0655
:104970004091400650914106609132067091330695
:1049800080913406909135060E944B2C6B017C017E
:1049900020E030E0A9010E94B82C87FD09C0C09238
:1049A0003206D0923306E0923406F092350608C003
:1049B0001092320610923306109234061092350689
:1049C00020E030E044EB53E460912E0670912F0616
:1049D00080913006909131060E94C22C6B017C01BF
:1049E0006091180670911906072E000C880B990B20
:1049F0000E946C2D9B01AC01C701B6010E94602E84
:104A00000E94342D70931B0660931A068EE096E088
:104A10000E9495148EE096E00E9467166AEE77E099
:104A20008EE096E00E94D7182091CC053091CD05FC
:104A30004091CE055091CF056091D0057091D10580
:104A40008EE096E00E94701582ED95E00E9495142C
:104A500082ED95E00E9467166AEE77E082ED95E0C0
:104A60000E94D7182091CC053091CD054091CE05FC
:104A70005091CF056091D0057091D10582ED95E000
:104A80000E947015609120067091210676956795B9
:104A900080E090E00E946A2D20911206309113066A
:104AA00040911406509115060E944C2C4B015C015C
:104AB00060911E0670911F067695679580E090E0E4
:104AC0000E946A2D20910E0630910F06409110062B
:104AD000509111060E944C2C6B017C01409000010A
:104AE00050900101609002017090030120E030E0DD
:104AF00040E052E4C301B2010E944C2CA701960190
:104B00000E945B2E18163CF420E030E040E052E4B6
:104B1000C701B60120C020E030E040E053E4C3010B
:104B2000B2010E944C2C20E030E040E052E40E94B0
:104B30004B2CA70196010E94B82C87FF16C020E0DD
:104B400030E040E052E4C701B6010E944C2C20E066
:104B500030E040E053E40E944B2C609300017093DE
:104B60000101809302019093030140900001509055
:104B70000101609002017090030120E030E0A90182
:104B8000C301B2010E94B82C87FF09C01092000136
:104B90001092010110920201109203012EC0E090C8
:104BA0000801F090090120E030E040E053E4C30147
:104BB000B2010E944C2C2B013C01B7010F2C000CC0
:104BC000880B990B0E946C2D9B01AC01C301B201B3
:104BD0000E945B2E18168CF4B70160587109072EDD
:104BE000000C880B990B0E946C2D60930001709350
:104BF00001018093020190930301C0900401D090C1
:104C00000501E0900601F090070120E030E040EC63
:104C100051E4C701B6010E944C2CA50194010E94E9
:104C20005B2E18163CF420E030E040EC51E4C50166
:104C3000B40120C020E030E040E852E4C701B601F2
:104C40000E944C2C20E030E040EC51E40E944B2CC0
:104C5000A50194010E94B82C87FF16C020E030E027
:104C600040EC51E4C501B4010E944C2C20E030E03E
:104C700040E852E40E944B2C6093040170930501BC
:104C800080930601909307018090040190900501A4
:104C9000A0900601B090070120E030E0A901C50115
:104CA000B4010E94B82C87FF09C010920401109231
:104CB000050110920601109207012EC0E0900A0132
:104CC000F0900B0120E030E040E852E4C501B4016F
:104CD0000E944C2C4B015C01B7010F2C000C880B7F
:104CE000990B0E946C2D9B01AC01C501B4010E947F
:104CF0005B2E18168CF4B70160547109072E000C56
:104D0000880B990B0E946C2D609304017093050130
:104D10008093060190930701809004019090050113
:104D2000A0900601B0900701C0900001D090010151
:104D3000E0900201F0900301A501940160E070E0B1
:104D400088E492E40E944B2C0E94342D69837A837C
:104D50008B839C83A701960160E070E080EA92E477
:104D60000E944B2C0E94342D2B013C01A501940183
:104D700060E070E0CB010E944B2C0E94342D4B016F
:104D80005C01A701960160E070E0CB010E944B2C12
:104D90000E94342DDC01CB0129813A81A201B401AA
:104DA0000E9452188090040190900501A090060185
:104DB000B0900701C0900001D0900101E090020185
:104DC000F0900301A501940160E070E080EA92E4B4
:104DD0000E944B2C0E94342D69837A838B839C83A1
:104DE000A701960160E070E080EF92E40E944B2CF6
:104DF0000E94342D2B013C01A501940160E070E07C
:104E000088E492E40E944B2C0E94342D4B015C01FB
:104E1000A701960160E070E080EA92E40E944B2CCA
:104E20000E94342DDC01CB0129813A81A201B40119
:104E30000E9452188090040190900501A0900601F4
:104E4000B0900701C0900001D0900101E0900201F4
:104E5000F0900301A501940160E070E080E793E425
:104E60000E944B2C0E94342D69837A838B839C8310
:104E7000A701960160E070E080E293E40E944B2C71
:104E80000E94342D2B013C01A501940160E070E0EB
:104E900080EA92E40E944B2C0E94342D4B015C016D
:104EA000A701960160E070E080EF92E40E944B2C35
:104EB0000E94342DDC01CB0129813A81A201B40189
:104EC0000E9452188090040190900501A090060164
:104ED000B0900701C0900001D0900101E090020164
:104EE000F0900301A501940160E070E08CE893E488
:104EF0000E944B2C0E94342D69837A838B839C8380
:104F0000A701960160E070E080E793E40E944B2CDB
:104F10000E94342D2B013C01A501940160E070E05A
:104F200080E793E40E944B2C0E94342D4B015C01DE
:104F3000A701960160E070E080E293E40E944B2CB0
:104F40000E94342DDC01CB0129813A81A201B401F8
:104F50000E9452188090040190900501A0900601D3
:104F6000B0900701C0900001D0900101E0900201D3
:104F7000F0900301A501940160E070E084EB93E4FC
:104F80000E944B2C0E94342D69837A838B839C83EF
:104F9000A701960160E070E088EC93E40E944B2C3E
:104FA0000E94342D2B013C01A501940160E070E0CA
:104FB0008CE893E40E944B2C0E94342D4B015C0141
:104FC000A701960160E070E080E793E40E944B2C1B
:104FD0000E94342DDC01CB0129813A81A201B40168
:104FE0000E9452188090040190900501A090060143
:104FF000B0900701C0900001D0900101E090020143
:10500000F0900301A501940160E070E086E194E472
:105010000E944B2C0E94342D69837A838B839C835E
:10502000A701960160E070E086E194E40E944B2CB9
:105030000E94342D2B013C01A501940160E070E039
:1050400084EB93E40E944B2C0E94342D4B015C01B5
:10505000A701960160E070E088EC93E40E944B2C7D
:105060000E94342DDC01CB0129813A81A201B401D7
:105070000E9452188090000190900101A0900201BE
:10508000B090030120910401309105014091060187
:105090005091070160E070E086E194E40E944B2C9F
:1050A0000E94342D6B017C01A501940160E070E049
:1050B0008AE794E40E944B2C0E94342D2B013C0182
:1050C000A501940160E070E086E194E40E944B2C1D
:1050D0000E94342DDC01CB019601A201B6010E9491
:1050E00052188090040190900501A0900601B090A4
:1050F0000701C0900001D0900101E0900201F09002
:105100000301A501940160E070E08FE294E40E9445
:105110004B2C0E94342D69837A838B839C83A70157
:10512000960160E070E088EC94E40E944B2C0E94B1
:10513000342D2B013C01A501940160E070E086E173
:1051400094E40E944B2C0E94342D4B015C01A7017A
:10515000960160E070E08AE794E40E944B2C0E9484
:10516000342DDC01CB0129813A81A201B4010E94D6
:1051700052188090040190900501A0900601B09013
:105180000701C0900001D0900101E0900201F09071
:105190000301A501940160E070E08AE794E40E94B5
:1051A0004B2C0E94342D69837A838B839C83A701C7
:1051B000960160E070E08AEF94E40E944B2C0E941C
:1051C000342D2B013C01A501940160E070E08FE2D9
:1051D00094E40E944B2C0E94342D4B015C01A701EA
:1051E000960160E070E088EC94E40E944B2C0E94F1
:1051F000342DDC01CB0129813A81A201B4010E9446
:105200005218A12CB12CC12CD12C80910606909162
:105210000706C816D90608F09FC8E0900C06F09063
:105220000D06EA0CFB1CF701848095806281738176
:10523000072E000C880B990B0E946C2D2091040105
:105240003091050140910601509107010E944B2CBD
:105250000E94342D2B013C01D7018D919C91BC0102
:10526000990F880B990B0E946C2D209100013091B1
:10527000010140910201509103010E944B2C0E94B8
:10528000342DDC01CB01F7012681A401B2010E947B
:105290008D12FFEFCF1ADF0A2EE0A20EB11CB5CFA0
:1052A000E114F10421F09701220F331F02C021E025
:1052B00030E08217930728F03093AD052093AC05BA
:1052C00004C09093AD058093AC058091AC0590919E
:1052D000AD05A4E0880F991FAA95E1F70E944C2F15
:1052E0006C012091B0053091B105A701B4E0440FE5
:1052F000551FBA95E1F7B9012D833E830E947E3098
:105300002D813E81C9010E94E12FD092B105C0924A
:10531000B00547C90F931F93CF93DF938C0181E0B2
:1053200090E00E94D22B80FF32C08AE090E00E9481
:10533000D22B9FEF980F9E3F50F522E330E0D8012B
:1053400057963C932E93569728E330E059963C931A
:105350002E935897CBE0D0E0D801ED91FC910190CD
:10536000F081E02D682FC8010995CE010E94D22B53
:105370002196C131D10581F780E00E942B1888EE7B
:1053800093E0DF91CF911F910F910C94D112DF9197
:10539000CF911F910F91089504970C948A298091C1
:1053A000A8059091A9050E94E12F8091B0059091E8
:1053B000B1050E94E12F80910C0690910D060C948E
:1053C000E12F2F923F924F925F926F927F928F9236
:1053D0009F92AF92BF92CF92DF92EF92FF920F9384
:1053E0001F93CF93DF93EDE6F6E01382128288EEEF
:1053F00093E0A0E0B0E084839583A683B7838CE438
:1054000091E0918380838FEF9FEF95878487E3E41A
:10541000F6E0138212821186128620E1238790879C
:105420008783108A118A128A138A148A8EE591E082
:10543000918380838CE691E095838483178A168A12
:10544000118E108E81E0828F138E848F158E85EEE3
:105450009EE09093A1058093A00580E090E8909352
:105460009F0580939E0546983E9A47983F9ACEE0C6
:10547000D6E0188219821A821B821C821D821E822B
:105480001F82198618861B861A861D861C861F8613
:105490001E86198A188A1B8A1A8A1D8A1C8A1F8AE4
:1054A0001E8A188E198E18A219A21AA21BA21CA25B
:1054B0001DA21EA21FA2C12CD12CE12C80E4F82E2B
:1054C000C8A6D9A6EAA6FBA6412C512C90E4692EC9
:1054D000762C4CA65DA66EA67FA68AE097EDA3EA81
:1054E000BCE388AB99ABAAABBBAB0E94C42B28E64C
:1054F000822E99249394A12CB12CA50194010E9491
:10550000E82B0E946C2D68A379A38AA39BA380E05B
:1055100090E0A0EAB1E488839983AA83BB838C835B
:105520009D83AE83BF8334E1232E312C398A288AB0
:1055300000E110E01B8B0A8B86E0ECE3F1E0A2E2D5
:10554000B6E001900D928A95E1F7A8E1B0E0BB8743
:10555000AA87E6E0F6E011821082138212828AE0C6
:1055600090E09583848317821682C2EDD5E018827D
:1055700019821A821B821C821D821E821F8219863A
:1055800018861B861A861D861C861F861E86198A0B
:10559000188A1B8A1A8A1D8A1C8A1F8A1E8A188EDC
:1055A000198E18A219A21AA21BA21CA21DA21EA229
:1055B0001FA2C8A6D9A6EAA6FBA64CA65DA66EA603
:1055C0007FA68AE097EDA3EABCE388AB99ABAAABD0
:1055D000BBAB0E94C42BA50194010E94E82B0E9442
:1055E0006C2D68A379A38AA39BA3398A288A1B8B75
:1055F0000A8B80E090E0A8ECB2E488839983AA83C8
:10560000BB8380E090E0A8E4B2E48C839D83AE830A
:10561000BF8386E0ECE3F1E0A6EEB5E001900D92E9
:105620008A95E1F7C8A6D9A6EAA6FBA6CCA6DDA670
:10563000EEA6FFA68DEC9CECACE4BDE388AB99AB89
:10564000AAABBBABA8E1B0E0BB87AA87E2EBF5E071
:10565000118610861386128615861486178616867E
:105660008EE090E0918B808B138B028B80E090E03A
:10567000A0EFB1E480839183A283B3838483958375
:10568000A683B78386E0E2E4F1E0A6ECB5E0019002
:105690000D928A95E1F7EAEAF5E011821082138211
:1056A000128283E090E09583848317821682E2EA77
:1056B000F5E011821082138212828AE090E09583D5
:1056C000848317821682DF91CF911F910F91FF90F3
:1056D000EF90DF90CF90BF90AF909F908F907F9092
:1056E0006F905F904F903F902F9008958F929F9270
:1056F000AF92BF92CF92DF92EF92FF92CF93DF9360
:10570000EC01688179818A819B8161157105810530
:10571000910521F464E279ED8BE597E02DE133EF1B
:1057200041E050E00E94E82B49015A019B01AC0185
:10573000A7EAB1E40E94072C6B017C01ACEEB4EF48
:10574000A50194010E94152CDC01CB018C0D9D1D3F
:10575000AE1DBF1DB7FF03C00197A109B0488883E4
:105760009983AA83BB83BC01CD019F77DF91CF9141
:10577000FF90EF90DF90CF90BF90AF909F908F9071
:1057800008950E94762B089582E391E00E94762B83
:1057900008956093320170933301809334019093A4
:1057A00035010895F999FECF92BD81BDF89A9927E8
:1057B00080B50895262FF999FECF1FBA92BD81BDFD
:1057C00020BD0FB6F894FA9AF99A0FBE0196089583
:1057D000052E97FB1EF400940E94FF2B57FD07D067
:1057E0000E941A2C07FC03D04EF40C94FF2B50950A
:1057F0004095309521953F4F4F4F5F4F08959095BD
:105800008095709561957F4F8F4F9F4F08950E94AF
:105810003C2CA59F900DB49F900DA49F800D911DD1
:1058200011240895B7FF0C94072C0E94072C821BAB
:10583000930B0895A1E21A2EAA1BBB1BFD010DC0FC
:10584000AA1FBB1FEE1FFF1FA217B307E407F50730
:1058500020F0A21BB30BE40BF50B661F771F881F0C
:10586000991F1A9469F760957095809590959B01A2
:10587000AC01BD01CF010895A29FB001B39FC0014B
:10588000A39F700D811D1124911DB29F700D811D6C
:105890001124911D08955058BB27AA270E94632CFC
:1058A0000C940D2E0E94D42D38F00E94DB2D20F098
:1058B00039F49F3F19F426F40C94D12D0EF4E095A1
:1058C000E7FB0C94CB2DE92F0E94322E58F3BA1728
:1058D000620773078407950720F079F4A6F50C9406
:1058E000542E0EF4E0950B2EBA2FA02D0B01B9010A
:1058F00090010C01CA01A0011124FF27591B99F046
:10590000593F50F4503E68F11A16F040A22F232F51
:10591000342F4427585FF3CF469537952795A795A1
:10592000F0405395C9F77EF41F16BA0B620B730B48
:10593000840BBAF09150A1F0FF0FBB1F661F771FB9
:10594000881FC2F70EC0BA0F621F731F841F48F46E
:10595000879577956795B795F7959E3F08F0B0CFF7
:105960009395880F08F09927EE0F979587950895DE
:105970000E94A72D08F481E008950E94E42DE3958C
:105980000C941E2E0E94D62C0C940D2E0E94DB2D02
:1059900058F00E94D42D40F029F45F3F29F00C9478
:1059A000CB2D51110C94552E0C94D12D0E94322EDA
:1059B00068F39923B1F3552391F3951B550BBB273E
:1059C000AA2762177307840738F09F5F5F4F220F83
:1059D000331F441FAA1FA9F335D00E2E3AF0E0E87A
:1059E00032D091505040E695001CCAF72BD0FE2FC4
:1059F00029D0660F771F881FBB1F26173707480758
:105A0000AB07B0E809F0BB0B802DBF01FF2793580F
:105A10005F4F3AF09E3F510578F00C94CB2D0C94DB
:105A2000552E5F3FE4F3983ED4F3869577956795BE
:105A3000B795F7959F5FC9F7880F911D9695879544
:105A400097F90895E1E0660F771F881FBB1F621763
:105A500073078407BA0720F0621B730B840BBA0B21
:105A6000EE1F88F7E09508950E943B2D6894B111D0
:105A70000C94552E08950E943A2E88F09F5798F066
:105A8000B92F9927B751B0F0E1F0660F771F881F43
:105A9000991F1AF0BA95C9F714C0B13091F00E945D
:105AA000542EB1E008950C94542E672F782F882738
:105AB000B85F39F0B93FCCF3869577956795B39584
:105AC000D9F73EF490958095709561957F4F8F4FF3
:105AD0009F4F0895E89409C097FB3EF490958095F8
