:100000000C9418070C9440070C9440070C9440077C
:100010000C9440070C9440070C9440070C94400744
:100020000C9440070C9440070C94100D0C94820D16
:100030000C9440070C9440070C9440070C94400724
:100040000C9440070C9440070C9440070C94400714
:100050000C9440070C9440070C9440070C946010DB
:100060000C9440070C9440070C9440070C944007F4
:100070000C9440070C9440070C9440070C944007E4
:100080000C9458110C9440070C9440070C944007B2
:100090000C9440070C9440070C9440070C944007C4
:1000A0000C9440070C9440070C944007084AD73B37
:1000B0003BCE016E84BCBFFDC12F3D6C74319ABD37
:1000C00056833DDA3D00C77F11BED9E4BB4C3E915B
:1000D0006BAAAABE000000803F05A84CCDB2D44E4A
:1000E000B93836A9020C50B9918688083CA6AAAA4C
:1000F0002ABE000000803F00138F9BA3787030D988
:10010000D40B65001B119C861B78E4CD90E9B420CC
:1001100001A80E5810C45822086EE37605AF134F9D
:100120009BE9663AD914D94CA44C548A8CD4C5F2B4
:1001300013A910511708128306A2A80280058693FE
:10014000E97422231B138F8F22074517032D831277
:10015000876120085B3DFA991C94B000220B07864A
:100160004101B9112ED4CD1A77134FEF329D861865
:10017000C2642225040D2223F527242E60A04461A9
:100180000093C96483050673C52713CFEFBB1262C2
:10019000B9509A50808645F2831ADB30901BB21515
:1001A00039A99DE531130F5FD31126458A142932F1
:1001B000C7F4F7CCC96452A4C86432617E0813CF77
:1001C0001F4B1CA400A59672A18664F5E374563DEE
:1001D00021BA911B32486BFA0D13CFEFBD044C4985
:1001E000432983B20835C4A9F99E596503053772BE
:1001F000431603636501C39D7713CF77AEB9A8A4F7
:10020000A4210E4A59E8603A2D977C6294E18172EC
:10021000422E808CE2C0CA02304CCD23130FAF5C5B
:100220002C9B8144954991C946CA663AD94EEE192C
:10023000C8743A990EA002802A1A881283202C15BD
:10024000033647130F67968BC970085182804C960E
:100250009BC9663A9D4EEECE6C97D30A15A02A1A1A
:100260004820AA0254580E83B437134FF74C2693F4
:100270006D08039C4C26051723012623DF1961B165
:10028000840A836908241025084845A69339EE138B
:100290000F6796C3C5643990B2984C8A48953A85E1
:1002A000E1CABB0E60B3A93059249040C500820852
:1002B000CBE1626AEB15138FAFC40B752371B1C02C
:1002C000520645880E9B0B78E45171B2C0828B8533
:1002D00003062A2082B80883521171628F134FF7E8
:1002E0004C26D30A7742994891A264D894C9B71290
:1002F0001758265344030812C26602031C6099E390
:100300000E134FEF32994E27938D142952549B644C
:10031000F0E9C6C56444414026532C30C082758E36
:10032000E40513CFEFB3B3186E4B2DA59661FA7B9E
:100330001A466391AD48A818B04219EB0B13CF5F72
:1003400013B10C4AA9A5944107FEAA295B11AD225D
:10035000A18AE8C6F91D130FDF6A1C142952A4E80C
:10036000723233F3FD35A950A16214409960694B94
:10037000FB0D138FEFB845174929B594038BE9B4EA
:100380005CF2A5AC510B56285851065044004DD98B
:100390002CD3B7138FCF3CA56C482965504A5954CC
:1003A0009C960BE623633184015628838144415097
:1003B000072E360BAC3B77138F9BA370495D1890CB
:1003C00032281516CB20DB72113F51992262A925E4
:1003D0002C11444065C090C5122A2CA6F40813CFF6
:1003E000F75C049C16D9482917060399960BF194DB
:1003F000675E5A07DB38441001C5010B16070A4E29
:100400000603D8DD13CFF75C10D8590C6152EE808B
:1004100084E5E042B9E413A30C0FA41430B26041A8
:1004200063D9A0C266D0F104130F7F530B7E035C27
:100430007E11130F7F512617DE3039F049130F7FDD
:10044000511F52E415934F01134F7F4B26EF0C932E
:10045000777E0A130F7F4A268BC94B2683C9E41B7C
:10046000130F7F4B26830FB132F816130F7F5306FD
:10047000F01160F249130F7F5326838796C9470115
:10048000130F7F4B266F94C91B261F03130F7F4A40
:10049000260F584679C464F20D130F7F4A2677DF82
:1004A00030D94C26DF00134F7FD20C3EC464F02DB0
:1004B000130F7F5160F03960009F02138F9BA3B22E
:1004C0005D4C360B28B000015888E014E1227E61B3
:1004D000C8946A694275C082204603458A6ADCAEC8
:1004E0007505138F9B5BE40094C9404606B0002855
:1004F0000B05598927F013C52989A50903070C9114
:10050000A8140D8A30A8D309E308138F8FA21BD536
:10051000C540860561002A0B41D886A39FC94109C1
:100520008B44160E0C0914099BB094BA59E30E13B0
:10053000CF6F1BA61A161260088230109489904B58
:100540003E9BED64618D54097240640B05365DF18C
:1005500009134FEF3B0D61328000505183CAA2F95D
:10056000418D6DA930994C34485DCEF51E13CF5F97
:10057000932E0A5941B20265157FD5941BB215D14D
:100580008DDC707E0713CF1F4B98D850010116B039
:10059000588438FB0BD6503722BA911B52D39A7E1F
:1005A0000313CFCF7309C8C4CA004170004116516C
:1005B00027E9E7CC2A1B28B8911B12B1182B8BE92D
:1005C000CE3B138FCF3C123754162A3040A8031964
:1005D0002C55B6E62363B12DBA089B208584C890BC
:1005E00085098BA087DC01130FAF5C2C9B81140D58
:1005F000138000CD42CA66B29999DC3384E9742233
:10060000881AA410553410250629121503364713ED
:100610008FAFC40B8853105900082CA0C062335907
:100620006EF4C8ABB5DC469522856844020B86960D
:1006300038A816278E1B13CF774F860B10174160F3
:100640000105165060B1B28130C727461904891AD6
:100650003054162C5818931A82E2A0E309138FAF76
:10066000C483751B6401051620000B08B20C78C00A
:10067000BE5F3029A53461C08205410C058B06C5DB
:10068000C140D7BA02138FAFC40B752371B1800577
:1006900080C002882C9B0BE4E423E9A4C4D2C8C226
:1006A000010395225542C04945C4497204138F8FF6
:1006B00022171037581605600102B000029BE602AF
:1006C0007E25DBC922912543A568108541210606B8
:1006D0003258E30E13CF8F2307212E16B080020B62
:1006E000C030413DF4B39D4E16D648D12003C5001D
:1006F0000D14321CC33C01138FDF685C84B200010F
:100700005800022C4238F4677413ACD48528485042
:10071000AC50C8A2EB3D13CF5F932E0AC00210600D
:10072000015056F1574DD98A681591A1886E9CDF0A
:1007300001138F9FE981101680000B00814509CBC2
:10074000F437ACB202052B8A0A8A2C8B95B0FB1EBB
:10075000138FEFB84537242C0001165060319D826D
:100760005CF2A5AC510B3150B0A20C30484153B4EF
:100770002CD3B7138FAF844BCA86002C000416000D
:100780006551618B70C17C642C86302006CA00459F
:10079000A21475E0C284C574E70E138FDB53E09298
:1007A000BA30000B1080052C9641B6E5227E2261FE
:1007B0008A886580102216292A03862C4CA9A1CC90
:1007C000E211138F6F2A07212E24C0024060010519
:1007D0001612B7F5207E632D6530448952A144245A
:1007E000B060C1200E4A2913D60D13CFF73109B0DE
:1007F000B3584081051458808465800BF1E4274686
:1008000019A28498C6C882050B4B1C6A9030E87800
:1008100002D5F08D14A1C881CFD9F1AF2000438F4C
:100820004F4E75DB2C4F63AC5ABBC6B8DC46E92C87
:10083000ABEB72AB56BBE8B11DE4B2E6482F63AC3C
:100840005A6786D753DDF6745ADD5ADDA3A75B4598
:10085000C5BAFD82A7E04572F23A2EEA655C73C91B
:10086000E375CC251F5F97BC1E17F532AE9E82172D
:10087000C9C9E37AB98EB9042FEAC507438F39C5D0
:1008800053DD364BB386B86AED12C7C49B586A2C49
:10089000AB6BE2AD5AEDA27A6807A95DC591CA1C9F
:1008A000E2AA7546F4104F75DB93CED5ADD52D7603
:1008B000E3ADA262DD4AA77A8A4E832E254ECDC1D2
:1008C000E1527539DC8DCBF430A7CBD9B84C0FE3AE
:1008D000C8714E97CBF4B00E0E97AACBE1213A0D1A
:1008E000BA9438B5D3E5DCD3E56C5C065DAA2E1D61
:1008F000070105877A106F3D093FAFBFD3D39CA78F
:100900001E9D835FC2D5AB57AF5EBD72E0B4B3B975
:10091000E6360E87FE9DDA9FC1B16BA8A7DE7AF49A
:10092000EAD5AB57AF1E7B1B97394F793CF3B3BC6D
:100930007AF5D85B4FB330B34EEBB22EE3C8B39C1D
:10094000D661EFBDF7C1F3B8CCBDF73E0C1C15D393
:1009500050321475E7011744364606CEC8A938A5AB
:100960005A59AA6C44B7755B2E98417F897818470D
:10097000AFC4D12C972B1D1ED6BC71540F7B5725AD
:10098000BAF3FCFEF7F152333C8847FE34A907CE98
:10099000944119C44061C24820C595B9FEBA1C7B78
:1009A000520FD6E972B91C6EEBB66EEB74B95C2EC1
:1009B000A7751B2FE231A7F1EB00BFBFDFE5EAD53A
:1009C000AB57AF5EBD72E7EAD5AB57EE5CF93E5769
:1009D000AF5EBD7AF5EA95DF7B9FCEA15ED48B3A00
:1009E000A6F3FECC8BAA49ED9BAA85AA85AAE53E73
:1009F0009DF7FB740EF5A25ED4319DF7DF8B17D502
:100A0000A544D5A0AAAAAA1297C18B3CE82A5135C1
:100A10005175AF31D481174155052F32D471C78B31
:100A2000C4E55275A9BA545D2E8317F9C1556BD52B
:100A30001255934BAB965CAAAA4257C15A5555AD75
:100A40005A9EA8FAD24B6DF0227199A16E55C372CD
:100A5000E945976BA963A8E3F74E676A6BAD4C272E
:100A60005DB56A4155ADAAED2AE852E8AAD7AA5A5F
:100A70006B25B55D2EE8AA55ABAABAD455B5BDAC69
:100A80004B752951F5270F75C465D0A5AAAAEA525E
:100A9000E232431DD3495761B9C08B7599A89AD4E6
:100AA00026B5C9E5CD72A9AABA5C6F5C2697D05568
:100AB0007529BFF7C1552FEA45BDE8F5C13D2E9315
:100AC000DAB05C4BDDAA3E19EABE84E5525565AC4E
:100AD00031D411551397C18B5EB9FF6CAF5EBD7AEF
:100AE000F5EAD5D7BEF6EAD5AB5FF3EA6B5FFB3527
:100AF0003F0F6BFFBFECE8D5ABD93163B91C2FA713
:100B000057AFEEC4C4C46BD605C0CBD1AB57D3101E
:100B1000D3E9F11280B588218D57AF5E4D438CDD4E
:100B2000001EAE5EBD9A981880C6EC3C5CB97A7522
:100B30002726262626E66F35F9CE58B00F5D8C0B9A
:100B40007AFA9E471E9174A00287EF99609ABCDBE7
:100B5000000000000028001CBEB7E1265E647F3163
:100B60000B68164460C960780C1860010516D07CCB
:100B7000F12FC5B004101110008220C8001060A22F
:100B80003028A45D71810A0650494185052A3850F4
:100B9000D938940100840021000004008010004234
:100BA000184000184000184080221020040800104F
:100BB00020000C208400001002000040000000080B
:100BC00030684751D9A86C54F6DEA26C540E3D062D
:100BD0002EA04C0001068220010001118150073F28
:100BE000D4130A132614648110263090C142600A7F
:100BF000822320D4AE43E90888D1B419C20DB99C30
:100C000078A6038009C04C801CC62D323538A15B04
:100C10002E006C40E0141917282E552E3D85CC006F
:100C20007000021489D1AF79E5B9575E2337E486A5
:100C30002C063280494058088509139493F7AC2656
:100C4000858F04A700006B440A1B0A1B0A1B0A1BA2
:100C50008C09140400004100140500440500C4255B
:100C6000C045804BC804001809C04D387AF5E773B9
:100C7000056EC2456006008043E122C04580030046
:100C8000B801C00D00C01200608DB8D82C368BCDD5
:100C900062B34C60090030831F81265D99D0A42B7C
:100CA000EF1881800523A98083289B021B0A1B2A39
:100CB000C30D41160020AAA222518A1497CBE56ADF
:100CC0004300800900C000000006000030000080E2
:100CD0000140800140800104000D0A2045E180C2EE
:100CE000010827C2098003007000000E00004C00BC
:100CF00060A6CBE572B95C2E070007007003743B59
:100D0000986C169BC546C330B610B060C4C1BBAC6E
:100D10002685E75DB602DC8011280500870080A8E3
:100D20000080A800414DB6F32026A80080A84010FE
:100D300015001015007003801BA0FB90F71C7BEBC7
:100D4000695DD661172FCA31B771997BCF4BBEB59C
:100D500021B801C00D006E007003801B241B881F8A
:100D600022D910DC00E006004BC501DC006C5DFD03
:100D7000EF2E0F8F233A1D60C10A052B14AC50B023
:100D8000420113CA584E991131000002401004006C
:100D900001408C1159C548E22C090F6D5C685990CF
:100DA00040CA1406B3D3D91052B020A18D8B0908C4
:100DB0000B0002020201000904000001020200000F
:100DC0000524001001052401010104240206052464
:100DD0000600010705810310004009040100020A12
:100DE00000000007050202400000070583024000E2
:100DF000000403090412010002EF020140412336FE
:100E00008000010102030141726475696E6F204C1C
:100E10004C430041726475696E6F204C656F6E6162
:100E200072646F00010204081020408009202B2109
:100E300011241FBECFEFDAE0DEBFCDBF11E0A0E08E
:100E4000B1E0E0EAFDE402C005900D92A63FB107D3
:100E5000D9F727E0A6EFB1E001C01D92AC30B20790
:100E6000E1F717E0C7E1D7E004C02197FE010E9437
:100E70008B25C631D107C9F70E94AA140C94C3264A
:100E80000C9400009C01240F311D1216130684F5EA
:100E9000803891056CF5FC0197FF02C0E0E0F0E0BE
:100EA0002138310514F020E830E02E1BAB014770EB
:100EB000552781E090E001C0880F4A95EAF78095B8
:100EC00077FF02C0695F7F4F93E0759567959A95AC
:100ED000E1F77695762F662777956795E60FF71FEA
:100EE000EB5FFD4F215020F0908198239193FACF32
:100EF00008955F926F927F928F929F92AF92BF926E
:100F0000CF92DF92EF92FF920F931F93CF93DF93D5
:100F1000EC018B017A01A901461B570B57FF03C057
:100F2000519541955109C7018C1B9D0B97FF03C03B
:100F3000919581959109552453948417950714F040
:100F4000512C0AC09E2D8F2D7901292F382F9C2FCF
:100F50008D2FE801092F182FEC16FD0654F4902F61
:100F6000812F8901292F382F9C2F8D2FE701E92E02
:100F7000F82E37016C1A7D0A5901A01AB10AB7FE82
:100F800003C0B194A194B108630177FE03C08FEF51
:100F9000C81AD80AD594C7940217130714F08FEF14
:100FA00001C081E0882E880F9908EC16FD06B4F088
:100FB00021E0552019F0AE01B80102C0A801BE0120
:100FC0008DE896E00E94CB11CA18DB08D7FE04C05A
:100FD000080D191DC60CD71C2196E7CFDF91CF91C4
:100FE0001F910F91FF90EF90DF90CF90BF90AF9047
:100FF0009F908F907F906F905F900895DF92EF9217
:10100000FF920F931F93CF93DF937C01D22E8B011E
:10101000040F111DEB0177FF0EC0C0E0D0E00BC044
:10102000C417D5077CF42D2DAE01B7018DE896E0ED
:101030000E94CB112196A801013411058CF340E4E4
:1010400050E0EECFDF91CF911F910F91FF90EF9085
:10105000DF900895EF92FF920F931F93CF93DF934A
:10106000EC018B01E42EF22E6034710510F40E9425
:101070004207B8016F0D711D61507109603471052F
:1010800020F44E2DCE010E94420720E04F2DB801E2
:10109000CE010E94FE07CE018E0D911D20E04F2D46
:1010A000B8010197DF91CF911F910F91FF90EF90C1
:1010B0000C94FE07E5E0F2E081E0A0E0B8E00080FB
:1010C0000EBC8111012C1197A0FDFDCF0192B9F743
:1010D0000DB408952F923F924F925F926F927F923C
:1010E0008F929F92AF92BF92CF92DF92EF92FF9238
:1010F0000F931F93CF93DF93CDB7DEB764970FB6EF
:10110000F894DEBF0FBECDBF4C01CB013A01FA010E
:1011100044913196E491342F3F773F5F232E312C59
:10112000B401620D731D77FDE3C1F0E88F169104E1
:101130000CF0DEC13E2F3F733F5FBC01630F711D9A
:1011400077FDD6C1803491050CF0D2C1B42EBB1C02
:10115000BB24BB1C71E0E6FF70E0EE1FEE27EE1F24
:10116000E887AC0197FF04C044275527481B590B5B
:101170006A0117E0C122DD24AC0197FF02C0495F7C
:101180005F4FDA0143E0B595A7954A95E1F7BA8339
:10119000A98397FF0CC0C114D10449F01197BA83F9
:1011A000A98388E090E0FC01EC19FD096F0181E062
:1011B00090E0AC010C2C02C0440F551F0A94E2F7DA
:1011C0005A874987832F869586958695377009F0CB
:1011D0008F5FA82F880FBB0BBF83AE83B02FB27079
:1011E000BB8701FF08C0EE80FF80E1E0EE1AF10846
:1011F00081E0782702C0E12CF12C102F11701D83A3
:1012000000FF03C0D101119702C0A0E0B0E037E0B9
:1012100040E150E060E0412C512CAA24A394C1018C
:1012200001979E878D878E819F81E816F9060CF0C5
:101230005FC1F7FC5DC18A0141E050E05C834B83F4
:10124000F80193E0F695E7959A95E1F7E60DF71D1D
:10125000E491F0E0C8018770992702C0F595E79501
:101260008A95E2F7A8014F5F5F4FE0FF08C00B814E
:101270001C810F5F1F4F1C830B838A01E1CF8B8181
:101280009C810197C1F4FA0183E0F695E7958A9570
:10129000E1F7E60DF71D849190E04770552702C0F5
:1012A000959587954A95E2F7817099270196A8014F
:1012B0004E5F5F4F42C00B811C8101501109188B9A
:1012C0000F8781E090E00F8402C0880F991F0A9475
:1012D000E2F701961A8A198AFA0113E0F695E79562
:1012E0001A95E1F7E60DF71DE4910E2F10E01C8B27
:1012F0000B8BFA01E770FF27FC83EB830B8002C0A6
:10130000159507950A94E2F700FF0AC0E1E0F0E0C6
:10131000098802C0EE0FFF1F0A94E2F78E0F9F1F8D
:101320004F5F5F4F09891A890F5F1F4F1A8B098B17
:10133000EF85F8890E171F077CF2188A1F86FA2D91
:10134000F81BFC870F8518890817190708F0CCC00F
:10135000032F10E01C830B838C01EF85F8890E1B93
:101360001F0BEB81FC81B1100DC0E017F10718F4E1
:101370000F8518892AC01C85310FEF853E0F988B89
:101380008F8739C0E017F10730F53730C9F0772380
:1013900069F007E010E00E1B1F0BEFEFF0E002C05A
:1013A000F595E7950A95E2F78F0108C000E81FEF71
:1013B0000B8002C0169507950A94E2F7602B01C0D6
:1013C0006FEF0F851889EB81FC810E0F1F1F188BA3
:1013D0000F8730E010C0772319F0EB81FC8107C044
:1013E00007E010E0EB81FC810E1B1F0BF801E353BB
:1013F000FE4FE0816E2B315008F070C0662309F477
:1014000045C039813E0D38300CF040C0FD01E80D7B
:10141000F91DE038F105D0F5E985FA856E9F800168
:101420006F9F100D112437FD17C0F40160E83603DB
:10143000E00DF11D1124EA0FFB1FEB5FFD4FFA8B4E
:10144000E98B6081222311F0602B03C0E02FE0952F
:101450006E23E989FA896083C114D104B9F0373069
:10146000A9F03F3F9CF0F40160E83603E00DF11D68
:101470001124EA0FFB1FEB57FD4F3081222311F09F
:10148000312B03C0612F609536233083088501110D
:101490007A251FEF411A510A3D81332311F011972C
:1014A00001C011964214530484F06B85662321F029
:1014B000A1E0EA1AF10803C0BFEFEB1AFB0A0D81A5
:1014C000002331F0AD85BE8505C037E060E006C081
:1014D000A0E0B0E037E060E0412C512CEF85F889C6
:1014E0003196F88BEF872ECF1A2D1B19B12E9BCE7C
:1014F00064960FB6F894DEBF0FBECDBFDF91CF91DB
:101500001F910F91FF90EF90DF90CF90BF90AF9021
:101510009F908F907F906F905F904F903F902F9013
:1015200008958F929F92AF92BF92CF92DF92EF92E7
:10153000FF920F93CF93DF93EC016B01042F87E1B0
:10154000E82E81E0F82EF70124813581468157810C
:101550006C817D818E819F810E9412220E946D2369
:101560004B015C01F7012081318142815381688107
:1015700079818A819B810E9412220E946D23DC0165
:10158000CB0121E0A601B4010E946A08DF91CF914E
:101590000F91FF90EF90DF90CF90BF90AF909F9012
:1015A0008F9008958F929F92AF92BF92CF92DF92C9
:1015B000EF92FF920F931F93CF93DF93EC016B0198
:1015C0005A0149010E9479079701A801B401C50198
:1015D0000E9479079601AE01B701C801DF91CF9152
:1015E0001F910F91FF90EF90DF90CF90BF90AF9041
:1015F0009F908F900C94790765E070E080E090E018
:101600000C94261020919306282329F49091920699
:10161000982381E009F480E00895CF93DF93EC01F3
:1016200088819981891780F4AA81BB8191E0980F04
:10163000988396E2899FA00DB11D112486E2FB01DB
:1016400001900D928A95E1F7DF91CF910895FC0109
:1016500080910302811103C08FEF9FEF08959FB720
:10166000F89482E08093E9002091F20030E01216B5
:10167000130614F421E030E02115310559F02898C3
:1016800084E6809302028091F10080838091F200D1
:10169000882319F09FBFC90108958BE68093E80065
:1016A000F9CF2FB7F89483E08093E9009091E80098
:1016B000892F807295FF04C09091F20080E4891B0D
:1016C0002FBF08958F929F92AF92BF92CF92DF92D9
:1016D000EF92FF920F931F93CF93DF935C016B0107
:1016E0007A0180911601882309F45BC0809103027E
:1016F000882309F456C08091010280FF05C08091C3
:10170000E00082608093E000E70110E00AEF83E0F0
:10171000882E9AE3992E2097D9F10E94510B8111BE
:101720000AC0015009F43DC061E070E080E090E043
:101730000E942610F0CF282F30E0C217D3070CF4F8
:101740008C2F4FB7F8948092E9009091E80095FFB4
:101750001DC0282F30E0C21BD30BF601982F9150EB
:1017600020F081918093F100FACFC20ED31E112395
:1017700019F09092E80009C08091E80085FD06C04C
:101780009092E80011E0209709F010E04FBFC3CF1E
:101790001111C3CF5D9884E6809300021E141F04CC
:1017A00044F081E090E0F5019383828380E090E053
:1017B00001C0C701DF91CF911F910F91FF90EF9072
:1017C000DF90CF90BF90AF909F908F9008958091C1
:1017D0009C0681110DC082E08093980684E080937E
:1017E000990610929B0610929A0681E080939C06BF
:1017F00088E996E00895CF93DF931F92CDB7DEB7C7
:101800006983DC01ED91FC910280F381E02D41E0E0
:1018100050E0BE016F5F7F4F09950F90DF91CF9130
:10182000089583E08093E9008091F200882319F005
:101830008AE38093E8000895FC018485958597FDEF
:101840000BC09FB7F89482E08093E9008091F2008A
:101850009FBF90E0019608959FB7F89482E080932F
:10186000E9008091F2009FBF90E008954091F80652
:101870005091F9062091F6063091F706421753076A
:10188000B4F49091E8009570E1F39091E80092FD36
:1018900019C08093F1008091F8069091F9060196A5
:1018A0008F739927892B19F48EEF8093E80080912C
:1018B000F8069091F90601969093F9068093F80640
:1018C00081E0089580E00895DF92EF92FF920F93F8
:1018D0001F93CF93DF93D82E8A017B01E40EF51E70
:1018E000EB01CE15DF0571F0D7FE03C0FE01849138
:1018F00001C088810E94360C21968111F2CF8FEFB2
:101900009FEF01C0C801DF91CF911F910F91FF9010
:10191000EF90DF900895615030F02091F100FC01CC
:1019200020830196F8CF289884E6809302020895D8
:101930000E94510B90E00895CF93DF931F92CDB793
:10194000DEB7FC018485958597FD05C02FEF3FEF3D
:10195000358724870BC0CE0101960E94270B019783
:1019600019F4898190E002C08FEF9FEF0F90DF9113
:10197000CF9108950F931F93CF93DF931F92CDB70D
:10198000DEB78C01FC018485958597FF0EC0CE01E2
:1019900001960E94270B019719F4298130E002C0BB
:1019A0002FEF3FEFF80135872487F801848595856F
:1019B0000F90DF91CF911F910F9108950F931F9377
:1019C000CF93DF931F92CDB7DEB782E0898342E4E5
:1019D00050E06FEA7DE080E80E94640C0E94E70B13
:1019E000DC0112960D911C9113970115110569F0F8
:1019F000D801ED91FC910280F381E02DBE016F5F73
:101A00007F4FC801099597FF07C089810F90DF912B
:101A1000CF911F910F910895F80100851185E5CFB1
:101A20001F920F920FB60F9211248F939F93809164
:101A3000E1009091E100937F9093E10083FF0FC05C
:101A40001092E90091E09093EB001092EC0092E389
:101A50009093ED001092030298E09093F00082FFC3
:101A600020C093E09093E9009091F200992319F03F
:101A70009AE39093E80090910002992339F09091B5
:101A80000002915090930002992389F190910202F3
:101A9000992339F090910202915090930202992378
:101AA00041F184FF10C08091E2008E7E81608093BE
:101AB000E2008091E1008F7E8093E100809101023D
:101AC0008E7E806111C080FF16C08091E2008E7E04
:101AD00080618093E2008091E1008E7E8093E1003E
:101AE000809101028E7E81608093010204C05D9A24
:101AF000CDCF289AD6CF9F918F910F900FBE0F9088
:101B00001F9018951F920F920FB60F921124CF922B
:101B1000DF92EF92FF920F931F932F933F934F9378
:101B20005F936F937F938F939F93AF93BF93EF9345
:101B3000FF93CF93DF93CDB7DEB76C97DEBFCDBFFA
:101B40001092E9008091E80083FFEDC168E0CE01CA
:101B500045960E948B0C82EF8093E8008D8987FF69
:101B600005C09091E80090FFFCCF03C09EEF9093DA
:101B7000E800982F907609F0C6C09E892F89188DAD
:101B800091110CC0803829F48091F5068093F10002
:101B900002C01092F1001092F10048C1422F50E0B3
:101BA000512B913051F4811141C14130510509F05F
:101BB0003DC18091F5068D7F0BC0933061F481119A
:101BC00035C14130510509F031C18091F50682607F
:101BD0008093F5062BC1953041F48091E80080FF99
:101BE000FCCF20682093E30021C1963009F05FC04C
:101BF000EB8CFC8C1092E9001092F9061092F8061A
:101C0000123091F51092F7061092F6060E94DE0C43
:101C100099E0BE016F5F7F4FDB01E92F1D92EA95CE
:101C2000E9F799831A8391E09E8390EA98879AEF67
:101C300099872091F8063091F906275F3F4F3C8342
:101C40002B838D831092E9001092F9061092F8060A
:101C5000F092F706E092F60649E050E080E00E943C
:101C6000640C0E94DE0CE2C0F092F706E092F606E9
:101C70000E94E70BDC011296ED90FC901397E114A3
:101C8000F10409F4C0C0D701ED91FC910480F58105
:101C9000E02DBE016B5E7F4FC7010995009719F0DB
:101CA0000CF0C4C0C7C0F701E084F184E8CF9730DE
:101CB00009F4C0C0983021F481E08093F100B6C0EF
:101CC000993009F0B3C0837009F0B4C0EFEEF1E0D1
:101CD00081E021E036E39081992361F08093E9006F
:101CE0002093EB0091919093EC003093ED008F5F87
:101CF000873089F78EE78093EA001092EA008F8997
:101D00008093030293C08B8D9C8D1092E9001092FA
:101D1000F9061092F8069093F7068093F606898DDF
:101D2000811156C08E899D89913A59F4813209F00A
:101D300081C047E050E06FE071E080E00E94640CF9
:101D400075C0913209F076C0833289F4888D90E0B5
:101D5000982F88272F89822BA0E0B0E08093230161
:101D600090932401A0932501B09326015FC0803297
:101D700069F48091E80082FFFCCF67E08FE091E09A
:101D80000E948B0C8BEF8093E80006C0823209F032
:101D90004DC08F89809316018091F406882319F035
:101DA000EEEFFAE002C0E0E0F8E080910F019091E0
:101DB0001001A0911101B0911201803B9440A10546
:101DC000B10509F07BC08091160180FF93C076C0F9
:101DD0000E94E70BDC0112960D911C9113970115DF
:101DE000110541F1D801ED91FC910190F081E02DB8
:101DF000BE016B5E7F4FC8010995811117C0F801C4
:101E000000851185ECCF113009F44EC0133091F4E8
:101E10008F89882309F445C0823081F440E860E16D
:101E200083E19EE00E94EE20882321F08EEF8093D4
:101E3000E80079C081E28093EB0075C0813029F41D
:101E400040E86BE087E09EE0EDCF833099F70E9499
:101E5000E70BDC011296ED90FC9013978E010F5F5B
:101E60001F4F6801E114F10479F0D701ED91FC9165
:101E70000680F781E02DB801C7010995080F111DF3
:101E8000F701E084F184EECFD8011C92F6010190B5
:101E90000020E9F73197BF016C197D0940E0C601C8
:101EA000C1CF61EF7DE002C065EF7DE06115710596
:101EB00009F2FB01449150E080E840CF0FB6F8945E
:101EC000A895809160008861809360001092600006
:101ED0000FBEA895EE3F2AE0F20739F08091FE0A86
:101EE0009091FF0A91838083A1CF1092FF0A1092F4
:101EF000FE0A9CCFEE3F8AE0F80731F080819181A5
:101F00009093FF0A8093FE0A87E797E79183808387
:101F10009BE088E10FB6F894A895809360000FBE0F
:101F20009093600083CF6C960FB6F894DEBF0FBE1F
:101F3000CDBFDF91CF91FF91EF91BF91AF919F9175
:101F40008F917F916F915F914F913F912F911F9151
:101F50000F91FF90EF90DF90CF900F900FBE0F90FA
:101F60001F901895CF92DF92EF92FF920F931F93DD
:101F7000CF93DF936C017A018B01C0E0D0E0CE15E6
:101F8000DF0589F0D8016D918D01D601ED91FC91AD
:101F90000190F081E02DC6010995892B11F47E0195
:101FA00002C02196ECCFC701DF91CF911F910F9115
:101FB000FF90EF90DF90CF9008958091FE01E09127
:101FC000FC01F091FD01882349F0CF010296909326
:101FD000FD018093FC01859194910895CF010296B3
:101FE0009093FD018093FC018081918108958091FF
:101FF000FF0108950895089580E090E008950E94FB
:10200000BE263FB7F8948091040790910507A091F0
:102010000607B091070726B5A89B05C02F3F19F00A
:102020000196A11DB11D3FBFBA2FA92F982F882758
:10203000820F911DA11DB11DBC01CD0142E0660FB3
:10204000771F881F991F4A95D1F708958F929F9205
:10205000AF92BF92CF92DF92EF92FF926B017C0121
:102060000E9401104B015C01C114D104E104F10490
:10207000F1F00E940110DC01CB0188199909AA092D
:10208000BB09883E9340A105B10570F321E0C21A57
:10209000D108E108F10888EE880E83E0981EA11CA3
:1020A000B11CC114D104E104F10419F7DDCFFF9094
:1020B000EF90DF90CF90BF90AF909F908F9008955A
:1020C0001F920F920FB60F9211242F933F938F936D
:1020D0009F93AF93BF938091F6019091F701A091E8
:1020E000F801B091F9013091030723E0230F2D3758
:1020F00020F40196A11DB11D05C026E8230F02960C
:10210000A11DB11D209303078093F6019093F70161
:10211000A093F801B093F90180910407909105070D
:10212000A0910607B09107070196A11DB11D8093EC
:10213000040790930507A0930607B0930707BF9184
:10214000AF919F918F913F912F910F900FBE0F9064
:102150001F901895CF92DF92EF92FF920F931F93EB
:10216000CF93DF930E94DD0F811520E8920761F481
:10217000809171008D7F809371001092910046983C
:1021800047981092FC068BC021E02093FC0681301A
:1021900020E8920751F48091FA019091FB0190930D
:1021A000FD018093FC010E94DD0F97FD05C0209189
:1021B000FB06222309F43FC02091FA0621113BC0FF
:1021C00021E02093FD06EC01DF77209769F481E0A0
:1021D0008093FE0646983FE9C32E3FE0D32EE12CC4
:1021E000F12CCAEFD0E014C08E0120E030E060E4B2
:1021F00072E48FE090E0A90198010E94AF2169018B
:102200007A0181E0C81AD108E108F1081092FE06AF
:10221000E0911306F09114060995811103C081E045
:102220008093FE068091FD068823B9F18091FE0619
:10223000811133C003C01092FD06C5CF46992DC051
:10224000479A0E94DD0F009771F09C01DE010E9409
:102250000322DC01CB0129E0B595A79597958795D9
:102260002A95D1F703C08FEF9FEFDC011092900009
:102270002AE020939100D0929900C0929800809318
:10228000FF0690930007A0930107B0930207809187
:10229000710082608093710002C04798D2CFDF91B5
:1022A000CF911F910F91FF90EF90DF90CF90089505
:1022B0001F920F920FB60F9211242F933F934F93BB
:1022C0005F936F937F938F939F93AF93BF93EF939E
:1022D000FF938091FF0690910007A0910107B091B4
:1022E0000207892B8A2B8B2B81F18091FE068111AD
:1022F0000BC098B180E4892788B98091FD068823B6
:1023000019F088B1805888B98091FF069091000734
:10231000A0910107B0910207181619061A061B06AC
:10232000B4F48091FF0690910007A0910107B0914D
:1023300002070197A109B1098093FF069093000756
:10234000A0930107B093020702C00E94AA10FF9158
:10235000EF91BF91AF919F918F917F916F915F911D
:102360004F913F912F910F900FBE0F901F90189596
:102370008FB18095807F669B88601C9B84600895E8
:102380001092FF013E983F9808953E9A3F9A81E04F
:102390008093FF01089560387105D0F440345105F1
:1023A000B8F4E4E2FEE080E1849FD001A07811243B
:1023B000A60F4770E40FF11D8491AB5FBD4F222340
:1023C00019F06C91862B03C080956C9186238C93B9
:1023D0000895AF92BF92CF92DF92EF92FF920F9348
:1023E0001F93CF93DF93F42EE22EC62FD0E0082F59
:1023F00010E068015801A40EB11CCA14DB0454F4A7
:1024000021E04E2DBE01C6010E94FE078FEFC81AC3
:10241000D80AF3CF22E02E0D42E04F0DBE016150ED
:102420007109C8010197DF91CF911F910F91FF9022
:10243000EF90DF90CF90BF90AF900C942A08CF928E
:10244000DF92EF92FF92CF93DF93EC016A8D7B8D49
:102450008C8D9D8D0E946D23CB0168E671E00E94FA
:102460007725BC01990F880B990B0E94A5236B015E
:102470007C0120E030E0A9010E94F12287FF0AC020
:1024800020E030E044EB53E4C701B6010E94132280
:102490006B017C01CA8EDB8EEC8EFD8E20E030E07D
:1024A00044EB53E4C701B6010E94FB226B017C019F
:1024B0008885682F70E080E090E00E94A5239B0152
:1024C000AC01C701B6010E94C8240E947423698729
:1024D000DF91CF91FF90EF90DF90CF900895FC01B6
:1024E0001082118212821382148215821682178240
:1024F0001086118612861386148616861586108A13
:102500001786118A128A118E128E138E148E158ED2
:10251000168E178E10A211A280E090E0A0E0B0E429
:1025200082A393A3A4A3B5A308954F925F926F9241
:102530007F928F929F92AF92BF92CF92DF92EF9253
:10254000FF920F931F93CF93DF9300D000D000D062
:10255000CDB7DEB7FC0129833A834B835C832981A5
:102560003A81EB80FC80472F83899489A588B688BF
:10257000508D7789DC01A70FB11D2A173B070CF09E
:10258000B4C0D901A60FB11DBD018A179B070CF07D
:10259000ACC0D501A50FB11DEA16FB060CF0A5C015
:1025A0006701C40ED11CAC14BD040CF09EC08F0199
:1025B0004585568582179307ACF4F8018189B901E6
:1025C000681B7109641B750B6F5F7F4F072E000C32
:1025D000880B990B0E94A523D8012D913D914D9117
:1025E0005C910DC0641B750B072E000C880B990BBA
:1025F0000E94A523F80120813181428153810E94EC
:1026000012222B013C01D8011F968D919C9150976D
:10261000AE14BF04ACF452962C91B701621B710941
:10262000681B790B6F5F7F4F072E000C880B990B8F
:102630000E94A523F801248135814681578110C06D
:10264000B601681B790B072E000C880B990B0E94B2
:10265000A523D80114962D913D914D915C9117972A
:102660000E9412226B017C0120E030E0A901C3012D
:10267000B2010E94BB2453014201181624F0B7FA9C
:10268000B094B7F8B09420E030E0A901C701B601DA
:102690000E94BB24A701960118160CF05058C501E2
:1026A000B4010E94F12287FF10C0A3019201F8013A
:1026B00060817181828193810E941322D8016D9380
:1026C0007D938D939C93139710C0A7019601F801F9
:1026D00064817581868197810E941322D8011496A6
:1026E0006D937D938D939C93179726960FB6F894D0
:1026F000DEBF0FBECDBFDF91CF911F910F91FF9035
:10270000EF90DF90CF90BF90AF909F908F907F9091
:102710006F905F904F900895CF92DF92EF92FF926B
:102720000F931F93CF93DF93EC016F857889072E6A
:10273000000C880B990B0E94A5232C813D814E81B2
:102740005F810E9413220E946D236B017C01098925
:102750001A898D859E85BC01990F880B990B0E9463
:10276000A523288139814A815B810E9413220E941E
:102770006D237C8B6B8BDE8ACD8A0F8B188FDF915C
:10278000CF911F910F91FF90EF90DF90CF90089520
:102790004F925F926F927F928F929F92AF92BF9271
:1027A000CF92DF92EF92FF920F931F93CF93DF931D
:1027B000EC01CE8CDF8CE8A0F9A020E030E04AE705
:1027C00054E46A8D7B8D8C8D9D8D0E94C82420E001
:1027D00030ED4FE557E40E94FB224B015C010E9463
:1027E000F6229B01AC01C701B6010E94C8242881D2
:1027F00039814A815B810E9413222B013C0168834D
:1028000079838A839B83C501B4010E9435259B018E
:10281000AC01C701B6010E94C8249B01AC016C81C8
:102820007D818E819F810E9412226B017C016C83CD
:102830007D838E839F8320E030E0A901C301B20134
:102840000E94F12287FF05C0188219821A821B821A
:1028500031C0AB84B12C00911F0110912001B50152
:102860000B2C000C880B990B0E94A5239B01AC013B
:10287000C301B2010E9413222B013C01B801012EB9
:10288000000C880B990B0E94A5239B01AC01C3018E
:10289000B2010E94BB2418166CF4C8018A199B0966
:1028A000BC01990F880B990B0E94A523688379833B
:1028B0008A839B8320E030E0A901C701B6010E9412
:1028C000F12287FF05C01C821D821E821F8231C03B
:1028D000AC84B12C0091210110912201B5010B2C87
:1028E000000C880B990B0E94A5239B01AC01C7012A
:1028F000B6010E9413226B017C01B801012E000C6D
:10290000880B990B0E94A5239B01AC01C701B6015E
:102910000E94BB2418166CF4B8016A197B09072EB3
:10292000000C880B990B0E94A5236C837D838E83FA
:102930009F83DF91CF911F910F91FF90EF90DF90D8
:10294000CF90BF90AF909F908F907F906F905F904F
:102950004F900895CF93DF93CDB7DEB7CE54D10912
:102960000FB6F894DEBF0FBECDBF789484B58260F9
:1029700084BD84B5816084BD85B5826085BD85B523
:10298000816085BD80916E00816080936E001092A1
:10299000810080918100826080938100809181001C
:1029A00081608093810080918000816080938000AD
:1029B000809191008260809391008091910081606C
:1029C000809391008091900081608093900080912D
:1029D000C10084608093C1008091C10082608093B7
:1029E000C1008091C10081608093C1008091C300CB
:1029F00081608093C3008091C00082608093C0009A
:102A00008091C20081608093C20080917A008460CE
:102A100080937A0080917A00826080937A0080911E
:102A20007A00816080937A0080917A008068809338
:102A30007A00109203021092F50610920102809122
:102A4000D70081608093D70080EA8093D80089B551
:102A5000806189BD89B5826089BD09B400FEFDCF62
:102A600061E070E080E090E00E9426108091D80044
:102A70008F7C80618093D8008091E000807F80937C
:102A8000E0008091E1008E7E8093E1008DE08093F4
:102A9000E200559A209AEEEFFFE7859194918B3FE3
:102AA0009C4D19F481E08093F40681EC80937C00C6
:102AB00085B1806F85B984B1877E84B984B1876E12
:102AC00084B95E9A5F988AB1806D8AB9769A6E9859
:102AD00081B3806F81BB899880B38D7080BB80E5A6
:102AE0008CBD81E08DBD0E94FC0A5F9A0E94FC0AA9
:102AF0005E985C98E1E1F8E08DE08E0F94919EBDC8
:102B000000000DB407FEFDCF31968E13F7CF5C9A0F
:102B100081E8809364008091650081608093650006
:102B20000E94B811803839F42E9880916400806238
:102B300080936400FFCF82E090E00E949921882377
:102B400019F00E94C51102C00E94C011A8E62A2EE9
:102B5000332433948FB7F8944091F6015091F701E4
:102B60006091F8017091F9018FBF80919506342F23
:102B7000381B832F90919606992329F0309397065E
:102B8000109296064FC190919406391748F48F5FC2
:102B9000891708F047C181E083BF889513BE42C101
:102BA00011E01093960640939506809190069091BF
:102BB00091060196909391068093900680919206DB
:102BC000809393060E94B8118093920680910B0126
:102BD000811110C00E94B81186FD0CC02BC18091DC
:102BE00090069091910666E970E00E946325892B1A
:102BF00009F035C181E080930B01909100019111A2
:102C0000B8C110910801111105C09091FF01891BF5
:102C100080930A0180E20E94020B882371F0111157
:102C200006C0809101018823F1F0815012C080918B
:102C30000A018823C1F0815014C080E40E94020B75
:102C4000882389F0111108C080910101823058F465
:102C50008F5F8093010107C080910A01811103C039
:102C600081E080930A0184E00E94020B882309F42A
:102C70005BC0111137C08091010181112DC080917D
:102C800064008E7F8093640080917A0080648093DA
:102C90007A0080917A0086FDFCCF00917800109137
:102CA00079000E94011020E030E0980111270027F0
:102CB000600F711F821F931F6115710581059105BA
:102CC00011F00E94902180916400816080936400E3
:102CD00081E0809300014DC18093090181E08093E0
:102CE000080128C080910901823021F580910A01F4
:102CF000811103C00E94C51104C0813011F40E94EB
:102D0000C0116091FF0182E090E02D966FAF2D978A
:102D10000E9499212D966FAD2D97681749F082E09A
:102D200090E00E94A12104C088E00E94020B811162
:102D3000109208018091080181114BC000E021E050
:102D400042EF5AE062E070E08AE090E00E946A0898
:102D5000909005019A949091060180910401890F49
:102D600090910101899F900C112480900301809122
:102D700002010091070110E001501109C92CD12C6A
:102D800076015601A80EB11CEA14FB0454F421E0AC
:102D9000482DB801C7010E94FE07BFEFEB1AFB0ADE
:102DA000F3CF209103012E5F409102014E5F6091AD
:102DB000070170E062507109C60101970E942A085C
:102DC0006091070161502091030140910201892D1A
:102DD00026C080910901813069F400E021E04AEBCE
:102DE00059E060E070E080E290E00E946A080E9492
:102DF0005A0818C08230D9F780910A01882329F037
:102E0000813031F442E18AE405C04DE08BE302C039
:102E100040E080E0609107016150209103010E9431
:102E2000E911E5CF80E090E0892B09F493CE0E9470
:102E300000008CCE60910E0165300CF0D0CE6F5F3B
:102E400060930E01062E000C770B80910D0100E0BF
:102E500021E049EF58E0082E000C990BC6CF809175
:102E60000C01811133C0809171008D7F80937100BE
:102E70001092FE0185E096E09093FD018093FC01A5
:102E80009093FB018093FA0186E194E0909306060B
:102E90008093050682E390E09093080680930706EE
:102EA0008DE298E090930A068093090684E690E00C
:102EB00090930C0680930B0680E090E890930E06AA
:102EC00080930D060E94AA1010930C0160910E01D0
:102ED000062E000C770B80910D0100E021E049EFF8
:102EE00058E0082E000C990B0E946A08E0900E0131
:102EF0000E2C000CFF0889E1E80EF11C00910D0179
:102F0000F9E0CF2ED12C002E000C110B075D1F4FC6
:102F1000C8018C199D09A1E0CA1AD10831F020E03E
:102F200046E0B7010E94FE07F3CF60910E01062E26
:102F3000000C770B675E7F4F80910D01082E000C0F
:102F4000990B00E021E042EF58E080960E946A0869
:102F500020E04CE758E06EE270E08EE190E00E94E5
:102F60006A0821E04EE158E06EE270E08EE190E008
:102F70003CCF9091460680914706981708F0B1C063
:102F8000CE0101960E946F121FA281E088A786E2FF
:102F900090E00E9491259AA789A780E090E0A0E6A2
:102FA000B0E48BA79CA7ADA7BEA78DEC9CECACE4CE
:102FB000BDE38FA798ABA9ABBAAB83E393E3A3EBD5
:102FC000BEE38BAB9CABADABBEAB8AE097EDA3EAA7
:102FD000BCE38FAB98AFA9AFBAAF80E090E0A0E8B8
:102FE000BFEB8BAF9CAFADAFBEAF0E948B212CE28D
:102FF00031E040E050E00E94AF210E94A5236983A8
:103000007A838B839C830E948B212CE231E040E009
:1030100050E00E94AF210E94A5236D837E838F83A1
:10302000988784E18C8780E18D8786E0E1E3F1E099
:10303000DE011E9601900D928A95E1F70E948B2188
:1030400025E030E040E050E00E94AF219B01AC0160
:103050002B5F3F4F4F4F5F4F61E070E080E090E0AB
:103060000E94AF21CA01B9010E94A5232AE037EDD1
:1030700043E25CE30E9413226FAB78AF89AF9AAF53
:10308000CFA4D8A8E9A8FAA80E948B2120E030E0BC
:10309000A901C701B6010E9413226FA778AB89ABC3
:1030A0009AAB88E1898780914606909147068917F7
:1030B000A0F4A0914806B091490691E0980F909332
:1030C00046069EE3899FA00DB11D11248EE3FE01EB
:1030D000319601900D928A95E1F789A59AA50E94F3
:1030E000262680901B0190901C01A0901D01B0909D
:1030F0001E01C0901701D0901801E0901901F090C6
:103100001A01A501940160E070E088E493E40E9454
:1031100012220E946D2323966CAF7DAF8EAF9FAFBE
:103120002397A701960160E070E08AE793E40E948C
:1031300012220E946D2327966CAF7DAF8EAF9FAF9A
:103140002797A501940160E070E0CB010E94122254
:103150000E946D232B966CAF7DAF8EAF9FAF2B97E8
:10316000A701960160E070E088EC92E40E941222D0
:103170000E946D232B013C01A501940160E070E0E9
:103180008AE793E40E9412220E946D234B015C01A6
:10319000A701960160E070E0CB010E9412220E941C
:1031A0006D23DC01CB012196EEACFFAC2197259677
:1031B0000EAD1FAD259729962EAD3FAD2997A201E3
:1031C000B4010E94D20A80901B0190901C01A09033
:1031D0001D01B0901E01C0901701D0901801E09021
:1031E0001901F0901A01A501940160E070E08FEAE6
:1031F00093E40E9412220E946D2323966CAF7DAF50
:103200008EAF9FAF2397A701960160E070E08AEF31
:1032100093E40E9412220E946D2327966CAF7DAF2B
:103220008EAF9FAF2797A501940160E070E0CB01BE
:103230000E9412220E946D232B966CAF7DAF8EAF41
:103240009FAF2B97A701960160E070E088EC93E4B4
:103250000E9412220E946D232B013C01A5019401C2
:1032600060E070E088E493E40E9412220E946D23E3
:103270004B015C01A701960160E070E08AE793E4EE
:103280000E9412220E946D23DC01CB012196EEAC3C
:10329000FFAC219725960EAD1FAD259729962EAD33
:1032A0003FAD2997A201B4010E94D20A80901B0170
:1032B00090901C01A0901D01B0901E01C0901701BC
:1032C000D0901801E0901901F0901A01A501940125
:1032D00060E070E08AE793E40E9412220E946D236E
:1032E00023966CAF7DAF8EAF9FAF2397A70196015A
:1032F00060E070E88BE394E40E9412220E946D2348
:1033000027966CAF7DAF8EAF9FAF2797A501940135
:1033100060E070E0CB010E9412220E946D232B9688
:103320006CAF7DAF8EAF9FAF2B97A701960160E08A
:1033300070E889E094E40E9412220E946D232B0120
:103340003C01A501940160E070E08FEA93E40E94E3
:1033500012220E946D234B015C01A701960160E0DF
:1033600070E08AEF93E40E9412220E946D23DC0138
:10337000CB012196EEACFFAC219725960EAD1FAD8B
:10338000259729962EAD3FAD2997A201B4010E9441
:10339000D20A40E069E97DE08BE396E00E94910A61
:1033A00085E196E00E948C1340E062E77DE085E1D4
:1033B00096E00E94910A20917C0630917D06409112
:1033C0007E0650917F066091680670916906809133
:1033D0006A0690916B060E94BB241816ACF50E94F9
:1033E000B81185FF13C02091740630917506409185
:1033F000760650917706609164067091650680911B
:103400006606909167060E94132216C00E94B811AA
:1034100086FF1AC020917406309175064091760699
:1034200050917706609164067091650680916606FA
:10343000909167060E94122260936406709365065D
:1034400080936606909367060E94B81182FF55C06C
:10345000C0906806D0906906E0906A06F0906B060E
:1034600020E030E0A901C701B6010E94BB24181674
:103470004CF4209180063091810640918206509153
:10348000830610C020E030E040E850E46091800600
:103490007091810680918206909183060E94C824D3
:1034A0009B01AC01C701B6010E941322609368061C
:1034B0007093690680936A0690936B06C0906C06C1
:1034C000D0906D06E0906E06F0906F06A701960111
:1034D000609168067091690680916A0690916B060A
:1034E0000E94BB241816ECF5C0926806D0926906BB
:1034F000E0926A06F0926B0634C00E94B81183FF16
:1035000030C0C0906806D0906906E0906A06F090DE
:103510006B06209184063091850640918606509175
:103520008706C701B6010E94BB241816D4F4609127
:1035300080067091810680918206909183069B019E
:10354000AC010E9413229B01AC01C701B6010E948D
:103550001222609368067093690680936A069093BE
:103560006B068AE496E00E94C8138AE496E00E9403
:103570008C138AE496E00E941F120E948B2124E69D
:1035800030E040E050E00E94AF21623071058105DB
:1035900091050CF095C0C0906806D0906906E09047
:1035A0006A06F0906B0620E030E0A901C701B60181
:1035B0000E94BB2418160CF083C090917006809175
:1035C0007106981708F07CC080906406909065069C
:1035D000A0906606B090670660915606669570E00A
:1035E00080E090E00E94A52320914E0630914F0686
:1035F00040915006509151060E94132220E030E085
:1036000040E850E40E9412222B013C0160915506D3
:10361000669570E080E090E00E94A52320914A0624
:1036200030914B0640914C0650914D060E9413225A
:1036300020E030E040E850E40E941222AB01BC01DF
:10364000CE0101962E964FAF2E972F965FAF2F97F4
:103650002D966FAF2D972C967FAF2C970E946F12EF
:103660002E964FAD2E972F965FAD2F972D966FAD5F
:103670002D972C967FAD2C9749835A836B837C833F
:103680004D825E826F8278868B8E9C8EAD8EBE8ED2
:1036900020E030E040E05FE3C701B6010E94C824AB
:1036A0006F8F78A389A39AA384E0898798E09B878A
:1036B0008A8FBE016F5F7F4F80E796E00E940D0BFF
:1036C0000E94B81183FF1AC020E030E0A901609188
:1036D00068067091690680916A0690916B060E9457
:1036E000BB2418165CF48091900680FD07C0909171
:1036F000880680918906981708F44EC400E056E2C7
:10370000D52E80918806081708F067C0F6E20F9F53
:1037100090011124E0918A06F0918B06E20FF31FCD
:10372000818D811102C0902F3CC08150818FE0902B
:103730008A06F0908B06E20EF31ED7015A968D9002
:103740009D90AD90BC905D9720E030E044EB52E45A
:10375000C501B4010E94BB24F70111851816A4F419
:1037600020E030E047E853E4C501B4010E94F122B3
:1037700087FF0AC0E12FF0E0EE0FFF1FE959FE4F6F
:103780006081718141E009C0E12FF0E0EE0FFF1F81
:10379000E959FE4F6081718140E0C7010E94910AA2
:1037A0001AC080918806981790F4A0918A06B0916B
:1037B0008B06F6E29F9FA00DB11D1124FD01B69668
:1037C0008D2D01900D928A95E1F79F5FEACF815090
:1037D0008093880601500F5F94CFE0915306F0E08C
:1037E000EE0FFF1FE956FE4F6081718140E08AE4D1
:1037F00096E00E94910A2091280630912906409176
:103800002A0650912B0660912C0670912D068AE4B1
:1038100096E00E949512F12C24E0E22E809146065B
:10382000F81608F06EC22EE3F29E6001112400919A
:103830004806109149060C0D1D1DC8010E94C813B1
:10384000C8010E948C13C8010E941F12D8015E9605
:103850008D909D90AD90BC90919720E030E0A901B3
:10386000C501B4010E94BB24181634F4F80126A93E
:1038700037A940AD51AD0DC020E030E040E850E444
:10388000F80166A977A980AD91AD0E94C8249B017B
:10389000AC01C501B4010E941322D8015E966D935C
:1038A0007D938D939C939197F80182A093A0A4A0FF
:1038B000B5A0A5019401668D778D80A191A10E948C
:1038C000BB2418163CF4D8015E968D929D92AD9261
:1038D000BC9291970E948B2124E630E040E050E0BA
:1038E0000E94AF2162307105810591050CF097C0EF
:1038F000F801868C978CA0A0B1A020E030E0A9014F
:10390000C501B4010E94BB2418160CF088C0D80170
:1039100096969C91969797968C91981708F07FC0F1
:10392000D8015A964D905D906D907C905D971C9655
:103930006C91669570E080E090E00E94A523F8010C
:1039400024813581468157810E94132220E030E096
:1039500040E850E40E94122223966CAF7DAF8EAFF8
:103960009FAF2397D8011B966C91669570E080E01D
:1039700090E00E94A523F80120813181428153818A
:103980000E94132220E030E040E850E40E9412221E
:10399000AB01BC01CE0101962E964FAF2E972F960C
:1039A0005FAF2F972D966FAF2D972C967FAF2C97EB
:1039B0000E946F122E964FAD2E972F965FAD2F97C8
:1039C0002D966FAD2D972C967FAD2C9749835A83FA
:1039D0006B837C8323968CAD9DADAEADBFAD23973D
:1039E0008D839E83AF83B8874B8E5C8E6D8E7E8E6B
:1039F00020E030E040E05FE3C501B4010E94C8244C
:103A00006F8F78A389A39AA3E98698E09B87EA8EB3
:103A1000BE016F5F7F4FC80186960E940D0B80909C
:103A20004E0690904F06A0905006B09051064090E0
:103A30004A0650904B0660904C0670904D060091DF
:103A40004806109149060C0D1D1DD801D2962D91E6
:103A50003D914D915C91D5975E966D917D918D9143
:103A60009C9191970E94BB2418160CF09CC0F80101
:103A700060817181828193810E946D2323966CAF56
:103A80007DAF8EAF9FAF2397C301B2010E946D231C
:103A900021962EAD3FAD2197261B370BB901072E7E
:103AA000000C880B990B0E94A5239B01AC01C5015A
:103AB000B4012C962FAF2C972D963FAF2D972E96B5
:103AC0004FAF2E972F965FAF2F970E946D234B011C
:103AD0005C01D80114966D917D918D919C91179701
:103AE0000E946D23F401E61BF70BBF01072E000CAB
:103AF000880B990B0E94A5232C962FAD2C972D9601
:103B00003FAD2D972E964FAD2E972F965FAD2F97E9
:103B10000E949222D8015A964D905D906D907C90B3
:103B20005D9720E030ED4FE557E40E94C82420E087
:103B300030E04AE754E40E94FB2220E030E044E316
:103B400053E40E9413220E946D234B015C01C301C8
:103B5000B2010E946D23C401861B970BB1010E9424
:103B60007725845E9D4FB1010E947725BC01645B7F
:103B70007109072E000C880B990B0E94A523F801F0
:103B800026A537A540A951A90E94C8249B01AC01D4
:103B9000C301B2010E941322D8015A966D937D93FE
:103BA0008D939C935D97D8011996EC91F0E0EE0F00
:103BB000FF1FE95CFE4F6081718140E0C8010E94F7
:103BC000910A809190069091910665E070E00E94C4
:103BD0006325892BB1F08091480690914906209188
:103BE0005D0630915E0640915F06509160066091DF
:103BF0006106709162068C0D9D1D0E94951210E069
:103C00007AC020911B0130911C0140911D015091FF
:103C10001E01F80164817581868197810E941222BC
:103C20004B015C01D8011C966C91669570E080E0B8
:103C300090E00E94A5239B01AC01C501B4010E9444
:103C4000132220E030E040EE50E40E9412220E9455
:103C50006D235B01209117013091180140911901EA
:103C600050911A01F80160817181828193810E94D3
:103C700012222B013C01D8011B966C91669570E0D5
:103C800080E090E00E94A5239B01AC01C301B2013A
:103C90000E94132220E030E040EA50E40E94122209
:103CA0000E946D234B018B01065F1F4F801691060A
:103CB00009F491CF21E044E0B501C4010E94FE0760
:103CC000BFEF8B1A9B0AF2CF1F15A1F08091480617
:103CD00090914906FC012EE3129FE00DF11D112485
:103CE00023893489458956896789708D8C0D9D1D7E
:103CF0000E9495121F5F80914606181728F3F394CF
:103D00008DCD60915606669570E080E090E00E944F
:103D1000A52320914E0630914F06409150065091B8
:103D200051060E9413226B017C0160915506669535
:103D300070E080E090E00E94A52320914A06309137
:103D40004B0640914C0650914D060E9413224B01A8
:103D50005C0140901701509018016090190170901B
:103D60001A0120E030E040E052E4C301B2010E94B9
:103D70001322A50194010E94BB2418163CF420E0F4
:103D800030E040E052E4C501B40120C020E030E062
:103D900040E053E4C301B2010E94132220E030E06E
:103DA00040E052E40E941222A50194010E94F122F7
:103DB00087FF16C020E030E040E052E4C501B401C6
:103DC0000E94132220E030E040E053E40E941222DF
:103DD00060931701709318018093190190931A0151
:103DE0008090170190901801A0901901B0901A01CD
:103DF00020E030E0A901C501B4010E94F12287FF53
:103E000009C0109217011092180110921901109216
:103E10001A012EC000911F011091200120E030E016
:103E200040E053E4C501B4010E9413224B015C0140
:103E3000B801012E000C880B990B0E94A5239B0151
:103E4000AC01C501B4010E94BB2418168CF4B80162
:103E500060587109072E000C880B990B0E94A5234E
:103E600060931701709318018093190190931A01C0
:103E700080901B0190901C01A0901D01B0901E012C
:103E800020E030E040EC51E4C501B4010E9413226F
:103E9000A70196010E94BB2418163CF420E030E0F4
:103EA00040EC51E4C701B60120C020E030E040E81A
:103EB00052E4C501B4010E94132220E030E040EC3E
:103EC00051E40E941222A70196010E94F12287FF6D
:103ED00016C020E030E040EC51E4C701B6010E947A
:103EE000132220E030E040E852E40E941222609366
:103EF0001B0170931C0180931D0190931E01C090C3
:103F00001B01D0901C01E0901D01F0901E0120E0EB
:103F100030E0A901C701B6010E94F12287FF0AC063
:103F200010921B0110921C0110921D0110921E0193
:103F30000C94F716009121011091220120E030E04D
:103F400040E852E4C701B6010E9413226B017C01D4
:103F5000B801012E000C880B990B0E94A5239B0130
:103F6000AC01C701B6010E94BB24181614F00C94D2
:103F7000F716B80160547109072E000C880B990BD5
:103F80000E94A52360931B0170931C0180931D0167
:103F900090931E010C94F71610915306C0904E0694
:103FA000D0904F06E0905006F090510680904A065F
:103FB00090904B06A0904C06B0904D06CE01019615
:103FC0000E946F1289829A82AB82BC82CD82DE828D
:103FD000EF82F8861A878AE08A8F8091880690910E
:103FE0008906891708F08ACBA0918A06B0918B06C2
:103FF00091E0980F90938806E6E28E9FA00DB11D88
:10400000112486E2FE01319601900D928A95E1F726
:1040100075CBFF920F931F93CF93DF93E4EAF6E003
:104020001382128288EE93E0A0E0B0E0848395834F
:10403000A683B78389ED91E0918380838FEF9FEF13
:1040400095878487EDE8F6E08CEE91E0918380839C
:104050001582168210E1178314821382118687EF6E
:104060009FE0909314068093130680E090E890936D
:1040700012068093110646983E9A47983F9A8AE422
:1040800096E00E946F12CAE4D6E01EA281E08FA3E0
:1040900086E290E00E94912599A788A780E090E0B1
:1040A000A0E6B0E48AA79BA7ACA7BDA78DEC9CECCB
:1040B000ACE4BDE38EA79FA7A8ABB9AB83E393E3C2
:1040C000A3EBBEE38AAB9BABACABBDAB8AE097ED99
:1040D000A3EABCE38EAB9FABA8AFB9AF80E090E0A2
:1040E000A0E8BFEB8AAF9BAFACAFBDAF1092880624
:1040F00085E0F82EF09289068EEB90E00E949125E3
:1041000090938B0680938A060E948B2128E631E0EB
:1041100040E050E00E94AF210E94A5236A8F7B8F70
:104120008C8F9D8F80E090E0A0EAB1E48883998332
:10413000AA83BB838C839D83AE83BF8304E10B87FB
:104140001C8786E0E7ECF1E0A7E5B6E001900D9270
:104150008A95E1F788E18887C6E4D6E01882F9827B
:1041600086E391E00E9491259B838A83EBE3F6E04E
:1041700010861186128680E090E0A0EFB1E4808383
:104180009183A283B38384839583A683B78385E1D8
:1041900096E00E946F12E5E1F6E080E090E0A0EA90
:1041A000B2E480839183A283B38380E090E0A0E2B5
:1041B000B2E484839583A683B7830387148786E05C
:1041C000E7ECF1E0A2E2B6E001900D928A95E1F70A
:1041D000DF91CF911F910F91FF900895CF92DF92C1
:1041E000EF92FF920F931F93CF93DF931F92CDB760
:1041F000DEB7182F062FE42E862F880F8E5F998347
:104200000E94360C83E00E94360CF12EC12E99815B
:10421000D92E8C2D8F19801798F4F601E7FE02C075
:10422000849101C080810E94360C182F80E00E948A
:10423000360C8123FFEFCF1ADF0A8111EACF01C0CC
:1042400081E00F90DF91CF911F910F91FF90EF9040
:10425000DF90CF90089580914806909149060E9482
:10426000262680918A0690918B060E9426268091B0
:104270007206909173060C9426268F929F92AF92AD
:10428000BF92CF92DF92EF92FF92CF93DF93EC0138
:10429000688179818A819B8161157105810591050C
:1042A00021F464E279ED8BE597E02DE133EF41E015
:1042B00050E00E94AF2149015A019B01AC01A7EADD
:1042C000B1E40E94CE216B017C01ACEEB4EFA501FC
:1042D00094010E94DC21DC01CB018C0D9D1DAE1DE3
:1042E000BF1DB7FF03C00197A109B0488883998318
:1042F000AA83BB83BC01CD019F77DF91CF91FF9053
:10430000EF90DF90CF90BF90AF909F908F900895E7
:104310000E943D21089587E291E00E943D21089589
:1043200060932701709328018093290190932A01BB
:104330000895F999FECF92BD81BDF89A992780B56D
:104340000895262FF999FECF1FBA92BD81BD20BDD9
:104350000FB6F894FA9AF99A0FBE01960895052EB1
:1043600097FB1EF400940E94C62157FD07D00E94BF
:10437000E12107FC03D04EF40C94C62150954095E2
:10438000309521953F4F4F4F5F4F08959095809501
:10439000709561957F4F8F4F9F4F08950E94032224
:1043A000A59F900DB49F900DA49F800D911D112489
:1043B0000895B7FF0C94CE210E94CE21821B930B4F
:1043C0000895A1E21A2EAA1BBB1BFD010DC0AA1F56
:1043D000BB1FEE1FFF1FA217B307E407F50720F06E
:1043E000A21BB30BE40BF50B661F771F881F991FE9
:1043F0001A9469F760957095809590959B01AC0132
:10440000BD01CF010895A29FB001B39FC001A39F3A
:10441000700D811D1124911DB29F700D811D1124FD
:10442000911D08955058BB27AA270E942A220C9458
:104430006D240E94342438F00E943B2420F039F48B
:104440009F3F19F426F40C940A240EF4E095E7FB40
:104450000C940424E92F0E94922458F3BA1762079F
:1044600073078407950720F079F4A6F50C94B4241B
:104470000EF4E0950B2EBA2FA02D0B01B90190017F
:104480000C01CA01A0011124FF27591B99F0593FC3
:1044900050F4503E68F11A16F040A22F232F342F0B
:1044A0004427585FF3CF469537952795A795F04059
:1044B0005395C9F77EF41F16BA0B620B730B840B6E
:1044C000BAF09150A1F0FF0FBB1F661F771F881F26
:1044D000C2F70EC0BA0F621F731F841F48F487957E
:1044E00077956795B795F7959E3F08F0B0CF939570
:1044F000880F08F09927EE0F9795879508950E94E9
:10450000342460F080E891E009F49EEF0E943B249F
:1045100028F040E851E071F45EEF0CC00C940A24DE
:104520000C94B424E92FE0780E94922440F3092EE1
:10453000052AB1F3261737074807590738F00E2E1A
:1045400007F8E02569F0E025E0640AC0EF6307F8AA
:10455000009407FADB01B9019D01DC01CA01AD013C
:10456000EF930E9412230E946D240E94C2225F9149
:10457000552339F02BED3FE049E450FD49EC0C9414
:1045800013220895DF93DD27B92FBF7740E85FE35B
:104590001616170648075B0718F4D92F0E94C02487
:1045A0009F938F937F936F930E943D25ECEAF0E0F9
:1045B0000E940D240E946D242F913F914F915F9195
:1045C0000E94DB24DD2351F09058A2EA2AED3FE05F
:1045D00049EC5FE3D0785D270E942A22DF910C949A
:1045E0006D240E94E02308F481E008950E94442491
:1045F000E3950C947E240E940F230C946D240E945A
:104600003B2458F00E94342440F029F45F3F29F005
:104610000C94042451110C94B5240C940A240E9487
:10462000922468F39923B1F3552391F3951B550B0D
:10463000BB27AA2762177307840738F09F5F5F4F75
:10464000220F331F441FAA1FA9F335D00E2E3AF0B4
:10465000E0E832D091505040E695001CCAF72BD0CC
:10466000FE2F29D0660F771F881FBB1F261737071D
:104670004807AB07B0E809F0BB0B802DBF01FF274F
:1046800093585F4F3AF09E3F510578F00C94042404
:104690000C94B5245F3FE4F3983ED4F38695779568
:1046A0006795B795F7959F5FC9F7880F911D969508
:1046B000879597F90895E1E0660F771F881FBB1F64
:1046C000621773078407BA0720F0621B730B840B11
:1046D000BA0BEE1F88F7E09508950E947423689442
:1046E000B1110C94B52408950E949A2488F09F5724
:1046F00098F0B92F9927B751B0F0E1F0660F771F06
:10470000881F991F1AF0BA95C9F714C0B13091F0FB
:104710000E94B424B1E008950C94B424672F782F3C
:104720008827B85F39F0B93FCCF3869577956795C0
:10473000B395D9F73EF490958095709561957F4F2C
:104740008F4F9F4F0895E89409C097FB3EF49095D2
:104750008095709561957F4F8F4F9F4F9923A9F05A
:10476000F92F96E9BB279395F695879577956795E9
:10477000B795F111F8CFFAF4BB0F11F460FF1BC02D
:104780006F5F7F4F8F4F9F4F16C0882311F096E9C0
:1047900011C0772321F09EE8872F762F05C066236E
:1047A00071F096E8862F70E060E02AF09A95660F27
:1047B000771F881FDAF7880F9695879597F90895E0
:1047C000990F0008550FAA0BE0E8FEEF1616170622
:1047D000E807F907C0F012161306E407F50798F08A
:1047E000621B730B840B950B39F40A2661F0232BA3
:1047F000242B252B21F408950A2609F4A140A6951F
:104800008FEF811D811D089597F99F6780E870E003
:1048100060E008959FEF80EC0895DF93CF931F939E
:104820000F93FF92EF92DF927B018C01689406C098
:10483000DA2EEF010E94DB24FE01E894A591259178
:10484000359145915591A6F3EF010E942A22FE0170
:104850009701A801DA9469F7DF90EF90FF900F912C
:104860001F91CF91DF91089500240A941616170620
:1048700018060906089500240A9412161306140651
:10488000050608950C940A240E949A24D8F3E8940B
:10489000E0E0BB279F57F0F02AED3FE049EC06C06F
:1048A000EE0FBB0F661F771F881F28F0B23A620712
:1048B0007307840728F0B25A620B730B840BE395DD
:1048C0009A9572F7803830F49A95BB0F661F771F60
:1048D000881FD2F790480C944325092E0394000CAE
:1048E00011F4882352F0BB0F40F4BF2B11F460FF8A
:1048F00004C06F5F7F4F8F4F9F4F0895EF93E0FF8E
:1049000007C0A2EA2AED3FE049EC5FEB0E942A22B1
:104910000E946D240F90039401FC9058E9EDF0E0A3
:104920000C944F2557FD9058440F551F59F05F3F89
:1049300071F04795880F97FB991F61F09F3F79F0C1
:1049400087950895121613061406551FF2CF469543
:10495000F1DF08C0161617061806991FF1CF8695C5
:104960007105610508940895E894BB2766277727A9
:10497000CB0197F908950E94E02308F48FEF089582
:104980009B01AC0160E070E080E89FE30C94FB22A7
:104990000E94DB240C946D240E94342438F00E9481
:1049A0003B2420F0952311F00C9404240C940A2449
:1049B00011240C94B5240E94922470F3959FC1F3A6
:1049C000950F50E0551F629FF001729FBB27F00DBD
:1049D000B11D639FAA27F00DB11DAA1F649F662712
:1049E000B00DA11D661F829F2227B00DA11D621F61
:1049F000739FB00DA11D621F839FA00D611D221F1B
:104A0000749F3327A00D611D231F849F600D211DFE
:104A1000822F762F6A2F11249F5750409AF0F1F081
:104A200088234AF0EE0FFF1FBB1F661F771F881FEA
:104A300091505040A9F79E3F510580F00C940424FA
:104A40000C94B5245F3FE4F3983ED4F386957795B4
:104A50006795B795F795E7959F5FC1F7FE2B880F90
:104A6000911D9695879597F908959F930E944424E8
:104A70000F9007FCEE5F0C947E249B01AC010C941C
:104A8000C8249F3F31F0915020F487957795679522
:104A9000B795880F911D9695879597F908959F93DF
:104AA0008F937F936F93FF93EF939B01AC010E94D1
:104AB000C824EF91FF910E940D242F913F914F91B7
:104AC0005F910C94C824AA1BBB1B51E107C0AA1F0D
:104AD000BB1FA617B70710F0A61BB70B881F991F9F
:104AE0005A95A9F780959095BC01CD01089597FB43
:104AF000072E16F4009407D077FD09D00E94632595
:104B000007FC05D03EF4909581959F4F08957095D0
:104B100061957F4F0895EE0FFF1F0590F491E02DF2
:104B20000994CF93DF938230910510F482E090E0F6
:104B3000E0910A07F0910B0720E030E0C0E0D0E000
:104B4000309711F14081518148175907C0F048173B
:104B5000590761F482819381209719F09B838A839E
:104B60002BC090930B0780930A0726C021153105AF
:104B700019F04217530718F49A01BE01DF01EF0143
:104B80000280F381E02DDCCF2115310509F1281BCE
:104B9000390B2430310590F412968D919C91139726
:104BA0006115710521F0FB019383828304C090930A
:104BB0000B0780930A07FD01329644C0FD01E20F06
:104BC000F31F81939193225031092D933C933AC066
:104BD0002091080730910907232B41F420912D01E2
:104BE00030912E01309309072093080720912B0163
:104BF00030912C012115310541F42DB73EB740917C
:104C00002F0150913001241B350BE0910807F091E2
:104C10000907E217F307A0F42E1B3F0B28173907EB
:104C200078F0AC014E5F5F4F2417350748F04E0F08
:104C30005F1F50930907409308078193919302C027
:104C4000E0E0F0E0CF01DF91CF9108950F931F9343
:104C5000CF93DF93009709F48CC0FC013297138245
:104C6000128200910A0710910B070115110581F4BA
:104C700020813181820F931F20910807309109070D
:104C80002817390779F5F0930907E093080771C0F1
:104C9000D80140E050E0AE17BF0750F412962D91B6
:104CA0003C911397AD012115310509F1D901F3CFDD
:104CB0009D01DA013383228360817181860F971F02
:104CC0008217930769F4EC0128813981260F371F79
:104CD0002E5F3F4F318320838A819B819383828320
:104CE000452B29F4F0930B07E0930A0742C0139673
:104CF000FC93EE931297ED01499159919E01240F77
:104D0000351FE217F30771F480819181840F951F9D
:104D1000029611969C938E938281938113969C9315
:104D20008E931297E0E0F0E0D80112968D919C915D
:104D30001397009719F0F8018C01F6CF8D919C9193
:104D400098012E5F3F4F820F931F209108073091EB
:104D500009072817390769F4309729F410920B07CF
:104D600010920A0702C0138212821093090700935F
:104D70000807DF91CF911F910F91089581E090E096
:104D8000F8940C94C32617E0C7E1D7E004C0FE01F5
:104D90000E948B252196C831D107C9F7F894FFCF1F
:104DA000000017091510043700000000001DD20094
:104DB000E10000000000000000000000000000D042
:104DC00007E803FFFFFFFF0100000000000C078061
:104DD00000050004000A0A0404DE03B7039303720B
:104DE0000356033D0322030103DD02B6028F026A6C
:104DF0000243021C02F901D901BE01A5018A016921
:104E00000145011E01F800B004A60499048C048039
:104E10000475046B04750480048C049904A604B022
:104E2000046004530448043D043204280432043D61
:104E300004480453046004EA07C2079A0773075042
:104E40000731071607F706D406AD0685065D063658
:104E5000060F06E705C205A10585056D0551052F5D
:104E6000050A05E204BB04050004000A0A01020465
:104E7000081020408000000000FB0B620B980C1112
:104E80000C1C0C9C0CBA0C1900000000FA0F00C19D
:064E90008081000000001B
:00000001FF
