:100000000C94950B0C94BD0B0C94BD0B0C94BD0B78
:100010000C94BD0B0C94BD0B0C94BD0B0C94BD0B40
:100020000C94BD0B0C94BD0B0C94E5200C94572143
:100030000C94BD0B0C94BD0B0C94BD0B0C94BD0B20
:100040000C94BD0B0C94BD0B0C94BD0B0C94BD0B10
:100050000C94BD0B0C94BD0B0C94BD0B0C94EB0CD1
:100060000C94BD0B0C94BD0B0C94BD0B0C94BD0BF0
:100070000C94BD0B0C94BD0B0C94BD0B0C94BD0BE0
:100080000C94350D0C94BD0B0C94BD0B0C94BD0B56
:100090000C94BD0B0C94BD0B0C94BD0B0C94BD0BC0
:1000A0000C94BD0B0C94BD0B0C94BD0B084AD73BB4
:1000B0003BCE016E84BCBFFDC12F3D6C74319ABD37
:1000C00056833DDA3D00C77F11BED9E4BB4C3E915B
:1000D0006BAAAABE000000803F05A84CCDB2D44E4A
:1000E000B93836A9020C50B9918688083CA6AAAA4C
:1000F0002ABE000000803F08000000BE9224491282
:100100003EABAAAA2ABECDCCCC4C3E00000080BE9D
:10011000ABAAAAAA3E00000000BF000000803F007A
:1001200000000000084178D3BB4387D1133D190E6E
:100130003CC3BD4282AD2B3E68EC8276BED98FE1D6
:10014000A93E4C80EFFFBE01C4FF7F3F00000000CE
:1001500000000102040810204080D5F08D14A1C8D1
:1001600081CFD9F1AF2000420F28E5F6ED56D9D95D
:10017000E4F6EDD62AC964B7CA49A79CB25B26BB90
:10018000FDFFDF2A47E59CB44AAAA5726472FB769C
:10019000ABEC6C72FB766B9564B2DBFFFFAD725417
:1001A00076FBAD6EB51D475B65B74B2567DB2ABB9C
:1001B0005D2A399B928A5C4945A6A4429E928A7C1C
:1001C000ABEC76A9E46C5B65B74B25675352912A7B
:1001D000A9C8945476BBDD4E0A07080C0603030336
:1001E00006003F2FB0BD54CE29B9DDA6D387D37406
:1001F0003A9D4EA7D3E9743A1D515649A97C3ABDA0
:10020000DD2AE99C543A08CA291DFED2DB6DDBE5E4
:1002100076BBDDA6D3E9743A9D4EA7D3E9F476BB4D
:10022000555249E7A4B2EB5857B84DA7D3E97476B5
:10023000BBDD2E9593312965955452492595DCC631
:100240009E5D2AA99C73CE39E79C734E4EB75452DB
:1002500039E79C73CE392795BA774EDDAA57AD5E44
:10026000FD761D593ADBB94EF5B75332AB64ED6EEE
:10027000F5AF7AF5B9CE756EBBDDAED369E75098B0
:10028000AE9D92DB743AA6A55376BB554EAEB6CE64
:1002900049A523DB2E9D73CED5BB7F1B3D1FFCB430
:1002A0007556E9F57A1DD4A4EC3ABA74E73A954A42
:1002B000D5AE5665D5A594BB56CAB961B7F476BD1F
:1002C0005D6FD7DBED76BDDD6EB7DBED72BBDD6E4E
:1002D00097DBED72BBDCA6B74A8E5D7F3F80BC48E2
:1002E00049252B5991A59554323A2595AC64744A09
:1002F0002A59C9E89454323F0C2C9554A954292A00
:10030000A9A4AAA4A452A554A952AA14F4B84CA70B
:10031000D3E9742A954AF5AA57E97C2D15EB769D09
:100320008E6DBB4E562EDBAB5E752E954AA7D3E97C
:10033000743A3FBEA592AA2AE7A8A492AA96179556
:10034000545255525249259D723795545255A552D3
:10035000112EB3D974369D4EA7D3E9743E9DCFE7D5
:1003600087073D5DB4D1A5A34B47D6D9B218B36575
:100370009311A6A34B47175D3AEFE122A7529D4D7B
:1003800067D3E9743A9D4EE7D3F97C2AE7F89DECF0
:100390007CB2D3C9CE75AE739DEB5CE73AD7D95C1E
:1003A00067539D7270E13E9D4EA7D3E9743A9DCE8E
:1003B00066436B3E9F4EA7D3E9743A9D4E27878DC7
:1003C000F6F964A7939DEB5CE73AD7B9CE75AEB367
:1003D000B9CE6693037B123F3FD1974EA7D3E97402
:1003E0003A9D4EA7D3E968D3E9743A9D4E479B0ED8
:1003F0008DE9743A9D4EA7D3E9743A9D0EDF843A95
:10040000DD76BBDD6EB73ACDC7974EF7AA5739E711
:1004100028DBD5EE5DEDDED52E429DE623D4E9B690
:10042000DBED76BBD5693E7CCBEDA94FFDAF7AD530
:10043000FFFFFF9FDAAEE4F6289D73BFEADDAB5EF7
:1004400029A964DBA5DC5EFF7F727B6D977C727BE4
:100450006ABBEA55AF7AD5AB5EF576BB92DBC37764
:10046000BBDAD5AE76BFEABD92AA5DEDAC92EEFFE7
:100470004F39E77697FBFFBF76B58BAF573D653AAF
:10048000EF9C53727B6ABB6ABBEC55AFB25BBB7D22
:10049000BB7DBB6CBB44B84EE79C53B9CBBD4E2B68
:1004A000E75CED6A57FF7FBDEAAD73CE7DEA53CEC0
:1004B000B974BA5EF52A77B9CB39E7EC36E59CAB6F
:1004C0005DEDFEFFDF2EDBD52EA9A4924A2AF5A909
:1004D000FF558FF2B64BB5DD7EEAFFFF539FFAD48E
:1004E00076D576ABD3CA3957769BDCEEB6BB57BD13
:1004F000CA39A772CE792539EDF6FF7FBBE5DCEE70
:100500009554CA3997FAD4876F3E9DB6DBED76BB1A
:100510003D9D26E453DB55CE3995DDBE5DF6AAA799
:100520006CBB944AAAECF6FFDF4925DB6E5FF54A07
:100530006D57727B3A1D1FBED3E9743A9D4EA7D307
:10054000E9743A1D6D3ADA743A9D4EA7D3A1299DFC
:100550004E479B8E361D9AD2A10F0608007F3E7F24
:100560000C7F187F3E7F007F001F0E7F3E7F387F0D
:100570000E7F001F0E08007F3E7F3E7F0A7F021F16
:10058000007F367F3E7F087F367F007F007F367F8B
:10059000007F1508007F3E7F3E7F187F3E7F007FF3
:1005A0003E7F3E7F2A7F227F007F3E7F3E7F207FEF
:1005B0002070007F3E7F3E7F127F1E3F003F150868
:1005C000007F3E7F3E7F127F1E3F007F3E7F3E7F4B
:1005D000207F2070007F3E7F3E7F127F3E7F007F26
:1005E0000E7F3E7F387F0E7F001F15080077227F29
:1005F0003E7F3E7F227F007F3E7F0C7F187F3E7FC5
:10060000007F3E7F3E7F0A7F021F007F3E7F3E7F4E
:10061000227F3E7F007F7F3FA040B9DD6EDF6E9D71
:1006200054643595DD6EB7FFFF5BE5B8AAA292DB97
:10063000EDF6FF7FAB2453D5F6FFB776BBDDBE3DAD
:10064000252B551593DD6EB7FFFF6F4FC94A5545F2
:10065000E594DD6EFFFFFF5F057D67B395AC5CED54
:100660006A57BBDAD5AEE4EDB6B5FB4FBD92D9956E
:10067000E3923A9DAE9D52AE942B75EA6A59EACA4E
:1006800096ABE4E52A79B6B2E52A79B6D45557E5B2
:10069000AA6CC9CB55F27255B6E4B6B225CF75AE89
:1006A00073B52B77B9CB5DD775EE7439F5A94F7D4E
:1006B000EA954C6F6BA596D9DAD5AE76B5AB5D2DC4
:1006C0002B59D97CF0AAF23955BBDA55A53AD7B9DE
:1006D0004A56369BCE29972EB5BB76B5AB64BA7613
:1006E000B5AB5DED52A9D4E79CAA7255D5555D9581
:1006F000ABAAABEA4A5D5557EA525D5597EAAABAEA
:1007000054A7EA529DAA4B75555DAAABEA525DA962
:10071000ABEA4A5D5557D5557555E5AA9493B54B47
:10072000A7D3A954EA53D239BB4EA73EA7B8944FDA
:10073000E7B395AC64E73A5795AA5D9DCA2938316D
:100740009BAD5CAD4AA95A95BBD4659395DCEE2A66
:1007500077B94BA9DAD54E49E594734AD5EA5ED507
:100760004EC96D3A9D54F3CBAEEAAA5CB65297BA25
:100770009453AE96DFEA579D2BA59CECC82A99AE00
:10078000B83AE55C29D5A9FFBB96CA9572A5AE52C9
:100790005DD9CA56ADDA29F8289D4E6FB795ACE4FD
:1007A000252FA5CAA9DA9572B5AC6C3E58EBDDBB16
:1007B00047527279B94ABA6E75B9CB5DEE7297BB82
:1007C000DCE52EFDA952D55D55AAAE7B7575777512
:1007D00075B7DEA6B7955452B9F2AD145EF3E9745D
:1007E00036F4EEA85C2D2BA9647A9BDE56AE769784
:1007F000ABE4B67255A95B55A59CDBA6D3E9743A68
:100800009D4E6F6B77B9CA2A1DEFDEBDF3C34F7BD8
:10081000F7CECFBBBC54EF6E25F525F3E974252B3D
:1008200059C9CA756AA5CAD5A9AAAE4EF5F7F7EA9D
:10083000729D3BBBCEAE9DAA5257D5555D555D55B9
:100840005DD5557555D55557555DA5AEBA2A75D5A3
:10085000AA5C55EA5655A95B9552B72A75D59FBA39
:10086000DCA73A5795ABCA55AEAAAB72555D555D3C
:1008700095ABBCCBAEB3EBEC3A5BD9CA55E56A5548
:100880009592769D4FA7D3E97436BB72B25297AB5F
:100890009593B1BF7BF7B056DEA9DCC9FDD6D9CAA6
:1008A00055A56E5555AE53555DDD57A9DB294AAAAE
:1008B00053A95455577757AE5355B94E55E55A5528
:1008C000A56E5595BA955D87CE743A5DB9CBDDAB13
:1008D0005B5D4E49E79C934A2ABBDDAED3616BA9B1
:1008E0006E5595BA5555EA5655A95B55E56A77494F
:1008F000252B3B96B2CA5DEA5655A95B55E56A556C
:10090000CB65369D7CF74E05CDA5F3E96C252B59BB
:10091000C94AD62E95CA75AE739DEB5CE73AD7B936
:10092000CE75AE739D4AD5AE9295AC64252B79B940
:10093000CB5DEED2913BA583A69258CA5DEE72972D
:10094000AB64252B59C94AD62E95CA75AE739DEB5B
:100950005CE73AD7B9CE75AE739D4AD5AE9295ACE9
:100960006465D3D974D010411000FFFEFFFEFFFE76
:10097000FFFEFF66FF66FFFCFF98FE00FC00000024
:10098000FFFEFFFEFFFEFFFEFF00FF00FFFEFFFE7B
:10099000FF00FF0000007E3CFF7EFF7EFF7EFFE643
:1009A000FFE6FFE6FFC6FF00EF0000000F060F06A0
:1009B000FFFEFFFEFFFEFFFEFF06FF060F000F001B
:1009C0000000FFFEFFFEFFFEFFFEFF66FF66FF0664
:1009D000FF060F000F000000FFFEFFFEFFFEFFFE00
:1009E000FF06FF06FFFEFFFCFF00FE000F070F07DC
:1009F0000F070F070F060F060F070F030F00070063
:100A0000000007030F070F070F070F060F060F075A
:100A10000F030F00070000000F060F060F060F065A
:100A20000F070F070F070F030F000700000000005C
:100A300000000F070F070F070F070F000F00000040
:100A4000000000000F070F070F070F070F060F0624
:100A50000F060F060F000F0000000F070F070F070C
:100A60000F070F060F060F070F030F0007060800FA
:100A70007F3E7F3E7F227F3E7F007F0077227F3E4A
:100A80007F3E7F207F0070007F3A7F3A7F2E7F2E4F
:100A90007F007F007F227F2A7F3E7F3E7F007F0096
:100AA0001F0E1F087F3E7F3E7F007F007F2E7F2E20
:100AB0007F3A7F3A7F007F007F3E7F3E7F2A7F3AEA
:100AC0007F007F00070207027F3E7F3E7F007F009E
:100AD0007F3E7F3E7F2A7F3E7F007F001F0E1F0AE2
:100AE0007F3E7F3E7F007F1410C07E02CA8A8AABA1
:100AF000A12505404A0AC20E181010F0001F103040
:100B0000415B433717171717173060585860301C70
:100B100007FC04A61A9A9A9AA1A12503424A06CC78
:100B200018183060C00F18216041D3576737171766
:100B300017131120282820180FFC04844414169938
:100B400091812522024A042418103020E00B18104D
:100B500021604083B7C7771517171210202C301863
:100B600007F018084C141491111103222202648416
:100B70004C1810F0001F102121614240C085B7C6FB
:100B800077171A101014100D0300F010480C129370
:100B900091B32A0282A202860C10F00000003F20CE
:100BA0002143424242C2808597673B0819180F03D0
:100BB00000000080F0188A93939AAAA2028282020F
:100BC0000EF800000000003F434242424242C2820F
:100BD000808DC378080F00000000000000C07E82F6
:100BE000AAAAAA2AAAAA827EC000000000000000C9
:100BF00000FFC0C2C2C2C2C2C2C2C2C0FF00000067
:100C000000000000F80E02828202A2AA9A93938E3C
:100C10001CF08000000000000F0878C38F8082C2A3
:100C20004242424240433F00000000F0100C840664
:100C3000A282022AB39193120E4810F00000030F13
:100C40001819083B67978780C24242424321203FE0
:100C50000000F010184C8464022222031111911636
:100C6000164C0818F0030D101410101B1777C7B797
:100C700087C04042612121101FE020301018240459
:100C80004A0222258191991714448404FC071830E4
:100C90002C20101317171777C7B78340602110183F
:100CA0000BC060301818CC064A420325A1A19B9BBB
:100CB0009A1AA604FC0F18202828201113171717BA
:100CC000376757D3416021180F00F01010180EC27B
:100CD0000A4B410525818B8A8ACA027EC0071C30D7
:100CE0006058586031171717171637425B4130109C
:100CF0001FE06020101C2632CB09410105A3828B26
:100D0000CD4BC60CF8070C3120405050413016171F
:100D100017161737212920380FC06020380C74723D
:100D2000EB0901410521A18DC5C26204FC0F081425
:100D3000322040C0B0D1643216171713322C241859
:100D40000F00C040380C7477E9E501114101A1455D
:100D5000C3E2321EF00F1130202E60404080B0C13F
:100D60007617191B1714100C0300008070186663A7
:100D7000E5E1E1E1010111D1C1031EF800001F21ED
:100D80002068404C5040C08091C73B0B091A0C07AB
:100D90000000000080F80E63E1E1A1A1E10101F192
:100DA00001FF00000000003C67404040405C5040B4
:100DB000C088C379080F01000000000000C07F0157
:100DC000E1E1A161E1E1017FC0000000000000005D
:100DD000007F405050504040505050407F00000035
:100DE00000000000FF01F90101E1A161E1E1230C34
:100DF000F8800000000000010F0879C388C040504F
:100E00005C40404040673C000000F83E03E9D111DF
:100E10000101A1E1A1E52164187080000000070C28
:100E20001A090B3BC79180C040504C406820211FDD
:100E300000F01E32E2D3D5A10141110165E97664CB
:100E40000C3840C000030C1014171B1B1776C1B0E0
:100E5000804040602E2030110FFC0462C2C59DA16D
:100E60002105410109EA62740C382060C00F182482
:100E70002D33131717173264D1B0C0402032140835
:100E80000FF80CC6CBCDABA2A305014108CA322690
:100E90001C102060E00F382029233717171717166A
:100EA000304150504020310C0714100000E020A0C9
:100EB00038082C040400288818202020E0000000B6
:100EC000001F1030207B6B37171731206868201007
:100ED0001F00000000E060B01848208404040848A7
:100EE00030202060C0800000030F301030605B4A6B
:100EF00036171710202C20100A0F000080C04070F9
:100F000018C8A404842C081890302060C000000089
:100F100007091B362121405B4A261713102C341079
:100F20000D0700000080807010D0848404840808BD
:100F3000D8302020E0000000001F10162C2C20418B
:100F4000465A671B1010161807000000000080E0CA
:100F500030C4848484040808183020E000000000B5
:100F6000001C1F302C2C2C6C41424A731010180F9F
:100F70000000000000000000F018848484840C0C41
:100F80000838E000000000000000003F202C2C6C1E
:100F90004C4D404378080F000000000000000000A6
:100FA000C06C0484848484047CC0000000000000C1
:100FB000000000007F404C4C4C444C4C407F0000F3
:100FC00000000000000000E038080C0C84848484D9
:100FD00018F00000000000000000000F08784340F7
:100FE0004C446C2C28203F00000000000000E02052
:100FF0003018080804848484CC38E08000000000A5
:1010000000000F181010734A40406C2C282C301F21
:101010001C00000000E0202030D0000884048484FC
:10102000DC187080800000000007181610101B6785
:101030005A444020242C16101F00000000C06020DD
:10104000309018082C8404A4CC187040C080000094
:10105000070D10342C101317264A5B402021361B35
:101060000907000080C06020203048080404842460
:101070004C18B060E00000000F0A10202C20101760
:1010800017364A5B603010300F03000000E020206C
:101090002018882C0404042C0838A020E00000004C
:1010A000001F1020686820311717376B7920301027
:1010B0001F00000080C0404030584CA404040608C3
:1010C00008103060C0800000030E30306058586156
:1010D000361717332A2D3018090F000000C0406062
:1010E0003848CC048404044808103020C080000034
:1010F000070918302060505865361713232D301B10
:101100000D070000008080C030DCC4C40684044C9D
:1011100008183020E0000000001F10302020404060
:10112000504137131315110C07000000000000C0D8
:10113000709CC4C4840404448C1830E00000000097
:1011400000183F20282C40404040417313141807DA
:101150000000000000000000E018C4D484840404EF
:101160008C1CF000000000000000203F6160404C3B
:101170004040404178180F000000000000000000CF
:10118000C07C0484848484047CC0000000000000CF
:10119000000000007F40404048484040407F000041
:1011A00000000000000000F01C8C040484C4D4C4BF
:1011B00010E00000000000000000000F187841401F
:1011C00040404C4060613F20000000000000E030E3
:1011D000188C44040484C4C49070C0000000000053
:1011E0000000071814137341404040402C28203F52
:1011F0001800000000E0203098084C048406C44821
:10120000D030C0808000000000070C111513133788
:1012100041504040202030101F00000080C020308E
:1012200010084804048404C848386040C000000026
:10123000070D1B302D2313173665585060203018CA
:101240000907000080C06030100808060404A048A8
:1012500058304040C08000000F0918302D2B331744
:1012600017366158586030300E030007088040A0E0
:1012700058E0C0800A10F018C810E8E810B020E06C
:1012800001031E112F2F111E0301080800007848CA
:1012900068380000001C362A22361C007E4B516B39
:1012A000C589D77C1CF4ACD6AAD66C3814100000C3
:1012B000F810A0380828282828288818A02060C0FE
:1012C000000000001F1036226363371717372360B2
:1012D0006222101F00000000F020B0184828A82843
:1012E00028284830303060C0000000030F3210362C
:1012F00062434236171717232021100B0F0000C03E
:10130000E0407018C8A828A828081890302060C0AD
:1013100000000007081B36202D46434226171313F2
:101320002131100F06000000C0407010D0A8A8287E
:10133000A80808D0B0A020E0000000001F10162E62
:101340002E204D4642671B131110180700000000A5
:101350000080E030D088A8A828280818B020E00035
:10136000000000001C1F302E2E2C6C4146427313CF
:1013700010180F0000000000000080E01088A8A8EE
:10138000A828088818F000000000000000003F2096
:101390002E2C6C4C4D404379080F000000000000DB
:1013A000000000C07808A8A8A8A80878C00000001D
:1013B000000000000000007F404C4C4C484C4C406A
:1013C0007F000000000000000000F018880828A836
:1013D000A8A88810E08000000000000000000F08AE
:1013E0007943404D446C2C2A203F0000000000004F
:1013F00000E020B018082828A8A888D030E0800095
:1014000000000000000F181013734246416C2C2698
:101410002E301F1C00000000E020A0B0D00808A85B
:1014200028A8A8D0107040C00000000007181011B4
:10143000131B6742464D202E2E12101F0000000085
:10144000C060203090180828A828A8C8187040E06C
:10145000C00000060F103121131317264243442CFD
:1014600020361B0807000000C060303030482828B4
:1014700028A8284818B020F00000000F0B102121E8
:1014800023171717364243623610320F030000004D
:10149000C06020A0188828282828280838A010F81C
:1014A000000000001F1022626223371717376361A4
:1014B0002236101F00000000C060A0B05848A828C5
:1014C00028280808101820C0800000030F3030665C
:1014D000424267361717332320331B090F000000E1
:1014E000C040603848C808A8281C4808101020E0F0
:1014F000800000070B1830206D4642673617132313
:1015000021311B0D0700000080804030D0C8C82862
:10151000B40C4808989030E0000000001F103026FE
:10152000204044424737131311110C0700000000FC
:101530000080C07090C8C8B42C2848889810F0006B
:1015400000000000183F20282C4040404643731301
:101550001018070000000000000000E010C8C4AC34
:10156000A828088818F000000000000000003F6074
:1015700060484C4040404378180F000000000000D5
:10158000000000C07808B8B8B8B80878C0000000FB
:10159000000000000000007F4040404C4C404040B4
:1015A0007F000000000000000000F018880828A854
:1015B000ACC4C810E00000000000000000000F18DC
:1015C00078434040404C4860603F0000000000000D
:1015D00000F010988848282CB4C8C89070C08000CB
:1015E0000000000000071810137343444048402CCB
:1015F00028203F1800000000E030909808480CB404
:1016000028C848D03040808000000000070C11112D
:1016100013133747424440202630101F000000803B
:10162000E020501008481C28A808C848386040C06E
:10163000000000070D1B3121231317366742466D4A
:101640002030180B07000080C02018100808282838
:1016500028A84858B0A060C00000000F091B332123
:1016600023331717366742426630300F03001010DD
:101670000000F09CF6FE9F0D0D9FFEF69CF0000012
:1016800000000003061F3BEFEF3B1F0603000000B6
:101690001010E030182C343434343434343494C4DE
:1016A00004FC7F404E4E55555B55554E4E406F37AE
:1016B000180F080B000202020100090400000102D9
:1016C0000200000524001001052401010104240288
:1016D00006052406000107058103100040090401E6
:1016E00000020A000000070502024000000705830F
:1016F000024000000403090412010002EF0201404D
:101700004123368000010102030141726475696E54
:101710006F204C4C430041726475696E6F204C65BC
:101720006F6E6172646F0000822C11241FBECFEFB8
:10173000DAE0DEBFCDBF12E0A0E0B1E0E0E6F6E621
:1017400002C005900D92AA33B107D9F729E0AAE3A8
:10175000B2E001C01D92A239B207E1F71BE0C5E972
:10176000DBE004C02197FE010E942333C439D10776
:10177000C9F70E94A5290C942E330C940000809187
:1017800048020895CF92DF92EF92FF920F931F933A
:10179000CF93DF936C017A018B01C0E0D0E0CE15CE
:1017A000DF0581F0D8016D918D01D601ED91FC919D
:1017B0000190F081E02DC6010995892B11F0219649
:1017C000EECF7E01C701DF91CF911F910F91FF9066
:1017D000EF90DF90CF90089580914702E09145020D
:1017E000F0914602882349F0CF0102969093460279
:1017F00080934502859194910895CF01029690932C
:10180000460280934502808191810895CF92DF92B4
:10181000EF92FF920F931F93CF93DF930E94EC0BF5
:10182000811520E8920761F4809171008D7F80938B
:101830007100109291004698479810923C028BC01C
:1018400021E020933C02813020E8920751F48091FE
:1018500043029091440290934602809345020E9475
:10186000EC0B97FD05C020913B02222309F43FC0F9
:1018700020913A0221113BC021E020933D02EC016E
:10188000DF77209769F481E080933E0246983FE934
:10189000C32E3FE0D32EE12CF12CCAEFD0E014C0D0
:1018A0008E0120E030E060E472E48FE090E0A90176
:1018B00098010E94A22E69017A0181E0C81AD1081C
:1018C000E108F10810923E02E0918006F091810655
:1018D0000995811103C081E080933E0280913D0211
:1018E0008823B9F180913E02811133C003C0109268
:1018F0003D02C5CF46992DC0479A0E94EC0B009738
:1019000071F09C01DE010E94F62EDC01CB0129E082
:10191000B595A795979587952A95D1F703C08FEF31
:101920009FEFDC01109290002AE020939100D0926A
:101930009900C092980080933F0290934002A09338
:101940004102B093420280917100826080937100E5
:1019500002C04798D2CFDF91CF911F910F91FF9096
:10196000EF90DF90CF900895109248023E983F98F4
:1019700008953E9A3F9A81E0809348020895089521
:10198000089580E090E008950E9429333FB7F894CD
:1019900080914E0290914F02A0915002B09151025D
:1019A00026B5A89B05C02F3F19F00196A11DB11DBA
:1019B0003FBFBA2FA92F982F8827820F911DA11DF5
:1019C000B11DBC01CD0142E0660F771F881F991F32
:1019D0004A95D1F708951F920F920FB60F921124D6
:1019E0002F933F938F939F93AF93BF9380914A021E
:1019F00090914B02A0914C02B0914D02309149025E
:101A000023E0230F2D3720F40196A11DB11D05C041
:101A100026E8230F0296A11DB11D20934902809351
:101A20004A0290934B02A0934C02B0934D028091D6
:101A30004E0290914F02A0915002B0915102019636
:101A4000A11DB11D80934E0290934F02A0935002AE
:101A5000B0935102BF91AF919F918F913F912F9180
:101A60000F900FBE0F901F9018951F920F920FB6F8
:101A70000F9211242F933F934F935F936F937F9314
:101A80008F939F93AF93BF93EF93FF9380913F0208
:101A900090914002A0914102B0914202892B8A2B81
:101AA0008B2B81F180913E0281110BC098B180E4B3
:101AB000892788B980913D02882319F088B1805820
:101AC00088B980913F0290914002A0914102B0916B
:101AD0004202181619061A061B06B4F480913F023A
:101AE00090914002A0914102B09142020197A10958
:101AF000B10980933F0290934002A0934102B093BA
:101B0000420202C00E94060CFF91EF91BF91AF917B
:101B10009F918F917F916F915F914F913F912F9105
:101B20000F900FBE0F901F9018950F9303E00E9427
:101B300091240F9108958FB18095807F669B886076
:101B40001C9B84600895FC01E40FF11DAF011E167B
:101B50001F06C4F580389105ACF597FF02C080E000
:101B600090E04138510514F040E850E0481BFB017B
:101B700077FD379633E0F595E7953A95E1F7F695D9
:101B8000FE2FEE27F795E795E80FF91FEE58FD4F6A
:101B90006770772781E090E001C0880F6A95EAF7C7
:101BA000382F222341F0213069F4415058F08081D0
:101BB000832B8193FACF8095415020F09081982318
:101BC0009193FACF08951F93CF93DF93DC0120E028
:101BD00030E040E050E011E0C1E0D0E026173707E8
:101BE00091F114968C911497811115C014961C9341
:101BF000149712968D919C911397ED91FC911197EA
:101C0000E80FF91FE4911596EC931597019613963A
:101C10009C938E93129714969C91149715968C9181
:101C20001597892349F0FE01022E02C0EE0FFF1F17
:101C30000A94E2F74E2B5F2B990F14969C931497FE
:101C40002F5F3F4FCBCFCA01DF91CF911F910895F6
:101C500060387105D0F440345105B8F4E2E5F1E0A4
:101C600080E1849FD001A0781124A60F4770E40F73
:101C7000F11D8491AE58BD4F222319F06C91862B33
:101C800003C080956C9186238C930895882381F0FE
:101C90008091680290916902833029ED920740F4A7
:101CA000FB012081820F911D90936902809368024D
:101CB00080916802909169028430994D30F083E000
:101CC00099ED909369028093680208954F925F9214
:101CD0006F927F928F929F92AF92BF92CF92DF923C
:101CE000EF92FF920F931F93CF93DF93EC018B0141
:101CF0007A018AE6A82E82E0B82EF501248135818A
:101D0000468157816C817D818E819F810E94052F44
:101D10002B013C016985669570E080E090E00E94AF
:101D200098309B01AC01C301B2010E94062F2B0128
:101D30003C01F7016081062E000C770B880B990B94
:101D40000E9498309B01AC01C301B2010E94062F92
:101D50000E9460306B017C01F5012081318142815C
:101D60005381688179818A819B810E94052F4B0173
:101D70005C016885669570E080E090E00E94983094
:101D80009B01AC01C501B4010E94062F4B015C010F
:101D9000F8016081062E000C770B880B990B0E94CE
:101DA00098309B01AC01C501B4010E94062F0E942E
:101DB0006030DC01CB0101E023E047E0B6010E9486
:101DC0000827DF91CF911F910F91FF90EF90DF9047
:101DD000CF90BF90AF909F908F907F906F905F90CB
:101DE0004F9008958F929F92AF92BF92DF92EF92A1
:101DF000FF920F931F93CF93DF93EC017B01D42EBF
:101E00000AE612E0F80124813581468157816C8110
:101E10007D818E819F810E94052F0E9460304B0141
:101E20005C01F8012081318142815381688179818F
:101E30008A819B810E94052F0E946030DC01CB01CA
:101E40000AEF2D2DA701B4010E949124DF91CF91BB
:101E50001F910F91FF90EF90DF90BF90AF909F90F8
:101E60008F900895FC0110821182128213821482D5
:101E700015821682178210861186128613861486A2
:101E8000158616861786108A118A128A138A82E0AE
:101E9000848B158A87E4868B178A118E108E138E99
:101EA000128E148E158E0895CF92DF92EF92FF92CC
:101EB000CF93DF93EC010E94320F83E393E3A3EB14
:101EC000BEE38CA39DA3AEA3BFA38AE097EDA3EAD4
:101ED000BCE388A799A7AAA7BBA785E08CA71DA6E6
:101EE0001EA680E090E0A0E6B0E48FA798ABA9AB77
:101EF000BAAB80E090E0A0E8BFEB8BAB9CABADABA6
:101F0000BEAB0E94352E28E631E040E050E00E9452
:101F1000A22E0E9498306C877D878E879F870E94B3
:101F2000352E20E9C22EDD24D394E12CF12CA7011B
:101F300096010E94A22E0E949830688379838A833A
:101F40009B830E94352EA70196010E94A22E0E941B
:101F500098306C837D838E839F8384E1888790E1B2
:101F6000998796E0E4EFF1E0DE01589601900D923A
:101F70009A95E1F798E19A878CA781E08D8B80E5AF
:101F80008E8BDF91CF91FF90EF90DF90CF900895EF
:101F9000CF92DF92EF92FF92CF93DF93EC01188202
:101FA00019821A821B821C821D821E821F820E943D
:101FB000352E20E9C22EDD24D394E12CF12CA7018B
:101FC00096010E94A22E0E949830688379838A83AA
:101FD0009B830E94352EA70196010E94A22E0E948B
:101FE00098306C837D838E839F83DF91CF91FF90A8
:101FF000EF90DF90CF9008950F931F93CF93DF93CF
:10200000FC011082118212821382148215821682C0
:1020100017821086118612861386148615861686F8
:102020001786108A118A128A138A82E0848B158A95
:10203000168A178AEB0188819981AA81BB818083E6
:102040009183A283B383EA0188819981AA81BB81AC
:1020500084839583A683B783E90188819981AA81C6
:10206000BB8184879587A687B787E8018881998196
:10207000AA81BB81808B918BA28BB38B84E08287FA
:1020800098E0978B868BDF91CF911F910F910895E8
:102090008F929F92AF92BF92CF92DF92EF92FF9278
:1020A0000F931F93CF93DF93EC017B018A012CA147
:1020B0003DA14EA15FA1688979898A899B890E9487
:1020C000AE3118160CF0C1C080913A0990913B09CD
:1020D0006AE070E00E94FB32892B89F40E94352E61
:1020E0002AE030E040E050E00E94A22E633071050B
:1020F0008105910524F49DA581E089278DA78DA5F3
:10210000882329F188889988AA88BB886C89669574
:1021100070E080E090E00E9498309B01AC01C50126
:10212000B4010E94AE31181694F468A579A58AA569
:102130009BA59B01AC010E94062F9B01AC01C50130
:10214000B4010E94052F688B798B8A8B9B8B6881E9
:1021500079818A819B810E946030F70120813181E1
:10216000621B730B072E000C880B990B0E94983092
:102170006B017C016C817D818E819F810E9460302A
:10218000F80120813181A901461B570BBA01072EA6
:10219000000C880B990B0E949830A70196010E94B1
:1021A000852FCC84DD84EE84FF8420E030ED4FE584
:1021B00057E40E94133220E030E04AE754E40E94E2
:1021C000EE2F20E030E044E353E40E94062F0E940B
:1021D00060304B015C01C701B6010E946030C40150
:1021E000861B970B28E631E0B9010E940F33845E0D
:1021F0009D4FB9010E940F33BC01645B7109072E2A
:10220000000C880B990B0E9498304B015C0120E078
:1022100030E048E452E4688979898A899B890E9480
:10222000EE2F2FA538A949A95AA90E94062F9B0174
:10223000AC01C501B4010E941332A70196010E94AE
:10224000062F6C877D878E879F87DF91CF911F91A7
:102250000F91FF90EF90DF90CF90BF90AF909F9045
:102260008F9008958F929F92AF92BF92CF92DF92FC
:10227000EF92FF92CF93DF93EC016C857D858E8585
:102280009F850E946030CB0168E671E00E940F33A9
:1022900097FF02C088599E4FBC01990F880B990B7C
:1022A0000E9498306B017C016C877D878E879F87A9
:1022B0006A8570E080E090E00E9498304B015C01FC
:1022C00020E030E044EB53E4C701B6010E94EE2F5A
:1022D0009B01AC01C501B4010E9413320E9467301A
:1022E0006B87DF91CF91FF90EF90DF90CF90BF9001
:1022F000AF909F908F900895CF92DF92EF92FF92D0
:102300001F93CF93DF93EC0128A539A54AA55BA5C0
:10231000688979898A899B890E94062F6B017C01D3
:10232000688B798B8A8B9B8B1C89612F70E080E096
:1023300090E00E9498309B01AC01C701B6010E9459
:10234000AE31181654F4612F70E080E090E00E94E6
:102350009630688B798B8A8B9B8BDF91CF911F9105
:10236000FF90EF90DF90CF9008952F923F924F9281
:102370005F926F927F928F929F92AF92BF92CF9215
:10238000DF92EF92FF920F931F93CF93DF93CDB71E
:10239000DEB72A970FB6F894DEBF0FBECDBF9E837F
:1023A0008D83162F1A01DC01CD90DD90ED90FC900D
:1023B000139780906A0290906B02A0906C02B0908C
:1023C0006D0218966C9170E080E090E00E94983069
:1023D000A70196010E94062FA50194010E94AE312B
:1023E00018160CF04AC020E030E04EEF52E4C50170
:1023F000B4010E94062F9B01AC01C701B6010E94E7
:10240000E42F87FF3AC0AD81BE8114968D919D91D6
:102410000D90BC91A02D89839A83AB83BC8340909F
:102420006E0250906F026090700270907102ED81A8
:10243000FE81618570E080E090E00E949830298103
:102440003A814B815C810E94062FA30192010E9478
:10245000AE31181694F420E030E04CE752E4C301AA
:10246000B2010E94062F9B01AC0169817A818B81A8
:102470009C810E94E42F87FDA6C120916E023091BD
:102480006F024091700250917102AD81BE8114962D
:102490006D917D918D919C9117970E94052F20E061
:1024A00030E040E052E40E94052F2B013C01A501E1
:1024B0009401C701B6010E94052F20E030E040E8FA
:1024C00052E40E94052F9B01AC01C301B2010E949E
:1024D000EE2F6B017C0120E030E0A901C301B201C5
:1024E0000E94E42F87FF0FC0A701960160E070E013
:1024F00088EF91EC0E94EE2F0E9460307A8369830E
:1025000061EE7FEF0EC0A701960160E070E088EFFA
:1025100091E40E94EE2F0E9460307A8369836EE11D
:1025200070E029813A81213C3F4F7CF420E030E08B
:102530004CE752ECC701B6010E9413320E94603092
:10254000A1ECBFEFBA83A98313C0E981FA81E0341B
:10255000F10574F020E030E04CE752E4C701B60129
:102560000E9413320E9460302EE330E03A832983C8
:10257000412F133008F042E0D1018C918B01005EB5
:102580001F4FE981FA81E05CFF4FFA87E987E42E6B
:10259000F12C882309F467C0440F4F5FB8016E190E
:1025A0007F0921E0CF010E94A82681E090E06C0124
:1025B000CE18DF08222433242E183F08220C331CA7
:1025C000A12CB12C66246394712C29853A853E8315
:1025D0002D8318870F83AE14BF040CF0F4C03FEFB7
:1025E000C316D30641F081E0E81AF10892E0290E03
:1025F000311CC20CD31CAFEFAA1ABA0AB2E06B0EA0
:10260000711CC60CD71C8E2D880F8F5F898321E02B
:10261000482F28014E185F08B2018D819E818A0DD6
:102620009B1D0E94A8268F8098848A189B0821E011
:10263000462DB40189859A858E0D9F1D0E94A8267E
:1026400021E04981B2018D819E818A199B090E94F6
:10265000A82621E0462DB40189859A858E199F0907
:102660000E94A826B8CF81E090E05C01AE18BF08B8
:10267000222433242E183F08220C331CA8014E0DAF
:102680005F1D21E069857A8587E399E00E94280E25
:10269000A8014E195F0921E069857A8587E399E0F1
:1026A0000E94280E69857A856E0D7F1D21E0A801A4
:1026B00087E399E00E94280E69857A856E197F0963
:1026C00021E0A80187E399E00E94280EC12CD12CBB
:1026D000E1E0F0E0FA83E98329853A853E832D83A2
:1026E00018870F83CE14DF040CF06DC03FEFA316E4
:1026F000B30641F081E0E81AF10892E0290E311C9E
:10270000A20CB31CAFEFCA1ADA0AE981FA81329639
:10271000FA83E983AE0EBF1E6D807E806C0C7D1C3B
:1027200021E048018E0C9F1CA401B30187E399E0CE
:102730000E94280E4D805E804C185D0821E0A401A7
:10274000B20187E399E00E94280E21E048018E182B
:102750009F08A401B30187E399E00E94280E21E0BD
:10276000A401B20187E399E00E94280E8F8098842B
:102770008C0C9D1C21E0A40169847A846E0C7F1C62
:10278000B30187E399E00E94280E21E0A401498467
:102790005A844E185F08B20187E399E00E94280E20
:1027A0008F8098848C189D0821E0A401B30187E3F1
:1027B00099E00E94280E21E0A401B20187E399E08C
:1027C0000E94280E8FCF2A960FB6F894DEBF0FBE58
:1027D000CDBFDF91CF911F910F91FF90EF90DF90D0
:1027E000CF90BF90AF909F908F907F906F905F90B1
:1027F0004F903F902F9008954F925F926F927F92EB
:102800008F929F92AF92BF92CF92DF92EF92FF9200
:102810000F931F93CF93DF93EC018B01FB01668D28
:10282000778D2E8D3F8D888D998D2617370744F42F
:102830002C8D621B7109681B790B6F5F7F4F06C07F
:10284000F80122A1620F711D681B790B072E000C85
:10285000880B990B0E949830288139814A815B81CD
:102860000E94052F6B017C01F80160A171A128A1D4
:1028700039A18A8D9B8D2617370744F42D8D621B55
:102880007109681B790B6F5F7F4F06C0F80123A1A8
:10289000620F711D681B790B072E000C880B990BBA
:1028A0000E9498302C813D814E815F810E94052FCE
:1028B0004B015C0120E030E0A901C701B6010E9494
:1028C000AE3126013701181624F077FA709477F8A4
:1028D000709420E030E0A901C501B4010E94AE313E
:1028E000A501940118160CF05058C301B2010E94C2
:1028F000E42F87FF0DC0A7019601688179818A8145
:102900009B810E94062F688379838A839B830CC0F6
:10291000A50194016C817D818E819F810E94062F8B
:102920006C837D838E839F83DF91CF911F910F9165
:10293000FF90EF90DF90CF90BF90AF909F908F90DF
:102940007F906F905F904F900895DC01FB01808134
:1029500091812D913C91119714964C911497B90146
:10296000640F711D86179707DCF44481840F911D55
:1029700028173907ACF42281338112964D915C916E
:10298000139715968C91BA01680F711D261737079A
:102990003CF48581280F311D81E0421753070CF06C
:1029A00080E00895EF92FF920F931F93CF93DF93F0
:1029B000EC016C817D818E819F810E9460300A8D47
:1029C0001B8D060F171FEC8CFD8C688179818A8125
:1029D0009B810E946030288D398D620F731F7F8F1D
:1029E0006E8F19A308A3EAA2FBA2DF91CF911F91DA
:1029F0000F91FF90EF9008954F925F926F927F92A8
:102A00008F929F92AF92BF92CF92DF92EF92FF92FE
:102A10000F931F93CF93DF93EC01C888D988EA887E
:102A2000FB8820E030E04AE754E46C857D858E85A4
:102A30009F850E94133220E030ED4FE557E40E945D
:102A4000EE2F2B013C010E94E92F9B01AC01C70135
:102A5000B6010E941332288139814A815B810E942C
:102A6000062F4B015C01688379838A839B83C301B2
:102A7000B2010E9480329B01AC01C701B6010E94E5
:102A800013329B01AC016C817D818E819F810E94FC
:102A9000052F6B017C016C837D838E839F838D89E1
:102AA000882309F45EC020E030E0A901C501B4012B
:102AB0000E94E42F87FF05C0188219821A821B82A8
:102AC00021C0088510E0B801012E000C880B990B7D
:102AD0000E949830A50194010E94062F20E030E06A
:102AE00048EC53E40E94AE31181664F460E971E0DA
:102AF000601B710B80E090E00E94963068837983C0
:102B00008A839B8320E030E0A901C701B6010E94BF
:102B1000E42F87FF05C01C821D821E821F8221C0F8
:102B2000098510E0B801012E000C880B990B0E945A
:102B30009830A70196010E94062F20E030E048EC73
:102B400053E40E94AE31181664F460E971E0601B32
:102B5000710B80E090E00E9496306C837D838E83C1
:102B60009F83DF91CF911F910F91FF90EF90DF90A6
:102B7000CF90BF90AF909F908F907F906F905F901D
:102B80004F9008952F923F924F925F926F927F9253
:102B90008F929F92AF92BF92CF92DF92EF92FF926D
:102BA0000F931F93CF93DF93CDB7DEB7C754D109EF
:102BB0000FB6F894DEBF0FBECDBF80913A09909159
:102BC0003B0963E070E00E94FB32892B49F401E08D
:102BD00020E440E860E070E080E090E00E94D326CE
:102BE00000E010E0B801012E000C880B990B0E9448
:102BF000983020916E0230916F0240917002509196
:102C000071020E94052F0E9460306034710530F41B
:102C100021E040E880E090E00E94A30D005B1F4FA0
:102C2000003E21E01207F1F600E010E0B801012EAD
:102C3000000C880B990B0E94983020916A02309109
:102C40006B0240916C0250916D020E94052F0E9410
:102C50006030DC01CB0121E040E460E070E00E94E4
:102C6000A826005B1F4F003E31E01307F9F6809164
:102C7000F706DE0111967D01811111C086EA96E00A
:102C80000E94D21440E060E976E186EA96E00E9474
:102C9000F20E1982A70162E086EA96E010C082E88F
:102CA00096E00E94D21440E06EE676E182E896E07B
:102CB0000E94F20E1982A70162E082E896E00E946B
:102CC000B5118091F606882309F4B1C08090DA0628
:102CD0009090DB06A090DC06B090DD0620E030E0AE
:102CE000A901C501B4010E94AE31A50194011816D5
:102CF0000CF050586091EE067091EF068091F0064E
:102D00009091F1060E94E42F87FF54C06091DE0687
:102D100070E080E090E00E9498309B01AC01C5011A
:102D2000B4010E94EE2F20E030E040E85FE30E9413
:102D3000052F4B015C010E949B0D85FF17C0209160
:102D4000F9063091FA064091FB065091FC06C50148
:102D5000B4010E94062F2091D6063091D7064091EB
:102D6000D8065091D9060E94062F1CC00E949B0DC8
:102D700086FF20C02091F9063091FA064091FB06AB
:102D80005091FC06C501B4010E94062F9B01AC01C5
:102D90006091D6067091D7068091D8069091D90699
:102DA0000E94052F6093D6067093D7068093D806AD
:102DB0009093D9060E949B0D82FF05C08AEC96E095
:102DC0000E947C1134C00E949B0D83FF30C0809014
:102DD000DA069090DB06A090DC06B090DD0620912C
:102DE000FD063091FE064091FF0650910007C50197
:102DF000B4010E94AE311816D4F46091F2067091BD
:102E0000F3068091F4069091F5069B01AC010E94B7
:102E1000062F9B01AC01C501B4010E94052F6093F0
:102E2000DA067093DB068093DC069093DD068AEC6D
:102E300096E00E94FC148AEC96E00E94D2148AEC80
:102E400096E00E9432112091F806222309F4D5C1A0
:102E500080913A0990913B096CE370E00E94FB324B
:102E6000892B09F0CAC121502093F8068091F606FB
:102E7000882309F44EC08091D30659EFD52ED80E81
:102E80001091D206185020916E0230916F0240913D
:102E90007002509171026091CE067091CF068091C0
:102EA000D0069091D1060E94052F20E030E040E846
:102EB00050E40E94062F0E9460304B015C0120917B
:102EC0006A0230916B0240916C0250916D026091E8
:102ED000CA067091CB068091CC069091CD060E94D7
:102EE000052F20E030E040E850E40E94062F0E94C9
:102EF0006030DC01CB0100E02D2D412FB4010E9498
:102F000008274091D5066CEA72E18AEC96E00E94AF
:102F1000F20E6091D306669570E080E090E00E942A
:102F200098302091CE063091CF064091D006509136
:102F3000D1060E94062F4B015C016091D206669576
:102F400070E080E090E00E9498302091CA063091B5
:102F5000CB064091CC065091CD060E94062F2B0146
:102F60003C0180916A0290916B02A0916C02B09139
:102F70006D0228968CAF9DAFAEAFBFAF289720E013
:102F800030E048E552E4BC01CD010E94062F9B01D0
:102F9000AC01C301B2010E94E42F87FF07C020E00B
:102FA00030E048E552E4C301B20126C020E030E041
:102FB0004EEF52E428966CAD7DAD8EAD9FAD289757
:102FC0000E94062F20E030E048E552E40E94052FE1
:102FD0009B01AC01C301B2010E94AE311816B4F4DA
:102FE00020E030E048E552E4C301B2010E94062F20
:102FF00020E030E04EEF52E40E94052F60936A0219
:1030000070936B0280936C0290936D0240906A0201
:1030100050906B0260906C0270906D0220E030E086
:10302000A901C301B2010E94E42F87FF09C01092D9
:103030006A0210926B0210926C0210926D021CC018
:1030400020E030E04EEF52E4C301B2010E94062FAF
:1030500020E030E048EC53E40E94AE31181664F4EE
:1030600080E090E8A8E8B3E480936A0290936B0252
:10307000A0936C02B0936D0240906E0250906F026C
:10308000609070027090710220E030E048ED51E4F1
:10309000C301B2010E94062F9B01AC01C501B4011E
:1030A0000E94E42F87FF07C020E030E048ED51E4A4
:1030B000C501B40122C020E030E04CE752E4C30176
:1030C000B2010E94062F20E030E048ED51E40E945A
:1030D000052F9B01AC01C501B4010E94AE31181649
:1030E000B4F420E030E048ED51E4C501B4010E94A1
:1030F000062F20E030E04CE752E40E94052F609359
:103100006E0270936F0280937002909371028090B0
:103110006E0290906F02A0907002B090710220E059
:1031200030E0A901C501B4010E94E42F87FF09C066
:1031300010926E0210926F02109270021092710241
:103140001CC020E030E04CE752E4C501B4010E940D
:10315000062F20E030E048EC53E40E94AE31181610
:1031600064F480E090E8A8EAB3E480936E02909360
:103170006F02A0937002B09371028091F7068111E3
:1031800040C064EC76E088EE96E00E94A5148823A7
:10319000C1F186EA96E00E94EA28882391F10E9414
:1031A0002A274B015C01C7010E94320FB401990C20
:1031B000880B990B0E94983069837A838B839C8358
:1031C000B501BB0C880B990B0E9498306D837E83F0
:1031D0008F83988780E189878A8786E0EAEFF1E02C
:1031E000DE01599601900D928A95E1F784E48F8B68
:1031F00084E2F701A2E8B6E055C682E08093DE06DD
:1032000035CE8091F706882371F060EA76E088EE8B
:1032100096E00E94A514882331F082E896E00E948F
:10322000EA28811112C680913A0990913B096CE31A
:1032300070E00E94FB32892B39F481E08983B70169
:103240008091F6060E94460E10E008E18091170179
:10325000181708F077C0412F50E0049FB001059F78
:10326000700D1124FB01E95EFE4F2789222389F1AD
:10327000DB01A85EBE4F6D014F5F5F4F049FD00121
:10328000059FB00D1124A95EBE4F6C9170E0809136
:103290003A0990913B090E94FB32892B79F4215025
:1032A000278B2485422F50E0838590E001974817B3
:1032B00059071CF42F5F248701C01486C6010E94A1
:1032C000FC14F60143856AE872E1C6010E94F20E21
:1032D00020C0912F292F30E0029FD001039FB00D15
:1032E0001124A85EBE4F2F5F3F4F029FF001039F46
:1032F000F00D1124E85EFE4F202F01900D922A95CB
:10330000E1F79F5F8913E6CF815080931701111178
:1033100011501F5F9BCFC7010E94C80FA0910E09DB
:10332000A53080F481E08A0F80930E09F8E0AF9F0A
:10333000D0011124A15FB64F88E0F70101900D92F2
:103340008A95E1F780910E09853029F710E00CC0CD
:1033500028E0129FC001112440E064E772E1815F20
:10336000964F0E94F20E1F5F80910E09181780F38E
:1033700010E006E24CE3842E912C32C0C12ED12CF9
:1033800056013FEFA31AB30A0A9DF0010B9DF00D01
:103390001124E556F74F908191112AC0912F292FC2
:1033A00030E0029FD001039FB00D1124A456B74F07
:1033B0002F5F3F4F029FF001039FF00D1124E45651
:1033C000F74F202F01900D922A95E1F79F5F891307
:1033D000E6CF815080939B0811113FC010E01F5F22
:1033E00080919B08181750F2C12C33E3D32E4DC1A6
:1033F0000C9D30010D9D700C1124B3016654774F64
:1034000088EE96E00E94A514882309F450C5C301F4
:103410008456974F0E94EA28882309F448C5912FC3
:1034200080919B089817A8F6292F30E0029FD001C1
:10343000039FB00D1124A456B74F2F5F3F4F029F3B
:10344000F001039FF00D1124E456F74F802F0190F7
:103450000D928A95E1F79F5FE3CF1150C0CF809125
:10346000F60681111BC1312CDC9C80011124F8016E
:10347000E654F84F4F0198012456384F5901809176
:103480009B07381608F41DC18C2C912CD89C800108
:10349000D99C100D112498012456384F5901C901A7
:1034A0000E94FC14C5010E94D214C5010E94321171
:1034B000C5010E947C11C8018556984F1C01DC0192
:1034C0001A968C911A97875025968FAF2597199643
:1034D0001C911997185020916E0230916F02409103
:1034E00070025091710215966D917D918D919C9114
:1034F00018970E94052F20E030E040E850E40E9439
:10350000062F0E9460302B013C0120916A0230910D
:103510006B0240916C0250916D02F10161817281E8
:10352000838194810E94052F20E030E040E850E440
:103530000E94062F0E946030DC01CB0100E025963E
:103540002FAD2597412FB2010E940827D5011B9668
:103550004C9169EA7EE0C5010E94F20EBAEFB98390
:10356000ECEFE8AF80913A0990913B096AE070E096
:103570000E94FB32892B39F4D1019F968C91B1E0E6
:103580008B27F10187A7D89CF001D99CF00D11245D
:10359000E556F84F87A5882339F0A701BE01685C7E
:1035A0007F4FC5010E94660E6091CE067091CF06D6
:1035B0008091D0069091D1060E9467307A8369830A
:1035C0006091CA067091CB068091CC069091CD0691
:1035D0000E94673079AF68AFA701BE01685C7F4F7A
:1035E000C5010E944810D89C8001D99C100D11245F
:1035F0000556184F2091CA063091CB064091CC0653
:103600005091CD06D80111966D917D918D919C912F
:1036100014970E94052F3B014C012091CE0630915A
:10362000CF064091D0065091D106F8016581768190
:10363000878190850E94052F1B012C01A401930115
:10364000C401B3010E9413323B014C01A20191015C
:10365000C201B1010E9413329B01AC01C401B3014C
:103660000E94062F0E948E329B01AC01F1E0F9838B
:1036700060E070E088E493E40E94EE2F0E946730DF
:10368000A701C5010E94B511C39480919B07C8167C
:1036900008F4E5CED12C23E3C22E08C2DC9C8001C5
:1036A0001124B8016654784F88EE96E00E94A51464
:1036B000882309F4D8CEC8018456984F0E94EA287E
:1036C000D2CEC31409F4C4C0D39C30011124B30179
:1036D0006654784FC4010E94A514882309F4B8C029
:1036E000B3016456784FF301E556F84F8789853466
:1036F00009F0ABC0D5019C968C919C97908D981742
:1037000020F4891B9C968C93A0C0F50114A680918F
:103710001701893009F470C098012556384F5901B6
:1037200020E030E040E05FE3D50151966D917D915E
:103730008D919C9154970E94133268AF79AF8AAFF4
:103740009BAFF5016285669570E080E090E00E9495
:103750009830D50115962D913D914D915C9118971A
:103760000E94062F20E030E040E850E40E94052F40
:103770006CAF7DAF8EAF9FAFF5016185669570E050
:1037800080E090E00E949830D50111962D913D91F6
:103790004D915C9114970E94062F20E030E040E8A4
:1037A00050E40E94052F24966CAF7DAF8EAF9FAF83
:1037B000249798012855384F8E01085C1F4FAE01A1
:1037C000445C5F4FBE01605C7F4FC7010E94FC0FED
:1037D000A0911701A93080F481E08A0F809317012E
:1037E000E8E1EA9FD0011124A85EBE4FF70188E10D
:1037F00001900D928A95E1F7F3E0F983B70180918A
:10380000F6060E94460E9C2D80919B079817C8F4DF
:10381000292F30E0D29ED001D39EB00D1124A456A2
:10382000B84F2F5F3F4FD29EF001D39EF00D112471
:10383000E456F84F8D2D01900D928A95E1F79F5F28
:10384000E3CF815080939B071FCEC5010E94FC13DC
:10385000339415CE8091F60681112EC1412CCD9C5A
:10386000800111249801205E384F4901C8018E5F04
:10387000984F5C0180910107481608F430C18D2CE7
:10388000912CC89C8001C99C100D112498012E5FB9
:10389000384F5901C9010E94FC14C5010E94D2147D
:1038A000C5010E943211C5010E947C110E94352E73
:1038B0002AE030E040E050E00E94A22E6330710523
:1038C000810591050CF4B3C1C89CC001C99C900D41
:1038D0001124DC01AF5FB84F2D011A968C911A9715
:1038E00099EF792E780E19961C91199718502091FE
:1038F0006E0230916F0240917002509171021596E4
:103900006D917D918D919C9118970E94052F20E0DB
:1039100030E040E850E40E94062F0E946030289674
:103920006CAF7DAF8EAF9FAF289720916A02309128
:103930006B0240916C0250916D02F20161817281C3
:10394000838194810E94052F20E030E040E850E41C
:103950000E94062F0E946030DC01CB0100E0272D81
:10396000412F26966EAD7FAD26970E940827D50180
:103970001B964C9167EE7AE0C5010E94F20E88EF2B
:1039800089838CEF88AF80913A0990913B096AE076
:1039900070E00E94FB32892B39F4F20187A5F1E037
:1039A0008F27D2019F968C93C89CF001C99CF00D83
:1039B0001124EF5FF84F87A5882339F0A701BE01D6
:1039C000685C7F4FC5010E94660E6091CE067091C3
:1039D000CF068091D0069091D1060E9467307A83FD
:1039E00069836091CA067091CB068091CC06909154
:1039F000CD060E94673079AF68AFA701BE01685C51
:103A00007F4FC5010E944810C89C8001C99C100DC1
:103A100011240F5F184F2091CA063091CB064091B8
:103A2000CC065091CD06F801618172818381948129
:103A30000E94052F3B014C012091CE063091CF060C
:103A40004091D0065091D106D80115966D917D9187
:103A50008D919C9118970E94052F1B012C01A401A8
:103A60009301C401B3010E9413323B014C01A20136
:103A70009101C201B1010E9413329B01AC01C4014A
:103A8000B3010E94062F0E948E329B01AC01B1E06F
:103A9000B98360E070E088E493E40E94EE2F0E9416
:103AA0006730A701C5010E94B511D3948091010729
:103AB000D81608F4CFCEFEC0CD9C80011124B801E9
:103AC000605E784F88EE96E00E94A514882309F482
:103AD000C5CEC8018E5F984F0E94EA28BFCED4148D
:103AE00009F4A3C0C49C30011124B301605E784F77
:103AF000C4010E94A514882309F497C0B3016E5F26
:103B0000784FF301EF5FF84F8789853409F08AC059
:103B1000D5019C968C919C97908D981720F4891BC9
:103B20009C968C937FC0F50114A680911701893073
:103B300009F470C098012F5F384F590120E030E040
:103B400040E05FE3D50151966D917D918D919C91FF
:103B500054970E94133268AF79AF8AAF9BAFF501DB
:103B60006285669570E080E090E00E949830D50113
:103B700015962D913D914D915C9118970E94062FBD
:103B800020E030E040E850E40E94052F6CAF7DAFAC
:103B90008EAF9FAFF5016185669570E080E090E0A3
:103BA0000E949830D50111962D913D914D915C91D7
:103BB00014970E94062F20E030E040E850E40E9475
:103BC000052F24966CAF7DAF8EAF9FAF24979801E1
:103BD000225F384F8E01085C1F4FAE01445C5F4F7F
:103BE000BE01605C7F4FC7010E94FC0FA0911701CE
:103BF000A93080F481E08A0F80931701E8E1EA9F01
:103C0000D0011124A85EBE4FF70188E101900D920A
:103C10008A95E1F7F5E0F983B7018091F6060E94F5
:103C2000460E2DCEC5010E94FC13439423CE8091F5
:103C30009B08833009F448CEC7010E94320F31E05F
:103C40003DA3F801EF5FF84F81819281A381B48198
:103C500089839A83AB83BC8385819681A781B08554
:103C60008D839E83AF83B88787E0898798E09A87A2
:103C700086E0E0E0F2E0DE01599601900D928A952F
:103C8000E1F783E58F8B8EE18EA3A0919B08A33093
:103C900008F01ACE81E08A0F80939B0886E28A9F03
:103CA000D0011124A456B74FF70101900D928A95C7
:103CB000E1F70ACEC0906802D0906902B60180E0B8
:103CC00090E00E9496300E94BB3120E030E040E856
:103CD0005FE30E94062F0E946030062F712C12E0D5
:103CE0005B01BB2485E090E04C018A189B08872D7E
:103CF00090E08815990564F420E04DE65AE062E012
:103D000070E0812F90E00E94950D1B5F7394EFCFC0
:103D1000C5010197982F990F990F890F180FB12C92
:103D20008AE0882E912CB016A0F4C601B4010E943E
:103D3000FB32762EA72E282F4DE65AE062E070E087
:103D4000812F90E00E94950D1550C72CDA2CB3946A
:103D5000EACF8091F60681115CC08091090189311A
:103D600024F48F5F8093090147C080910A018A3F44
:103D700020F48F5F80930A013FC010920A0182ED08
:103D80008093090110926902109268021092040156
:103D900081E08093050110920601109207011092B4
:103DA0009B0714E2F701212F11922A95E9F7C70129
:103DB0000E94320FF701A6EAB6E0812F01900D9222
:103DC0008A95E1F7D701E12F1D92EA95E9F7C7013E
:103DD0000E94320FF701A2E8B6E001900D921A9509
:103DE000E1F7C7010E94540F87E3F701AAECB6E0A0
:103DF00001900D928A95E1F760910901062E000C61
:103E0000770B8091080120E047E659E090E00E949E
:103E1000950D0E94A027C95BDF4F0FB6F894DEBF57
:103E20000FBECDBFDF91CF911F910F91FF90EF900B
:103E3000DF90CF90BF90AF909F908F907F906F90CA
:103E40005F904F903F902F9008950E942A274B013A
:103E50005C01C7010E94320FB401990C880B990BC9
:103E60000E94983069837A838B839C83B501BB0C55
:103E7000880B990B0E9498306D837E838F8398877F
:103E800080E189878A8786E0E6E0F2E0DE015996E4
:103E900001900D928A95E1F783E48F8B84E2F7011C
:103EA000A6EAB6E001900D928A95E1F7BCC980912F
:103EB0003A0990913B09B4010E94FB32892B51F4DD
:103EC0000A9DF0010B9DF00D1124E556F74F8081FE
:103ED000815080830C9DC0010D9D900D1124DC014B
:103EE000A456B74F6D01CD010E94D21440E06BE69D
:103EF00072E1C6010E94F20E72CA20915402211191
:103F000003C08FEF9FEF08955FB7F89422E02093EE
:103F1000E9002091F20030E01216130614F421E0BB
:103F200030E0422FFC0184E6415038F0289880931D
:103F300067029091F1009193F7CF2115310521F09F
:103F40008091F200882319F05FBFC90108958BE6C4
:103F50008093E800F9CF2FB7F89483E08093E900CD
:103F60009091E800892F807295FF04C09091F20033
:103F700080E4891B2FBF089580915F0281110DC0DD
:103F800082E080935B0284E080935C0210925E0288
:103F900010925D0281E080935F028BE592E00895CC
:103FA000CF93DF931F92CDB7DEB76983DC01ED912C
:103FB000FC910280F381E02D41E050E0BE016F5F93
:103FC0007F4F09950F90DF91CF91089583E0809303
:103FD000E9008091F200882319F08AE38093E800D9
:103FE00008950E94AB1F90E00895CF93DF931F9236
:103FF000CDB7DEB7FC018485958597FD05C02FEF11
:104000003FEF358724870BC0CE0101960E947D1FAC
:10401000019719F4898190E002C08FEF9FEF0F9014
:10402000DF91CF9108950F931F93CF93DF931F924A
:10403000CDB7DEB78C01FC018485958597FF0EC056
:10404000CE0101960E947D1F019719F4898190E0AD
:1040500002C08FEF9FEFF80195878487F801848570
:1040600095850F90DF91CF911F910F910895FC01DD
:104070008485958597FD0BC09FB7F89482E0809367
:10408000E9008091F2009FBF90E0019608959FB7EC
:10409000F89482E08093E9008091F2009FBF90E065
:1040A0000895409157025091580220915502309145
:1040B000560242175307B4F49091E8009570E1F36B
:1040C0009091E80092FD19C08093F1008091570211
:1040D0009091580201968F739927892B19F48EEFCE
:1040E0008093E80080915702909158020196909336
:1040F00058028093570281E0089580E00895DF928E
:10410000EF92FF920F931F93CF93DF93D82E8A01E4
:104110007B01E40EF51EEB01CE15DF0571F0D7FE35
:1041200003C0FE01849101C088810E945120219624
:104130008111F2CF8FEF9FEF01C0C801DF91CF91C6
:104140001F910F91FF90EF90DF9008950F931F93B1
:10415000CF93DF931F92CDB7DEB782E0898342E42D
:1041600050E062EB76E180E80E947F200E94BC1F55
:10417000DC0112960D911C9113970115110589F020
:10418000D801ED91FC910280F381E02DBE016F5FBB
:104190007F4FC801099597FD04C0F801008511857E
:1041A000ECCF89810F90DF91CF911F910F910895EE
:1041B000615030F02091F100FC0120830196F8CF8E
:1041C000289884E68093670208951F920F920FB695
:1041D0000F9211248F939F938091E1009091E100C1
:1041E000937F9093E10083FF0FC01092E90091E06C
:1041F0009093EB001092EC0092E39093ED001092FC
:10420000540298E09093F00082FF20C093E09093D6
:10421000E9009091F200992319F09AE39093E80055
:1042200090915A02992339F090915A0291509093AB
:104230005A02992389F190916702992339F090915C
:104240006702915090936702992341F184FF10C057
:104250008091E2008E7E81608093E2008091E10097
:104260008F7E8093E100809153028E7E806111C029
:1042700080FF16C08091E2008E7E80618093E20014
:104280008091E1008E7E8093E100809153028E7ECA
:1042900081608093530204C05D9ACDCF289AD6CF17
:1042A0009F918F910F900FBE0F901F9018951F92A6
:1042B0000F920FB60F921124CF92DF92EF92FF92DE
:1042C0000F931F932F933F934F935F936F937F931E
:1042D0008F939F93AF93BF93EF93FF93CF93DF930E
:1042E000CDB7DEB76C97DEBFCDBF1092E9008091ED
:1042F000E80083FFFBC168E0CE0145960E94D8200C
:1043000082EF8093E8008D8987FF05C09091E800D7
:1043100090FFFCCF03C09EEF9093E800982F90761B
:1043200009F0C6C09E894F89588D2F89F88C91114C
:104330000CC0803829F4809152028093F10002C0B1
:104340001092F1001092F10045C1913051F48111A9
:1043500041C14130510509F03DC1809152028D7F2C
:104360000BC0933061F4811135C14130510509F022
:1043700031C1809152028260809352022BC19530EC
:1043800049F48091E80080FFFCCF822F8068809301
:10439000E30020C1963009F05EC00B8D1C8D22E039
:1043A0001092E9001092580210925702F21232C095
:1043B00010925602109255020E94A62099E0BE016A
:1043C0006F5F7F4FDB01E92F1D92EA95E9F7998333
:1043D000FA8291E09E8390EA98879AEF99872091DC
:1043E000570230915802275F3F4F3C832B838D83C8
:1043F0001092E90010925802109257021093560240
:104400000093550249E050E080E00E947F200E9426
:10441000A620E0C010935602009355020E94BC1FD4
:10442000DC0112960D911C9113970115110509F4E9
:10443000BBC0D801ED91FC910480F581E02DBE0157
:104440006B5E7F4FC8010995009709F0C7C0F8015E
:1044500000851185EACF973009F445C1983021F4E1
:1044600081E08093F100B6C0993009F0B3C0837049
:1044700009F039C1EDE0F2E081E031E096E320811E
:10448000211109C08EE78093EA001092EA008F891B
:10449000809354029FC08093E9003093EB002191F8
:1044A0002093EC009093ED008F5F873041F7EACFC7
:1044B0008B8D9C8D1092E900109258021092570239
:1044C0009093560280935502898D811153C08E8935
:1044D0009D89913A49F4813209F005C147E050E0E5
:1044E0006FE071E080E0BBC0913209F0FCC0833224
:1044F00069F48F89988DA0E0B0E080930B019093D0
:104500000C01A0930D01B0930E0164C0803269F4D8
:104510008091E80082FFFCCF67E08FE091E00E948D
:10452000D8208BEF8093E80055C0823209F052C04A
:104530008F8980931601EEEFFFE7859194918B3F71
:104540009C4D19F0E0E0F8E002C0EEEFFAE0809157
:104550000F0190911001A0911101B0911201803BC7
:104560009440A105B10509F09EC08091160180FF1D
:1045700079C099C00E94BC1FFC0102811381011502
:10458000110509F4B0C0D801ED91FC910190F081C2
:10459000E02DBE016B5E7F4FC801099581111AC0E5
:1045A000F80100851185EBCFF1E0FF1609F44EC04C
:1045B000F3E0FF1298C08F89882309F44AC0823043
:1045C00089F440E860E186E197E10E944D2C882360
:1045D00009F489C08EEF8093E80088C01816190688
:1045E000CCF381C0813029F440E86BE08AE097E1A8
:1045F000ECCF833009F077C00E94BC1FDC0112961B
:10460000ED90FC9013978E010F5F1F4F6801E1142E
:10461000F10479F0D701ED91FC910680F781E02D4E
:10462000B801C7010995080F111DF701E084F18455
:10463000EECFD8011C92F60101900020E9F73197E6
:10464000BF016C197D0940E0C601BFCF68EF76E17C
:1046500002C064EF76E1FB01449150E080E80E94E3
:104660007F20B8CFEE3F2AE0F20751F080819181A0
:104670008737A7E79A0721F09093FF0A8093FE0AF5
:1046800087E797E791838083809160008093590248
:104690009BE088E10FB6F894A895809360000FBE68
:1046A0009093600097CF808191818737974709F079
:1046B00091CFA8958091600088618093600080917F
:1046C000590280936000EE3FBAE0FB0739F0809119
:1046D000FE0A9091FF0A918380837CCF1092FF0A9B
:1046E0001092FE0A77CF81E28093EB006C960FB6B2
:1046F000F894DEBF0FBECDBFDF91CF91FF91EF9158
:10470000BF91AF919F918F917F916F915F914F91E9
:104710003F912F911F910F91FF90EF90DF90CF90DD
:104720000F900FBE0F901F9018958F929F92AF928F
:10473000BF92CF92DF92EF92FF926B017C010E94B9
:10474000C60C4B015C01C114D104E104F104F1F089
:104750000E94C60CDC01CB0188199909AA09BB0982
:10476000883E9340A105B10570F321E0C21AD1083B
:10477000E108F10888EE880E83E0981EA11CB11CA8
:10478000C114D104E104F10419F7DDCFFF90EF90DB
:10479000DF90CF90BF90AF909F908F9008958F92B1
:1047A0009F92AF92BF92CF92DF92EF92FF920F93C0
:1047B0001F93CF93DF936C017B018A0180911601D7
:1047C000882309F45CC080915402882309F457C0FF
:1047D0008091530280FF05C08091E0008260809349
:1047E000E000E801B12C8AEFA82E93E0892E2AE39D
:1047F000922E209711F4BB20D9F10E94AB1F81119A
:104800000AC0AA94AA20D9F161E070E080E090E0AB
:104810000E949523EECF282F30E0C217D3070CF467
:104820008C2F9FB7F8948092E9002091E80025FF33
:104830001DC0282F30E0C21BD30BF701815020F0A0
:1048400041914093F100FACFE20EF31EBB2019F024
:104850009092E8000AC08091E80085FD07C0909220
:10486000E800BB24B394209709F0B12C9FBFC1CFBF
:104870005D9884E680935A021016110644F081E098
:1048800090E0F6019383828380E090E001C0C8014C
:10489000DF91CF911F910F91FF90EF90DF90CF901C
:1048A000BF90AF909F908F9008954F925F926F92BC
:1048B0007F928F929F92AF92BF92CF92DF92EF92B0
:1048C000FF920E94352E6B017C010E94352E2B0138
:1048D0003C0180E7882E99249394A12CB12CC70128
:1048E000B601A50194010E94A22E605F7F4F6B016B
:1048F000C301B201A50194010E94A22E7B0120E117
:10490000E20EF11CC701B601FF90EF90DF90CF904F
:10491000BF90AF909F908F907F906F905F904F90DF
:1049200008954F925F926F927F928F929F92AF9273
:10493000BF92CF92DF92EF92FF920F931F93CF938C
:10494000DF9300D000D0CDB7DEB7DC016A0141159E
:10495000510509F4E8C1FA01849131965491F2E0CD
:10496000CF0ED11CE82EF12C2223F9F0E1E0F0E08B
:10497000952F977011F4E0E0F0E0952F96959695BD
:104980009695E90FF11DEE9D5001EF9DB00CFE9D37
:10499000B00C1124033011F4AA0CBB1C2A9DF001A9
:1049A0002B9DF00D1124CE0EDF1E0F3F09F402E007
:1049B000FD01EE0DFF1D1E161F060CF0B4C1A03840
:1049C000B1050CF0B0C19B01250F311D1216130665
:1049D0000CF0A9C1603471050CF0A5C1C114D1045B
:1049E00009F4A1C1362F37705B0177FF03C097E050
:1049F000A90EB11C93E0B594A7949A95E1F72A2DDE
:104A000077FF04C0332311F02FEF2A0DB7FF05C045
:104A1000882499248A1A9B0A02C0812C912CE038A0
:104A2000F1051CF090E89A1B01C0982F9819622F8D
:104A3000022E000C770B2F3F1CF4462F409501C02F
:104A400040E0F1E0152F177009F4F0E05695569507
:104A50005695F50F6F0F711D6930710514F0F8E070
:104A6000F21BF41B240F50E82503A00DB11D1124E7
:104A7000A80DB91D849F800C911C1124A601480D1E
:104A8000591D61E070E06B01032E02C0CC0CDD1CEF
:104A90000A94E2F7033009F402C1C0F4013009F4CA
:104AA000B6C0023009F03FC18FEF8C9D80018D9D13
:104AB000100D1124009510951C830B839C80BD0163
:104AC0006E587D4F2B018F2E820E2AC00A3FD9F1DE
:104AD0000B3F09F028C1BD016E587D4F4B01BF2E21
:104AE000B20E83C084918C9D50018D9DB00C112419
:104AF000BA82A98227FD05C0DB018C918023A82AF8
:104B0000AC92311113C031966F5F7F4F8E2F841B93
:104B1000891740F32F5F4E0D5F1DB0E84B0E511CFF
:104B2000281509F400C1B201FA01F0CF27305CF773
:104B30005B01B0E8AB0EB11CD5018C9189217A8064
:104B400087298C93E0CFBD016E587D4F4B01BF2E5E
:104B5000B20E2B1509F4E7C0B401FA018E2F841BA5
:104B60008917F0F484918C9D80018D9D100D112486
:104B70001A83098327FD04C0DB018C91082B0C9359
:104B8000332351F0273044F48B0100581F4FD801D4
:104B9000AC908A818A298C9331966F5F7F4FDECFEC
:104BA0002F5F4E0D5F1DB0E88B0E911CD2CF84910C
:104BB0008C9DB0018D9D700D11247A83698327FD32
:104BC00005C06095D8018C9168236C93311113C096
:104BD00031960F5F1F4F8E2F841B891740F32F5F75
:104BE0004E0D5F1DB0E88B0E911C2B1509F49BC078
:104BF0008401FA01F0CF27305CF7B80160587F4F8D
:104C00008A818095DB01AC908A218C93E1CFAE58EC
:104C1000BD4F8F2F820F841A950A281709F483C07D
:104C20008D01A12CB12CA916A0F5F501E80DF91DF7
:104C3000E40FF51FE491EC9DB001ED9D700D112482
:104C4000609570957C836B83FA01EA0DFB1DE491FE
:104C5000EC9D3001ED9D700C11247A82698227FD54
:104C600005C0F80170816723662A6082332359F0FA
:104C700027304CF4F801E058FF4F70816C816723B6
:104C80007A81672B6083FFEFAF1ABF0A0F5F1F4F58
:104C9000CACF2F5F4E0D5F1DA058BF4FBECF092F4B
:104CA00010E0840E951EAE58BD4F60E870E0601BAA
:104CB000710BE01AF10AA701440F551F192F0F2F8E
:104CC000792EF401E32ECF93DF93ED01EF96EF966B
:104CD00022968590A590EE2059F08C9C4001AC9CCA
:104CE000500127302CF4F880B094FB20F928F99279
:104CF00022233AF0FC90A094FA20F828FD920C941C
:104D0000822611961A9529F70A9551F0172D2395A9
:104D10001124E40FF11DA60FB11DC60FD11DD9CF6F
:104D2000DF91CF9111240F900F900F900F90DF9192
:104D3000CF911F910F91FF90EF90DF90CF90BF9098
:104D4000AF909F908F907F906F905F904F9008955D
:104D5000DF92EF92FF920F931F93CF93DF937C012B
:104D6000D22E8B01040F111DEB0177FF02C0C0E0B2
:104D7000D0E0C8010134110514F080E490E0C817B8
:104D8000D9074CF42D2DAE01B70187E399E00E94BD
:104D9000280E2196EECFDF91CF911F910F91FF90BA
:104DA000EF90DF900895DF92EF92FF920F931F93A1
:104DB000CF93DF93EC017B01D42E122F6034710569
:104DC00020F4202FCE010E94A30DB701610F711DA9
:104DD000615071096034710528F4202F4D2DCE01EA
:104DE0000E94A30D202F412FB701CE010E94A826BB
:104DF000CE018D0D911D202F412FB7010197DF911D
:104E0000CF911F910F91FF90EF90DF900C94A82607
:104E1000CF92DF92EF92FF920F931F93CF93DF9386
:104E20007B01122FEC016C01C40ED11CCC15DD05E9
:104E300044F4202F412FB701CE010E94A8262196CD
:104E4000F5CFDF91CF911F910F91FF90EF90DF9001
:104E5000CF9008958F929F92AF92BF92CF92DF92A0
:104E6000EF92FF920F931F93CF93DF930E945524ED
:104E7000EB018C01072E000C880B990B0E949830D7
:104E80006B017C0180906A0290906B02A0906C0292
:104E9000B0906D0220E030E0A9010E94062FA5012C
:104EA00094010E94AE311816E4F520E030E04EEF98
:104EB00052E4C501B4010E94062F9B01AC01C70159
:104EC000B6010E94E42F87FF2CC0B801012E000C10
:104ED000880B990B0E9498306B017C0180906E02C8
:104EE00090906F02A0907002B090710220E030E0CC
:104EF000A9010E94062FA50194010E94AE31181647
:104F000084F420E030E04CE752E4C501B4010E9493
:104F1000062F9B01AC01C701B6010E94E42F87FD5B
:104F2000A5CFBE01C801DF91CF911F910F91FF90D6
:104F3000EF90DF90CF90BF90AF909F908F900895AB
:104F4000E2E7F2E081E0A0E0B8E000800EBC811171
:104F5000012C1197A0FDFDCF0192B9F70DB4089572
:104F60002F923F924F925F926F927F928F929F9279
:104F7000AF92BF92CF92DF92EF92FF920F931F9367
:104F8000CF93DF93CDB7DEB72B970FB6F894DEBF84
:104F90000FBECDBF5C017B015A8349831C821B82FB
:104FA0001D821E8268E070E0CE0101960E94E30D32
:104FB00001969987888768E070E0CE0101960E948B
:104FC000E30D8C0161E070E0CE0101960E94E30DDB
:104FD000288539852A0D3B1D37FDD2C020E8A21651
:104FE000B1040CF0CDC098012F5F3F4FA9014E0DC9
:104FF0005F1D57FDC5C060E4E616F1040CF0C0C0AB
:105000008701F7FE04C0002711270E191F0907703A
:105010001127A701F7FE02C0495F5F4F1A0153E055
:10502000359427945A95E1F7F7FE09C071E0271AE5
:10503000310848E050E0BA01601B710B8B01390167
:1050400037FF03C077E0670E711C43E075946794E7
:105050004A95E1F727703327232B19F09FEF691A40
:10506000790A8F8344244394512CE12CF12CC12CD8
:10507000D12C88E090E09C01201B310B3B872A87D4
:10508000C614D7040CF07CC088248394912C61E072
:1050900070E0CE0101960E94E30D892B21F432E0ED
:1050A000830E911CF4CFB401CE0101960E94E30D52
:1050B000DC01119640E050E06F814A175B0708F071
:1050C00057C061115428440C09F04FC091012C0DB8
:1050D0003D1DC90101960997A0F5C5018E0D9F1DC3
:1050E0008038910570F5B9017695762F662777950A
:1050F00067956A0D7B1D6E0D7F1D2F3F8FEF380763
:10510000D9F1FB01EE58FD4F852D002E01C0880F0F
:105110000A94EAF79081892B80830115110589F0A3
:105120002730310571F0FB01EE50FD4F852D90E0E9
:105130000A8402C0959587950A94E2F750808529E4
:1051400080839FEFE91AF90A28853985E216F3066C
:105150004CF03FEFC31AD30A44244394512CE12C62
:10516000F12C03C044244394512C4F5F5F4FA4CFD4
:1051700071E067276F8384CF01151105A1F6E1CF98
:105180002B960FB6F894DEBF0FBECDBFDF91CF9147
:105190001F910F91FF90EF90DF90CF90BF90AF9055
:1051A0009F908F907F906F905F904F903F902F9047
:1051B000089520913D09282329F490913C099823D2
:1051C00081E009F480E0089565E070E080E090E01F
:1051D0000C9495230F931F93CF93DF93CDB7DEB736
:1051E000A4970FB6F894DEBF0FBECDBFFC01968921
:1051F000953409F07FC09789292F30E030936902F8
:10520000209368028091F606981720F4891B8093FA
:10521000F6066EC01092F6061092DA061092DB06C1
:105220001092DC061092DD0680911701893009F496
:105230005FC0198E1A8E1B8E1C8E6091D3066695E8
:1052400070E080E090E00E9498302091CE0630918E
:10525000CF064091D0065091D1060E94062F20E043
:1052600030E040E850E40E94052F6D8F7E8F8F8FD5
:1052700098A36091D206669570E080E090E00E946D
:1052800098302091CA063091CB064091CC065091BF
:10529000CD060E94062F20E030E040E850E40E9456
:1052A000052F69A37AA38BA39CA38E01075E1F4FD2
:1052B00026ED36E0AE01435E5F4FBE016F5D7F4F6E
:1052C000CE0101960E94FC0FA0911701A93080F435
:1052D00081E08A0F8093170188E18A9FD001112411
:1052E000A85EBE4FFE01319601900D928A95E1F7BE
:1052F00080E020C0933429F481E08093F70685E0B4
:1053000005C0943469F41092F7068FE08983BE01DA
:105310006F5F7F4F8091F6060E94460E81E00AC0C3
:10532000933531F78091F8068D5F8093F80681E020
:105330008093DE06A4960FB6F894DEBF0FBECDBFF5
:10534000DF91CF911F910F910895789484B5826079
:1053500084BD84B5816084BD85B5826085BD85B519
:10536000816085BD80916E00816080936E00109297
:105370008100809181008260809381008091810012
:1053800081608093810080918000816080938000A3
:105390008091910082608093910080919100816062
:1053A0008093910080919000816080939000809123
:1053B000C10084608093C1008091C10082608093AD
:1053C000C1008091C10081608093C1008091C300C1
:1053D00081608093C3008091C00082608093C00090
:1053E0008091C20081608093C20080917A008460C5
:1053F00080937A0080917A00826080937A00809115
:105400007A00816080937A0080917A00806880932E
:105410007A0010925402109252021092530280911C
:10542000D70081608093D70080EA8093D80089B547
:10543000806189BD89B5826089BD09B400FEFDCF58
:1054400061E070E080E090E00E9495238091D800B8
:105450008F7C80618093D8008091E000807F809372
:10546000E0008091E1008E7E8093E1008DE08093EA
:10547000E200559A209A81EC80937C0085B1806F80
:1054800085B984B1877E84B984B1876E84B95E9A08
:105490005F988AB1806D8AB9769A6E9881B3806F71
:1054A00081BB899880B38D7080BB80E58CBD81E025
:1054B0008DBD0E94E4285F9A0E94E4285E985C9863
:1054C000EAE5F1E084918EBD00000DB407FEFDCF4A
:1054D000319681E0E736F807A9F75C9A81E8809376
:1054E0006400809165008160809365000E949B0D3F
:1054F000803839F42E988091640080628093640033
:10550000FFCF82E090E00E948C2E882319F00E9449
:10551000B90C02C00E94B40CF6E92F2E312C412C9C
:10552000A0E85A2EB2E7EB2EB6E0FB2EC6E16C2EB9
:10553000C4E07C2ED2E3CD2ED12C1DE2A12E18E0AA
:10554000B12E04E6802E912C11E08FB7F894409193
:105550004A0250914B0260914C0270914D028FBFF4
:1055600080913F09942F981B892F9091400999238E
:1055700029F080934109109240091EC190913E0983
:10558000891740F48F5F891708F016C113BF8895FB
:1055900013BE12C11093400940933F0980913A090C
:1055A00090913B09019690933B0980933A09809131
:1055B0003C0980933D090E949B0D80933C0980919A
:1055C000000181110FC00E949B0D86FD0BC0FCC025
:1055D00080913A0990913B09B1010E94FB32892BDD
:1055E00009F003C110930001809104018111E2C010
:1055F00080910601811117C080E20E94D92888237A
:1056000031F080910501882371F081500AC080E457
:105610000E94D928882339F080910501833018F43D
:105620008F5F8093050184E00E94D928882309F4C4
:105630004FC080910501813069F58093040180910C
:1056400064008E7F8093640080917A0080648093F0
:105650007A0080917A0086FDFCCFC0917800D091CD
:1056600079000E94C60C9E0140E050E0A90133275A
:105670002227620F731F841F951F61157105810515
:10568000910511F00E94832E8091640081608093C7
:10569000640090C08330B9F480914802882319F0E7
:1056A0000E94B40C02C00E94B90CC091480282E072
:1056B00090E00E948C2EC81789F06C2F82E090E059
:1056C0000E94942E0BC0809307011093060106C020
:1056D00088E00E94D928811110920601809106016C
:1056E000811152C046E156E060E070E080E090E059
:1056F0000E94B027C091050189E1C89FC02D1124E7
:10570000C15FD0E001E02AE047E167E370E0CE014D
:105710000E94082700E02BE049E166E370E0CE013B
:1057200001970E94D32620E04AEE55E068E370E03E
:1057300080E190E00E94950D20E04EEB55E068E39B
:1057400070E089E290E00E94950D20E042E955E08A
:1057500068E370E082E490E00E94950D20E044E769
:1057600055E068E370E08BE590E00E94950D209194
:1057700048024AE555E068E370E08AE690E00E945E
:10578000950D0E94A02718C080910701811109C0C2
:1057900047ED53E060E070E080E290E00E94B027C7
:1057A000F0CF823071F74BED52E060E070E080E0C6
:1057B00090E0F4CF0E94C21580E090E0892B09F4BC
:1057C000C4CE0E940000C0CE6091030165300CF091
:1057D000FFCE6F5F60930301062E000C770B809164
:1057E000020142EE51E090E0D9CF80910101811198
:1057F00027C0809171008D7F8093710010924702C5
:10580000F0924602E0924502F0924402E092430296
:105810007092730660927206D0927506C0927406FA
:10582000B0927706A09276069092790680927806DA
:1058300050927B0640927A060E94060C109301015A
:1058400060910301062E000C770B8091020142EE5D
:1058500051E090E00E94B02760910301062E000CF9
:10586000770B675E7F4F8091020190E002E020E0BD
:1058700049ED51E080960E94912400E025E040E847
:105880006FE270E08EE190E00E94082747E651E069
:105890006EE270E08EE190E081CFDF92EF92FF92B6
:1058A0000F931F93CF93DF93D82EF92EE42E062F5C
:1058B00010E0C8010196880F0E94512083E00E94E9
:1058C0005120CD2DDF2D0C0F1D1FC017D10789F0E2
:1058D000E7FE03C0FE01849101C088810E9451202F
:1058E000F82E80E00E9451208F2121968111EDCF6A
:1058F00001C081E0DF91CF911F910F91FF90EF9058
:10590000DF9008953F924F925F926F927F928F92B5
:105910009F92AF92BF92CF92DF92EF92FF920F933E
:105920001F93CF93DF93109245091092440988EE9C
:1059300093E0A0E0B0E08093460990934709A093DC
:105940004809B093490983E292E090934309809318
:1059500042098FEF9FEF90934F0980934E0985E3A3
:1059600092E0909338098093370910923C09109285
:105970003D0980E180933E0910923B0910923A095B
:10598000109240098FEB9BE09093810680938006F4
:1059900080E090E890937F0680937E0646983E9A3A
:1059A00047983F9A10920E098FE099E00E94C80F25
:1059B00087E199E00E94C80F8FE199E00E94C80F2B
:1059C00087E299E00E94C80F8FE299E00E94C80F19
:1059D00010929B088CE998E00E94320FC1E0C093BE
:1059E000C0081092C10882EC98E00E94320FC09368
:1059F000E6081092E70888EE98E00E94320FC09304
:105A00000C0910920D0910929B07CCE9D7E00BE925
:105A100018E033E3432E542C33EB632E3EE3732E16
:105A20004AE0842E47ED942E43EAA42E4CE3B42E94
:105A300055E0352E6DECC62E6CECD62E6CE4E62EC1
:105A40006DE3F62ECE010E94320F4CA25DA26EA233
:105A50007FA288A699A6AAA6BBA63CA61DA61EA69E
:105A6000CFA6D8AAE9AAFAAAE3960C171D0751F700
:105A700010920107C2E0D7E083E3482E542C83EB59
:105A8000682E8EE3782E9AE0892E97ED992E93EA70
:105A9000A92E9CE3B92E15E02DECC22E2CECD22EB3
:105AA0002CE4E22E2DE3F22ECE010E94320F4CA206
:105AB0005DA26EA27FA288A699A6AAA6BBA61CA7D5
:105AC0001DA61EA6CFA6D8AAE9AAFAAAE39687E041
:105AD000CB39D80749F78AEC96E00E94540F0E9410
