:100000000C9495080C94BD080C94BD080C94BD0884
:100010000C94BD080C94BD080C94BD080C94BD084C
:100020000C94BD080C94BD080C94E1110C9453126F
:100030000C94BD080C94BD080C94BD080C94BD082C
:100040000C94BD080C94BD080C94BD080C94BD081C
:100050000C94BD080C94BD080C94BD080C94AF0919
:100060000C94BD080C94BD080C94BD080C94BD08FC
:100070000C94BD080C94BD080C94BD080C94BD08EC
:100080000C94A70A0C94BD080C94BD080C94BD08F0
:100090000C94BD080C94BD080C94BD080C94BD08CC
:1000A0000C94BD080C94BD080C94BD08084AD73BBD
:1000B0003BCE016E84BCBFFDC12F3D6C74319ABD37
:1000C00056833DDA3D00C77F11BED9E4BB4C3E915B
:1000D0006BAAAABE000000803F05A84CCDB2D44E4A
:1000E000B93836A9020C50B9918688083CA6AAAA4C
:1000F0002ABE000000803F00D5F08D14A1C881CF3A
:10010000D9F1AF2000420F28E5F6ED56D9D9E4F633
:10011000EDD62AC964B7CA49A79CB25B26BBFDFFCE
:10012000DF2A47E59CB44AAAA5726472FB76ABEC61
:100130006C72FB766B9564B2DBFFFFAD725476FB9D
:10014000AD6EB51D475B65B74B2567DB2ABB5D2AE6
:10015000399B928A5C4945A6A4429E928A7CABEC6C
:1001600076A9E46C5B65B74B25675352912AA9C801
:10017000945476BBDD4E0A07080C06030303060001
:100180003F2FB0BD54CE29B9DDA6D387D3743A9D95
:100190004EA7D3E9743A1D515649A97C3ABDDD2AD0
:1001A000E99C543A08CA291DFED2DB6DDBE576BB1B
:1001B000DDA6D3E9743A9D4EA7D3E9F476BB555238
:1001C00049E7A4B2EB5857B84DA7D3E97476BBDD25
:1001D0002E9593312965955452492595DCC69E5D2F
:1001E0002AA99C73CE39E79C734E4EB7545239E717
:1001F0009C73CE392795BA774EDDAA57AD5EFD7652
:100200001D593ADBB94EF5B75332AB64ED6EF5AF1D
:100210007AF5B9CE756EBBDDAED369E75098AE9D69
:1002200092DB743AA6A55376BB554EAEB6CE49A521
:1002300023DB2E9D73CED5BB7F1B3D1FFCB47556B3
:10024000E9F57A1DD4A4EC3ABA74E73A954AD5AEEA
:100250005665D5A594BB56CAB961B7F476BD5D6F36
:10026000D7DBED76BDDD6EB7DBED72BBDD6E97DB08
:10027000ED72BBDCA6B74A8E5D7F3F80BC48492546
:100280002B5991A59554323A2595AC64744A2A5954
:10029000C9E89454323F0C2C9554A954292AA9A496
:1002A000AAA4A452A554A952AA14F4B84CA7D3E9FD
:1002B000742A954AF5AA57E97C2D15EB769D8E6D2B
:1002C000BB4E562EDBAB5E752E954AA7D3E9743A2A
:1002D0003FBEA592AA2AE7A8A492AA9617955452BF
:1002E00055525249259D723795545255A552112E9B
:1002F000B3D974369D4EA7D3E9743E9DCFE78707E7
:100300003D5DB4D1A5A34B47D6D9B218B3659311BF
:10031000A6A34B47175D3AEFE122A7529D4D67D345
:10032000E9743A9D4EE7D3F97C2AE7F89DEC7CB25C
:10033000D3C9CE75AE739DEB5CE73AD7D95C6753F2
:100340009D7270E13E9D4EA7D3E9743A9DCE6643FF
:100350006B3E9F4EA7D3E9743A9D4E27878DF6F9E1
:1003600064A7939DEB5CE73AD7B9CE75AEB3B9CE2F
:100370006693037B123F3FD1974EA7D3E9743A9D12
:100380004EA7D3E968D3E9743A9D4E479B0E8DE999
:10039000743A9D4EA7D3E9743A9D0EDF843ADD7618
:1003A000BBDD6EB73ACDC7974EF7AA5739E728DBC2
:1003B000D5EE5DEDDED52E429DE623D4E9B6DBED2C
:1003C00076BBD5693E7CCBEDA94FFDAF7AD5FFFF5B
:1003D000FF9FDAAEE4F6289D73BFEADDAB5E29A984
:1003E00064DBA5DC5EFF7F727B6D977C727B6ABBF2
:1003F000EA55AF7AD5AB5EF576BB92DBC377BBDA55
:10040000D5AE76BFEABD92AA5DEDAC92EEFF4F3954
:10041000E77697FBFFBF76B58BAF573D653AEF9C0C
:1004200053727B6ABB6ABBEC55AFB25BBB7DBB7DD5
:10043000BB6CBB44B84EE79C53B9CBBD4E2BE75CBD
:10044000ED6A57FF7FBDEAAD73CE7DEA53CEB97436
:10045000BA5EF52A77B9CB39E7EC36E59CAB5DEDB2
:10046000FEFFDF2EDBD52EA9A4924A2AF5A9FF555F
:100470008FF2B64BB5DD7EEAFFFF539FFAD476D5F7
:1004800076ABD3CA3957769BDCEEB6BB57BDCA39BB
:10049000A772CE792539EDF6FF7FBBE5DCEE9554EA
:1004A000CA3997FAD4876F3E9DB6DBED76BB3D9D8A
:1004B00026E453DB55CE3995DDBE5DF6AAA76CBBAD
:1004C000944AAAECF6FFDF4925DB6E5FF54A6D57CB
:1004D000727B3A1D1FBED3E9743A9D4EA7D3E974CF
:1004E0003A1D6D3ADA743A9D4EA7D3A1299D4E4725
:1004F0009B8E361D9AD2A10F0608007F3E7F0C7F8F
:10050000187F3E7F007F001F0E7F3E7F387F0E7F6B
:10051000001F0E08007F3E7F3E7F0A7F021F007F84
:10052000367F3E7F087F367F007F007F367F007FEB
:100530001508007F3E7F3E7F187F3E7F007F3E7F15
:100540003E7F2A7F227F007F3E7F3E7F207F20707C
:10055000007F3E7F3E7F127F1E3F003F1508007FD9
:100560003E7F3E7F127F1E3F007F3E7F3E7F207F8B
:100570002070007F3E7F3E7F127F3E7F007F0E7F98
:100580003E7F387F0E7F001F15080077227F3E7F59
:100590003E7F227F007F3E7F0C7F187F3E7F007F63
:1005A0003E7F3E7F0A7F021F007F3E7F3E7F227F8D
:1005B0003E7F007F7F3FA040B9DD6EDF6E9D5464BB
:1005C0003595DD6EB7FFFF5BE5B8AAA292DBEDF6CD
:1005D000FF7FAB2453D5F6FFB776BBDDBE3D252BA1
:1005E000551593DD6EB7FFFF6F4FC94A5545E5942A
:1005F000DD6EFFFFFF5F057D67B395AC5CED6A576D
:10060000BBDAD5AEE4EDB6B5FB4FBD92D995E3921A
:100610003A9DAE9D52AE942B75EA6A59EACA96ABE2
:10062000E4E52A79B6B2E52A79B6D45557E5AA6C3D
:10063000C9CB55F27255B6E4B6B225CF75AE73B5D7
:100640002B77B9CB5DD775EE7439F5A94F7DEA9557
:100650004C6F6BA596D9DAD5AE76B5AB5D2D2B591F
:10066000D97CF0AAF23955BBDA55A53AD7B94A5622
:10067000369BCE29972EB5BB76B5AB64BA76B5ABB3
:100680005DED52A9D4E79CAA7255D5555D95ABAAEC
:10069000ABEA4A5D5557EA525D5597EAAABA54A7A4
:1006A000EA529DAA4B75555DAAABEA525DA9ABEA29
:1006B0004A5D5557D5557555E5AA9493B54BA7D3C3
:1006C000A954EA53D239BB4EA73EA7B8944FE7B31B
:1006D00095AC64E73A5795AA5D9DCA2938319BAD20
:1006E0005CAD4AA95A95BBD4659395DCEE2A77B9DF
:1006F0004BA9DAD54E49E594734AD5EA5ED54EC981
:100700006D3A9D54F3CBAEEAAA5CB65297BA9453B5
:10071000AE96DFEA579D2BA59CECC82A99AEB83A55
:10072000E55C29D5A9FFBB96CA9572A5AE525DD9E5
:10073000CA56ADDA29F8289D4E6FB795ACE4252F3F
:10074000A5CAA9DA9572B5AC6C3E58EBDDBB475231
:100750007279B94ABA6E75B9CB5DEE7297BBDCE5BA
:100760002EFDA952D55D55AAAE7B7575777575B707
:10077000DEA6B7955452B9F2AD145EF3E97436F4BF
:10078000EEA85C2D2BA9647A9BDE56AE7697ABE47F
:10079000B67255A95B55A59CDBA6D3E9743A9D4E6C
:1007A0006F6B77B9CA2A1DEFDEBDF3C34F7BF7CE5F
:1007B000CFBBBC54EF6E25F525F3E974252B59C941
:1007C000CA756AA5CAD5A9AAAE4EF5F7F7EA729D11
:1007D0003BBBCEAE9DAA5257D5555D555D555DD5F7
:1007E000557555D55557555DA5AEBA2A75D5AA5C30
:1007F00055EA5655A95B9552B72A75D59FBADCA71D
:100800003A5795ABCA55AEAAAB72555D555D95ABDF
:10081000BCCBAEB3EBEC3A5BD9CA55E56A559592C1
:10082000769D4FA7D3E97436BB72B25297AB9593BE
:10083000B1BF7BF7B056DEA9DCC9FDD6D9CA55A534
:100840006E5555AE53555DDD57A9DB294AAA53A90C
:100850005455577757AE5355B94E55E55A55A56E71
:100860005595BA955D87CE743A5DB9CBDDAB5B5DCE
:100870004E49E79C934A2ABBDDAED3616BA96E5506
:1008800095BA5555EA5655A95B55E56A7749252B22
:100890003B96B2CA5DEA5655A95B55E56A55CB65EC
:1008A000369D7CF74E05CDA5F3E96C252B59C94A39
:1008B000D62E95CA75AE739DEB5CE73AD7B9CE7567
:1008C000AE739D4AD5AE9295AC64252B79B9CB5DBC
:1008D000EED2913BA583A69258CA5DEE7297AB64A7
:1008E000252B59C94AD62E95CA75AE739DEB5CE788
:1008F0003AD7B9CE75AE739D4AD5AE9295AC6465C4
:10090000D3D974D01014100000E020A038082C04B3
:100910000400288818202020E0000000001F10306C
:10092000207B6B3717173120686820101F000000EC
:1009300000E060B01848208404040848302020609B
:10094000C0800000030F301030605B4A361717106C
:10095000202C20100A0F000080C0407018C8A4048A
:10096000842C081890302060C000000007091B3656
:100970002121405B4A261713102C34100D0700006C
:100980000080807010D0848404840808D83020202F
:10099000E0000000001F10162C2C2041465A671B57
:1009A0001010161807000000000080E030C4848496
:1009B00084040808183020E000000000001C1F30EC
:1009C0002C2C2C6C41424A731010180F00000000B0
:1009D00000000000F018848484840C0C0838E000C7
:1009E000000000000000003F202C2C6C4C4D4043C8
:1009F00078080F000000000000000000C06C0484B4
:100A0000848484047CC0000000000000000000001A
:100A10007F404C4C4C444C4C407F00000000000098
:100A2000000000E038080C0C8484848418F0000076
:100A3000000000000000000F087843404C446C2C7C
:100A400028203F00000000000000E02030180808C7
:100A500004848484CC38E0800000000000000F187B
:100A60001010734A40406C2C282C301F1C000000D2
:100A700000E0202030D0000884048484DC187080DA
:100A8000800000000007181610101B675A44402011
:100A9000242C16101F00000000C0602030901808A1
:100AA0002C8404A4CC187040C0800000070D1034C2
:100AB0002C101317264A5B402021361B0907000023
:100AC00080C0602020304808040484244C18B060A2
:100AD000E00000000F0A10202C20101717364A5B88
:100AE000603010300F03000000E020202018882C18
:100AF0000404042C0838A020E0000000001F10208F
:100B0000686820311717376B792030101F000000FC
:100B100080C0404030584CA40404060808103060DF
:100B2000C0800000030E303060585861361717330C
:100B30002A2D3018090F000000C040603848CC044E
:100B40008404044808103020C080000007091830D1
:100B50002060505865361713232D301B0D070000F9
:100B6000008080C030DCC4C40684044C08183020E7
:100B7000E0000000001F103020204040504137139B
:100B80001315110C07000000000000C0709CC4C4C5
:100B9000840404448C1830E00000000000183F205A
:100BA000282C4040404041731314180700000000F7
:100BB00000000000E018C4D4848404048C1CF000FD
:100BC000000000000000203F6160404C4040404178
:100BD00078180F000000000000000000C07C0484B2
:100BE000848484047CC00000000000000000000039
:100BF0007F40404048484040407F000000000000E7
:100C0000000000F01C8C040484C4D4C410E0000074
:100C1000000000000000000F1878414040404C40A8
:100C200060613F20000000000000E030188C4404A8
:100C30000484C4C49070C0000000000000000718C5
:100C400014137341404040402C28203F18000000FE
:100C500000E0203098084C048406C448D030C0809E
:100C60008000000000070C1115131337415040405D
:100C7000202030101F00000080C0203010084804E1
:100C8000048404C848386040C0000000070D1B30D1
:100C90002D231317366558506020301809070000BF
:100CA00080C06030100808060404A0485830404056
:100CB000C08000000F0918302D2B331717366158EC
:100CC000586030300E030014100000F810A03808EF
:100CD00028282828288818A02060C0000000001FAD
:100CE00010362263633717173723606222101F0004
:100CF000000000F020B0184828A8282828483030E4
:100D00003060C0000000030F3210366243423617D5
:100D10001717232021100B0F0000C0E0407018C8E7
:100D2000A828A828081890302060C00000000708F4
:100D30001B36202D464342261713132131100F0670
:100D4000000000C0407010D0A8A828A80808D0B0A3
:100D5000A020E0000000001F10162E2E204D46425D
:100D6000671B1311101807000000000080E030D04E
:100D700088A8A828280818B020E000000000001C5F
:100D80001F302E2E2C6C414642731310180F00009A
:100D9000000000000080E01088A8A8A82808881893
:100DA000F000000000000000003F202E2C6C4C4D95
:100DB000404379080F000000000000000000C078E8
:100DC00008A8A8A8A80878C000000000000000003B
:100DD00000007F404C4C4C484C4C407F00000000D1
:100DE0000000000000F018880828A8A8A88810E0D3
:100DF0008000000000000000000F087943404D44CF
:100E00006C2C2A203F00000000000000E020B018F9
:100E1000082828A8A888D030E08000000000000042
:100E20000F181013734246416C2C262E301F1C00E5
:100E3000000000E020A0B0D00808A828A8A8D01082
:100E40007040C00000000007181011131B674246D5
:100E50004D202E2E12101F00000000C06020309088
:100E6000180828A828A8C8187040E0C00000060F7D
:100E7000103121131317264243442C20361B080738
:100E8000000000C06030303048282828A8284818C2
:100E9000B020F00000000F0B102121231717173688
:100EA0004243623610320F03000000C06020A018D9
:100EB0008828282828280838A010F8000000001FDB
:100EC00010226262233717173763612236101F0022
:100ED000000000C060A0B05848A8282828080810C2
:100EE0001820C0800000030F30306642426736177A
:100EF00017332320331B090F000000C0406038481F
:100F0000C808A8281C4808101020E0800000070B23
:100F10001830206D4642673617132321311B0D0709
:100F200000000080804030D0C8C828B40C48089821
:100F30009030E0000000001F10302620404442475F
:100F400037131311110C07000000000080C07090CF
:100F5000C8C8B42C2848889810F000000000001879
:100F60003F20282C404040464373131018070000D0
:100F7000000000000000E010C8C4ACA828088818D1
:100F8000F000000000000000003F6060484C40405E
:100F9000404378180F000000000000000000C078F7
:100FA00008B8B8B8B80878C0000000000000000019
:100FB00000007F4040404C4C4040407F000000001B
:100FC0000000000000F018880828A8ACC4C810E091
:100FD0000000000000000000000F1878434040406F
:100FE0004C4860603F00000000000000F01098884E
:100FF00048282CB4C8C89070C080000000000000D1
:10100000071810137343444048402C28203F180011
:10101000000000E030909808480CB428C848D03050
:1010200040808000000000070C1111131337474265
:101030004440202630101F00000080E0205010089F
:10104000481C28A808C848386040C0000000070DA8
:101050001B3121231317366742466D2030180B07CA
:10106000000080C02018100808282828A84858B078
:10107000A060C00000000F091B332123331717366F
:101080006742426630300F03001010E030182C34F5
:101090003434343434343494C404FC7F404E4E55DC
:1010A000555B55554E4E406F37180F080B00020226
:1010B00002010009040000010202000005240010E2
:1010C000010524010101042402060524060001078C
:1010D00005810310004009040100020A0000000716
:1010E00005020240000007058302400000040309D6
:1010F0000412010002EF0201404123368000010189
:1011000002030141726475696E6F204C4C430041CB
:10111000726475696E6F204C656F6E6172646F00EA
:101120000102040810204080DA2211241FBECFEFF4
:10113000DAE0DEBFCDBF11E0A0E0B1E0E8E3F0E52A
:1011400002C005900D92A636B107D9F727E0A6E6B2
:10115000B1E001C01D92A933B207E1F718E0C5E97B
:10116000D8E004C02197FE010E940F28C439D1079E
:10117000C9F70E94FC180C941A280C940000CF9216
:10118000DF92EF92FF920F931F93CF93DF936C0147
:101190007A018B01C0E0D0E0CE15DF0589F0D801DF
:1011A0006D918D01D601ED91FC910190F081E02DC2
:1011B000C6010995892B11F47E0102C02196ECCF5E
:1011C000C701DF91CF911F910F91FF90EF90DF90BA
:1011D000CF90089580916E01E0916C01F0916D01C6
:1011E000882349F0CF01029690936D0180936C01A2
:1011F000859194910895CF01029690936D0180930B
:101200006C0180819181089580916F010895089506
:10121000089580E090E00895FC01653451F496ADA6
:10122000491720F4941B96AF80E0089516AE81E034
:1012300008950895FC01653451F496AD491720F4E2
:10124000941B96AF80E0089516AE81E0089508954E
:1012500080E008950E941528CF93DF9300D000D03E
:10126000CDB7DEB7611571058105910579F09B0158
:10127000AC0169833A834B835C830E940F242981EC
:101280003A814B815C810E94332403C060E070E0AE
:10129000CB010F900F900F900F90DF91CF91089599
:1012A0003FB7F89480918A0190918B01A0918C01B5
:1012B000B0918D0126B5A89B05C02F3F19F001966E
:1012C000A11DB11D3FBFBA2FA92F982F8827820FCC
:1012D000911DA11DB11DBC01CD0142E0660F771F1C
:1012E000881F991F4A95D1F708958F929F92AF92C8
:1012F000BF92CF92DF92EF92FF926B017C010E942E
:1013000050094B015C01C114D104E104F104F1F076
:101310000E945009DC01CB0188199909AA09BB096F
:10132000883E9340A105B10570F321E0C21AD108AF
:10133000E108F10888EE880E83E0981EA11CB11C1C
:10134000C114D104E104F10419F7DDCFFF90EF904F
:10135000DF90CF90BF90AF909F908F9008951F9295
:101360000F920FB60F9211242F933F938F939F9359
:10137000AF93BF938091660190916701A09168013E
:10138000B09169013091890123E0230F2D3720F4BA
:101390000196A11DB11D05C026E8230F0296A11DCF
:1013A000B11D209389018093660190936701A093FA
:1013B0006801B093690180918A0190918B01A0919D
:1013C0008C01B0918D010196A11DB11D80938A0100
:1013D00090938B01A0938C01B0938D01BF91AF913D
:1013E0009F918F913F912F910F900FBE0F901F9063
:1013F0001895CF92DF92EF92FF920F931F93CF93A6
:10140000DF930E94EA08811520E8920761F4809139
:1014100071008D7F809371001092910046984798DB
:10142000109282018BC021E020938201813020E85C
:10143000920751F480916A0190916B0190936D0134
:1014400080936C010E94EA0897FD05C020918101FC
:10145000222309F43FC02091800121113BC021E0EB
:1014600020938301EC01DF77209769F481E080937A
:10147000840146983FE9C32E3FE0D32EE12CF12CA6
:10148000CAEFD0E014C08E0120E030E060E472E4E6
:101490008FE090E0A90198010E94332469017A014C
:1014A00081E0C81AD108E108F10810928401E091A6
:1014B000A605F091A7050995811103C081E08093ED
:1014C0008401809183018823B9F180918401811185
:1014D00033C003C010928301C5CF46992DC0479AEF
:1014E0000E94EA08009771F09C01DE010E948724A7
:1014F000DC01CB0129E0B595A795979587952A95AD
:10150000D1F703C08FEF9FEFDC01109290002AE02B
:1015100020939100D0929900C09298008093850109
:1015200090938601A0938701B09388018091710008
:1015300082608093710002C04798D2CFDF91CF9133
:101540001F910F91FF90EF90DF90CF9008951F9221
:101550000F920FB60F9211242F933F934F935F93E7
:101560006F937F938F939F93AF93BF93EF93FF936B
:101570008091850190918601A0918701B0918801A9
:10158000892B8A2B8B2B81F18091840181110BC0D7
:1015900098B180E4892788B980918301882319F064
:1015A00088B1805888B98091850190918601A09179
:1015B0008701B0918801181619061A061B06B4F4A3
:1015C0008091850190918601A0918701B091880159
:1015D0000197A109B1098093850190938601A09399
:1015E0008701B093880102C00E94F909FF91EF9131
:1015F000BF91AF919F918F917F916F915F914F912B
:101600003F912F910F900FBE0F901F9018958FB1A3
:101610008095807F669B88601C9B846008951092F3
:101620006F013E983F9808953E9A3F9A81E08093DB
:101630006F010895FC01840F911D18161906E4F539
:10164000E038F105CCF5F7FF02C0E0E0F0E08138CA
:10165000910514F080E890E0382F3E1BAB0177FF36
:1016600002C0495F5F4F83E0559547958A95E1F742
:101670005695542F442757954795E40FF51FE85684
:10168000FE4F6770772781E090E001C0880F6A9570
:10169000EAF7482F222349F0213071F4315020F02D
:1016A0008081842B8193FACF08958095315020F06A
:1016B000908198239193FACF08951F93CF93DF934E
:1016C000DC0120E030E040E050E011E0C1E0D0E09B
:1016D0002617370791F114968C911497811115C034
:1016E00014961C93149712968D919C911397ED91DB
:1016F000FC911197E80FF91FE4911596EC9315975B
:10170000019613969C938E93129714969C9114971E
:1017100015968C911597892349F0FE01022E02C07F
:10172000EE0FFF1F0A94E2F74E2B5F2B990F1496D2
:101730009C9314972F5F3F4FCBCFCA01DF91CF917E
:101740001F910895CF93DF93EC018BE0FB0132965C
:10175000DE01129601900D928A95E1F7FB018585D5
:101760008D8786858E8787858F8786E07096DE01D8
:10177000509601900D928A95E1F786E0FB017696EE
:10178000DE01569601900D928A95E1F7FB01848D5A
:101790008C8F858D968DA78DB0A18D8F9E8FAF8FED
:1017A000B8A381A192A1A3A1B4A189A39AA3ABA339
:1017B000BCA385A196A1A7A1B0A58DA39EA3AFA30D
:1017C000B8A781A592A5A3A5B4A589A79AA7ABA7F9
:1017D000BCA785A596A5A7A5B0A98DA79EA7AFA7CD
:1017E000B8AB81A992A9A3A9B4A989AB9AABABABB9
:1017F000BCAB85A996A9A7A9B0AD8DAB9EABAFAB8D
:10180000B8AF81AD92ADA3ADB4AD89AF9AAFABAF78
:10181000BCAF85AD8DAF86AD8EAFCE01DF91CF91E0
:101820000895FC0112821382148215821682178297
:101830001086118612861386148682E291E09183C7
:10184000808387E4858716861786118A108A138A13
:10185000128A148A158A148E158E168E178E10A26F
:1018600011A212A213A214A280E090E0A0E0B0E4C2
:1018700085A396A3A7A3B0A70895CF92DF92EF9276
:10188000FF92CF93DF93EC010E94110C80E090E077
:10189000A0E6B0E489A79AA7ABA7BCA78DEC9CEC07
:1018A000ACE4BDE38DA79EA7AFA7B8AB83E393E3FA
:1018B000A3EBBEE389AB9AABABABBCAB8AE097EDD5
:1018C000A3EABCE38DAB9EABAFABB8AF80E090E0DA
:1018D000A0E8BFEB89AF9AAFABAFBCAF83E08DAFF1
:1018E00085E08EAF1FAE88E291E09983888364EF34
:1018F00071E080E090E00E942C090E9429266A8312
:101900007B838C839D8364EF71E080E090E00E9494
:101910002C090E9429266E837F838887998784E11A
:101920008E8780E18F8786E0E8E1F1E0DE01509666
:1019300001900D928A95E1F70E940F2425E030E096
:1019400040E050E00E9433249B01AC012B5F3F4FED
:101950004F4F5F4F61E070E080E090E00E943324E1
:10196000CA01B9010E9429262AE037ED43E25CE36F
:101970000E9497246DAB7EAB8FAB98AFCDA4DEA455
:10198000EFA4F8A80E940F2420E030E0A901C701CD
:10199000B6010E9497246DA77EA78FA798AB88E118
:1019A0008A8785E48D87DF91CF91FF90EF90DF905C
:1019B000CF9008954F925F926F927F928F929F92F5
:1019C000AF92BF92CF92DF92EF92FF920F931F934D
:1019D000CF93DF9300D000D000D0CDB7DEB7FC01AD
:1019E000E982FA820B831C83922F2D83832F3E83FF
:1019F000A980BA80EB80FC80A689B789208D318DC3
:101A0000538D728D8D01070F111DA016B1060CF0BC
:101A1000C7C04501890E911CA815B9050CF0C0C0BE
:101A2000D901A50FB11DEA16FB060CF0B9C067017C
:101A3000C80ED11C2C153D050CF0B2C08F010190D1
:101A4000F081E02D0190F081E02DC8010995811110
:101A5000A7C0D80156962D913C91579750968D91DD
:101A60009C9151972A153B05ACF454962C91B501E5
:101A7000621B7109681B790B6F5F7F4F072E000C8B
:101A8000880B990B0E942926F80122813381448119
:101A9000558110C0B401681B790B072E000C880B10
:101AA000990B0E942926D80112962D913D914D91B6
:101AB0005C9115970E9496244B015C01F801808D82
:101AC000918D228933898E159F05B4F48589A701EC
:101AD000481B5109CA01821B930B0196BC01990F47
:101AE000880B990B0E942926D80116962D913D91BD
:101AF0004D915C9119970EC0B601621B730B072EB6
:101B0000000C880B990B0E942926F8012681378149
:101B1000408551850E9496246B017C0120E030E0D5
:101B2000A901C501B4010E943F27240135011816FF
:101B300024F077FA709477F8709420E030E0A901EF
:101B4000C701B6010E943F27A701960118160CF0A5
:101B50005058C301B2010E94752587FF11C0A5012D
:101B60009401D80112966D917D918D919C9115975C
:101B70000E949724F801628373838483958310C045
:101B8000A7019601D80116966D917D918D919C913A
:101B900019970E949724F80166837783808791873D
:101BA00026960FB6F894DEBF0FBECDBFDF91CF9162
:101BB0001F910F91FF90EF90DF90CF90BF90AF906B
:101BC0009F908F907F906F905F904F900895CF92ED
:101BD000DF92EF92FF920F931F93CF93DF93EC016D
:101BE0006A897B89072E000C880B990B0E94292695
:101BF0002E813F81488559850E9497240E94F125B6
:101C00006B017C010C891D8988899989BC01990F18
:101C1000880B990B0E9429262A813B814C815D818A
:101C20000E9497240E94F1257F8B6E8BD98EC88EDF
:101C30000A8F1B8FDF91CF911F910F91FF90EF9033
:101C4000DF90CF9008954F925F926F927F928F9224
:101C50009F92AF92BF92CF92DF92EF92FF920F933B
:101C60001F93CF93DF93EC01C9A0DAA0EBA0FCA0F7
:101C700020E030E04AE754E46D8D7E8D8F8D98A191
:101C80000E944C2720E030ED4FE557E40E947F256D
:101C90002B013C010E947A259B01AC01C701B601D2
:101CA0000E944C272A813B814C815D810E949724B0
:101CB0004B015C016A837B838C839D83C301B201EA
:101CC0000E94B9279B01AC01C701B6010E944C27B5
:101CD0009B01AC016E817F81888599850E94962445
:101CE0006B017C016E837F838887998720E030E0D9
:101CF000A901C501B4010E94752587FF05C01A829C
:101D00001B821C821D8224C00E8510E0B801012EAA
:101D1000000C880B990B0E9429269B01AC01C50180
:101D2000B4010E94972420E030E04AEF53E40E947F
:101D30003F2718166CF484EF91E0801B910BBC01D7
:101D400080E090E00E9427266A837B838C839D83BA
:101D500020E030E0A901C701B6010E94752587FF88
:101D600005C01E821F821886198623C00F8510E0C9
:101D7000B801012E000C880B990B0E9429269B01AB
:101D8000AC01C701B6010E94972420E030E04AEF81
:101D900053E40E943F27181664F464EF71E0601B5F
:101DA000710B80E090E00E9427266E837F838887F6
:101DB0009987DF91CF911F910F91FF90EF90DF9066
:101DC000CF90BF90AF909F908F907F906F905F90DB
:101DD0004F9008958F929F92AF92BF92DF92EF92B1
:101DE000FF920F931F93CF93DF93EC017B01D42ECF
:101DF00000E711E0F80124813581468157816C812B
:101E00007D818E819F810E9496240E94F1254B0145
:101E10005C01F8012081318142815381688179819F
:101E20008A819B810E9496240E94F125DC01CB01CE
:101E30000AEF2D2DA701B4010E941E16DF91CF914C
:101E40001F910F91FF90EF90DF90BF90AF909F9008
:101E50008F9008952F923F924F925F926F927F9250
:101E60008F929F92AF92BF92CF92DF92EF92FF92AA
:101E70000F931F93CF93DF93CDB7DEB729970FB69C
:101E8000F894DEBF0FBECDBF4B015C0129013A01C2
:101E90001E2DCD82C0907001D0907101E090720132
:101EA000F0907301602F70E080E090E00E9429269E
:101EB0009B01AC01C501B4010E949724A7019601C2
:101EC0000E943F2718160CF042C020E030E040E0AE
:101ED00053E4C701B6010E9497249B01AC01C501E0
:101EE000B4010E94752587FF32C0809174019091E2
:101EF0007501A0917601B091770189839A83AB83B4
:101F0000BC83612F70E080E090E00E9429269B0155
:101F1000AC01C301B2010E94972429813A814B810F
:101F20005C810E943F27181694F420E030E040E8DE
:101F300052E469817A818B819C810E9497249B0164
:101F4000AC01C301B2010E94752587FDE9C0209153
:101F50007401309175014091760150917701C30170
:101F6000B2010E94962420E030E040E052E40E945A
:101F700096242B013C01A7019601C501B4010E94E2
:101F8000962420E030E040E852E40E9496249B0131
:101F9000AC01C301B2010E947F256B017C0120E0EE
:101FA00030E0A901C301B2010E94752587FF0EC070
:101FB000A701960160E070E080EE91EC0E947F2521
:101FC0000E94F125CB0164EE7FEF0DC0A7019601C1
:101FD00060E070E080EE91E40E947F250E94F12590
:101FE000CB016CE170E0843CAFEF9A07A4F4C70129
:101FF000B601905820E030E040EF52E40E944C27B8
:1020000020E030E040E05FE30E944C270E94F12591
:1020100084EC9FEF15C08D33910594F020E030E003
:1020200040EF52E4C701B6010E944C2720E030E0A7
:1020300040E05FE30E944C270E94F1258CE390E092
:102040007C01B0E4EB0EF11C1B0120E2220E311CDE
:102050008D81A82EB12C482F440F4F5FB1016A1912
:102060007B0921E0C7010E94831481E090E06C01AC
:10207000CA18DB08002711270A191B09000F111FB6
:10208000812C912CA1E0B0E0B987A887FA82E9827F
:102090003E822D828A149B040CF042C0D7FC07C0FC
:1020A000B1E0AB1AB1080E5F1F4FC00ED11E2FEF6B
:1020B000821A920A88859985029699878887C80E20
:1020C000D91E3A2D330F3F5F21E0432F31016A18AB
:1020D0007B08B30189819A81880D991D3F830E94F5
:1020E00083144D805E804818590821E04885B2016C
:1020F000C7018A0D9B1D0E94831421E03F81432F5D
:10210000B30189819A81881999090E94831421E079
:102110004885B201C7018A199B090E948314BACF6E
:1021200029960FB6F894DEBF0FBECDBFDF91CF91D9
:102130001F910F91FF90EF90DF90CF90BF90AF90E5
:102140009F908F907F906F905F904F903F902F90D7
:102150000895CF93DF931F92CDB7DEB76983DC017B
:10216000ED91FC910280F381E02D41E050E0BE0151
:102170006F5F7F4F09950F90DF91CF91089583E0B6
:102180008093E9008091F200882319F08AE380931C
:10219000E8000895FC018485958597FD0BC09FB7E5
:1021A000F89482E08093E9008091F2009FBF90E074
:1021B000019608959FB7F89482E08093E90080919A
:1021C000F2009FBF90E008958F929F92AF92BF92CE
:1021D000CF92DF92EF92FF920F931F93CF93DF93F3
:1021E0005C016B017A0180911301882309F45BC0C3
:1021F00080919701882309F456C08091940180FF53
:1022000005C08091E00082608093E000E70110E06B
:102210000AEF83E0882E9AE3992E2097D9F10E9445
:10222000751881110AC0015009F43DC061E070E0E9
:1022300080E090E00E947509F0CF282F30E0C217AF
:10224000D3070CF48C2F4FB7F8948092E90090914B
:10225000E80095FF1DC0282F30E0C21BD30BF6010C
:10226000982F915020F081918093F100FACFC20E07
:10227000D31E112319F09092E80009C08091E80064
:1022800085FD06C09092E80011E0209709F010E06B
:102290004FBFC3CF1111C3CF5D9884E680939501E2
:1022A0001E141F0444F081E090E0F50193838283C3
:1022B00080E090E001C0C701DF91CF911F910F91A5
:1022C000FF90EF90DF90CF90BF90AF909F908F9056
:1022D00008950E94751890E008950F931F93CF936F
:1022E000DF931F92CDB7DEB78C01FC018485958505
:1022F00097FF0EC0CE0101960E944B18019719F46A
:10230000298130E002C02FEF3FEFF80135872487A5
:10231000F801848595850F90DF91CF911F910F91E2
:102320000895CF93DF931F92CDB7DEB7FC0184856C
:10233000958597FD05C02FEF3FEF358724870BC0AC
:10234000CE0101960E944B18019719F4898190E003
:1023500002C08FEF9FEF0F90DF91CF9108950F9301
:102360001F93CF93DF931F92CDB7DEB782E08983AF
:1023700042E450E06BEA70E180E80E94C8180E94D5
:102380008618DC0112960D911C9113970115110509
:1023900069F0D801ED91FC910280F381E02DBE013E
:1023A0006F5F7F4FC801099597FF07C089810F9024
:1023B000DF91CF911F910F910895F801008511854C
:1023C000E5CF1F920F920FB60F9211248F939F9318
:1023D0008091E1009091E100937F9093E10083FF71
:1023E0000FC01092E90091E09093EB001092EC0086
:1023F00092E39093ED001092970198E09093F00093
:1024000082FF20C093E09093E9009091F20099231D
:1024100019F09AE39093E80090919501992339F08F
:1024200090919501915090939501992389F1909104
:102430009601992339F090919601915090939601CD
:10244000992341F184FF10C08091E2008E7E81606B
:102450008093E2008091E1008F7E8093E100809183
:1024600094018E7E806111C080FF16C08091E200D1
:102470008E7E80618093E2008091E1008E7E809369
:10248000E100809194018E7E81608093940104C06C
:102490005D9ACDCF289AD6CF9F918F910F900FBE86
:1024A0000F901F9018951F920F920FB60F92112444
:1024B000CF92DF92EF92FF920F931F932F933F9350
:1024C0004F935F936F937F938F939F93AF93BF933C
:1024D000EF93FF93CF93DF93CDB7DEB76C97DEBF5B
:1024E000CDBF1092E9008091E80083FFEDC168E064
:1024F000CE0145960E94EF1882EF8093E8008D8907
:1025000087FF05C09091E80090FFFCCF03C09EEFCD
:102510009093E800982F907609F0C6C09E892F8985
:10252000188D91110CC0803829F48091930180930B
:10253000F10002C01092F1001092F10048C1422F48
:1025400050E0512B913051F4811141C1413051057E
:1025500009F03DC1809193018D7F0BC0933061F4F0
:10256000811135C14130510509F031C1809193018C
:102570008260809393012BC1953041F48091E800F3
:1025800080FFFCCF20682093E30021C1963009F042
:102590005FC0EB8CFC8C1092E900109291011092BC
:1025A0009001123091F510928F0110928E010E94CD
:1025B000AF1199E0BE016F5F7F4FDB01E92F1D92E4
:1025C000EA95E9F799831A8391E09E8390EA9887C8
:1025D0009AEF99872091900130919101275F3F4FA9
:1025E0003C832B838D831092E9001092910110920D
:1025F0009001F0928F01E0928E0149E050E080E07E
:102600000E94C8180E94AF11E2C0F0928F01E092C0
:102610008E010E948618DC011296ED90FC901397B3
:10262000E114F10409F4C0C0D701ED91FC910480DC
:10263000F581E02DBE016B5E7F4FC70109950097C4
:1026400019F00CF0C4C0C7C0F701E084F184E8CFF2
:10265000973009F4C0C0983021F481E08093F100F4
:10266000B6C0993009F0B3C0837009F0B4C0EBE292
:10267000F1E081E021E036E39081992361F08093DD
:10268000E9002093EB0091919093EC003093ED00E2
:102690008F5F873089F78EE78093EA001092EA0017
:1026A0008F898093970193C08B8D9C8D1092E90048
:1026B000109291011092900190938F0180938E015E
:1026C000898D811156C08E899D89913A59F4813244
:1026D00009F081C047E050E06CE071E080E00E94CA
:1026E000C81875C0913209F076C0833289F4888D9C
:1026F00090E0982F88272F89822BA0E0B0E080936C
:10270000080190930901A0930A01B0930B015FC0E7
:10271000803269F48091E80082FFFCCF67E08CE0B2
:1027200091E00E94EF188BEF8093E80006C08232A0
:1027300009F04DC08F898093130180919201882305
:1027400019F0EEEFFAE002C0E0E0F8E080910C0151
:1027500090910D01A0910E01B0910F01803B94402A
:10276000A105B10509F07BC08091130180FF93C0E2
:1027700076C00E948618DC0112960D911C91139769
:102780000115110541F1D801ED91FC910190F08105
:10279000E02DBE016B5E7F4FC8010995811117C006
:1027A000F80100851185ECCF113009F44EC01330CB
:1027B00091F48F89882309F445C0823081F440E880
:1027C00060E18FE091E10E949D22882321F08EEF4D
:1027D0008093E80079C081E28093EB0075C081307E
:1027E00029F440E86BE083E091E1EDCF833099F785
:1027F0000E948618DC011296ED90FC9013978E01D2
:102800000F5F1F4F6801E114F10479F0D701ED91DA
:10281000FC910680F781E02DB801C7010995080FEA
:10282000111DF701E084F184EECFD8011C92F6016E
:1028300001900020E9F73197BF016C197D0940E054
:10284000C601C1CF6DEE70E102C061EF70E16115AC
:10285000710509F2FB01449150E080E840CF0FB6CA
:10286000F894A89580916000886180936000109230
:1028700060000FBEA895EE3F2AE0F20739F0809184
:10288000FE0A9091FF0A91838083A1CF1092FF0AE4
:102890001092FE0A9CCFEE3F8AE0F80731F080816B
:1028A00091819093FF0A8093FE0A87E797E79183CF
:1028B00080839BE088E10FB6F894A8958093600030
:1028C0000FBE9093600083CF6C960FB6F894DEBF76
:1028D0000FBECDBFDF91CF91FF91EF91BF91AF912F
:1028E0009F918F917F916F915F914F913F912F9128
:1028F0001F910F91FF90EF90DF90CF900F900FBE40
:102900000F901F901895EF92FF920F931F93CF9304
:10291000DF93EC018B01040F111D77FF02C060E013
:1029200070E080E190E2E92E91E1F92EA8010134F6
:10293000110514F040E450E064177507ECF4C0385A
:10294000D105B8F4AB01F7013C2F849FD001A078EA
:102950001124A30F4770E40FF11D9491A856BE4FA8
:10296000222319F03C91932B03C090953C91932323
:102970009C936F5F7F4FDACFDF91CF911F910F91C3
:10298000FF90EF900895E8E9F1E081E0A0E0B8E081
:1029900000800EBC8111012C1197A0FDFDCF01928A
:1029A000B9F70DB408952F923F924F925F926F92B4
:1029B0007F928F929F92AF92BF92CF92DF92EF92CF
:1029C000FF920F931F93CF93DF93CDB7DEB72B9773
:1029D0000FB6F894DEBF0FBECDBF4C016B015A831A
:1029E00049831C821B821D821E8268E070E0CE013A
:1029F00001960E945D0B01961C0168E070E0CE011B
:102A000001960E945D0B8C0161E070E0CE010196A1
:102A10000E945D0B482FC401820D931D97FDD3C00A
:102A200050E8851691040CF0CEC098012F5F3F4FFF
:102A3000C601820F931F97FDC6C060E4C616D1047D
:102A40000CF0C1C08601D7FE04C0002711270C1965
:102A50001D09077011277601D7FE03C077E0E70E46
:102A6000F11C63E0F594E7946A95E1F7D7FE09C09D
:102A700081E0E81AF10888E090E0BC01601B710B6E
:102A80008B01690137FF03C077E0C70ED11C53E00B
:102A9000D594C7945A95E1F727703327232B19F063
:102AA0008FEFC81AD80A4F8331E020E0A12CB12C57
:102AB000612C712C88E090E0AC01401B510B5987D0
:102AC00048876C147D040CF07EC044244394512C40
:102AD00061E070E0CE0101962A873B870E945D0B82
:102AE0002A853B85892B21F452E0450E511CF0CFFD
:102AF000B201CE0101960E945D0BAC014F5F5F4FAA
:102B0000E0E0F0E02A853B85E417F50708F052C0C5
:102B10006F816111232B330F09F04AC0B701660D95
:102B2000771DCB010196099798F5C501880D991D70
:102B30008038910568F52B015694542C4424579401
:102B40004794480C591C4A0C5B1C6F3F8FEF780769
:102B5000B1F1D201A856BE4F822F002E01C0880FBE
:102B60000A94EAF79C91892B8C930115110581F049
:102B70006730710569F0D201A85EBD4F30E008846E
:102B800002C0359527950A94E2F78C91282B2C9357
:102B90009FEFA91AB90AA214B30444F06FEF661AA2
:102BA000760A31E020E0A12CB12C02C031E020E017
:102BB0003196AACF4F8151E045274F8382CF01152F
:102BC0001105C9F6E5CF2B960FB6F894DEBF0FBE00
:102BD000CDBFDF91CF911F910F91FF90EF90DF90CC
:102BE000CF90BF90AF909F908F907F906F905F90AD
:102BF0004F903F902F900895CF92DF92EF92FF92E7
:102C00000F931F93CF93DF936B01122FEC017C0185
:102C1000E40EF11CCE15DF0544F4202F412FB60140
:102C2000CE010E9483142196F5CFDF91CF911F91A1
:102C30000F91FF90EF90DF90CF9008956F927F9269
:102C40008F929F92AF92BF92CF92DF92EF92FF92BC
:102C50000F931F93CF93DF9300D000D0CDB7DEB793
:102C6000DC014115510509F4E8C1FA0114913196CE
:102C700094916A01F2E0CF0ED11CE12EF12C2223B7
:102C800009F1492F469546954695E42FF0E041E03D
:102C900050E0892F877011F440E050E04E0F5F1F25
:102CA000E49EF001E59EF00DF49EF00D112403303A
:102CB00011F4EE0FFF1F2E9FA0012F9F500D112426
:102CC000C40ED51E0F3F09F402E0AD014E0D5F1D8D
:102CD000141615060CF0B1C1A038B1050CF0ADC149
:102CE0009B01290F311D121613060CF0A6C160348A
:102CF00071050CF0A2C1C114D10409F49EC1362F94
:102D00003770FB0177FD379623E0F595E7952A9517
:102D1000E1F72E2F77FF04C0332311F02FEF2E0F92
:102D2000B7FF05C0662777276A1B7B0B02C060E0F0
:102D300070E04038510524F050E85A1B952E01C030
:102D4000912E961AA22E022E000CBB082F3F1CF4C7
:102D50008A2D809501C080E041E0592F577009F419
:102D600040E0969596959695940FA90EB11C49E072
:102D7000A416B10414F098E0921B981B280F40E8A9
:102D80002403A00DB11D1124A60FB71F819F600D54
:102D9000711D11243601660E771E41E050E06A0174
:102DA000032E02C0CC0CDD1C0A94E2F7033009F4B8
:102DB00000C1A0F4013009F4B1C0023009F03DC1F6
:102DC0008FEF8C9DB0018D9D700D112460957095D5
:102DD0007C836B838C80492F420F29C00A3F31F0DE
:102DE0000B3F09F02AC1492F420F84C0492F420FDF
:102DF0004FC0F301E00FF11FE491EC9D5001ED9DF8
:102E0000B00C1124BA82A98227FD05C0FC015081B3
:102E10005623A52AA082311113C00F5F1F4F0196C0
:102E2000091538F32F5F6E0C7F1CA058BF4F241775
:102E300009F403C1CD0188569E4F00E010E0F0CFA9
:102E400027305CF7FC01E058FF4F50815821BA80D1
:102E50005B295083E2CFF301E60FF71FE491EC9D6D
:102E60008001ED9D100D11241A83098327FD04C0F4
:102E7000FC015081052B0083311113C06F5F7F4F20
:102E80000196691540F32F5F6E0C7F1CA058BF4F51
:102E9000241709F4D2C0CD0188569E4F60E070E03F
:102EA000F0CF27305CF7FC01E058FF4F10815A81CA
:102EB000512B5083E3CFF301E00FF11FE491EC9D20
:102EC000C001ED9D900D11249A83898327FD05C0D3
:102ED0008095FB01908189238083311114C00F5F9D
:102EE0001F4F6F5F7F4F091530F32F5F6E0C7F1CF4
:102EF000A058BF4F241709F4A0C0BD0168567E4FEB
:102F000000E010E0F0CF273054F7FB01E058FF4F0E
:102F10008A818095908189238083E1CF892E820EDA
:102F2000A301CB0186199709281509F486C0BD01B4
:102F300068567E4F5B0100E010E00915A0F5F8012E
:102F4000E80FF91FE40FF51FE491EC9DB001ED9D32
:102F5000700D1124609570957C836B83FA01E00FEE
:102F6000F11FE491EC9D3001ED9D700C11247A82EB
:102F7000698227FD05C0F50170816723662A60829A
:102F8000332359F027304CF4F501E058FF4F70819E
:102F90006C8167237A81672B60830F5F1F4FFFEF80
:102FA000AF1ABF0ACACF2F5F4E0D5F1DA058BF4F8B
:102FB000BBCFA92CB12CF301E60FF71FA856BE4FCB
:102FC00060E870E06A197B09EA18FB088701000FC6
:102FD000111F592D492F792CE32ECF93DF93ED014B
:102FE000EF96EF9622968590A590EE2059F08C9C56
:102FF0004001AC9C500127302CF4F880B094FB20A9
:10300000F928F99222233AF0FC90A094FA20F828AB
:10301000FD920C940C1811965A9529F74A9551F087
:10302000572D23951124E00FF11DA60FB11DC60FDA
:10303000D11DD9CFDF91CF9111240F900F900F9018
:103040000F90DF91CF911F910F91FF90EF90DF9044
:10305000CF90BF90AF909F908F907F906F9008958A
:103060000F93242F03E0AB0168E370E00E941E166B
:103070000F9108952091D806282329F49091D7061E
:10308000982381E009F480E0089565E070E080E035
:1030900090E00C947509FC0180919701811103C0A7
:1030A0008FEF9FEF08959FB7F89482E08093E90037
:1030B0002091F20030E01216130614F421E030E003
:1030C0002115310559F0289884E680939601809166
:1030D000F10080838091F200882319F09FBFC9011D
:1030E00008958BE68093E800F9CF2FB7F89483E03A
:1030F0008093E9009091E800892F807295FF04C0C9
:103100009091F20080E4891B2FBF08958091E10621
:1031100081110DC082E08093DD0684E08093DE069D
:103120001092E0061092DF0681E08093E1068DEDBB
:1031300096E00895409190015091910120918E0167
:1031400030918F0142175307B4F49091E8009570C5
:10315000E1F39091E80092FD19C08093F100809115
:1031600090019091910101968F739927892B19F401
:103170008EEF8093E80080919001909191010196EB
:10318000909391018093900181E0089580E00895EB
:10319000DF92EF92FF920F931F93CF93DF93D82E7E
:1031A0008A017B01E40EF51EEB01CE15DF0571F0FF
:1031B000D7FE03C0FE01849101C088810E949A1845
:1031C00021968111F2CF8FEF9FEF01C0C801DF91EF
:1031D000CF911F910F91FF90EF90DF900895615074
:1031E00030F02091F100FC0120830196F8CF28985F
:1031F00084E6809396010895CF93DF93CDB7DEB731
:10320000CD54D1090FB6F894DEBF0FBECDBF789470
:1032100084B5826084BD84B5816084BD85B58260DB
:1032200085BD85B5816085BD80916E00816080938C
:103230006E001092810080918100826080938100F5
:103240008091810081608093810080918000816005
:1032500080938000809191008260809391008091A2
:1032600091008160809391008091900081608093B3
:1032700090008091C10084608093C1008091C10062
:1032800082608093C1008091C10081608093C10001
:103290008091C30081608093C3008091C0008260F0
:1032A0008093C0008091C20081608093C2008091B1
:1032B0007A00846080937A0080917A0082608093A3
:1032C0007A0080917A00816080937A0080917A0000
:1032D000806880937A001092970110929301109267
:1032E00094018091D70081608093D70080EA809319
:1032F000D80089B5806189BD89B5826089BD09B46E
:1033000000FEFDCF61E070E080E090E00E94750972
:103310008091D8008F7C80618093D8008091E000FC
:10332000807F8093E0008091E1008E7E8093E100B9
:103330008DE08093E200559A209AEEEFFFE78591A9
:1033400094918B3F9C4D19F481E08093920181EC24
:1033500080937C0085B1806F85B984B1877E84B904
:1033600084B1876E84B95E9A5F988AB1806D8AB99C
:10337000769A6E9881B3806F81BB899880B38D7087
:1033800080BB80E58CBD81E08DBD0E9445185F9AB1
:103390000E9445185E985C98E8EFF0E08DE08E0F93
:1033A00094919EBD00000DB407FEFDCF31968E13A3
:1033B000F7CF5C9A81E8809364008091650081601A
:1033C000809365000E94070B803839F42E98809115
:1033D0006400806280936400FFCF82E090E00E94EE
:1033E0001D24882319F00E94140B02C00E940F0BA9
:1033F00058E6252E332433948FB7F8944091660114
:103400005091670160916801709169018FBF80914F
:10341000DA06342F381B832F9091DB06992329F08D
:103420003093DC061092DB062DC19091D906391736
:1034300048F48F5F891708F025C181E083BF889524
:1034400013BE20C111E01093DB064093DA06809191
:10345000D5069091D60601969093D6068093D50610
:103460008091D7068093D8060E94070B8093D706D9
:1034700080910401811110C00E94070B86FD0CC0D1
:1034800009C18091D5069091D60666E970E00E9448
:10349000E727892B09F00FC181E080930401809117
:1034A000000181116CC180910201811117C080E27D
:1034B0000E943A18882331F080910101882371F02D
:1034C00081500AC080E40E943A18882339F0809124
:1034D0000101833018F48F5F8093010184E00E9422
:1034E0003A18882309F455C080910101813069F5AB
:1034F000809164008E7F8093640080917A00806464
:1035000080937A0080917A0086FDFCCF009178004C
:10351000109179000E94500920E030E098011127B5
:103520000027600F711F821F931F611571058105B0
:10353000910511F00E9414248091640081608093B1
:10354000640081E0809300011AC18330E1F480912E
:103550006F01882319F00E940F0B02C00E94140B08
:1035600060916F0182E090E02B966FAF2B970E94E5
:103570001D242B966FAD2B97681789F082E090E0A1
:103580000E9425240CC08093030181E080930201F6
:1035900006C088E00E943A188111109202018091C1
:1035A0000201811159C044EB55E060E070E080E019
:1035B00090E00E94D3148091010199E1899F802DB0
:1035C0001124815FE82EF12C01E02AE047E167E356
:1035D00070E0C7010E94FC1587010150110920E02D
:1035E00049E166E370E0C8010E941A0B20E04BE05D
:1035F00066E370E0C8010E94831420E04BE066E3BC
:1036000070E0C70147960E94831440E068E875E0C7
:1036100080E190E00E94301840E06CE575E089E2BE
:1036200090E00E94301840E060E375E082E490E0B2
:103630000E94301840E062E175E08BE590E00E9466
:10364000301840916F0168EF74E08AE690E00E94C4
:1036500030180E94C31416C080910301811109C063
:1036600045E753E060E070E080E290E00E94D31410
:10367000F0CF823071F749E752E060E070E080E01F
:1036800090E0F4CF80E090E0892B09F4B5CE0E9461
:103690000000B2CE6091070165300CF0F2CE6F5F92
:1036A00060930701062E000C770B8091060140E81D
:1036B00051E090E0DBCF80910501811133C0809112
:1036C00071008D7F8093710010926E0188E995E002
:1036D00090936D0180936C0190936B0180936A01CC
:1036E00086E194E0909399058093980582E390E0B9
:1036F00090939B0580939A058DE298E090939D05A9
:1037000080939C0584E690E090939F0580939E05AE
:1037100080E090E89093A1058093A0050E94F909AC
:103720001093050160910701062E000C770B809124
:10373000060140E851E090E00E94D3146091070137
:10374000062E000C770B675E7F4F8091060190E09C
:1037500002E020E047E751E080960E941E1600E05C
:1037600025E040E86FE270E08EE190E00E94FC15F9
:1037700045E051E06EE270E08EE190E077CF80911D
:10378000D1059091D205039739F1CE0101960E949F
:103790003D0C8091D1059091D20583309105E4F4E0
:1037A0009C012F5F3F4F3093D2052093D1058C01B0
:1037B00036E0000F111F3A95E1F7BE016F5F7F4FB2
:1037C000C8018D529A4F0E94A20BF801EE5EF94F8C
:1037D00021962FAD2197208300E010E0B801012E43
:1037E000000C880B990B0E942926209174013091BE
:1037F000750140917601509177010E9496240E94B4
:10380000F1256034710530F421E040E880E090E07B
:103810000E941A0B03581F4F043F91E01907F1F65D
:1038200000E010E0B801012E000C880B990B0E94FB
:1038300029262091700130917101409172015091BF
:1038400073010E9496240E94F125DC01CB0121E046
:1038500040E460E070E00E94831403581F4F043F6F
:10386000A1E01A07F9F688EA95E00E94E70D40E02A
:1038700069E870E18AEA95E00E94EA0E2091C406A8
:103880003091C5064091C6065091C7066091B406B6
:103890007091B5068091B6069091B7060E943F27B9
:1038A0001816ACF50E94070B85FF13C02091BC06CB
:1038B0003091BD064091BE065091BF066091B006A2
:1038C0007091B1068091B2069091B3060E94972440
:1038D00016C00E94070B86FF1AC02091BC063091CB
:1038E000BD064091BE065091BF066091B006709132
:1038F000B1068091B2069091B3060E94962460931F
:10390000B0067093B1068093B2069093B3060E94FE
:10391000070B82FF55C0C090B406D090B506E0906A
:10392000B606F090B70620E030E0A901C701B60165
:103930000E943F2718164CF42091C8063091C90602
:103940004091CA065091CB0610C020E030E040E81C
:1039500050E46091C8067091C9068091CA069091A2
:10396000CB060E944C279B01AC01C701B6010E9407
:1039700097246093B4067093B5068093B60690932F
:10398000B706C090B806D090B906E090BA06F0909D
:10399000BB06A70196016091B4067091B5068091AF
:1039A000B6069091B7060E943F271816ECF5C09214
:1039B000B406D092B506E092B606F092B70634C0CF
:1039C0000E94070B83FF30C0C090B406D090B506AC
:1039D000E090B606F090B7062091CC063091CD0667
:1039E0004091CE065091CF06C701B6010E943F27F5
:1039F0001816D4F46091C8067091C9068091CA0661
:103A00009091CB069B01AC010E9497249B01AC01D5
:103A1000C701B6010E9496246093B4067093B50660
:103A20008093B6069093B70683E996E00E94230E32
:103A300083E996E00E94E70D6091B0067091B106AF
:103A40008091B2069091B3060E94F125CB01B1019D
:103A50000E94FB27BC01990F880B990B0E94292615
:103A60006B017C0120E030E0A9010E94752587FFF1
:103A70000AC020E030E044EB53E4C701B6010E94E5
:103A800097246B017C01C092B006D092B106E092FF
:103A9000B206F092B30620E030E044EB53E4C701F5
:103AA000B6010E947F256B017C0160919D0670E04C
:103AB00080E090E00E9429269B01AC01C701B6017D
:103AC0000E944C270E94F82560939E068091A206D2
:103AD00029EFF22EF80E1091A106185020917401D2
:103AE000309175014091760150917701609199066E
:103AF00070919A0680919B0690919C060E94962454
:103B000020E030E040E850E40E9497240E94F12534
:103B10004B015C0120917001309171014091720163
:103B20005091730160919506709196068091970669
:103B3000909198060E94962420E030E040E850E4FE
:103B40000E9497240E94F125DC01CB0100E02F2D7B
:103B5000412FB4010E94FC1540919E0667EC7CE069
:103B600085E996E00E94EA0EE090BE05F090BF0560
:103B70000091C0051091C1052091C2053091C30587
:103B800040E06091B50583E996E00E94DA0C229648
:103B90001FAE229722968FAD2297082F10E08091BA
:103BA000D1059091D205081719070CF0DFC2F80172
:103BB00086E0EE0FFF1F8A95E1F7EF5EF94F8081F7
:103BC000280196E0440C551C9A95E1F7811142C0FA
:103BD0000E940F2480E090E0A0E7B1E48093780198
:103BE00090937901A0937A01B0937B0110927C01AC
:103BF00010927D0110927E0110927F01D201AF528E
:103C0000BA4F7D018091D1059091D205081719070F
:103C1000A4F40F5F1F4FB7016E5B7F4FC701029681
:103C20000E94A20BF701EF57FF4F8081E054F1098A
:103C30008083B0E4EB0EF11CE5CF01979093D205A1
:103C40008093D1052296EFAD2297E1502296EFAFF7
:103C5000229784C292012D523A4F3901C9010E9424
:103C6000230EC3010E94E70DF201EF52FA4F678D58
:103C700070A181A192A10E94F125CB01B1010E9406
:103C8000FB27BC01990F880B990B0E9429266B0119
:103C90007C0120E030E0A9010E94752587FF0AC061
:103CA00020E030E044EB53E4C701B6010E949724C2
:103CB0006B017C0182010F521A4FD8015F96CD92A1
:103CC000DD92ED92FC92929720E030E044EB53E4D9
:103CD000C701B6010E947F254B015C01F801648594
:103CE00070E080E090E00E9429269B01AC01C501B4
:103CF000B4010E944C270E94F825D8011D966C93B0
:103D00001D9793968D909D90AD90BC90969720E0D6
:103D100030E0A901C501B4010E943F27181634F410
:103D2000F80127A930AD41AD52AD0DC020E030E023
:103D300040E850E4F80167A970AD81AD92AD0E94F2
:103D40004C279B01AC01C501B4010E949724D80106
:103D500093966D937D938D939C93969782010F52CA
:103D60001A4FF80187A090A4A1A4B2A4A5019401C0
:103D700063A174A185A196A10E943F2718163CF467
:103D8000D80193968D929D92AD92BC929697809019
:103D9000990690909A06A0909B06B0909C06809100
:103DA000950690919606A0919706B0919806269652
:103DB0008CAF9DAFAEAFBFAF269782010F521A4FA7
:103DC000D801D3962D913D914D915C91D6979396C4
:103DD0006D917D918D919C9196970E943F27181629
:103DE0000CF099C0F80164817581868197810E94E9
:103DF000F1252A966CAF7DAF8EAF9FAF2A9726969E
:103E00006CAD7DAD8EAD9FAD26970E94F1252896B5
:103E10002EAD3FAD2897261B370BB901072E000C9E
:103E2000880B990B0E9429269B01AC01C501B401A6
:103E30002B962FAF2B972C963FAF2C972D964FAFED
:103E40002D972E965FAF2E970E94F1254B015C01B6
:103E5000D80118966D917D918D919C911B970E9430
:103E6000F125F401E61BF70BBF01072E000C880BB0
:103E7000990B0E9429262B962FAD2B972C963FADA0
:103E80002C972D964FAD2D972E965FAD2E970E94B5
:103E9000162520E030ED4FE557E40E944C2720E046
:103EA00030E04AE754E40E947F2520E030E044E31C
:103EB00053E40E9497240E94F1254B015C01C70145
:103EC000B6010E94F125C401861B970BB1010E9427
:103ED000FB27845E9D4FB1010E94FB27BC01645B00
:103EE0007109072E000C880B990B0E942926D80116
:103EF0009F962D913D914D915C91D2970E944C27B8
:103F00009B01AC01C701B6010E949724F801678F9D
:103F100070A381A392A392012F523A4F7901D90144
:103F200051968C91519719EFD12ED80E50961C9125
:103F3000509718502091740130917501409176018D
:103F40005091770118966D917D918D919C911B9761
:103F50000E94962420E030E040E850E40E9497243C
:103F60000E94F1254B015C0120917001309171019B
:103F70004091720150917301F701648175818681CE
:103F800097810E94962420E030E040E850E40E94AF
:103F900097240E94F125DC01CB0100E02D2D412F5B
:103FA000B4010E94FC15D7011D964C9165E079E0A3
:103FB000C2018B529A4F0E94EA0E8091D5069091D1
:103FC000D6066AE070E00E94E727892B39F4F701F2
:103FD000EF5BFF4F908181E08927808382010F5240
:103FE0001A4FF801EF5BFF4F8081882309F45AC014
:103FF00020917401309175014091760150917701C3
:10400000F80160857185828593850E9496246B01F5
:104010007C01D80151966C91669570E080E090E04B
:104020000E9429269B01AC01C701B6010E9497247A
:1040300020E030E040EC50E40E9496240E94F125FC
:104040006B017C01209170013091710140917201EE
:1040500050917301F80164817581868197810E9476
:1040600096244B015C01D80150966C91669570E0E6
:1040700080E090E00E9429269B01AC01C501B401BB
:104080000E94972420E030E040E850E40E9496240B
:104090000E94F125DC01CB0101E023E047E0B601FD
:1040A0000E94FC15F201EF52FA4F5F012085318525
:1040B000428553856481758186819781CC24C39420
:1040C000E18800890E942A0FD3015696EC905697FA
:1040D0005796FC90579758960C91589759961C9163
:1040E00059975A962C915A975B963C91F50147AD9A
:1040F000678583E996E00E94DA0CD12CED2DF0E083
:104100008091D1059091D205E817F9073CF52296E8
:104110002FAD2297D21601F1A6E0EE0FFF1FAA9550
:10412000E1F7DF01AD52BA4FEF52FA4F5696EC90DD
:1041300056975796FC90579758960C9158975996C2
:104140001C9159975A962C915A975B963C9147AD82
:104150006785C3010E94DA0CD394D0CF22963FAD7D
:1041600022973F5F22963FAF229714CD2091AE0554
:104170003091AF054091B0055091B1056091AA050D
:104180007091AB058091AC059091AD05E2E0CE2E2B
:10419000E090B7050091B6050E942A0F6091A20633
:1041A000669570E080E090E00E94292620919906B3
:1041B00030919A0640919B0650919C060E9497244C
:1041C0006B017C016091A106669570E080E090E053
:1041D0000E942926209195063091960640919706D7
:1041E000509198060E9497244B015C014090700109
:1041F00050907101609072017090730120E030E086
:1042000048E552E4C301B2010E949724A50194013C
:104210000E943F2718163CF420E030E048E552E4C5
:10422000C501B40120C020E030E040E053E4C30108
:10423000B2010E94972420E030E048E552E40E9459
:104240009624A50194010E94752587FF16C020E0E1
:1042500030E048E552E4C501B4010E94972420E013
:1042600030E040E053E40E94962460937001709324
:10427000710180937201909373018090700190900E
:104280007101A0907201B090730120E030E0A901AB
:10429000C501B4010E94752587FF09C01092700105
:1042A0001092710110927201109273011CC020E0F3
:1042B00030E040E053E4C501B4010E94972420E0BF
:1042C00030E04AEF53E40E943F27181664F480E080
:1042D00090E0AAEBB3E48093700190937101A093F6
:1042E0007201B09373018090740190907501A09059
:1042F0007601B090770120E030E048ED51E4C5014F
:10430000B4010E949724A70196010E943F27181626
:104310003CF420E030E048ED51E4C701B60120C094
:1043200020E030E040E852E4C501B4010E94972447
:1043300020E030E048ED51E40E949624A701960168
:104340000E94752587FF16C020E030E048ED51E45B
:10435000C701B6010E94972420E030E040E852E413
:104360000E94962460937401709375018093760186
:1043700090937701C0907401D0907501E090760120
:10438000F090770120E030E0A901C701B6010E945A
:10439000752587FF09C01092740110927501109263
:1043A0007601109277011CC020E030E040E852E432
:1043B000C701B6010E94972420E030E04AEF53E4A1
:1043C0000E943F27181664F480E090E0AAEDB3E461
:1043D0008093740190937501A0937601B093770157
:1043E000C0907801D0907901E0907A01F0907B0143
:1043F00020E030E0A901C701B6010E943F2718164E
:104400005CF420E030E040E05FE3C701B6010E94C9
:104410003F2718168CF10AC020E030E040E05FEB47
:10442000C701B6010E94752587FD26C0C0907C019A
:10443000D0907D01E0907E01F0907F0120E030E09F
:10444000A901C701B6010E943F2718165CF420E0BD
:1044500030E040E05FE3C701B6010E943F27181635
:104460005CF0F7C820E030E040E05FEBC701B60148
:104470000E94752587FFEDC80E940F2423E333E3D4
:1044800043E35FEB609178017091790180917A014B
:1044900090917B010E944C27609378017093790181
:1044A00080937A0190937B010E940F2423E333E3EE
:1044B00043E35FEB60917C0170917D0180917E010F
:1044C00090917F010E944C276B017C0160937C01DD
:1044D00070937D0180937E0190937F0120917801FC
:1044E0003091790140917A0150917B016091700186
:1044F0007091710180917201909173010E949724D3
:1045000060937001709371018093720190937301B5
:10451000A7019601609174017091750180917601F7
:10452000909177010E9497246093740170937501B4
:1045300080937601909377018CC8CF92DF92EF92AF
:10454000FF920F931F93CF93DF931F92CDB7DEB7E8
:10455000182F062FE42E862F880F8E5F99830E94D6
:104560009A1883E00E949A18F12EC12E9981D92EB3
:104570008C2D8F19801798F4F601E7FE02C0849104
:1045800001C080810E949A18182F80E00E949A181A
:104590008123FFEFCF1ADF0A8111EACF01C081E04A
:1045A0000F90DF91CF911F910F91FF90EF90DF90CF
:1045B000CF9008950F931F93CF93DF93E9EEF6E02A
:1045C0001382128288EE93E0A0E0B0E084839583AA
:1045D000A683B7838BE391E0918380838FEF9FEF76
:1045E00095878487E2EDF6E084E691E0918380830D
:1045F0001582168210E1178314821382118684E0DB
:1046000099E09093A7058093A60580E090E89093A9
:10461000A5058093A40546983E9A47983F9A83E95A
:1046200096E00E94110CC3E9D6E080E090E0A0E69D
:10463000B0E489A79AA7ABA7BCA78DEC9CECACE42F
:10464000BDE38DA79EA7AFA7B8AB83E393E3A3EB2E
:10465000BEE389AB9AABABABBCAB8AE097EDA3EA08
:10466000BCE38DAB9EABAFABB8AF80E090E0A0E811
:10467000BFEB89AF9AAFABAFBCAF83E08093D006FE
:1046800085E08093D1068EE591E0998388830E942E
:104690000F2428E631E040E050E00E9433240E94DD
:1046A00029266D8F7E8F8F8F98A364EF71E080E055
:1046B00090E00E942C090E9429266A837B838C83C8
:1046C0009D8364EF71E080E090E00E942C090E94DD
:1046D00029266E837F838887998704E10E871F8749
:1046E00086E0E1E3F1E0A3EAB6E001900D928A955D
:1046F000E1F788E18A870093D10680E58D871092E3
:10470000D2051092D10583ED95E00E943D0C83E126
:1047100096E00E943D0C83E596E00E943D0C88EAFD
:1047200095E00E94110CC8EAD5E08DE491E09983F0
:10473000888364EF71E080E090E00E942C090E9481
:1047400029266A837B838C839D8364EF71E080E0FC
:1047500090E00E942C090E9429266E837F8388871F
:1047600099870E871F8786E0E1E3F1E0A8EBB5E0CB
:1047700001900D928A95E1F7DF91CF911F910F91F2
:1047800008958F929F92AF92BF92CF92DF92EF9255
:10479000FF92CF93DF93EC01688179818A819B81BD
:1047A000611571058105910521F464E279ED8BE5D0
:1047B00097E02DE133EF41E050E00E9433244901BE
:1047C0005A019B01AC01A7EAB1E40E9452246B019B
:1047D0007C01ACEEB4EFA50194010E946024DC01E1
:1047E000CB018C0D9D1DAE1DBF1DB7FF03C00197F2
:1047F000A109B04888839983AA83BB83BC01CD01FA
:104800009F77DF91CF91FF90EF90DF90CF90BF9097
:10481000AF909F908F9008950E94C123089584E1E6
:1048200091E00E94C12308956093140170931501D3
:1048300080931601909317010895F999FECF92BDC8
:1048400081BDF89A992780B50895262FF999FECF52
:104850001FBA92BD81BD20BD0FB6F894FA9AF99A9D
:104860000FBE01960895052E97FB1EF400940E943A
:104870004A2457FD07D00E94652407FC03D04EF45C
:104880000C944A2450954095309521953F4F4F4FB9
:104890005F4F089590958095709561957F4F8F4FEC
:1048A0009F4F08950E948724A59F900DB49F900D5F
:1048B000A49F800D911D11240895B7FF0C945224DC
:1048C0000E945224821B930B0895A1E21A2EAA1B68
:1048D000BB1BFD010DC0AA1FBB1FEE1FFF1FA217B0
:1048E000B307E407F50720F0A21BB30BE40BF50BAD
:1048F000661F771F881F991F1A9469F76095709536
:10490000809590959B01AC01BD01CF010895A29FB8
:10491000B001B39FC001A39F700D811D1124911D93
:10492000B29F700D811D1124911D08955058BB2711
:10493000AA270E94AE240C94F1260E94B82638F0D3
:104940000E94BF2620F039F49F3F19F426F40C94FE
:104950008E260EF4E095E7FB0C948826E92F0E9442
:10496000162758F3BA17620773078407950720F0D4
:1049700079F4A6F50C9438270EF4E0950B2EBA2F97
:10498000A02D0B01B90190010C01CA01A001112455
:10499000FF27591B99F0593F50F4503E68F11A1601
:1049A000F040A22F232F342F4427585FF3CF469592
:1049B00037952795A795F0405395C9F77EF41F16B4
:1049C000BA0B620B730B840BBAF09150A1F0FF0F7E
:1049D000BB1F661F771F881FC2F70EC0BA0F621F6A
:1049E000731F841F48F4879577956795B795F7955A
:1049F0009E3F08F0B0CF9395880F08F09927EE0FEF
:104A00009795879508950E94B82660F080E891E018
:104A100009F49EEF0E94BF2628F040E851E071F4AF
:104A20005EEF0CC00C948E260C943827E92FE078AA
:104A30000E94162740F3092E052AB1F326173707DF
:104A40004807590738F00E2E07F8E02569F0E025F1
:104A5000E0640AC0EF6307F8009407FADB01B901CC
:104A60009D01DC01CA01AD01EF930E9496250E94D1
:104A7000F1260E9446255F91552339F02BED3FE04A
:104A800049E450FD49EC0C9497240895DF93DD2709
:104A9000B92FBF7740E85FE31616170648075B0794
:104AA00018F4D92F0E9444279F938F937F936F937D
:104AB0000E94C127ECEAF0E00E9491260E94F126B4
:104AC0002F913F914F915F910E945F27DD2351F01D
:104AD0009058A2EA2AED3FE049EC5FE3D0785D27E9
:104AE0000E94AE24DF910C94F1260E94642608F403
:104AF00081E008950E94C826E3950C9402270E9445
:104B000093250C94F1260E94BF2658F00E94B826E7
:104B100040F029F45F3F29F00C94882651110C9441
:104B200039270C948E260E94162768F39923B1F337
:104B3000552391F3951B550BBB27AA2762177307C3
:104B4000840738F09F5F5F4F220F331F441FAA1F57
:104B5000A9F335D00E2E3AF0E0E832D09150504013
:104B6000E695001CCAF72BD0FE2F29D0660F771FC1
:104B7000881FBB1F261737074807AB07B0E809F0A7
:104B8000BB0B802DBF01FF2793585F4F3AF09E3F2C
:104B9000510578F00C9488260C9439275F3FE4F394
:104BA000983ED4F3869577956795B795F7959F5F6F
:104BB000C9F7880F911D9695879597F90895E1E0BB
:104BC000660F771F881FBB1F621773078407BA071A
:104BD00020F0621B730B840BBA0BEE1F88F7E09575
:104BE00008950E94F8256894B1110C94392708950E
:104BF0000E941E2788F09F5798F0B92F9927B75128
:104C0000B0F0E1F0660F771F881F991F1AF0BA9570
:104C1000C9F714C0B13091F00E943827B1E008956F
:104C20000C943827672F782F8827B85F39F0B93F61
:104C3000CCF3869577956795B395D9F73EF4909523
:104C40008095709561957F4F8F4F9F4F0895E894A1
:104C500009C097FB3EF490958095709561957F4FC4
:104C60008F4F9F4F9923A9F0F92F96E9BB27939572
:104C7000F695879577956795B795F111F8CFFAF482
:104C8000BB0F11F460FF1BC06F5F7F4F8F4F9F4FB3
:104C900016C0882311F096E911C0772321F09EE811
:104CA000872F762F05C0662371F096E8862F70E077
:104CB00060E02AF09A95660F771F881FDAF7880F51
:104CC0009695879597F90895990F0008550FAA0BA7
:104CD000E0E8FEEF16161706E807F907C0F012160F
:104CE0001306E407F50798F0621B730B840B950B12
:104CF00039F40A2661F0232B242B252B21F4089567
:104D00000A2609F4A140A6958FEF811D811D089503
:104D100097F99F6780E870E060E008959FEF80EC6E
:104D20000895DF93CF931F930F93FF92EF92DF923B
:104D30007B018C01689406C0DA2EEF010E945F2788
:104D4000FE01E894A5912591359145915591A6F3E1
:104D5000EF010E94AE24FE019701A801DA9469F7E1
:104D6000DF90EF90FF900F911F91CF91DF91089509
:104D700000240A941616170618060906089500243A
:104D80000A94121613061406050608950C948E262E
:104D90000E941E27D8F3E894E0E0BB279F57F0F06D
:104DA0002AED3FE049EC06C0EE0FBB0F661F771FF0
:104DB000881F28F0B23A62077307840728F0B25AB6
:104DC000620B730B840BE3959A9572F7803830F47D
:104DD0009A95BB0F661F771F881FD2F790480C94D7
:104DE000C727092E0394000C11F4882352F0BB0F3F
:104DF00040F4BF2B11F460FF04C06F5F7F4F8F4FF3
:104E00009F4F0895EF93E0FF07C0A2EA2AED3FE02D
:104E100049EC5FEB0E94AE240E94F1260F900394B0
:104E200001FC9058E9EDF0E00C94D32757FD905821
:104E3000440F551F59F05F3F71F04795880F97FB5E
:104E4000991F61F09F3F79F0879508951216130618
:104E50001406551FF2CF4695F1DF08C01616170647
:104E60001806991FF1CF869571056105089408957C
:104E7000E894BB2766277727CB0197F908950E940E
:104E8000642608F48FEF08959B01AC0160E070E0A8
:104E900080E89FE30C947F250E945F270C94F12605
:104EA0000E94B82638F00E94BF2620F0952311F00A
:104EB0000C9488260C948E2611240C9439270E9479
:104EC000162770F3959FC1F3950F50E0551F629F11
:104ED000F001729FBB27F00DB11D639FAA27F00D53
:104EE000B11DAA1F649F6627B00DA11D661F829F7A
:104EF0002227B00DA11D621F739FB00DA11D621F5F
:104F0000839FA00D611D221F749F3327A00D611D7B
:104F1000231F849F600D211D822F762F6A2F11245D
:104F20009F5750409AF0F1F088234AF0EE0FFF1F90
:104F3000BB1F661F771F881F91505040A9F79E3FE7
:104F4000510580F00C9488260C9439275F3FE4F3D8
:104F5000983ED4F3869577956795B795F795E7953D
:104F60009F5FC1F7FE2B880F911D9695879597F946
:104F700008959F930E94C8260F9007FCEE5F0C9443
:104F800002279B01AC010C944C279F3F31F09150BC
:104F900020F4879577956795B795880F911D96951D
:104FA000879597F908959F938F937F936F93FF93BE
:104FB000EF939B01AC010E944C27EF91FF910E945F
:104FC00091262F913F914F915F910C944C27AA1BF2
:104FD000BB1B51E107C0AA1FBB1FA617B70710F0E4
:104FE000A61BB70B881F991F5A95A9F78095909516
:104FF000BC01CD01089597FB072E16F4009407D04D
:1050000077FD09D00E94E72707FC05D03EF4909574
:1050100081959F4F0895709561957F4F0895EE0F8C
:10502000FF1F0590F491E02D099481E090E0F89441
:085030000C941A28F894FFCF3C
:105038000001000000001DD2FFFFFFFF00E100009B
:105048000000000001000000050004000A0A00003A
:1050580000002809000000000C0900C18081000040
:1050680000050004000A0A00000000A910E4106905
:1050780011BF10CA1091116D11000000002809001D
:10508800000000280919F401F401000000002809B3
:0650980000000000070902
:00000001FF
