:100000000C9476070C949E070C949E070C949E0704
:100010000C949E070C949E070C949E070C949E07CC
:100020000C949E070C949E070C9420110C94921132
:100030000C949E070C949E070C949E070C949E07AC
:100040000C949E070C949E070C949E070C949E079C
:100050000C949E070C949E070C949E070C94AD1470
:100060000C949E070C949E070C949E070C949E077C
:100070000C949E070C949E070C949E070C949E076C
:100080000C94F7140C949E070C949E070C949E07F6
:100090000C949E070C949E070C949E070C949E074C
:1000A0000C949E070C949E070C949E0705A84CCDBB
:1000B000B2D44EB93836A9020C50B9918688083CA2
:1000C000A6AAAA2ABE000000803FD5F08D14A1C8C0
:1000D00081CFD9F1AF2000430D00F800FCF8FEFC01
:1000E000FF0CFF0CFF1CFF18FE00FCF8FEFCFF0CD1
:1000F000FF0CFFFCFFF8FE00FEFCFFFCFF78FEF0AB
:10010000FC78FEFCFFFCFF00FEFCFFFCFFCCFFCCFC
:10011000FFFCFF78FE00FE3CFF7CFFE0FEE0FE7C83
:10012000FF3CFF00FEF8FEFCFF0CFF0CFF1CFF185D
:10013000FE00FCF8FEFCFF0CFF0CFFFCFFF8FE00CD
:10014000FEFCFFFCFFCCFFCCFFFCFF78FE00FEFCBA
:10015000FFFCFF6CFF6CFF0CFF0CFF001E000C008F
:10016000030007030F071F061F061F071F030F00CB
:1001700007030F071F061F061F071F030F000F07A8
:100180001F071F000F0007000F071F071F000F07A3
:100190001F071F000F0007000300010000000700F9
:1001A0000F071F071F000F00070007030F071F0699
:1001B0001F061F071F030F0007030F071F061F0659
:1001C0001F071F030F000F071F071F000F000F0758
:1001D0001F071F000F071F071F061F061F061F060A
:1001E0001F000F0006412E0000000000000000006C
:1001F00000000000C0E0F0F8FCFCFEFE040000007F
:1002000000000000000080808080808080808080EE
:1002100080800002071FFFFEFEFCFCF8F0E080007B
:1002200000000000000000000000000000000000CE
:10023000000000001E7FFFFFFFFFFFFFFFFFFEFC2F
:10024000FC06060303030301010101010101010191
:1002500001010103030307070F1F3F7FFFFF3F0754
:10026000000000000000000000000080808080800E
:1002700080C0C0C0C0E0F0FD8F0307070707070379
:1002800001000080C0E0E0F0F0F0F0F0F06000C0AD
:10029000E0E0F0F0F0F0F0E0D83C9CDCDC98333F9C
:1002A0007FFFDFDF6F6F371B0E0402070D1B333735
:1002B000676F6FCFCFCFCFDFDF1F1E0000000000C2
:1002C000000000010D070301010130180C0C0C188F
:1002D00000030F1F7FFF9F9F0F0F0FCD3303010000
:1002E0000000FFFF00000000000000000000000010
:1002F000000000000000000000030F1C3060C08000
:1003000000000000000000000000000000000000ED
:100310000000003830200020202111D1D0E8C7E2B1
:10032000B01C0F03000000000000000000000000EF
:1003300000000000000000000000000000000000BD
:1003400001030306060C0C18181818303030303032
:10035000303018181818180C0C0C06060301030787
:1003600003000000000000000000000000412E001B
:10037000000000000000000000000000C0E0F0F8F5
:10038000FCFCFEFE04000000000000000000808075
:10039000808080808080808080800002071FFFFE38
:1003A000FEFCFCF8F0E0800000000000000000000F
:1003B0000000000000000000000000001E7FFFFFA2
:1003C000FFFFFFFFFFFFFEFCFC0606030303030124
:1003D00001010101010101010101010303030707FB
:1003E0000F1F3F7FFFFF3F070000000000000000DD
:1003F000000000808080808080C0C0C0C0E0F0FD30
:100400008F0307070707070301000080C0E0E0F043
:10041000F0F0F0F0F06000C0E0E0F0F0F0F0F0E0BC
:10042000D83C9CDCDC98333F7FFFDFDF6F6F371BEE
:100430000E0402070D1B3337676F6FCFCFCFCFDFAF
:10044000DF1F1E0000000000000000010D07030177
:100450000101183C7E7E7E3C18030F1F7FFF9F9F8B
:100460000F0F0FCD330301000000FFFF000000005D
:10047000000000000000000000000000000000007C
:1004800000030F1C3060C08000000000000000006E
:1004900000000000000000000000003830200020B4
:1004A000202111D1D0E8C7E2B01C0F0300000000EA
:1004B000000000000000000000000000000000003C
:1004C000000000000000000001030306060C0C18E9
:1004D0001818183030303030303018181818180C00
:1004E0000C0C0606030103070300000000000000D7
:1004F00000000000001008007F3E7F3E7F227F3E0C
:100500007F007F3E7F3E7F0A7F021F007F3E7F3E4F
:100510007F0A7F021F00070B08007F3E7F3E7F227D
:100520007F3E7F007F3E7F0C7F187F3E7F007F13E2
:1005300008007F2E7F2E7F3A7F3A7F007F3E7F3EEE
:100540007F0A7F021F007F367F3E7F087F367F0055
:100550007F007F367F007F1508007F3E7F3E7F2231
:100560007F2277007F3E7F3E7F227F3E7F007F3E5F
:100570007F0C7F187F3E7F007F3E7F3E7F0A7F0299
:100580001F000715080077227F3E7F3E7F227F00F5
:100590007F3E7F0C7F187F3E7F007F3E7F3E7F0A3D
:1005A0007F021F007F3E7F3E7F227F3E7F007F15C0
:1005B00008007F3E7F3E7F127F1E3F007F3E7F3ED2
:1005C0007F207F2070007F3E7F3E7F127F3E7F0036
:1005D0007F0E7F3E7F387F0E7F001F1508007F3E15
:1005E0007F3E7F187F3E7F007F3E7F3E7F2A7F22B7
:1005F0007F007F3E7F3E7F207F2070007F3E7F3EDA
:100600007F127F1E3F003F2118FF1F976B178BC182
:10061000C6E1E2E0E0C18000000000000180C0E02F
:10062000E1E2C1C3952B47AF1FFFFF7C89F0FFFFBD
:10063000FFFFFBF3FBFFFFF7E2C9C5C5C9E2F7FF08
:10064000FFFBF3FBFFFFFFF0887CFF832219C72F1E
:100650004F9F4F9F0FBF1FBF5FBF1F9F9F3FDF1F5A
:10066000BF5F5F9F3F4F1F8F2791020B1410000049
:100670000000F8F810F0A0E038F808F828F828F89A
:1006800028F828F828F888F818F8A0E020E060E0BA
:10069000C0C000000000000000001F1F101F363FF8
:1006A000223F637F637F373F171F171F373F233F6B
:1006B000607F627F223F101F1F1F000000000000AC
:1006C0000000F0F020E0B0F018F848F828F8A8F89A
:1006D00028F828F828F848F830F030F030F060E0DA
:1006E000C0C000000000000003030F0F323F101FC6
:1006F000363F627F437F427F363F171F171F171F0A
:10070000233F203F213F101F0B0F0F0F0000000061
:10071000C0C0E0E040C070F018F8C8F8A8F828F8A9
:10072000A8F828F808F818F890F030F020E060E019
:10073000C0C00000000000000707080F1B1F363F65
:10074000203F2D3F467F437F427F263F171F131FC9
:10075000131F213F313F101F0F0F0606000000003E
:100760000000C0C040C070F010F0D0F0A8F8A8F8A9
:1007700028F8A8F808F808F8D0F0B0F0A0E020E0D9
:10078000E0E000000000000000001F1F101F161F07
:100790002E3F2E3F203F4D7F467F427F677F1B1FAE
:1007A000131F111F101F181F070700000000000073
:1007B000000000008080E0E030F0D0F088F8A8F879
:1007C000A8F828F828F808F818F8B0F020E0E0E0D9
:1007D000000000000000000000001C1C1F1F303F34
:1007E0002E3F2E3F2C3F6C7F417F467F427F737FA1
:1007F000131F101F181F0F0F000000000000000043
:100800000000000000008080E0E010F088F8A8F808
:10081000A8F8A8F828F808F888F818F8F0F0000008
:1008200000000000000000000000000000003F3F4A
:10083000203F2E3F2C3F6C7F4C7F4D7F407F437F7E
:10084000797F080F0F0F000000000000000000007B
:100850000000000000000000C0C078F808F8A8F808
:10086000A8F8A8F8A8F808F878F8C0C000000000B8
:100870000000000000000000000000000000000078
:100880007F7F407F4C7F4C7F4C7F487F4C7F4C7FED
:10089000407F7F7F0000000000000000000000009B
:1008A000000000000000F0F018F888F808F828F8B8
:1008B000A8F8A8F8A8F888F810F0E0E08080000018
:1008C00000000000000000000000000000000F0F0A
:1008D000080F797F437F407F4D7F447F6C7F2C3FA3
:1008E0002A3F203F3F3F00000000000000000000C2
:1008F00000000000E0E020E0B0F018F808F828F868
:1009000028F8A8F8A8F888F8D0F030F0E0E0808067
:100910000000000000000000000000000F0F181F82
:10092000101F131F737F427F467F417F6C7F2C3FD8
:10093000263F2E3F303F1F1F1C1C00000000000000
:100940000000E0E020E0A0E0B0F0D0F008F808F807
:10095000A8F828F8A8F8A8F8D0F010F070F040C077
:10096000C0C000000000000000000707181F101F93
:10097000111F131F1B1F677F427F467F4D7F203F44
:100980002E3F2E3F121F101F1F1F000000000000EF
:100990000000C0C060E020E030F090F018F808F8E7
:1009A00028F8A8F828F8A8F8C8F818F870F040C097
:1009B000E0E0C0C00000000006060F0F101F313F2E
:1009C000213F131F131F171F263F427F437F447F82
:1009D0002C3F203F363F1B1F080F07070000000079
:1009E0000000C0C060E030F030F030F048F828F887
:1009F00028F828F8A8F828F848F818F8B0F020E007
:100A0000F0F00000000000000F0F0B0F101F213F3F
:100A1000213F233F171F171F171F363F427F437F7A
:100A2000627F363F101F323F0F0F030300000000AC
:100A30000000C0C060E020E0A0E018F888F828F8C6
:100A400028F828F828F828F808F838F8A0E010F076
:100A5000F8F800000000000000001F1F101F223FD8
:100A6000627F627F233F373F171F171F373F637F28
:100A7000617F223F363F101F1F1F00000000000053
:100A80000000C0C060E0A0E0B0F058F848F8A8F856
:100A900028F828F828F808F808F810F018F820E0E6
:100AA000C0C080800000000003030F0F303F303FC4
:100AB000667F427F427F677F363F171F171F333F96
:100AC000233F203F333F1B1F090F0F0F0000000083
:100AD0000000C0C040C060E038F848F8C8F808F826
:100AE000A8F828F81CFC48F808F810F010F020E0EE
:100AF000E0E080800000000007070B0F181F303F68
:100B0000203F6D7F467F427F677F363F171F131F51
:100B1000233F213F313F1B1F0D0F0707000000003F
:100B200000008080808040C030F0D0F0C8F8C8F865
:100B300028F8B4FC0CFC48F808F898F890F030F06D
:100B4000E0E000000000000000001F1F101F303F09
:100B5000263F203F407F447F427F477F373F131F20
:100B6000131F111F111F0C0F0707000000000000CA
:100B7000000000008080C0C070F090F0C8F8C8F895
:100B8000B4FC2CFC28F848F888F898F810F0F0F03D
:100B90000000000000000000000018183F3F203F48
:100BA000283F2C3F407F407F407F467F437F737FBD
:100BB000131F101F181F070700000000000000008F
:100BC0000000000000000000E0E010F0C8F8C4FCE5
:100BD000ACFCA8F828F808F888F818F8F0F000003D
:100BE00000000000000000000000000000003F3F87
:100BF000607F607F487F4C7F407F407F407F437FA6
:100C0000787F181F0F0F0000000000000000000098
:100C10000000000000000000C0C078F808F8B8F834
:100C2000B8F8B8F8B8F808F878F8C0C000000000C4
:100C300000000000000000000000000000000000B4
:100C40007F7F407F407F407F4C7F4C7F407F407F55
:100C5000407F7F7F000000000000000000000000D7
:100C6000000000000000F0F018F888F808F828F8F4
:100C7000A8F8ACFCC4FCC8F810F0E0E000000000EC
:100C800000000000000000000000000000000F0F46
:100C9000181F787F437F407F407F407F4C7F487F95
:100CA000607F607F3F3F0000000000000000000008
:100CB00000000000F0F010F098F888F848F828F8E4
:100CC0002CFCB4FCC8F8C8F890F070F0C0C080806C
:100CD0000000000000000000000000000707181FCF
:100CE000101F131F737F437F447F407F487F407FE7
:100CF0002C3F283F203F3F3F181800000000000015
:100D00000000E0E030F090F098F808F848F80CFCAB
:100D1000B4FC28F8C8F848F8D0F030F040C0808023
:100D20008080000000000000000007070C0F111F6A
:100D3000111F131F131F373F477F427F447F407FA0
:100D4000203F263F303F101F1F1F00000000000003
:100D50008080E0E020E050F010F008F848F81CFC3B
:100D600028F8A8F808F8C8F848F838F860E040C053
:100D7000C0C000000000000007070D0F1B1F313F1F
:100D8000213F233F131F171F363F677F427F467F58
:100D90006D7F203F303F181F0B0F0707000000003A
:100DA0008080C0C020E018F810F008F808F828F893
:100DB00028F828F8A8F848F858F8B0F0A0E060E063
:100DC000C0C00000000000000F0F090F1B1F333FC1
:100DD000213F233F333F171F171F363F677F427F57
:100DE000427F667F303F303F0F0F030300000E103D
:100DF00000000000F0F018F8C8F810F0E8F8E8F883
:100E000010F0B0F020E0E0E0000000000000000082
:100E1000010103031E1F111F2F3F2F3F111F1E1F14
:100E20000303010100000000080800000000007832
:100E3000307810780038000000000000001C083EE8
:100E40001C3E1C3E083E001C0000007E347F2E7FAE
:100E5000147F3AFF76FF28FF007C001C08FC50FC42
:100E600028FE54FE28FE107C0038010204081020E1
:100E70004080080B00020202010009040000010288
:100E800002000005240010010524010101042402D0
:100E9000060524060001070581031000400904012E
:100EA00000020A0000000705020240000007058357
:100EB000024000000403090412010002EF02014095
:100EC0004123368000010102030141726475696E9D
:100ED0006F204C4C430041726475696E6F204C6505
:100EE0006F6E6172646F00001624022411241FBE0D
:100EF000CFEFDAE0DEBFCDBF12E0A0E0B1E0EEEA76
:100F0000F6E502C005900D92A034B107D9F727E0AD
:100F1000A0E4B2E001C01D92A63EB207E1F717E0DF
:100F2000C5E7D7E004C02197FE010E943F2BC437DC
:100F3000D107C9F70E94AF170C944A2B0C940000FC
:100F400080914C0208950895089580E090E00895FE
:100F5000CB0108957F928F929F92AF92BF92CF92D2
:100F6000DF92EF92FF920F931F93CF93DF93EC01E9
:100F700049015A018B01C12CD12C7601C814D90426
:100F8000EA04FB0484F5F80171908F018F8580FFDE
:100F90000BC0E881F9810084F185E02D20E144E077
:100FA00060E070E0CE010995EB85FC858D859E851E
:100FB000E817F90738F470828B859C8501969C8729
:100FC0008B870BC0E881F981672D70E0028CF38D6F
:100FD000E02DCE010995019649F02FEFC21AD20AF1
:100FE000E20AF20ACBCFB401C50102C0B601C701C3
:100FF000DF91CF911F910F91FF90EF90DF90CF90F5
:10100000BF90AF909F908F907F900895CF93DF9384
:10101000EC01E881F9810288F389E02D09958F3F81
:101020002FEF920731F02D813E812F5F3F4F3E839E
:101030002D83DF91CF9108958FEF9FEF089560E0AA
:1010400070E0CB01089580E090E00895CB01089511
:10105000CF93DF93EC0188899989DC01ED91FC91B4
:101060000084F185E02D0995892BA9F38889998958
:10107000DC01ED91FC910284F385E02DDF91CF91AD
:101080000994CF93DF93EC0188899989DC01ED9174
:10109000FC910084F185E02D0995892BA9F38889BD
:1010A0009989DC01ED91FC910484F585E02DDF91B7
:1010B000CF910994AF92BF92CF92DF92EF92FF92BD
:1010C0000F931F93CF93DF9300D000D0CDB7DEB73F
:1010D0008C015B01C12CD12C7601F80180899189AA
:1010E000DC01ED91FC910284F385E02D29833A83A4
:1010F0004B835C83099529813A814B815C818F3FC9
:1011000071F0C216D306E406F5064CF4D5018D93B2
:101110005D01BFEFCB1ADB0AEB0AFB0ADECFC7018A
:10112000B6010F900F900F900F90DF91CF911F910C
:101130000F91FF90EF90DF90CF90BF90AF90089508
:10114000DC0150968D919C915197DC01ED91FC91C1
:101150000084F185E02D099480E090E0089580E01E
:1011600090E0089580E090E0089580E090E0089598
:101170000895CF93DF93C0912607D0912707E88188
:10118000F9810084F185E02DCE010995892BB9F311
:10119000E881F9810284F385E02DCE01DF91CF91C2
:1011A00009941F93CF93DF93182FC0912607D091F6
:1011B00027078A3041F4E881F9810190F081E02D20
:1011C0006DE0CE010995E881F9810190F081E02D73
:1011D000612FCE01099521E030E0019711F420E064
:1011E00030E0C901DF91CF911F9108950F931F93B4
:1011F000CF93DF938C01EB016F3F8FEF780719F4EA
:1012000080E090E00FC06A3031F46DE0F801808931
:1012100091890E94C2136C2FF801808991890E94E4
:10122000C213CE01DF91CF911F910F9108958F923C
:101230009F92BF92CF92DF92EF92FF920F931F93F4
:10124000CF93DF9300D000D0CDB7DEB78C014B0138
:10125000C12CD12C7601C216D306E406F50644F55E
:10126000F401B1904F01FAE0BF120EC06DE0F80139
:101270008089918929833A834B835C830E94C213BE
:101280005C814B813A8129816B2DF801808991899C
:1012900029833A834B835C830E94C213FFEFCF1AEA
:1012A000DF0AEF0AFF0A5C814B813A812981D3CFA3
:1012B000CA01B9010F900F900F900F90DF91CF915D
:1012C0001F910F91FF90EF90DF90CF90BF909F9074
:1012D0008F9008950C942C27FB0120813181FC0113
:1012E00031832083FB0142815381F90136972081AC
:1012F0003181FC01E20FF31F5183408308952BEAF3
:1013000031E0FC013183208325EB31E0318F208FE8
:101310006BEB71E00C946C09DC01ED91FC9136975C
:1013200020813181820F931F0C947F09CF93DF932B
:10133000EC010E947F09CE01DF91CF910C942C2704
:10134000DC01ED91FC91369720813181820F931F52
:101350000C949609089508950C942C27DC01ED91C6
:10136000FC91369720813181820F931F0C94AC0938
:101370000C942C27FB0120813181FC0131832083D7
:10138000FB0142815381F901369720813181FC01B3
:10139000E20FF31F51834083089523E232E0FC0102
:1013A000318320832DE232E0358B248B63E372E0BE
:1013B0000C94BA09DC01ED91FC91369720813181C2
:1013C000820F931F0C94CD09CF93DF93EC010E9401
:1013D000CD09CE01DF91CF910C942C27DC01ED914A
:1013E000FC91369720813181820F931F0C94E40980
:1013F000089508950C942C27DC01ED91FC9136970B
:1014000020813181820F931F0C94FA090C942C27B0
:10141000CF92DF92EF92FF920F931F93CF93DF93C0
:101420000E945715811520E8920761F480917100A0
:101430008D7F80937100109291004698479810928A
:101440004F028BC021E020934F02813020E89207A9
:1014500051F4809147029091480290934A02809300
:1014600049020E94571597FD05C020914E02222384
:1014700009F43FC020914D0221113BC021E020938F
:101480005002EC01DF77209769F481E080935102EC
:1014900046983FE9C32E3FE0D32EE12CF12CCAEF52
:1014A000D0E014C08E0120E030E060E472E48FE010
:1014B00090E0A90198010E94E12769017A0181E089
:1014C000C81AD108E108F10810925102E0917006A3
:1014D000F09171060995811103C081E0809351025A
:1014E000809150028823B9F180915102811133C05B
:1014F00003C010925002C5CF46992DC0479A0E9452
:101500005715009771F09C01DE010E943528DC011F
:10151000CB0129E0B595A795979587952A95D1F7A1
:1015200003C08FEF9FEFDC01109290002AE0209320
:101530009100D0929900C0929800809352029093AB
:101540005302A0935402B0935502809171008260BF
:101550008093710002C04798D2CFDF91CF911F9145
:101560000F91FF90EF90DF90CF9008954F925F9290
:101570006F927F928F929F92AF92BF92CF92DF92A3
:10158000EF92FF920F931F93CF93DF9300D000D081
:10159000CDB7DEB749012C2DA02EB12CDC01AA0D50
:1015A000BB1D1A161B060CF0B3C1803891050CF058
:1015B000AFC1FB01EE0DF11D1E161F060CF0A8C1F8
:1015C000603471050CF0A4C14115510509F4A0C1A6
:1015D000FB0177FF04C0EE27FF27E61BF70B3E2F2A
:1015E0003770732EFB0177FD379633E0F595E7955D
:1015F0003A95E1F73E2F77FF07C0772029F03FEFBC
:101600003E0F68E06719762E97FF05C0EE27FF278B
:10161000E81BF90B02C0E0E0F0E0A038B10524F0CF
:1016200060E8F62EF81A01C0F02EFE1A632F032E82
:10163000000C770B3F3F1CF4A62FA09501C0A0E043
:1016400011E0BE2DB77009F410E0E694E694E6943C
:10165000E10E6E0D711D693071051CF068E0E62E1B
:10166000E31AEA1A3A0F60E83603800D911D11243F
:101670008E0F9F1FA09FE00DF11D11244E0F5F1FC5
:1016800061E070E0072C02C0660F771F0A94E2F752
:10169000233009F4FCC098F4213009F4AEC02230A4
:1016A00009F036C12FEF269F8001279F100D1124CE
:1016B000009510951C830B835C80E30E27C02A3FA6
:1016C00029F02B3F09F024C1E30E83C0E30E4EC086
:1016D000FA01EC0DFD1DE491E69F4001E79F900C9F
:1016E00011249A82898237FD04C02C912023822AFA
:1016F0008C92711014C0EFEFCE1ADE0A1196CF143F
:1017000038F33F5F4A0D5B1D80589F4F3E1509F42B
:10171000FFC0DC01AE59BD4FC12CD12CF0CF37300A
:1017200054F7FD01E058FF4F208125219A80292997
:101730002083E1CFFA01E00FF11FE491E69F600101
:10174000E79FD00C1124DA82C98237FD03C02C91A7
:10175000C22ACC92711013C00F5F1F4F11960F1544
:1017600048F33F5F4A0D5B1D80589F4F3E1509F4BB
:10177000CFC0DC01AE59BD4F00E010E0F0CF3730F4
:101780005CF7FD01E058FF4FD0802A812D2920838E
:10179000E3CFFA01EC0DFD1DE491E69FD001E79F38
:1017A000B00D1124BA83A98337FD05C0A095F801B7
:1017B0002081A223A083711015C0FFEFCF1ADF0A8A
:1017C0000F5F1F4FCF1428F33F5F4A0D5B1D8058FA
:1017D0009F4F3E1509F49CC08C010E591D4FC12C22
:1017E000D12CF0CF37304CF7F801E058FF4F2A8169
:1017F0002095A0812A232083E0CFD401AE0FBF1F04
:10180000E30E3E1509F484C0FC01EE59FD4F4F0173
:10181000C12CD12CCF1498F5FD01EC0DFD1DE491E8
:10182000E69F8001E79F100D1124009510951C8301
:101830000B83FA01EC0DFD1DE491E69F2001E79F6B
:10184000500C11245A82498237FD05C0F4012081D1
:101850000223402A4082772059F037304CF4F401BB
:10186000E058FF4F10812C8121231A81212B2083E6
:10187000FFEFCF1ADF0A2FEF821A920ACBCF3F5F1A
:101880004A0D5B1DAA0DBB1D80589F4FBACFCF2CB0
:10189000D12CE40FF51FDC01AE59BD4FAC014E5108
:1018A0005D4F00E810E00C191D09AC18BD08AA0C2A
:1018B000BB1C6F2C2E2DCF93DF93EA018590C59032
:1018C000772059F0869E4001C69E600137302CF487
:1018D0009881D0949D219929999333233AF09C9132
:1018E000C0949C2198299D930C94770C1196FA949E
:1018F00029F7EA9451F0F62C33951124EA0DF11DE5
:10190000A00FB11DC00FD11DD9CFDF91CF911124F0
:101910000F900F900F900F90DF91CF911F910F912B
:10192000FF90EF90DF90CF90BF90AF909F908F90FF
:101930007F906F905F904F900895CF92DF92EF92DB
:101940000F931F93CF93DF934115510591F1FA0146
:1019500004913196E4904E5F5F4F222321F130E0F5
:10196000220F331FC02FD0E0AE2DA695A695A695C9
:10197000EA2FF0E0A1E0B0E01E2D177011F4A0E016
:10198000B0E0AE0FBF1FCA9F6001CB9FD00CDA9FA3
:10199000D00C11242C9DF0012D9DF00D3C9DF00DDF
:1019A00011244E0F5F1F23E0C22E20E030E00E9482
:1019B000B60ADF91CF911F910F91EF90DF90CF90FA
:1019C0000895BC0180E090E00C94EE138FB12CB12F
:1019D00093B130E02095309520743327A90123E09E
:1019E000559547952A95E1F7292F30E020953095B8
:1019F000207133273595279535952795242B80958C
:101A0000807F822B089583B7817F83BF83B78160F6
:101A100083BF889583B78E7F83BF08958EBD0000F6
:101A20000DB407FEFDCF089510924C023E983F98EA
:101A300008953E9A3F9A81E080934C020895FC01FC
:101A4000840F911D18161906E4F5E038F105CCF560
:101A5000F7FF02C0E0E0F0E08138910514F080E883
:101A600090E0382F3E1BAB0177FF02C0495F5F4F0C
:101A700083E0559547958A95E1F75695542F44276D
:101A800057954795E40FF51FEE59FD4F677077277F
:101A900081E090E001C0880F6A95EAF7482F222381
:101AA00049F0213071F4315020F08081842B8193F2
:101AB000FACF08958095315020F09081982391932A
:101AC000FACF089560387105D0F440345105B8F468
:101AD000EAE6FEE080E1849FD001A0781124A60F01
:101AE0004770E40FF11D8491AE59BD4F222319F0C8
:101AF0006C91862B03C080956C9186238C930895FE
:101B0000089508950895AF92BF92CF92DF92EF9219
:101B1000FF920F931F93CF93DF936C01EB01142F70
:101B2000022F7C015C01A40EB11CEA14FB0454F4E6
:101B300021E0402FBE01C7010E9471158FEFE81A06
:101B4000F80AF3CF22E0200F42E0410FBE016150BE
:101B5000710900E0C60101970E949D15DF91CF91A8
:101B60001F910F91FF90EF90DF90CF90BF90AF90BB
:101B700008954F925F926F927F928F929F92AF9251
:101B8000BF92CF92DF92EF92FF920F931F93CF936A
:101B9000DF9300D000D000D0CDB7DEB7FC012983A1
:101BA0003A834B835C8329813A81EB80FC80472F09
:101BB00084899589A688B788518D708DDC01A70F1F
:101BC000B11D2A173B070CF0B7C0D901A60FB11DF4
:101BD000BD018A179B070CF0AFC0D501A50FB11D41
:101BE000EA16FB060CF0A8C06701C40ED11CAC14A9
:101BF000BD040CF0A1C08F0146855785821793075D
:101C0000BCF4F8018289B901681B7109641B750B6A
:101C10006F5F7F4F072E000C880B990B0E94652980
:101C2000D80112962D913D914D915C9115970DC063
:101C3000641B750B072E000C880B990B0E946529FD
:101C4000F80122813381448155810E9444282B016F
:101C50003C01D80150968D919C915197AE14BF04D0
:101C6000ACF453962C91B701621B7109681B790B78
:101C70006F5F7F4F072E000C880B990B0E94652920
:101C8000F801268137814085518510C0B601681B57
:101C9000790B072E000C880B990B0E946529D8013F
:101CA00016962D913D914D915C9119970E94442873
:101CB0006B017C0120E030E0A901C301B2010E9468
:101CC000542A53014201181624F0B7FAB094B7F819
:101CD000B09420E030E0A901C701B6010E94542A67
:101CE000A701960118160CF05058C501B4010E94C6
:101CF000B12887FF11C0A3019201F80162817381AD
:101D0000848195810E944528D80112966D937D9318
:101D10008D939C93159710C0A7019601F8016681D9
:101D20007781808591850E944528D80116966D930C
:101D30007D938D939C93199726960FB6F894DEBFEA
:101D40000FBECDBFDF91CF911F910F91FF90EF900C
:101D5000DF90CF90BF90AF909F908F907F906F90CB
:101D60005F904F9008954F925F926F927F928F9203
:101D70009F92AF92BF92CF92DF92EF92FF920F931A
:101D80001F93CF93DF93EC01CE8CDF8CE8A0F9A0FA
:101D900020E030E04AE754E46A8D7B8D8C8D9D8D88
:101DA0000E94592A20E030ED4FE557E40E94BB28FD
:101DB0004B015C010E94B6289B01AC01C701B60132
:101DC0000E94592A2A813B814C815D810E944528CD
:101DD0002B013C016A837B838C839D83C501B40105
:101DE0000E94C62A9B01AC01C701B6010E94592A74
:101DF0009B01AC016E817F81888599850E94442872
:101E00006B017C016E837F838887998720E030E0B7
:101E1000A901C301B2010E94B12887FF05C01A823F
:101E20001B821C821D8231C0AA84BB8400910801E0
:101E300010910901B5010B2C000C880B990B0E9425
:101E400065299B01AC01C301B2010E9445282B0109
:101E50003C01B801012E000C880B990B0E946529EA
:101E60009B01AC01C301B2010E94542A18166CF404
:101E7000C8018A199B09BC01990F880B990B0E9414
:101E800065296A837B838C839D8320E030E0A901F0
:101E9000C701B6010E94B12887FF05C01E821F82BC
:101EA0001886198631C0AC84BD8400910A01109156
:101EB0000B01B5010B2C000C880B990B0E946529B6
:101EC0009B01AC01C701B6010E9445286B017C0152
:101ED000B801012E000C880B990B0E9465299B010B
:101EE000AC01C701B6010E94542A18166CF4B8015F
:101EF0006A197B09072E000C880B990B0E94652933
:101F00006E837F8388879987DF91CF911F910F918F
:101F1000FF90EF90DF90CF90BF90AF909F908F9009
:101F20007F906F905F904F9008958F929F92AF92A5
:101F3000BF92EF92FF920F931F93CF93DF93EC0129
:101F40000E851F850115110531F49A858C85198A36
:101F5000188A9A8B8B8B68897989072E000C880BDD
:101F6000990B0E9465292E813F81488559850E94E1
:101F700045280E942D294B015C01EA88FB88B801A5
:101F8000110F880B990B0E9465292A813B814C8196
:101F90005D810E9445280E942D297D8B6C8B9F8A34
:101FA0008E8AE88EF98EDF91CF911F910F91FF906D
:101FB000EF90BF90AF909F908F90089540915D02F9
:101FC00050915E0220915B0230915C0242175307F0
:101FD000B4F49091E8009570E1F39091E80092FDDF
:101FE00019C08093F10080915D0290915E0201968C
:101FF0008F739927892B19F48EEF8093E8008091D5
:102000005D0290915E02019690935E0280935D0264
:1020100081E0089580E00895DF92EF92FF920F93A0
:102020001F93CF93DF93D82E8A017B01E40EF51E18
:10203000EB01CE15DF0571F0D7FE03C0FE018491E0
:1020400001C088810E94DE0F21968111F2CF8FEFAF
:102050009FEF01C0C801DF91CF911F910F91FF90B9
:10206000EF90DF900895615030F02091F100FC0175
:1020700020830196F8CF289884E680936002089523
:10208000CF92DF92EF92FF920F931F93CF93DF9344
:102090006C017A018B01C0E0D0E0CE15DF0589F03C
:1020A000D8016D918D01D601ED91FC910190F081E7
:1020B000E02DC6010995892B11F47E0102C02196FD
:1020C000ECCFC701DF91CF911F910F91FF90EF905F
:1020D000DF90CF900895CF93DF931F92CDB7DEB7F7
:1020E0006983DC01ED91FC910280F381E02D41E0F8
:1020F00050E0BE016F5F7F4F09950F90DF91CF9148
:10210000089583E08093E9008091F200882319F01C
:102110008AE38093E8000895FC018485958597FD06
:102120000BC09FB7F89482E08093E9008091F200A1
:102130009FBF90E0019608959FB7F89482E0809346
:10214000E9008091F2009FBF90E008950E94452B26
:102150000F931F93CF93DF931F92CDB7DEB782E02B
:10216000898342E450E062E77EE080E80E940C1040
:102170000E949B17DC0112960D911C91139701157B
:10218000110569F0D801ED91FC910280F381E02DF9
:10219000BE016F5F7F4FC801099597FF07C0898116
:1021A0000F90DF91CF911F910F910895F801008555
:1021B0001185E5CF0E948A1790E00895CF93DF93B1
:1021C0001F92CDB7DEB7FC018485958597FD05C0CC
:1021D0002FEF3FEF358724870BC0CE0101960E9479
:1021E0006017019719F4898190E002C08FEF9FEF8B
:1021F0000F90DF91CF9108950F931F93CF93DF93AB
:102200001F92CDB7DEB78C01FC018485958597FFC1
:102210000EC0CE0101960E946017019719F4298122
:1022200030E002C02FEF3FEFF80135872487F80137
:10223000848595850F90DF91CF911F910F9108951F
:102240001F920F920FB60F9211248F939F9380913C
:10225000E1009091E100937F9093E10083FF0FC034
:102260001092E90091E09093EB001092EC0092E361
:102270009093ED001092610298E09093F00082FF3D
:1022800020C093E09093E9009091F200992319F017
:102290009AE39093E80090915F02992339F090912E
:1022A0005F02915090935F02992389F190916002AF
:1022B000992339F090916002915090936002992394
:1022C00041F184FF10C08091E2008E7E8160809396
:1022D000E2008091E1008F7E8093E10080914102D5
:1022E0008E7E806111C080FF16C08091E2008E7EDC
:1022F00080618093E2008091E1008E7E8093E10016
:10230000809141028E7E81608093410204C05D9A7B
:10231000CDCF289AD6CF9F918F910F900FBE0F905F
:102320001F9018951F920F920FB60F921124CF9203
:10233000DF92EF92FF920F931F932F933F934F9350
:102340005F936F937F938F939F93AF93BF93EF931D
:10235000FF93CF93DF93CDB7DEB76C97DEBFCDBFD2
:102360001092E9008091E80083FFEDC168E0CE01A2
:1023700045960E94331082EF8093E8008D8987FF95
:1023800005C09091E80090FFFCCF03C09EEF9093B2
:10239000E800982F907609F0C6C09E892F89188D85
:1023A00091110CC0803829F4809142028093F10091
:1023B00002C01092F1001092F10048C1422F50E08B
:1023C000512B913051F4811141C14130510509F037
:1023D0003DC1809142028D7F0BC0933061F4811129
:1023E00035C14130510509F031C18091420282600E
:1023F000809342022BC1953041F48091E80080FF28
:10240000FCCF20682093E30021C1963009F05FC023
:10241000EB8CFC8C1092E90010925E0210925D022F
:10242000123091F510925C0210925B020E94A8108B
:1024300099E0BE016F5F7F4FDB01E92F1D92EA95A6
:10244000E9F799831A8391E09E8390EA98879AEF3F
:10245000998720915D0230915E02275F3F4F3C8358
:102460002B838D831092E90010925E0210925D0220
:10247000F0925C02E0925B0249E050E080E00E9452
:102480000C100E94A810E2C0F0925C02E0925B0285
:102490000E949B17DC011296ED90FC901397E114BB
:1024A000F10409F4C0C0D701ED91FC910480F581DD
:1024B000E02DBE016B5E7F4FC7010995009719F0B3
:1024C0000CF0C4C0C7C0F701E084F184E8CF9730B6
:1024D00009F4C0C0983021F481E08093F100B6C0C7
:1024E000993009F0B3C0837009F0B4C0E5E4F1E0BD
:1024F00081E021E036E39081992361F08093E90047
:102500002093EB0091919093EC003093ED008F5F5E
:10251000873089F78EE78093EA001092EA008F896E
:102520008093610293C08B8D9C8D1092E900109274
:102530005E0210925D0290935C0280935B02898D33
:10254000811156C08E899D89913A59F4813209F0E2
:1025500081C047E050E062E371E080E00E940C102F
:1025600075C0913209F076C0833289F4888D90E08D
:10257000982F88272F89822BA0E0B0E080932E012E
:1025800090932F01A0933001B09331015FC080324E
:1025900069F48091E80082FFFCCF67E082E391E07C
:1025A0000E9433108BEF8093E80006C0823209F05E
:1025B0004DC08F898093390180914002882319F0A2
:1025C000EEEFFAE002C0E0E0F8E080913201909195
:1025D0003301A0913401B0913501803B9440A105B5
:1025E000B10509F07BC08091390180FF93C076C0AE
:1025F0000E949B17DC0112960D911C9113970115F7
:10260000110541F1D801ED91FC910190F081E02D8F
:10261000BE016B5E7F4FC8010995811117C0F8019B
:1026200000851185ECCF113009F44EC0133091F4C0
:102630008F89882309F445C0823081F440E860E145
:1026400086ED9EE00E94C523882321F08EEF8093C3
:10265000E80079C081E28093EB0075C0813029F4F5
:1026600040E86BE08AEC9EE0EDCF833099F70E9462
:102670009B17DC011296ED90FC9013978E010F5F73
:102680001F4F6801E114F10479F0D701ED91FC913D
:102690000680F781E02DB801C7010995080F111DCB
:1026A000F701E084F184EECFD8011C92F60101908D
:1026B0000020E9F73197BF016C197D0940E0C601A0
:1026C000C1CF64EB7EE002C068EB7EE0611571056E
:1026D00009F2FB01449150E080E840CF0FB6F89436
:1026E000A8958091600088618093600010926000DE
:1026F0000FBEA895EE3F2AE0F20739F08091FE0A5E
:102700009091FF0A91838083A1CF1092FF0A1092CB
:10271000FE0A9CCFEE3F8AE0F80731F0808191817C
:102720009093FF0A8093FE0A87E797E7918380835F
:102730009BE088E10FB6F894A895809360000FBEE7
:102740009093600083CF6C960FB6F894DEBF0FBEF7
:10275000CDBFDF91CF91FF91EF91BF91AF919F914D
:102760008F917F916F915F914F913F912F911F9129
:102770000F91FF90EF90DF90CF900F900FBE0F90D2
:102780001F901895DC01ED91FC910190F081E02DF6
:1027900009943FB7F8948091570290915802A09104
:1027A0005902B0915A0226B5A89B05C02F3F19F0D7
:1027B0000196A11DB11D3FBFBA2FA92F982F8827C1
:1027C000820F911DA11DB11DBC01CD0142E0660F1C
:1027D000771F881F991F4A95D1F708958F929F926E
:1027E000AF92BF92CF92DF92EF92FF926B017C018A
:1027F0000E94C9134B015C01C114D104E104F1042E
:10280000F1F00E94C913DC01CB0188199909AA09CA
:10281000BB09883E9340A105B10570F321E0C21ABF
:10282000D108E108F10888EE880E83E0981EA11C0B
:10283000B11CC114D104E104F10419F7DDCFFF90FC
:10284000EF90DF90CF90BF90AF909F908F900895C2
:102850008F929F92AF92BF92CF92DF92EF92FF92B0
:102860000F931F93CF93DF935C016B017A018091EB
:102870003901882309F45BC080916102882309F43F
:1028800056C08091410280FF05C08091E0008260C7
:102890008093E000E70110E00AEF83E0882E9AE3DE
:1028A000992E2097D9F10E948A1781110AC00150F0
:1028B00009F43DC061E070E080E090E00E94EE131A
:1028C000F0CF282F30E0C217D3070CF48C2F4FB76E
:1028D000F8948092E9009091E80095FF1DC0282FA0
:1028E00030E0C21BD30BF601982F915020F081915C
:1028F0008093F100FACFC20ED31E112319F09092EB
:10290000E80009C08091E80085FD06C09092E800CB
:1029100011E0209709F010E04FBFC3CF1111C3CFD2
:102920005D9884E680935F021E141F0444F081E0EA
:1029300090E0F5019383828380E090E001C0C701BD
:10294000DF91CF911F910F91FF90EF90DF90CF908B
:10295000BF90AF909F908F9008951F920F920FB6E7
:102960000F9211242F933F938F939F93AF93BF9315
:102970008091430290914402A0914502B091460299
:102980003091560223E0230F2D3720F40196A11D2C
:10299000B11D05C026E8230F0296A11DB11D20938D
:1029A00056028093430290934402A0934502B09351
:1029B00046028091570290915802A0915902B0911D
:1029C0005A020196A11DB11D80935702909358029F
:1029D000A0935902B0935A02BF91AF919F918F91EA
:1029E0003F912F910F900FBE0F901F9018951F923F
:1029F0000F920FB60F9211242F933F934F935F9333
:102A00006F937F938F939F93AF93BF93EF93FF93B6
:102A10008091520290915302A0915402B0915502BC
:102A2000892B8A2B8B2B81F18091510281110BC054
:102A300098B180E4892788B980915002882319F0E1
:102A400088B1805888B98091520290915302A09128
:102A50005402B0915502181619061A061B06B4F452
:102A60008091520290915302A0915402B09155026C
:102A70000197A109B1098093520290935302A09348
:102A80005402B093550202C00E94080AFF91EF91D0
:102A9000BF91AF919F918F917F916F915F914F9176
:102AA0003F912F910F900FBE0F901F90189580911E
:102AB0004B02E0914902F0914A02882349F0CF018C
:102AC000029690934A0280934902859194910895C9
:102AD000CF01029690934A028093490280819181AE
:102AE0000895DF92EF92FF920F931F93CF93DF939E
:102AF0007C01D22E8B01040F111DEB0177FF0EC05C
:102B0000C0E0D0E00BC0C417D5077CF42D2DAE017A
:102B1000B70184E197E00E94620D2196A80101347B
:102B200011058CF340E450E0EECFDF91CF911F917F
:102B30000F91FF90EF90DF900895DF92EF92FF9258
:102B40000F931F93CF93DF93EC017B01D42E122FB1
:102B50006034710520F4202FCE010E941F0DB701B3
:102B6000610F711D615071096034710528F4202FC7
:102B70004D2DCE010E941F0D202F412FB701CE01F8
:102B80000E947115CE018D0D911D202F412FB7018F
:102B90000197DF91CF911F910F91FF90EF90DF9000
:102BA0000C947115809162028EBDE3E6F2E0819192
:102BB0000DB407FEFDCF8EBD86E0E236F807B9F70B
:102BC0000DB407FEFDCF089520911A07282329F49C
:102BD00090911907982381E009F480E008955F92AD
:102BE0006F927F928F929F92AF92BF92CF92DF921D
:102BF000EF92FF920F931F93CF93DF93EC018B0122
:102C00007A01A901461B570B57FF03C05195419507
:102C10005109C7018C1B9D0B97FF03C091958195AE
:102C20009109552453948417950714F0512C0AC028
:102C30009E2D8F2D7901292F382F9C2F8D2FE80164
:102C4000092F182FEC16FD0654F4902F812F8901BF
:102C5000292F382F9C2F8D2FE701E92EF82E3701D1
:102C60006C1A7D0A5901A01AB10AB7FE03C0B194CB
:102C7000A194B108630177FE03C08FEFC81AD80A88
:102C8000D594C7940217130714F08FEF01C081E0A9
:102C9000882E880F9908EC16FD06B4F021E0552027
:102CA00019F0AE01B80102C0A801BE0184E197E0AD
:102CB0000E94620DCA18DB08D7FE04C0080D191D5A
:102CC000C60CD71C2196E7CFDF91CF911F910F91B2
:102CD000FF90EF90DF90CF90BF90AF909F908F903C
:102CE0007F906F905F9008952F923F924F925F92E6
:102CF0006F927F928F929F92AF92BF92CF92DF920C
:102D0000EF92FF920F931F93CF93DF93CDB7DEB770
:102D1000A2970FB6F894DEBF0FBECDBF8C016B013A
:102D2000FC01E0A4F1A466817781808591850E94F1
:102D30002D291B012C013B01F801628173818481E3
:102D400095810E942D295B0126E0F8013E96DE0167
:102D50005D9601900D922A95E1F726E0FE017D96A1
:102D6000DE01199601900D922A95E1F77A83698325
:102D70003C822B82DE82CD82F886EF828EE0FE01DD
:102D80003196DE011F9601900D928A95E1F78090B1
:102D900011079090120784010F5F1F4F8016910654
:102DA00008F06EC080910F0790911007801791076F
:102DB000B8F59401275F3F4F8217930788F540903D
:102DC0000D0750900E073093100720930F078EE0E9
:102DD000F82FF29FC001F39F900D11240E949726B7
:102DE00080930D0790930E07A2019C0160E070E0B4
:102DF0008EE06815790589F02115310539F0FA0161
:102E0000D901982F01900D929A95E1F76F5F7F4F4E
:102E1000425F5F4F225F3F4FECCFC2010E942C27E1
:102E200020911107309112078EE0829FB001839F9D
:102E3000700D112440E050E08EE0982E20173107ED
:102E400010F5A0910D07B0910E07CA01860F971FCC
:102E5000A80FB91F109779F0B88AAF867A8A698A65
:102E6000DC8ACB8AFE8AED8AFE013F96892D01908D
:102E70000D928A95E1F72F5F3F4F425F5F4FDECFA4
:102E80000815190520F41093120700931107A29654
:102E90000FB6F894DEBF0FBECDBFDF91CF911F916B
:102EA0000F91FF90EF90DF90CF90BF90AF909F90E9
:102EB0008F907F906F905F904F903F902F900895EC
:102EC000FC0180916102811103C08FEF9FEF089593
:102ED0009FB7F89482E08093E9002091F20030E0FF
:102EE0001216130614F421E030E02115310559F0D3
:102EF000289884E6809360028091F100808380911D
:102F0000F200882319F09FBFC90108958BE68093D2
:102F1000E800F9CF2FB7F89483E08093E90090910F
:102F2000E800892F807295FF04C09091F20080E440
:102F3000891B2FBF089580912C0781110DC082E05D
:102F40008093280784E08093290710922B07109222
:102F50002A0781E080932C0788E297E00895CF93B9
:102F6000DF93CDB7DEB7A2970FB6F894DEBF0FBEE2
:102F7000CDBF789484B5826084BD84B5816084BD02
:102F800085B5826085BD85B5816085BD80916E0007
:102F9000816080936E001092810080918100826038
:102FA0008093810080918100816080938100809175
:102FB0008000816080938000809191008260809386
:102FC00091008091910081608093910080919000A8
:102FD0008160809390008091C10084608093C100E3
:102FE0008091C10082608093C1008091C1008160A6
:102FF0008093C1008091C30081608093C300809161
:10300000C00082608093C0008091C2008160809384
:10301000C20080917A00846080937A0080917A0067
:10302000826080937A0080917A00816080937A0038
:1030300080917A00806880937A00109261021092E9
:103040004202109241028091D70081608093D700A4
:1030500080EA8093D80089B5806189BD89B5826096
:1030600089BD09B400FEFDCF61E070E080E090E032
:103070000E94EE138091D8008F7C80618093D800ED
:103080008091E000807F8093E0008091E1008E7E5F
:103090008093E1008DE08093E200559A209AEEEF54
:1030A000FFE7859194918B3F9C4D19F481E08093CB
:1030B000400281EC80937C0085B1806F85B92498B3
:1030C00084B1866E84B95E9A5F988AB1806D8AB940
:1030D000769A6E9881B3806F81BB899880B38D702A
:1030E00080BB80E58CBD81E08DBD85E090E00E94D5
:1030F000E10C5F9A85E090E00E94E10C5E985C989C
:103100000AEC10E05DE0F52EF00EF80184910E94CB
:103110000E0D0F5F1F4FF012F8CF5C9A81E880937D
:10312000640081E08093650000E014E080E00E948C
:103130000E0D01501109D1F70E94E60C87FF1FC048
:103140005C9885EA0E940E0D5C9A2E982F982D9817
:10315000809164008062809364000E94030DFDCF23
:103160002D980E94E60C8478843871F00E94E60C59
:103170008471843129F188EC90E00E94E10C0E9476
:10318000E60C82FDEDCF38C02D9A88EC90E00E94CD
:10319000E10C2F9882E090E00E94CB278F3F29F02E
:1031A0006FEF82E090E00E94D32784EF91E00E94CD
:1031B000E10C2F9A0E94E60C84788438D9F3D6CF9C
:1031C0002D9A88EC90E00E94E10C2E9882E090E02D
:1031D0000E94CB27882329F060E082E090E00E94E3
:1031E000D32784EF91E00E94E10C2E9A0E94E60C16
:1031F00084718431D9F3BFCF2D9A82E090E00E9490
:10320000CB27882319F00E94190D02C00E94140DCB
:1032100082E390E00E94E10C0E94E60C8111F8CF5D
:10322000809164008E7F8093640080917A00806436
:1032300080937A0080917A0086FDFCCFE090780040
:10324000F09079000E94C913870120E030E09801D6
:1032500011270027600F711F821F931F61157105D1
:103260008105910511F00E942726809164008160FC
:10327000809364002FB7F8948091430290914402A8
:10328000A0914502B09146022FBF40912007509176
:1032900021076091220770912307F0902407FF20F7
:1032A00041F020911C07821B809325071092240770
:1032B0003FC284179507A607B70738F4481B42306A
:1032C00008F436C20E94030D33C211E010932407A4
:1032D00080931C0790931D07A0931E07B0931F07B0
:1032E00020911B07820F911DA11DB11D8093200706
:1032F00090932107A0932207B0932307809117078B
:103300009091180701969093180780931707809162
:10331000190780931A070E94E60C809319078F2DD6
:10332000E2E6F2E081118FEF002481938193819393
:1033300081930394D1F780912201811110C00E94E2
:10334000E60C86FD0CC0CEC180911707909118073E
:1033500066E970E00E94172B892B09F0F1C181E02A
:103360008093220180910C01811147C210911D01AF
:1033700011110FC080914C02882329F01092210175
:103380001092200106C081E090E09093210180938B
:10339000200180E20E94E4158823A1F0111109C0E8
:1033A00080910D0190910E01181619065CF5019798
:1033B00018C080912001909121011816190614F56A
:1033C00001971CC080E40E94E4158823D9F01111F4
:1033D0000DC080910D0190910E018330910594F400
:1033E000019690930E0180930D010CC080912001F5
:1033F00090912101181619062CF001969093210145
:103400008093200188E00E94E415882309F482C09B
:1034100011115DC080910D0190910E0181309105D7
:1034200021F481E080930C01E8C190931F01809307
:103430001E0181E080931D01E7E0F6E00491E8E0E1
:10344000F6E0E49082E0C82E20E030E049E056E06B
:103450006AE070E08AE090E00E94B60A80911D0167
:103460008111F7C020910D0130910E01E0901701FC
:10347000F0901801F1E0EF1AF10840911501509118
:103480001601249FC001259F900D349F900D11249B
:10349000E80EF91E4091190150911A01249FC001B4
:1034A000259F900D349F900D1124E80EF91E109168
:1034B000130180910F01A0901B01B0901C0121E02D
:1034C000A21AB10867014701880E911C2CC0809197
:1034D0001E0190911F01039709F0AECF809120014A
:1034E00090912101009719F40E94190D04C00197D1
:1034F00011F40E94140D60914C0282E090E06F8FF5
:103500000E94CB276F8D681759F082E090E00E94EF
:10351000D32706C084E00E94E415882309F48CCFE9
:1035200010921D0189CFC814D90454F421E0412F11
:10353000B501C6010E9471154FEFC41AD40AF3CF2A
:10354000209113012E5F40910F014E5F60911B018E
:1035500070911C016250710900E0C70101970E943F
:103560009D15209113013091140140910F0150914C
:10357000100160911B0170911C0161507109C7011C
:103580000E94830D60911B0170911C0120E04BEDA6
:1035900055E080911701909118010E949D0C609157
:1035A0001B0170911C01209117013091180180912D
:1035B000150190911601820F931FE0911901F0916E
:1035C0001A0120E04FEA55E08E0F9F1F0E949D0CCC
:1035D00060911B0170911C01809115019091160161
:1035E000880F991F2091170130911801820F931FA6
:1035F000E0911901F0911A01EE0FFF1F20E043E85E
:1036000055E08E0F9F1F0E949D0C60911B017091D1
:103610001C01E0911501F0911601CF01880F991F4F
:10362000E80FF91F8091170190911801E80FF91F19
:103630002091190130911A01C901880F991F820F39
:10364000931F20E047E555E08E0F9F1F0E949D0CC1
:103650006DC080911E0190911F01039709F066C013
:103660008091200190912101009739F0019751F448
:1036700042E150E08AE490E009C04DE050E08BE385
:1036800090E004C040E050E080E090E02091130121
:103690003091140160911B0170911C0161507109FE
:1036A0000E94830D60911B0170911C0120E04FE28C
:1036B00055E085E290E00E949D0C60911B017091A5
:1036C0001C0120E047E155E08CE390E00E949D0C56
:1036D00060911B0170911C0120E045EF54E08BE4E8
:1036E00090E0B4CF609126017091270120912801CC
:1036F00030912901621773070CF026CE6F5F7F4F60
:1037000070932701609326018091240190912501F7
:10371000EDE6F3E00491EEE6F3E0E4903AEFC32E39
:1037200020E030E04FE653E00E94B60A0E94D21536
:1037300080E090E0892B09F49DCD0E9400009ACD95
:10374000309327012093260180912301811133C0FA
:10375000809171008D7F8093710010924B0282E600
:1037600096E090934A028093490290934802809396
:10377000470286E194E0909363068093620682E3B9
:1037800090E090936506809364068DE298E09093B4
:1037900067068093660684E690E0909369068093BE
:1037A000680680E090E890936B0680936A060E941A
:1037B000080A1093230160912601709127018091DE
:1037C000240190912501E5EEF1E00491E6EEF1E0AF
:1037D000E4902AEFC22E20E030E047EE51E00E9454
:1037E000B60A60912C0170912D0120E047ED50E068
:1037F00080912A0190912B0129CF809111079091FE
:103800001207892B21F01092120710921107E12C58
:10381000F12C1CE28091760690917706E816F90665
:1038200008F0A1C060917206709173061E9D600140
:103830001F9DD00C1124FB01EC0DFD1D2081318159
:10384000121613060CF059C062A573A57727809154
:103850001707909118070E94172B009721F4215009
:10386000310931832083892B79F480A591A526A184
:1038700037A1215031098217930724F4019691A7AB
:1038800080A702C011A610A6CF010E94B30E80919E
:10389000720690917306C80ED91E209104013091D2
:1038A00005014091060150910701D60116966D91D0
:1038B0007D918D919C9119970E9444280E942D29F9
:1038C0004B015C0120910001309101014091020106
:1038D00050910301F60162817381848195810E9478
:1038E00044280E942D29DC01CB01F60120A548E2E5
:1038F0005EE0B4010E949D0C32C09601359527957B
:1039000035952795A3EABBE82A9FA0012B9F500D70
:103910003A9F500D1124A12CB12C9C01215031094A
:103920004217530790F44F5F5F4FD501AC0DBD1D9B
:10393000A60FB71FFD01BC96912E01900D929A948F
:10394000E1F7BCE2AB0EB11CEBCF2817390720F42E
:103950003093770620937606E1E0EE1AF108FFEF48
:10396000EF1AFF0A57CF0E94222624E630E040E0FB
:1039700050E00E94E12768307105810591050CF047
:1039800051C08091F7069091F806A091F906B09188
:10399000FA068F87988BA98BBA8B20E030E0A901BB
:1039A000BC01CD010E94542A1816E4F58091F3065B
:1039B0009091F406A091F506B091F6068B8B9C8B46
:1039C000AD8BBE8B8091DF069091E006A091E10661
:1039D000B091E2068F8B988FA98FBA8F5090E50631
:1039E0009090E6068091DB069091DC06A091DD06C2
:1039F000B091DE068B8F9C8FAD8FBE8FA090E306BB
:103A0000B090E406E0907606F090770667019FEFAD
:103A1000C91AD90AEC14FD0408F4E6C5CE14DF0473
:103A200008F4AEC689E796E00E94950F6EEE7DE041
:103A300089E796E00E94741620E030E0A9016091C9
:103A4000F7067091F8068091F9069091FA060E94A7
:103A5000542A1816ACF50E94E60C85FF13C020917D
:103A600005073091060740910707509108076091BC
:103A7000F3067091F4068091F5069091F6060E9487
:103A8000452816C00E94E60C86FF1AC02091050743
:103A90003091060740910707509108076091F3069F
:103AA0007091F4068091F5069091F6060E944428E4
:103AB0006093F3067093F4068093F5069093F606F0
:103AC0006091F3067091F4068091F5069091F606E8
:103AD0000E942D29CB0168E671E00E942B2BBC01CE
:103AE000990F880B990B0E9465296B017C0120E0DE
:103AF00030E0A9010E94B12887FF0AC020E030E031
:103B000044EB53E4C701B6010E9445286B017C01D8
:103B1000C092F306D092F406E092F506F092F60613
:103B20000E94E60C83FF29C02091090730910A0703
:103B300040910B0750910C076091F7067091F806C1
:103B40008091F9069091FA060E9445286093F70645
:103B50007093F8068093F9069093FA06C090FB06DE
:103B6000D090FC06E090FD06F090FE06A7019601BD
:103B70000E94542A181604F130C00E94E60C82FFFD
:103B80002CC02091090730910A0740910B075091F2
:103B90000C076091F7067091F8068091F9069091F4
:103BA000FA060E9444286B017C0120E030E0A90164
:103BB0000E94B12887FD09C0C092F706D092F8068E
:103BC000E092F906F092FA0608C01092F7061092F9
:103BD000F8061092F9061092FA0620E030E044EB65
:103BE00053E46091F3067091F4068091F50690918C
:103BF000F6060E94BB286B017C016091FF06709164
:103C00000007072E000C880B990B0E9465299B0169
:103C1000AC01C701B6010E94592A0E942D29709358
:103C200002076093010789ED96E00E94B30E89EDCB
:103C300096E00E94950F6CE676E089ED96E00E9492
:103C4000741620918D0630918E0640918F0650910A
:103C50009006609191067091920689ED96E00E941F
:103C6000B90D85EA96E00E94B30E85EA96E00E94BF
:103C7000950F6CE676E085EA96E00E947416209136
:103C80008D0630918E0640918F065091900660917E
:103C900091067091920685EA96E00E94B90D6091B6
:103CA000E5067091E60677FF02C06F5F7F4F75955E
:103CB0006795072E000C880B990B0E9465292091AF
:103CC000DF063091E0064091E1065091E2060E9445
:103CD00045284B015C016091E3067091E40677FF93
:103CE00002C06F5F7F4F75956795072E000C880B9C
:103CF000990B0E9465292091DB063091DC064091EA
:103D0000DD065091DE060E9445286B017C01409043
:103D1000000150900101609002017090030120E0C9
:103D200030E040E052E4C301B2010E944528A701FF
:103D300096010E94542A18163CF420E030E040E03E
:103D400052E4C701B60120C020E030E040E053E477
:103D5000C301B2010E94452820E030E040E052E477
:103D60000E944428A70196010E94B12887FF16C02F
:103D700020E030E040E052E4C701B6010E9445284F
:103D800020E030E040E053E40E94442860930001CA
:103D90007093010180930201909303014090000110
:103DA00050900101609002017090030120E030E02A
:103DB000A901C301B2010E94B12887FF09C0109276
:103DC00000011092010110920201109203012EC015
:103DD000E0900801F090090120E030E040E053E479
:103DE000C301B2010E9445282B013C01B7010F2CF1
:103DF000000C880B990B0E9465299B01AC01C30143
:103E0000B2010E94542A18168CF4B7016058710947
:103E1000072E000C880B990B0E9465296093000106
:103E2000709301018093020190930301C0900401FB
:103E3000D0900501E0900601F090070120E030E00D
:103E400040E851E4C701B6010E944528A50194014C
:103E50000E94542A18163CF420E030E040E851E477
:103E6000C501B40120C020E030E040E852E4C701C1
:103E7000B6010E94452820E030E040E851E40E946D
:103E80004428A50194010E94B12887FF16C020E0B4
:103E900030E040E851E4C501B4010E94452820E02B
:103EA00030E040E852E40E9444286093040170939B
:103EB0000501809306019093070180900401909082
:103EC0000501A0900601B090070120E030E0A901B3
:103ED000C501B4010E94B12887FF09C010920401F6
:103EE0001092050110920601109207012EC0E09079
:103EF0000A01F0900B0120E030E040E852E4C501F7
:103F0000B4010E9445284B015C01B7010F2C000C45
:103F1000880B990B0E9465299B01AC01C501B40176
:103F20000E94542A18168CF4B70160547109072EA8
:103F3000000C880B990B0E94652960930401709313
:103F40000501809306019093070140910D07509160
:103F50000E0780911107909112076EE0689F900103
:103F6000699F300D11242E503109240F351F1EE09A
:103F7000C901841B950B0E9754F1B901C90184172F
:103F8000950711F10E97FC01A089B189E280F380B9
:103F9000AE15BF05B4F4DE011196012F01900D920C
:103FA0000A95E1F7FB01DC01012F01900D920A95C2
:103FB000E1F7FE013196DB01012F01900D920A9588
:103FC000E1F76E507109DBCF425F5F4FD1CF809038
:103FD000040190900501A0900601B0900701C090E7
:103FE0000001D0900101E0900201F0900301A501D1
:103FF000940160E070E088E492E40E9444280E940A
:104000002D296F87788B898B9A8BA701960160E0A9
:1040100070E080EA92E40E9444280E942D292B013E
:104020003C01A501940160E070E0CB010E944428AE
:104030000E942D294B015C01A701960160E070E010
:10404000CB010E9444280E942D29DC01CB012F8541
:104050003889A201B4010E94EF158090040190906C
:104060000501A0900601B0900701C0900001D0901A
:104070000101E0900201F0900301A501940160E0CC
:1040800070E080EA92E40E9444280E942D296F8704
:10409000788B898B9A8BA701960160E070E080EFA6
:1040A00092E40E9444280E942D292B013C01A50185
:1040B000940160E070E088E492E40E9444280E9449
:1040C0002D294B015C01A701960160E070E080EAB8
:1040D00092E40E9444280E942D29DC01CB012F8507
:1040E0003889A201B4010E94EF15809004019090DC
:1040F0000501A0900601B0900701C0900001D0908A
:104100000101E0900201F0900301A501940160E03B
:1041100070E080E793E40E9444280E942D296F8775
:10412000788B898B9A8BA701960160E070E080E222
:1041300093E40E9444280E942D292B013C01A501F3
:10414000940160E070E080EA92E40E9444280E94BA
:104150002D294B015C01A701960160E070E080EF22
:1041600092E40E9444280E942D29DC01CB012F8576
:104170003889A201B4010E94EF158090040190904B
:104180000501A0900601B0900701C0900001D090F9
:104190000101E0900201F0900301A501940160E0AB
:1041A00070E08CE893E40E9444280E942D296F87D8
:1041B000788B898B9A8BA701960160E070E080E78D
:1041C00093E40E9444280E942D292B013C01A50163
:1041D000940160E070E080E793E40E9444280E942C
:1041E0002D294B015C01A701960160E070E080E29F
:1041F00093E40E9444280E942D29DC01CB012F85E5
:104200003889A201B4010E94EF15809004019090BA
:104210000501A0900601B0900701C0900001D09068
:104220000101E0900201F0900301A501940160E01A
:1042300070E084EB93E40E9444280E942D296F874C
:10424000788B898B9A8BA701960160E070E088ECEF
:1042500093E40E9444280E942D292B013C01A501D2
:10426000940160E070E08CE893E40E9444280E948E
:104270002D294B015C01A701960160E070E080E709
:1042800093E40E9444280E942D29DC01CB012F8554
:104290003889A201B4010E94EF158090040190902A
:1042A0000501A0900601B0900701C0900001D090D8
:1042B0000101E0900201F0900301A501940160E08A
:1042C00070E086E194E40E9444280E942D296F87C3
:1042D000788B898B9A8BA701960160E070E086E16C
:1042E00094E40E9444280E942D292B013C01A50141
:1042F000940160E070E084EB93E40E9444280E9403
:104300002D294B015C01A701960160E070E088EC6B
:1043100093E40E9444280E942D29DC01CB012F85C3
:104320003889A201B4010E94EF158090000190909D
:104330000101A0900201B09003012091040130918D
:104340000501409106015091070160E070E086E1AF
:1043500094E40E9444280E942D296B017C01A50150
:10436000940160E070E08AE794E40E9444280E948F
:104370002D292B013C01A501940160E070E086E14C
:1043800094E40E9444280E942D29DC01CB0196016F
:10439000A201B6010E94EF158090040190900501E2
:1043A000A0900601B0900701C0900001D0900101DB
:1043B000E0900201F0900301A501940160E070E03B
:1043C0008FE294E40E9444280E942D296F87788B05
:1043D000898B9A8BA701960160E070E088EC94E4E9
:1043E0000E9444280E942D292B013C01A501940123
:1043F00060E070E086E194E40E9444280E942D2948
:104400004B015C01A701960160E070E08AE794E44B
:104410000E9444280E942D29DC01CB012F85388978
:10442000A201B4010E94EF15809004019090050153
:10443000A0900601B0900701C0900001D09001014A
:10444000E0900201F0900301A501940160E070E0AA
:104450008AE794E40E9444280E942D296F87788B74
:10446000898B9A8BA701960160E070E08AEF94E453
:104470000E9444280E942D292B013C01A501940192
:1044800060E070E08FE294E40E9444280E942D29AD
:104490004B015C01A701960160E070E088EC94E4B8
:1044A0000E9444280E942D29DC01CB012F853889E8
:1044B000A201B4010E94EF15A12CB12CC12CD12C6A
:1044C0008091110790911207C816D90608F047C0CD
:1044D000E0900D07F0900E07EA0CFB1CD701149634
:1044E0008D909C90159712966D917C911397072E45
:1044F000000C880B990B0E946529209104013091D2
:10450000050140910601509107010E9444280E9434
:104510002D292B013C01F70160817181072E000CD0
:10452000880B990B0E9465292091000130910101AF
:1045300040910201509103010E9444280E942D29BC
:10454000DC01CB01F7012681A401B2010E949D0C80
:10455000FFEFCF1ADF0A2EE0A20EB11CB1CF01E0AF
:104560002EE343E061E070E081E090E00E949D1561
:1045700020E04BE362E070E082E090E00E94711581
:104580002091FB063091FC064091FD065091FE06FD
:104590006091F7067091F8068091F9069091FA06FD
:1045A0000E94BB2820E030E040E752E40E94592AF4
:1045B0009B01AC012F8F38A349A35AA30E94342931
:1045C000162F2F8D38A149A15AA160E070E08CE729
:1045D00092E40E9444280E942D2921E0412F82E08C
:1045E00090E00E947115A2C8209174063091750662
:1045F0002C153D05C0F5C70109962817390798F510
:10460000709072068090730690937506809374067E
:104610002CE2DC012A9FC0012B9F900D11240E94E7
:1046200097268093720690937306472D582D9C0110
:1046300060E070E08CE26E157F0589F02115310590
:1046400039F0FA01D901982F01900D929A95E1F76E
:104650006F5F7F4F445D5F4F245D3F4FECCF872DF1
:10466000982D0E942C276090760670907706C501E1
:10467000B7FC019695958795252C392C37FE03C0FC
:10468000BFEF2B1A3B0A359427944CE2469D9001CC
:10469000479D300D1124E0907206F0907306E20EF3
:1046A000F31E4C01990FAA08BB08032C000C440808
:1046B00055086C147D0408F063C0E114F10409F49A
:1046C00058C044E050E0F70151834083C501B40174
:1046D0000E9465299B01AC016B8D7C8D8D8D9E8D1B
:1046E0000E944528D70112966D937D938D939C93DC
:1046F0001597C201B1010E9465299B01AC016F8928
:10470000788D898D9A8D0E944528F701668377837D
:104710008087918748E050E05387428755874487D8
:104720008B899C89AD89BE89828F938FA48FB58F29
:1047300020E030E040E05FE36F85788989899A89DD
:104740000E94592AD7015E966D937D938D939C9319
:104750009197E4E0F0E09796FC93EE939697999604
:104760001C921E92989748E050E09B965C934E9363
:104770009A975FEF651A750A8CE2E80EF11C99CFE3
:10478000D0927706C09276064DC9CF92DF92EF9213
:10479000FF920F931F93CF93DF931F92CDB7DEB796
:1047A000182F062FE42E862F880F8E5F99830E9484
:1047B000DE0F83E00E94DE0FF12EC12E9981D92EEB
:1047C0008C2D8F19801798F4F601E7FE02C08491B2
:1047D00001C080810E94DE0F182F80E00E94DE0F52
:1047E0008123FFEFCF1ADF0A8111EACF01C081E0F8
:1047F0000F90DF91CF911F910F91FF90EF90DF907D
:10480000CF90089580917206909173060E942C2794
:1048100080910D0790910E070E942C2784E397E06A
:104820000E947F0982EB97E00C94CD096F927F92F2
:104830008F929F92AF92BF92CF92DF92EF92FF92B0
:104840000F931F93CF93DF93A2E6B7E013961C92CA
:104850001E92129748EE53E060E070E014964D937C
:104860005D936D937C93179783E891E011969C93E9
:104870008E93CFEFDFEF1D96DC93CE931C97E2EB88
:10488000F7E081E2E82EF12CF08EE78A118E128E8D
:10489000138E46E050E060E070E0448F558F668FE5
:1048A000778F10A211A212A213A220E224A316A2B3
:1048B00015A211A684EB97E090A787A383E292E06C
:1048C000918380838DE292E0958B848B1682158292
:1048D0001086178212861186148613861686158610
:1048E000108A178681E092E093838283B38BA28B38
:1048F00010E1118BE4E3F7E0F48EE38E158E168E53
:10490000178E40A351A362A373A314A215A216A2EB
:1049100017A220A712A611A615A61282138214822E
:1049200015822AE337E034A723A72BEA31E031834D
:10493000208325EB31E0318F208F1286118614867B
:10494000138616861586108A1786128A118A148A8B
:10495000138A97838683B78BA68B88E0858BB09369
:104960002707A093260769EB78E081ED98E00E9485
:104970003026E4E1F7E08DE392E0918380831582B5
:1049800016821783D483C3831486158616861786EA
:10499000108A80EA97E0909371068093700680E019
:1049A00090E890936F0680936E0646983E9A4798DB
:1049B0003F9ACDE0D7E098E0692E712C7B826A8225
:1049C0001D821C8280E790E00E949726998388834D
:1049D0000E942226C9EDD6E028E6822E99249394DF
:1049E000A12CB12CA50194010E94E1270E94652908
:1049F0006A8F7B8F8C8F9D8F34E1C32ED12CDB8609
:104A0000CA8600E110E01D870C8780E090E0A8E5F1
:104A1000B2E48A839B83AC83BD8380E090E0A0EC0A
:104A2000B1E48E839F83A887B98786E0EBE4F1E049
:104A3000A7EEB6E001900D928A95E1F71E8E1F8ECB
:104A400018A219A280E090E0A0E4B0E48AA39BA39E
:104A5000ACA3BDA38CA79DA7AEA7BFA78FE892EC80
:104A6000A5EFBCE388AB99ABAAABBBAB48E1E42EA6
:104A7000F12CFFA2EEA219A618A61BA61AA60E9448
:104A80002226C5EAD6E0A50194010E94E1270E94F2
:104A900065296A8F7B8F8C8F9D8FDB86CA861D87E9
:104AA0000C8780E090E0A8ECB2E48A839B83AC831F
:104AB000BD8380E090E0A8E4B2E48E839F83A88762
:104AC000B98786E0EBE4F1E0A3EBB6E001900D924C
:104AD0008A95E1F71E8E1F8E18A219A280E090E041
:104AE000A0E0B0E48AA39BA3ACA3BDA38CA79DA721
:104AF000AEA7BFA78DEC9CECACE4BDE388AB99AB53
:104B0000AAABBBABFFA2EEA219A618A61BA61AA6BB
:104B1000C9E7D6E01A8E1B8E1C8E1D8E8EE090E0AB
:104B20009B878A871D870C8780E090E0A0EFB1E427
:104B30008A839B83AC83BD838E839F83A887B98739
:104B400086E0E1E5F1E0A7E8B6E001900D928A95F4
:104B5000E1F71E8E1F8E18A219A21AA21BA21CA278
:104B60001DA281E090E09FA38EA319A618A61BA604
:104B70001AA6C2E7D6E07B826A821D821C8280E68A
:104B800091E00E94972699838883DF91CF911F91AE
:104B90000F91FF90EF90DF90CF90BF90AF909F90DC
:104BA0008F907F906F9008958F929F92AF92BF9257
:104BB000CF92DF92EF92FF92CF93DF93EC01688167
:104BC00079818A819B81611571058105910521F4A7
:104BD00064E279ED8BE597E02DE133EF41E050E0C1
:104BE0000E94E12749015A019B01AC01A7EAB1E407
:104BF0000E9400286B017C01ACEEB4EFA50194018A
:104C00000E940E28DC01CB018C0D9D1DAE1DBF1D29
:104C1000B7FF03C00197A109B04888839983AA838D
:104C2000BB83BC01CD019F77DF91CF91FF90EF90C7
:104C3000DF90CF90BF90AF909F908F9008950E948B
:104C4000D42508958AE391E00E94D42508956093C5
:104C50003A0170933B0180933C0190933D0108958C
:104C60000F931F93CF93DF93009731F46115710574
:104C700019F480E090E03AC08B01EC016EE070E046
:104C800081E090E00E947B26FC01892B91F380E873
:104C900083830115110571F01387028781E88383EF
:104CA0008091DC079091DD07892B21F4F093DD07DB
:104CB000E093DC072097C9F0D187C08783818260A9
:104CC00083838091DE079091DF07892B71F4F09345
:104CD000DF07E093DE078091E0079091E107892BE1
:104CE00021F4F093E107E093E007CF01DF91CF914A
:104CF0001F910F9108950F931F93CF93DF93869F7A
:104D00008001879F100D969F100D1124C8010E94ED
:104D10009726EC01009729F0A80160E070E00E945E
:104D2000C427CE01DF91CF911F910F910895CF93AA
:104D3000DF938230910510F482E090E0E091E40787
:104D4000F091E50720E030E0C0E0D0E0309711F1CD
:104D50004081518148175907C0F04817590761F43D
:104D600082819381209719F09B838A832BC0909333
:104D7000E5078093E40726C02115310519F0421795
:104D8000530718F49A01BE01DF01EF010280F3819D
:104D9000E02DDCCF2115310509F1281B390B24301A
:104DA000310590F412968D919C91139761157105C0
:104DB00021F0FB019383828304C09093E5078093E5
:104DC000E407FD01329644C0FD01E20FF31F819319
:104DD0009193225031092D933C933AC02091E207E0
:104DE0003091E307232B41F42091400130914101A0
:104DF0003093E3072093E20720913E0130913F0179
:104E00002115310541F42DB73EB740914201509133
:104E10004301241B350BE091E207F091E307E21711
:104E2000F307A0F42E1B3F0B2817390778F0AC01CD
:104E30004E5F5F4F2417350748F04E0F5F1F5093AA
:104E4000E3074093E2078193919302C0E0E0F0E032
:104E5000CF01DF91CF9108950F931F93CF93DF93ED
:104E6000009709F48CC0FC013297138212820091E2
:104E7000E4071091E5070115110581F420813181C6
:104E8000820F931F2091E2073091E307281739071B
:104E900079F5F093E307E093E20771C0D80140E0B1
:104EA00050E0AE17BF0750F412962D913C91139726
:104EB000AD012115310509F1D901F3CF9D01DA01C9
:104EC0003383228360817181860F971F8217930736
:104ED00069F4EC0128813981260F371F2E5F3F4F7F
:104EE000318320838A819B8193838283452B29F49C
:104EF000F093E507E093E40742C01396FC93EE932A
:104F00001297ED01499159919E01240F351FE21727
:104F1000F30771F480819181840F951F0296119699
:104F20009C938E938281938113969C938E93129778
:104F3000E0E0F0E0D80112968D919C9113970097D4
:104F400019F0F8018C01F6CF8D919C9198012E5F9C
:104F50003F4F820F931F2091E2073091E3072817FC
:104F6000390769F4309729F41092E5071092E407A5
:104F700002C0138212821093E3070093E207DF91CD
:104F8000CF911F910F910895DC0101C06D934150A5
:104F90005040E0F70895F999FECF92BD81BDF89A8F
:104FA000992780B50895262FF999FECF1FBA92BD93
:104FB00081BD20BD0FB6F894FA9AF99A0FBE0196FA
:104FC0000895052E97FB1EF400940E94F82757FDC4
:104FD00007D00E94132807FC03D04EF40C94F82746
:104FE00050954095309521953F4F4F4F5F4F089515
:104FF00090958095709561957F4F8F4F9F4F089545
:105000000E943528A59F900DB49F900DA49F800D00
:10501000911D11240895B7FF0C9400280E940028C8
:10502000821B930B0895A1E21A2EAA1BBB1BFD0144
:105030000DC0AA1FBB1FEE1FFF1FA217B307E40777
:10504000F50720F0A21BB30BE40BF50B661F771FCF
:10505000881F991F1A9469F76095709580959095AF
:105060009B01AC01BD01CF010895A29FB001B39F88
:10507000C001A39F700D811D1124911DB29F700D61
:10508000811D1124911D08955058BB27AA270E9405
:105090005C280C94062A0E94CD2938F00E94D4295D
:1050A00020F039F49F3F19F426F40C94CA290EF429
:1050B000E095E7FB0C94C429E92F0E942B2A58F3B2
:1050C000BA17620773078407950720F079F4A6F5ED
:1050D0000C944D2A0EF4E0950B2EBA2FA02D0B0147
:1050E000B90190010C01CA01A0011124FF27591B2D
:1050F00099F0593F50F4503E68F11A16F040A22F33
:10510000232F342F4427585FF3CF469537952795A3
:10511000A795F0405395C9F77EF41F16BA0B620BA2
:10512000730B840BBAF09150A1F0FF0FBB1F661FE9
:10513000771F881FC2F70EC0BA0F621F731F841F2C
:1051400048F4879577956795B795F7959E3F08F052
:10515000B0CF9395880F08F09927EE0F9795879514
:1051600008950E94A02908F481E008950E94DD2995
:10517000E3950C94172A0E94CF280C94062A0E94CB
:10518000D42958F00E94CD2940F029F45F3F29F03E
:105190000C94C42951110C944E2A0C94CA290E94D3
:1051A0002B2A68F39923B1F3552391F3951B550BE3
:1051B000BB27AA2762177307840738F09F5F5F4FEA
:1051C000220F331F441FAA1FA9F335D00E2E3AF029
:1051D000E0E832D091505040E695001CCAF72BD041
:1051E000FE2F29D0660F771F881FBB1F2617370792
:1051F0004807AB07B0E809F0BB0B802DBF01FF27C4
:1052000093585F4F3AF09E3F510578F00C94C429B3
:105210000C944E2A5F3FE4F3983ED4F3869577953D
:105220006795B795F7959F5FC9F7880F911D96957C
:10523000879597F90895E1E0660F771F881FBB1FD8
:10524000621773078407BA0720F0621B730B840B85
:10525000BA0BEE1F88F7E09508950E9434296894F0
:10526000B1110C944E2A08950E94332A88F09F575A
:1052700098F0B92F9927B751B0F0E1F0660F771F7A
:10528000881F991F1AF0BA95C9F714C0B13091F070
:105290000E944D2AB1E008950C944D2A672F782F73
:1052A0008827B85F39F0B93FCCF386957795679535
:1052B000B395D9F73EF490958095709561957F4FA1
:1052C0008F4F9F4F0895E89409C097FB3EF4909547
:1052D0008095709561957F4F8F4F9F4F9923A9F0CF
:1052E000F92F96E9BB279395F6958795779567955E
:1052F000B795F111F8CFFAF4BB0F11F460FF1BC0A2
:105300006F5F7F4F8F4F9F4F16C0882311F096E934
:1053100011C0772321F09EE8872F762F05C06623E2
:1053200071F096E8862F70E060E02AF09A95660F9B
:10533000771F881FDAF7880F9695879597F9089554
:10534000990F0008550FAA0BE0E8FEEF1616170696
:10535000E807F907C0F012161306E407F50798F0FE
:10536000621B730B840B950B39F40A2661F0232B17
:10537000242B252B21F408950A2609F4A140A69593
:105380008FEF811D811D089597F99F6780E870E078
:1053900060E008959FEF80EC089500240A941616AB
:1053A000170618060906089500240A941216130613
:1053B0001406050608950C94CA290E94332AD8F3CE
:1053C000E894E0E0BB279F57F0F02AED3FE049EC7E
:1053D00006C0EE0FBB0F661F771F881F28F0B23A7A
:1053E00062077307840728F0B25A620B730B840BB1
:1053F000E3959A9572F7803830F49A95BB0F661F43
:10540000771F881FD2F790480C94D02A092E039456
:10541000000C11F4882352F0BB0F40F4BF2B11F4A1
:1054200060FF04C06F5F7F4F8F4F9F4F0895EF93D2
:10543000E0FF07C0A2EA2AED3FE049EC5FEB0E94E3
:105440005C280E94062A0F90039401FC9058ECEA15
:10545000F0E00C94DC2A57FD9058440F551F59F08A
:105460005F3F71F04795880F97FB991F61F09F3F51
:1054700079F087950895121613061406551FF2CF7A
:105480004695F1DF08C0161617061806991FF1CFCA
:1054900086957105610508940895E894BB276627F1
:1054A0007727CB0197F908950E94A02908F48FEF80
:1054B00008950E946C2A0C94062A0E94CD2938F087
:1054C0000E94D42920F0952311F00C94C4290C9447
:1054D000CA2911240C944E2A0E942B2A70F3959FFE
:1054E000C1F3950F50E0551F629FF001729FBB27DB
:1054F000F00DB11D639FAA27F00DB11DAA1F649F77
:105500006627B00DA11D661F829F2227B00DA11D29
:10551000621F739FB00DA11D621F839FA00D611DAF
:10552000221F749F3327A00D611D231F849F600DD0
:10553000211D822F762F6A2F11249F5750409AF0F9
:10554000F1F088234AF0EE0FFF1FBB1F661F771F85
:10555000881F91505040A9F79E3F510580F00C9450
:10556000C4290C944E2A5F3FE4F3983ED4F3869509
:1055700077956795B795F795E7959F5FC1F7FE2BF0
:10558000880F911D9695879597F908959F930E948E
:10559000DD290F9007FCEE5F0C94172A9F3F31F036
:1055A000915020F4879577956795B795880F911D51
:1055B0009695879597F908959F938F937F936F930F
:1055C000FF93EF939B01AC010E94592AEF91FF9149
:1055D0000E94F02A2F913F914F915F910C94592A8C
:1055E000DF93CF931F930F93FF92EF92DF927B0194
:1055F0008C01689406C0DA2EEF010E946C2AFE012D
:10560000E894A5912591359145915591A6F3EF0127
:105610000E945C28FE019701A801DA9469F7DF90E7
:10562000EF90FF900F911F91CF91DF910895AA1BEA
:10563000BB1B51E107C0AA1FBB1FA617B70710F07D
:10564000A61BB70B881F991F5A95A9F780959095AF
:10565000BC01CD01089597FB072E16F4009407D0E6
:1056600077FD09D00E94172B07FC05D03EF49095DA
:1056700081959F4F0895709561957F4F0895EE0F26
:10568000FF1F0590F491E02D099481E090E0F894DB
:105690000C944A2B17E0C5E7D7E004C0FE010E9436
:0E56A0003F2B2196C637D107C9F7F894FFCFEC
:1056AE000000000000000000D007E8030001001712
:1056BE0000150009001500100004002A000000006B
:1056CE00000000001D00D2FF05001E002E00FFFF8F
:1056DE00FFFF00E1000000000000010000000000DC
:1056EE00E607800000C1808100000006000500086A
:1056FE000803000500080818000000000000000064
:10570E0000E8FFE8FF0000000000001400000000A9
:10571E000000000000ECFFECFF00000000000000A5
:10572E000000006B102814DA1081108C10DE10FCB3
:10573E0010060000000000AA09AC09FAFFFAFF00EB
:10574E0000AB09AE091800000000007F099609E8B9
:10575E00FFE8FF00008C09A009AB015D016701B5F0
:10576E000100000000800D6A09B808B508B208AF44
:10577E0008AC0823081F081C0806082608AA07A854
:10578E0007020000000000F809FA09FEFFFEFF0004
:10579E0000F909FC0900000000820D060A00000055
:1057AE0000810DB809B808B508B208AF08AC08A05A
:1057BE00085A084108280826081709F60814000098
:1057CE00000000CD09E409ECFFECFF0000DA09EE61
:1057DE0009230271017B012D0200000000A30700C6
:00000001FF
