:100000000C9485040C94AD040C94AD040C94AD04D4
:100010000C94AD040C94AD040C94AD040C94AD049C
:100020000C94AD040C94AD040C94E7050C945906A3
:100030000C94AD040C94AD040C94AD040C94AD047C
:100040000C94AD040C94AD040C94AD040C94AD046C
:100050000C94AD040C94AD040C94AD040C94F50B0D
:100060000C94AD040C94AD040C94AD040C94AD044C
:100070000C94AD040C94AD040C94AD040C94AD043C
:100080000C94ED0C0C94AD040C94AD040C94AD04E4
:100090000C94AD040C94AD040C94AD040C94AD041C
:1000A0000C94AD040C94AD040C94AD04084AD73BF9
:1000B0003BCE016E84BCBFFDC12F3D6C74319ABD37
:1000C00056833DDA3D00C77F11BED9E4BB4C3E915B
:1000D0006BAAAABE000000803F05A84CCDB2D44E4A
:1000E000B93836A9020C50B9918688083CA6AAAA4C
:1000F0002ABE000000803F00D5F08D14A1C881CF3A
:10010000D9F1AF200014100000E020A038082C0422
:100110000400288818202020E0000000001F103074
:10012000207B6B3717173120686820101F000000F4
:1001300000E060B0184820840404084830202060A3
:10014000C0800000030F301030605B4A3617171074
:10015000202C20100A0F000080C0407018C8A40492
:10016000842C081890302060C000000007091B365E
:100170002121405B4A261713102C34100D07000074
:100180000080807010D0848404840808D830202037
:10019000E0000000001F10162C2C2041465A671B5F
:1001A0001010161807000000000080E030C484849E
:1001B00084040808183020E000000000001C1F30F4
:1001C0002C2C2C6C41424A731010180F00000000B8
:1001D00000000000F018848484840C0C0838E000CF
:1001E000000000000000003F202C2C6C4C4D4043D0
:1001F00078080F000000000000000000C06C0484BC
:10020000848484047CC00000000000000000000022
:100210007F404C4C4C444C4C407F000000000000A0
:10022000000000E038080C0C8484848418F000007E
:10023000000000000000000F087843404C446C2C84
:1002400028203F00000000000000E02030180808CF
:1002500004848484CC38E0800000000000000F1883
:100260001010734A40406C2C282C301F1C000000DA
:1002700000E0202030D0000884048484DC187080E2
:10028000800000000007181610101B675A44402019
:10029000242C16101F00000000C0602030901808A9
:1002A0002C8404A4CC187040C0800000070D1034CA
:1002B0002C101317264A5B402021361B090700002B
:1002C00080C0602020304808040484244C18B060AA
:1002D000E00000000F0A10202C20101717364A5B90
:1002E000603010300F03000000E020202018882C20
:1002F0000404042C0838A020E0000000001F102097
:10030000686820311717376B792030101F00000004
:1003100080C0404030584CA40404060808103060E7
:10032000C0800000030E3030605858613617173314
:100330002A2D3018090F000000C040603848CC0456
:100340008404044808103020C080000007091830D9
:100350002060505865361713232D301B0D07000001
:10036000008080C030DCC4C40684044C08183020EF
:10037000E0000000001F10302020404050413713A3
:100380001315110C07000000000000C0709CC4C4CD
:10039000840404448C1830E00000000000183F2062
:1003A000282C4040404041731314180700000000FF
:1003B00000000000E018C4D4848404048C1CF00005
:1003C000000000000000203F6160404C4040404180
:1003D00078180F000000000000000000C07C0484BA
:1003E000848484047CC00000000000000000000041
:1003F0007F40404048484040407F000000000000EF
:10040000000000F01C8C040484C4D4C410E000007C
:10041000000000000000000F1878414040404C40B0
:1004200060613F20000000000000E030188C4404B0
:100430000484C4C49070C0000000000000000718CD
:1004400014137341404040402C28203F1800000006
:1004500000E0203098084C048406C448D030C080A6
:100460008000000000070C11151313374150404065
:10047000202030101F00000080C0203010084804E9
:10048000048404C848386040C0000000070D1B30D9
:100490002D231317366558506020301809070000C7
:1004A00080C06030100808060404A048583040405E
:1004B000C08000000F0918302D2B331717366158F4
:1004C000586030300E030014100000F810A03808F7
:1004D00028282828288818A02060C0000000001FB5
:1004E00010362263633717173723606222101F000C
:1004F000000000F020B0184828A8282828483030EC
:100500003060C0000000030F3210366243423617DD
:100510001717232021100B0F0000C0E0407018C8EF
:10052000A828A828081890302060C00000000708FC
:100530001B36202D464342261713132131100F0678
:10054000000000C0407010D0A8A828A80808D0B0AB
:10055000A020E0000000001F10162E2E204D464265
:10056000671B1311101807000000000080E030D056
:1005700088A8A828280818B020E000000000001C67
:100580001F302E2E2C6C414642731310180F0000A2
:10059000000000000080E01088A8A8A8280888189B
:1005A000F000000000000000003F202E2C6C4C4D9D
:1005B000404379080F000000000000000000C078F0
:1005C00008A8A8A8A80878C0000000000000000043
:1005D00000007F404C4C4C484C4C407F00000000D9
:1005E0000000000000F018880828A8A8A88810E0DB
:1005F0008000000000000000000F087943404D44D7
:100600006C2C2A203F00000000000000E020B01801
:10061000082828A8A888D030E0800000000000004A
:100620000F181013734246416C2C262E301F1C00ED
:10063000000000E020A0B0D00808A828A8A8D0108A
:100640007040C00000000007181011131B674246DD
:100650004D202E2E12101F00000000C06020309090
:10066000180828A828A8C8187040E0C00000060F85
:10067000103121131317264243442C20361B080740
:10068000000000C06030303048282828A8284818CA
:10069000B020F00000000F0B102121231717173690
:1006A0004243623610320F03000000C06020A018E1
:1006B0008828282828280838A010F8000000001FE3
:1006C00010226262233717173763612236101F002A
:1006D000000000C060A0B05848A8282828080810CA
:1006E0001820C0800000030F303066424267361782
:1006F00017332320331B090F000000C04060384827
:10070000C808A8281C4808101020E0800000070B2B
:100710001830206D4642673617132321311B0D0711
:1007200000000080804030D0C8C828B40C48089829
:100730009030E0000000001F103026204044424767
:1007400037131311110C07000000000080C07090D7
:10075000C8C8B42C2848889810F000000000001881
:100760003F20282C404040464373131018070000D8
:10077000000000000000E010C8C4ACA828088818D9
:10078000F000000000000000003F6060484C404066
:10079000404378180F000000000000000000C078FF
:1007A00008B8B8B8B80878C0000000000000000021
:1007B00000007F4040404C4C4040407F0000000023
:1007C0000000000000F018880828A8ACC4C810E099
:1007D0000000000000000000000F18784340404077
:1007E0004C4860603F00000000000000F010988856
:1007F00048282CB4C8C89070C080000000000000D9
:10080000071810137343444048402C28203F180019
:10081000000000E030909808480CB428C848D03058
:1008200040808000000000070C111113133747426D
:100830004440202630101F00000080E020501008A7
:10084000481C28A808C848386040C0000000070DB0
:100850001B3121231317366742466D2030180B07D2
:10086000000080C02018100808282828A84858B080
:10087000A060C00000000F091B3321233317173677
:100880006742426630300F0300080B00020202018B
:100890000009040000010202000005240010010507
:1008A0002401010104240206052406000107058134
:1008B0000310004009040100020A000000070502BD
:1008C00002400000070583024000000403090412EF
:1008D000010002EF020140412336800001010203C2
:1008E0000141726475696E6F204C4C430041726423
:1008F00075696E6F204C656F6E6172646F000102E6
:10090000040810204080021CE21C11241FBECFEFFF
:10091000DAE0DEBFCDBF11E0A0E0B1E0EEE0F5E44B
:1009200002C005900D92AE35B107D9F726E0AEE5CD
:10093000B1E001C01D92A337B207E1F714E0C4E8AB
:10094000D4E004C02197FE010E944221C338D107A0
:10095000C9F70E94A1100C947A220C940000CF9346
:10096000DF931F92CDB7DEB76983DC01ED91FC9177
:100970000280F381E02D41E050E0BE016F5F7F4FC8
:1009800009950F90DF91CF91089583E08093E9005E
:100990008091F200882319F08AE38093E80008959B
:1009A000FC018485958597FD0BC09FB7F89482E084
:1009B0008093E9008091F2009FBF90E00196089536
:1009C0009FB7F89482E08093E9008091F2009FBF86
:1009D00090E008958F929F92AF92BF92CF92DF9254
:1009E000EF92FF920F931F93CF93DF935C016B0104
:1009F0007A0180912601882309F45BC080917101FE
:100A0000882309F456C080916E0180FF05C0809153
:100A1000E00082608093E000E70110E00AEF83E0ED
:100A2000882E9AE3992E2097D9F10E94220B8111EA
:100A30000AC0015009F43DC061E070E080E090E040
:100A40000E94BB0BF0CF282F30E0C217D3070CF465
:100A50008C2F4FB7F8948092E9009091E80095FFB1
:100A60001DC0282F30E0C21BD30BF601982F9150E8
:100A700020F081918093F100FACFC20ED31E112392
:100A800019F09092E80009C08091E80085FD06C049
:100A90009092E80011E0209709F010E04FBFC3CF1B
:100AA0001111C3CF5D9884E680936F011E141F045B
:100AB00044F081E090E0F5019383828380E090E050
:100AC00001C0C701DF91CF911F910F91FF90EF906F
:100AD000DF90CF90BF90AF909F908F9008950E942D
:100AE000220B90E00895CF93DF931F92CDB7DEB72E
:100AF000FC018485958597FD05C02FEF3FEF358775
:100B000024870BC0CE0101960E94F80A019719F4C0
:100B1000898190E002C08FEF9FEF0F90DF91CF911E
:100B200008950F931F93CF93DF931F92CDB7DEB736
:100B30008C01FC018485958597FF0EC0CE0101963E
:100B40000E94F80A019719F4298130E002C02FEFC2
:100B50003FEFF80135872487F801848595850F904C
:100B6000DF91CF911F910F9108950F931F93CF9312
:100B7000DF931F92CDB7DEB782E0898342E450E075
:100B800069E878E080E80E946D100E94330BDC0178
:100B900012960D911C9113970115110569F0D8015A
:100BA000ED91FC910280F381E02DBE016F5F7F4FDC
:100BB000C801099597FF07C089810F90DF91CF91F8
:100BC0001F910F910895F80100851185E5CF1F92BF
:100BD0000F920FB60F9211248F939F938091E10093
:100BE0009091E100937F9093E10083FF0FC01092FA
:100BF000E90091E09093EB001092EC0092E3909367
:100C0000ED001092710198E09093F00082FF20C0F7
:100C100093E09093E9009091F200992319F09AE300
:100C20009093E80090916F01992339F090916F01B2
:100C3000915090936F01992389F1909170019923BC
:100C400039F090917001915090937001992341F186
:100C500084FF10C08091E2008E7E81608093E2006C
:100C60008091E1008F7E8093E10080916E018E7E05
:100C7000806111C080FF16C08091E2008E7E80618D
:100C80008093E2008091E1008E7E8093E10080916C
:100C90006E018E7E816080936E0104C05D9ACDCF1F
:100CA000289AD6CF9F918F910F900FBE0F901F90D3
:100CB00018951F920F920FB60F921124CF92DF92C8
:100CC000EF92FF920F931F932F933F934F935F9356
:100CD0006F937F938F939F93AF93BF93EF93FF9304
:100CE000CF93DF93CDB7DEB76C97DEBFCDBF109249
:100CF000E9008091E80083FFEDC168E0CE014596F0
:100D00000E94941082EF8093E8008D8987FF05C0D0
:100D10009091E80090FFFCCF03C09EEF9093E80015
:100D2000982F907609F0C6C09E892F89188D911151
:100D30000CC0803829F480916D018093F10002C0CD
:100D40001092F1001092F10048C1422F50E0512B57
:100D5000913051F4811141C14130510509F03DC13B
:100D600080916D018D7F0BC0933061F4811135C18D
:100D70004130510509F031C180916D01826080934D
:100D80006D012BC1953041F48091E80080FFFCCFCC
:100D900020682093E30021C1963009F05FC0EB8CFE
:100DA000FC8C1092E90010926B0110926A011230D3
:100DB00091F510926901109268010E94B50599E0C1
:100DC000BE016F5F7F4FDB01E92F1D92EA95E9F7C6
:100DD00099831A8391E09E8390EA98879AEF998786
:100DE00020916A0130916B01275F3F4F3C832B8339
:100DF0008D831092E90010926B0110926A01F092BB
:100E00006901E092680149E050E080E00E946D10C5
:100E10000E94B505E2C0F0926901E09268010E946B
:100E2000330BDC011296ED90FC901397E114F10462
:100E300009F4C0C0D701ED91FC910480F581E02D4B
:100E4000BE016B5E7F4FC7010995009719F00CF04A
:100E5000C4C0C7C0F701E084F184E8CF973009F43B
:100E6000C0C0983021F481E08093F100B6C0993081
:100E700009F0B3C0837009F0B4C0E8E3F1E081E0A9
:100E800021E036E39081992361F08093E90020937B
:100E9000EB0091919093EC003093ED008F5F8730E1
:100EA00089F78EE78093EA001092EA008F89809399
:100EB000710193C08B8D9C8D1092E90010926B0193
:100EC00010926A019093690180936801898D811164
:100ED00056C08E899D89913A59F4813209F081C0BA
:100EE00047E050E06FE171E080E00E946D1075C056
:100EF000913209F076C0833289F4888D90E0982F82
:100F000088272F89822BA0E0B0E080931B0190936B
:100F10001C01A0931D01B0931E015FC0803269F4D3
:100F20008091E80082FFFCCF67E08FE191E00E94B2
:100F300094108BEF8093E80006C0823209F04DC018
:100F40008F898093260180916C01882319F0EEEF40
:100F5000FAE002C0E0E0F8E080911F0190912001EA
:100F6000A0912101B0912201803B9440A105B105DF
:100F700009F07BC08091260180FF93C076C00E945B
:100F8000330BDC0112960D911C911397011511057D
:100F900041F1D801ED91FC910190F081E02DBE016D
:100FA0006B5E7F4FC8010995811117C0F80100855C
:100FB0001185ECCF113009F44EC0133091F48F89B4
:100FC000882309F445C0823081F440E860E18DEE69
:100FD00098E00E94C51B882321F08EEF8093E800E3
:100FE00079C081E28093EB0075C0813029F440E83C
:100FF0006BE081EE98E0EDCF833099F70E94330BE0
:10100000DC011296ED90FC9013978E010F5F1F4F3D
:101010006801E114F10479F0D701ED91FC910680AB
:10102000F781E02DB801C7010995080F111DF701DF
:10103000E084F184EECFD8011C92F60101900020EB
:10104000E9F73197BF016C197D0940E0C601C1CFB6
:101050006BEC78E002C06FEC78E06115710509F285
:10106000FB01449150E080E840CF0FB6F894A8957A
:1010700080916000886180936000109260000FBED4
:10108000A895EE3F2AE0F20739F08091FE0A909190
:10109000FF0A91838083A1CF1092FF0A1092FE0A6B
:1010A0009CCFEE3F8AE0F80731F0808191819093E8
:1010B000FF0A8093FE0A87E797E7918380839BE08E
:1010C00088E10FB6F894A895809360000FBE9093C6
:1010D000600083CF6C960FB6F894DEBF0FBECDBF15
:1010E000DF91CF91FF91EF91BF91AF919F918F9140
:1010F0007F916F915F914F913F912F911F910F9130
:10110000FF90EF90DF90CF900F900FBE0F901F9049
:1011100018959C01240F311D1216130684F5803892
:1011200091056CF5FC0197FF02C0E0E0F0E021388A
:10113000310514F020E830E02E1BAB014770552735
:1011400081E090E001C0880F4A95EAF7809577FF2B
:1011500002C0695F7F4F93E0759567959A95E1F7B7
:101160007695762F662777956795E60FF71FEE58E9
:10117000FE4F215020F0908198239193FACF08954B
:101180005F926F927F928F929F92AF92BF92CF9217
:10119000DF92EF92FF920F931F93CF93DF93EC01B7
:1011A0008B017A01A901461B570B57FF03C05195CC
:1011B00041955109C7018C1B9D0B97FF03C0919569
:1011C00081959109552453948417950714F0512C57
:1011D0000AC09E2D8F2D7901292F382F9C2F8D2FFE
:1011E000E801092F182FEC16FD0654F4902F812FDB
:1011F0008901292F382F9C2F8D2FE701E92EF82EFA
:1012000037016C1A7D0A5901A01AB10AB7FE03C052
:10121000B194A194B108630177FE03C08FEFC81A9F
:10122000D80AD594C7940217130714F08FEF01C0A2
:1012300081E0882E880F9908EC16FD06B4F021E0B5
:10124000552019F0AE01B80102C0A801BE018AEF15
:1012500095E00E94600DCA18DB08D7FE04C0080D97
:10126000191DC60CD71C2196E7CFDF91CF911F9196
:101270000F91FF90EF90DF90CF90BF90AF909F9035
:101280008F907F906F905F900895E2E7F1E081E0AA
:10129000A0E0B8E000800EBC8111012C1197A0FDE8
:1012A000FDCF0192B9F70DB40895DF92EF92FF924E
:1012B0000F931F93CF93DF937C01D22E8B01040FEA
:1012C000111DEB0177FF0EC0C0E0D0E00BC0C417CA
:1012D000D5077CF42D2DAE01B7018AEF95E00E9471
:1012E000600D2196A801013411058CF340E450E013
:1012F000EECFDF91CF911F910F91FF90EF90DF9094
:101300000895EF92FF920F931F93CF93DF93EC0119
:101310008B01E42EF22E6034710510F40E948908CE
:10132000B8016F0D711D615071096034710520F4B1
:101330004E2DCE010E94890820E04F2DB801CE012C
:101340000E945509CE018E0D911D20E04F2DB80150
:101350000197DF91CF911F910F91FF90EF900C9427
:10136000550920910006282329F49091FF05982320
:1013700081E009F480E008958F929F92AF92BF922E
:10138000CF92DF92EF92FF920F931F93CF93DF9351
:1013900000D0CDB7DEB7DC014115510509F4CBC053
:1013A000FA01D490319694914E5F5F4F8D2C912C21
:1013B0002223E9F0E92FE695E695E695EE2EF12C4D
:1013C000E1E0F0E0892F877011F4E0E0F0E0EE0D4D
:1013D000FF1D8E9E70018F9EF00C9E9EF00C1124BE
:1013E0002E9DF0012F9DF00D11244E0F5F1F5D010A
:1013F000A80CB91C1A141B040CF09DC0A038B10530
:101400000CF099C09B01290F311D121613060CF028
:1014100092C0603471050CF08EC04115510509F47D
:101420008AC0F62FF770EF2E9B0177FF02C0295F6D
:101430003F4F83E0359527958A95E1F7F22F77FFA7
:1014400004C0EE2011F0FFEFF20FB7FF05C06627D2
:1014500077276A1B7B0B02C060E070E000E8A016F3
:10146000B10424F080E8F82EFA1A01C0FD2CF61A17
:101470002F2F0F2E000C330BFF3F1CF4C22EC094F5
:1014800001C0C12CE1E0892F877009F4E0E0969556
:10149000969596959E0F290F311D2930310514F030
:1014A00098E09F1B8C2D8F0F9D01182F00E81003D3
:1014B000200D311D1124260F371FCD9C600D711D8D
:1014C0001124640F751F41E050E00E2C02C0440F40
:1014D000551F0A94E2F79F0F891769F1D901AE5899
:1014E000BE4FA12CB12CAF1400F5FB01EA0DFB1D82
:1014F000E491E49F6001E59FD00C1124DA82C98257
:1015000087FD03C0EC91CE2ACC92EE2049F08730C3
:101510003CF4FD01E058FF4FC080DA80DC28D08227
:101520001FEFA11AB10A1196DECF8F5F680D791DEA
:1015300020583F4FD1CF0F900F90DF91CF911F9147
:101540000F91FF90EF90DF90CF90BF90AF909F9062
:101550008F9008958F929F92AF92BF92CF92DF9219
:10156000EF92FF920F931F93CF93DF93EC016B01E8
:101570005A0149010E94C0089701A801B401C501A0
:101580000E94C0089601AE01B701C801DF91CF915A
:101590001F910F91FF90EF90DF90CF90BF90AF9091
:1015A0009F908F900C94C00865E070E080E090E020
:1015B0000C94BB0BCF93DF93EC0148815981141637
:1015C00015069CF0AA81BB81CA0101969983888384
:1015D00086E2849F9001859F300D1124A20FB31FD6
:1015E000FB0101900D928A95E1F7DF91CF9108956B
:1015F000FC0180917101811103C08FEF9FEF08956D
:101600009FB7F89482E08093E9002091F20030E0E7
:101610001216130614F421E030E02115310559F0BB
:10162000289884E6809370018091F10080838091F6
:10163000F200882319F09FBFC90108958BE68093BB
:10164000E800F9CF2FB7F89483E08093E9009091F8
:10165000E800892F807295FF04C09091F20080E429
:10166000891B2FBF08958091090681110DC082E06A
:101670008093050684E08093060610920806109277
:10168000070681E08093090685E096E00895CF92F1
:10169000DF92EF92FF920F931F93CF93DF936C0132
:1016A0007A018B01C0E0D0E0CE15DF0589F0D801CA
:1016B0006D918D01D601ED91FC910190F081E02DAD
:1016C000C6010995892B11F47E0102C02196ECCF49
:1016D000C701DF91CF911F910F91FF90EF90DF90A5
:1016E000CF90089580916601E0916401F0916501C9
:1016F000882349F0CF01029690936501809364019D
:10170000859194910895CF010296909365018093FD
:101710006401808191810895809167010895089501
:10172000089580E090E008950E9475223FB7F894F4
:1017300080916B0690916C06A0916D06B0916E063B
:1017400026B5A89B05C02F3F19F00196A11DB11D1C
:101750003FBFBA2FA92F982F8827820F911DA11D57
:10176000B11DBC01CD0142E0660F771F881F991F94
:101770004A95D1F708958F929F92AF92BF92CF92E0
:10178000DF92EF92FF926B017C010E94960B4B015E
:101790005C01C114D104E104F104F1F00E94960B44
:1017A000DC01CB0188199909AA09BB09883E93403D
:1017B000A105B10570F321E0C21AD108E108F108D2
:1017C00088EE880E83E0981EA11CB11CC114D104C0
:1017D000E104F10419F7DDCFFF90EF90DF90CF9097
:1017E000BF90AF909F908F9008951F920F920FB669
:1017F0000F9211242F933F938F939F93AF93BF9397
:1018000080915E0190915F01A0916001B0916101B2
:1018100030916A0623E0230F2D3720F40196A11D95
:10182000B11D05C026E8230F0296A11DB11D20930E
:101830006A0680935E0190935F01A0936001B0936C
:10184000610180916B0690916C06A0916D06B0913C
:101850006E060196A11DB11D80936B0690936C06D8
:10186000A0936D06B0936E06BF91AF919F918F913B
:101870003F912F910F900FBE0F901F901895CF9210
:10188000DF92EF92FF920F931F93CF93DF930E940B
:10189000720B811520E8920761F4809171008D7FB1
:1018A00080937100109291004698479810926306B9
:1018B0008BC021E020936306813020E8920751F429
:1018C000809162019091630190936501809364011E
:1018D0000E94720B97FD05C020916206222309F435
:1018E0003FC02091610621113BC021E02093640696
:1018F000EC01DF77209769F481E0809365064698D4
:101900003FE9C32E3FE0D32EE12CF12CCAEFD0E00B
:1019100014C08E0120E030E060E472E48FE090E0DB
:10192000A90198010E94661D69017A0181E0C81A27
:10193000D108E108F10810926506E0918005F09168
:1019400081050995811103C081E08093650680912E
:1019500064068823B9F180916506811133C003C004
:1019600010926406C5CF46992DC0479A0E94720B0B
:10197000009771F09C01DE010E94BA1DDC01CB01D1
:1019800029E0B595A795979587952A95D1F703C036
:101990008FEF9FEFDC01109290002AE020939100DE
:1019A000D0929900C0929800809366069093670643
:1019B000A0936806B093690680917100826080935D
:1019C000710002C04798D2CFDF91CF911F910F9144
:1019D000FF90EF90DF90CF9008951F920F920FB677
:1019E0000F9211242F933F934F935F936F937F93A5
:1019F0008F939F93AF93BF93EF93FF93809166066E
:101A000090916706A0916806B0916906892B8A2B90
:101A10008B2B81F18091650681110BC098B180E418
:101A2000892788B980916406882319F088B1805885
:101A300088B98091660690916706A0916806B0917A
:101A40006906181619061A061B06B4F48091660674
:101A500090916706A0916806B09169060197A10967
:101A6000B1098093660690936706A0936806B093C9
:101A7000690602C00E943F0CFF91EF91BF91AF91A8
:101A80009F918F917F916F915F914F913F912F9196
:101A90000F900FBE0F901F9018958FB18095807F8B
:101AA000669B88601C9B84600895109267013E9835
:101AB0003F9808953E9A3F9A81E080936701089588
:101AC00060387105D0F440345105B8F4EEEFF8E019
:101AD00080E1849FD001A0781124A60F4770E40F05
:101AE000F11D8491AE58BE4F222319F06C91862BC4
:101AF00003C080956C9186238C930895AF92BF921A
:101B0000CF92DF92EF92FF920F931F93CF93DF93C9
:101B1000F42EE22EC62FD0E0082F10E06801580105
:101B2000A40EB11CCA14DB0454F421E04E2DBE01F6
:101B3000C6010E9455098FEFC81AD80AF3CF22E0D8
:101B40002E0D42E04F0DBE0161507109C801019791
:101B5000DF91CF911F910F91FF90EF90DF90CF9089
:101B6000BF90AF900C948109CF92DF92EF92FF92D9
:101B7000CF93DF93EC016A8D7B8D8C8D9D8D0E94C0
:101B8000241FCB0168E671E00E942E21BC01990F51
:101B9000880B990B0E945C1F6B017C0120E030E0F8
:101BA000A9010E94A81E87FF0AC020E030E044EB94
:101BB00053E4C701B6010E94CA1D6B017C01CA8EA5
:101BC000DB8EEC8EFD8E20E030E044EB53E4C70169
:101BD000B6010E94B21E6B017C018885682F70E0FF
:101BE00080E090E00E945C1F9B01AC01C701B60140
:101BF0000E947F200E942B1F6987DF91CF91FF9069
:101C0000EF90DF90CF900895FC0110821182128234
:101C1000138214821582168217821086118612860C
:101C20001386148616861586108A1786118A128ADC
:101C3000118E128E138E148E158E168E178E10A284
:101C400011A280E090E0A0E0B0E482A393A3A4A35B
:101C5000B5A308954F925F926F927F928F929F9259
:101C6000AF92BF92CF92DF92EF92FF920F931F93AA
:101C7000CF93DF9300D000D000D0CDB7DEB7FC010A
:101C800029833A834B835C8329813A81EB80FC80F2
:101C9000472F83899489A588B688508D7789DC0180
:101CA000A70FB11D2A173B070CF0B4C0D901A60F2E
:101CB000B11DBD018A179B070CF0ACC0D501A50F63
:101CC000B11DEA16FB060CF0A5C06701C40ED11CBD
:101CD000AC14BD040CF09EC08F014585568582175B
:101CE0009307ACF4F8018189B901681B7109641B81
:101CF000750B6F5F7F4F072E000C880B990B0E94AE
:101D00005C1FD8012D913D914D915C910DC0641BDC
:101D1000750B072E000C880B990B0E945C1FF801B5
:101D200020813181428153810E94C91D2B013C01D8
:101D3000D8011F968D919C915097AE14BF04ACF4BE
:101D400052962C91B701621B7109681B790B6F5F6A
:101D50007F4F072E000C880B990B0E945C1FF80127
:101D6000248135814681578110C0B601681B790BEB
:101D7000072E000C880B990B0E945C1FD80114964B
:101D80002D913D914D915C9117970E94C91D6B015A
:101D90007C0120E030E0A901C301B2010E94722061
:101DA00053014201181624F0B7FAB094B7F8B09472
:101DB00020E030E0A901C701B6010E947220A7010E
:101DC000960118160CF05058C501B4010E94A81EC7
:101DD00087FF10C0A3019201F801608171818281A7
:101DE00093810E94CA1DD8016D937D938D939C931E
:101DF000139710C0A7019601F8016481758186814F
:101E000097810E94CA1DD80114966D937D938D937E
:101E10009C93179726960FB6F894DEBF0FBECDBFE2
:101E2000DF91CF911F910F91FF90EF90DF90CF90B6
:101E3000BF90AF909F908F907F906F905F904F90EA
:101E40000895CF92DF92EF92FF920F931F93CF935B
:101E5000DF93EC016F857889072E000C880B990BB6
:101E60000E945C1F2C813D814E815F810E94CA1DB2
:101E70000E94241F6B017C0109891A898D859E852A
:101E8000BC01990F880B990B0E945C1F2881398136
:101E90004A815B810E94CA1D0E94241F7C8B6B8B30
:101EA000DE8ACD8A0F8B188FDF91CF911F910F9112
:101EB000FF90EF90DF90CF9008954F925F926F92D6
:101EC0007F928F929F92AF92BF92CF92DF92EF92CA
:101ED000FF920F931F93CF93DF93EC01CE8CDF8C97
:101EE000E8A0F9A020E030E04AE754E46A8D7B8D59
:101EF0008C8D9D8D0E947F2020E030ED4FE557E4D2
:101F00000E94B21E4B015C010E94AD1E9B01AC0100
:101F1000C701B6010E947F20288139814A815B81F7
:101F20000E94CA1D2B013C01688379838A839B83AD
:101F3000C501B4010E94EC209B01AC01C701B601B0
:101F40000E947F209B01AC016C817D818E819F81ED
:101F50000E94C91D6B017C016C837D838E839F83EE
:101F600020E030E0A901C301B2010E94A81E87FF52
:101F700005C0188219821A821B8231C0AB84B12C31
:101F80000091080110910901B5010B2C000C880B80
:101F9000990B0E945C1F9B01AC01C301B2010E941E
:101FA000CA1D2B013C01B801012E000C880B990BB6
:101FB0000E945C1F9B01AC01C301B2010E94722010
:101FC00018166CF4C8018A199B09BC01990F880B7B
:101FD000990B0E945C1F688379838A839B8320E02E
:101FE00030E0A901C701B6010E94A81E87FF05C005
:101FF0001C821D821E821F8231C0AC84B12C0091D4
:102000000A0110910B01B5010B2C000C880B990BE8
:102010000E945C1F9B01AC01C701B6010E94CA1D52
:102020006B017C01B801012E000C880B990B0E94FA
:102030005C1F9B01AC01C701B6010E9472201816FB
:102040006CF4B8016A197B09072E000C880B990BF8
:102050000E945C1F6C837D838E839F83DF91CF9171
:102060001F910F91FF90EF90DF90CF90BF90AF90B6
:102070009F908F907F906F905F904F9008954091C8
:102080006A0150916B0120916801309169014217FA
:102090005307B4F49091E8009570E1F39091E80053
:1020A00092FD19C08093F10080916A0190916B01BB
:1020B00001968F739927892B19F48EEF8093E8008E
:1020C00080916A0190916B01019690936B018093CE
:1020D0006A0181E0089580E00895DF92EF92FF9217
:1020E0000F931F93CF93DF93D82E8A017B01E40EC9
:1020F000F51EEB01CE15DF0571F0D7FE03C0FE0122
:10210000849101C088810E943F1021968111F2CFF5
:102110008FEF9FEF01C0C801DF91CF911F910F9109
:10212000FF90EF90DF900895615030F02091F10022
:10213000FC0120830196F8CF289884E680937001F3
:102140000895CF93DF93CDB7DEB7CE54D1090FB644
:10215000F894DEBF0FBECDBF789484B5826084BD95
:1021600084B5816084BD85B5826085BD85B581609B
:1021700085BD80916E00816080936E001092810019
:1021800080918100826080938100809181008160D4
:102190008093810080918000816080938000809195
:1021A0009100826080939100809191008160809382
:1021B0009100809190008160809390008091C10097
:1021C00084608093C1008091C10082608093C100CF
:1021D0008091C10081608093C1008091C3008160C3
:1021E0008093C3008091C00082608093C000809182
:1021F000C20081608093C20080917A0084608093E5
:102200007A0080917A00826080937A0080917A00CF
:10221000816080937A0080917A00806880937A0050
:102220001092710110926D0110926E018091D70091
:1022300081608093D70080EA8093D80089B580615F
:1022400089BD89B5826089BD09B400FEFDCF61E01A
:1022500070E080E090E00E94BB0B8091D8008F7C02
:1022600080618093D8008091E000807F8093E000BF
:102270008091E1008E7E8093E1008DE08093E2000A
:10228000559A209AEEEFFFE7859194918B3F9C4DF4
:1022900019F481E080936C0181EC80937C0085B11E
:1022A000806F85B984B1877E84B984B1876E84B923
:1022B0005E9A5F988AB1806D8AB9769A6E9881B37A
:1022C000806F81BB899880B38D7080BB80E58CBDA9
:1022D00081E08DBD0E94D40A5F9A0E94D40A5E9864
:1022E0005C98E8EFF0E08DE08E0F94919EBD0000C9
:1022F0000DB407FEFDCF31968E13F7CF5C9A81E8BF
:1023000080936400809165008160809365000E94E5
:102310004D0D803839F42E9880916400806280934E
:102320006400FFCF82E090E00E94501D882319F0E6
:102330000E945A0D02C00E94550D68E6262E3324D5
:1023400033948FB7F89440915E0150915F01609192
:102350006001709161018FBF80910206342F381B9C
:10236000832F90910306992329F03093040610924D
:10237000030639C190910106391748F48F5F891718
:1023800008F031C181E083BF889513BE2CC111E0F4
:1023900010930306409302068091FD059091FE057F
:1023A00001969093FE058093FD058091FF05809333
:1023B00000060E944D0D8093FF0580911701811149
:1023C00010C00E944D0D86FD0CC015C18091FD0509
:1023D0009091FE0566E970E00E941A21892B09F0B0
:1023E00013C181E08093170190910C01911163C199
:1023F00010911401111105C090916701891B809300
:10240000160180E20E94B109882371F0111106C003
:1024100080910D018823F1F0815012C08091160146
:102420008823C1F0815014C080E40E94B109882340
:1024300089F0111108C080910D01823058F48F5F2E
:1024400080930D0107C080911601811103C081E0C6
:102450008093160184E00E94B109882309F45BC0CF
:10246000111137C080910D0181112DC08091640040
:102470008E7F8093640080917A00806480937A00DC
:1024800080917A0086FDFCCF009178001091790050
:102490000E94960B20E030E0980111270027600F82
:1024A000711F821F931F611571058105910511F040
:1024B0000E94471D8091640081608093640081E0E8
:1024C00080930C01F8C08093150181E08093140182
:1024D00028C080911501823021F58091160181116B
:1024E00003C00E945A0D04C0813011F40E94550DA2
:1024F0006091670182E090E02D966FAF2D970E946A
:10250000501D2D966FAD2D97681749F082E090E031
:102510000E94581D04C088E00E94B10981111092E8
:10252000140180911401811141C0909011019A947D
:102530009091120180911001890F90910D01899F56
:10254000900C112480900F0180910E0100911301D5
:1025500010E001501109C92CD12C76015601A80EAA
:10256000B11CEA14FB0454F421E0482DB801C70162
:102570000E945509BFEFEB1AFB0AF3CF20910F0120
:102580002E5F40910E014E5F6091130170E062502A
:102590007109C60101970E94810960911301615080
:1025A00020910F0140910E01892D1AC080911501D3
:1025B000823019F00E94450916C0809116018823C7
:1025C00029F0813031F442E18AE405C04DE08BE32B
:1025D00002C040E080E060911301615020910F0142
:1025E0000E947E0DE7CF80E090E0892B09F4A9CE10
:1025F0000E940000A2CE80911A0185300CF0E6CE38
:102600008F5F80931A01D6CF80911801811133C05A
:10261000809171008D7F809371001092660182E736
:1026200095E090936501809364019093630180939A
:10263000620186E194E0909373058093720582E3D2
:1026400090E090937505809374058DE298E09093E7
:1026500077058093760584E690E0909379058093E2
:10266000780580E090E890937B0580937A050E943E
:102670003F0C10931801E0901A010E2C000CFF087B
:1026800049E1E40EF11C0091190159E0C52ED12C4D
:10269000002E000C110B075D1F4FC8018C199D09FE
:1026A000A1E0CA1AD10809F485CF20E046E0B701BD
:1026B0000E945509F2CF8091B3059091B40505971A
:1026C0000CF0B5C0CE0101960E94040E18A61FA200
:1026D00086E290E00E9448219AA789A780E090E0D6
:1026E000A0E6B0E48BA79CA7ADA7BEA78DEC9CECA1
:1026F000ACE4BDE38FA798ABA9ABBAAB83E393E39C
:10270000A3EBBEE38BAB9CABADABBEAB8AE097ED6E
:10271000A3EABCE38FAB98AFA9AFBAAF80E090E07B
:10272000A0E8BFEB8BAF9CAFADAFBEAF0E94421D28
:102730002CE231E040E050E00E94661D0E945C1FE8
:1027400069837A838B839C830E94421D2CE231E053
:1027500040E050E00E94661D0E945C1F6D837E83F6
:102760008F83988784E18C8780E18D8786E0E1E321
:10277000F1E0DE011E9601900D928A95E1F70E942C
:10278000421D25E030E040E050E00E94661D9B01C4
:10279000AC012B5F3F4F4F4F5F4F61E070E080E037
:1027A00090E00E94661DCA01B9010E945C1F2AE0E8
:1027B00037ED43E25CE30E94CA1D6FAB78AF89AF8F
:1027C0009AAFCFA4D8A8E9A8FAA80E94421D20E099
:1027D00030E0A901C701B6010E94CA1D6FA778ABFE
:1027E00089AB9AAB88E189874091B3055091B405D4
:1027F00045305105C4F4A091B505B091B605CA01A4
:1028000001969093B4058093B3058EE3849F900165
:10281000859F300D1124A20FB31FFE013196019048
:102820000D928A95E1F789A59AA50E94DD218090F5
:10283000040190900501A0900601B0900701C0909E
:102840000001D0900101E0900201F0900301A50188
:10285000940160E070E088E493E40E94C91D0E9446
:10286000241F23966CAF7DAF8EAF9FAF2397A70138
:10287000960160E070E08AE793E40E94C91D0E941F
:10288000241F27966CAF7DAF8EAF9FAF2797A50112
:10289000940160E070E0CB010E94C91D0E94241FDA
:1028A0002B966CAF7DAF8EAF9FAF2B97A701960194
:1028B00060E070E088EC92E40E94C91D0E94241F31
:1028C0002B013C01A501940160E070E08AE793E4EC
:1028D0000E94C91D0E94241F4B015C01A7019601A3
:1028E00060E070E0CB010E94C91D0E94241FDC0142
:1028F000CB012196EEACFFAC219725960EAD1FAD16
:10290000259729962EAD3FAD2997A201B4010E94CB
:10291000AA0A8090040190900501A0900601B09051
:102920000701C0900001D0900101E0900201F090F9
:102930000301A501940160E070E08FEA93E40E9436
:10294000C91D0E94241F23966CAF7DAF8EAF9FAF31
:102950002397A701960160E070E08AEF93E40E945C
:10296000C91D0E94241F27966CAF7DAF8EAF9FAF0D
:102970002797A501940160E070E0CB010E94C91D7A
:102980000E94241F2B966CAF7DAF8EAF9FAF2B970D
:10299000A701960160E070E088EC93E40E94C91DF5
:1029A0000E94241F2B013C01A501940160E070E00E
:1029B00088E493E40E94C91D0E94241F4B015C011E
:1029C000A701960160E070E08AE793E40E94C91DC8
:1029D0000E94241FDC01CB012196EEACFFAC2197B5
:1029E00025960EAD1FAD259729962EAD3FAD2997A3
:1029F000A201B4010E94AA0A8090040190900501EE
:102A0000A0900601B0900701C0900001D090010194
:102A1000E0900201F0900301A501940160E070E0F4
:102A20008AE793E40E94C91D0E94241F23966CAF7D
:102A30007DAF8EAF9FAF2397A701960160E070E84E
:102A40008BE394E40E94C91D0E94241F27966CAF5B
:102A50007DAF8EAF9FAF2797A501940160E070E036
:102A6000CB010E94C91D0E94241F2B966CAF7DAF25
:102A70008EAF9FAF2B97A701960160E070E889E0C9
:102A800094E40E94C91D0E94241F2B013C01A50152
:102A9000940160E070E08FEA93E40E94C91D0E94F7
:102AA000241F4B015C01A701960160E070E08AEFF2
:102AB00093E40E94C91D0E94241FDC01CB012196D2
:102AC000EEACFFAC219725960EAD1FAD259729964C
:102AD0002EAD3FAD2997A201B4010E94AA0A82E857
:102AE00095E00E94210F2091E9053091EA0540917F
:102AF000EB055091EC056091D5057091D60580915C
:102B0000D7059091D8050E9472201816ACF50E9446
:102B10004D0D85FF13C02091E1053091E2054091F4
:102B2000E3055091E4056091D1057091D205809143
:102B3000D3059091D4050E94CA1D16C00E944D0D68
:102B400086FF1AC02091E1053091E2054091E3052E
:102B50005091E4056091D1057091D2058091D30523
:102B60009091D4050E94C91D6093D1057093D20540
:102B70008093D3059093D4050E944D0D82FF55C0DC
:102B8000C090D505D090D605E090D705F090D80537
:102B900020E030E0A901C701B6010E94722018169A
:102BA0004CF42091ED053091EE054091EF055091E8
:102BB000F00510C020E030E040E850E46091ED0501
:102BC0007091EE058091EF059091F0050E947F20B5
:102BD0009B01AC01C701B6010E94CA1D6093D505D7
:102BE0007093D6058093D7059093D805C090D905EA
:102BF000D090DA05E090DB05F090DC05A7019601A6
:102C00006091D5057091D6058091D7059091D80532
:102C10000E9472201816ECF5C092D505D092D60508
:102C2000E092D705F092D80534C00E944D0D83FF85
:102C300030C0C090D505D090D605E090D705F09073
:102C4000D8052091F1053091F2054091F30550919E
:102C5000F405C701B6010E9472201816D4F46091E1
:102C6000ED057091EE058091EF059091F0059B01C7
:102C7000AC010E94CA1D9B01AC01C701B6010E94B4
:102C8000C91D6093D5057093D6058093D7059093A1
:102C9000D80587EB95E00E945D0F87EB95E00E94D9
:102CA000210F87EB95E00E94B40D0E94421D24E69F
:102CB00030E040E050E00E94661D62307105810501
:102CC00091050CF096C0C090D505D090D605E09047
:102CD000D705F090D80520E030E0A901C701B60182
:102CE0000E94722018160CF084C08091DD0590912E
:102CF000DE05181619060CF47CC08090D105909062
:102D0000D205A090D305B090D4056091C305669517
:102D100070E080E090E00E945C1F2091BB05309144
:102D2000BC054091BD055091BE050E94CA1D20E022
:102D300030E040E850E40E94C91D2B013C01609145
:102D4000C205669570E080E090E00E945C1F2091D3
:102D5000B7053091B8054091B9055091BA050E9468
:102D6000CA1D20E030E040E850E40E94C91DAB01DC
:102D7000BC01CE0101962E964FAF2E972F965FAFD6
:102D80002F972D966FAF2D972C967FAF2C970E9483
:102D9000040E2E964FAD2E972F965FAD2F972D9642
:102DA0006FAD2D972C967FAD2C9749835A836B83FB
:102DB0007C834D825E826F8278868B8E9C8EAD8EF8
:102DC000BE8E20E030E040E05FE3C701B6010E9424
:102DD0007F206F8F78A389A39AA384E0898798E0E6
:102DE0009B878A8FBE016F5F7F4F8DED95E00E94BC
:102DF000DA0A0E944D0D83FF1AC020E030E0A901DD
:102E00006091D5057091D6058091D7059091D80530
:102E10000E94722018165CF48091FD0580FD07C0A9
:102E20008091F5059091F60505970CF46CC480E04F
:102E300096E2282F30E04091F5055091F6052417D1
:102E40003507A4F5E6E28E9FD0011124E091F70545
:102E5000F091F805EA0FFB1F418D442319F0415012
:102E6000418F22C06091F5057091F605AD014A5D74
:102E70005F4F261737078CF4E091F705F091F805BE
:102E8000AE0FBF1FE40FF51F692F01900D926A95D9
:102E9000E1F72F5F3F4FDA01E5CF61507109709381
:102EA000F6056093F50581508F5FC3CF2091040133
:102EB0003091050140910601509107016091BB05D9
:102EC0007091BC058091BD059091BE050E94C91D01
:102ED0000E94241F6B017C012091000130910101AF
:102EE00040910201509103016091B7057091B805BE
:102EF0008091B9059091BA050E94C91D0E94241FB6
:102F0000DC01CB012091C00547EC54E0B6010E94E2
:102F1000BC092091950530919605409197055091F7
:102F200098056091990570919A0587EB95E00E944C
:102F30002A0EF12C84E0E82E8F2D90E02091B3052D
:102F40003091B405821793070CF092C2FEE3FF9E06
:102F5000600111240091B5051091B6050C0D1D1DE1
:102F6000C8010E945D0FC8010E94210FC8010E9484
:102F7000B40DD8015E968D909D90AD90BC909197C8
:102F800020E030E0A901C501B4010E9472201816AA
:102F900034F4F80126A937A940AD51AD0DC020E0A9
:102FA00030E040E850E4F80166A977A980AD91AD22
:102FB0000E947F209B01AC01C501B4010E94CA1D83
:102FC000D8015E966D937D938D939C939197F801B4
:102FD00082A093A0A4A0B5A0A5019401668D778DD1
:102FE00080A191A10E94722018163CF4D8015E962F
:102FF0008D929D92AD92BC9291970E94421D24E6C3
:1030000030E040E050E00E94661D623071058105AD
:1030100091050CF097C0F801868C978CA0A0B1A008
:1030200020E030E0A901C501B4010E947220181609
:103030000CF088C0D80196968D919C9197971816A0
:1030400019060CF47FC0D8015A964D905D906D9092
:103050007C905D971C966C91669570E080E090E0A6
:103060000E945C1FF80124813581468157810E94AE
:10307000CA1D20E030E040E850E40E94C91D2396BC
:103080006CAF7DAF8EAF9FAF2397D8011B966C912D
:10309000669570E080E090E00E945C1FF80120815E
:1030A0003181428153810E94CA1D20E030E040E816
:1030B00050E40E94C91DAB01BC01CE0101962E96C1
:1030C0004FAF2E972F965FAF2F972D966FAF2D97FF
:1030D0002C967FAF2C970E94040E2E964FAD2E9704
:1030E0002F965FAD2F972D966FAD2D972C967FADB8
:1030F0002C9749835A836B837C8323968CAD9DAD3B
:10310000AEADBFAD23978D839E83AF83B8874B8EC3
:103110005C8E6D8E7E8E20E030E040E05FE3C50186
:10312000B4010E947F206F8F78A389A39AA3E986B8
:1031300098E09B87EA8EBE016F5F7F4FC80186963D
:103140000E94DA0A8090BB059090BC05A090BD0556
:10315000B090BE054090B7055090B8056090B90595
:103160007090BA050091B5051091B6050C0D1D1DA6
:10317000D801D2962D913D914D915C91D5975E9657
:103180006D917D918D919C9191970E94722018165E
:103190000CF09CC0F80160817181828193810E9452
:1031A000241F23966CAF7DAF8EAF9FAF2397C301D3
:1031B000B2010E94241F21962EAD3FAD2197261B00
:1031C000370BB901072E000C880B990B0E945C1F6E
:1031D0009B01AC01C501B4012C962FAF2C972D9605
:1031E0003FAF2D972E964FAF2E972F965FAF2F970D
:1031F0000E94241F4B015C01D80114966D917D91B2
:103200008D919C9117970E94241FF401E61BF70BE8
:10321000BF01072E000C880B990B0E945C1F2C9697
:103220002FAD2C972D963FAD2D972E964FAD2E9707
:103230002F965FAD2F970E94491ED8015A964D9048
:103240005D906D907C905D9720E030ED4FE557E408
:103250000E947F2020E030E04AE754E40E94B21E42
:1032600020E030E044E353E40E94CA1D0E94241F82
:103270004B015C01C301B2010E94241FC401861BE3
:10328000970BB1010E942E21845E9D4FB1010E94D7
:103290002E21BC01645B7109072E000C880B990B71
:1032A0000E945C1FF80126A537A540A951A90E94DC
:1032B0007F209B01AC01C301B2010E94CA1DD8014D
:1032C0005A966D937D938D939C935D972091040105
:1032D000309105014091060150910701F801648188
:1032E0007581868197810E94C91D0E94241F4B0110
:1032F0005C01209100013091010140910201509147
:103300000301D8016D917D918D919C910E94C91D01
:103310000E94241FDC01CB01F801218545E051E02A
:10332000B4010E94BC098091FD059091FE0565E005
:1033300070E00E941A21892BB1F08091B50590911F
:10334000B6052091CA053091CB054091CC0550912E
:10335000CD056091CE057091CF058C0D9D1D0E940D
:103360002A0E10E07AC020910401309105014091AD
:10337000060150910701D80114966D917D918D91B0
:103380009C9117970E94C91D4B015C01F80164854F
:10339000669570E080E090E00E945C1F9B01AC01AC
:1033A000C501B4010E94CA1D20E030E040EE50E4A7
:1033B0000E94C91D0E94241F5B01209100013091D1
:1033C00001014091020150910301D8016D917D915D
:1033D0008D919C910E94C91D2B013C01F8016385D0
:1033E000669570E080E090E00E945C1F9B01AC015C
:1033F000C301B2010E94CA1D20E030E040EA50E45F
:103400000E94C91D0E94241F4B018B01065F1F4FA4
:103410008016910609F491CF21E044E0B501C40182
:103420000E945509FFEF8F1A9F0AF2CF1F15A1F0D6
:103430008091B5059091B605FC012EE3129FE00D39
:10344000F11D112423893489458956896789708D36
:103450008C0D9D1D0E942A0E1F5F812F90E02091F0
:10346000B3053091B4058217930704F3F39464CD48
:103470006091C305669570E080E090E00E945C1F5B
:103480002091BB053091BC054091BD055091BE0512
:103490000E94CA1D6B017C016091C205669570E0B7
:1034A00080E090E00E945C1F2091B7053091B80544
:1034B0004091B9055091BA050E94CA1D4B015C01AB
:1034C0004090000150900101609002017090030152
:1034D00020E030E040E052E4C301B2010E94CA1D86
:1034E000A50194010E94722018163CF420E030E0FF
:1034F00040E052E4C501B40120C020E030E040E0EB
:1035000053E4C301B2010E94CA1D20E030E040E054
:1035100052E40E94C91DA50194010E94A81E87FFC4
:1035200016C020E030E040E052E4C501B4010E9442
:10353000CA1D20E030E040E053E40E94C91D6093C2
:103540000001709301018093020190930301809028
:10355000000190900101A0900201B090030120E0D1
:1035600030E0A901C501B4010E94A81E87FF09C06F
:1035700010920001109201011092020110920301B9
:103580002EC0009108011091090120E030E040E0D8
:1035900053E4C501B4010E94CA1D4B015C01B8018E
:1035A000012E000C880B990B0E945C1F9B01AC0143
:1035B000C501B4010E94722018168CF4B80160583D
:1035C0007109072E000C880B990B0E945C1F6093F9
:1035D0000001709301018093020190930301809098
:1035E000040190900501A0900601B090070120E031
:1035F00030E040EC51E4C501B4010E94CA1DA701AE
:1036000096010E94722018163CF420E030E040EC55
:1036100051E4C701B60120C020E030E040E852E4A8
:10362000C501B4010E94CA1D20E030E040EC51E425
:103630000E94C91DA70196010E94A81E87FF16C0FF
:1036400020E030E040EC51E4C701B6010E94CA1D01
:1036500020E030E040E852E40E94C91D609304017C
:10366000709305018093060190930701C0900401B7
:10367000D0900501E0900601F090070120E030E0D5
:10368000A901C701B6010E94A81E87FF0AC01092B7
:1036900004011092050110920601109207010C948A
:1036A000DA1200910A0110910B0120E030E040E8AD
:1036B00052E4C701B6010E94CA1D6B017C01B8012A
:1036C000012E000C880B990B0E945C1F9B01AC0122
:1036D000C701B6010E947220181614F00C94DA1279
:1036E000B80160547109072E000C880B990B0E94D9
:1036F0005C1F609304017093050180930601909311
:1037000007010C94DA121091C005C090BB05D0904F
:10371000BC05E090BD05F090BE058090B705909087
:10372000B805A090B905B090BA05CE0101960E94E7
:10373000040E89829A82AB82BC82CD82DE82EF82C5
:10374000F8861A878AE08A8F4091F5055091F60530
:10375000453051050CF06BCBA091F705B091F80501
:10376000CA0101969093F6058093F50586E2849F41
:103770009001859F300D1124A20FB31FFE013196D9
:1037800001900D928A95E1F752CBCF92DF92EF92A2
:10379000FF920F931F93CF93DF931F92CDB7DEB7A6
:1037A000182F062FE42E862F880F8E5F99830E9494
:1037B0003F1083E00E943F10F12EC12E9981D92E37
:1037C0008C2D8F19801798F4F601E7FE02C08491C2
:1037D00001C080810E943F10182F80E00E943F109E
:1037E0008123FFEFCF1ADF0A8111EACF01C081E008
:1037F0000F90DF91CF911F910F91FF90EF90DF908D
:10380000CF9008950F931F93CF93DF93E1E1F6E0FC
:103810001382128288EE93E0A0E0B0E08483958367
:10382000A683B78388E491E0918380838FEF9FEF35
:1038300095878487EAEFF5E08BE591E091838083BB
:103840001582168210E117831482138211868CE888
:103850009BE0909381058093800580E090E89093B1
:103860007F0580937E0546983E9A47983F9A87EB5E
:1038700095E00E94040EC7EBD5E01FA21EA286E2CF
:1038800090E00E94482199A788A780E090E0A0E6F8
:10389000B0E48AA79BA7ACA7BDA78DEC9CECACE4D9
:1038A000BDE38EA79FA7A8ABB9AB83E393E3A3EBDC
:1038B000BEE38AAB9BABACABBDAB8AE097EDA3EAB2
:1038C000BCE38EAB9FABA8AFB9AF80E090E0A0E8BF
:1038D000BFEB8AAF9BAFACAFBDAF1092F6051092B5
:1038E000F5058EEB90E00E9448219093F8058093B7
:1038F000F7050E94421D28E631E040E050E00E94BA
:10390000661D0E945C1F6A8F7B8F8C8F9D8F80E06D
:1039100090E0A0EAB1E488839983AA83BB838C8377
:103920009D83AE83BF8304E10B871C8786E0EEE3B3
:10393000F1E0A4ECB5E001900D928A95E1F788E101
:103940008887C3EBD5E01982188286E391E00E9454
:1039500048219B838A83E8EAF5E010861186128667
:1039600080E090E0A0EFB1E480839183A283B383F1
:1039700084839583A683B78382E895E00E94040E32
:10398000E2E8F5E080E090E0A0EAB2E48083918391
:10399000A283B38380E090E0A0E2B2E484839583C5
:1039A000A683B7830387148786E0EEE3F1E0AFE8F0
:1039B000B5E001900D928A95E1F7DF91CF911F91CB
:1039C0000F9108958091B5059091B6050E94DD2173
:1039D0008091F7059091F8050E94DD218091DF0527
:1039E0009091E0050C94DD218F929F92AF92BF924F
:1039F000CF92DF92EF92FF92CF93DF93EC01688139
:103A000079818A819B81611571058105910521F478
:103A100064E279ED8BE597E02DE133EF41E050E092
:103A20000E94661D49015A019B01AC01A7EAB1E45D
:103A30000E94851D6B017C01ACEEB4EFA5019401E1
:103A40000E94931DDC01CB018C0D9D1DAE1DBF1D81
:103A5000B7FF03C00197A109B04888839983AA835F
:103A6000BB83BC01CD019F77DF91CF91FF90EF9099
:103A7000DF90CF90BF90AF909F908F9008950E945D
:103A8000F41C089587E291E00E94F41C089560936D
:103A90002701709328018093290190932A010895AA
:103AA000F999FECF92BD81BDF89A992780B5089506
:103AB000262FF999FECF1FBA92BD81BD20BD0FB64A
:103AC000F894FA9AF99A0FBE01960895052E97FB7D
:103AD0001EF400940E947D1D57FD07D00E94981D82
:103AE00007FC03D04EF40C947D1D50954095309505
:103AF00021953F4F4F4F5F4F08959095809570955A
:103B000061957F4F8F4F9F4F08950E94BA1DA59FCB
:103B1000900DB49F900DA49F800D911D11240895C8
:103B2000B7FF0C94851D0E94851D821B930B089581
:103B3000A1E21A2EAA1BBB1BFD010DC0AA1FBB1FB1
:103B4000EE1FFF1FA217B307E407F50720F0A21B23
:103B5000B30BE40BF50B661F771F881F991F1A9490
:103B600069F760957095809590959B01AC01BD01BA
:103B7000CF010895A29FB001B39FC001A39F700D14
:103B8000811D1124911DB29F700D811D1124911D65
:103B900008955058BB27AA270E94E11D0C942420A9
:103BA0000E94EB1F38F00E94F21F20F039F49F3F73
:103BB00019F426F40C94C11F0EF4E095E7FB0C9465
:103BC000BB1FE92F0E94492058F3BA1762077307F9
:103BD0008407950720F079F4A6F50C946B200EF479
:103BE000E0950B2EBA2FA02D0B01B90190010C010D
:103BF000CA01A0011124FF27591B99F0593F50F425
:103C0000503E68F11A16F040A22F232F342F44277C
:103C1000585FF3CF469537952795A795F040539574
:103C2000C9F77EF41F16BA0B620B730B840BBAF044
:103C30009150A1F0FF0FBB1F661F771F881FC2F7AF
:103C40000EC0BA0F621F731F841F48F487957795C3
:103C50006795B795F7959E3F08F0B0CF9395880F7D
:103C600008F09927EE0F9795879508950E94EB1F0E
:103C700060F080E891E009F49EEF0E94F21F28F0C6
:103C800040E851E071F45EEF0CC00C94C11F0C943D
:103C90006B20E92FE0780E94492040F3092E052A85
:103CA000B1F3261737074807590738F00E2E07F8E3
:103CB000E02569F0E025E0640AC0EF6307F80094AE
:103CC00007FADB01B9019D01DC01CA01AD01EF93E7
:103CD0000E94C91E0E9424200E94791E5F915523D4
:103CE00039F02BED3FE049E450FD49EC0C94CA1D3E
:103CF0000895DF93DD27B92FBF7740E85FE31616FD
:103D0000170648075B0718F4D92F0E9477209F9366
:103D10008F937F936F930E94F420ECEAF0E00E946F
:103D2000C41F0E9424202F913F914F915F910E94C8
:103D30009220DD2351F09058A2EA2AED3FE049ECB1
:103D40005FE3D0785D270E94E11DDF910C94242071
:103D50000E94971F08F481E008950E94FB1FE395DD
:103D60000C9435200E94C61E0C9424200E94F21F41
:103D700058F00E94EB1F40F029F45F3F29F00C94AB
:103D8000BB1F51110C946C200C94C11F0E94492040
:103D900068F39923B1F3552391F3951B550BBB277A
:103DA000AA2762177307840738F09F5F5F4F220FBF
:103DB000331F441FAA1FA9F335D00E2E3AF0E0E8B6
:103DC00032D091505040E695001CCAF72BD0FE2F00
:103DD00029D0660F771F881FBB1F26173707480794
:103DE000AB07B0E809F0BB0B802DBF01FF2793584C
:103DF0005F4F3AF09E3F510578F00C94BB1F0C9436
:103E00006C205F3FE4F3983ED4F3869577956795F1
:103E1000B795F7959F5FC9F7880F911D9695879580
:103E200097F90895E1E0660F771F881FBB1F62179F
:103E300073078407BA0720F0621B730B840BBA0B5D
:103E4000EE1F88F7E09508950E942B1F6894B1112A
:103E50000C946C2008950E94512088F09F5798F090
:103E6000B92F9927B751B0F0E1F0660F771F881F7F
:103E7000991F1AF0BA95C9F714C0B13091F00E9499
:103E80006B20B1E008950C946B20672F782F882762
:103E9000B85F39F0B93FCCF3869577956795B395C0
:103EA000D9F73EF490958095709561957F4F8F4F2F
:103EB0009F4F0895E89409C097FB3EF49095809534
:103EC000709561957F4F8F4F9F4F9923A9F0F92FE0
:103ED00096E9BB279395F695879577956795B7955E
:103EE000F111F8CFFAF4BB0F11F460FF1BC06F5F44
:103EF0007F4F8F4F9F4F16C0882311F096E911C056
:103F0000772321F09EE8872F762F05C0662371F076
:103F100096E8862F70E060E02AF09A95660F771F8A
:103F2000881FDAF7880F9695879597F90895990F66
:103F30000008550FAA0BE0E8FEEF16161706E80773
:103F4000F907C0F012161306E407F50798F0621B94
:103F5000730B840B950B39F40A2661F0232B242B69
:103F6000252B21F408950A2609F4A140A6958FEF88
:103F7000811D811D089597F99F6780E870E060E0DA
:103F800008959FEF80EC0895DF93CF931F930F93D5
:103F9000FF92EF92DF927B018C01689406C0DA2ECB
:103FA000EF010E949220FE01E894A59125913591A0
:103FB00045915591A6F3EF010E94E11DFE01970185
:103FC000A801DA9469F7DF90EF90FF900F911F91AD
:103FD000CF91DF91089500240A941616170618064B
:103FE0000906089500240A941216130614060506FD
:103FF00008950C94C11F0E945120D8F3E894E0E08A
:10400000BB279F57F0F02AED3FE049EC06C0EE0FCA
:10401000BB0F661F771F881F28F0B23A620773072D
:10402000840728F0B25A620B730B840BE3959A95C0
:1040300072F7803830F49A95BB0F661F771F881F80
:10404000D2F790480C94FA20092E0394000C11F436
:10405000882352F0BB0F40F4BF2B11F460FF04C063
:104060006F5F7F4F8F4F9F4F0895EF93E0FF07C023
:10407000A2EA2AED3FE049EC5FEB0E94E11D0E94BD
:1040800024200F90039401FC9058E9EDF0E00C948B
:10409000062157FD9058440F551F59F05F3F71F0AE
:1040A0004795880F97FB991F61F09F3F79F087959F
:1040B0000895121613061406551FF2CF4695F1DF28
:1040C00008C0161617061806991FF1CF86957105B8
:1040D000610508940895E894BB2766277727CB01EC
:1040E00097F908950E94971F08F48FEF08959B0198
:1040F000AC0160E070E080E89FE30C94B21E0E9487
:1041000092200C9424200E94EB1F38F00E94F21F92
:1041100020F0952311F00C94BB1F0C94C11F1124A7
:104120000C946C200E94492070F3959FC1F3950F69
:1041300050E0551F629FF001729FBB27F00DB11D2B
:10414000639FAA27F00DB11DAA1F649F6627B00DBB
:10415000A11D661F829F2227B00DA11D621F739FA4
:10416000B00DA11D621F839FA00D611D221F749FB2
:104170003327A00D611D231F849F600D211D822FF9
:10418000762F6A2F11249F5750409AF0F1F0882320
:104190004AF0EE0FFF1FBB1F661F771F881F91504D
:1041A0005040A9F79E3F510580F00C94BB1F0C9422
:1041B0006C205F3FE4F3983ED4F38695779567953E
:1041C000B795F795E7959F5FC1F7FE2B880F911D77
:1041D0009695879597F908959F930E94FB1F0F90DE
:1041E00007FCEE5F0C9435209B01AC010C947F2002
:1041F0009F3F31F0915020F4879577956795B7955B
:10420000880F911D9695879597F908959F938F93A1
:104210007F936F93FF93EF939B01AC010E947F20EC
:10422000EF91FF910E94C41F2F913F914F915F9199
:104230000C947F20AA1BBB1B51E107C0AA1FBB1F08
:10424000A617B70710F0A61BB70B881F991F5A9522
:10425000A9F780959095BC01CD01089597FB072E95
:1042600016F4009407D077FD09D00E941A2107FCAC
:1042700005D03EF4909581959F4F08957095619576
:104280007F4F0895EE0FFF1F0590F491E02D0994E4
:10429000CF93DF938230910510F482E090E0E091BB
:1042A0007106F091720620E030E0C0E0D0E0309777
:1042B00011F14081518148175907C0F0481759073B
:1042C00061F482819381209719F09B838A832BC0AC
:1042D000909372068093710626C02115310519F05E
:1042E0004217530718F49A01BE01DF01EF01028063
:1042F000F381E02DDCCF2115310509F1281B390BA5
:104300002430310590F412968D919C91139761158C
:10431000710521F0FB019383828304C090937206A0
:1043200080937106FD01329644C0FD01E20FF31F38
:1043300081939193225031092D933C933AC020915F
:104340006F0630917006232B41F420912D0130919E
:104350002E013093700620936F0620912B0130912F
:104360002C012115310541F42DB73EB740912F01A5
:1043700050913001241B350BE0916F06F0917006CF
:10438000E217F307A0F42E1B3F0B2817390778F02C
:10439000AC014E5F5F4F2417350748F04E0F5F1F8B
:1043A0005093700640936F068193919302C0E0E0B2
:1043B000F0E0CF01DF91CF9108950F931F93CF933A
:1043C000DF93009709F48CC0FC01329713821282AC
:1043D00000917106109172060115110581F420817A
:1043E0003181820F931F20916F063091700628173C
:1043F000390779F5F0937006E0936F0671C0D80124
:1044000040E050E0AE17BF0750F412962D913C915A
:104410001397AD012115310509F1D901F3CF9D01A4
:10442000DA013383228360817181860F971F82179F
:10443000930769F4EC0128813981260F371F2E5F1D
:104440003F4F318320838A819B8193838283452BD5
:1044500029F4F0937206E093710642C01396FC9320
:10446000EE931297ED01499159919E01240F351F4A
:10447000E217F30771F480819181840F951F0296F2
:1044800011969C938E938281938113969C938E9325
:104490001297E0E0F0E0D80112968D919C9113976D
:1044A000009719F0F8018C01F6CF8D919C9198013D
:1044B0002E5F3F4F820F931F20916F063091700641
:1044C0002817390769F4309729F410927206109270
:1044D000710602C0138212821093700600936F0659
:1044E000DF91CF911F910F91089581E090E0F894B2
:1044F0000C947A2214E0C4E8D4E004C0FE010E94C7
:0E45000042212196C538D107C9F7F894FFCFA4
:10450E000000000000000000D007E80300001709BB
:10451E001510043700000000001DD2FFFFFFFF0042
:10452E00E1000000000000010000000000730680A2
:10453E0000050004000A0A00C18081000000050089
:10454E0004000A0A00000000AF04EA046F05C50467
:0E455E00D0047305910519000000008F0B00BA
:00000001FF
