:100000000C94680B0C94900B0C94900B0C94900B2C
:100010000C94900B0C94900B0C94900B0C94900BF4
:100020000C94900B0C94900B0C947A270C94EC2766
:100030000C94900B0C94900B0C94900B0C94900BD4
:100040000C94900B0C94900B0C94900B0C94900BC4
:100050000C94900B0C94900B0C94900B0C948D0DB5
:100060000C94900B0C94900B0C94900B0C94900BA4
:100070000C94900B0C94900B0C94900B0C94900B94
:100080000C94D70D0C94900B0C94900B0C94900B3B
:100090000C94900B0C94900B0C94900B0C94900B74
:1000A0000C94900B0C94900B0C94900B084AD73B3B
:1000B0003BCE016E84BCBFFDC12F3D6C74319ABD37
:1000C00056833DDA3D00C77F11BED9E4BB4C3E915B
:1000D0006BAAAABE000000803F05A84CCDB2D44E4A
:1000E000B93836A9020C50B9918688083CA6AAAA4C
:1000F0002ABE000000803F0001020408102040805A
:10010000D5F08D14A1C881CFD9F1AF2000420F28BE
:10011000E5F6ED56D9D9E4F6EDD62AC964B7CA4951
:10012000A79CB25B26BBFDFFDF2A47E59CB44AAA29
:10013000A5726472FB76ABEC6C72FB766B9564B265
:10014000DBFFFFAD725476FBAD6EB51D475B65B747
:100150004B2567DB2ABB5D2A399B928A5C4945A601
:10016000A4429E928A7CABEC76A9E46C5B65B74BAB
:1001700025675352912AA9C8945476BBDD4E0A07CD
:10018000080C0603030306003F2FB0BD54CE29B967
:10019000DDA6D387D3743A9D4EA7D3E9743A1D5197
:1001A0005649A97C3ABDDD2AE99C543A08CA291D62
:1001B000FED2DB6DDBE576BBDDA6D3E9743A9D4E5E
:1001C000A7D3E9F476BB555249E7A4B2EB5857B828
:1001D0004DA7D3E97476BBDD2E95933129659554EF
:1001E00052492595DCC69E5D2AA99C73CE39E79CB1
:1001F000734E4EB7545239E79C73CE392795BA7770
:100200004EDDAA57AD5EFD761D593ADBB94EF5B706
:100210005332AB64ED6EF5AF7AF5B9CE756EBBDDDA
:10022000AED369E75098AE9D92DB743AA6A553769B
:10023000BB554EAEB6CE49A523DB2E9D73CED5BBA6
:100240007F1B3D1FFCB47556E9F57A1DD4A4EC3A2A
:10025000BA74E73A954AD5AE5665D5A594BB56CA49
:10026000B961B7F476BD5D6FD7DBED76BDDD6EB7F6
:10027000DBED72BBDD6E97DBED72BBDCA6B74A8EA1
:100280005D7F3F80BC4849252B5991A59554323A52
:100290002595AC64744A2A59C9E89454323F0C2C11
:1002A0009554A954292AA9A4AAA4A452A554A95290
:1002B000AA14F4B84CA7D3E9742A954AF5AA57E9C9
:1002C0007C2D15EB769D8E6DBB4E562EDBAB5E7591
:1002D0002E954AA7D3E9743A3FBEA592AA2AE7A869
:1002E000A492AA961795545255525249259D723799
:1002F00095545255A552112EB3D974369D4EA7D39D
:10030000E9743E9DCFE787073D5DB4D1A5A34B4778
:10031000D6D9B218B3659311A6A34B47175D3AEF30
:10032000E122A7529D4D67D3E9743A9D4EE7D3F978
:100330007C2AE7F89DEC7CB2D3C9CE75AE739DEBF9
:100340005CE73AD7D95C67539D7270E13E9D4EA73A
:10035000D3E9743A9DCE66436B3E9F4EA7D3E974B2
:100360003A9D4E27878DF6F964A7939DEB5CE73A9B
:10037000D7B9CE75AEB3B9CE6693037B123F3FD1EA
:10038000974EA7D3E9743A9D4EA7D3E968D3E97491
:100390003A9D4E479B0E8DE9743A9D4EA7D3E97462
:1003A0003A9D0EDF843ADD76BBDD6EB73ACDC79756
:1003B0004EF7AA5739E728DBD5EE5DEDDED52E42A4
:1003C0009DE623D4E9B6DBED76BBD5693E7CCBED6B
:1003D000A94FFDAF7AD5FFFFFF9FDAAEE4F6289D67
:1003E00073BFEADDAB5E29A964DBA5DC5EFF7F722B
:1003F0007B6D977C727B6ABBEA55AF7AD5AB5EF5B5
:1004000076BB92DBC377BBDAD5AE76BFEABD92AAE4
:100410005DEDAC92EEFF4F39E77697FBFFBF76B507
:100420008BAF573D653AEF9C53727B6ABB6ABBEC5E
:1004300055AFB25BBB7DBB7DBB6CBB44B84EE79C8C
:1004400053B9CBBD4E2BE75CED6A57FF7FBDEAADDC
:1004500073CE7DEA53CEB974BA5EF52A77B9CB393B
:10046000E7EC36E59CAB5DEDFEFFDF2EDBD52EA97C
:10047000A4924A2AF5A9FF558FF2B64BB5DD7EEA64
:10048000FFFF539FFAD476D576ABD3CA3957769B04
:10049000DCEEB6BB57BDCA39A772CE792539EDF669
:1004A000FF7FBBE5DCEE9554CA3997FAD4876F3EDF
:1004B0009DB6DBED76BB3D9D26E453DB55CE3995ED
:1004C000DDBE5DF6AAA76CBB944AAAECF6FFDF4935
:1004D00025DB6E5FF54A6D57727B3A1D1FBED3E96F
:1004E000743A9D4EA7D3E9743A1D6D3ADA743A9D79
:1004F0004EA7D3A1299D4E479B8E361D9AD2A10FA0
:100500000608007F3E7F0C7F187F3E7F007F001F24
:100510000E7F3E7F387F0E7F001F0E08007F3E7FDC
:100520003E7F0A7F021F007F367F3E7F087F367F37
:10053000007F007F367F007F1508007F3E7F3E7F73
:10054000187F3E7F007F3E7F3E7F2A7F227F007F95
:100550003E7F3E7F207F2070007F3E7F3E7F127F68
:100560001E3F003F1508007F3E7F3E7F127F1E3FEB
:10057000007F3E7F3E7F207F2070007F3E7F3E7F5A
:10058000127F3E7F007F0E7F3E7F387F0E7F001FF1
:1005900015080077227F3E7F3E7F227F007F3E7FCF
:1005A0000C7F187F3E7F007F3E7F3E7F0A7F021FC9
:1005B000007F3E7F3E7F227F3E7F007F7F3FA040C7
:1005C000B9DD6EDF6E9D54643595DD6EB7FFFF5B60
:1005D000E5B8AAA292DBEDF6FF7FAB2453D5F6FF78
:1005E000B776BBDDBE3D252B551593DD6EB7FFFFFE
:1005F0006F4FC94A5545E594DD6EFFFFFF5F057DEE
:1006000067B395AC5CED6A57BBDAD5AEE4EDB6B531
:10061000FB4FBD92D995E3923A9DAE9D52AE942B7D
:1006200075EA6A59EACA96ABE4E52A79B6B2E52AD0
:1006300079B6D45557E5AA6CC9CB55F27255B6E4D4
:10064000B6B225CF75AE73B52B77B9CB5DD775EE46
:100650007439F5A94F7DEA954C6F6BA596D9DAD51B
:10066000AE76B5AB5D2D2B59D97CF0AAF23955BBCE
:10067000DA55A53AD7B94A56369BCE29972EB5BB3F
:1006800076B5AB64BA76B5AB5DED52A9D4E79CAA5A
:100690007255D5555D95ABAAABEA4A5D5557EA52FE
:1006A0005D5597EAAABA54A7EA529DAA4B75555DC3
:1006B000AAABEA525DA9ABEA4A5D5557D5557555C7
:1006C000E5AA9493B54BA7D3A954EA53D239BB4EAC
:1006D000A73EA7B8944FE7B395AC64E73A5795AAFD
:1006E0005D9DCA2938319BAD5CAD4AA95A95BBD4F2
:1006F000659395DCEE2A77B94BA9DAD54E49E59496
:10070000734AD5EA5ED54EC96D3A9D54F3CBAEEA35
:10071000AA5CB65297BA9453AE96DFEA579D2BA5C2
:100720009CECC82A99AEB83AE55C29D5A9FFBB96DE
:10073000CA9572A5AE525DD9CA56ADDA29F8289D80
:100740004E6FB795ACE4252FA5CAA9DA9572B5AC62
:100750006C3E58EBDDBB47527279B94ABA6E75B937
:10076000CB5DEE7297BBDCE52EFDA952D55D55AA97
:10077000AE7B7575777575B7DEA6B7955452B9F22D
:10078000AD145EF3E97436F4EEA85C2D2BA9647AFF
:100790009BDE56AE7697ABE4B67255A95B55A59C29
:1007A000DBA6D3E9743A9D4E6F6B77B9CA2A1DEF69
:1007B000DEBDF3C34F7BF7CECFBBBC54EF6E25F548
:1007C00025F3E974252B59C9CA756AA5CAD5A9AA02
:1007D000AE4EF5F7F7EA729D3BBBCEAE9DAA5257DF
:1007E000D5555D555D555DD5557555D55557555DF7
:1007F000A5AEBA2A75D5AA5C55EA5655A95B95529D
:10080000B72A75D59FBADCA73A5795ABCA55AEAA99
:10081000AB72555D555D95ABBCCBAEB3EBEC3A5BC3
:10082000D9CA55E56A559592769D4FA7D3E9743696
:10083000BB72B25297AB9593B1BF7BF7B056DEA9AE
:10084000DCC9FDD6D9CA55A56E5555AE53555DDDEB
:1008500057A9DB294AAA53A95455577757AE535580
:10086000B94E55E55A55A56E5595BA955D87CE7426
:100870003A5DB9CBDDAB5B5D4E49E79C934A2ABB41
:10088000DDAED3616BA96E5595BA5555EA5655A99B
:100890005B55E56A7749252B3B96B2CA5DEA56550A
:1008A000A95B55E56A55CB65369D7CF74E05CDA510
:1008B000F3E96C252B59C94AD62E95CA75AE739D9E
:1008C000EB5CE73AD7B9CE75AE739D4AD5AE92953B
:1008D000AC64252B79B9CB5DEED2913BA583A69272
:1008E00058CA5DEE7297AB64252B59C94AD62E952E
:1008F000CA75AE739DEB5CE73AD7B9CE75AE739D02
:100900004AD5AE9295AC6465D3D974D010080B006B
:100910000202020100090400000102020000052495
:10092000001001052401010104240206052406002B
:10093000010705810310004009040100020A0000BC
:100940000007050202400000070583024000004145
:100950001000FFFEFFFEFFFEFFFEFF66FF66FFFCCE
:10096000FF98FE00FC000000FFFEFFFEFFFEFFFE02
:10097000FF00FF00FFFEFFFEFF00FF0000007E3CC7
:10098000FF7EFF7EFF7EFFE6FFE6FFE6FFC6FF007D
:10099000EF0000000F060F06FFFEFFFEFFFEFFFE4A
:1009A000FF06FF060F000F000000FFFEFFFEFFFE28
:1009B000FFFEFF66FF66FF06FF060F000F00000048
:1009C000FFFEFFFEFFFEFFFEFF06FF06FFFEFFFC31
:1009D000FF00FE000F070F070F070F070F060F0698
:1009E0000F070F030F000700000007030F070F0793
:1009F0000F070F060F060F070F030F000700000079
:100A00000F060F060F060F060F070F070F070F033E
:100A10000F0007000000000000000F070F070F077E
:100A20000F070F000F000000000000000F070F0766
:100A30000F070F070F060F060F060F060F000F0018
:100A400000000F070F070F070F070F060F060F070E
:100A50000F030F00070608007F3E7F3E7F227F3E88
:100A60007F007F0077227F3E7F3E7F207F007000E7
:100A70007F3A7F3A7F2E7F2E7F007F007F227F2A62
:100A80007F3E7F3E7F007F001F0E1F087F3E7F3E20
:100A90007F007F007F2E7F2E7F3A7F3A7F007F008E
:100AA0007F3E7F3E7F2A7F3A7F007F00070207025A
:100AB0007F3E7F3E7F007F007F3E7F3E7F2A7F3EDE
:100AC0007F007F001F0E1F0A7F3E7F3E7F007F1446
:100AD00010C07E02CA8A8AABA12505404A0AC20E0E
:100AE000181010F0001F1030415B4337171717170D
:100AF000173060585860301C07FC04A61A9A9A9A5E
:100B0000A1A12503424A06CC18183060C00F182155
:100B10006041D3576737171717131120282820185B
:100B20000FFC04844414169991812522024A04245E
:100B300018103020E00B181021604083B7C77715DC
:100B400017171210202C301807F018084C141491A5
:100B500011110322220264844C1810F0001F10218E
:100B600021614240C085B7C677171A101014100DC6
:100B70000300F010480C129391B32A0282A202865D
:100B80000C10F00000003F202143424242C2808509
:100B900097673B0819180F0300000080F0188A932C
:100BA000939AAAA2028282020EF800000000003F7F
:100BB000434242424242C282808DC378080F000005
:100BC0000000000000C07E82AAAAAA2AAAAA827EE9
:100BD000C00000000000000000FFC0C2C2C2C2C2CC
:100BE000C2C2C2C0FF00000000000000F80E028276
:100BF0008202A2AA9A93938E1CF08000000000004B
:100C00000F0878C38F8082C24242424240433F0075
:100C1000000000F0100C8406A282022AB391931205
:100C20000E4810F00000030F1819083B67978780E3
:100C3000C24242424321203F0000F010184C84641D
:100C40000222220311119116164C0818F0030D1000
:100C50001410101B1777C7B787C0404261212110BD
:100C60001FE02030101824044A0222258191991790
:100C700014448404FC0718302C201013171717771E
:100C8000C7B78340602110180BC060301818CC061D
:100C90004A420325A1A19B9B9A1AA604FC0F182087
:100CA0002828201113171717376757D341602118C9
:100CB0000F00F01010180EC20A4B410525818B8AD7
:100CC0008ACA027EC0071C30605858603117171757
:100CD000171637425B4130101FE06020101C26328F
:100CE000CB09410105A3828BCD4BC60CF8070C3113
:100CF0002040505041301617171617372129203839
:100D00000FC06020380C7472EB0901410521A18DE0
:100D1000C5C26204FC0F0814322040C0B0D1643256
:100D200016171713322C24180F00C040380C747794
:100D3000E9E501114101A145C3E2321EF00F113076
:100D4000202E60404080B0C17617191B1714100C7C
:100D50000300008070186663E5E1E1E1010111D153
:100D6000C1031EF800001F212068404C5040C08085
:100D700091C73B0B091A0C070000000080F80E63B6
:100D8000E1E1A1A1E10101F101FF00000000003C4F
:100D900067404040405C5040C088C379080F010064
:100DA0000000000000C07F01E1E1A161E1E1017FFD
:100DB000C000000000000000007F40505050404044
:100DC000505050407F00000000000000FF01F9017A
:100DD00001E1A161E1E1230CF880000000000001C5
:100DE0000F0879C388C040505C40404040673C00D9
:100DF0000000F83E03E9D1110101A1E1A1E5216460
:100E0000187080000000070C1A090B3BC79180C0C6
:100E100040504C406820211F00F01E32E2D3D5A183
:100E20000141110165E976640C3840C000030C10E3
:100E300014171B1B1776C1B0804040602E20301164
:100E40000FFC0462C2C59DA12105410109EA62743B
:100E50000C382060C00F18242D3313171717326475
:100E6000D1B0C040203214080FF80CC6CBCDABA2D5
:100E7000A305014108CA32261C102060E00F38206B
:100E80002923371717171716304150504020310CBF
:100E90000714100000E020A038082C040400288863
:100EA00018202020E0000000001F1030207B6B374E
:100EB00017173120686820101F00000000E060B0A4
:100EC000184820840404084830202060C0800000B6
:100ED000030F301030605B4A36171710202C20109B
:100EE0000A0F000080C0407018C8A404842C0818A1
:100EF00090302060C000000007091B362121405BB4
:100F00004A261713102C34100D0700000080807043
:100F100010D0848404840808D8302020E000000029
:100F2000001F10162C2C2041465A671B1010161853
:100F300007000000000080E030C4848484040808B6
:100F4000183020E000000000001C1F302C2C2C6CFE
:100F500041424A731010180F00000000000000000A
:100F6000F018848484840C0C0838E0000000000031
:100F70000000003F202C2C6C4C4D404378080F00A3
:100F80000000000000000000C06C0484848484041D
:100F90007CC0000000000000000000007F404C4CBE
:100FA0004C444C4C407F000000000000000000E07A
:100FB00038080C0C8484848418F0000000000000C1
:100FC0000000000F087843404C446C2C28203F0060
:100FD000000000000000E020301808080484848429
:100FE000CC38E0800000000000000F181010734A99
:100FF00040406C2C282C301F1C00000000E02020FA
:1010000030D0000884048484DC18708080000000E4
:101010000007181610101B675A444020242C161085
:101020001F00000000C06020309018082C8404A429
:10103000CC187040C0800000070D10342C1013171E
:10104000264A5B402021361B0907000080C0602033
:1010500020304808040484244C18B060E0000000EC
:101060000F0A10202C20101717364A5B6030103002
:101070000F03000000E020202018882C0404042C1A
:101080000838A020E0000000001F10206868203110
:101090001717376B792030101F00000080C04040C8
:1010A00030584CA40404060808103060C0800000CA
:1010B000030E303060585861361717332A2D301818
:1010C000090F000000C040603848CC048404044884
:1010D00008103020C08000000709183020605058E8
:1010E00065361713232D301B0D070000008080C0CC
:1010F00030DCC4C40684044C08183020E000000032
:10110000001F103020204040504137131315110CA0
:1011100007000000000000C0709CC4C484040444A4
:101120008C1830E00000000000183F20282C4040C0
:101130004040417313141807000000000000000035
:10114000E018C4D4848404048C1CF0000000000067
:101150000000203F6160404C4040404178180F0043
:101160000000000000000000C07C0484848484042B
:101170007CC0000000000000000000007F404040F4
:1011800048484040407F000000000000000000F0A0
:101190001C8C040484C4D4C410E0000000000000CF
:1011A0000000000F1878414040404C4060613F20F3
:1011B000000000000000E030188C44040484C4C423
:1011C0009070C00000000000000007181413734165
:1011D000404040402C28203F1800000000E0203014
:1011E00098084C048406C448D030C08080000000B9
:1011F00000070C11151313374150404020203010C8
:101200001F00000080C0203010084804048404C877
:1012100048386040C0000000070D1B302D23131715
:1012200036655850602030180907000080C06030D3
:10123000100808060404A04858304040C080000050
:101240000F0918302D2B331717366158586030307E
:101250000E030007088040A058E0C0800A10F01874
:10126000C810E8E810B020E001031E112F2F111E56
:10127000030108080000784868380000001C362A7E
:1012800022361C007E4B516BC589D77C1CF4ACD632
:10129000AAD66C3814100000F810A03808282828A6
:1012A00028288818A02060C0000000001F103622E7
:1012B00063633717173723606222101F0000000096
:1012C000F020B0184828A82828284830303060C0BE
:1012D000000000030F3210366243423617171723FF
:1012E0002021100B0F0000C0E0407018C8A828A8EB
:1012F00028081890302060C000000007081B362026
:101300002D464342261713132131100F060000000B
:10131000C0407010D0A8A828A80808D0B0A020E02D
:10132000000000001F10162E2E204D4642671B1392
:1013300011101807000000000080E030D088A8A835
:1013400028280818B020E000000000001C1F302EE4
:101350002E2C6C414642731310180F000000000041
:10136000000080E01088A8A8A828088818F00000CD
:101370000000000000003F202E2C6C4C4D404379B3
:10138000080F000000000000000000C07808A8A8B6
:10139000A8A80878C0000000000000000000007F3E
:1013A000404C4C4C484C4C407F000000000000007A
:1013B0000000F018880828A8A8A88810E08000007D
:1013C0000000000000000F087943404D446C2C2AB7
:1013D000203F00000000000000E020B0180828288E
:1013E000A8A888D030E0800000000000000F18108E
:1013F00013734246416C2C262E301F1C0000000047
:10140000E020A0B0D00808A828A8A8D0107040C03C
:101410000000000007181011131B6742464D202ED4
:101420002E12101F00000000C06020309018082805
:10143000A828A8C8187040E0C00000060F1031218D
:10144000131317264243442C20361B0807000000C4
:10145000C06030303048282828A8284818B020F02C
:101460000000000F0B10212123171717364243628B
:101470003610320F03000000C06020A01888282812
:101480002828280838A010F8000000001F10226249
:1014900062233717173763612236101F00000000E0
:1014A000C060A0B05848A82828280808101820C0F4
:1014B000800000030F30306642426736171733232F
:1014C00020331B090F000000C040603848C808A83E
:1014D000281C4808101020E0800000070B1830205E
:1014E0006D4642673617132321311B0D070000009C
:1014F00080804030D0C8C828B40C4808989030E0AC
:10150000000000001F1030262040444247371313CC
:1015100011110C07000000000080C07090C8C8B412
:101520002C2848889810F00000000000183F202860
:101530002C40404046437313101807000000000081
:10154000000000E010C8C4ACA828088818F000000B
:101550000000000000003F6060484C40404043787D
:10156000180F000000000000000000C07808B8B8A4
:10157000B8B80878C0000000000000000000007F3C
:101580004040404C4C4040407F00000000000000C4
:101590000000F018880828A8ACC4C810E0000000BB
:1015A0000000000000000F1878434040404C4860A5
:1015B000603F00000000000000F010988848282CD0
:1015C000B4C8C89070C08000000000000007181068
:1015D000137343444048402C28203F18000000006B
:1015E000E030909808480CB428C848D0304080803B
:1015F00000000000070C111113133747424440202C
:101600002630101F00000080E020501008481C28E1
:10161000A808C848386040C0000000070D1B3121F1
:10162000231317366742466D2030180B07000080E1
:10163000C02018100808282828A84858B0A060C062
:101640000000000F091B332123331717366742426E
:101650006630300F030010100000F09CF6FE9F0D66
:101660000D9FFEF69CF0000000000003061F3BEFFC
:10167000EF3B1F06030000001010E030182C34343C
:1016800034343434343494C404FC7F404E4E5555C5
:101690005B55554E4E406F37180F04030904120175
:1016A0000002EF02014041233680000101020301E4
:1016B00041726475696E6F204C4C430041726475D1
:1016C000696E6F204C656F6E6172646F0000272D2C
:1016D00011241FBECFEFDAE0DEBFCDBF12E0A0E0E5
:1016E000B1E0E0ECF6E602C005900D92A037B1073C
:1016F000D9F72AE0A0E7B2E001C01D92A33AB207F1
:10170000E1F71BE0C8E6DBE004C02197FE010E9480
:101710005333C736D107C9F70E94592A0C945E3358
:101720000C94000040918F0A5091900A20918D0AEC
:1017300030918E0A42175307B4F49091E8009570E7
:10174000E1F39091E80092FD19C08093F10080913F
:101750008F0A9091900A01968F739927892B19F41B
:101760008EEF8093E80080918F0A9091900A019605
:101770009093900A80938F0A81E0089580E0089505
:10178000809187020895CF92DF92EF92FF920F939C
:101790001F93CF93DF936C017A018B01C0E0D0E0FF
:1017A000CE15DF0589F0D8016D918D01D601ED913F
:1017B000FC910190F081E02DC6010995892B11F46F
:1017C0007E0102C02196ECCFC701DF91CF911F911E
:1017D0000F91FF90EF90DF90CF9008953FB7F8946E
:1017E00080917A0290917B02A0917C02B0917D025F
:1017F00026B5A89B05C02F3F19F00196A11DB11D6C
:101800003FBFBA2FA92F982F8827820F911DA11DA6
:10181000B11DBC01CD0142E0660F771F881F991FE3
:101820004A95D1F7089580918602E0918402F09163
:101830008502882349F0CF01029690938502809318
:101840008402859194910895CF0102969093850228
:1018500080938402808191810895CF92DF92EF92EC
:10186000FF920F931F93CF93DF930E94130C811568
:1018700020E8920761F4809171008D7F8093710060
:101880001092910046984798109272028BC021E006
:1018900020937202813020E8920751F480918202F5
:1018A0009091830290938502809384020E94130C8E
:1018B00097FD05C020917102222309F43FC02091B9
:1018C000700221113BC021E020937302EC01DF770D
:1018D000209769F481E08093740246983FE9C32E13
:1018E0003FE0D32EE12CF12CCAEFD0E014C08E01E2
:1018F00020E030E060E472E48FE090E0A90198011C
:101900000E942A2F69017A0181E0C81AD108E108F2
:10191000F10810927402E091A606F091A7060995CD
:10192000811103C081E08093740280917302882347
:10193000B9F180917402811133C003C01092730217
:10194000C5CF46992DC0479A0E94130C009771F09D
:101950009C01DE010E947E2FDC01CB0129E0B595C0
:10196000A795979587952A95D1F703C08FEF9FEF9D
:10197000DC01109290002AE020939100D09299000F
:10198000C09298008093750290937602A09377029C
:10199000B09378028091710082608093710002C0E0
:1019A0004798D2CFDF91CF911F910F91FF90EF9089
:1019B000DF90CF900895109287023E983F98089547
:1019C0003E9A3F9A81E08093870208950895089592
:1019D00080E090E008950E945933DF92EF92FF92E9
:1019E0000F931F93CF93DF93D82E8A017B01E40ED0
:1019F000F51EEB01CE15DF0571F0D7FE03C0FE0129
:101A0000849101C088810E94920B21968111F2CFAE
:101A10008FEF9FEF01C0C801DF91CF911F910F9110
:101A2000FF90EF90DF9008950F931F93CF93DF9374
:101A30001F92CDB7DEB782E0898342E450E06DE0CB
:101A400079E080E80E94ED0C0E946627DC01129686
:101A50000D911C9113970115110569F0D801ED91B5
:101A6000FC910280F381E02DBE016F5F7F4FC801C2
:101A7000099597FF07C089810F90DF91CF911F9142
:101A80000F910895F80100851185E5CF615030F080
:101A90002091F100FC0120830196F8CF289884E67C
:101AA0008093940A08958F929F92AF92BF92CF92A3
:101AB000DF92EF92FF926B017C010E94EE0B4B01D3
:101AC0005C01C114D104E104F104F1F00E94EE0BB9
:101AD000DC01CB0188199909AA09BB09883E93400A
:101AE000A105B10570F321E0C21AD108E108F1089F
:101AF00088EE880E83E0981EA11CB11CC114D1048D
:101B0000E104F10419F7DDCFFF90EF90DF90CF9063
:101B1000BF90AF909F908F9008951F920F920FB635
:101B20000F9211242F933F938F939F93AF93BF9363
:101B300080917E0290917F02A0918002B0918102FB
:101B40003091790223E0230F2D3720F40196A11D57
:101B5000B11D05C026E8230F0296A11DB11D2093DB
:101B6000790280937E0290937F02A0938002B093CB
:101B7000810280917A0290917B02A0917C02B091C7
:101B80007D020196A11DB11D80937A0290937B0284
:101B9000A0937C02B0937D02BF91AF919F918F91F2
:101BA0003F912F910F900FBE0F901F9018951F928D
:101BB0000F920FB60F9211242F933F934F935F9381
:101BC0006F937F938F939F93AF93BF93EF93FF9305
:101BD0008091750290917602A0917702B09178027F
:101BE000892B8A2B8B2B81F18091740281110BC080
:101BF00098B180E4892788B980917302882319F00D
:101C000088B1805888B98091750290917602A09130
:101C10007702B0917802181619061A061B06B4F45A
:101C20008091750290917602A0917702B09178022E
:101C30000197A109B1098093750290937602A09350
:101C40007702B093780202C00E942D0CFF91EF91B1
:101C5000BF91AF919F918F917F916F915F914F91C4
:101C60003F912F910F900FBE0F901F9018950F93DB
:101C700003E00E9492200F9108958FB18095807F9C
:101C8000669B88601C9B84600895FC01840F911DF5
:101C900018161906E4F5E038F105CCF5F7FF02C097
:101CA000E0E0F0E08138910514F080E890E0382F12
:101CB0003E1BAB0177FF02C0495F5F4F83E0559544
:101CC00047958A95E1F75695542F442757954795A0
:101CD000E40FF51FE856FD4F6770772781E090E02D
:101CE00001C0880F6A95EAF7482F222349F0213076
:101CF00071F4315020F08081842B8193FACF0895C4
:101D00008095315020F0908198239193FACF0895D7
:101D10001F93CF93DF93DC0120E030E040E050E000
:101D200011E0C1E0D0E02617370791F114968C91AD
:101D30001497811115C014961C93149712968D91C7
:101D40009C911397ED91FC911197E80FF91FE49185
:101D50001596EC931597019613969C938E93129774
:101D600014969C91149715968C911597892349F098
:101D7000FE01022E02C0EE0FFF1F0A94E2F74E2B67
:101D80005F2B990F14969C9314972F5F3F4FCBCFE7
:101D9000CA01DF91CF911F91089560387105D0F489
:101DA00040345105B8F4E8EFF0E080E1849FD001C1
:101DB000A0781124A60F4770E40FF11D8491A85656
:101DC000BD4F222319F06C91862B03C080956C9136
:101DD00086238C9308956F927F928F929F92AF92F9
:101DE000BF92CF92DF92EF92FF920F931F93CF9308
:101DF000DF9300D000D0CDB7DEB73C017B018A0174
:101E00008091350A9091360A6AE070E00E942B3387
:101E1000892BA9F40E94D12E2AE030E040E050E066
:101E20000E942A2F633071058105910544F4D30186
:101E30009D969C919D9781E089279D968C93F301B7
:101E400085A5882351F180889188A288B3888489E8
:101E50008695682F70E080E090E00E9420319B0121
:101E6000AC01C501B4010E9436321816B4F4D30196
:101E700098966D917D918D919C919B979B01AC0162
:101E80000E948E2F9B01AC01C501B4010E948D2FD1
:101E9000F301608B718B828B938BD3016D917D915C
:101EA0008D919C910E94E830F70120813181621B65
:101EB000730B072E000C880B990B0E9420319B019D
:101EC000AC01D30114966D917D918D919C911797E2
:101ED00029833A834B835C830E94E830D801ED91DB
:101EE000FC91CF01861B970BBC01990F880B990BB6
:101EF0000E94203129813A814B815C810E940D3002
:101F0000F30184849584A684B78420E030ED4FE506
:101F100057E40E94433220E030E04AE754E40E9454
:101F2000763020E030E044E353E40E948E2F0E949C
:101F3000E8306B017C01C501B4010E94E830C601A4
:101F4000861B970B28E631E0B9010E943F33845E7F
:101F50009D4FB9010E943F33845B9109BC01990FE9
:101F6000880B990B0E9420316B017C0120E030E04E
:101F700048E452E4D30150966D917D918D919C91EE
:101F800053970E947630F30127A530A941A952A9A1
:101F90000E948E2F9B01AC01C701B6010E94433203
:101FA0009B01AC01C501B4010E948E2FD3011C9688
:101FB0006D937D938D939C931F970F900F900F902F
:101FC0000F90DF91CF911F910F91FF90EF90DF90D5
:101FD000CF90BF90AF909F908F907F906F9008951B
:101FE0008F929F92AF92BF92DF92EF92FF920F93E8
:101FF0001F93CF93DF93EC017B01D42E00E912E015
:10200000F80124813581468157816C817D818E81E3
:102010009F810E948D2F0E94E8304B015C01F801E6
:102020002081318142815381688179818A819B81BC
:102030000E948D2F0E94E830DC01CB010AEF2D2D8C
:10204000A701B4010E949220DF91CF911F910F91BF
:10205000FF90EF90DF90BF90AF909F908F9008958A
:10206000FC01108211821282138214821582168260
:102070001782108611861286138614861586168698
:102080001786108A118A128A138A82E0848B158A35
:1020900087E4868B178A118E108E138E128E148E03
:1020A000158E0895CF92DF92EF92FF92CF93DF9338
:1020B000EC010E94301083E393E3A3EBBEE38CA317
:1020C0009DA3AEA3BFA38AE097EDA3EABCE388A7D4
:1020D00099A7AAA7BBA785E08CA71DA61EA680E08E
:1020E00090E0A0E6B0E48FA798ABA9ABBAAB80E0D4
:1020F00090E0A0E8BFEB8BAB9CABADABBEAB0E945E
:10210000D12E28E631E040E050E00E942A2F0E94C4
:1021100020316C877D878E879F870E94D12E20E992
:10212000C22EDD24D394E12CF12CA70196010E944C
:102130002A2F0E942031688379838A839B830E949F
:10214000D12EA70196010E942A2F0E9420316C8374
:102150007D838E839F8384E1888790E1998796E0D1
:10216000E4E2F2E0DE01589601900D929A95E1F7D3
:1021700098E19A878CA781E08D8B80E58E8BDF912B
:10218000CF91FF90EF90DF90CF900895CF92DF92A4
:10219000EF92FF92CF93DF93EC01188219821A829B
:1021A0001B821C821D821E821F820E94D12E20E96A
:1021B000C22EDD24D394E12CF12CA70196010E94BC
:1021C0002A2F0E942031688379838A839B830E940F
:1021D000D12EA70196010E942A2F0E9420316C83E4
:1021E0007D838E839F83DF91CF91FF90EF90DF906F
:1021F000CF900895CF92DF92EF92FF92CF93DF932B
:10220000EC016C857D858E859F850E94E830CB0131
:1022100068E671E00E943F3397FF02C088599E4FE5
:10222000BC01990F880B990B0E9420316C877D8728
:102230008E879F8720E030E044EB53E40E947630A5
:102240006B017C018A85682F70E080E090E00E943D
:1022500020319B01AC01C701B6010E9443320E94AC
:10226000EF306B87DF91CF91FF90EF90DF90CF90B1
:102270000895CF92DF92EF92FF921F93CF93DF9357
:10228000EC0128A539A54AA55BA5688979898A89C1
:102290009B890E948E2F6B017C01688B798B8A8BC6
:1022A0009B8B1C89612F70E080E090E00E942031C0
:1022B0009B01AC01C701B6010E943632181654F4D6
:1022C000612F70E080E090E00E941E31688B798B76
:1022D0008A8B9B8BDF91CF911F91FF90EF90DF90C6
:1022E000CF9008952F923F924F925F926F927F927C
:1022F0008F929F92AF92BF92CF92DF92EF92FF9216
:102300000F931F93CF93DF93CDB7DEB72B970FB605
:10231000F894DEBF0FBECDBF9E838D83162F1A01AA
:10232000DC01CD90DD90ED90FC90139780909002B1
:1023300090909102A0909202B090930218966C91A6
:1023400070E080E090E00E9420319B01AC01C70169
:10235000B6010E948E2FA50194010E9436321816F4
:102360000CF048C020E030E04EEF52E4C501B4016B
:102370000E948E2F9B01AC01C701B6010E946C30F8
:1023800087FF38C0ED81FE8144805580668077806C
:1023900060919402709195028091960290919702BB
:1023A00069837A838B839C83618570E080E090E011
:1023B0000E9420319B01AC01C301B2010E948E2F0B
:1023C00029813A814B815C810E943632181694F43F
:1023D00020E030E04CE752E469817A818B819C8176
:1023E0000E948E2F9B01AC01C301B2010E946C3090
:1023F00087FD9EC1209194023091950240919602F2
:1024000050919702AD81BE8114966D917D918D9111
:102410009C9117970E948D2F20E030E040E052E41D
:102420000E948D2F2B013C01A5019401C701B6012B
:102430000E948D2F20E030E040E852E40E948D2F72
:102440009B01AC01C301B2010E9476306B017C019B
:1024500020E030E0A901C301B2010E946C3087FF87
:102460000EC0A701960160E070E088EF91EC0E9439
:1024700076300E94E8309B0161EE7FEF0DC0A7012E
:10248000960160E070E088EF91E40E9476300E944F
:10249000E8309B016EE170E0213C8FEF38076CF46F
:1024A00020E030E04CE752ECC701B6010E94433215
:1024B0000E94E83021EC3FEF0FC02034310564F07A
:1024C00020E030E04CE752E4C701B6010E944332FD
:1024D0000E94E8302EE330E0412F133008F042E054
:1024E000D1018C918B01005E1F4FF901E05CFF4F21
:1024F000FB87EA87E42EF12C882309F468C0440F97
:102500004F5FB8016E197F0921E0CF010E94A4221C
:1025100081E090E06C01CE18DF08222433242E18CD
:102520003F08220C331CA12CB12C88248394912CBD
:102530006A857B857A8369831E830D83AE14BF040D
:102540000CF0F6C07FEFC716D70641F081E0E81A1D
:10255000F10892E0290E311CC20CD31CAFEFAA1A6D
:10256000BA0AB2E08B0E911CC80CD91C3E2D330F59
:102570003F5F21E0432F28014E185F08B201898197
:102580009A818A0D9B1D39870E94A4226D807E80CE
:102590006A187B0821E0482DB3018A859B858E0D42
:1025A0009F1D0E94A42221E03985432FB201898119
:1025B0009A818A199B090E94A42221E0482DB30127
:1025C0008A859B858E199F090E94A422B7CF81E03E
:1025D00090E05C01AE18BF08882799278E199F09E3
:1025E0001C01220C331CA8014E0D5F1D21E06A85E1
:1025F0007B8582E39AE00E94CD0EA8014E195F0907
:1026000021E06A857B8582E39AE00E94CD0E6A858F
:102610007B856E0D7F1D21E0A80182E39AE00E9478
:10262000CD0E6A857B856E197F0921E0A80182E3C2
:102630009AE00E94CD0EC12CD12CE1E0F0E0FA83AB
:10264000E9836A857B857E836D8318870F83CE142B
:10265000DF040CF06DC07FEFA716B70641F081E0F4
:10266000E81AF10892E0290E311CA20CB31CAFEF5E
:10267000CA1ADA0AE981FA813296FA83E983AE0E40
:10268000BF1E6D807E806C0C7D1C21E048018E0C8D
:102690009F1CA401B30182E39AE00E94CD0E4D80FD
:1026A0005E804C185D0821E0A401B20182E39AE04B
:1026B0000E94CD0E21E048018E189F08A401B301AD
:1026C00082E39AE00E94CD0E21E0A401B20182E3F0
:1026D0009AE00E94CD0E8F8098848C0C9D1C21E086
:1026E000A4016A847B846E0C7F1CB30182E39AE0B0
:1026F0000E94CD0E21E0A4014A845B844E185F083D
:10270000B20182E39AE00E94CD0E8F8098848C18EB
:102710009D0821E0A401B30182E39AE00E94CD0E5E
:1027200021E0A401B20182E39AE00E94CD0E8FCF96
:102730002B960FB6F894DEBF0FBECDBFDF91CF91C1
:102740001F910F91FF90EF90DF90CF90BF90AF90CF
:102750009F908F907F906F905F904F903F902F90C1
:1027600008954F925F926F927F928F929F92AF9255
:10277000BF92CF92DF92EF92FF920F931F93CF936E
:10278000DF93EC018B01FB01668D778D2E8D3F8DE4
:10279000888D998D2617370744F42C8D621B71099B
:1027A000681B790B6F5F7F4F06C0F80122A1620F93
:1027B000711D681B790B072E000C880B990B0E946A
:1027C0002031288139814A815B810E948D2F6B01E4
:1027D0007C01F80140A151A188A199A12A8D3B8DCE
:1027E000841795076CF48D8DBA01681B7109CB01B4
:1027F000821B930B0196BC01990F880B990B0AC0A1
:10280000F80183A1480F511D421B530BBA01550F0C
:10281000880B990B0E9420312C813D814E815F8174
:102820000E948D2F4B015C0120E030E0A901C7011F
:10283000B6010E94363226013701181624F077FAC5
:10284000709477F8709420E030E0A901C501B401DC
:102850000E943632A501940118160CF05058C3019D
:10286000B2010E946C3087FF0DC0A70196016881FC
:1028700079818A819B810E948E2F688379838A83E4
:102880009B830CC0A50194016C817D818E819F8109
:102890000E948E2F6C837D838E839F83DF91CF91E7
:1028A0001F910F91FF90EF90DF90CF90BF90AF906E
:1028B0009F908F907F906F905F904F900895DC0174
:1028C000FB01808191812D913C91119714964C913F
:1028D0001497B901640F711D86179707DCF44481C2
:1028E000840F911D28173907ACF422813381129689
:1028F0004D915C91139715968C91BA01680F711DDB
:10290000261737073CF48581280F311D81E04217D7
:1029100053070CF080E00895CF92DF92EF92FF9280
:102920000F931F93CF93DF93EC016A8D7B8D072E5E
:10293000000C880B990B0E9420312C813D814E8127
:102940005F810E948E2F0E94E8306B017C010C8D0C
:102950001D8D888D998DBC01990F880B990B0E9454
:102960002031288139814A815B810E948E2F0E940B
:10297000E8307F8F6E8FD9A2C8A20AA31BA3DF9174
:10298000CF911F910F91FF90EF90DF90CF9008951E
:102990004F925F926F927F928F929F92AF92BF926F
:1029A000CF92DF92EF92FF920F931F93CF93DF931B
:1029B000EC01C888D988EA88FB8820E030E04AE743
:1029C00054E46C857D858E859F850E94433220E08E
:1029D00030ED4FE557E40E9476302B013C010E9418
:1029E00071309B01AC01C701B6010E9443322881BE
:1029F00039814A815B810E948E2F4B015C01688383
:102A000079838A839B83C301B2010E94B0329B0108
:102A1000AC01C701B6010E9443329B01AC016C813D
:102A20007D818E819F810E948D2F6B017C016C8343
:102A30007D838E839F838D89882309F463C020E082
:102A400030E0A901C501B4010E946C3087FF05C0C8
:102A5000188219821A821B8224C0088510E0B801EE
:102A6000012E000C880B990B0E9420319B01AC01B8
:102A7000C501B4010E948E2F20E030E048EC53E401
:102A80000E94363218166CF480E991E0801B910B9D
:102A9000BC0180E090E00E941E31688379838A83C4
:102AA0009B8320E030E0A901C701B6010E946C3091
:102AB00087FF05C01C821D821E821F8223C00985DC
:102AC00010E0B801012E000C880B990B0E942031F8
:102AD0009B01AC01C701B6010E948E2F20E030E0BF
:102AE00048EC53E40E943632181664F460E971E051
:102AF000601B710B80E090E00E941E316C837D832F
:102B00008E839F83DF91CF911F910F91FF90EF9064
:102B1000DF90CF90BF90AF909F908F907F906F90FD
:102B20005F904F9008952F923F924F925F926F92D5
:102B30007F928F929F92AF92BF92CF92DF92EF924D
:102B4000FF920F931F93CF93DF93CDB7DEB7C65499
:102B5000D1090FB6F894DEBF0FBECDBF00E010E084
:102B6000B801012E000C880B990B0E942031209196
:102B700094023091950240919602509197020E94E2
:102B80008D2F0E94E8306034710530F421E040E878
:102B900080E090E00E94450E085D1F4F083B21E059
:102BA0001207F1F600E010E0B801012E000C880BCE
:102BB000990B0E9420312091900230919102409116
:102BC0009202509193020E948D2F0E94E830DC0106
:102BD000CB0121E040E460E070E00E94A422085DA7
:102BE0001F4F083B31E01307F9F680911D07AE0136
:102BF0004F5F5F4F1A01811111C08CEC96E00E946B
:102C00008C1440E068E776E18CEC96E00E94F00FCF
:102C10001982A10162E08CEC96E010C088EA96E08F
:102C20000E948C1440E066E576E188EA96E00E9416
:102C3000F00F1982A10162E088EA96E00E94721109
:102C400080911C07882309F4B7C0C0900007D0907A
:102C50000107E0900207F090030720E030E0A901AF
:102C6000C701B6010E943632181624F0C701B6011A
:102C7000905802C0C701B601209114073091150782
:102C800040911607509117070E94363218160CF023
:102C900056C06091040770E080E090E00E9420310F
:102CA0009B01AC01C701B6010E94763020E030E004
:102CB00040E85FE30E948D2F6B017C010E943D0E76
:102CC00085FF19C020911F073091200740912107EF
:102CD00050912207C701B6010E948E2F9B01AC01C3
:102CE0006091FC067091FD068091FE069091FF06B2
:102CF0000E948E2F1CC00E943D0E86FF20C0209196
:102D00001F07309120074091210750912207C701EA
:102D1000B6010E948E2F9B01AC016091FC06709160
:102D2000FD068091FE069091FF060E948D2F609314
:102D3000FC067093FD068093FE069093FF060E94AA
:102D40003D0E82FF05C080EF96E00E94391134C02D
:102D50000E943D0E83FF30C0C0900007D090010755
:102D6000E0900207F0900307209123073091240799
:102D70004091250750912607C701B6010E943632BF
:102D80001816D4F4609118077091190780911A07EA
:102D900090911B079B01AC010E948E2F9B01AC01FF
:102DA000C701B6010E948D2F609300077093010741
:102DB000809302079093030780EF96E00E94C81467
:102DC00080EF96E00E948C1480EF96E00E94FA104B
:102DD00020911E07222309F496C18091350A909113
:102DE000360A6CE370E00E942B33892B09F08BC10B
:102DF000215020931E0780911C07882309F44EC0A0
:102E00008091F90679EFF72EF80E1091F806185018
:102E10002091940230919502409196025091970230
:102E20006091F4067091F5068091F6069091F70690
:102E30000E948D2F20E030E040E850E40E948E2F69
:102E40000E94E8302B013C012091900230919102C8
:102E500040919202509193026091F0067091F106B8
:102E60008091F2069091F3060E948D2F20E030E0D1
:102E700040E850E40E948E2F0E94E830DC01CB0134
:102E800000E02F2D412FB2010E94D0224091FB067D
:102E900064E972E180EF96E00E94F00F6091F9061C
:102EA000669570E080E090E00E9420312091F40669
:102EB0003091F5064091F6065091F7060E948E2F4C
:102EC0006B017C016091F806669570E080E090E00F
:102ED0000E9420312091F0063091F1064091F206D7
:102EE0005091F3060E948E2F2B013C01809090029E
:102EF00090909102A0909202B090930220E030E076
:102F000048E552E4C501B4010E948E2FA30192014D
:102F10000E94363218163CF420E030E048E552E4D6
:102F2000C301B20120C020E030E04EEF52E4C50101
:102F3000B4010E948E2F20E030E048E552E40E9468
:102F40008D2FA30192010E946C3087FF16C020E0F4
:102F500030E048E552E4C301B2010E948E2F20E028
:102F600030E04EEF52E40E948D2F609390027093F8
:102F7000910280939202909393024090900250901D
:102F80009102609092027090930220E030E0A901DB
:102F9000C301B2010E946C3087FF09C010929002F9
:102FA0001092910210929202109293021CC020E0A3
:102FB00030E04EEF52E4C301B2010E948E2F20E0B8
:102FC00030E048EC53E40E943632181664F480E096
:102FD00090E8A8E8B3E48093900290939102A093C4
:102FE0009202B093930240909402509095026090A8
:102FF00096027090970220E030E048ED51E4C30162
:10300000B2010E948E2FA70196010E943632181637
:103010003CF420E030E048ED51E4C701B60120C0A7
:1030200020E030E04CE752E4C301B2010E948E2F51
:1030300020E030E048ED51E40E948D2FA701960179
:103040000E946C3087FF16C020E030E048ED51E46C
:10305000C701B6010E948E2F20E030E04CE752E419
:103060000E948D2F60939402709395028093960234
:1030700090939702C0909402D0909502E0909602AF
:10308000F090970220E030E0A901C701B6010E944C
:103090006C3087FF09C01092940210929502109232
:1030A0009602109297021CC020E030E04CE752E4F8
:1030B000C701B6010E948E2F20E030E048EC53E4B7
:1030C0000E943632181664F480E090E8A8EAB3E46F
:1030D0008093940290939502A0939602B0939702E6
:1030E00080911D07811113C06AEE76E08EE097E0B3
:1030F0000E945F14882359F08CEC96E00E94CF2444
:10310000811161C704C082E08093040774CE80916E
:103110001D07882371F066EC76E08EE097E00E9450
:103120005F14882331F088EA96E00E94CF24811151
:1031300078C78091350A9091360A6CE370E00E945E
:103140002B33892B69F480911C07882349F08091E7
:103150008E0290918F02019690938F0280938E023F
:1031600010E008E140910B01141708F05FC0812FB7
:1031700090E0089FB001099F700D1124FB01E55FED
:10318000FE4F2789222381F1DB01A45FBE4F7D0121
:103190000196089FD001099FB00D1124A55FBE4F75
:1031A0006C9170E08091350A9091360A0E942B3321
:1031B000892B79F42150278B4485242F30E0838597
:1031C00090E00197281739071CF44F5F448701C02E
:1031D0001486C7010E94C814F701438562E772E1B3
:1031E000C7010E94F00F20C0812F282F30E0029FDE
:1031F000D001039FB00D1124A45FBE4F2F5F3F4F3E
:10320000029FF001039FF00D1124E45FFE4F902F09
:1032100001900D929A95E1F78F5F8413E6CF81506C
:1032200080930B01111111501F5F9CCF8091E10918
:103230008A30B9F0C1010E94C610A091E109AA30FC
:1032400080F481E08A0F8093E109F8E0AF9FD0011C
:103250001124AE51B64F88E0F10101900D928A958C
:10326000E1F710E08091E109181768F428E0129F57
:10327000C001112440E06CE572E18E51964F0E942E
:10328000F00F1F5FEFCF10E005E2809127091817BC
:1032900008F03EC0E12EF12C0E9D60010F9DD00C78
:1032A0001124B6016A5B764F8EE097E00E945F14AE
:1032B000882309F4E8C6C601885D964F0E94CF2492
:1032C000882309F4E0C6912F809127099817C8F444
:1032D000292F30E0029FD001039FB00D1124A85D7B
:1032E000B64F2F5F3F4F029FF001039FF00D112457
:1032F000E85DF64F802F01900D928A95E1F79F5F70
:10330000E3CF815080932709111111501F5FBDCF6A
:1033100080912708853009F490C00E94A8256B0190
:103320007C01C1010E94301083E393E3A3EBBEE371
:103330008DA39EA3AFA3B8A78AE097EDA3EABCE351
:1033400089A79AA7ABA7BCA785E08DA71EA61FA635
:103350008DEC9CECACE4BDE388AB99ABAAABBBAB0A
:10336000B601DD0C880B990B0E94203169837A83AA
:103370008B839C83B701FF0C880B990B0E94203133
:103380006D837E838F83988784E1898780E18A8734
:1033900086E0EAE2F2E0DE01599601900D928A950C
:1033A000E1F70E94D12E25E030E040E050E00E949D
:1033B0002A2F9B01AC012B5F3F4F4F4F5F4F61E0C6
:1033C00070E080E090E00E942A2FCA01B9010E94BB
:1033D00020312AE037ED43E25CE30E948E2F69A79B
:1033E0007AA78BA79CA7C8A8D9A8EAA8FBA80E947F
:1033F000D12E20E030E0A901C701B6010E948E2F36
:1034000068AB79AB8AAB9BAB88E18B8785E48F8B0C
:1034100083E0888FA0912708A53078F481E08A0F97
:103420008093270883E38A9FD0011124A85DB74FBA
:10343000F10101900D928A95E1F78091270785307F
:1034400009F492C00E94A8256B017C01C1010E9471
:10345000301083E393E3A3EBBEE38DA39EA3AFA35E
:10346000B8A78AE097EDA3EABCE389A79AA7ABA720
:10347000BCA715E01DA71EA61FA68DEC9CECACE416
:10348000BDE388AB99ABAAABBBABB601DD0C880B37
:10349000990B0E94203169837A838B839C83B701C7
:1034A000FF0C880B990B0E9420316D837E838F83E4
:1034B000988784E1898780E18A8786E0EAE2F2E002
:1034C000DE01599601900D928A95E1F70E94D12E66
:1034D00025E030E040E050E00E942A2F9B01AC0143
:1034E0002B5F3F4F4F4F5F4F61E070E080E090E017
:1034F0000E942A2FCA01B9010E9420312AE037ED2B
:1035000043E25CE30E948E2F69A77AA78BA79CA752
:10351000C8A8D9A8EAA8FBA80E94D12E20E030E0D4
:10352000A901C701B6010E948E2F68AB79AB8AABA7
:103530009BAB88E18B8785E48F8B188F8FE08DA7FD
:1035400081E08D8BA0912707A53070F48A0F8093BE
:10355000270783E38A9FD0011124A85DB84FF101AA
:1035600001900D928A95E1F7F12C13E380912708E1
:10357000F81608F004C2812CAF2CB12C1A9DC001A2
:103580001B9D900D1124FC01EA5BF74F3F019C014C
:10359000285D374F6901E09027088E1408F0F4C0C9
:1035A0008F1409F4EFC0189D20011124B2016A5B49
:1035B000774FC3010E945F14082F882309F4E2C0EB
:1035C000B201685D774FF201E95DF74F8789853475
:1035D00071F4D6019C968C919C97908D981720F44D
:1035E000891B9C968C93CAC0F60114A604C0FAAD40
:1035F000FF2309F4C3C080910B018B3009F491C003
:103600001A9DF0011B9DF00D1124E95DF74F818893
:103610009288A388B488458056806780708422850C
:103620002AAF21813281438154812BAF3CAF4DAF12
:103630005EAF6185258536854785508927962CAFF5
:103640003DAF4EAF5FAF27978B3008F06AC091E077
:10365000980F90930B0138E1389FC0011124AC0101
:10366000445F5E4F6A01669570E080E090E00E94E2
:1036700020319B01AC016BAD7CAD8DAD9EAD0E9448
:103680008E2F20E030E040E850E40E948D2FD601DC
:103690006D937D938D939C9313976AAD669570E0BF
:1036A00080E090E00E9420319B01AC01C301B20197
:1036B0000E948E2F20E030E040E850E40E948D2FE1
:1036C000F60164837583868397831086118624E0D0
:1036D0002287138627968CAD9DADAEADBFAD2797E3
:1036E00084879587A687B78720E030E040E05FE3D6
:1036F000C501B4010E944332D60150966D937D936B
:103700008D939C935397E2E05496EC93549755967F
:103710001C925597F4E05696FC93569728E05796DE
:103720002C9380911C07882349F080918E02909100
:103730008F02039690938F0280938E022F2D2E1569
:10374000C0F4822F90E0189FD001199FB00D112472
:10375000A85DB74F0196189FF001199FF00D112435
:10376000E85DF74F812F01900D928A95E1F72F5F69
:10377000E6CFEA94E09227080AAF06C0C6010E948D
:10378000B1131AAE839407CF6F2C712C169D500184
:10379000179DB00C1124A501485D574F6A01CA015D
:1037A0000E94C814C6010E948C14C6010E94FA101F
:1037B000C6010E943911C501895D974F5C01DC018A
:1037C0001A968C911A9759EF552E580E19968C917E
:1037D000199768EF862E880E2091940230919502F9
:1037E000409196025091970215966D917D918D9121
:1037F0009C9118970E948D2F20E030E040E850E423
:103800000E948E2F0E94E8306BAF7CAF8DAF9EAFD1
:103810002091900230919102409192025091930236
:10382000F50161817281838194810E948D2F20E056
:1038300030E040E850E40E948E2F0E94E830DC0126
:10384000CB0100E0252D482D6BAD7CAD0E94D02230
:10385000D6011B964C9161E97EE0C6010E94F00FF3
:10386000BAEFB983ECEFE8AFA101BE01685C7F4F0E
:10387000C6010E94F2226091F4067091F5068091D3
:10388000F6069091F7060E94EF307A836983609183
:10389000F0067091F1068091F2069091F3060E9475
:1038A000EF3079AF68AFD50195962D913D914D914F
:1038B0005C91989751966D917D918D919C915497C3
:1038C0000E94363218163CF4A101BE01685C7F4F9D
:1038D000C6010E94EB0E169DC001179D900D11248C
:1038E000FC01E95DF74F5F012091F0063091F10690
:1038F0004091F2065091F306618172818381948137
:103900000E948D2F2B013C012091F4063091F50689
:103910004091F6065091F706D50115966D917D916F
:103920008D919C9118970E948D2F4B015C01A301F2
:103930009201C301B2010E9443322B013C01A50157
:103940009401C501B4010E9443329B01AC01C30143
:10395000B2010E948E2F0E94BE329B01AC0160E03A
:1039600070E088E493E40E9476300E94EF30B1E08A
:10397000B983A101C6010E947211F394F7CD1AAE6A
:1039800013E380912707FAADF81708F053C2712CA2
:10399000CF2ED12C1C9DC0011D9D900D11249C018A
:1039A0002A5B384F5901AC01485D584F7A010091AC
:1039B0002707701608F0FAC03AAD731609F4F4C080
:1039C000179D40011124B4016A5B784FC5010E9424
:1039D0005F148BAF882309F4E7C0B401685D784FAA
:1039E000F401E95DF84F8789853471F4D7019C961D
:1039F0008C919C97908D981720F4891B9C968C93A2
:103A0000CFC0F70114A604C0FFADFF2309F4C8C05E
:103A100080910B018B3009F494C01C9DF0011D9D19
:103A2000F00D1124E95DF84F81889288A388B4884D
:103A30004580568067807084D284218132814381A1
:103A4000548123962CAF3DAF4EAF5FAF2397618576
:103A5000258536854785508927962CAF3DAF4EAFDB
:103A60005FAF27978B3008F06CC091E0980F909370
:103A70000B0138E1389FC0011124AC01445F5E4F57
:103A80007A01669570E080E090E00E9420319B0111
:103A9000AC0123966CAD7DAD8EAD9FAD23970E949A
:103AA0008E2F20E030E040E850E40E948D2FD701B7
:103AB0006D937D938D939C9313976D2D669570E018
:103AC00080E090E00E9420319B01AC01C301B20173
:103AD0000E948E2F20E030E040E850E40E948D2FBD
:103AE000F70164837583868397831086118624E0AB
:103AF0002287138627968CAD9DADAEADBFAD2797BF
:103B000084879587A687B78720E030E040E05FE3B1
:103B1000C501B4010E944332D70150966D937D9345
:103B20008D939C935397E2E05496EC93549755965B
:103B30001C925597F4E05696FC93569728E05796BA
:103B40002C9380911C07882349F080918E029091DC
:103B50008F02059690938F0280938E022AAD2017D4
:103B6000C0F4822F90E0189FD001199FB00D11244E
:103B7000A85DB84F0196189FF001199FF00D112410
:103B8000E85DF84F812F01900D928A95E1F72F5F44
:103B9000E6CF8FEF800F809327073BAD3FAF06C086
:103BA000C7010E94B1131FAE739401CF4AADC42E5A
:103BB000D12C1C9D50011D9DB00C1124C501885DA8
:103BC000984F7C010E94C814C7010E948C14C70141
:103BD0000E94FA10C7010E9439110E94D12E2AE0DA
:103BE00030E040E050E00E942A2F633071058105EB
:103BF0009105F4F5809127098530D1F1C1010E942A
:103C0000301091E09DA3F501E95DF84F818192812B
:103C1000A381B48189839A83AB83BC838581968198
:103C2000A781B0858D839E83AF83B887A7E0A987DE
:103C3000B8E0BA87E0E3F2E0DE01599686E0019051
:103C40000D928A95E1F783E58F8BA0912709A53026
:103C500078F481E08A0F8093270985E28A9FD0015A
:103C60001124A85DB64FF10101900D928A95E1F7FC
:103C70001C9DC0011D9D900D1124FC01E95DF84FB4
:103C80004F01828539EFA32EA80E818548EFB42E0F
:103C9000B80E209194023091950240919602509175
:103CA000970265817681878190850E948D2F20E023
:103CB00030E040E850E40E948E2F0E94E8302B0153
:103CC0003C012091900230919102409192025091DA
:103CD0009302D40111966D917D918D919C911497D1
:103CE0000E948D2F20E030E040E850E40E948E2FAB
:103CF0000E94E830DC01CB0100E02A2D4B2DB201FF
:103D00000E94D022F70143856FEC7AE0C7010E9440
:103D1000F00F89EF89838CEF88AFA101BE01685C49
:103D20007F4FC7010E94F2226091F4067091F50660
:103D30008091F6069091F7060E94EF307A836983AE
:103D40006091F0067091F1068091F2069091F30671
:103D50000E94EF3079AF68AFD40195962D913D91D7
:103D60004D915C91989751966D917D918D919C911B
:103D700054970E94363218163CF4A101BE01685CCB
:103D80007F4FC7010E94EB0E1C9DC0011D9D900D31
:103D90001124FC01E95DF84F6F012091F00630918C
:103DA000F1064091F2065091F306618172818381A0
:103DB00094810E948D2F4B015C012091F40630917B
:103DC000F5064091F6065091F706D60115966D91CD
:103DD0007D918D919C9118970E948D2F2B013C0114
:103DE000A5019401C501B4010E9443324B015C015D
:103DF000A3019201C301B2010E9443329B01AC01B5
:103E0000C501B4010E948E2F0E94BE329B01AC01FD
:103E100060E070E088E493E40E9476300E94EF3026
:103E2000B1E0B983A101C7010E947211EAADEF5F51
:103E3000EAAFA7CD4AE069E872E080918E029091E6
:103E40008F020E94DF2E00E012E099E8C92E92E076
:103E5000D92E25E0E22EF12CF60101900020E9F7A1
:103E6000C7018E1B9F0B202F30E086579D4F2817D0
:103E7000390760F420E045E55AE062E070E0812F08
:103E800090E00E94370E1B5F0F5FE6CF00E089E8ED
:103E9000E82E82E0F82EF70101900020E9F7319733
:103EA000E958F240802F90E08E179F0780F4FC01C4
:103EB000E757FD4F2081205345E55AE062E070E06E
:103EC000812F90E00E94370E1B5F0F5FE4CF80913F
:103ED0001C0781115CC080910901893124F48F5F36
:103EE0008093090147C080910A018A3F20F48F5FC7
:103EF00080930A013FC010920A0182ED809309016C
:103F000010928F0210928E021092040181E0809331
:103F1000050110920601109207011092270814E281
:103F2000D101E12F1D92EA95E9F7C1010E943010FD
:103F3000F101ACECB6E0812F01900D928A95E1F78A
:103F4000D101E12F1D92EA95E9F7C1010E943010DD
:103F5000F101A8EAB6E001900D921A95E1F7C101CE
:103F60000E94521087E3F101A0EFB6E001900D929C
:103F70008A95E1F760910901062E000C770B80917C
:103F8000080120E04FE459E090E00E94370E0E94C3
:103F90008B23CA5BDF4F0FB6F894DEBF0FBECDBFD9
:103FA000DF91CF911F910F91FF90EF90DF90CF9015
:103FB000BF90AF909F908F907F906F905F904F9049
:103FC0003F902F9008950E94A8256B017C01C101AC
:103FD0000E943010B601DD0C880B990B0E94203135
:103FE00069837A838B839C83B701FF0C880B990BC1
:103FF0000E9420316D837E838F83988780E189873B
:104000008A8786E0E6E3F2E0DE01599601900D92A0
:104010008A95E1F784E48F8B84E2F101A8EAB6E0A7
:104020002DC00E94A8256B017C01C1010E943010A7
:10403000B601DD0C880B990B0E94203169837A83CD
:104040008B839C83B701FF0C880B990B0E94203156
:104050006D837E838F83988780E189878A8786E056
:10406000ECE3F2E0DE01599601900D928A95E1F7BA
:1040700083E48F8B84E2F101ACECB6E001900D9209
:104080008A95E1F756C80E9DC0010F9D900D112431
:104090009C01285D364F7901C9010E948C1440E0D3
:1040A00063E572E1C7010E94F00F30C94F925F9241
:1040B0006F927F928F929F92AF92BF92CF92DF9238
:1040C000EF92FF920E94D12E6B017C010E94D12EB3
:1040D0002B013C0180E7882E99249394A12CB12CCC
:1040E000C701B601A50194010E942A2FCB01409679
:1040F0006C01C301B201A50194010E942A2F7B012A
:1041000020E1E20EF11CC701B601FF90EF90DF90B5
:10411000CF90BF90AF909F908F907F906F905F9067
:104120004F9008956F927F928F929F92AF92BF921D
:10413000CF92DF92EF92FF920F931F93CF93DF9373
:1041400000D000D0CDB7DEB7DC014115510509F430
:10415000E8C1FA011491319694916A01F2E0CF0E10
:10416000D11CE12EF12C222309F1492F46954695C9
:104170004695E42FF0E041E050E0892F877011F47C
:1041800040E050E04E0F5F1FE49EF001E59EF00D11
:10419000F49EF00D1124033011F4EE0FFF1F2E9F3B
:1041A000A0012F9F500D1124C40ED51E0F3F09F4FE
:1041B00002E0AD014E0D5F1D141615060CF0B1C1E5
:1041C000A038B1050CF0ADC19B01290F311D1216AD
:1041D00013060CF0A6C1603471050CF0A2C1C11425
:1041E000D10409F49EC1362F3770FB0177FD379655
:1041F00023E0F595E7952A95E1F72E2F77FF04C088
:10420000332311F02FEF2E0FB7FF05C06627772756
:104210006A1B7B0B02C060E070E04038510524F05F
:1042200050E85A1B952E01C0912E961AA22E022EEE
:10423000000CBB082F3F1CF48A2D809501C080E044
:1042400041E0592F577009F440E096959695969560
:10425000940FA90EB11C49E0A416B10414F098E023
:10426000921B981B280F40E82403A00DB11D1124B8
:10427000A60FB71F819F600D711D11243601660EB8
:10428000771E41E050E06A01032E02C0CC0CDD1C19
:104290000A94E2F7033009F400C1A0F4013009F4F4
:1042A000B1C0023009F03DC18FEF8C9DB0018D9DF2
:1042B000700D1124609570957C836B838C80492FE1
:1042C000420F29C00A3F31F00B3F09F02AC1492FA4
:1042D000420F84C0492F420F4FC0F301E00FF11F7E
:1042E000E491EC9D5001ED9DB00C1124BA82A9829D
:1042F00027FD05C0FC0150815623A52AA08231115B
:1043000013C00F5F1F4F0196091538F32F5F6E0C16
:104310007F1CA058BF4F241709F403C1CD01885654
:104320009D4F00E010E0F0CF27305CF7FC01E05833
:10433000FF4F50815821BA805B295083E2CFF301AF
:10434000E60FF71FE491EC9D8001ED9D100D112407
:104350001A83098327FD04C0FC015081052B0083CB
:10436000311113C06F5F7F4F0196691540F32F5FC6
:104370006E0C7F1CA058BF4F241709F4D2C0CD018A
:1043800088569D4F60E070E0F0CF27305CF7FC016D
:10439000E058FF4F10815A81512B5083E3CFF30136
:1043A000E00FF11FE491EC9DC001ED9D900D1124F3
:1043B0009A83898327FD05C08095FB01908189231D
:1043C0008083311114C00F5F1F4F6F5F7F4F09153E
:1043D00030F32F5F6E0C7F1CA058BF4F241709F4D9
:1043E000A0C0BD0168567D4F00E010E0F0CF27303F
:1043F00054F7FB01E058FF4F8A8180959081892313
:104400008083E1CF892E820EA301CB018619970903
:10441000281509F486C0BD0168567D4F5B0100E098
:1044200010E00915A0F5F801E80FF91FE40FF51FDA
:10443000E491EC9DB001ED9D700D11246095709597
:104440007C836B83FA01E00FF11FE491EC9D300156
:10445000ED9D700C11247A82698227FD05C0F5015B
:1044600070816723662A6082332359F027304CF429
:10447000F501E058FF4F70816C8167237A81672BCB
:1044800060830F5F1F4FFFEFAF1ABF0ACACF2F5FC6
:104490004E0D5F1DA058BF4FBBCFA92CB12CF3010F
:1044A000E60FF71FA856BD4F60E870E06A197B0958
:1044B000EA18FB088701000F111F592D492F792C8D
:1044C000E32ECF93DF93ED01EF96EF962296859042
:1044D000A590EE2059F08C9C4001AC9C50012730F7
:1044E0002CF4F880B094FB20F928F99222233AF0BA
:1044F000FC90A094FA20F828FD920C94802211964A
:104500005A9529F74A9551F0572D23951124E00F1C
:10451000F11DA60FB11DC60FD11DD9CFDF91CF91CF
:1045200011240F900F900F900F90DF91CF911F915A
:104530000F91FF90EF90DF90CF90BF90AF909F9042
:104540008F907F906F900895DF92EF92FF920F937C
:104550001F93CF93DF937C01D22E8B01040F111D8B
:10456000EB0177FF0EC0C0E0D0E00BC0C417D50749
:104570007CF42D2DAE01B70182E39AE00E94CD0EAE
:104580002196A801013411058CF340E450E0EECFF0
:10459000DF91CF911F910F91FF90EF90DF900895E1
:1045A000CF92DF92EF92FF920F931F93CF93DF93FF
:1045B0006B01122FEC017C01E40EF11CCE15DF051E
:1045C00044F4202F412FB601CE010E94A42221964F
:1045D000F5CFDF91CF911F910F91FF90EF90DF907A
:1045E000CF9008958F929F92AF92BF92CF92DF9219
:1045F000EF92FF920F931F93CF93DF93EC018B0108
:104600007A018091350A9091360A6AE070E00E9442
:104610002B33892B21F49EA581E089278EA78EA5B7
:10462000882309F46BC02091940230919502409147
:104630009602509197026C817D818E819F810E94AC
:104640008D2F4B015C0189858695682F70E080E095
:1046500090E00E9420319B01AC01C501B4010E9491
:104660008E2F4B015C01F7018081682F880F770B3B
:10467000880B990B0E9420319B01AC01C501B4014C
:104680000E948E2F0E94E8306B017C0120919002E5
:104690003091910240919202509193026881798108
:1046A0008A819B810E948D2F4B015C0168856695F4
:1046B00070E080E090E00E9420319B01AC01C501D8
:1046C000B4010E948E2F4B015C01F8018081682F9C
:1046D000880F770B880B990B0E9420319B01AC014E
:1046E000C501B4010E948E2F0E94E830DC01CB018D
:1046F00001E023E047E0B6010E94D022DF91CF9194
:104700001F910F91FF90EF90DF90CF90BF90AF90EF
:104710009F908F900895E8E9F2E081E0A0E0B8E092
:1047200000800EBC8111012C1197A0FDFDCF0192DC
:10473000B9F70DB408952F923F924F925F926F9206
:104740007F928F929F92AF92BF92CF92DF92EF9221
:10475000FF920F931F93CF93DF93CDB7DEB72B97C5
:104760000FB6F894DEBF0FBECDBF4C016B015A836C
:1047700049831C821B821D821E8268E070E0CE018C
:1047800001960E94880E01961C0168E070E0CE013F
:1047900001960E94880E8C0161E070E0CE010196C6
:1047A0000E94880E482FC401820D931D97FDD3C02F
:1047B00050E8851691040CF0CEC098012F5F3F4F52
:1047C000C601820F931F97FDC6C060E4C616D104D0
:1047D0000CF0C1C08601D7FE04C0002711270C19B8
:1047E0001D09077011277601D7FE03C077E0E70E99
:1047F000F11C63E0F594E7946A95E1F7D7FE09C0F0
:1048000081E0E81AF10888E090E0BC01601B710BC0
:104810008B01690137FF03C077E0C70ED11C53E05D
:10482000D594C7945A95E1F727703327232B19F0B5
:104830008FEFC81AD80A4F8331E020E0A12CB12CA9
:10484000612C712C88E090E0AC01401B510B598722
:1048500048876C147D040CF07EC044244394512C92
:1048600061E070E0CE0101962A873B870E94880EA6
:104870002A853B85892B21F452E0450E511CF0CF4F
:10488000B201CE0101960E94880EAC014F5F5F4FCE
:10489000E0E0F0E02A853B85E417F50708F052C018
:1048A0006F816111232B330F09F04AC0B701660DE8
:1048B000771DCB010196099798F5C501880D991DC3
:1048C0008038910568F52B015694542C4424579454
:1048D0004794480C591C4A0C5B1C6F3F8FEF7807BC
:1048E000B1F1D201A856BD4F822F002E01C0880F12
:1048F0000A94EAF79C91892B8C930115110581F09C
:104900006730710569F0D201A85EBC4F30E00884C1
:1049100002C0359527950A94E2F78C91282B2C93A9
:104920009FEFA91AB90AA214B30444F06FEF661AF4
:10493000760A31E020E0A12CB12C02C031E020E069
:104940003196AACF4F8151E045274F8382CF011581
:104950001105C9F6E5CF2B960FB6F894DEBF0FBE52
:10496000CDBFDF91CF911F910F91FF90EF90DF901E
:10497000CF90BF90AF909F908F907F906F905F90FF
:104980004F903F902F9008952091380A282329F4C2
:104990009091370A982381E009F480E008954F92BE
:1049A0005F926F927F928F929F92AF92BF92CF92BF
:1049B000DF92EF92FF921F93CF93DF93FC019689D2
:1049C000953409F089C09789292F30E030938F0200
:1049D00020938E0280911C07981720F4891B8093E6
:1049E0001C0778C010921C07109200071092010754
:1049F0001092020710920307C0910B01CB3009F40B
:104A000069C08090F4069090F506A090F606B090EC
:104A1000F7061091F9064090F0065090F10660906C
:104A2000F2067090F3066091F806C090FC06D090F4
:104A3000FD06E090FE06F090FF06CB3008F04AC07D
:104A400081E08C0F80930B0188E1C89FE001112465
:104A5000C45FDE4F669570E080E090E00E942031F8
:104A60009B01AC01C301B2010E948E2F20E030E017
:104A700040E850E40E948D2F688379838A839B836A
:104A8000612F669570E080E090E00E9420319B01EC
:104A9000AC01C501B4010E948E2F20E030E040E857
:104AA00050E40E948D2F6C837D838E839F831886B4
:104AB000198684E08A871B86CC86DD86EE86FF8693
:104AC000188A198A1A8A1B8A92E09C8B1D8A8E8BFF
:104AD00088E08F8B80E02CC0933469F481E0809370
:104AE0001D0780911C078823B9F080918E02909158
:104AF0008F0205960DC0943489F410921D078091A1
:104B00001C07882349F080918E0290918F020F96A6
:104B100090938F0280938E0281E00AC09335D1F684
:104B200080911E078D5F80931E0781E080930407AC
:104B3000DF91CF911F91FF90EF90DF90CF90BF90CA
:104B4000AF909F908F907F906F905F904F9008955F
:104B50008F929F92AF92BF92CF92DF92EF92FF928D
:104B60000F931F93CF93DF930E945620EB018C018C
:104B7000072E000C880B990B0E9420316B017C01E1
:104B80008090900290909102A0909202B090930237
:104B900020E030E0A9010E948E2FA50194010E941F
:104BA000363218167CF0BE01C801DF91CF911F91FB
:104BB0000F91FF90EF90DF90CF90BF90AF909F90BC
:104BC0008F90089520E030E04EEF52E4C501B4012B
:104BD0000E948E2F9B01AC01C701B6010E946C3070
:104BE00087FFE1CFB801012E000C880B990B0E94C2
:104BF00020316B017C018090940290909502A090EE
:104C00009602B090970220E030E0A9010E948E2F1A
:104C1000A50194010E94363218162CF620E030E0EF
:104C20004CE752E4C501B4010E948E2F9B01AC01F8
:104C3000C701B6010E946C3087FFB5CF95CF65E004
:104C400070E080E090E00C94530DFC018091950A97
:104C5000811103C08FEF9FEF08959FB7F89482E012
:104C60008093E9002091F20030E01216130614F44C
:104C700021E030E02115310559F0289884E6809331
:104C8000940A8091F10080838091F200882319F0CA
:104C90009FBFC90108958BE68093E800F9CF2FB735
:104CA000F89483E08093E9009091E800892F807266
:104CB00095FF04C09091F20080E4891B2FBF0895F6
:104CC000CF93DF931F92CDB7DEB76983DC01ED91FF
:104CD000FC910280F381E02D41E050E0BE016F5F66
:104CE0007F4F09950F90DF91CF91089583E08093D6
:104CF000E9008091F200882319F08AE38093E800AC
:104D000008950E944F2690E00895CF93DF931F925D
:104D1000CDB7DEB7FC018485958597FD05C02FEFE3
:104D20003FEF358724870BC0CE0101960E942526D0
:104D3000019719F4898190E002C08FEF9FEF0F90E7
:104D4000DF91CF9108950F931F93CF93DF931F921D
:104D5000CDB7DEB78C01FC018485958597FF0EC029
:104D6000CE0101960E942526019719F4298130E091
:104D700002C02FEF3FEFF80135872487F8018485C3
:104D800095850F90DF91CF911F910F910895FC01B0
:104D90008485958597FD0BC09FB7F89482E080933A
:104DA000E9008091F2009FBF90E0019608959FB7BF
:104DB000F89482E08093E9008091F2009FBF90E038
:104DC00008958F929F92AF92BF92CF92DF92EF920F
:104DD000FF920F931F93CF93DF935C016B017A01D6
:104DE00080911F02882309F45BC08091950A882373
:104DF00009F456C08091930A80FF05C08091E000BD
:104E000082608093E000E70110E00AEF83E0882EE3
:104E10009AE3992E2097D9F10E944F2681110AC05A
:104E2000015009F43DC061E070E080E090E00E9434
:104E3000530DF0CF282F30E0C217D3070CF48C2F7E
:104E40004FB7F8948092E9009091E80095FF1DC05B
:104E5000282F30E0C21BD30BF601982F915020F081
:104E600081918093F100FACFC20ED31E112319F065
:104E70009092E80009C08091E80085FD06C09092FC
:104E8000E80011E0209709F010E04FBFC3CF1111E7
:104E9000C3CF5D9884E68093960A1E141F0444F0E5
:104EA00081E090E0F5019383828380E090E001C08F
:104EB000C701DF91CF911F910F91FF90EF90DF908D
:104EC000CF90BF90AF909F908F90089580919B0A54
:104ED00081110DC082E08093970A84E08093980A44
:104EE00010929A0A1092990A81E080939B0A87E9AE
:104EF0009AE008951F920F920FB60F9211248F938C
:104F00009F938091E1009091E100937F9093E10065
:104F100083FF0FC01092E90091E09093EB00109294
:104F2000EC0092E39093ED001092950A98E0909334
:104F3000F00082FF20C093E09093E9009091F2008E
:104F4000992319F09AE39093E8009091960A992397
:104F500039F09091960A91509093960A992389F18D
:104F60009091940A992339F09091940A91509093DA
:104F7000940A992341F184FF10C08091E2008E7E53
:104F800081608093E2008091E1008F7E8093E10058
:104F90008091930A8E7E806111C080FF16C080913F
:104FA000E2008E7E80618093E2008091E1008E7E3F
:104FB0008093E1008091930A8E7E81608093930AB2
:104FC00004C05D9ACDCF289AD6CF9F918F910F9034
:104FD0000FBE0F901F9018951F920F920FB60F9251
:104FE0001124CF92DF92EF92FF920F931F932F9392
:104FF0003F934F935F936F937F938F939F93AF9361
:10500000BF93EF93FF93CF93DF93CDB7DEB76C974A
:10501000DEBFCDBF1092E9008091E80083FFEDC1B3
:1050200068E0CE0145960E94460D82EF8093E8002D
:105030008D8987FF05C09091E80090FFFCCF03C0E9
:105040009EEF9093E800982F907609F0C6C09E8955
:105050002F89188D91110CC0803829F48091920A03
:105060008093F10002C01092F1001092F10048C14B
:10507000422F50E0512B913051F4811141C1413008
:10508000510509F03DC18091920A8D7F0BC093308C
:1050900061F4811135C14130510509F031C1809170
:1050A000920A82608093920A2BC1953041F48091DC
:1050B000E80080FFFCCF20682093E30021C19630F8
:1050C00009F05FC0EB8CFC8C1092E9001092900A02
:1050D00010928F0A123091F510928E0A10928D0A5A
:1050E0000E94140D99E0BE016F5F7F4FDB01E92F35
:1050F0001D92EA95E9F799831A8391E09E8390EADD
:1051000098879AEF998720918F0A3091900A275FAC
:105110003F4F3C832B838D831092E9001092900ABD
:1051200010928F0AF0928E0AE0928D0A49E050E0C8
:1051300080E00E94ED0C0E94140DE2C0F0928E0AF5
:10514000E0928D0A0E946627DC011296ED90FC9099
:105150001397E114F10409F4C0C0D701ED91FC915B
:105160000480F581E02DBE016B5E7F4FC70109957C
:10517000009719F00CF0C4C0C7C0F701E084F184B7
:10518000E8CF973009F4C0C0983021F481E08093D3
:10519000F100B6C0993009F0B3C0837009F0B4C013
:1051A000E9E6F2E081E021E036E39081992361F0C5
:1051B0008093E9002093EB0091919093EC00309361
:1051C000ED008F5F873089F78EE78093EA001092B9
:1051D000EA008F898093950A93C08B8D9C8D1092E5
:1051E000E9001092900A10928F0A90938E0A809391
:1051F0008D0A898D811156C08E899D89913A59F405
:10520000813209F081C047E050E068E172E080E05F
:105210000E94ED0C75C0913209F076C0833289F49A
:10522000888D90E0982F88272F89822BA0E0B0E00E
:105230008093140290931502A0931602B093170264
:105240005FC0803269F48091E80082FFFCCF67E0A4
:1052500088E192E00E94460D8BEF8093E80006C043
:10526000823209F04DC08F8980931F028091910A8C
:10527000882319F0EEEFFAE002C0E0E0F8E0809158
:10528000180290911902A0911A02B0911B02803B62
:105290009440A105B10509F07BC080911F0280FFF9
:1052A00093C076C00E946627DC0112960D911C9176
:1052B00013970115110541F1D801ED91FC91019071
:1052C000F081E02DBE016B5E7F4FC8010995811111
:1052D00017C0F80100851185ECCF113009F44EC0DC
:1052E000133091F48F89882309F445C0823081F40A
:1052F00040E860E18CEB96E10E941C2A882321F0B3
:105300008EEF8093E80079C081E28093EB0075C056
:10531000813029F440E86BE080EB96E1EDCF8330FB
:1053200099F70E946627DC011296ED90FC90139786
:105330008E010F5F1F4F6801E114F10479F0D7016E
:10534000ED91FC910680F781E02DB801C701099528
:10535000080F111DF701E084F184EECFD8011C92F3
:10536000F60101900020E9F73197BF016C197D0922
:1053700040E0C601C1CF6AE976E102C06EE976E19C
:105380006115710509F2FB01449150E080E840CFBE
:105390000FB6F894A89580916000886180936000B2
:1053A000109260000FBEA895EE3F2AE0F20739F098
:1053B0008091FE0A9091FF0A91838083A1CF109281
:1053C000FF0A1092FE0A9CCFEE3F8AE0F80731F008
:1053D000808191819093FF0A8093FE0A87E797E787
:1053E000918380839BE088E10FB6F894A895809321
:1053F00060000FBE9093600083CF6C960FB6F89458
:10540000DEBF0FBECDBFDF91CF91FF91EF91BF9176
:10541000AF919F918F917F916F915F914F913F914C
:105420002F911F910F91FF90EF90DF90CF900F90F1
:105430000FBE0F901F901895CF92DF92EF92FF92C0
:105440000F931F93CF93DF931F92CDB7DEB7182F23
:10545000062FE42E862F880F8E5F99830E94920B71
:1054600083E00E94920BF12EC12E9981D92E8C2DB2
:105470008F19801798F4F601E7FE02C0849101C0ED
:1054800080810E94920B182F80E00E94920B812352
:10549000FFEFCF1ADF0A8111EACF01C081E00F9040
:1054A000DF91CF911F910F91FF90EF90DF90CF9000
:1054B0000895CF93DF9300D01F92CDB7DEB77894D5
:1054C00084B5826084BD84B5816084BD85B5826009
:1054D00085BD85B5816085BD80916E0081608093BA
:1054E0006E00109281008091810082608093810023
:1054F0008091810081608093810080918000816033
:1055000080938000809191008260809391008091CF
:1055100091008160809391008091900081608093E0
:1055200090008091C10084608093C1008091C1008F
:1055300082608093C1008091C10081608093C1002E
:105540008091C30081608093C3008091C00082601D
:105550008093C0008091C20081608093C2008091DE
:105560007A00846080937A0080917A0082608093D0
:105570007A0080917A00816080937A0080917A002D
:10558000806880937A001092950A1092920A109285
:10559000930A8091D70081608093D70080EA80933E
:1055A000D80089B5806189BD89B5826089BD09B49B
:1055B00000FEFDCF61E070E080E090E00E94530DBE
:1055C0008091D8008F7C80618093D8008091E0002A
:1055D000807F8093E0008091E1008E7E8093E100E7
:1055E0008DE08093E200559A209AEEEFFFE78591D7
:1055F00094918B3F9C4D19F481E08093910A81EC4A
:1056000080937C0085B1806F85B984B1877E84B931
:1056100084B1876E84B95E9A5F988AB1806D8AB9C9
:10562000769A6E9881B3806F81BB899880B38D70B4
:1056300080BB80E58CBD81E08DBD0E941F265F9AF6
:105640000E941F265E985C98E0E0F1E08DE08E0FEE
:1056500094919EBD00000DB407FEFDCF31968E13D0
:10566000F7CF5C9A81E88093640080916500816047
:10567000809365000E943D0E803839F42E98809109
:105680006400806280936400FFCF82E090E00E941B
:10569000142F882319F00E94E00C02C00E94DB0C3A
:1056A000212C60E8362E78E9E72E76E0F72EE6E149
:1056B000CE2EE4E0DE2EF2E3AF2EB12CADE28A2E48
:1056C000A8E09A2EB4E66B2E712C5524539459E120
:1056D000452E8FB7F89440917E0250917F026091E1
:1056E0008002709181028FBF80913A0A342F381B5B
:1056F000832F90913B0A992329F030933C0A109212
:105700003B0A34C19091390A391740F48F5F8917E9
:1057100008F02CC153BE889513BE28C150923B0A95
:1057200040933A0A8091350A9091360A01969093F7
:10573000360A8093350A8091370A8093380A0E948E
:105740003D0E8093370A80910001811110C00E94A4
:105750003D0E86FD0CC012C18091350A9091360A2B
:1057600066E970E00E942B33892B09F018C1509232
:105770000001809104018111F7C08091060181111F
:1057800017C080E20E94C424882331F08091050173
:10579000882371F081500AC080E40E94C4248823C9
:1057A00039F080910501833018F48F5F80930501F3
:1057B00084E00E94C424882309F44FC0809105012D
:1057C000813061F580930401809164008E7F809325
:1057D000640080917A00806480937A0080917A00DE
:1057E00086FDFCCF00917800109179000E94EE0BAD
:1057F00020E030E0980111270027600F711F821F01
:10580000931F611571058105910511F00E94D62E37
:1058100080916400816080936400A6C08330C1F4ED
:1058200080918702882319F00E94DB0C02C00E943D
:10583000E00C6091870282E090E069830E94142F5F
:105840006981681781F082E090E00E941C2F0BC0F4
:10585000809307015092060106C088E00E94C4248C
:1058600081111092060180910601811167C04CEBF5
:1058700055E060E070E080E090E00E949B23809122
:105880000501849D802D1124815F282F30E03B830A
:105890002A8301E02AE047E167E370E08A819B8187
:1058A0000E94D0220A811B810150110920E049E1A8
:1058B00066E370E0C8010E94450E20E04BE066E31D
:1058C00070E0C8010E94A42220E04BE066E370E093
:1058D0008A819B8147960E94A42220E040E955E0FE
:1058E00068E370E080E190E00E94370E20E044E63B
:1058F00055E068E370E089E290E00E94370E20E016
:1059000048E355E068E370E082E490E00E94370EDF
:1059100020E04AE155E068E370E08BE590E00E940A
:10592000370E2091870240E055E068E370E08AE698
:1059300090E00E94370E0E948B2318C080910701CF
:10594000811109C04DE753E060E070E080E290E033
:105950000E949B23F0CF823071F741E852E060E073
:1059600070E080E090E0F4CF0E94931580E090E03A
:10597000892B09F4AECE0E940000A7CE60910301EE
:1059800065300CF0E9CE6F5F60930301062E000CCA
:10599000770B8091020148E851E090E0D9CF8091E7
:1059A0000101811127C0809171008D7F809371006A
:1059B00010928602F0928502E0928402F0928302B5
:1059C000E0928202D0929906C0929806B0929B060D
:1059D000A0929A0690929D0680929C0670929F06D5
:1059E00060929E063092A1062092A0060E942D0C85
:1059F0005092010160910301062E000C770B8091FB
:105A0000020148E851E090E00E949B23609103016D
:105A1000062E000C770B675E7F4F8091020190E0AD
:105A200002E020E04FE751E080960E94922000E0E3
:105A300025E040E86FE270E08EE190E00E94D02225
:105A40004DE051E06EE270E08EE190E081CF4F9248
:105A50005F926F927F928F929F92AF92BF92CF92FE
:105A6000DF92EF92FF921F93CF93DF931092400A41
:105A700010923F0A88EE93E0A0E0B0E08093410AE4
:105A80009093420AA093430AB093440A82E592E0BD
:105A900090933E0A80933D0A8FEF9FEF90934A0ABE
:105AA0008093490A84E692E09093330A8093320A05
:105AB0001092370A1092380A80E18093390A1092C6
:105AC000360A1092350A10923B0A80EC9BE09093C4
:105AD000A7068093A60680E090E89093A5068093A1
