:100000000C9484080C94AC080C94AC080C94AC08C8
:100010000C94AC080C94AC080C94AC080C94AC0890
:100020000C94AC080C94AC080C94200F0C94920F18
:100030000C94AC080C94AC080C94AC080C94AC0870
:100040000C94AC080C94AC080C94AC080C94AC0860
:100050000C94AC080C94AC080C94AC080C94701282
:100060000C94AC080C94AC080C94AC080C94AC0840
:100070000C94AC080C94AC080C94AC080C94AC0830
:100080000C9468130C94AC080C94AC080C94AC0859
:100090000C94AC080C94AC080C94AC080C94AC0810
:1000A0000C94AC080C94AC080C94AC08084AD73BF0
:1000B0003BCE016E84BCBFFDC12F3D6C74319ABD37
:1000C00056833DDA3D00C77F11BED9E4BB4C3E915B
:1000D0006BAAAABE000000803F05A84CCDB2D44E4A
:1000E000B93836A9020C50B9918688083CA6AAAA4C
:1000F0002ABE000000803F00D5F08D14A1C881CF3A
:10010000D9F1AF2000420F28E5F6ED56D9D9E4F633
:10011000EDD62AC964B7CA49A79CB25B26BBFDFFCE
:10012000DF2A47E59CB44AAAA5726472FB76ABEC61
:100130006C72FB766B9564B2DBFFFFAD725476FB9D
:10014000AD6EB51D475B65B74B2567DB2ABB5D2AE6
:10015000399B928A5C4945A6A4429E928A7CABEC6C
:1001600076A9E46C5B65B74B25675352912AA9C801
:10017000945476BBDD4E0A07080C06030303060001
:100180003F2FB0BD54CE29B9DDA6D387D3743A9D95
:100190004EA7D3E9743A1D515649A97C3ABDDD2AD0
:1001A000E99C543A08CA291DFED2DB6DDBE576BB1B
:1001B000DDA6D3E9743A9D4EA7D3E9F476BB555238
:1001C00049E7A4B2EB5857B84DA7D3E97476BBDD25
:1001D0002E9593312965955452492595DCC69E5D2F
:1001E0002AA99C73CE39E79C734E4EB7545239E717
:1001F0009C73CE392795BA774EDDAA57AD5EFD7652
:100200001D593ADBB94EF5B75332AB64ED6EF5AF1D
:100210007AF5B9CE756EBBDDAED369E75098AE9D69
:1002200092DB743AA6A55376BB554EAEB6CE49A521
:1002300023DB2E9D73CED5BB7F1B3D1FFCB47556B3
:10024000E9F57A1DD4A4EC3ABA74E73A954AD5AEEA
:100250005665D5A594BB56CAB961B7F476BD5D6F36
:10026000D7DBED76BDDD6EB7DBED72BBDD6E97DB08
:10027000ED72BBDCA6B74A8E5D7F3F80BC48492546
:100280002B5991A59554323A2595AC64744A2A5954
:10029000C9E89454323F0C2C9554A954292AA9A496
:1002A000AAA4A452A554A952AA14F4B84CA7D3E9FD
:1002B000742A954AF5AA57E97C2D15EB769D8E6D2B
:1002C000BB4E562EDBAB5E752E954AA7D3E9743A2A
:1002D0003FBEA592AA2AE7A8A492AA9617955452BF
:1002E00055525249259D723795545255A552112E9B
:1002F000B3D974369D4EA7D3E9743E9DCFE78707E7
:100300003D5DB4D1A5A34B47D6D9B218B3659311BF
:10031000A6A34B47175D3AEFE122A7529D4D67D345
:10032000E9743A9D4EE7D3F97C2AE7F89DEC7CB25C
:10033000D3C9CE75AE739DEB5CE73AD7D95C6753F2
:100340009D7270E13E9D4EA7D3E9743A9DCE6643FF
:100350006B3E9F4EA7D3E9743A9D4E27878DF6F9E1
:1003600064A7939DEB5CE73AD7B9CE75AEB3B9CE2F
:100370006693037B123F3FD1974EA7D3E9743A9D12
:100380004EA7D3E968D3E9743A9D4E479B0E8DE999
:10039000743A9D4EA7D3E9743A9D0EDF843ADD7618
:1003A000BBDD6EB73ACDC7974EF7AA5739E728DBC2
:1003B000D5EE5DEDDED52E429DE623D4E9B6DBED2C
:1003C00076BBD5693E7CCBEDA94FFDAF7AD5FFFF5B
:1003D000FF9FDAAEE4F6289D73BFEADDAB5E29A984
:1003E00064DBA5DC5EFF7F727B6D977C727B6ABBF2
:1003F000EA55AF7AD5AB5EF576BB92DBC377BBDA55
:10040000D5AE76BFEABD92AA5DEDAC92EEFF4F3954
:10041000E77697FBFFBF76B58BAF573D653AEF9C0C
:1004200053727B6ABB6ABBEC55AFB25BBB7DBB7DD5
:10043000BB6CBB44B84EE79C53B9CBBD4E2BE75CBD
:10044000ED6A57FF7FBDEAAD73CE7DEA53CEB97436
:10045000BA5EF52A77B9CB39E7EC36E59CAB5DEDB2
:10046000FEFFDF2EDBD52EA9A4924A2AF5A9FF555F
:100470008FF2B64BB5DD7EEAFFFF539FFAD476D5F7
:1004800076ABD3CA3957769BDCEEB6BB57BDCA39BB
:10049000A772CE792539EDF6FF7FBBE5DCEE9554EA
:1004A000CA3997FAD4876F3E9DB6DBED76BB3D9D8A
:1004B00026E453DB55CE3995DDBE5DF6AAA76CBBAD
:1004C000944AAAECF6FFDF4925DB6E5FF54A6D57CB
:1004D000727B3A1D1FBED3E9743A9D4EA7D3E974CF
:1004E0003A1D6D3ADA743A9D4EA7D3A1299D4E4725
:1004F0009B8E361D9AD2A10F0608007F3E7F0C7F8F
:10050000187F3E7F007F001F0E7F3E7F387F0E7F6B
:10051000001F0E08007F3E7F3E7F0A7F021F007F84
:10052000367F3E7F087F367F007F007F367F007FEB
:100530001508007F3E7F3E7F187F3E7F007F3E7F15
:100540003E7F2A7F227F007F3E7F3E7F207F20707C
:10055000007F3E7F3E7F127F1E3F003F1508007FD9
:100560003E7F3E7F127F1E3F007F3E7F3E7F207F8B
:100570002070007F3E7F3E7F127F3E7F007F0E7F98
:100580003E7F387F0E7F001F15080077227F3E7F59
:100590003E7F227F007F3E7F0C7F187F3E7F007F63
:1005A0003E7F3E7F0A7F021F007F3E7F3E7F227F8D
:1005B0003E7F007F7F3FA040B9DD6EDF6E9D5464BB
:1005C0003595DD6EB7FFFF5BE5B8AAA292DBEDF6CD
:1005D000FF7FAB2453D5F6FFB776BBDDBE3D252BA1
:1005E000551593DD6EB7FFFF6F4FC94A5545E5942A
:1005F000DD6EFFFFFF5F057D67B395AC5CED6A576D
:10060000BBDAD5AEE4EDB6B5FB4FBD92D995E3921A
:100610003A9DAE9D52AE942B75EA6A59EACA96ABE2
:10062000E4E52A79B6B2E52A79B6D45557E5AA6C3D
:10063000C9CB55F27255B6E4B6B225CF75AE73B5D7
:100640002B77B9CB5DD775EE7439F5A94F7DEA9557
:100650004C6F6BA596D9DAD5AE76B5AB5D2D2B591F
:10066000D97CF0AAF23955BBDA55A53AD7B94A5622
:10067000369BCE29972EB5BB76B5AB64BA76B5ABB3
:100680005DED52A9D4E79CAA7255D5555D95ABAAEC
:10069000ABEA4A5D5557EA525D5597EAAABA54A7A4
:1006A000EA529DAA4B75555DAAABEA525DA9ABEA29
:1006B0004A5D5557D5557555E5AA9493B54BA7D3C3
:1006C000A954EA53D239BB4EA73EA7B8944FE7B31B
:1006D00095AC64E73A5795AA5D9DCA2938319BAD20
:1006E0005CAD4AA95A95BBD4659395DCEE2A77B9DF
:1006F0004BA9DAD54E49E594734AD5EA5ED54EC981
:100700006D3A9D54F3CBAEEAAA5CB65297BA9453B5
:10071000AE96DFEA579D2BA59CECC82A99AEB83A55
:10072000E55C29D5A9FFBB96CA9572A5AE525DD9E5
:10073000CA56ADDA29F8289D4E6FB795ACE4252F3F
:10074000A5CAA9DA9572B5AC6C3E58EBDDBB475231
:100750007279B94ABA6E75B9CB5DEE7297BBDCE5BA
:100760002EFDA952D55D55AAAE7B7575777575B707
:10077000DEA6B7955452B9F2AD145EF3E97436F4BF
:10078000EEA85C2D2BA9647A9BDE56AE7697ABE47F
:10079000B67255A95B55A59CDBA6D3E9743A9D4E6C
:1007A0006F6B77B9CA2A1DEFDEBDF3C34F7BF7CE5F
:1007B000CFBBBC54EF6E25F525F3E974252B59C941
:1007C000CA756AA5CAD5A9AAAE4EF5F7F7EA729D11
:1007D0003BBBCEAE9DAA5257D5555D555D555DD5F7
:1007E000557555D55557555DA5AEBA2A75D5AA5C30
:1007F00055EA5655A95B9552B72A75D59FBADCA71D
:100800003A5795ABCA55AEAAAB72555D555D95ABDF
:10081000BCCBAEB3EBEC3A5BD9CA55E56A559592C1
:10082000769D4FA7D3E97436BB72B25297AB9593BE
:10083000B1BF7BF7B056DEA9DCC9FDD6D9CA55A534
:100840006E5555AE53555DDD57A9DB294AAA53A90C
:100850005455577757AE5355B94E55E55A55A56E71
:100860005595BA955D87CE743A5DB9CBDDAB5B5DCE
:100870004E49E79C934A2ABBDDAED3616BA96E5506
:1008800095BA5555EA5655A95B55E56A7749252B22
:100890003B96B2CA5DEA5655A95B55E56A55CB65EC
:1008A000369D7CF74E05CDA5F3E96C252B59C94A39
:1008B000D62E95CA75AE739DEB5CE73AD7B9CE7567
:1008C000AE739D4AD5AE9295AC64252B79B9CB5DBC
:1008D000EED2913BA583A69258CA5DEE7297AB64A7
:1008E000252B59C94AD62E95CA75AE739DEB5CE788
:1008F0003AD7B9CE75AE739D4AD5AE9295AC6465C4
:10090000D3D974D01014100000E020A038082C04B3
:100910000400288818202020E0000000001F10306C
:10092000207B6B3717173120686820101F000000EC
:1009300000E060B01848208404040848302020609B
:10094000C0800000030F301030605B4A361717106C
:10095000202C20100A0F000080C0407018C8A4048A
:10096000842C081890302060C000000007091B3656
:100970002121405B4A261713102C34100D0700006C
:100980000080807010D0848404840808D83020202F
:10099000E0000000001F10162C2C2041465A671B57
:1009A0001010161807000000000080E030C4848496
:1009B00084040808183020E000000000001C1F30EC
:1009C0002C2C2C6C41424A731010180F00000000B0
:1009D00000000000F018848484840C0C0838E000C7
:1009E000000000000000003F202C2C6C4C4D4043C8
:1009F00078080F000000000000000000C06C0484B4
:100A0000848484047CC0000000000000000000001A
:100A10007F404C4C4C444C4C407F00000000000098
:100A2000000000E038080C0C8484848418F0000076
:100A3000000000000000000F087843404C446C2C7C
:100A400028203F00000000000000E02030180808C7
:100A500004848484CC38E0800000000000000F187B
:100A60001010734A40406C2C282C301F1C000000D2
:100A700000E0202030D0000884048484DC187080DA
:100A8000800000000007181610101B675A44402011
:100A9000242C16101F00000000C0602030901808A1
:100AA0002C8404A4CC187040C0800000070D1034C2
:100AB0002C101317264A5B402021361B0907000023
:100AC00080C0602020304808040484244C18B060A2
:100AD000E00000000F0A10202C20101717364A5B88
:100AE000603010300F03000000E020202018882C18
:100AF0000404042C0838A020E0000000001F10208F
:100B0000686820311717376B792030101F000000FC
:100B100080C0404030584CA40404060808103060DF
:100B2000C0800000030E303060585861361717330C
:100B30002A2D3018090F000000C040603848CC044E
:100B40008404044808103020C080000007091830D1
:100B50002060505865361713232D301B0D070000F9
:100B6000008080C030DCC4C40684044C08183020E7
:100B7000E0000000001F103020204040504137139B
:100B80001315110C07000000000000C0709CC4C4C5
:100B9000840404448C1830E00000000000183F205A
:100BA000282C4040404041731314180700000000F7
:100BB00000000000E018C4D4848404048C1CF000FD
:100BC000000000000000203F6160404C4040404178
:100BD00078180F000000000000000000C07C0484B2
:100BE000848484047CC00000000000000000000039
:100BF0007F40404048484040407F000000000000E7
:100C0000000000F01C8C040484C4D4C410E0000074
:100C1000000000000000000F1878414040404C40A8
:100C200060613F20000000000000E030188C4404A8
:100C30000484C4C49070C0000000000000000718C5
:100C400014137341404040402C28203F18000000FE
:100C500000E0203098084C048406C448D030C0809E
:100C60008000000000070C1115131337415040405D
:100C7000202030101F00000080C0203010084804E1
:100C8000048404C848386040C0000000070D1B30D1
:100C90002D231317366558506020301809070000BF
:100CA00080C06030100808060404A0485830404056
:100CB000C08000000F0918302D2B331717366158EC
:100CC000586030300E030014100000F810A03808EF
:100CD00028282828288818A02060C0000000001FAD
:100CE00010362263633717173723606222101F0004
:100CF000000000F020B0184828A8282828483030E4
:100D00003060C0000000030F3210366243423617D5
:100D10001717232021100B0F0000C0E0407018C8E7
:100D2000A828A828081890302060C00000000708F4
:100D30001B36202D464342261713132131100F0670
:100D4000000000C0407010D0A8A828A80808D0B0A3
:100D5000A020E0000000001F10162E2E204D46425D
:100D6000671B1311101807000000000080E030D04E
:100D700088A8A828280818B020E000000000001C5F
:100D80001F302E2E2C6C414642731310180F00009A
:100D9000000000000080E01088A8A8A82808881893
:100DA000F000000000000000003F202E2C6C4C4D95
:100DB000404379080F000000000000000000C078E8
:100DC00008A8A8A8A80878C000000000000000003B
:100DD00000007F404C4C4C484C4C407F00000000D1
:100DE0000000000000F018880828A8A8A88810E0D3
:100DF0008000000000000000000F087943404D44CF
:100E00006C2C2A203F00000000000000E020B018F9
:100E1000082828A8A888D030E08000000000000042
:100E20000F181013734246416C2C262E301F1C00E5
:100E3000000000E020A0B0D00808A828A8A8D01082
:100E40007040C00000000007181011131B674246D5
:100E50004D202E2E12101F00000000C06020309088
:100E6000180828A828A8C8187040E0C00000060F7D
:100E7000103121131317264243442C20361B080738
:100E8000000000C06030303048282828A8284818C2
:100E9000B020F00000000F0B102121231717173688
:100EA0004243623610320F03000000C06020A018D9
:100EB0008828282828280838A010F8000000001FDB
:100EC00010226262233717173763612236101F0022
:100ED000000000C060A0B05848A8282828080810C2
:100EE0001820C0800000030F30306642426736177A
:100EF00017332320331B090F000000C0406038481F
:100F0000C808A8281C4808101020E0800000070B23
:100F10001830206D4642673617132321311B0D0709
:100F200000000080804030D0C8C828B40C48089821
:100F30009030E0000000001F10302620404442475F
:100F400037131311110C07000000000080C07090CF
:100F5000C8C8B42C2848889810F000000000001879
:100F60003F20282C404040464373131018070000D0
:100F7000000000000000E010C8C4ACA828088818D1
:100F8000F000000000000000003F6060484C40405E
:100F9000404378180F000000000000000000C078F7
:100FA00008B8B8B8B80878C0000000000000000019
:100FB00000007F4040404C4C4040407F000000001B
:100FC0000000000000F018880828A8ACC4C810E091
:100FD0000000000000000000000F1878434040406F
:100FE0004C4860603F00000000000000F01098884E
:100FF00048282CB4C8C89070C080000000000000D1
:10100000071810137343444048402C28203F180011
:10101000000000E030909808480CB428C848D03050
:1010200040808000000000070C1111131337474265
:101030004440202630101F00000080E0205010089F
:10104000481C28A808C848386040C0000000070DA8
:101050001B3121231317366742466D2030180B07CA
:10106000000080C02018100808282828A84858B078
:10107000A060C00000000F091B332123331717366F
:101080006742426630300F0300080B000202020183
:1010900000090400000102020000052400100105FF
:1010A000240101010424020605240600010705812C
:1010B0000310004009040100020A000000070502B5
:1010C00002400000070583024000000403090412E7
:1010D000010002EF020140412336800001010203BA
:1010E0000141726475696E6F204C4C43004172641B
:1010F00075696E6F204C656F6E6172646F000102DE
:10110000040810204080C52011241FBECFEFDAE074
:10111000DEBFCDBF11E0A0E0B1E0EAE9FDE402C02E
:1011200005900D92A035B107D9F728E0A0E5B1E010
:1011300001C01D92A632B207E1F718E0C4E8D8E07A
:1011400004C02197FE010E94C026C338D107C9F709
:101150000E9406170C94CB260C9400005F926F92AD
:101160007F928F929F92AF92BF92CF92DF92EF9237
:10117000FF920F931F93CF93DF93EC018B017A01C2
:10118000A901461B570B57FF03C0519541955109C3
:10119000C7018C1B9D0B97FF03C091958195910909
:1011A000552453948417950714F0512C0AC09E2D92
:1011B0008F2D7901292F382F9C2F8D2FE801092F92
:1011C000182FEC16FD0654F4902F812F8901292F3A
:1011D000382F9C2F8D2FE701E92EF82E37016C1A3E
:1011E0007D0A5901A01AB10AB7FE03C0B194A194B7
:1011F000B108630177FE03C08FEFC81AD80AD594EF
:10120000C7940217130714F08FEF01C081E0882EF6
:10121000880F9908EC16FD06B4F021E0552019F06E
:10122000AE01B80102C0A801BE0180EA97E00E94A9
:101230002014CA18DB08D7FE04C0080D191DC60CFF
:10124000D71C2196E7CFDF91CF911F910F91FF908F
:10125000EF90DF90CF90BF90AF909F908F907F9056
:101260006F905F900895EEE5F1E081E0A0E0B8E0D6
:1012700000800EBC8111012C1197A0FDFDCF0192C1
:10128000B9F70DB408952F923F924F925F926F92EB
:101290007F928F929F92AF92BF92CF92DF92EF9206
:1012A000FF920F931F93CF93DF93CDB7DEB72B97AA
:1012B0000FB6F894DEBF0FBECDBF4C016B015A8351
:1012C00049831C821B821D821E8268E070E0CE0171
:1012D00001960E94DB1301961C0168E070E0CE01CC
:1012E00001960E94DB138C0161E070E0CE01019653
:1012F0000E94DB13482FC401820D931D97FDD3C0BC
:1013000050E8851691040CF0CEC098012F5F3F4F36
:10131000C601820F931F97FDC6C060E4C616D104B4
:101320000CF0C1C08601D7FE04C0002711270C199C
:101330001D09077011277601D7FE03C077E0E70E7D
:10134000F11C63E0F594E7946A95E1F7D7FE09C0D4
:1013500081E0E81AF10888E090E0BC01601B710BA5
:101360008B01690137FF03C077E0C70ED11C53E042
:10137000D594C7945A95E1F727703327232B19F09A
:101380008FEFC81AD80A4F8331E020E0A12CB12C8E
:10139000612C712C88E090E0AC01401B510B598707
:1013A00048876C147D040CF07EC044244394512C77
:1013B00061E070E0CE0101962A873B870E94DB1333
:1013C0002A853B85892B21F452E0450E511CF0CF34
:1013D000B201CE0101960E94DB13AC014F5F5F4F5B
:1013E000E0E0F0E02A853B85E417F50708F052C0FD
:1013F0006F816111232B330F09F04AC0B701660DCD
:10140000771DCB010196099798F5C501880D991DA7
:101410008038910568F52B015694542C4424579438
:101420004794480C591C4A0C5B1C6F3F8FEF7807A0
:10143000B1F1D201A25ABE4F822F002E01C0880FF7
:101440000A94EAF79C91892B8C930115110581F080
:101450006730710569F0D201A252BE4F30E00884B6
:1014600002C0359527950A94E2F78C91282B2C938E
:101470009FEFA91AB90AA214B30444F06FEF661AD9
:10148000760A31E020E0A12CB12C02C031E020E04E
:101490003196AACF4F8151E045274F8382CF011566
:1014A0001105C9F6E5CF2B960FB6F894DEBF0FBE37
:1014B000CDBFDF91CF911F910F91FF90EF90DF9003
:1014C000CF90BF90AF909F908F907F906F905F90E4
:1014D0004F903F902F9008958F929F92AF92BF921E
:1014E000CF92DF92EF92FF920F93CF93DF936B0136
:1014F000EC014C01840E911C5B01A20EB11CC815BD
:10150000D905ECF47601D7FE10C0E12CF12C0DC00A
:10151000E816F90694F4202FA701BE0180EA97E0AF
:101520000E9420142FEFE21AF20AC50121E4A2164C
:10153000B10474F380E490E0EBCF2196E0CFDF912B
:10154000CF910F91FF90EF90DF90CF90BF90AF9031
:101550009F908F9008956F927F928F929F92AF92FB
:10156000BF92CF92DF92EF92FF920F931F93CF9390
:10157000DF9300D000D0CDB7DEB7DC0141155105B7
:1015800009F4E8C1FA011491319694916A01F2E0EC
:10159000CF0ED11CE12EF12C222309F1492F4695C3
:1015A00046954695E42FF0E041E050E0892F8770A2
:1015B00011F440E050E04E0F5F1FE49EF001E59E05
:1015C000F00DF49EF00D1124033011F4EE0FFF1F07
:1015D0002E9FA0012F9F500D1124C40ED51E0F3F2A
:1015E00009F402E0AD014E0D5F1D141615060CF056
:1015F000B1C1A038B1050CF0ADC19B01290F311D5F
:10160000121613060CF0A6C1603471050CF0A2C1CD
:10161000C114D10409F49EC1362F3770FB0177FD48
:10162000379623E0F595E7952A95E1F72E2F77FF7A
:1016300004C0332311F02FEF2E0FB7FF05C066272C
:1016400077276A1B7B0B02C060E070E040385105D1
:1016500024F050E85A1B952E01C0912E961AA22E06
:10166000022E000CBB082F3F1CF48A2D809501C070
:1016700080E041E0592F577009F440E09695969527
:101680009695940FA90EB11C49E0A416B10414F06C
:1016900098E0921B981B280F40E82403A00DB11D71
:1016A0001124A60FB71F819F600D711D11243601F3
:1016B000660E771E41E050E06A01032E02C0CC0C9A
:1016C000DD1C0A94E2F7033009F400C1A0F40130F4
:1016D00009F4B1C0023009F03DC18FEF8C9DB0011B
:1016E0008D9D700D1124609570957C836B838C802B
:1016F000492F420F29C00A3F31F00B3F09F02AC1A0
:10170000492F420F84C0492F420F4FC0F301E00F11
:10171000F11FE491EC9D5001ED9DB00C1124BA82B3
:10172000A98227FD05C0FC0150815623A52AA0826D
:10173000311113C00F5F1F4F0196091538F32F5F4A
:101740006E0C7F1CA058BF4F241709F403C1CD01B4
:10175000825A9E4F00E010E0F0CF27305CF7FC018A
:10176000E058FF4F50815821BA805B295083E2CF67
:10177000F301E60FF71FE491EC9D8001ED9D100D44
:1017800011241A83098327FD04C0FC015081052B15
:101790000083311113C06F5F7F4F0196691540F3CD
:1017A0002F5F6E0C7F1CA058BF4F241709F4D2C0C6
:1017B000CD01825A9E4F60E070E0F0CF27305CF799
:1017C000FC01E058FF4F10815A81512B5083E3CF29
:1017D000F301E00FF11FE491EC9DC001ED9D900D30
:1017E00011249A83898327FD05C08095FB01908190
:1017F00089238083311114C00F5F1F4F6F5F7F4FAC
:10180000091530F32F5F6E0C7F1CA058BF4F2417B3
:1018100009F4A0C0BD01625A7E4F00E010E0F0CF95
:10182000273054F7FB01E058FF4F8A818095908163
:1018300089238083E1CF892E820EA301CB018619F3
:101840009709281509F486C0BD01625A7E4F5B01D5
:1018500000E010E00915A0F5F801E80FF91FE40F0A
:10186000F51FE491EC9DB001ED9D700D1124609584
:1018700070957C836B83FA01E00FF11FE491EC9D7E
:101880003001ED9D700C11247A82698227FD05C01C
:10189000F50170816723662A6082332359F027306F
:1018A0004CF4F501E058FF4F70816C8167237A8119
:1018B000672B60830F5F1F4FFFEFAF1ABF0ACACFBE
:1018C0002F5F4E0D5F1DA058BF4FBBCFA92CB12C71
:1018D000F301E60FF71FA25ABE4F60E870E06A19E5
:1018E0007B09EA18FB088701000F111F592D492FAA
:1018F000792CE32ECF93DF93ED01EF96EF962296AE
:101900008590A590EE2059F08C9C4001AC9C500134
:1019100027302CF4F880B094FB20F928F992222388
:101920003AF0FC90A094FA20F828FD920C94990CBF
:1019300011965A9529F74A9551F0572D2395112460
:10194000E00FF11DA60FB11DC60FD11DD9CFDF913C
:10195000CF9111240F900F900F900F90DF91CF91A6
:101960001F910F91FF90EF90DF90CF90BF90AF90BD
:101970009F908F907F906F9008959C01285E3F4FBD
:101980002839310570F5FC0197FF02C0E0E0F0E076
:1019900049968138910514F080E890E08E1BAB01E8
:1019A0004770552721E030E001C0220F4A95EAF741
:1019B000209577FF02C0695F7F4F93E0759567952B
:1019C0009A95E1F77695762F662777956795E60FD6
:1019D000F71FE25AFE4F815020F09081922391939D
:1019E000FACF08950F93242F03E0AB0168E370E072
:1019F0000E94AB0A0F9108952091A607282329F48D
:101A00009091A507982381E009F480E008958F92D2
:101A10009F92AF92BF92CF92DF92EF92FF920F937D
:101A20001F93CF93DF93EC016B015A0149010E9490
:101A3000AE089701A801B401C5010E94AE08960145
:101A4000AE01B701C801DF91CF911F910F91FF90B7
:101A5000EF90DF90CF90BF90AF909F908F900C94BD
:101A6000AE0865E070E080E090E00C943612FC0176
:101A700080915D01811103C08FEF9FEF08959FB7A3
:101A8000F89482E08093E9002091F20030E0121691
:101A9000130614F421E030E02115310559F028989F
:101AA00084E680935C018091F10080838091F20054
:101AB000882319F09FBFC90108958BE68093E80041
:101AC000F9CF2FB7F89483E08093E9009091E80074
:101AD000892F807295FF04C09091F20080E4891BE9
:101AE0002FBF08958F929F92AF92BF92CF92DF92B5
:101AF000EF92FF920F931F93CF93DF935C016B01E3
:101B00007A0180911B01882309F45BC080915D01FB
:101B1000882309F456C080915B0180FF05C0809145
:101B2000E00082608093E000E70110E00AEF83E0CC
:101B3000882E9AE3992E2097D9F10E94610D811188
:101B40000AC0015009F43DC061E070E080E090E01F
:101B50000E943612F0CF282F30E0C217D3070CF4C2
:101B60008C2F4FB7F8948092E9009091E80095FF90
:101B70001DC0282F30E0C21BD30BF601982F9150C7
:101B800020F081918093F100FACFC20ED31E112371
:101B900019F09092E80009C08091E80085FD06C028
:101BA0009092E80011E0209709F010E04FBFC3CFFA
:101BB0001111C3CF5D9884E680935A011E141F044F
:101BC00044F081E090E0F5019383828380E090E02F
:101BD00001C0C701DF91CF911F910F91FF90EF904E
:101BE000DF90CF90BF90AF909F908F90089580919D
:101BF000AF0781110DC082E08093AB0784E0809332
:101C0000AC071092AE071092AD0781E08093AF074A
:101C10008BEA97E00895CF93DF931F92CDB7DEB79D
:101C20006983DC01ED91FC910280F381E02D41E0BC
:101C300050E0BE016F5F7F4F09950F90DF91CF910C
:101C4000089583E08093E9008091F200882319F0E1
:101C50008AE38093E8000895FC018485958597FDCB
:101C60000BC09FB7F89482E08093E9008091F20066
:101C70009FBF90E0019608959FB7F89482E080930B
:101C8000E9008091F2009FBF90E00895409116080E
:101C900050911708209114083091150842175307E6
:101CA000B4F49091E8009570E1F39091E80092FD12
:101CB00019C08093F1008091160890911708019641
:101CC0008F739927892B19F48EEF8093E800809108
:101CD000160890911708019690931708809316089C
:101CE00081E0089580E00895DF92EF92FF920F93D4
:101CF0001F93CF93DF93D82E8A017B01E40EF51E4C
:101D0000EB01CE15DF0571F0D7FE03C0FE01849113
:101D100001C088810E94460E21968111F2CF8FEF7B
:101D20009FEF01C0C801DF91CF911F910F91FF90EC
:101D3000EF90DF900895615030F02091F100FC01A8
:101D400020830196F8CF289884E680935C0108955B
:101D50000E94610D90E00895CF93DF931F92CDB75D
:101D6000DEB7FC018485958597FD05C02FEF3FEF19
:101D7000358724870BC0CE0101960E94370D01974D
:101D800019F4898190E002C08FEF9FEF0F90DF91EF
:101D9000CF9108950F931F93CF93DF931F92CDB7E9
:101DA000DEB78C01FC018485958597FF0EC0CE01BE
:101DB00001960E94370D019719F4298130E002C085
:101DC0002FEF3FEFF80135872487F801848595854B
:101DD0000F90DF91CF911F910F9108950F931F9353
:101DE000CF93DF931F92CDB7DEB782E0898342E4C1
:101DF00050E069E870E180E80E94740E0E94F70DDF
:101E0000DC0112960D911C9113970115110569F0D3
:101E1000D801ED91FC910280F381E02DBE016F5F4E
:101E20007F4FC801099597FF07C089810F90DF9107
:101E3000CF911F910F910895F80100851185E5CF8D
:101E40001F920F920FB60F9211248F939F93809140
:101E5000E1009091E100937F9093E10083FF0FC038
:101E60001092E90091E09093EB001092EC0092E365
:101E70009093ED0010925D0198E09093F00082FF46
:101E800020C093E09093E9009091F200992319F01B
:101E90009AE39093E80090915A01992339F0909138
:101EA0005A01915090935A01992389F190915C01C4
:101EB000992339F090915C01915090935C019923A2
:101EC00041F184FF10C08091E2008E7E816080939A
:101ED000E2008091E1008F7E8093E10080915B01C0
:101EE0008E7E806111C080FF16C08091E2008E7EE0
:101EF00080618093E2008091E1008E7E8093E1001A
:101F000080915B018E7E816080935B0104C05D9A4D
:101F1000CDCF289AD6CF9F918F910F900FBE0F9063
:101F20001F9018951F920F920FB60F921124CF9207
:101F3000DF92EF92FF920F931F932F933F934F9354
:101F40005F936F937F938F939F93AF93BF93EF9321
:101F5000FF93CF93DF93CDB7DEB76C97DEBFCDBFD6
:101F60001092E9008091E80083FFEDC168E0CE01A6
:101F700045960E949B0E82EF8093E8008D8987FF33
:101F800005C09091E80090FFFCCF03C09EEF9093B6
:101F9000E800982F907609F0C6C09E892F89188D89
:101FA00091110CC0803829F4809113088093F100BE
:101FB00002C01092F1001092F10048C1422F50E08F
:101FC000512B913051F4811141C14130510509F03B
:101FD0003DC1809113088D7F0BC0933061F4811156
:101FE00035C14130510509F031C18091130882603B
:101FF000809313082BC1953041F48091E80080FF55
:10200000FCCF20682093E30021C1963009F05FC027
:10201000EB8CFC8C1092E9001092170810921608B5
:10202000123091F510921508109214080E94EE0ECD
:1020300099E0BE016F5F7F4FDB01E92F1D92EA95AA
:10204000E9F799831A8391E09E8390EA98879AEF43
:1020500099872091160830911708275F3F4F3C83DE
:102060002B838D831092E9001092170810921608A6
:10207000F0921508E092140849E050E080E00E94D8
:10208000740E0E94EE0EE2C0F0921508E092140861
:102090000E94F70DDC011296ED90FC901397E1146D
:1020A000F10409F4C0C0D701ED91FC910480F581E1
:1020B000E02DBE016B5E7F4FC7010995009719F0B7
:1020C0000CF0C4C0C7C0F701E084F184E8CF9730BA
:1020D00009F4C0C0983021F481E08093F100B6C0CB
:1020E000993009F0B3C0837009F0B4C0E4E4F1E0C2
:1020F00081E021E036E39081992361F08093E9004B
:102100002093EB0091919093EC003093ED008F5F62
:10211000873089F78EE78093EA001092EA008F8972
:1021200080935D0193C08B8D9C8D1092E90010927D
:102130001708109216089093150880931408898D3B
:10214000811156C08E899D89913A59F4813209F0E6
:1021500081C047E050E064E171E080E00E94740ECD
:1021600075C0913209F076C0833289F4888D90E091
:10217000982F88272F89822BA0E0B0E080931C0144
:1021800090931D01A0931E01B0931F015FC0803288
:1021900069F48091E80082FFFCCF67E084E191E080
:1021A0000E949B0E8BEF8093E80006C0823209F0FC
:1021B0004DC08F8980931B0180911208882319F0EC
:1021C000EEEFFAE002C0E0E0F8E0809114019091B7
:1021D0001501A0911601B0911701803B9440A10513
:1021E000B10509F07BC080911B0180FF93C076C0D0
:1021F0000E94F70DDC0112960D911C9113970115A9
:10220000110541F1D801ED91FC910190F081E02D93
:10221000BE016B5E7F4FC8010995811117C0F8019F
:1022200000851185ECCF113009F44EC0133091F4C4
:102230008F89882309F445C0823081F440E860E149
:102240008DEE90E10E943522882321F08EEF80935D
:10225000E80079C081E28093EB0075C0813029F4F9
:1022600040E86BE081EE90E1EDCF833099F70E947A
:10227000F70DDC011296ED90FC9013978E010F5F25
:102280001F4F6801E114F10479F0D701ED91FC9141
:102290000680F781E02DB801C7010995080F111DCF
:1022A000F701E084F184EECFD8011C92F601019091
:1022B0000020E9F73197BF016C197D0940E0C601A4
:1022C000C1CF6BEC70E102C06FEC70E1611571057C
:1022D00009F2FB01449150E080E840CF0FB6F8943A
:1022E000A8958091600088618093600010926000E2
:1022F0000FBEA895EE3F2AE0F20739F08091FE0A62
:102300009091FF0A91838083A1CF1092FF0A1092CF
:10231000FE0A9CCFEE3F8AE0F80731F08081918180
:102320009093FF0A8093FE0A87E797E79183808363
:102330009BE088E10FB6F894A895809360000FBEEB
:102340009093600083CF6C960FB6F894DEBF0FBEFB
:10235000CDBFDF91CF91FF91EF91BF91AF919F9151
:102360008F917F916F915F914F913F912F911F912D
:102370000F91FF90EF90DF90CF900F900FBE0F90D6
:102380001F901895CF92DF92EF92FF920F931F93B9
:10239000CF93DF936C017A018B01C0E0D0E0CE15C2
:1023A000DF0589F0D8016D918D01D601ED91FC9189
:1023B0000190F081E02DC6010995892B11F47E0171
:1023C00002C02196ECCFC701DF91CF911F910F91F1
:1023D000FF90EF90DF90CF90089580915801E091A9
:1023E0005601F0915701882349F0CF01029690934E
:1023F000570180935601859194910895CF010296DB
:102400009093570180935601808191810895809126
:10241000590108950895089580E090E008950E947C
:10242000C6263FB7F8948091220890912308A09186
:102430002408B091250826B5A89B05C02F3F19F0A8
:102440000196A11DB11D3FBFBA2FA92F982F882734
:10245000820F911DA11DB11DBC01CD0142E0660F8F
:10246000771F881F991F4A95D1F708958F929F92E1
:10247000AF92BF92CF92DF92EF92FF926B017C01FD
:102480000E9411124B015C01C114D104E104F1045A
:10249000F1F00E941112DC01CB0188199909AA09F7
:1024A000BB09883E9340A105B10570F321E0C21A33
:1024B000D108E108F10888EE880E83E0981EA11C7F
:1024C000B11CC114D104E104F10419F7DDCFFF9070
:1024D000EF90DF90CF90BF90AF909F908F90089536
:1024E0001F920F920FB60F9211242F933F938F9349
:1024F0009F93AF93BF938091500190915101A09110
:102500005201B09153013091210823E0230F2D3760
:1025100020F40196A11DB11D05C026E8230F0296E7
:10252000A11DB11D2093210880935001909351016A
:10253000A0935201B09353018091220890912308F7
:10254000A0912408B09125080196A11DB11D80938A
:10255000220890932308A0932408B0932508BF91E4
:10256000AF919F918F913F912F910F900FBE0F9040
:102570001F901895CF92DF92EF92FF920F931F93C7
:10258000CF93DF930E94ED11811520E8920761F44B
:10259000809171008D7F8093710010929100469818
:1025A000479810921A088BC021E020931A088130B6
:1025B00020E8920751F48091540190915501909335
:1025C0005701809356010E94ED1197FD05C020919F
:1025D0001908222309F43FC02091180821113BC09B
:1025E00021E020931B08EC01DF77209769F481E05C
:1025F00080931C0846983FE9C32E3FE0D32EE12C80
:10260000F12CCAEFD0E014C08E0120E030E060E48D
:1026100072E48FE090E0A90198010E94E422690130
:102620007A0181E0C81AD108E108F10810921C086B
:10263000E0916C05F0916D050995811103C081E071
:1026400080931C0880911B088823B9F180911C0895
:10265000811133C003C010921B08C5CF46992DC00D
:10266000479A0E94ED11009771F09C01DE010E94D3
:102670003823DC01CB0129E0B595A795979587957F
:102680002A95D1F703C08FEF9FEFDC0110929000E5
:102690002AE020939100D0929900C09298008093F4
:1026A0001D0890931E08A0931F08B09320088091E6
:1026B000710082608093710002C04798D2CFDF9191
:1026C000CF911F910F91FF90EF90DF90CF900895E1
:1026D0001F920F920FB60F9211242F933F934F9397
:1026E0005F936F937F938F939F93AF93BF93EF937A
:1026F000FF9380911D0890911E08A0911F08B09132
:102700002008892B8A2B8B2B81F180911C08811149
:102710000BC098B180E4892788B980911B08882371
:1027200019F088B1805888B980911D0890911E08D1
:10273000A0911F08B0912008181619061A061B064A
:10274000B4F480911D0890911E08A0911F08B091CB
:1027500020080197A109B10980931D0890931E08D4
:10276000A0931F08B093200802C00E94BA12FF91E4
:10277000EF91BF91AF919F918F917F916F915F91F9
:102780004F913F912F910F900FBE0F901F90189572
:102790008FB18095807F669B88601C9B84600895C4
:1027A000109259013E983F9808953E9A3F9A81E0D1
:1027B0008093590108951F93CF93DF93DC0120E0AC
:1027C00030E040E050E011E0C1E0D0E026173707EC
:1027D00091F114968C911497811115C014961C9345
:1027E000149712968D919C911397ED91FC911197EE
:1027F000E80FF91FE4911596EC931597019613963F
:102800009C938E93129714969C91149715968C9185
:102810001597892349F0FE01022E02C0EE0FFF1F1B
:102820000A94E2F74E2B5F2B990F14969C93149702
:102830002F5F3F4FCBCFCA01DF91CF911F910895FA
:1028400060387105D0F440345105B8F4EEEFF0E192
:1028500080E1849FD001A0781124A60F4770E40F77
:10286000F11D8491A25ABE4F222319F06C91862B40
:1028700003C080956C9186238C930895CF92DF924C
:10288000EF92FF92CF93DF93EC01188219821A82A4
:102890001B821C821D821E821F82188619861A8640
:1028A0001B861C861E861D86188A1F86198A1A8A10
:1028B000198E1A8E1B8E1C8E1D8E1E8E1F8E18A2B8
:1028C00019A280E090E0A0E0B0E48AA39BA3ACA3AF
:1028D000BDA380E090E0A0E6B0E48EA39FA3A8A7EC
:1028E000B9A78DEC9CECACE4BDE38AA79BA7ACA791
:1028F000BDA783E393E3A3EBBEE38EA79FA7A8AB9B
:10290000B9AB8AE097EDA3EABCE38AAB9BABACAB77
:10291000BDAB80E090E0A0E8BFEB8EAB9FABA8AF73
:10292000B9AF0E94C0222CE2C22EDD24D394E12C48
:10293000F12CA70196010E94E4220E94DA24688308
:1029400079838A839B830E94C022A70196010E94FB
:10295000E4220E94DA246C837D838E839F8384E14A
:102960008B8780E18C8786E0EAE4F1E0DE011D964A
:1029700001900D928A95E1F70E94C02225E030E097
:1029800040E050E00E94E4229B01AC012B5F3F4FEE
:102990004F4F5F4F61E070E080E090E00E94E422E2
:1029A000CA01B9010E94DA242AE037ED43E25CE370
:1029B0000E9448236AAB7BAB8CAB9DABCAA4DBA463
:1029C000ECA4FDA40E94C02220E030E0A901C701D0
:1029D000B6010E9448236AA77BA78CA79DA788E120
:1029E0008887DF91CF91FF90EF90DF90CF9008958F
:1029F0004F925F926F927F928F929F92AF92BF920F
:102A0000CF92DF92EF92FF920F931F93CF93DF93BA
:102A100000D000D000D0CDB7DEB7FC0129833A83C7
:102A20004B835C8329813A81EB80FC80472F83892B
:102A30009489A588B688508D7789DC01A70FB11DD0
:102A40002A173B070CF0B4C0D901A60FB11DBD0178
:102A50008A179B070CF0ACC0D501A50FB11DEA1673
:102A6000FB060CF0A5C06701C40ED11CAC14BD045C
:102A70000CF09EC08F014585568582179307ACF4F4
:102A8000F8018189B901681B7109641B750B6F5FBF
:102A90007F4F072E000C880B990B0E94DA24D80177
:102AA0002D913D914D915C910DC0641B750B072ECE
:102AB000000C880B990B0E94DA24F80120813181E7
:102AC000428153810E9447232B013C01D8011F966C
:102AD0008D919C915097AE14BF04ACF452962C91FA
:102AE000B701621B7109681B790B6F5F7F4F072E5F
:102AF000000C880B990B0E94DA24F801248135819F
:102B00004681578110C0B601681B790B072E000C57
:102B1000880B990B0E94DA24D80114962D913D91CF
:102B20004D915C9117970E9447236B017C0120E037
:102B300030E0A901C301B2010E94F0255301420116
:102B4000181624F0B7FAB094B7F8B09420E030E04B
:102B5000A901C701B6010E94F025A7019601181628
:102B60000CF05058C501B4010E94262487FF10C004
:102B7000A3019201F80160817181828193810E9499
:102B80004823D8016D937D938D939C93139710C028
:102B9000A7019601F80164817581868197810E9461
:102BA0004823D80114966D937D938D939C9317972A
:102BB00026960FB6F894DEBF0FBECDBFDF91CF9142
:102BC0001F910F91FF90EF90DF90CF90BF90AF904B
:102BD0009F908F907F906F905F904F900895CF92CD
:102BE000DF92EF92FF920F931F93CF93DF93EC014D
:102BF0006F857889072E000C880B990B0E94DA24C8
:102C00002C813D814E815F810E9448230E94A22435
:102C10006B017C0109891A898D859E85BC01990FFC
:102C2000880B990B0E94DA24288139814A815B81C3
:102C30000E9448230E94A2247C8B6B8BDE8ACD8A63
:102C40000F8B188FDF91CF911F910F91FF90EF9015
:102C5000DF90CF9008954F925F926F927F928F9204
:102C60009F92AF92BF92CF92DF92EF92FF920F931B
:102C70001F93CF93DF93EC01CE8CDF8CE8A0F9A0FB
:102C800020E030E04AE754E46A8D7B8D8C8D9D8D89
:102C90000E94FD2520E030ED4FE557E40E943024EE
:102CA0004B015C010E942B249B01AC01C701B601C2
:102CB0000E94FD25288139814A815B810E94482339
:102CC0002B013C01688379838A839B83C501B4010E
:102CD0000E946A269B01AC01C701B6010E94FD2536
:102CE0009B01AC016C817D818E819F810E94472375
:102CF0006B017C016C837D838E839F8320E030E0B9
:102D0000A901C301B2010E94262487FF05C01882D1
:102D100019821A821B822EC0AB8400910801109187
:102D20000901B12CB5010B2C000C880B990B0E94EA
:102D3000DA249B01AC01C301B2010E9448232B019C
:102D40003C01B80180E090E00E94D8249B01AC01D6
:102D5000C301B2010E94F025181664F4C8018A1953
:102D60009B09BC0180E090E00E94D82468837983AD
:102D70008A839B8320E030E0A901C701B6010E944D
:102D8000262487FF05C01C821D821E821F822DC043
:102D9000AC8400910A0110910B01B12CB5010B2CF0
:102DA000000C880B990B0E94DA249B01AC01C7012F
:102DB000B6010E9448236B017C01B80180E090E0DD
:102DC0000E94D8249B01AC01C701B6010E94F025E6
:102DD00018165CF4B8016A197B0980E090E00E9443
:102DE000D8246C837D838E839F83DF91CF911F9145
:102DF0000F91FF90EF90DF90CF90BF90AF909F909A
:102E00008F907F906F905F904F900895CF93DF9356
:102E1000CDB7DEB7CA54D1090FB6F894DEBF0FBEE6
:102E2000CDBF789484B5826084BD84B5816084BD53
:102E300085B5826085BD85B5816085BD80916E0058
:102E4000816080936E001092810080918100826089
:102E500080938100809181008160809381008091C6
:102E600080008160809380008091910082608093D7
:102E700091008091910081608093910080919000F9
:102E80008160809390008091C10084608093C10034
:102E90008091C10082608093C1008091C1008160F7
:102EA0008093C1008091C30081608093C3008091B2
:102EB000C00082608093C0008091C20081608093D6
:102EC000C20080917A00846080937A0080917A00B9
:102ED000826080937A0080917A00816080937A008A
:102EE00080917A00806880937A0010925D01109240
:102EF000130810925B018091D70081608093D70006
:102F000080EA8093D80089B5806189BD89B58260E7
:102F100089BD09B400FEFDCF61E070E080E090E083
:102F20000E9436128091D8008F7C80618093D800F7
:102F30008091E000807F8093E0008091E1008E7EB0
:102F40008093E1008DE08093E200559A209AEEEFA5
:102F5000FFE7859194918B3F9C4D19F481E080931C
:102F6000120881EC80937C0085B1806F85B984B1B3
:102F7000877E84B984B1876E84B95E9A5F988AB17E
:102F8000806D8AB9769A6E9881B3806F81BB89987B
:102F900080B38D7080BB80E58CBD81E08DBD0E94CB
:102FA000310D5F9A0E94310D5E985C98E8EFF0E079
:102FB0008DE08E0F94919EBD00000DB407FEFDCFF5
:102FC00031968E13F7CF5C9A81E8809364008091EC
:102FD00065008160809365000E94C813803839F4D1
:102FE0002E9880916400806280936400FFCF82E01D
:102FF00090E00E94CE22882319F00E94D51302C0CF
:103000000E94D0138FB7F894409150015091510114
:1030100060915201709153018FBF8091A807342FA6
:10302000381B832F9091A907992329F03093AA0781
:103030001092A9073EC19091A707391748F48F5FF6
:10304000891708F036C181E083BF889513BE31C16E
:1030500011E01093A9074093A8078091A3079091CE
:10306000A40701969093A4078093A3078091A507D6
:103070008093A6070E94C8138093A5078091100132
:10308000811110C00E94C81386FD0CC01AC1809126
:10309000A3079091A40766E970E00E949826892B07
:1030A00009F020C181E08093100180910C01811111
:1030B0007DC180910E01811117C080E20E94FC0C3D
:1030C000882331F080910D01882371F081500AC06E
:1030D00080E40E94FC0C882339F080910D0183303C
:1030E00018F48F5F80930D0184E00E94FC0C88230C
:1030F00009F457C080910D01813069F58091640019
:103100008E7F8093640080917A00806480937A003F
:1031100080917A0086FDFCCF0091780010917900B3
:103120000E94111220E030E0980111270027600F63
:10313000711F821F931F611571058105910511F0A3
:103140000E94C5228091640081608093640081E0C8
:1031500080930C012BC190910F019330E1F4809189
:103160005901882319F00E94D01302C00E94D51380
:103170006091590182E090E028966FAF28970E94F5
:10318000CE2228966FAD2897681789F082E090E0EC
:103190000E94D6220CC080930F0181E080930E0123
:1031A00006C088E00E94FC0C811110920E018091F3
:1031B0000E01811168C044EB55E060E070E080E0F2
:1031C00090E00E94430980910D0199E1899F802D33
:1031D0001124815FE82EF12C01E02AE047E167E34A
:1031E00070E0C7010E946C0A670191E0C91AD1081A
:1031F00066E370E0C6010E94BD0C06E310E020E02B
:10320000A801B60180EA97E00E9420140F5F1F4FCB
:1032100000341105A1F7E7E1EE0EF11C06E310E022
:1032200020E0A801B70180EA97E00E9420140F5F18
:103230001F4F00341105A1F740E068E875E080E118
:1032400090E00E94F20C40E06CE575E089E290E0CD
:103250000E94F20C40E060E375E082E490E00E949E
:10326000F20C40E062E175E08BE590E00E94F20C28
:103270004091590168EF74E08AE690E00E94F20CF8
:103280000E94330916C080910F01811109C045E7E2
:1032900053E060E070E080E290E00E944309F0CFEC
:1032A000823071F749E752E060E070E080E090E042
:1032B000F4CF80E090E0892B09F4A4CE0E940000B6
:1032C000A1CE6091130165300CF0E1CE6F5F609389
:1032D0001301062E000C770B8091120140E851E09B
:1032E00090E0DBCF80911101811133C0809171009A
:1032F0008D7F80937100109258018EE595E0909338
:103300005701809356019093550180935401E6E153
:10331000F4E0F0935F05E0935E0522E330E0309344
:103320006105209360058DE298E09093630580939A
:10333000620584E690E0909365058093640580E0E3
:1033400090E890936705809366050E94BA121093E7
:10335000110160911301062E000C770B8091120170
:1033600040E851E090E00E94430960911301062E6D
:10337000000C770B675E7F4F8091120190E002E0B6
:1033800020E047E751E080960E94AB0A00E025E08C
:1033900040E86FE270E08EE190E00E946C0A45E048
:1033A00051E06EE270E08EE190E077CF809194057D
:1033B00090919505089709F1CE0101960E943E145F
:1033C000809194059091950588309105B4F49C0105
:1033D0002F5F3F4F3093950520939405FAE3F89FB4
:1033E000D001F99FB00D1124AA56BA4FFE013196B3
:1033F0008AE301900D928A95E1F780900401909004
:103400000501A0900601B0900701C0900001D09086
:103410000101E0900201F0900301A501940160E038
:1034200070E088E493E40E9447230E94A2246BAFDB
:103430007CAF8DAF9EAFA701960160E070E08AE798
:1034400093E40E9447230E94A22423966CAF7DAF91
:103450008EAF9FAF2397A501940160E070E0CB0190
:103460000E9447230E94A22427966CAF7DAF8EAFA7
:103470009FAF2797A701960160E070E088EC92E487
:103480000E9447230E94A2242B013C01A501940124
:1034900060E070E08AE793E40E9447230E94A22440
:1034A0004B015C01A701960160E070E0CB010E9436
:1034B00047230E94A224DC01CB01EBACFCAC21969B
:1034C0000EAD1FAD219725962EAD3FAD2597A201DC
:1034D000B4010E94070D8090040190900501A09016
:1034E0000601B0900701C0900001D0900101E0906A
:1034F0000201F0900301A501940160E070E08FEA01
:1035000093E40E9447230E94A2246BAF7CAF8DAF4F
:103510009EAFA701960160E070E08AEF93E40E94FD
:1035200047230E94A22423966CAF7DAF8EAF9FAF3E
:103530002397A501940160E070E0CB010E9447232E
:103540000E94A22427966CAF7DAF8EAF9FAF2797C6
:10355000A701960160E070E088EC93E40E944723A5
:103560000E94A2242B013C01A501940160E070E0BF
:1035700088E493E40E9447230E94A2244B015C014B
:10358000A701960160E070E08AE793E40E94472378
:103590000E94A224DC01CB01EBACFCAC21960EAD69
:1035A0001FAD219725962EAD3FAD2597A201B40101
:1035B0000E94070D8090040190900501A0900601E3
:1035C000B0900701C0900001D0900101E09002018D
:1035D000F0900301A501940160E070E08AE793E4B4
:1035E0000E9447230E94A2246BAF7CAF8DAF9EAF99
:1035F000A701960160E070E88BE394E40E94472302
:103600000E94A22423966CAF7DAF8EAF9FAF23970D
:10361000A501940160E070E0CB010E9447230E9465
:10362000A22427966CAF7DAF8EAF9FAF2797A701DF
:10363000960160E070E889E094E40E9447230E94CC
:10364000A2242B013C01A501940160E070E08FEA07
:1036500093E40E9447230E94A2244B015C01A7012E
:10366000960160E070E08AEF93E40E9447230E9495
:10367000A224DC01CB01EBACFCAC21960EAD1FAD5E
:10368000219725962EAD3FAD2597A201B4010E944A
:10369000070D8EE695E00E94EF152091940730917A
:1036A0009507409196075091970760918407709114
:1036B000850780918607909187070E94F02518164C
:1036C000ACF50E94C81385FF13C020918C07309180
:1036D0008D0740918E0750918F0760918007709100
:1036E000810780918207909183070E94482316C02A
:1036F0000E94C81386FF1AC020918C0730918D0755
:1037000040918E0750918F076091800770918107DB
:1037100080918207909183070E94472360938007DE
:103720007093810780938207909383070E94C81348
:1037300082FF55C0C0908407D0908507E09086072F
:10374000F090870720E030E0A901C701B6010E9490
:10375000F02518164CF42091980730919907409164
:103760009A0750919B0710C020E030E040E850E4F9
:10377000609198077091990780919A0790919B07A3
:103780000E94FD259B01AC01C701B6010E944823A0
:1037900060938407709385078093860790938707CB
:1037A000C0908807D0908907E0908A07F0908B0737
:1037B000A701960160918407709185078091860723
:1037C000909187070E94F0251816ECF5C0928407A7
:1037D000D0928507E0928607F092870734C00E9456
:1037E000C81383FF30C0C0908407D0908507E09055
:1037F0008607F090870720919C0730919D074091A4
:103800009E0750919F07C701B6010E94F025181628
:10381000D4F4609198077091990780919A079091DC
:103820009B079B01AC010E9448239B01AC01C7018F
:10383000B6010E94472360938407709385078093A5
:1038400086079093870786E697E00E942B1686E608
:1038500097E00E94EF156091800770918107809139
:103860008207909183070E94A224CB0168E671E051
:103870000E94AC26BC01990F880B990B0E94DA2498
:103880006B017C0120E030E0A9010E94262487FF23
:103890000AC020E030E044EB53E4C701B6010E94C7
:1038A00048236B017C01C0928007D0928107E0928F
:1038B0008207F092830720E030E044EB53E4C70135
:1038C000B6010E9430246B017C0160916E0770E0AC
:1038D00080E090E00E94DA249B01AC01C701B601B0
:1038E0000E94FD250E94A92460936F0780917207B2
:1038F00039EFF32EF80E1091710718502091040142
:1039000030910501409106015091070160916A07CD
:1039100070916B0780916C0790916D070E9447230F
:1039200020E030E040E850E40E9448230E94A224B6
:103930004B015C0120910001309101014091020195
:103940005091030160916607709167078091680745
:10395000909169070E94472320E030E040E850E45E
:103960000E9448230E94A224DC01CB0100E02F2DFD
:10397000412FB4010E946C0A20910401309105018D
:10398000409106015091070160916A0770916B07A1
:1039900080916C0790916D070E9447230E94A2249A
:1039A0006B017C01209100013091010140910201E5
:1039B00050910301609166077091670780916807D5
:1039C000909169070E9447230E94A224DC01CB0149
:1039D0000AEF20916F0747EC5CE0B6010E94AB0A4A
:1039E0002091810530918205409183055091840595
:1039F000609185057091860586E697E00E94F8142F
:103A00001BAE8BAD282E312C80919405909195059D
:103A1000281639060CF079C22AE3229D8001239DE5
:103A2000100D1124C8018A569A4F21969FAF8EAF70
:103A300021970E942B1621968EAD9FAD21970E9453
:103A4000EF15F801EC56FA4F648D758D868D978DC4
:103A50000E94A224CB0168E671E00E94AC26BC0162
:103A6000990F880B990B0E94DA246B017C0120E0EE
:103A700030E0A9010E94262487FF0AC020E030E040
:103A800044EB53E4C701B6010E9448236B017C015B
:103A9000EAE3E29DC001E39D900D11248C010C56D8
:103AA0001A4FF801C48ED58EE68EF78E20E030E0F6
:103AB00044EB53E4C701B6010E9430242B013C01C2
:103AC000F801628570E080E090E00E94DA249B01BA
:103AD000AC01C301B2010E94FD250E94A924F80196
:103AE000638740A051A062A073A020E030E0A9014C
:103AF000C301B2010E94F025181634F4F80124A97C
:103B000035A946A957A90DC020E030E040E850E4AF
:103B1000F80164A975A986A997A90E94FD259B01B2
:103B2000AC01C301B2010E944823F80160A371A354
:103B300082A393A3FAE3F29DC001F39D900D11249B
:103B40008C010C561A4FF80144A055A066A077A02E
:103B5000A301920160A171A182A193A10E94F0250D
:103B600018162CF4F80140A251A262A273A2809010
:103B70006A0790906B07A0906C07B0906D0740901B
:103B80006607509067076090680770906907FAE3CE
:103B9000F29DC001F39D900D11248C010C561A4F1B
:103BA000F80120A931A942A953A960A171A182A15C
:103BB00093A10E94F02518160CF093C0F8016281C1
:103BC0007381848195810E94A22427966CAF7DAF7A
:103BD0008EAF9FAF2797C301B2010E94A224259602
:103BE0002EAD3FAD2597261B370BB901072E000CD4
:103BF000880B990B0E94DA249B01AC01C501B4012A
:103C000028962FAF289729963FAF29972A964FAF2E
:103C10002A972B965FAF2B970E94A2244B015C0141
:103C2000F80166817781808591850E94A224F40144
:103C3000E61BF70BBF01072E000C880B990B0E94A7
:103C4000DA2428962FAD289729963FAD29972A96F2
:103C50004FAD2A972B965FAD2B970E94C72320E08C
:103C600030ED4FE557E40E94FD2520E030E04AE7C3
:103C700054E40E94302420E030E044E353E40E9406
:103C800048230E94A2244B015C01C701B6010E9497
:103C9000A224C401861B970B68E671E00E94AC2643
:103CA000845E9D4F68E671E00E94AC26BC01645BB7
:103CB0007109072E000C880B990B0E94DA24F80179
:103CC00024A535A546A557A50E94FD259B01AC015D
:103CD000C701B6010E944823F801648F758F868F53
:103CE000978FFAE3F29DC001F39D900D11249C0182
:103CF0002C563A4F7901F901868599EFC92EC80EE5
:103D0000858528EFD22ED80E20910401309105012F
:103D100040910601509107016681778180859185E8
:103D20000E94472320E030E040E850E40E9448230E
:103D30000E94A2244B015C012091000130910101FD
:103D40004091020150910301F701628173818481E6
:103D500095810E94472320E030E040E850E40E9433
:103D600048230E94A224DC01CB0100E02C2D4D2D24
:103D7000B4010E946C0A2091040130910501409128
:103D8000060150910701F701668177818085918551
:103D90000E9447230E94A2244B015C012091000154
:103DA000309101014091020150910301F7016281BC
:103DB0007381848195810E9447230E94A224DC01A3
:103DC000CB010AEFF701238545E059E0B4010E94D9
:103DD000AB0A8091A3079091A40765E070E00E9470
:103DE0009826892B09F058C02091040130910501D3
:103DF0004091060150910701F70166817781808526
:103E000091850E9447234B015C01F7016685669509
:103E100070E080E090E00E94DA249B01AC01C501D3
:103E2000B4010E94482320E030E040EE50E40E94BC
:103E300047230E94A2244B015C0120910001309194
:103E400001014091020150910301F70162817381E8
:103E5000848195810E9447232B013C01F7016585F0
:103E6000669570E080E090E00E94DA249B01AC014E
:103E7000C301B2010E94482320E030E040EA50E450
:103E80000E9447230E94A224DC01CB0101E024E030
:103E90004AE0B4010E946C0A2091790730917A07B8
:103EA00040917B0750917C0760917D0770917E0760
:103EB00021968EAD9FAD21970E94F81400E0802FCF
:103EC00090E0209194053091950582179307CCF4EA
:103ED000FBAD0F17A1F02AE3289FF001299FF00DF9
:103EE0001124EA56FA4F238934894589568967890E
:103EF000708D21968EAD9FAD21970E94F8140F5FB3
:103F0000DECF3BAD3F5F3BAF7CCD609172076695E6
:103F100070E080E090E00E94DA2420916A073091FE
:103F20006B0740916C0750916D070E9448234B012D
:103F30005C0160917107669570E080E090E00E94FE
:103F4000DA24209166073091670740916807509105
:103F500069070E9448236B017C014090000150904A
:103F60000101609002017090030120E030E040E028
:103F700052E4C301B2010E944823A70196010E94A6
:103F8000F02518163CF420E030E040E052E4C70190
:103F9000B60120C020E030E040E053E4C301B201AC
:103FA0000E94482320E030E040E052E40E94472392
:103FB000A70196010E94262487FF16C020E030E06A
:103FC00040E052E4C701B6010E94482320E030E0FF
:103FD00040E053E40E944723609300017093010185
:103FE00080930201909303014090000150900101E1
:103FF000609002017090030120E030E0A901C3014C
:10400000B2010E94262487FF09C01092000110927D
:10401000010110920201109203012AC0E0900801F0
:10402000F090090120E030E040E053E4C301B20128
:104030000E9448232B013C01B70180E090E00E94E0
:10404000D8249B01AC01C301B2010E94F0251816CF
:104050007CF4B7016058710980E090E00E94D82498
:10406000609300017093010180930201909303011A
:10407000C0900401D0900501E0900601F090070186
:1040800020E030E040EC51E4C701B6010E94482333
:10409000A50194010E94F02518163CF420E030E0C0
:1040A00040EC51E4C501B40120C020E030E040E81C
:1040B00052E4C701B6010E94482320E030E040EC02
:1040C00051E40E944723A50194010E94262487FF02
:1040D00016C020E030E040EC51E4C501B4010E947C
:1040E000482320E030E040E852E40E9447236093F8
:1040F0000401709305018093060190930701C0901D
:104100000401D0900501E0900601F090070120E045
:1041100030E0A901C701B6010E94262487FF09C02B
:1041200010920401109205011092060110920701ED
:10413000A7C800910A0110910B0120E030E040E88F
:1041400052E4C701B6010E9448236B017C01B8010B
:1041500080E090E00E94D8249B01AC01C701B60129
:104160000E94F02518160CF08BC8B8016054710934
:1041700080E090E00E94D8246093040170930501D0
:1041800080930601909307017BC8CF93DF93109231
:10419000BA071092B90788EE93E0A0E0B0E08093F0
:1041A000BB079093BC07A093BD07B093BE078EE2F8
:1041B00091E09093B8078093B7078FEF9FEF9093AC
:1041C000C4078093C30781E491E09093A107809393
:1041D000A0071092A5071092A607C0E1C093A707F9
:1041E0001092A4071092A3071092A90787E092E10A
:1041F00090936D0580936C0580E090E890936B053B
:1042000080936A0546983E9A47983F9A10926607AF
:1042100010926707109268071092690710926A0758
:1042200010926B0710926C0710926D0710926E0738
:1042300010926F0710927007109271071092720718
:1042400010927407109273071092760710927507F8
:10425000109277071092780710927F0710928007CC
:1042600010928107109282071092830710928407A0
:1042700010928507109286071092870780E090E0E1
:10428000A0E0B0E48093880790938907A0938A0701
:10429000B0938B0780E090E0A0E6B0E480938C07B9
:1042A00090938D07A0938E07B0938F078DEC9CECB5
:1042B000ACE4BDE38093900790939107A09392079D
:1042C000B093930783E393E3A3EBBEE38093940758
:1042D00090939507A0939607B09397078AE097ED80
:1042E000A3EABCE38093980790939907A0939A0759
:1042F000B0939B0780E090E0A0E8BFEB80939C0721
:1043000090939D07A0939E07B0939F070E94C022A1
:1043100028E631E040E050E00E94E4220E94DA24E6
:10432000609380077093810780938207909383073F
:1043300080E090E0A0EAB1E480936607909367077D
:10434000A0936807B093690780936A0790936B07FF
:10435000A0936C07B0936D0784E180937107C093BD
:10436000720786E0E4E2F1E0A3E7B7E001900D9286
:104370008A95E1F788E180936E0710929505109277
:104380009405C0E0D0E0CE018A569A4F0E943E14B8
:10439000EA96C03D81E0D807B1F710920F0810925D
:1043A00010081092110880E090E0A0EFB1E4809333
:1043B000070890930808A0930908B0930A0880930F
:1043C0000B0890930C08A0930D08B0930E08109260
:1043D0007605109277051092780510928705109255
:1043E00088051092890510928A0510928B0510920B
:1043F0008C0510928D0510928E0510928F0580E02D
:1044000090E0A0E0B0E48093900590939105A09394
:104410009205B093930580E090E0A0EAB2E4809327
:104420006E0590936F05A0937005B093710580E0C1
:1044300090E0A0E2B2E48093720590937305A0939C
:104440007405B093750584E18093790580E18093CC
:104450007A0586E0E4E2F1E0ABE7B5E001900D9289
:104460008A95E1F7DF91CF910895CF92DF92EF9295
:10447000FF920F931F93CF93DF931F92CDB7DEB7B9
:10448000182F062FE42E862F880F8E5F99830E94A7
:10449000460E83E00E94460EF12EC12E9981D92E40
:1044A0008C2D8F19801798F4F601E7FE02C08491D5
:1044B00001C080810E94460E182F80E00E94460EA7
:1044C0008123FFEFCF1ADF0A8111EACF01C081E01B
:1044D0000F90DF91CF911F910F91FF90EF90DF90A0
:1044E000CF9008958F929F92AF92BF92CF92DF921A
:1044F000EF92FF92CF93DF93EC01688179818A81FB
:104500009B81611571058105910521F464E279EDC6
:104510008BE597E02DE133EF41E050E00E94E4228B
:1045200049015A019B01AC01A7EAB1E40E940323AF
:104530006B017C01ACEEB4EFA50194010E94112344
:10454000DC01CB018C0D9D1DAE1DBF1DB7FF03C04F
:104550000197A109B04888839983AA83BB83BC01D2
:10456000CD019F77DF91CF91FF90EF90DF90CF90BB
:10457000BF90AF909F908F9008950E9472220895EF
:1045800080E291E00E94722208956093200170936E
:10459000210180932201909323010895F999FECF80
:1045A00092BD81BDF89A992780B50895262FF99973
:1045B000FECF1FBA92BD81BD20BD0FB6F894FA9A06
:1045C000F99A0FBE01960895052E97FB1EF40094EC
:1045D0000E94FB2257FD07D00E94162307FC03D040
:1045E0004EF40C94FB2250954095309521953F4F09
:1045F0004F4F5F4F089590958095709561957F4FCF
:104600008F4F9F4F08950E943823A59F900DB49F10
:10461000900DA49F800D911D11240895B7FF0C9457
:1046200003230E940323821B930B0895A1E21A2EF9
:10463000AA1BBB1BFD010DC0AA1FBB1FEE1FFF1F46
:10464000A217B307E407F50720F0A21BB30BE40B96
:10465000F50B661F771F881F991F1A9469F76095DD
:104660007095809590959B01AC01BD01CF01089597
:10467000A29FB001B39FC001A39F700D811D1124A3
:10468000911DB29F700D811D1124911D08955058E8
:10469000BB27AA270E945F230C94A2250E946925AC
:1046A00038F00E94702520F039F49F3F19F426F469
:1046B0000C943F250EF4E095E7FB0C943925E92F87
:1046C0000E94C72558F3BA17620773078407950736
:1046D00020F079F4A6F50C94E9250EF4E0950B2E64
:1046E000BA2FA02D0B01B90190010C01CA01A00144
:1046F0001124FF27591B99F0593F50F4503E68F19F
:104700001A16F040A22F232F342F4427585FF3CFDF
:10471000469537952795A795F0405395C9F77EF4B0
:104720001F16BA0B620B730B840BBAF09150A1F0F9
:10473000FF0FBB1F661F771F881FC2F70EC0BA0F7F
:10474000621F731F841F48F4879577956795B79507
:10475000F7959E3F08F0B0CF9395880F08F0992702
:10476000EE0F9795879508950E94692560F080E87F
:1047700091E009F49EEF0E94702528F040E851E096
:1047800071F45EEF0CC00C943F250C94E925E92FE1
:10479000E0780E94C72540F3092E052AB1F32617B9
:1047A00037074807590738F00E2E07F8E02569F05B
:1047B000E025E0640AC0EF6307F8009407FADB0124
:1047C000B9019D01DC01CA01AD01EF930E944724AC
:1047D0000E94A2250E94F7235F91552339F02BED0B
:1047E0003FE049E450FD49EC0C9448230895DF93E1
:1047F000DD27B92FBF7740E85FE316161706480795
:104800005B0718F4D92F0E94F5259F938F937F9310
:104810006F930E947226ECEAF0E00E9442250E940B
:10482000A2252F913F914F915F910E941026DD2389
:1048300051F09058A2EA2AED3FE049EC5FE3D078CE
:104840005D270E945F23DF910C94A2250E9415250D
:1048500008F481E008950E947925E3950C94B3252E
:104860000E9444240C94A2250E94702558F00E94B6
:10487000692540F029F45F3F29F00C943925511146
:104880000C94EA250C943F250E94C72568F39923D0
:10489000B1F3552391F3951B550BBB27AA2762173C
:1048A0007307840738F09F5F5F4F220F331F441F49
:1048B000AA1FA9F335D00E2E3AF0E0E832D091507D
:1048C0005040E695001CCAF72BD0FE2F29D0660F6A
:1048D000771F881FBB1F261737074807AB07B0E8AD
:1048E00009F0BB0B802DBF01FF2793585F4F3AF0B3
:1048F0009E3F510578F00C9439250C94EA255F3FD2
:10490000E4F3983ED4F3869577956795B795F79538
:104910009F5FC9F7880F911D9695879597F9089520
:10492000E1E0660F771F881FBB1F621773078407BC
:10493000BA0720F0621B730B840BBA0BEE1F88F7CB
:10494000E09508950E94A9246894B1110C94EA2579
:1049500008950E94CF2588F09F5798F0B92F992786
:10496000B751B0F0E1F0660F771F881F991F1AF05A
:10497000BA95C9F714C0B13091F00E94E925B1E0B1
:1049800008950C94E925672F782F8827B85F39F0B0
:10499000B93FCCF3869577956795B395D9F73EF4F3
:1049A00090958095709561957F4F8F4F9F4F08959B
:1049B000E89409C097FB3EF49095809570956195B9
:1049C0007F4F8F4F9F4F9923A9F0F92F96E9BB276F
:1049D0009395F695879577956795B795F111F8CFEB
:1049E000FAF4BB0F11F460FF1BC06F5F7F4F8F4F56
:1049F0009F4F16C0882311F096E911C0772321F04C
:104A00009EE8872F762F05C0662371F096E8862FE3
:104A100070E060E02AF09A95660F771F881FDAF73A
:104A2000880F9695879597F90895990F0008550F67
:104A3000AA0BE0E8FEEF16161706E807F907C0F024
:104A400012161306E407F50798F0621B730B840B2C
:104A5000950B39F40A2661F0232B242B252B21F406
:104A600008950A2609F4A140A6958FEF811D811DA6
:104A7000089597F99F6780E870E060E008959FEFE0
:104A800080EC0895DF93CF931F930F93FF92EF92E3
:104A9000DF927B018C01689406C0DA2EEF010E9440
:104AA0001026FE01E894A5912591359145915591E7
:104AB000A6F3EF010E945F23FE019701A801DA949B
:104AC00069F7DF90EF90FF900F911F91CF91DF91E9
:104AD000089500240A941616170618060906089564
:104AE00000240A94121613061406050608950C9461
:104AF0003F250E94CF25D8F3E894E0E0BB279F57DD
:104B0000F0F02AED3FE049EC06C0EE0FBB0F661F48
:104B1000771F881F28F0B23A62077307840728F0CE
:104B2000B25A620B730B840BE3959A9572F7803837
:104B300030F49A95BB0F661F771F881FD2F79048F5
:104B40000C947826092E0394000C11F4882352F05B
:104B5000BB0F40F4BF2B11F460FF04C06F5F7F4FA9
:104B60008F4F9F4F0895EF93E0FF07C0A2EA2AED11
:104B70003FE049EC5FEB0E945F230E94A2250F906B
:104B8000039401FC9058E9EDF0E00C94842657FD65
:104B90009058440F551F59F05F3F71F04795880FAB
:104BA00097FB991F61F09F3F79F087950895121642
:104BB00013061406551FF2CF4695F1DF08C01616EE
:104BC00017061806991FF1CF86957105610508949F
:104BD0000895E894BB2766277727CB0197F90895B6
:104BE0000E94152508F48FEF08959B01AC0160E049
:104BF00070E080E89FE30C9430240E9410260C940F
:104C0000A2250E94692538F00E94702520F0952386
:104C100011F00C9439250C943F2511240C94EA25AD
:104C20000E94C72570F3959FC1F3950F50E0551F63
:104C3000629FF001729FBB27F00DB11D639FAA27F1
:104C4000F00DB11DAA1F649F6627B00DA11D661F40
:104C5000829F2227B00DA11D621F739FB00DA11D61
:104C6000621F839FA00D611D221F749F3327A00D1B
:104C7000611D231F849F600D211D822F762F6A2FB7
:104C800011249F5750409AF0F1F088234AF0EE0F1C
:104C9000FF1FBB1F661F771F881F91505040A9F749
:104CA0009E3F510580F00C9439250C94EA255F3F16
:104CB000E4F3983ED4F3869577956795B795F79585
:104CC000E7959F5FC1F7FE2B880F911D96958795FD
:104CD00097F908959F930E9479250F9007FCEE5F46
:104CE0000C94B3259B01AC010C94FD259F3F31F042
:104CF000915020F4879577956795B795880F911D0A
:104D00009695879597F908959F938F937F936F93C7
:104D1000FF93EF939B01AC010E94FD25EF91FF9162
:104D20000E9442252F913F914F915F910C94FD2558
:104D3000AA1BBB1B51E107C0AA1FBB1FA617B707C1
:104D400010F0A61BB70B881F991F5A95A9F78095DD
:104D50009095BC01CD01089597FB072E16F40094A1
:104D600007D077FD09D00E94982607FC05D03EF4B5
:104D7000909581959F4F0895709561957F4F089507
:104D8000EE0FFF1F0590F491E02D099481E090E073
:0A4D9000F8940C94CB26F894FFCFA2
:104D9A000000000000000000D007E8030001000046
:104DAA0000001DD200E1000000000000FFFFFFFF2D
:104DBA0001000000050004000A0A000000000B0EB2
:104DCA00720DA80E210E2C0EAC0ECA0E1900000090
:104DDA00000A1200C18081000000050004000A0ACE
:2070000055C000006EC000006CC000006AC0000068C0000066C0000064C0000062C0000043
:2070200060C000005EC00000F2C400005AC0000058C0000056C0000054C0000052C00000EE
:2070400050C0000078C000004CC000004AC0000048C0000046C0000044C0000042C00000BE
:2070600040C000003EC000003CC000003AC0000038C0000036C0000034C0000032C0000048
:2070800030C000002EC000002CC000002AC0000028C0000026C0000024C0000022C00000A8
:2070A00020C000001EC000001CC0000011241FBECFEFDAE0DEBFCDBF11E0A0E0B1E0E2E3BC
:2070C000FFE702C005900D92A83AB107D9F711E0A8EAB1E001C01D92AE3BB107E1F78FD30B
:2070E00026C78ECFF89410926F0010928100109285001092840081E085BF15BE47985D9AEB
:20710000289A0C94000008952091B2013091B3012F5F3F4F3093B3012093B201932F37FFA6
:2071200003C08EEF831B982F990F921710F447980895479A08951F920F920FB60F9211246E
:207140002F938F939F93EF93FF9310928500109284008091A8019091A901009741F00197D3
:207160009093A9018093A801892B09F45D9A8091AA019091AB01009741F001979093AB0126
:207180008093AA01892B09F4289AE0E0F0E0859194918F5F9F4F49F08091AC019091AD0151
:2071A00001969093AD018093AC01FF91EF919F918F912F910F900FBE0F901F90189584E0BC
:2071C0008093E9000DC08091E8008B778093E80003C08EB3882351F08091E80082FFF9CFBE
:2071E0008091E80085FFEFCF8091F1000895982F83E08093E9008091E80085FD0DC0809136
:20720000E8008E778093E80003C08EB3882369F08091E80080FFF9CF9093F1005D9884E6CB
:2072200090E09093A9018093A80108954F925F926F927F928F929F92AF92BF92CF92DF921E
:20724000EF92FF920F931F93CF93DF9384E08093E9008091E80082FF57C2289884E690E067
:207260009093AB018093AA01AADF182F853481F48CE49DE19093AD018093AC0107B600FC4B
:20728000FDCFF999FECF81E180935700E89503C0843519F494DF8DE00DC28C34E1F38035F9
:2072A000D1F3843721F484E4A2DF80E003C2813611F489E5FFC18134B1F481DF182F7FDFE3
:2072C00090E0880F991FAA2797FDA095BA2F312F330F20E0442737FD4095542F822B932B68
:2072E000A42BB52BB8C1803711F483E5E3C1833549F4C0E0D1E089917ADF21E0C730D20714
:20730000D1F7D9C1863521F481E371DF80E3D2C1833731F487E86BDF85E969DF8EE1CAC149
:207320008536B9F4E0E0F0E093E085E090935700E89507B600FCFDCF80935700E89507B65D
:2073400000FCFDCFE058FF4FA0E7E030FA0771F7A2CF823739F4E1E0F0E089E08093570024
:207360008491A8C1863439F4E0E0F0E089E08093570084919FC18E3439F4E3E0F0E089E0E5
:2073800080935700849196C1813539F4E2E0F0E089E08093570084918DC1823631F489E521
:2073A00026DF80E024DF80E885C1823419F0873609F0E5C01092AD011092AC0100DF082FE8
:2073C000FEDEF82EFCDE682E8554823008F071C1902F80E0CF2DD0E0C82BD92B10926F00B3
:2073E000173609F04BC081E180935700E895DD24CC24C3943FC0E090AE01F090AF010091CC
:20740000B0011091B101B6E46B16D9F4ED2DF0E0EE29FF29E4918E2FEADEDD2081F082E08D
:2074200090E0A0E0B0E0E80EF91E0A1F1B1FE092AE01F092AF010093B0011093B101DC2470
:2074400018C0D801C701B695A7959795879559D5CEDE82E090E0A0E0B0E0E80EF91E0A1FF2
:207460001B1FE092AE01F092AF010093B0011093B1012197209709F0BECF7DC08090AE01F5
:207480009090AF01A090B001B090B10196E4691609F05DC083E0F40180935700E89507B63E
:2074A00000FCFDCF54C0F6E46F1661F5772031F1E090AE01F090AF010091B0011091B1019E
:2074C0007EDED82ECC24852D90E08C299D29F7010C0140925700E895112482E090E0A0E08B
:2074E000B0E0E80EF91E0A1F1B1FE092AE01F092AF010093B0011093B10102C060DE582E1A
:20750000742423C0E090AE01F090AF010091B0011091B10116950795F794E79450DE682FFA
:20752000C701F7D48091AE019091AF01A091B001B091B1010296A11DB11D8093AE01909349
:20754000AF01A093B001B093B101219704C05524772444244394209709F0A5CF96E46916B6
:2075600041F485E0F40180935700E89507B600FCFDCF8DE03CDE82E080936F009CC0833492
:2075800071F40091AE011091AF0119DE90E021E0F8010C0120935700E89511247CCE8336C8
:2075A00019F5E090AE01F090AF010091B0011091B10105DEF701E16090E021E00C0120938C
:2075C0005700E895112482E090E0A0E0B0E0E80EF91E0A1F1B1FE092AE01F092AF0100936A
:2075E000B0011093B10157CE8D3661F4E091AE01F091AF0185E080935700E89507B600FCF2
:20760000FDCF49CE823551F4E091AE01F091AF0105911491812FEBDD802F4CC0843421F5FE
:20762000E090AE01F090AF010091B0011091B10116950795F794E794C2DD682FC70169D4DE
:207640008091AE019091AF01A091B001B091B1010296A11DB11D8093AE019093AF01A093D8
:20766000B001B093B10117CE843609F5E090AE01F090AF010091B0011091B101D801C70142
:20768000B695A795979587953CD4B1DD82E090E0A0E0B0E0E80EF91E0A1F1B1FE092AE010A
:2076A000F092AF010093B0011093B10104C08B3111F08FE39CDD83E08093E9009091E8002B
:2076C0008091E8008E778093E80095FF04C010C08EB38823C9F08091E80080FFF9CF809193
:2076E000E8008E778093E80003C08EB3882361F08091E80080FFF9CF84E08093E9008091F1
:20770000E8008B778093E800DF91CF911F910F91FF90EF90DF90CF90BF90AF909F908F90AC
:207720007F906F905F904F9008959091B601892F8F77813249F58091B7018032A1F081328A
:2077400019F5913A09F58091E800877F8093E8008DE091E067E070E00BD28091E8008B770B
:207760008093E8000895913279F48091E800877F8093E8008DE091E067E070E05DD2809192
:20778000E8008E778093E800089582E061EC42E0B5D083E061E842E1B1D084E060E842E1EF
:2077A000ADC084B7877F84BF88E10FB6F89480936000109260000FBE20E880E090E00FB63F
:2077C000F89420936100809361000FBE81E085BF92E095BF3F9A209A559AE1E6F0E02083A1
:2077E000108247985D9A289A109289008AEF8093880090936F0083E080938100F0C0409116
:20780000000850910108109201081092000894B714BE88E10FB6F8948093600010926000D5
:207820000FBE292F30E0F901E270F07091FD18C090FF05C0859194918F5F9F4F81F423FFFF
:207840000FC08091090190910A014817590741F0E0E0F0E0859194918F5F9F4F09F042DC64
:20786000A0DF78941092AD011092AC010CC0DEDC36D38091AC019091AD0181549F4110F00D
:207880001092140141DC80911401882381F78091E00081608093E00025DC80E090E0089598
:2078A000FA01923049F0933061F09130F9F485E191E022E130E01EC087E291E02EE330E04D
:2078C00019C0882329F485E691E024E030E012C0813029F489E691E022E230E00BC0823006
:2078E00029F48DE891E028E130E004C080E090E020E030E091838083C90108958093E9004E
:207900008091EB0081608093EB001092ED006093EC004093ED008091EE00881F8827881F62
:2079200008958091B60188238CF403C08EB38823B1F08091E80082FFF9CF8091E8008B772A
:207940008093E80008958EB3882349F08091E80080FFF9CF8091E8008E778093E800089594
:20796000EF92FF920F931F9345D04CD008ED10E0F80180818F77808380818068808380819B
:207980008F7D808319BC1EBA1092B40180EEE82EF12CF70180818B7F8083F8018081816052
:2079A000808380E060E042E0A9DFE1EEF0E080818E7F8083E2EEF0E0808181608083808144
:2079C00088608083F70180818E7F8083F8018081806180831F910F91FF90EF900895E7ED06
:2079E000F0E08081816080838AE482BF81E08093B501B6CFE8EDF0E080818E7F808310921C
:207A0000E20008951092DA001092E10008951F920F920FB60F9211242F933F934F935F93F6
:207A20006F937F938F939F93AF93BF93EF93FF938091DA0080FF1BC08091D80080FF17C0B2
:207A40008091DA008E7F8093DA008091D90080FF0BC080E189BD82E189BD09B400FEFDCF36
:207A600081E08EBB3BD203C019BC1EBA37D28091E10080FF17C08091E20080FF13C0809138
:207A8000E2008E7F8093E2008091E20080618093E2008091D80080628093D80019BC85E049
:207AA0008EBB1CD28091E10084FF2CC08091E20084FF28C080E189BD82E189BD09B400FEC5
:207AC000FDCF8091D8008F7D8093D8008091E1008F7E8093E1008091E2008F7E8093E20012
:207AE0008091E20081608093E2008091B401882331F48091E30087FD02C081E001C084E067
:207B00008EBBECD18091E10083FF21C08091E20083FF1DC08091E100877F8093E10082E06A
:207B20008EBB1092B4018091E1008E7F8093E1008091E2008E7F8093E2008091E2008061E9
:207B40008093E20080E060E042E0D8DEC7D1FF91EF91BF91AF919F918F917F916F915F9130
:207B60004F913F912F910F900FBE0F901F9018959C014091BC015091BD014617570718F49D
:207B8000F90190E044C06115710511F0AB01F8CF8091E8008E778093E80040E050E0F0CF0F
:207BA0008EB3882309F444C0853009F443C08091E80083FF02C081E008958091E80082FD70
:207BC00031C08091E80080FF22C08091F3009091F200782F60E0292F30E0262B372B07C07A
:207BE00081918093F100415050402F5F3F4F4115510519F02830310598F390E02830310566
:207C000009F491E08091E8008E778093E8004115510531F6992321F605C08EB3882341F075
:207C2000853041F08091E80082FFF7CF80E0089582E0089583E008959C016115710529F47C
:207C40008091E8008B778093E800F90126C08EB3882391F1853091F18091E80083FF02C06C
:207C600081E008958091E80082FFF1CF06C08091F10081936150704059F02091F300809191
:207C8000F200322F20E090E0822B932B892B79F78091E8008B778093E80061157105B9F601
:207CA00005C08EB3882341F0853041F08091E80080FFF7CF80E0089582E0089583E00895C2
:207CC0000F931F93DF93CF9300D0CDB7DEB7E6EBF1E08091F100819381E0EE3BF807C9F792
:207CE00024DD8091E80083FFE4C08091B6019091B701953009F46DC0963040F4913081F1A7
:207D0000913070F0933009F0D4C02AC0983009F4A3C0993009F4B2C0963009F0CAC07CC023
:207D2000803809F4C6C0823809F0C3C08091BA0187708093E9008091EB001092E9002091DB
:207D4000E800277F2093E80090E025E0969587952A95E1F781708093F1001092F10087C0D8
:207D6000882319F0823009F0A4C08F71823009F0A0C08091B801882331F52091BA01277097
:207D800009F497C02093E9008091EB0080FF1BC0933021F48091EB00806213C08091EB0018
:207DA00080618093EB0081E090E002C0880F991F2A95E2F78093EA001092EA008091EB00E5
:207DC00088608093EB001092E9008091E800877F51C0882309F06DC01091B8011F770FB79B
:207DE000F8948091E800877F8093E8009ADD8091E80080FFFCCF8091E3008078812B809398
:207E0000E30080688093E300112311F482E001C083E08EBB0FBF4DC08058823008F049C033
:207E20008091B8019091B9016091BA01AE014F5F5F4F36DDBC01009709F43BC08091E8008E
:207E4000877F8093E80089819A8192DE8091E8008B778093E8002DC0803859F58091E800AA
:207E6000877F8093E8008091B4018093F1008091E8008E778093E80054DD1BC08823C9F4CA
:207E80009091B8019230A8F48091E800877F8093E8009093B40145DD8091B401882331F420
:207EA0008091E30087FD02C081E001C084E08EBB6CDC8091E80083FF0AC08091EB0080624E
:207EC0008093EB008091E800877F8093E8000F900F90CF91DF911F910F91089508951F9360
:207EE0008EB3882361F01091E9001092E9008091E80083FF01C0E4DE17701093E9001F916F
