:100000000C946F090C9497090C9497090C94970918
:100010000C9497090C9497090C9497090C949709E0
:100020000C9497090C9497090C9404230C94762350
:100030000C9497090C9497090C9497090C949709C0
:100040000C9497090C9497090C9497090C949709B0
:100050000C9497090C9497090C9497090C94C71C5D
:100060000C9497090C9497090C9497090C94970990
:100070000C9497090C9497090C9497090C94970980
:100080000C94111D0C9497090C9497090C949709E2
:100090000C9497090C9497090C9497090C94970960
:1000A0000C9497090C9497090C949709084AD73B2C
:1000B0003BCE016E84BCBFFDC12F3D6C74319ABD37
:1000C00056833DDA3D00C77F11BED9E4BB4C3E915B
:1000D0006BAAAABE000000803F05A84CCDB2D44E4A
:1000E000B93836A9020C50B9918688083CA6AAAA4C
:1000F0002ABE000000803F00411000FFFEFFFEFF0F
:10010000FEFFFEFF66FF66FFFCFF98FE00FC00009E
:1001100000FFFEFFFEFFFEFFFEFF00FF00FFFEFFF1
:10012000FEFF00FF0000007E3CFF7EFF7EFF7EFFA3
:10013000E6FFE6FFE6FFC6FF00EF0000000F060F38
:1001400006FFFEFFFEFFFEFFFEFF06FF060F000F8D
:10015000000000FFFEFFFEFFFEFFFEFF66FF66FFE2
:1001600006FF060F000F000000FFFEFFFEFFFEFF70
:10017000FEFF06FF06FFFEFFFCFF00FE000F070F5D
:10018000070F070F070F060F060F070F030F0007D4
:1001900000000007030F070F070F070F060F060FDA
:1001A000070F030F00070000000F060F060F060FD2
:1001B000060F070F070F070F030F000700000000CF
:1001C0000000000F070F070F070F070F000F0000B9
:1001D00000000000000F070F070F070F070F060FA3
:1001E000060F060F060F000F0000000F070F070F86
:1001F000070F070F060F060F070F030F000706086C
:10020000007F3E7F3E7F227F3E7F007F0077227F00
:100210003E7F3E7F207F0070007F3A7F3A7F2E7FB7
:100220002E7F007F007F227F2A7F3E7F3E7F007FE0
:10023000001F0E1F087F3E7F3E7F007F007F2E7FC6
:100240002E7F3A7F3A7F007F007F3E7F3E7F2A7F6E
:100250003A7F007F00070207027F3E7F3E7F007FDC
:10026000007F3E7F3E7F2A7F3E7F007F001F0E1F64
:100270000A7F3E7F3E7F007F14100000E020A03800
:10028000082C040400288818202020E0000000002A
:100290001F1030207B6B3717173120686820101F24
:1002A00000000000E060B0184820840404084830D2
:1002B000202060C0800000030F301030605B4A36A1
:1002C000171710202C20100A0F000080C040701853
:1002D000C8A404842C081890302060C000000007D7
:1002E000091B362121405B4A261713102C34100DB0
:1002F0000700000080807010D0848404840808D82F
:10030000302020E0000000001F10162C2C20414659
:100310005A671B1010161807000000000080E0301C
:10032000C4848484040808183020E0000000000021
:100330001C1F302C2C2C6C41424A731010180F00DB
:1003400000000000000000F018848484840C0C0875
:1003500038E000000000000000003F202C2C6C4C16
:100360004D404378080F000000000000000000C06E
:100370006C0484848484047CC000000000000000BD
:100380000000007F404C4C4C444C4C407F0000002F
:10039000000000000000E038080C0C8484848418FD
:1003A000F00000000000000000000F087843404CFF
:1003B000446C2C28203F00000000000000E02030AA
:1003C00018080804848484CC38E080000000000011
:1003D000000F181010734A40406C2C282C301F1C42
:1003E00000000000E0202030D0000884048484DC79
:1003F000187080800000000007181610101B675A44
:10040000444020242C16101F00000000C060203043
:100410009018082C8404A4CC187040C080000007F9
:100420000D10342C101317264A5B402021361B096F
:1004300007000080C0602020304808040484244C59
:1004400018B060E00000000F0A10202C20101717D1
:10045000364A5B603010300F03000000E02020209F
:1004600018882C0404042C0838A020E000000000A8
:100470001F1020686820311717376B792030101F44
:1004800000000080C0404030584CA4040406080816
:10049000103060C0800000030E3030605858613664
:1004A0001717332A2D3018090F000000C04060389C
:1004B00048CC048404044808103020C080000007A1
:1004C0000918302060505865361713232D301B0D46
:1004D000070000008080C030DCC4C40684044C08DF
:1004E000183020E0000000001F1030202040405055
:1004F0004137131315110C07000000000000C070F5
:100500009CC4C4840404448C1830E0000000000043
:10051000183F20282C404040404173131418070016
:1005200000000000000000E018C4D4848404048C9F
:100530001CF000000000000000203F6160404C40C3
:1005400040404178180F000000000000000000C08B
:100550007C0484848484047CC000000000000000CB
:100560000000007F40404048484040407F0000007D
:10057000000000000000F01C8C040484C4D4C410EB
:10058000E00000000000000000000F18784140402B
:10059000404C4060613F20000000000000E0301847
:1005A0008C44040484C4C49070C0000000000000A7
:1005B00000071814137341404040402C28203F1876
:1005C00000000000E0203098084C048406C448D0A5
:1005D00030C0808000000000070C11151313374154
:1005E000504040202030101F00000080C0203010FC
:1005F000084804048404C848386040C0000000076C
:100600000D1B302D23131736655850602030180904
:1006100007000080C06030100808060404A0485895
:10062000304040C08000000F0918302D2B331717C1
:10063000366158586030300E0300080800007848D2
:1006400068380000001C362A22361C007E4B516B95
:10065000C589D77C1CF4ACD6AAD66C38141000001F
:10066000F810A0380828282828288818A02060C05A
:10067000000000001F10362263633717173723600E
:100680006222101F00000000F020B0184828A8289F
:1006900028284830303060C0000000030F32103688
:1006A00062434236171717232021100B0F0000C09A
:1006B000E0407018C8A828A828081890302060C00A
:1006C00000000007081B36202D464342261713134F
:1006D0002131100F06000000C0407010D0A8A828DB
:1006E000A80808D0B0A020E0000000001F10162EBF
:1006F0002E204D4642671B13111018070000000002
:100700000080E030D088A8A828280818B020E00091
:10071000000000001C1F302E2E2C6C41464273132B
:1007200010180F0000000000000080E01088A8A84A
:10073000A828088818F000000000000000003F20F2
:100740002E2C6C4C4D404379080F00000000000037
:10075000000000C07808A8A8A8A80878C000000079
:10076000000000000000007F404C4C4C484C4C40C6
:100770007F000000000000000000F018880828A892
:10078000A8A88810E08000000000000000000F080A
:100790007943404D446C2C2A203F000000000000AB
:1007A00000E020B018082828A8A888D030E08000F1
:1007B00000000000000F181013734246416C2C26F5
:1007C0002E301F1C00000000E020A0B0D00808A8B8
:1007D00028A8A8D0107040C0000000000718101111
:1007E000131B6742464D202E2E12101F00000000E2
:1007F000C060203090180828A828A8C8187040E0C9
:10080000C00000060F103121131317264243442C59
:1008100020361B0807000000C06030303048282810
:1008200028A8284818B020F00000000F0B10212144
:1008300023171717364243623610320F03000000A9
:10084000C06020A0188828282828280838A010F878
:10085000000000001F102262622337171737636100
:100860002236101F00000000C060A0B05848A82821
:1008700028280808101820C0800000030F303066B8
:10088000424267361717332320331B090F0000003D
:10089000C040603848C808A8281C4808101020E04C
:1008A000800000070B1830206D464267361713236F
:1008B00021311B0D0700000080804030D0C8C828BF
:1008C000B40C4808989030E0000000001F1030265B
:1008D000204044424737131311110C070000000059
:1008E0000080C07090C8C8B42C2848889810F000C8
:1008F00000000000183F20282C404040464373135E
:100900001018070000000000000000E010C8C4AC90
:10091000A828088818F000000000000000003F60D0
:1009200060484C4040404378180F00000000000031
:10093000000000C07808B8B8B8B80878C000000057
:10094000000000000000007F4040404C4C40404010
:100950007F000000000000000000F018880828A8B0
:10096000ACC4C810E00000000000000000000F1838
:1009700078434040404C4860603F00000000000069
:1009800000F010988848282CB4C8C89070C0800027
:100990000000000000071810137343444048402C27
:1009A00028203F1800000000E030909808480CB460
:1009B00028C848D03040808000000000070C11118A
:1009C00013133747424440202630101F0000008098
:1009D000E020501008481C28A808C848386040C0CB
:1009E000000000070D1B3121231317366742466DA7
:1009F0002030180B07000080C02018100808282895
:100A000028A84858B0A060C00000000F091B33217F
:100A100023331717366742426630300F0300100841
:100A20003C425A66A5A5A5A5A5A5A5A5665A423C22
:100A30001010E030182C343434343434343494C44A
:100A400004FC7F404E4E55555B55554E4E406F371A
:100A5000180FD5F08D14A1C881CFD9F1AF20004275
:100A60000F28E5F6ED56D9D9E4F6EDD62AC964B7D4
:100A7000CA49A79CB25B26BBFDFFDF2A47E59CB4B1
:100A80004AAAA5726472FB76ABEC6C72FB766B952E
:100A900064B2DBFFFFAD725476FBAD6EB51D475BF4
:100AA00065B74B2567DB2ABB5D2A399B928A5C4977
:100AB00045A6A4429E928A7CABEC76A9E46C5B6569
:100AC000B74B25675352912AA9C8945476BBDD4E83
:100AD0000A07080C0603030306003F2FB0BD54CEDF
:100AE00029B9DDA6D387D3743A9D4EA7D3E9743ACA
:100AF0001D515649A97C3ABDDD2AE99C543A08CAE1
:100B0000291DFED2DB6DDBE576BBDDA6D3E9743AA9
:100B10009D4EA7D3E9F476BB555249E7A4B2EB58F2
:100B200057B84DA7D3E97476BBDD2E95933129656F
:100B3000955452492595DCC69E5D2AA99C73CE39F1
:100B4000E79C734E4EB7545239E79C73CE392795C4
:100B5000BA774EDDAA57AD5EFD761D593ADBB94E28
:100B6000F5B75332AB64ED6EF5AF7AF5B9CE756E6D
:100B7000BBDDAED369E75098AE9D92DB743AA6A573
:100B80005376BB554EAEB6CE49A523DB2E9D73CE14
:100B9000D5BB7F1B3D1FFCB47556E9F57A1DD4A467
:100BA000EC3ABA74E73A954AD5AE5665D5A594BBEA
:100BB00056CAB961B7F476BD5D6FD7DBED76BDDDA2
:100BC0006EB7DBED72BBDD6E97DBED72BBDCA6B7FB
:100BD0004A8E5D7F3F80BC4849252B5991A595548D
:100BE000323A2595AC64744A2A59C9E89454323F84
:100BF0000C2C9554A954292AA9A4AAA4A452A554FA
:100C0000A952AA14F4B84CA7D3E9742A954AF5AAB4
:100C100057E97C2D15EB769D8E6DBB4E562EDBABCA
:100C20005E752E954AA7D3E9743A3FBEA592AA2ACB
:100C3000E7A8A492AA961795545255525249259D59
:100C4000723795545255A552112EB3D974369D4E14
:100C5000A7D3E9743E9DCFE787073D5DB4D1A5A337
:100C60004B47D6D9B218B3659311A6A34B47175D6E
:100C70003AEFE122A7529D4D67D3E9743A9D4EE7C2
:100C8000D3F97C2AE7F89DEC7CB2D3C9CE75AE735C
:100C90009DEB5CE73AD7D95C67539D7270E13E9D4E
:100CA0004EA7D3E9743A9DCE66436B3E9F4EA7D3C1
:100CB000E9743A9D4E27878DF6F964A7939DEB5C06
:100CC000E73AD7B9CE75AEB3B9CE6693037B123F80
:100CD0003FD1974EA7D3E9743A9D4EA7D3E968D385
:100CE000E9743A9D4E479B0E8DE9743A9D4EA7D309
:100CF000E9743A9D0EDF843ADD76BBDD6EB73ACDFE
:100D0000C7974EF7AA5739E728DBD5EE5DEDDED55C
:100D10002E429DE623D4E9B6DBED76BBD5693E7C59
:100D2000CBEDA94FFDAF7AD5FFFFFF9FDAAEE4F61A
:100D3000289D73BFEADDAB5E29A964DBA5DC5EFFFD
:100D40007F727B6D977C727B6ABBEA55AF7AD5ABBD
:100D50005EF576BB92DBC377BBDAD5AE76BFEABD74
:100D600092AA5DEDAC92EEFF4F39E77697FBFFBF9D
:100D700076B58BAF573D653AEF9C53727B6ABB6A81
:100D8000BBEC55AFB25BBB7DBB7DBB6CBB44B84E0F
:100D9000E79C53B9CBBD4E2BE75CED6A57FF7FBD97
:100DA000EAAD73CE7DEA53CEB974BA5EF52A77B94F
:100DB000CB39E7EC36E59CAB5DEDFEFFDF2EDBD5F6
:100DC0002EA9A4924A2AF5A9FF558FF2B64BB5DD9C
:100DD0007EEAFFFF539FFAD476D576ABD3CA395754
:100DE000769BDCEEB6BB57BDCA39A772CE792539E2
:100DF000EDF6FF7FBBE5DCEE9554CA3997FAD48750
:100E00006F3E9DB6DBED76BB3D9D26E453DB55CEB4
:100E10003995DDBE5DF6AAA76CBB944AAAECF6FF35
:100E2000DF4925DB6E5FF54A6D57727B3A1D1FBEA9
:100E3000D3E9743A9D4EA7D3E9743A1D6D3ADA743A
:100E40003A9D4EA7D3A1299D4E479B8E361D9AD21F
:100E5000A10F0608007F3E7F0C7F187F3E7F007F3A
:100E6000001F0E7F3E7F387F0E7F001F0E08007F21
:100E70003E7F3E7F0A7F021F007F367F3E7F087FD6
:100E8000367F007F007F367F007F1508007F3E7F22
:100E90003E7F187F3E7F007F3E7F3E7F2A7F227FFE
:100EA000007F3E7F3E7F207F2070007F3E7F3E7F21
:100EB000127F1E3F003F1508007F3E7F3E7F127F5E
:100EC0001E3F007F3E7F3E7F207F2070007F3E7F61
:100ED0003E7F127F3E7F007F0E7F3E7F387F0E7FFA
:100EE000001F15080077227F3E7F3E7F227F007F14
:100EF0003E7F0C7F187F3E7F007F3E7F3E7F0A7FD4
:100F0000021F007F3E7F3E7F227F3E7F007F7F3F2C
:100F1000A040B9DD6EDF6E9D54643595DD6EB7FF80
:100F2000FF5BE5B8AAA292DBEDF6FF7FAB2453D5B9
:100F3000F6FFB776BBDDBE3D252B551593DD6EB7AD
:100F4000FFFF6F4FC94A5545E594DD6EFFFFFF5F18
:100F5000057D67B395AC5CED6A57BBDAD5AEE4EDC1
:100F6000B6B5FB4FBD92D995E3923A9DAE9D52AE78
:100F7000942B75EA6A59EACA96ABE4E52A79B6B2C7
:100F8000E52A79B6D45557E5AA6CC9CB55F2725506
:100F9000B6E4B6B225CF75AE73B52B77B9CB5DD7B6
:100FA00075EE7439F5A94F7DEA954C6F6BA596D90E
:100FB000DAD5AE76B5AB5D2D2B59D97CF0AAF239D6
:100FC00055BBDA55A53AD7B94A56369BCE29972E46
:100FD000B5BB76B5AB64BA76B5AB5DED52A9D4E7D7
:100FE0009CAA7255D5555D95ABAAABEA4A5D55579B
:100FF000EA525D5597EAAABA54A7EA529DAA4B75E0
:10100000555DAAABEA525DA9ABEA4A5D5557D55585
:101010007555E5AA9493B54BA7D3A954EA53D23991
:10102000BB4EA73EA7B8944FE7B395AC64E73A57D9
:1010300095AA5D9DCA2938319BAD5CAD4AA95A95E8
:10104000BBD4659395DCEE2A77B94BA9DAD54E4926
:10105000E594734AD5EA5ED54EC96D3A9D54F3CBFB
:10106000AEEAAA5CB65297BA9453AE96DFEA579DA1
:101070002BA59CECC82A99AEB83AE55C29D5A9FF06
:10108000BB96CA9572A5AE525DD9CA56ADDA29F89B
:10109000289D4E6FB795ACE4252FA5CAA9DA9572A5
:1010A000B5AC6C3E58EBDDBB47527279B94ABA6EAB
:1010B00075B9CB5DEE7297BBDCE52EFDA952D55D0F
:1010C00055AAAE7B7575777575B7DEA6B795545280
:1010D000B9F2AD145EF3E97436F4EEA85C2D2BA9D9
:1010E000647A9BDE56AE7697ABE4B67255A95B5533
:1010F000A59CDBA6D3E9743A9D4E6F6B77B9CA2ADB
:101100001DEFDEBDF3C34F7BF7CECFBBBC54EF6EFC
:1011100025F525F3E974252B59C9CA756AA5CAD5E1
:10112000A9AAAE4EF5F7F7EA729D3BBBCEAE9DAADB
:101130005257D5555D555D555DD5557555D55557A6
:10114000555DA5AEBA2A75D5AA5C55EA5655A95B78
:101150009552B72A75D59FBADCA73A5795ABCA55B1
:10116000AEAAAB72555D555D95ABBCCBAEB3EBECA7
:101170003A5BD9CA55E56A559592769D4FA7D3E952
:101180007436BB72B25297AB9593B1BF7BF7B05632
:10119000DEA9DCC9FDD6D9CA55A56E5555AE535545
:1011A0005DDD57A9DB294AAA53A95455577757AE95
:1011B0005355B94E55E55A55A56E5595BA955D8767
:1011C000CE743A5DB9CBDDAB5B5D4E49E79C934A8B
:1011D0002ABBDDAED3616BA96E5595BA5555EA565B
:1011E00055A95B55E56A7749252B3B96B2CA5DEA5E
:1011F0005655A95B55E56A55CB65369D7CF74E057E
:10120000CDA5F3E96C252B59C94AD62E95CA75AEE2
:10121000739DEB5CE73AD7B9CE75AE739D4AD5AEF8
:101220009295AC64252B79B9CB5DEED2913BA58329
:10123000A69258CA5DEE7297AB64252B59C94AD65F
:101240002E95CA75AE739DEB5CE73AD7B9CE75AEF5
:10125000739D4AD5AE9295AC6465D3D974D010080D
:101260000B0002020201000904000001020200005A
:1012700005240010010524010101042402060524AF
:101280000600010705810310004009040100020A5D
:10129000000000070502024000000705830240002D
:1012A000000403090412010002EF02014041233649
:1012B0008000010102030141726475696E6F204C68
:1012C0004C430041726475696E6F204C656F6E61AE
:1012D00072646F0001020408102040803B29112431
:1012E0001FBECFEFDAE0DEBFCDBF11E0A0E0B1E07E
:1012F000EAEFFCE502C005900D92A436B107D9F7DC
:1013000028E0A4E6B1E001C01D92A531B207E1F7E3
:1013100019E0CFE6D9E004C02197FE010E94702EAB
:10132000CE36D107C9F70E946D260C947B2E0C9403
:101330000000CF93DF93EC018BE0FB013296DE01DE
:10134000129601900D928A95E1F7FB0185858D87B4
:1013500086858E8787858F8786E07096DE0150961A
:1013600001900D928A95E1F786E0FB017696DE0109
:10137000569601900D928A95E1F7FB01848D8C8F32
:10138000858D968DA78DB0A18D8F9E8FAF8FB8A3C1
:1013900081A192A1A3A1B4A189A39AA3ABA3BCA349
:1013A00085A196A1A7A1B0A58DA39EA3AFA3B8A721
:1013B000CE01DF91CF910895CF93DF93EC018BE0C5
:1013C000FB013296DE01129601900D928A95E1F7AB
:1013D000FB0185858D8786858E8787858F8786E04B
:1013E0007096DE01509601900D928A95E1F786E0A5
:1013F000FB017696DE01569601900D928A95E1F7F3
:10140000FB01848D8C8F858D968DA78DB0A18D8FDE
:101410009E8FAF8FB8A381A192A1A3A1B4A189A3EC
:101420009AA3ABA3BCA385A196A1A7A1B0A58DA3A8
:101430009EA3AFA3B8A7CE01DF91CF910895FC0181
:10144000653451F496AD491720F4941B96AF80E0B3
:10145000089516AE81E0089508954F925F926F92BD
:101460007F928F929F92AF92BF92CF92DF92EF9234
:10147000FF920F931F93CF93DF9300D000D000D043
:10148000CDB7DEB7FC01E982FA820B831C83922F71
:101490002D83832F3E83A980BA80EB80FC80A689B0
:1014A000B789208D318D538D728D8D01070F111DE0
:1014B000A016B1060CF098C04501890E911CA81524
:1014C000B9050CF091C0D901A50FB11DEA16FB06B4
:1014D0000CF08AC06701C80ED11C2C153D050CF01C
:1014E00083C08F010190F081E02D0190F081E02D0B
:1014F000C80109958111ABC0D80156962D913C9138
:10150000579750968D919C9151972A153B050CF059
:101510006DC054962C91B501621B7109681B790B43
:101520006F5F7F4F072E000C880B990B0E948A2C4F
:10153000F80122813381448155810E94F72A4B01B1
:101540005C01F801808D918D228933898E159F056C
:101550000CF05DC08589A701481B5109CA01821B97
:10156000930B0196BC01990F880B990B0E948A2C52
:10157000D80116962D913D914D915C9119970E943D
:10158000F72A6B017C0120E030E0A901C501B4011C
:101590000E94A02D24013501181624F077FA7094CA
:1015A00077F8709420E030E0A901C701B6010E94ED
:1015B000A02DA701960118160CF05058C301B201D6
:1015C0000E94D62B87FF32C0A5019401D801129644
:1015D0006D917D918D919C9115970E94F82AF8014B
:1015E000628373838483958380E032C0B401681B77
:1015F000790B072E000C880B990B0E948A2CD801BE
:1016000012962D913D914D915C91159796CFB60113
:10161000621B730B072E000C880B990B0E948A2CFF
:10162000F8012681378140855185A9CFA701960110
:10163000D80116966D917D918D919C9119970E947C
:10164000F82AF8016683778380879187CDCF81E080
:1016500026960FB6F894DEBF0FBECDBFDF91CF91B7
:101660001F910F91FF90EF90DF90CF90BF90AF90C0
:101670009F908F907F906F905F904F90089580E043
:101680000895CF92DF92EF92FF920F931F93CF9323
:10169000DF93EC016A897B89072E000C880B990B7C
:1016A0000E948A2C2E813F81488559850E94F82A04
:1016B0000E94522C6B017C010C891D8988899989B3
:1016C000BC01990F880B990B0E948A2C2A813B81BF
:1016D0004C815D810E94F82A0E94522C7F8B6E8B78
:1016E000D98EC88E0A8F1B8FDF91CF911F910F91DA
:1016F000FF90EF90DF90CF9008952F923F924F92FE
:101700005F926F927F928F929F92AF92BF92CF9291
:10171000DF92EF92FF920F931F93CF93DF9300D04E
:1017200000D0CDB7DEB76B019C0140E050E02983CB
:101730003A834B835C83CA01B9010E94691C1B0177
:10174000E12CF12CC701B6010E94691C8B01B1018B
:10175000032C000C880B990B0E948A2C4B015C0116
:10176000409064015090650160906601709067013F
:1017700020E030E0A9010E94F82AA30192010E9412
:10178000A02D1816CCF0B101C8010F900F900F904A
:101790000F90DF91CF911F910F91FF90EF90DF900D
:1017A000CF90BF90AF909F908F907F906F905F9001
:1017B0004F903F902F90089520E030E040E053E4B8
:1017C000C301B2010E94F82A9B01AC01C501B4011A
:1017D0000E94D62B87FFD7CFB801012E000C880BB3
:1017E000990B0E948A2C4B015C014090680150903B
:1017F000690160906A0170906B0120E030E0A901FE
:101800000E94F82AA30192010E94A02D18160CF044
:10181000BACF20E030E040E852E4C301B2010E94B8
:10182000F82A9B01AC01C501B4010E94D62B87FFA9
:10183000AACF69817A818B819C810E94691C1B01DE
:1018400081CF8F929F92AF92BF92DF92EF92FF92E1
:101850000F931F93CF93DF93EC017B01D42E04E60B
:1018600011E0F80124813581468157816C817D81A9
:101870008E819F810E94F72A0E94522C4B015C01AD
:10188000F8012081318142815381688179818A8187
:101890009B810E94F72A0E94522CDC01CB010AEFA7
:1018A0002D2DA701B4010E94F81EDF91CF911F9149
:1018B0000F91FF90EF90DF90BF90AF909F908F902F
:1018C00008954F925F926F927F928F929F92AF9204
:1018D000BF92CF92DF92EF92FF920F931F93CF931D
:1018E000DF93EC01C9A0DAA0EBA0FCA020E030E07F
:1018F0004AE754E46D8D7E8D8F8D98A10E94AD2DA9
:1019000020E030ED4FE557E40E94E02B2B013C0135
:101910000E94DB2B9B01AC01C701B6010E94AD2DDB
:101920002A813B814C815D810E94F82A4B015C0138
:101930006A837B838C839D83C301B2010E941A2E2C
:101940009B01AC01C701B6010E94AD2D9B01AC010A
:101950006E817F81888599850E94F72A6B017C01C1
:101960006E837F838887998720E030E0A901C501D5
:10197000B4010E94D62B87FF05C01A821B821C82ED
:101980001D8224C00E8510E0B801012E000C880BCA
:10199000990B0E948A2C9B01AC01C501B4010E94E5
:1019A000F82A20E030E04AEF53E40E94A02D1816F8
:1019B0006CF484EF91E0801B910BBC0180E090E01F
:1019C0000E94882C6A837B838C839D8320E030E097
:1019D000A901C701B6010E94D62B87FF05C01E8250
:1019E0001F821886198623C00F8510E0B801012ECA
:1019F000000C880B990B0E948A2C9B01AC01C7013B
:101A0000B6010E94F82A20E030E04AEF53E40E9439
:101A1000A02D181664F464EF71E0601B710B80E078
:101A200090E00E94882C6E837F8388879987DF915E
:101A3000CF911F910F91FF90EF90DF90CF90BF90CB
:101A4000AF909F908F907F906F905F904F90089590
:101A50002F923F924F925F926F927F928F929F92BE
:101A6000AF92BF92CF92DF92EF92FF920F931F93AC
:101A7000CF93DF93CDB7DEB72B970FB6F894DEBFC9
:101A80000FBECDBF2B013C0129833A834B835C837E
:101A90001E2D3C2C2A2CC0906401D0906501E09052
:101AA0006601F0906701602F70E080E090E00E9496
:101AB0008A2C9B01AC01C301B2010E94F82AA70144
:101AC00096010E94A02D18160CF03EC020E030E0D8
:101AD00040E053E4C701B6010E94F82A9B01AC0123
:101AE000C301B2010E94D62B87FF2EC080906801EF
:101AF00090906901A0906A01B0906B01612F70E035
:101B000080E090E00E948A2C9B01AC0169817A817F
:101B10008B819C810E94F82AA50194010E94A02D2E
:101B2000181694F420E030E040E852E4C501B40116
:101B30000E94F82A9B01AC0169817A818B819C818A
:101B40000E94D62B87FD9CC12091680130916901CC
:101B500040916A0150916B0169817A818B819C81EE
:101B60000E94F72A20E030E040E052E40E94F72A89
:101B70004B015C01A7019601C301B2010E94F72A43
:101B800020E030E040E852E40E94F72A9B01AC01DB
:101B9000C501B4010E94E02B6B017C0120E030E024
:101BA000A901C501B4010E94D62B87FF0EC0A70171
:101BB000960160E070E088EF91EC0E94E02B0E94BB
:101BC000522C9B0161EE7FEF0DC0A701960160E0F2
:101BD00070E088EF91E40E94E02B0E94522C9B0160
:101BE0006EE170E0213C8FEF38079CF420E030E09C
:101BF0004CEF52ECC701B6010E94AD2D20E030E061
:101C000040E05FE30E94AD2D0E94522C21EC3FEF9B
:101C100015C02034310594F020E030E04CEF52E460
:101C2000C701B6010E94AD2D20E030E040E05FE347
:101C30000E94AD2D0E94522C2EE330E08B01005EFD
:101C40001F4FC901805C9F4F9B878A87E32CF12C33
:101C5000222009F466C0432D440F4F5FB8016E196E
:101C60007F0921E00E94711D81E090E06C01CE1897
:101C7000DF08222433242E183F08220C331CA12C09
:101C8000B12C88248394912C8A859B859A8389839F
:101C90001E830D83AE14BF040CF0F2C0D7FC08C045
:101CA00091E0E91AF10882E0280E311CC20CD31C25
:101CB0009FEFA91AB90A82E0880E911CC80CD91CA2
:101CC0003E2D330F3F5F21E0432F28014E185F0860
:101CD000B20189819A818A0D9B1D39870E94711DED
:101CE0006D807E806A187B0821E0482DB3018A85CB
:101CF0009B858E0D9F1D0E94711D21E03985432F0C
:101D0000B20189819A818A199B090E94711D21E083
:101D1000482DB3018A859B858E199F090E94711DEC
:101D2000B9CF81E090E05C01AE18BF088827992701
:101D30008E199F091C01220C331CA8014E0D5F1D3A
:101D400021E06A857B8588EA97E00E944F26A801FA
:101D50004E195F0921E06A857B8588EA97E00E9439
:101D60004F266A857B856E0D7F1D21E0A80188EADC
:101D700097E00E944F266A857B856E197F0921E0D6
:101D8000A80188EA97E00E944F26C12CD12C81E05F
:101D900090E09A8389838A859B859E838D831887AB
:101DA0000F83CE14DF040CF06BC0B7FC08C091E0C9
:101DB000E91AF10882E0280E311CA20CB31C9FEF37
:101DC000C91AD90A89819A8102969A838983A80EB1
:101DD000B91E6D807E806C0C7D1C21E048018E0C4C
:101DE0009F1CA401B30188EA97E00E944F264D8012
:101DF0005E804C185D0821E0A401B20188EA97E0FA
:101E00000E944F2621E048018E189F08A401B301CB
:101E100088EA97E00E944F2621E0A401B20188EAF7
:101E200097E00E944F268F8098848C0C9D1C21E0A7
:101E3000A4016A847B846E0C7F1CB30188EA97E05E
:101E40000E944F2621E0A4014A845B844E185F085B
:101E5000B20188EA97E00E944F268F8098848C1800
:101E60009D0821E0A401B30188EA97E00E944F2673
:101E700021E0A401B20188EA97E00E944F2691CFA9
:101E80002B960FB6F894DEBF0FBECDBFDF91CF917A
:101E90001F910F91FF90EF90DF90CF90BF90AF9088
:101EA0009F908F907F906F905F904F903F902F907A
:101EB0000895FC0112821382148215821682178201
:101EC0001086118612861386148684E291E091832F
:101ED000808387E4858716861786118A108A138A7D
:101EE000128A148A158A148E158E168E178E10A2D9
:101EF00011A212A213A214A280E090E0A0E0B0E42C
:101F000085A396A3A7A3B0A70895CF93DF93EC0171
:101F10000E94590F8CE391E09983888364EF71E00C
:101F200084EF91E00E947D0B69A77AA78BA79CA7FD
:101F3000072E000C880B990B0E948A2C6A837B83E6
:101F40008C839D836BA57CA5072E000C880B990BB9
:101F50000E948A2C6E837F838887998784E18E878D
:101F600080E18F8786E0EAE1F1E0DE0150960190A2
:101F70000D928A95E1F784E48D87DF91CF910895E2
:101F8000CF93DF93EC010E94590F86E391E0998390
:101F9000888364EF71E084EF91E00E947D0B69A774
:101FA0007AA78BA79CA7072E000C880B990B0E9481
:101FB0008A2C6A837B838C839D836BA57CA5072EEB
:101FC000000C880B990B0E948A2C6E837F83888774
:101FD000998784E18E8780E18F8786E0EAE1F1E0EE
:101FE000DE01509601900D928A95E1F783E48D878A
:101FF000DF91CF9108954F925F926F927F928F926F
:102000009F92AF92BF92CF92DF92EF92FF920F9387
:102010001F93CF93DF93CDB7DEB7A9970FB6F89490
:10202000DEBF0FBECDBFFC01653409F076C086ADC2
:10203000481718F4841B86AF88C08F0116AE11A212
:1020400012A213A214A2C58CD68CE78CF0A06785CF
:10205000669570E080E090E00E948A2CF80126816D
:102060003781408551850E94F82A20E030E040E821
:1020700050E40E94F72A4B015C01F80186858695A1
:10208000682F70E080E090E00E948A2CF8012281A5
:102090003381448155810E94F82A20E030E040E8F5
:1020A00050E40E94F72A2B013C01CE0101960E94C8
:1020B000590F84E591E09A8389834B825C826D821B
:1020C0007E828F829886A986BA86CE8EDF8EE8A21F
:1020D000F9A21AA21BA21CA21DA284E08B8798E081
:1020E0009D878D8F209102073091030724303105A1
:1020F00064F5C9010196909303078093020749E2B2
:10210000429FC001439F900D1124BE016F5F7F4F1E
:102110008C5F984F0E94990918C0633441F481E0A4
:1021200087AF80916C0190916D01059608C0643471
:1021300061F417AE80916C0190916D010A969093B5
:102140006D0180936C0181E001C080E0A9960FB61B
:10215000F894DEBF0FBECDBFDF91CF911F910F91DD
:10216000FF90EF90DF90CF90BF90AF909F908F90B7
:102170007F906F905F904F900895CF92DF92EF9293
:10218000FF92CF93DF93EC010E94590F80E090E023
:10219000A0E6B0E489A79AA7ABA7BCA78DEC9CECFE
:1021A000ACE4BDE38DA79EA7AFA7B8AB83E393E3F1
:1021B000A3EBBEE389AB9AABABABBCAB8AE097EDCC
:1021C000A3EABCE38DAB9EABAFABB8AF80E090E0D1
:1021D000A0E8BFEB89AF9AAFABAFBCAF83E08DAFE8
:1021E00085E08EAF1FAE8AE291E0998388837E01FD
:1021F00080E4E80EF11C64EF71E084EF91E00E944E
:102200007D0BF7016083718382839383072E000C1B
:10221000880B990B0E948A2C6A837B838C839D8315
:10222000FE01EE5BFF4F60817181072E000C880B71
:10223000990B0E948A2C6E837F838887998784E11B
:102240008E8780E18F8786E0EAE1F1E0DE0150963B
:1022500001900D928A95E1F70E943B2A25E030E03B
:1022600040E050E00E94942A9B01AC012B5F3F4F5D
:102270004F4F5F4F61E070E080E090E00E94942A51
:10228000CA01B9010E948A2C2AE037ED43E25CE3DF
:102290000E94F82A6DAB7EAB8FAB98AFCDA4DEA4C5
:1022A000EFA4F8A80E943B2A20E030E0A901C70172
:1022B000B6010E94F82A6DA77EA78FA798AB88E188
:1022C0008A8785E48D87DF91CF91FF90EF90DF9033
:1022D000CF900895CF93DF93EC010E94590F80E0D7
:1022E00090E0A0E6B0E489A79AA7ABA7BCA78DECC5
:1022F0009CECACE4BDE38DA79EA7AFA7B8AB83E38E
:1023000093E3A3EBBEE389AB9AABABABBCAB8AE088
:1023100097EDA3EABCE38DAB9EABAFABB8AF80E06B
:1023200090E0A0E8BFEB89AF9AAFABAFBCAF83E062
:102330008DAF85E08EAF80E391E0998388831FAEF7
:102340000E943B2A28E631E040E050E00E94942AB7
:102350000E948A2C6D8F7E8F8F8F98A364EF71E01F
:1023600080E090E00E94691C0E948A2C6A837B8333
:102370008C839D8364EF71E080E090E00E94691C93
:102380000E948A2C6E837F838887998784E18E8759
:1023900090E19F8796E0EAE1F1E0DE01509601903E
:1023A0000D929A95E1F798E19A878EAF80E58D8737
:1023B000DF91CF9108952F923F924F925F926F924B
:1023C0007F928F929F92AF92BF92CF92DF92EF92C5
:1023D000FF920F931F93CF93DF93CDB7DEB7C05516
:1023E000D1090FB6F894DEBF0FBECDBF8091340681
:1023F00090913506039709F464C0CE0101960E94BE
:10240000BD108091340690913506833091050CF013
:1024100058C09C012F5F3F4F309335062093340600
:1024200024E4289F8001299F100D1124BE016F5FB5
:102430007F4FC8018A5C994F0E949909F801EC5CB2
:10244000F94F8AA59BA5ACA5BDA583A794A7A5A771
:10245000B6A78EA59FA5A8A9B9A987A790ABA1AB40
:10246000B2AB8AA99BA9ACA9BDA983AB94ABA5AB20
:10247000B6AB8EA99FA9A8ADB9AD87AB90AFA1AF00
:10248000B2AF8AAD9BADACADBDAD83AF94AFA5AFE0
:10249000B6AF8EAD87AFDF01A05CBF4F8FAD8C9321
:1024A000119621968FAD21978C93EE5BFF4F259669
:1024B0008CAD9DADAEADBFAD259780839183A283DA
:1024C000B38300E010E0B801012E000C880B990BDB
:1024D0000E948A2C209168013091690140916A0123
:1024E00050916B010E94F72A0E94522C60347105B2
:1024F00030F421E040E880E090E00E94C7250358D6
:102500001F4F043F21E01207F1F600E010E0B80190
:10251000012E000C880B990B0E948A2C20916401DB
:102520003091650140916601509167010E94F72A40
:102530000E94522CDC01CB0121E040E460E070E01D
:102540000E94711D03581F4F043F31E01307F9F635
:1025500087EC95E00E94410B40E060E37AE089EC73
:1025600095E00E94210C8AE995E00E94410B40E031
:102570006EE17AE08CE995E00E94210C80913206B0
:10258000882309F4D6C02091250630912606409173
:1025900027065091280660911506709116068091C5
:1025A0001706909118060E94A02D1816ACF50E94EF
:1025B000B42585FF13C020911D0630911E06409161
:1025C0001F065091200660911106709112068091AD
:1025D0001306909114060E94F82A16C00E94B42592
:1025E00086FF1AC020911D0630911E0640911F06DD
:1025F0005091200660911106709112068091130689
:10260000909114060E94F72A6093110670931206A7
:1026100080931306909314060E94B42582FF55C040
:10262000C0901506D0901606E0901706F090180698
:1026300020E030E0A901C701B6010E94A02D1816C4
:102640004CF42091290630912A0640912B06509196
:102650002C0610C020E030E040E850E460912906EC
:1026600070912A0680912B0690912C060E94AD2D28
:102670009B01AC01C701B6010E94F82A60931506C0
:10268000709316068093170690931806C09019064B
:10269000D0901A06E0901B06F0901C06A701960148
:1026A0006091150670911606809117069091180694
:1026B0000E94A02D1816ECF5C0921506D0921606B1
:1026C000E0921706F092180634C00E94B42583FFEA
:1026D00030C0C0901506D0901606E0901706F09016
:1026E000180620912D0630912E0640912F0650910C
:1026F0003006C701B6010E94A02D1816D4F46091CF
:10270000290670912A0680912B0690912C069B0138
:10271000AC010E94F82A9B01AC01C701B6010E94DE
:10272000F72A609315067093160680931706909308
:10273000180684EF95E00E94610C84EF95E00E94FA
:10274000410B6091110670911206809113069091D1
:1027500014060E94522CCB0168E671E00E945C2EA8
:10276000BC01990F880B990B0E948A2C6B017C018C
:1027700020E030E0A9010E94D62B87FF0AC020E0AC
:1027800030E044EB53E4C701B6010E94F82A6B0124
:102790007C01C0921106D0921206E0921306F092CC
:1027A000140620E030E044EB53E4C701B6010E9478
:1027B000E02B6B017C018091FE05682F70E080E0CA
:1027C00090E00E948A2C9B01AC01C701B6010E94D7
:1027D000AD2D0E94592C6093FF058091320688230D
:1027E00009F44EC08091030609EFF02EF80E109107
:1027F00002061850209168013091690140916A01E8
:1028000050916B016091FA057091FB058091FC0578
:102810009091FD050E94F72A20E030E040E850E466
:102820000E94F82A0E94522C4B015C012091640105
:102830003091650140916601509167016091F60504
:102840007091F7058091F8059091F9050E94F72A9B
:1028500020E030E040E850E40E94F82A0E94522C28
:10286000DC01CB0100E02F2D412FB4010E949D1D02
:102870004091FF056CE576E086EF95E00E94210C23
:10288000E090DD05F090DE050091DF051091E00598
:102890002091E1053091E20540E06091D40584EF9C
:1028A00095E00E942D0A8823B9F0CE0101960E947E
:1028B000C00FBE016F5F7F4F87EC95E00E94DC097F
:1028C0008AA59BA5ACA5BDA58093F0059093F105C5
:1028D000A093F205B093F305E090B005F090B10538
:1028E0000091B2051091B3052091B4053091B50562
:1028F00040E06091A70584EF95E00E942D0A8823AF
:10290000B9F0CE0101960E94850FBE016F5F7F4F27
:102910008AE995E00E94DC098AA59BA5ACA5BDA526
:102920008093C3059093C405A093C505B093C605D5
:1029300080913206882359F08091AB079091AC07C3
:102940006CE370E00E94482E892B09F49EC6F12C9E
:1029500019E2E12E0F2D10E08091020790910307FC
:10296000081719070CF063C0E09EF001E19EF00D1E
:102970001124EE5FF84F268D211107C049E2F49E25
:102980006001112480E090E02FC0668570E08091A6
:10299000AB079091AC070E94482E892B79F4215007
:1029A000268F2585422F50E0848590E001974817B7
:1029B00059071CF42F5F258701C01586E09E600132
:1029C000E19ED00C1124C6018C5F984F0E94610CCF
:1029D000F601EE5FF84F45856AE376E0C6018A5F4F
:1029E000984F0E94210C21C02091020730910307CB
:1029F0004C01A9E28A0E911C021713077CF40F5FA9
:102A00001F4FB601680F791F635D784F8C0D9D1DB8
:102A10008C5F984F0E949909C401E6CF215031097B
:102A20003093030720930207FA94F39493CF2696EA
:102A30001FAE2697B4E4BB2E2696FFAD26972F2E09
:102A4000312C8091340690913506281639060CF009
:102A5000D7C3B29CC001B39C900D11248C010C5CB7
:102A6000194FF801E05CFF4F208121112DC18091A9
:102A70006C0190916D01039690936D0180936C01B0
:102A800020E030E040E05FE3F80163A174A185A19C
:102A900096A10E94AD2D6B017C01D8015F968D91AE
:102AA0009D910D90BC91A02D2D968CAF9DAFAEAF9A
:102AB000BFAF2D97F8016189669570E080E090E0E6
:102AC0000E948A2CD80118962D913D914D915C91D0
:102AD0001B970E94F82A20E030E040E850E40E9472
:102AE000F72A2B013C01F8016089669570E080E0CF
:102AF00090E00E948A2CD80114962D913D914D9121
:102B00005C9117970E94F82A20E030E040E850E4FA
:102B10000E94F72AAB01BC01CE01019660964FAF2F
:102B2000609761965FAF61972E966FAF2E972F9645
:102B30007FAF2F970E94590FE4E5F1E0FA83E98314
:102B400060964FAD609761965FAD61972E966FADC1
:102B50002E972F967FAD2F974B835C836D837E835B
:102B60004F82588669867A862D968CAD9DADAEAD26
:102B7000BFAD2D978E8F9F8FA8A3B9A3CAA2DBA24A
:102B8000ECA2FDA294E09B87A8E0AD879D8F2091E9
:102B9000020730910307243031059CF4C9010196E6
:102BA0009093030780930207B9E2B29FC001B39FDD
:102BB000900D1124BE016F5F7F4F8C5F984F0E9474
:102BC00099092696FFAD2697E4E4FE9F8001112423
:102BD00098012D55394F7901015A194F80913406CA
:102BE00090913506281639060CF061C03FEF231A84
:102BF000330AB70169527109C7018D5691090E94C4
:102C00009909F70180819181A281B381F8018083C4
:102C10009183A283B383F70184819581A681B781D3
:102C2000F80184839583A683B783F7018085918516
:102C3000A285B385F80180879187A287B387F701C2
:102C400084859585A685B785F80184879587A687AD
:102C5000B787F70180899189A289B389F801808BB0
:102C6000918BA28BB38BE85AFF4F8081F701F097CD
:102C70008083F801E75AFF4F8081F701BF97808377
:102C8000F801E65AFF4F8081F701BE978083F70174
:102C90008789908DA18DB28DF801878B908FA18F40
:102CA000B28FF4E4EF0EF11C0C5B1F4F97CF01972E
:102CB000909335068093340626962FAD26972150A3
:102CC00026962FAF269794C2DC01AA5CB94F4D011E
:102CD000CD010E94610CC4010E94410BF801678D77
:102CE00070A181A192A10E94522CCB0168E671E0F3
:102CF0000E945C2EBC01990F880B990B0E948A2CB4
:102D00006B017C0120E030E0A9010E94D62B87FFF7
:102D10000AC020E030E044EB53E4C701B6010E9452
:102D2000F82A6B017C01B29C8001B39C100D112428
:102D30000C5C194FD8015F96CD92DD92ED92FC921A
:102D4000929720E030E044EB53E4C701B6010E94C3
:102D5000E02B6B017C01F801648570E080E090E07D
:102D60000E948A2C9B01AC01C701B6010E94AD2DC7
:102D70000E94592CD8011D966C931D979396CD9067
:102D8000DD90ED90FC90969720E030E0A901C7011E
:102D9000B6010E94A02D181634F4F80127A930AD11
:102DA00041AD52AD0DC020E030E040E850E4F80104
:102DB00067A970AD81AD92AD0E94AD2D9B01AC01B4
:102DC000C701B6010E94F82AD80193966D937D93AE
:102DD0008D939C939697B29C8001B39C100D112407
:102DE0000C5C194FF801C7A0D0A4E1A4F2A4A7017C
:102DF000960163A174A185A196A10E94A02D181629
:102E00003CF4D8019396CD92DD92ED92FC92969788
:102E1000B29C6001B39CD00C1124F601EC5CF94F1C
:102E20007F018189A9EFAA2EA80E10891850209140
:102E300068013091690140916A0150916B01608590
:102E40007185828593850E94F72A20E030E040E872
:102E500050E40E94F82A0E94522C2B013C01209140
:102E60006401309165014091660150916701D7017D
:102E700014966D917D918D919C9117970E94F72AE0
:102E800020E030E040E850E40E94F82A0E94522CF2
:102E9000DC01CB0100E02A2D412FB2010E949D1DD3
:102EA000F701458568E772E0C601885C994F0E948A
:102EB000210C8091AB079091AC076AE070E00E9412
:102EC000482E892B39F4F701EF5BFF4F908181E0A9
:102ED00089278083B29C8001B39C100D11240C5C67
:102EE000194FF801EF5BFF4F8081882309F45CC024
:102EF000209168013091690140916A0150916B0104
:102F0000D80118966D917D918D919C911B970E948F
:102F1000F72A6B017C01F8016189669570E080E019
:102F200090E00E948A2C9B01AC01C701B6010E946F
:102F3000F82A20E030E040EC50E40E94F72A0E949A
:102F4000522C6B017C01209164013091650140910C
:102F5000660150916701D80114966D917D918D9114
:102F60009C9117970E94F72A2B013C01F801608978
:102F7000669570E080E090E00E948A2C9B01AC0195
:102F8000C301B2010E94F82A20E030E040E850E49A
:102F90000E94F72A0E94522CDC01CB0101E023E0C1
:102FA00047E0B6010E949D1DB29CC001B39C900DEC
:102FB00011249C012C5C394F3901D90118962D91AF
:102FC0003D914D915C911B9714966D917D918D91E2
:102FD0009C911797AA24A394CC24C3945196EC9067
:102FE000519750960C910E94280D809132068823AB
:102FF00089F0F401E688F788008D118D228D338DDC
:10300000D301DF964C91DF971F966C9184EF95E08A
:103010000E942D0AC090FA05D090FB05E090FC05B7
:10302000F090FD054090F6055090F7056090F8058A
:103030007090F905B29C8001B39C100D11240C5CBA
:10304000194FF80123A934A945A956A963A174A170
:1030500085A196A10E94A02D18160CF0A0C0D80141
:1030600014966D917D918D919C9117970E94522C91
:103070002D966CAF7DAF8EAF9FAF2D97C301B20180
:103080000E94522C2B96EEADFFAD2B97E61BF70B53
:10309000BF01072E000C880B990B0E948A2C9B0104
:1030A000AC01C701B6012E962FAF2E972F963FAFDA
:1030B0002F9760964FAF609761965FAF61970E94C0
:1030C000522C6B017C01D80118966D917D918D91E8
:1030D0009C911B970E94522CF601E61BF70BBF0137
:1030E000072E000C880B990B0E948A2C2E962FAD70
:1030F0002E972F963FAD2F9760964FAD60976196B4
:103100005FAD61970E94772BD8015F964D905D90DF
:103110006D907C90929720E030ED4FE557E40E944F
:10312000AD2D20E030E04AE754E40E94E02B20E09F
:1031300030E044E353E40E94F82A0E94522C6B01D1
:103140007C01C301B2010E94522CC601861B970B61
:1031500068E671E00E945C2E845E9D4F68E671E037
:103160000E945C2EBC01645B7109072E000C880B69
:10317000990B0E948A2CF80127A530A941A952A9D0
:103180000E94AD2D9B01AC01C301B2010E94F82A3F
:10319000D8015F966D937D938D939C939297D12CDC
:1031A0008D2D90E0209134063091350682179307DB
:1031B000FCF42696BFAD2697DB16C1F0B89ED00171
:1031C000B99EB00D1124FD01EA5CF94FAC5CB94F1A
:1031D000E688F788008D118D228D338DDF964C9116
:1031E000DF971F966C91C4010E942D0AD394D8CF0B
:1031F0002696EFAD2697EF5F2696EFAF26971CCC6D
:103200002091CD053091CE054091CF055091D0054C
:103210006091C9057091CA058091CB059091CC054C
:10322000AA24A394E2E0CE2EE090D6050091D50525
:103230000E94280D2091A0053091A1054091A20582
:103240005091A30560919C0570919D0580919E050C
:1032500090919F05A12CE090A9050091A8050E94DE
:10326000280D4AE09E012F5F3F4F7901B9018091FF
:103270006C0190916D010E94492AB12C12E0F6E098
:103280008F2E912CF70101900020E9F73197EE196C
:10329000FF098B2D90E094012E1B3F0B82179307A3
:1032A00068F40AEF20E04EEF51E062E070E0812F19
:1032B00090E00E94F81E1B5FB394E4CF00E0F7019A
:1032C00001900020E9F73197EE19FF09802F90E077
:1032D0008E179F0780F4F701E80FF91F2081205314
:1032E0004EEF51E062E070E0812F90E00E94AE2549
:1032F0001B5F0F5FE4CF0FB6F894DEBF0FBECDBFEC
:1033000060910306669570E080E090E00E948A2C50
:103310002091FA053091FB054091FC055091FD0587
:103320000E94F82A2B013C01809102068695682FA5
:1033300070E080E090E00E948A2C2091F6053091A8
:10334000F7054091F8055091F9050E94F82A4B01C4
:103350005C018091640190916501A0916601B0913A
:10336000670129968CAF9DAFAEAFBFAF299720E024
:1033700030E048E552E4BC01CD010E94F82AA501E5
:1033800094010E94A02D18163CF420E030E048E59E
:1033900052E4C501B40124C020E030E040E053E431
:1033A00029966CAD7DAD8EAD9FAD29970E94F82A10
:1033B00020E030E048E552E40E94F72AA50194019C
:1033C0000E94D62B87FF16C020E030E048E552E48B
:1033D000C501B4010E94F82A20E030E040E053E447
:1033E0000E94F72A609364017093650180936601DF
:1033F000909367018090640190906501A0906601B0
:10340000B090670120E030E0A901C501B4010E943D
:10341000D62B87FF09C010926401109265011092AB
:103420006601109267011CC020E030E040E053E4E8
:10343000C501B4010E94F82A20E030E04AEF53E4CD
:103440000E94A02D181664F480E090E0AAEBB3E48B
:103450008093640190936501A0936601B093670126
:103460008090680190906901A0906A01B0906B0112
:1034700020E030E048ED51E4C501B4010E94F82A93
:10348000A30192010E94A02D18163CF420E030E028
:1034900048ED51E4C301B20120C020E030E040E833
:1034A00052E4C501B4010E94F82A20E030E048ED62
:1034B00051E40E94F72AA30192010E94D62B87FFB4
:1034C00016C020E030E048ED51E4C301B2010E9493
:1034D000F82A20E030E040E852E40E94F72A6093A6
:1034E00068017093690180936A0190936B01409029
:1034F00068015090690160906A0170906B0120E052
:1035000030E0A901C301B2010E94D62B87FF09C098
:10351000109268011092690110926A0110926B0179
:103520001CC020E030E040E852E4C301B2010E9438
:10353000F82A20E030E04AEF53E40E94A02D18164C
:1035400064F480E090E0AAEDB3E480936801909386
:103550006901A0936A01B0936B01809132068111D9
:1035600078C0609101016A3124F46F5F60930101BA
:1035700065C08091AB079091AC0764EF70E00E944A
:10358000482E892B09F058C01092020181E08093E7
:1035900003011092040110920501C7010E946A11F3
:1035A000B70184EF95E00E94DC098AA59BA5ACA534
:1035B000BDA580931D0690931E06A0931F06B09391
:1035C00020068EA59FA5A8A9B9A98093210690934E
:1035D0002206A0932306B09324068AA99BA9ACA92E
:1035E000BDA98093250690932606A0932706B09345
:1035F00028068EA99FA9A8ADB9AD809329069093FE
:103600002A06A0932B06B0932C068AAD9BADACADD9
:10361000BDAD80932D0690932E06A0932F06B093F8
:1036200030068EAD809331068FAD809332062196A1
:103630008FAD21978093330660910101062E000C17
:10364000770B8091000120E048EF50E090E00E946D
:10365000AE250E94BF1DC05BDF4F0FB6F894DEBFE2
:103660000FBECDBFDF91CF911F910F91FF90EF90D3
:10367000DF90CF90BF90AF909F908F907F906F9092
:103680005F904F903F902F90089580916C019091A2
:103690006D01019690936D0180936C0158C9CF9292
:1036A000DF92EF92FF920F931F93CF93DF936C0102
:1036B0007A018B01C0E0D0E0CE15DF0589F0D8019A
:1036C0006D918D01D601ED91FC910190F081E02D7D
:1036D000C6010995892B11F47E0102C02196ECCF19
:1036E000C701DF91CF911F910F91FF90EF90DF9075
:1036F000CF9008953FB7F8948091790190917A0125
:10370000A0917B01B0917C0126B5A89B05C02F3FFD
:1037100019F00196A11DB11D3FBFBA2FA92F982FF7
:103720008827820F911DA11DB11DBC01CD0142E072
:10373000660F771F881F991F4A95D1F708958091CA
:103740008501E0918301F0918401882349F0CF0144
:1037500002969093840180938301859194910895BA
:10376000CF0102969093840180938301808191819F
:103770000895CF92DF92EF92FF920F931F93CF9312
:10378000DF930E949F1B811520E8920761F48091CE
:1037900071008D7F80937100109291004698479838
:1037A000109271018BC021E020937101813020E8DB
:1037B000920751F48091810190918201909384014C
:1037C000809383010E949F1B97FD05C0209170018B
:1037D000222309F43FC020916F0121113BC021E059
:1037E00020937201EC01DF77209769F481E08093E8
:1037F000730146983FE9C32E3FE0D32EE12CF12C14
:10380000CAEFD0E014C08E0120E030E060E472E442
:103810008FE090E0A90198010E94942A69017A0141
:1038200081E0C81AD108E108F10810927301E09113
:103830009805F09199050995811103C081E0809365
:103840007301809172018823B9F180917301811114
:1038500033C003C010927201C5CF46992DC0479A5C
:103860000E949F1B009771F09C01DE010E94E82AD4
:10387000DC01CB0129E0B595A795979587952A9509
:10388000D1F703C08FEF9FEFDC01109290002AE088
:1038900020939100D0929900C09298008093740177
:1038A00090937501A0937601B09377018091710098
:1038B00082608093710002C04798D2CFDF91CF9190
:1038C0001F910F91FF90EF90DF90CF9008950E948D
:1038D000762ECF93DF9300D000D0CDB7DEB7611541
:1038E00071058105910579F09B01AC0169833A83EB
:1038F0004B835C830E943B2A29813A814B815C8106
:103900000E94942A03C060E070E0CB010F900F90FA
:103910000F900F90DF91CF9108958F929F92AF9269
:10392000BF92CF92DF92EF92FF926B017C010E94D7
:103930007A1B4B015C01C114D104E104F104F1F0E4
:103940000E947A1BDC01CB0188199909AA09BB09DD
:10395000883E9340A105B10570F321E0C21AD10859
:10396000E108F10888EE880E83E0981EA11CB11CC6
:10397000C114D104E104F10419F7DDCFFF90EF90F9
:10398000DF90CF90BF90AF909F908F9008951F923F
:103990000F920FB60F9211242F933F938F939F9303
:1039A000AF93BF9380917D0190917E01A0917F01A3
:1039B000B09180013091780123E0230F2D3720F45E
:1039C0000196A11DB11D05C026E8230F0296A11D79
:1039D000B11D2093780180937D0190937E01A09387
:1039E0007F01B09380018091790190917A01A0913B
:1039F0007B01B0917C010196A11DB11D80937901DD
:103A000090937A01A0937B01B0937C01BF91AF9119
:103A10009F918F913F912F910F900FBE0F901F900C
:103A200018951F920F920FB60F9211242F933F9368
:103A30004F935F936F937F938F939F93AF93BF93B6
:103A4000EF93FF938091740190917501A09176019D
:103A5000B0917701892B8A2B8B2B81F18091730197
:103A600081110BC098B180E4892788B980917201D7
:103A7000882319F088B1805888B980917401909199
:103A80007501A0917601B0917701181619061A06F2
:103A90001B06B4F48091740190917501A091760198
:103AA000B09177010197A109B109809374019093B6
:103AB0007501A0937601B093770102C00E94B91BF3
:103AC000FF91EF91BF91AF919F918F917F916F91F6
:103AD0005F914F913F912F910F900FBE0F901F90CC
:103AE0001895DF92EF92FF920F931F93CF93DF937E
:103AF0007C01D22E8B01040F111DEB0177FF0EC04C
:103B0000C0E0D0E00BC0C417D5077CF42D2DAE016A
:103B1000B70188EA97E00E944F262196A801013458
:103B200011058CF340E450E0EECFDF91CF911F916F
:103B30000F91FF90EF90DF900895CF92DF92EF9278
:103B4000FF920F931F93CF93DF936B01122FEC0122
:103B50007C01E40EF11CCE15DF0544F4202F412F2B
:103B6000B601CE010E94711D2196F5CFDF91CF9154
:103B70001F910F91FF90EF90DF90CF900895EAE8AA
:103B8000F1E081E0A0E0B8E000800EBC8111012CE2
:103B90001197A0FDFDCF0192B9F70DB408952F92B2
:103BA0003F924F925F926F927F928F929F92AF92CD
:103BB000BF92CF92DF92EF92FF920F931F93CF931A
:103BC000DF93CDB7DEB72B970FB6F894DEBF0FBEED
:103BD000CDBF4C016B015A8349831C821B821D821D
:103BE0001E8268E070E0CE0101960E940A260196CE
:103BF0001C0168E070E0CE0101960E940A268C014B
:103C000061E070E0CE0101960E940A26482FC401AF
:103C1000820D931D97FDD3C050E8851691040CF0DA
:103C2000CEC098012F5F3F4FC601820F931F97FDB3
:103C3000C6C060E4C616D1040CF0C1C08601D7FE30
:103C400004C0002711270C191D09077011277601E0
:103C5000D7FE03C077E0E70EF11C63E0F594E7942C
:103C60006A95E1F7D7FE09C081E0E81AF10888E01B
:103C700090E0BC01601B710B8B01690137FF03C031
:103C800077E0C70ED11C53E0D594C7945A95E1F75D
:103C900027703327232B19F08FEFC81AD80A4F83C8
:103CA00031E020E0A12CB12C612C712C88E090E057
:103CB000AC01401B510B598748876C147D040CF0F4
:103CC0007EC044244394512C61E070E0CE01019603
:103CD0002A873B870E940A262A853B85892B21F467
:103CE00052E0450E511CF0CFB201CE0101960E9468
:103CF0000A26AC014F5F5F4FE0E0F0E02A853B858C
:103D0000E417F50708F052C06F816111232B330FC0
:103D100009F04AC0B701660D771DCB0101960997DE
:103D200098F5C501880D991D8038910568F52B011E
:103D30005694542C442457944794480C591C4A0CCC
:103D40005B1C6F3F8FEF7807B1F1D201A657BE4FD2
:103D5000822F002E01C0880F0A94EAF79C91892BCC
:103D60008C930115110581F06730710569F0D2015E
:103D7000A65FBD4F30E0088402C0359527950A94B0
:103D8000E2F78C91282B2C939FEFA91AB90AA21461
:103D9000B30444F06FEF661A760A31E020E0A12CFC
:103DA000B12C02C031E020E03196AACF4F8151E022
:103DB00045274F8382CF01151105C9F6E5CF2B9614
:103DC0000FB6F894DEBF0FBECDBFDF91CF911F912C
:103DD0000F91FF90EF90DF90CF90BF90AF909F90AA
:103DE0008F907F906F905F904F903F902F900895AD
:103DF0006F927F928F929F92AF92BF92CF92DF92FB
:103E0000EF92FF920F931F93CF93DF9300D000D0D8
:103E1000CDB7DEB7DC014115510509F4E8C1FA015F
:103E20001491319694916A01F2E0CF0ED11CE12EEB
:103E3000F12C222309F1492F469546954695E42F0A
:103E4000F0E041E050E0892F877011F440E050E04D
:103E50004E0F5F1FE49EF001E59EF00DF49EF00D05
:103E60001124033011F4EE0FFF1F2E9FA0012F9F8E
:103E7000500D1124C40ED51E0F3F09F402E0AD0110
:103E80004E0D5F1D141615060CF0B1C1A038B1051A
:103E90000CF0ADC19B01290F311D121613060CF059
:103EA000A6C1603471050CF0A2C1C114D10409F49B
:103EB0009EC1362F3770FB0177FD379623E0F595CD
:103EC000E7952A95E1F72E2F77FF04C0332311F0F1
:103ED0002FEF2E0FB7FF05C0662777276A1B7B0BD6
:103EE00002C060E070E04038510524F050E85A1BF1
:103EF000952E01C0912E961AA22E022E000CBB0800
:103F00002F3F1CF48A2D809501C080E041E0592F9D
:103F1000577009F440E0969596959695940FA90EE2
:103F2000B11C49E0A416B10414F098E0921B981B50
:103F3000280F40E82403A00DB11D1124A60FB71FC0
:103F4000819F600D711D11243601660E771E41E0C0
:103F500050E06A01032E02C0CC0CDD1C0A94E2F78B
:103F6000033009F400C1A0F4013009F4B1C00230FB
:103F700009F03DC18FEF8C9DB0018D9D700D112416
:103F8000609570957C836B838C80492F420F29C08C
:103F90000A3F31F00B3F09F02AC1492F420F84C07C
:103FA000492F420F4FC0F301E00FF11FE491EC9D48
:103FB0005001ED9DB00C1124BA82A98227FD05C0E5
:103FC000FC0150815623A52AA082311113C00F5F36
:103FD0001F4F0196091538F32F5F6E0C7F1CA058F8
:103FE000BF4F241709F403C1CD0186579E4F00E04F
:103FF00010E0F0CF27305CF7FC01E058FF4F508114
:104000005821BA805B295083E2CFF301E60FF71FF6
:10401000E491EC9D8001ED9D100D11241A8309831C
:1040200027FD04C0FC015081052B0083311113C012
:104030006F5F7F4F0196691540F32F5F6E0C7F1CF9
:10404000A058BF4F241709F4D2C0CD0186579E4F08
:1040500060E070E0F0CF27305CF7FC01E058FF4FE4
:1040600010815A81512B5083E3CFF301E00FF11FF0
:10407000E491EC9DC001ED9D900D11249A838983FC
:1040800027FD05C08095FB01908189238083311134
:1040900014C00F5F1F4F6F5F7F4F091530F32F5F05
:1040A0006E0C7F1CA058BF4F241709F4A0C0BD019F
:1040B00066577E4F00E010E0F0CF273054F7FB0149
:1040C000E058FF4F8A818095908189238083E1CFDA
:1040D000892E820EA301CB0186199709281509F4B0
:1040E00086C0BD0166577E4F5B0100E010E00915F8
:1040F000A0F5F801E80FF91FE40FF51FE491EC9D1E
:10410000B001ED9D700D1124609570957C836B83DB
:10411000FA01E00FF11FE491EC9D3001ED9D700C70
:1041200011247A82698227FD05C0F5017081672319
:10413000662A6082332359F027304CF4F501E058A9
:10414000FF4F70816C8167237A81672B60830F5FDB
:104150001F4FFFEFAF1ABF0ACACF2F5F4E0D5F1D73
:10416000A058BF4FBBCFA92CB12CF301E60FF71F0E
:10417000A657BE4F60E870E06A197B09EA18FB0891
:104180008701000F111F592D492F792CE32ECF9352
:10419000DF93ED01EF96EF9622968590A590EE20A5
:1041A00059F08C9C4001AC9C500127302CF4F880D5
:1041B000B094FB20F928F99222233AF0FC90A094C5
:1041C000FA20F828FD920C94E62011965A9529F7CA
:1041D0004A9551F0572D23951124E00FF11DA60F9C
:1041E000B11DC60FD11DD9CFDF91CF9111240F90F2
:1041F0000F900F900F90DF91CF911F910F91FF9033
:10420000EF90DF90CF90BF90AF909F908F907F9076
:104210006F9008952091AE07282329F49091AD075F
:10422000982381E009F480E0089565E070E080E083
:1042300090E00C948D1CFC0180918901811103C0D8
:104240008FEF9FEF08959FB7F89482E08093E90085
:104250002091F20030E01216130614F421E030E051
:104260002115310559F0289884E6809388018091C2
:10427000F10080838091F200882319F09FBFC9016B
:1042800008958BE68093E800F9CF2FB7F89483E088
:104290008093E9009091E800892F807295FF04C017
:1042A0009091F20080E4891B2FBF08958F929F9216
:1042B000AF92BF92CF92DF92EF92FF920F931F9334
:1042C000CF93DF935C016B017A0180911101882308
:1042D00009F45BC080918901882309F456C080915C
:1042E000870180FF05C08091E00082608093E0003C
:1042F000E70110E00AEF83E0882E9AE3992E2097D9
:10430000D9F10E94452181110AC0015009F43DC034
:1043100061E070E080E090E00E948D1CF0CF282FDB
:1043200030E0C217D3070CF48C2F4FB7F89480926B
:10433000E9009091E80095FF1DC0282F30E0C21BD6
:10434000D30BF601982F915020F081918093F100CA
:10435000FACFC20ED31E112319F09092E80009C0C3
:104360008091E80085FD06C09092E80011E020975A
:1043700009F010E04FBFC3CF1111C3CF5D9884E6A1
:10438000809386011E141F0444F081E090E0F50143
:104390009383828380E090E001C0C701DF91CF91D9
:1043A0001F910F91FF90EF90DF90CF90BF90AF9053
:1043B0009F908F9008958091B70781110DC082E082
:1043C0008093B30784E08093B4071092B6071092ED
:1043D000B50781E08093B70783EB97E00895CF930B
:1043E000DF931F92CDB7DEB76983DC01ED91FC91BD
:1043F0000280F381E02D41E050E0BE016F5F7F4F0E
:1044000009950F90DF91CF91089583E08093E900A3
:104410008091F200882319F08AE38093E8000895E0
:10442000FC018485958597FD0BC09FB7F89482E0C9
:104430008093E9008091F2009FBF90E0019608957B
:104440009FB7F89482E08093E9008091F2009FBFCB
:1044500090E008954091130850911408209111089C
:104460003091120842175307B4F49091E800957008
:10447000E1F39091E80092FD19C08093F1008091E2
:1044800013089091140801968F739927892B19F4BA
:104490008EEF8093E80080911308909114080196A4
:1044A000909314088093130881E0089580E00895A4
:1044B000DF92EF92FF920F931F93CF93DF93D82E4B
:1044C0008A017B01E40EF51EEB01CE15DF0571F0CC
:1044D000D7FE03C0FE01849101C088810E942A2278
:1044E00021968111F2CF8FEF9FEF01C0C801DF91BC
:1044F000CF911F910F91FF90EF90DF900895615041
:1045000030F02091F100FC0120830196F8CF28982B
:1045100084E68093880108950E94452190E00895E3
:10452000CF93DF931F92CDB7DEB7FC0184859585CD
:1045300097FD05C02FEF3FEF358724870BC0CE01D5
:1045400001960E941B21019719F4898190E002C015
:104550008FEF9FEF0F90DF91CF9108950F931F93EF
:10456000CF93DF931F92CDB7DEB78C01FC0184851A
:10457000958597FF0EC0CE0101960E941B210197E1
:1045800019F4298130E002C02FEF3FEFF8013587A1
:104590002487F801848595850F90DF91CF911F9135
:1045A0000F9108950F931F93CF93DF931F92CDB771
:1045B000DEB782E0898342E450E06FE572E180E893
:1045C0000E9458220E94DB21DC0112960D911C9161
:1045D00013970115110569F0D801ED91FC91028046
:1045E000F381E02DBE016F5F7F4FC801099597FFF2
:1045F00007C089810F90DF91CF911F910F9108958E
:10460000F80100851185E5CF1F920F920FB60F922A
:1046100011248F939F938091E1009091E100937F0B
:104620009093E10083FF0FC01092E90091E0909316
:10463000EB001092EC0092E39093ED001092890150
:1046400098E09093F00082FF20C093E09093E900FF
:104650009091F200992319F09AE39093E8009091D9
:104660008601992339F090918601915090938601AB
:10467000992389F190918801992339F090918801CB
:10468000915090938801992341F184FF10C080914B
:10469000E2008E7E81608093E2008091E1008F7E57
:1046A0008093E100809187018E7E806111C080FF40
:1046B00016C08091E2008E7E80618093E20080913E
:1046C000E1008E7E8093E100809187018E7E816083
:1046D0008093870104C05D9ACDCF289AD6CF9F9151
:1046E0008F910F900FBE0F901F9018951F920F92F1
:1046F0000FB60F921124CF92DF92EF92FF920F9399
:104700001F932F933F934F935F936F937F938F9359
:104710009F93AF93BF93EF93FF93CF93DF93CDB767
:10472000DEB76C97DEBFCDBF1092E9008091E80044
:1047300083FFEDC168E0CE0145960E947F2282EFA3
:104740008093E8008D8987FF05C09091E80090FF75
:10475000FCCF03C09EEF9093E800982F907609F06D
:10476000C6C09E892F89188D91110CC0803829F4FC
:10477000809110088093F10002C01092F100109215
:10478000F10048C1422F50E0512B913051F481117A
:1047900041C14130510509F03DC1809110088D7F24
:1047A0000BC0933061F4811135C14130510509F0DE
:1047B00031C1809110088260809310082BC1953020
:1047C00041F48091E80080FFFCCF20682093E30053
:1047D00021C1963009F05FC0EB8CFC8C1092E9008F
:1047E0001092140810921308123091F510921208CA
:1047F000109211080E94D22299E0BE016F5F7F4F94
:10480000DB01E92F1D92EA95E9F799831A8391E07C
:104810009E8390EA98879AEF9987209113083091A8
:104820001408275F3F4F3C832B838D831092E90050
:104830001092140810921308F0921208E0921108D6
:1048400049E050E080E00E9458220E94D222E2C05B
:10485000F0921208E09211080E94DB21DC0112960E
:10486000ED90FC901397E114F10409F4C0C0D70156
:10487000ED91FC910480F581E02DBE016B5E7F4FD0
:10488000C7010995009719F00CF0C4C0C7C0F70123
:10489000E084F184E8CF973009F4C0C0983021F467
:1048A00081E08093F100B6C0993009F0B3C0837005
:1048B00009F0B4C0EDE5F1E081E021E036E390815C
:1048C000992361F08093E9002093EB0091919093FC
:1048D000EC003093ED008F5F873089F78EE780938F
:1048E000EA001092EA008F898093890193C08B8D32
:1048F0009C8D1092E9001092140810921308909366
:10490000120880931108898D811156C08E899D8966
:10491000913A59F4813209F081C047E050E06AE0F1
:1049200071E080E00E94582275C0913209F076C093
:10493000833289F4888D90E0982F88272F89822BE5
:10494000A0E0B0E08093120190931301A0931401B2
:10495000B09315015FC0803269F48091E80082FF56
:10496000FCCF67E08AE091E00E947F228BEF80938A
:10497000E80006C0823209F04DC08F898093110192
:1049800080910F08882319F0EEEFFAE002C0E0E012
:10499000F8E080910A0190910B01A0910C01B09177
:1049A0000D01803B9440A105B10509F07BC08091C9
:1049B000110180FF93C076C00E94DB21DC011296BA
:1049C0000D911C9113970115110541F1D801ED913D
:1049D000FC910190F081E02DBE016B5E7F4FC8011C
:1049E0000995811117C0F80100851185ECCF1130B0
:1049F00009F44EC0133091F48F89882309F445C01F
:104A0000823081F440E860E183EC92E10E94B029B9
:104A1000882321F08EEF8093E80079C081E28093B3
:104A2000EB0075C0813029F440E86BE087EB92E140
:104A3000EDCF833099F70E94DB21DC011296ED90D7
:104A4000FC9013978E010F5F1F4F6801E114F10472
:104A500079F0D701ED91FC910680F781E02DB80146
:104A6000C7010995080F111DF701E084F184EECF0D
:104A7000D8011C92F60101900020E9F73197BF019F
:104A80006C197D0940E0C601C1CF61EA72E102C044
:104A900065EA72E16115710509F2FB01449150E08C
:104AA00080E840CF0FB6F894A895809160008861A7
:104AB00080936000109260000FBEA895EE3F2AE040
:104AC000F20739F08091FE0A9091FF0A918380836A
:104AD000A1CF1092FF0A1092FE0A9CCFEE3F8AE00F
:104AE000F80731F0808191819093FF0A8093FE0A4C
:104AF00087E797E7918380839BE088E10FB6F8947E
:104B0000A895809360000FBE9093600083CF6C9651
:104B10000FB6F894DEBF0FBECDBFDF91CF91FF91EE
:104B2000EF91BF91AF919F918F917F916F915F9125
:104B30004F913F912F911F910F91FF90EF90DF9038
:104B4000CF900F900FBE0F901F90189580916E011F
:104B500008950895089580E090E008950F9303E08C
:104B60000E94F81E0F9108958FB18095807F669BFB
:104B700088601C9B8460089510926E013E983F9857
:104B800008953E9A3F9A81E080936E010895FC015A
:104B9000840F911D18161906E4F5E038F105CCF5DF
:104BA000F7FF02C0E0E0F0E08138910514F080E802
:104BB00090E0382F3E1BAB0177FF02C0495F5F4F8B
:104BC00083E0559547958A95E1F75695542F4427EC
:104BD00057954795E40FF51FE657FE4F6770772707
:104BE00081E090E001C0880F6A95EAF7482F222300
:104BF00049F0213071F4315020F08081842B819371
:104C0000FACF08958095315020F0908198239193A8
:104C1000FACF08951F93CF93DF93DC0120E030E0BB
:104C200040E050E011E0C1E0D0E02617370791F1F5
:104C300014968C911497811115C014961C93149797
:104C400012968D919C911397ED91FC911197E80F1D
:104C5000F91FE4911596EC931597019613969C9382
:104C60008E93129714969C91149715968C91159784
:104C7000892349F0FE01022E02C0EE0FFF1F0A94A5
:104C8000E2F74E2B5F2B990F14969C9314972F5F8E
:104C90003F4FCBCFCA01DF91CF911F91089560386C
:104CA0007105D0F440345105B8F4E4EDF2E180E14F
:104CB000849FD001A0781124A60F4770E40FF11D46
:104CC0008491A657BE4F222319F06C91862B03C006
:104CD00080956C9186238C930895CF93DF9300D0B9
:104CE0001F92CDB7DEB7789484B5826084BD84B559
:104CF000816084BD85B5826085BD85B5816085BDD7
:104D000080916E00816080936E001092810080918E
:104D10008100826080938100809181008160809316
:104D2000810080918000816080938000809191005B
:104D300082608093910080919100816080939100C6
:104D4000809190008160809390008091C100846088
:104D50008093C1008091C10082608093C1008091E6
:104D6000C10081608093C1008091C3008160809305
:104D7000C3008091C00082608093C0008091C20017
:104D800081608093C20080917A00846080937A0071
:104D900080917A00826080937A0080917A008160AD
:104DA00080937A0080917A00806880937A001092D4
:104DB000890110921008109287018091D7008160BC
:104DC0008093D70080EA8093D80089B5806189BD3F
:104DD00089B5826089BD09B400FEFDCF61E070E055
:104DE00080E090E00E948D1C8091D8008F7C8061D3
:104DF0008093D8008091E000807F8093E0008091D4
:104E0000E1008E7E8093E1008DE08093E200559A70
:104E1000209AEEEFFFE7859194918B3F9C4D19F41A
:104E200081E080930F0881EC80937C0085B1806FD6
:104E300085B984B1877E84B984B1876E84B95E9A5E
:104E40005F988AB1806D8AB9769A6E9881B3806FC7
:104E500081BB899880B38D7080BB80E58CBD81E07B
:104E60008DBD0E9415215F9A0E9415215E985C9865
:104E7000E2E5FAE08DE08E0F94919EBD00000DB446
:104E800007FEFDCF31968E13F7CF5C9A81E88093B1
:104E90006400809165008160809365000E94B42564
:104EA000803839F42E988091640080628093640089
:104EB000FFCF82E090E00E947E2A882319F00E94B2
:104EC000C12502C00E94BC25212C60E8362E7AE85C
:104ED000E72E75E0F72EE6E1CE2EE4E0DE2EF2E3DB
:104EE000AF2EB12CADE28A2EA8E09A2EB4E66B2E3E
:104EF000712C5524539459E1452E8FB7F894409165
:104F00007D0150917E0160917F01709180018FBF82
:104F10008091B007342F381B832F9091B1079923CC
:104F200029F03093B2071092B10734C19091AF07C6
:104F3000391740F48F5F891708F02CC153BE88954C
:104F400013BE28C15092B1074093B0078091AB07C0
:104F50009091AC0701969093AC078093AB0780913A
:104F6000AD078093AE070E94B4258093AD07809172
:104F70000601811110C00E94B42586FD0CC012C12B
:104F80008091AB079091AC0766E970E00E94482ED3
:104F9000892B09F018C150920601809102018111FC
:104FA000F7C080910401811117C080E20E940A219C
:104FB000882331F080910301882371F081500AC069
:104FC00080E40E940A21882339F080910301833014
:104FD00018F48F5F8093030184E00E940A218823E4
:104FE00009F44FC080910301813061F58091640024
:104FF0008E7F8093640080917A00806480937A0031
:1050000080917A0086FDFCCF0091780010917900A4
:105010000E947A1B20E030E0980111270027600FE2
:10502000711F821F931F611571058105910511F094
:105030000E94402A809164008160809364005092B5
:105040000201A6C08330C1F480916E01882319F05B
:105050000E94BC2502C00E94C12560916E0182E0C1
:1050600090E069830E947E2A6981681781F082E05E
:1050700090E00E94862A0BC08093050150920401A3
:1050800006C088E00E940A218111109204018091DB
:105090000401811167C04EE05FE060E070E080E0F5
:1050A00090E00E94CF1D80910301849D802D1124EA
:1050B000815F282F30E03B832A8301E02AE047E12B
:1050C00067E370E08A819B810E949D1D0A811B819C
:1050D0000150110920E049E166E370E0C8010E9437
:1050E000C72520E04BE066E370E0C8010E94711D17
:1050F00020E04BE066E370E08A819B8147960E9446
:10510000711D20E042EE5EE068E370E080E190E037
:105110000E94AE2520E046EB5EE068E370E089E2A5
:1051200090E00E94AE2520E04AE85EE068E370E08F
:1051300082E490E00E94AE2520E04CE65EE068E369
:1051400070E08BE590E00E94AE2520916E0142E573
:105150005EE068E370E08AE690E00E94AE250E947F
:10516000BF1D18C080910501811109C04FEC5CE0A2
:1051700060E070E080E290E00E94CF1DF0CF8230CE
:1051800071F743ED5BE060E070E080E090E0F4CF29
:105190000E94DB1180E090E0892B09F4AECE0E94E2
:1051A0000000A7CE6091090165300CF0E9CE6F5F79
:1051B00060930901062E000C770B809108014AEDDF
:1051C0005AE090E0D9CF80910701811127C08091EA
:1051D00071008D7F8093710010928501F09284019F
:1051E000E0928301F0928201E0928101D0928B05DE
:1051F000C0928A05B0928D05A0928C0590928F0581
:1052000080928E0570929105609290053092930580
:10521000209292050E94B91B5092070160910901EA
:10522000062E000C770B809108014AED5AE090E0C1
:105230000E94CF1D60910901062E000C770B675E5E
:105240007F4F8091080190E002E020E041ED5AE0BC
:1052500080960E94F81E00E025E040E86FE270E0D2
:105260008EE190E00E949D1D4FE55AE06EE270E0F5
:105270008EE190E081CF0F931F93CF93DF93109235
:10528000C2071092C10788EE93E0A0E0B0E08093DF
:10529000C3079093C407A093C507B093C60782E4E1
:1052A00091E09093C0078093BF078FEF9FEF90939B
:1052B000CC078093CB078AE591E09093A907809370
:1052C000A8071092AD071092AE0780E18093AF0758
:1052D0001092AC071092AB071092B10786EA95E2E4
:1052E000909399058093980580E090E890939705B6
:1052F0008093960546983E9A47983F9A10920307E6
:1053000010920207C4E0D7E004E511E0CE010E944C
:10531000590F19830883A99687E0C83AD807B1F7CF
:10532000109235061092340686E396E00E94BD1076
:105330008AE796E00E94BD108EEB96E00E94BD10B9
:1053400084EF95E00E946A1187EC95E00E94C00FFF
:105350008AE995E0DF91CF911F910F910C94850F11
:10536000CF92DF92EF92FF920F931F93CF93DF9331
:105370001F92CDB7DEB7182F062FE42E862F880F89
:105380008E5F99830E942A2283E00E942A22F12EB6
:10539000C12E9981D92E8C2D8F19801798F4F60182
:1053A000E7FE02C0849101C080810E942A22182F4A
:1053B00080E00E942A228123FFEFCF1ADF0A8111A9
:1053C000EACF01C081E00F90DF91CF911F910F9143
:1053D000FF90EF90DF90CF9008958F929F92AF92C1
:1053E000BF92CF92DF92EF92FF92CF93DF93EC01C7
:1053F000688179818A819B8161157105810591059B
:1054000021F464E279ED8BE597E02DE133EF41E0A3
:1054100050E00E94942A49015A019B01AC01A7EA7D
:10542000B1E40E94B32A6B017C01ACEEB4EFA5019C
:1054300094010E94C12ADC01CB018C0D9D1DAE1D83
:10544000BF1DB7FF03C00197A109B04888839983A6
:10545000AA83BB83BC01CD019F77DF91CF91FF90E1
:10546000EF90DF90CF90BF90AF909F908F90089576
:105470000E94ED29089586E191E00E94ED290895AA
:10548000609316017093170180931801909319018E
:105490000895BB274A3031F4992322F4BDE2909558
:1054A00081959F4F0C94552ABB27FB015527AA27AE
:1054B000880F991FAA1FA41710F0A41B83955051A1
:1054C000B9F7A05DAA3308F0A95DA193009779F719
:1054D000B111B1931192CB010C946E2ADC01FC0145
:1054E000672F71917723E1F7329704C07C916D9318
:1054F00070836291AE17BF07C8F30895F999FECF84
:1055000092BD81BDF89A992780B50895262FF99903
:10551000FECF1FBA92BD81BD20BD0FB6F894FA9A96
:10552000F99A0FBE01960895052E97FB1EF400947C
:105530000E94AB2A57FD07D00E94C62A07FC03D061
:105540004EF40C94AB2A50954095309521953F4FE1
:105550004F4F5F4F089590958095709561957F4F5F
:105560008F4F9F4F08950E94E82AA59F900DB49FEA
:10557000900DA49F800D911D11240895B7FF0C94E8
:10558000B32A0E94B32A821B930B0895A1E21A2E1C
:10559000AA1BBB1BFD010DC0AA1FBB1FEE1FFF1FD7
:1055A000A217B307E407F50720F0A21BB30BE40B27
:1055B000F50B661F771F881F991F1A9469F760956E
:1055C0007095809590959B01AC01BD01CF01089528
:1055D000A29FB001B39FC001A39F700D811D112434
:1055E000911DB29F700D811D1124911D0895505879
:1055F000BB27AA270E940F2B0C94522D0E94192D15
:1056000038F00E94202D20F039F49F3F19F426F441
:105610000C94EF2C0EF4E095E7FB0C94E92CE92FA9
:105620000E94772D58F3BA1762077307840795070E
:1056300020F079F4A6F50C94992D0EF4E0950B2E3C
:10564000BA2FA02D0B01B90190010C01CA01A001D4
:105650001124FF27591B99F0593F50F4503E68F12F
:105660001A16F040A22F232F342F4427585FF3CF70
:10567000469537952795A795F0405395C9F77EF441
:105680001F16BA0B620B730B840BBAF09150A1F08A
:10569000FF0FBB1F661F771F881FC2F70EC0BA0F10
:1056A000621F731F841F48F4879577956795B79598
:1056B000F7959E3F08F0B0CF9395880F08F0992793
:1056C000EE0F9795879508950E94192D60F080E858
:1056D00091E009F49EEF0E94202D28F040E851E06F
:1056E00071F45EEF0CC00C94EF2C0C94992DE92F03
:1056F000E0780E94772D40F3092E052AB1F3261792
:1057000037074807590738F00E2E07F8E02569F0EB
:10571000E025E0640AC0EF6307F8009407FADB01B4
:10572000B9019D01DC01CA01AD01EF930E94F72B85
:105730000E94522D0E94A72B5F91552339F02BED2B
:105740003FE049E450FD49EC0C94F82A0895DF93BA
:10575000DD27B92FBF7740E85FE316161706480725
:105760005B0718F4D92F0E94A52D9F938F937F93E9
:105770006F930E94222EECEAF0E00E94F22C0E942D
:10578000522D2F913F914F915F910E94C02DDD23AB
:1057900051F09058A2EA2AED3FE049EC5FE3D0785F
:1057A0005D270E940F2BDF910C94522D0E94C52C77
:1057B00008F481E008950E94292DE3950C94632D4F
:1057C0000E94F42B0C94522D0E94202D58F00E9420
:1057D000192D40F029F45F3F29F00C94E92C511168
:1057E0000C949A2D0C94EF2C0E94772D68F399233A
:1057F000B1F3552391F3951B550BBB27AA276217CD
:105800007307840738F09F5F5F4F220F331F441FD9
:10581000AA1FA9F335D00E2E3AF0E0E832D091500D
:105820005040E695001CCAF72BD0FE2F29D0660FFA
:10583000771F881FBB1F261737074807AB07B0E83D
:1058400009F0BB0B802DBF01FF2793585F4F3AF043
:105850009E3F510578F00C94E92C0C949A2D5F3FF3
:10586000E4F3983ED4F3869577956795B795F795C9
:105870009F5FC9F7880F911D9695879597F90895B1
:10588000E1E0660F771F881FBB1F6217730784074D
:10589000BA0720F0621B730B840BBA0BEE1F88F75C
:1058A000E09508950E94592C6894B1110C949A2D9A
:1058B00008950E947F2D88F09F5798F0B92F99275F
:1058C000B751B0F0E1F0660F771F881F991F1AF0EB
:1058D000BA95C9F714C0B13091F00E94992DB1E08A
:1058E00008950C94992D672F782F8827B85F39F089
:1058F000B93FCCF3869577956795B395D9F73EF484
:1059000090958095709561957F4F8F4F9F4F08952B
:10591000E89409C097FB3EF4909580957095619549
:105920007F4F8F4F9F4F9923A9F0F92F96E9BB27FF
:105930009395F695879577956795B795F111F8CF7B
:10594000FAF4BB0F11F460FF1BC06F5F7F4F8F4FE6
:105950009F4F16C0882311F096E911C0772321F0DC
:105960009EE8872F762F05C0662371F096E8862F74
:1059700070E060E02AF09A95660F771F881FDAF7CB
:10598000880F9695879597F90895990F0008550FF8
:10599000AA0BE0E8FEEF16161706E807F907C0F0B5
:1059A00012161306E407F50798F0621B730B840BBD
:1059B000950B39F40A2661F0232B242B252B21F497
:1059C00008950A2609F4A140A6958FEF811D811D37
:1059D000089597F99F6780E870E060E008959FEF71
:1059E00080EC0895DF93CF931F930F93FF92EF9274
:1059F000DF927B018C01689406C0DA2EEF010E94D1
:105A0000C02DFE01E894A5912591359145915591C0
:105A1000A6F3EF010E940F2BFE019701A801DA9473
:105A200069F7DF90EF90FF900F911F91CF91DF9179
:105A3000089500240A9416161706180609060895F4
:105A400000240A94121613061406050608950C94F1
:105A5000EF2C0E947F2DD8F3E894E0E0BB279F57FE
:105A6000F0F02AED3FE049EC06C0EE0FBB0F661FD9
:105A7000771F881F28F0B23A62077307840728F05F
:105A8000B25A620B730B840BE3959A9572F78038C8
:105A900030F49A95BB0F661F771F881FD2F7904886
:105AA0000C94282E092E0394000C11F4882352F034
:105AB000BB0F40F4BF2B11F460FF04C06F5F7F4F3A
:105AC0008F4F9F4F0895EF93E0FF07C0A2EA2AEDA2
:105AD0003FE049EC5FEB0E940F2B0E94522D0F908C
