:100000000C94F70C0C941F0D0C941F0D0C941F0DE9
:100010000C941F0D0C941F0D0C941F0D0C941F0DB0
:100020000C941F0D0C941F0D0C94B6150C942816EF
:100030000C941F0D0C941F0D0C941F0D0C941F0D90
:100040000C941F0D0C941F0D0C941F0D0C941F0D80
:100050000C941F0D0C941F0D0C941F0D0C94CF0DC0
:100060000C941F0D0C941F0D0C941F0D0C941F0D60
:100070000C941F0D0C941F0D0C941F0D0C941F0D50
:100080000C94C70E0C941F0D0C941F0D0C941F0D97
:100090000C941F0D0C941F0D0C941F0D0C941F0D30
:1000A0000C941F0D0C941F0D0C941F0D05A84CCD26
:1000B000B2D44EB93836A9020C50B9918688083CA2
:1000C000A6AAAA2ABE000000803FD5F08D14A1C8C0
:1000D00081CFD9F1AF2000430D00F800FCF8FEFC01
:1000E000FF0CFF0CFF1CFF18FE00FCF8FEFCFF0CD1
:1000F000FF0CFFFCFFF8FE00FEFCFFFCFF78FEF0AB
:10010000FC78FEFCFFFCFF00FEFCFFFCFFCCFFCCFC
:10011000FFFCFF78FE00FE3CFF7CFFE0FEE0FE7C83
:10012000FF3CFF00FEF8FEFCFF0CFF0CFF1CFF185D
:10013000FE00FCF8FEFCFF0CFF0CFFFCFFF8FE00CD
:10014000FEFCFFFCFFCCFFCCFFFCFF78FE00FEFCBA
:10015000FFFCFF6CFF6CFF0CFF0CFF001E000C008F
:10016000030007030F071F061F061F071F030F00CB
:1001700007030F071F061F061F071F030F000F07A8
:100180001F071F000F0007000F071F071F000F07A3
:100190001F071F000F0007000300010000000700F9
:1001A0000F071F071F000F00070007030F071F0699
:1001B0001F061F071F030F0007030F071F061F0659
:1001C0001F071F030F000F071F071F000F000F0758
:1001D0001F071F000F071F071F061F061F061F060A
:1001E0001F000F00060706180C0606060C00412E1D
:1001F00000000000000000000000000000C0E0F06F
:10020000F8FCFCFEFE04000000000000000000807E
:1002100080808080808080808080800002071FFF37
:10022000FEFEFCFCF8F0E080000000000000000092
:10023000000000000000000000000000001E7FFF22
:10024000FFFFFFFFFFFFFFFEFCFC060603030303A7
:100250000101010101010101010101010303030782
:10026000070F1F3F7FFFFF3F070000000000000057
:1002700000000000808080808080C0C0C0C0E0F0AE
:10028000FD8F0307070707070301000080C0E0E0B8
:10029000F0F0F0F0F0F06000C0E0E0F0F0F0F0F02E
:1002A000E0D83C9CDCDC98333F7FFFDFDF6F6F37AB
:1002B0001B0E0402070D1B3337676F6FCFCFCFCFF5
:1002C000DFDF1F1E0000000000000000010D07031B
:1002D000010101183C7E7E7E3C18030F1F7FFF9FAB
:1002E0009F0F0F0FCD330301000000FFFF00000040
:1002F00000000000000000000000000000000000FE
:100300000000030F1C3060C08000000000000000EF
:100310000000000000000000000000003830200055
:1003200020202111D1D0E8C7E2B01C0F030000004B
:1003300000000000000000000000000000000000BD
:1003400000000000000000000001030306060C0C82
:100350001818181830303030303030181818181875
:100360000C0C0C060603010307030000000000004C
:100370000000000000001008007F3E7F3E7F227FCB
:100380003E7F007F3E7F3E7F0A7F021F007F3E7FD1
:100390003E7F0A7F021F00070B08007F3E7F3E7FE3
:1003A000227F3E7F007F3E7F0C7F187F3E7F007F55
:1003B0001308007F2E7F2E7F3A7F3A7F007F3E7F9B
:1003C0003E7F0A7F021F007F367F3E7F087F367F99
:1003D000007F007F367F007F4040FFFFFFFFFFFF71
:1003E000FF7F7F7F7F7F7F7F7F7F7F7F7F7F7FFF1D
:1003F000FF7F7F7F7F7F7F7F7FFFFF7F7FFFFFFF0D
:10040000FFFFFFFFFF7F7F7F7F7F7F7F7F7F7F7F7C
:100410007F7F7FFFFFFFFFFFFFFFFFFFFFFFFFFF6C
:10042000FF0000FEFE060606060606FEFE0000FFB2
:10043000FFFEFEE6E61E1E0000797986867979FFCA
:10044000FF0101FFFF0000FEFE060606060606FE8F
:10045000FE0000FFFFFFFFFFFFFFFFFFFFFFFFFFAB
:10046000FF60606767E6E666666666E7E76060FF0E
:10047000FF87871919E6E6F8F806069F9F66669FCC
:100480009F0606FFFF6060E7E7E6E6E6E6E6E6E7EA
:10049000E76060FFFFFFFFFFFFFFFFFFFFFFFFFFC2
:1004A000FF868686861919E0E086861F1F666687A6
:1004B00087616166667979FFFFE6E6FFFFFEFEE190
:1004C000E16060E7E70606191981819F9F8181F944
:1004D000F90606FFFFFFFFFFFFFFFFFFFFFFFFFF24
:1004E000FF0101E1E19E9E0101878786866666190C
:1004F000197878989878787F7F19196161E1E1819E
:1005000081787879796666060679791F1F1F1F67DB
:1005100067E6E6FFFFFFFFFFFFFFFFFFFFFFFFFFB5
:10052000FF0606E7E7676766666767E7E70606FEB2
:10053000FE7878818160601818E6E61E1EE1E11FF2
:100540001F00007E7E66667E7E00001818E0E07860
:10055000786767FFFFFFFFFFFFFFFFFFFFFFFFFF62
:10056000FF00007F7F6060606060607F7F0000FF51
:10057000FF1818E1E17E7E060619190000F9F9E07E
:10058000E07E7E6666F8F80606E6E618189F9F800D
:10059000800000FFFFFFFFFFFFFFFFFFFFFFFFFFE8
:1005A000FFFEFEFEFEFEFEFEFEFEFEFEFEFEFEFF69
:1005B000FFFEFEFFFFFEFEFEFEFEFEFEFEFFFFFF55
:1005C000FFFEFEFEFEFFFFFEFEFFFFFEFEFFFFFF43
:1005D000FFFEFEFFFFFFFFFFFFFF1508007F3E7FCE
:1005E0003E7F227F2277007F3E7F3E7F227F3E7FBD
:1005F000007F3E7F0C7F187F3E7F007F3E7F3E7FE7
:100600000A7F021F000715080077227F3E7F3E7F8A
:10061000227F007F3E7F0C7F187F3E7F007F3E7FE2
:100620003E7F0A7F021F007F3E7F3E7F227F3E7F0C
:10063000007F1508007F3E7F3E7F127F1E3F007FB8
:100640003E7F3E7F207F2070007F3E7F3E7F127F77
:100650003E7F007F0E7F3E7F387F0E7F001F150894
:10066000007F3E7F3E7F187F3E7F007F3E7F3E7F44
:100670002A7F227F007F3E7F3E7F207F2070007F89
:100680003E7F3E7F127F1E3F003F6C3E0000000019
:1006900000000000000000FCFEFEFEFEFE0E0E0E3E
:1006A0007E7E7C000000FEFEFEFEFEFE8E8E8EFE36
:1006B000FEFC00D400FCFEFEFEFEFE0EEE0EFEFE74
:1006C000FC00EAE0EEEE0EFEFEFEFEFEFE0EEECEBC
:1006D000C0D400FEFEFEFEFEFE8E8EAE0E0E0E009E
:1006E0000000FCFEFEFEFEFE8E8E8E8E8E0E000044
:1006F00000000000000000000000000000000000FA
:100700000000007FFFFFFFFFFFE0E8E0FCFC7C0053
:100710009800FFFFFFFFFFFF3F7FFFFFFBF1045348
:1007200000FFFFFFFFFFFF1C9C1CFFFFFF00AA55FF
:10073000A95500FFFFFFFFFFFF00BF3F9F9F00FF86
:10074000FFFFFFFFFFE3EBE3E8EBE4086000E9EB0A
:10075000EBEBEBE3FFFFFFFFFF7F0000000000007B
:100760000000000000000000000000000000008207
:10077000844A4AAADADAEAEAF6FA7A3C3F18169686
:10078000D67616161696F6F6F63082158A44AA54D0
:10079000A25422502A502A50285228512A512A5015
:1007A0002254A254AA54AA142107F6F6F6F6F6F635
:1007B000F0F0F2F6F6F6F8FEFCFAFAF6EAEADADA21
:1007C000AA4A4A84820000000000000000000000E5
:1007D0000000C020D0E8F4B4FABAFDBEBEBFAFA797
:1007E000A7A3A1E1E0F0785C4EC6C3C1404040F051
:1007F000FEFFFF7F60150A01E2F1F8FCFCF6E6E47B
:10080000F4FCC88050505080C8FCF4E4E6F6FCFCD0
:10081000F8F1E2050A1448637FFFFFFFFF7F7F7F47
:10082000FFFFFF7F7F7FFFFFFFBFBFBFBFBFBFBE19
:10083000BEFDBAFAB4F4E8D020C00000E01EE1FE2C
:10084000FFFFFF3F4FA75707E4F4F4F4F4F4F4F488
:10085000F4E717A555A54DA949A9499F5F9F5F1FBB
:100860008F57A047BF3FBF7F7F7F7FFFFFFFFFFF07
:10087000FFFFFFFFFFFFFFFFFFFF7F7FBF3FBF4F78
:100880008057AF1F5F9F5F9F5FAF4FAF4FAF57A7BF
:100890005707E7F7F7F7F7F7F7F7F7E717A7578FD0
:1008A0003FFFFFFFFEE11EE0011EE11FFFFFFF3ED5
:1008B0005DBC397853776FEFAF2F2F2F37F3F412DA
:1008C0001592994C4642427E7E7E7E7822150A150C
:1008D0002A152A152A152A142A14289589950905F6
:1008E00009050A04020402050A050A050A150A0593
:1008F000387E7E7E7E7E7E7E7DFAF5F2F5F0F3F721
:10090000EFEFEFEFEF6F777378BA3D9C3EFFFFFF9D
:100910001FE11E010000000F304FBFBF7C7AF5F2CF
:1009200095929592959B8E8080FF9391959294924B
:10093000959295F2F5F2F5F0F0E00000000080C02D
:10094000C0C0C0E0E0E0E0F0F0F9F9FDFEFCFCF82A
:10095000F8F0F0F0E0E00000000000F0F4F2F5F252
:10096000F5F2F5F2F5F2F4F1F5F3FFFFFFFFFBF11D
:10097000F4F2F5F2F5F2797CBFBF4F300F000000C2
:10098000000000000000000001010202020206084F
:100990001010101010101010101010080602020293
:1009A00002020505050504000000071F3F3F3F3F09
:1009B0003F3F3F3F3F3F3F3F3F3F3F3F3F3F3F3F47
:1009C0001F070000000004050505020202020206DE
:1009D000081010101010101010101010080602024D
:1009E00002020101000000000000000014100000DD
:1009F0000000F8F810F0A0E038F808F828F828F817
:100A000028F828F828F888F818F8A0E020E060E036
:100A1000C0C000000000000000001F1F101F363F74
:100A2000223F637F637F373F171F171F373F233FE7
:100A3000607F627F223F101F1F1F00000000000028
:100A40000000F0F020E0B0F018F848F828F8A8F816
:100A500028F828F828F848F830F030F030F060E056
:100A6000C0C000000000000003030F0F323F101F42
:100A7000363F627F437F427F363F171F171F171F86
:100A8000233F203F213F101F0B0F0F0F00000000DE
:100A9000C0C0E0E040C070F018F8C8F8A8F828F826
:100AA000A8F828F808F818F890F030F020E060E096
:100AB000C0C00000000000000707080F1B1F363FE2
:100AC000203F2D3F467F437F427F263F171F131F46
:100AD000131F213F313F101F0F0F060600000000BB
:100AE0000000C0C040C070F010F0D0F0A8F8A8F826
:100AF00028F8A8F808F808F8D0F0B0F0A0E020E056
:100B0000E0E000000000000000001F1F101F161F83
:100B10002E3F2E3F203F4D7F467F427F677F1B1F2A
:100B2000131F111F101F181F0707000000000000EF
:100B3000000000008080E0E030F0D0F088F8A8F8F5
:100B4000A8F828F828F808F818F8B0F020E0E0E055
:100B5000000000000000000000001C1C1F1F303FB0
:100B60002E3F2E3F2C3F6C7F417F467F427F737F1D
:100B7000131F101F181F0F0F0000000000000000BF
:100B80000000000000008080E0E010F088F8A8F885
:100B9000A8F8A8F828F808F888F818F8F0F0000085
:100BA00000000000000000000000000000003F3FC7
:100BB000203F2E3F2C3F6C7F4C7F4D7F407F437FFB
:100BC000797F080F0F0F00000000000000000000F8
:100BD0000000000000000000C0C078F808F8A8F885
:100BE000A8F8A8F8A8F808F878F8C0C00000000035
:100BF00000000000000000000000000000000000F5
:100C00007F7F407F4C7F4C7F4C7F487F4C7F4C7F69
:100C1000407F7F7F00000000000000000000000017
:100C2000000000000000F0F018F888F808F828F834
:100C3000A8F8A8F8A8F888F810F0E0E08080000094
:100C400000000000000000000000000000000F0F86
:100C5000080F797F437F407F4D7F447F6C7F2C3F1F
:100C60002A3F203F3F3F000000000000000000003E
:100C700000000000E0E020E0B0F018F808F828F8E4
:100C800028F8A8F8A8F888F8D0F030F0E0E08080E4
:100C90000000000000000000000000000F0F181FFF
:100CA000101F131F737F427F467F417F6C7F2C3F55
:100CB000263F2E3F303F1F1F1C1C0000000000007D
:100CC0000000E0E020E0A0E0B0F0D0F008F808F884
:100CD000A8F828F8A8F8A8F8D0F010F070F040C0F4
:100CE000C0C000000000000000000707181F101F10
:100CF000111F131F1B1F677F427F467F4D7F203FC1
:100D00002E3F2E3F121F101F1F1F0000000000006B
:100D10000000C0C060E020E030F090F018F808F863
:100D200028F8A8F828F8A8F8C8F818F870F040C013
:100D3000E0E0C0C00000000006060F0F101F313FAA
:100D4000213F131F131F171F263F427F437F447FFE
:100D50002C3F203F363F1B1F080F070700000000F5
:100D60000000C0C060E030F030F030F048F828F803
:100D700028F828F8A8F828F848F818F8B0F020E083
:100D8000F0F00000000000000F0F0B0F101F213FBC
:100D9000213F233F171F171F171F363F427F437FF7
:100DA000627F363F101F323F0F0F03030000000029
:100DB0000000C0C060E020E0A0E018F888F828F843
:100DC00028F828F828F828F808F838F8A0E010F0F3
:100DD000F8F800000000000000001F1F101F223F55
:100DE000627F627F233F373F171F171F373F637FA5
:100DF000617F223F363F101F1F1F000000000000D0
:100E00000000C0C060E0A0E0B0F058F848F8A8F8D2
:100E100028F828F828F808F808F810F018F820E062
:100E2000C0C080800000000003030F0F303F303F40
:100E3000667F427F427F677F363F171F171F333F12
:100E4000233F203F333F1B1F090F0F0F00000000FF
:100E50000000C0C040C060E038F848F8C8F808F8A2
:100E6000A8F828F81CFC48F808F810F010F020E06A
:100E7000E0E080800000000007070B0F181F303FE4
:100E8000203F6D7F467F427F677F363F171F131FCE
:100E9000233F213F313F1B1F0D0F070700000000BC
:100EA00000008080808040C030F0D0F0C8F8C8F8E2
:100EB00028F8B4FC0CFC48F808F898F890F030F0EA
:100EC000E0E000000000000000001F1F101F303F86
:100ED000263F203F407F447F427F477F373F131F9D
:100EE000131F111F111F0C0F070700000000000047
:100EF000000000008080C0C070F090F0C8F8C8F812
:100F0000B4FC2CFC28F848F888F898F810F0F0F0B9
:100F10000000000000000000000018183F3F203FC4
:100F2000283F2C3F407F407F407F467F437F737F39
:100F3000131F101F181F070700000000000000000B
:100F40000000000000000000E0E010F0C8F8C4FC61
:100F5000ACFCA8F828F808F888F818F8F0F00000B9
:100F600000000000000000000000000000003F3F03
:100F7000607F607F487F4C7F407F407F407F437F22
:100F8000787F181F0F0F0000000000000000000015
:100F90000000000000000000C0C078F808F8B8F8B1
:100FA000B8F8B8F8B8F808F878F8C0C00000000041
:100FB0000000000000000000000000000000000031
:100FC0007F7F407F407F407F4C7F4C7F407F407FD2
:100FD000407F7F7F00000000000000000000000054
:100FE000000000000000F0F018F888F808F828F871
:100FF000A8F8ACFCC4FCC8F810F0E0E00000000069
:1010000000000000000000000000000000000F0FC2
:10101000181F787F437F407F407F407F4C7F487F11
:10102000607F607F3F3F0000000000000000000084
:1010300000000000F0F010F098F888F848F828F860
:101040002CFCB4FCC8F8C8F890F070F0C0C08080E8
:101050000000000000000000000000000707181F4B
:10106000101F131F737F437F447F407F487F407F63
:101070002C3F283F203F3F3F181800000000000091
:101080000000E0E030F090F098F808F848F80CFC28
:10109000B4FC28F8C8F848F8D0F030F040C08080A0
:1010A0008080000000000000000007070C0F111FE7
:1010B000111F131F131F373F477F427F447F407F1D
:1010C000203F263F303F101F1F1F00000000000080
:1010D0008080E0E020E050F010F008F848F81CFCB8
:1010E00028F8A8F808F8C8F848F838F860E040C0D0
:1010F000C0C000000000000007070D0F1B1F313F9C
:10110000213F233F131F171F363F677F427F467FD4
:101110006D7F203F303F181F0B0F070700000000B6
:101120008080C0C020E018F810F008F808F828F80F
:1011300028F828F8A8F848F858F8B0F0A0E060E0DF
:10114000C0C00000000000000F0F090F1B1F333F3D
:10115000213F233F333F171F171F363F677F427FD3
:10116000427F667F303F303F0F0F030300000E10B9
:1011700000000000F0F018F8C8F810F0E8F8E8F8FF
:1011800010F0B0F020E0E0E00000000000000000FF
:10119000010103031E1F111F2F3F2F3F111F1E1F91
:1011A0000303010100000000141000000000000013
:1011B000000000000000000000000000000000002F
:1011C000000000000000000000000000000000001F
:1011D00000000000000000000000000000000014FB
:1011E00000040000000000000000000000140014D3
:1011F00000000000000000000000000000000000EF
:1012000000000000000000000000000000000000DE
:1012100000000000000000000000000000000000CE
:101220000000000000000000000000000000001CA2
:101230000010000000000000000000040004001086
:10124000000000000000000000000000000000009E
:10125000000000000000000000000000000000008E
:10126000000000000000000000000000000000007E
:10127000000000000000000000000000000800085E
:101280000000003000000000000400040008000816
:101290000008000000000000000000000000000046
:1012A000000000000000000000000000000000003E
:1012B000000000000000000000000000000000002E
:1012C000000000000000000000000000000800080E
:1012D0000000002000300026000000000008000888
:1012E00000080000000000000000000000000000F6
:1012F00000000000000000000000000000000000EE
:1013000000000000000000000000000000000000DD
:1013100000000000000000000000000000100010AD
:10132000000000000026002000000000000400046F
:1013300000000000000000000000000000000000AD
:10134000000000000000000000000000000000009D
:10135000000000000000000000000000000000008D
:10136000000000000000000000000000000000106D
:101370000010000400000000003000040004000021
:10138000000000000000000000000000000000005D
:10139000000000000000000000000000000000004D
:1013A000000000000000000000000000000000003D
:1013B000000000000000000000000000000000101D
:1013C00000140000000000000000001400100000E5
:1013D000000000000000000000000000000000000D
:1013E00000000000000000000000000000000000FD
:1013F00000000000000000000000000000000000ED
:1014000000000000000000000000000000000004D8
:101410000004003000000000000400100010000074
:1014200000000000000000000000000000000000BC
:1014300000000000000000000000000000000000AC
:10144000000000000000000000000000000000009C
:101450000000000000000000000000000004000484
:101460000000000000200026000000000010001016
:10147000000000000000000000000000000000006C
:10148000000000000000000000000000000000005C
:10149000000000000000000000000000000000004C
:1014A0000000000000000000000000080008000824
:1014B00000000000002600300020000000080008A6
:1014C000000000000000000000000000000000001C
:1014D000000000000000000000000000000000000C
:1014E00000000000000000000000000000000000FC
:1014F00000000000000000000000000800080008D4
:101500000004000400000000003000000008000893
:1015100000000000000000000000000000000000CB
:1015200000000000000000000000000000000000BB
:1015300000000000000000000000000000000000AB
:101540000000000000000000000000000010000487
:10155000000400000000000000000010001C00005B
:10156000000000000000000000000000000000007B
:10157000000000000000000000000000000000006B
:10158000000000000000000000000000000000005B
:101590000000000000000000000000000014001423
:1015A0000000000000000000000000040014000023
:1015B000000000000000000000000000000000002B
:1015C000000000000000000000000000000000001B
:1015D000000000000000000000000000000000000B
:1015E00000000000000000000000000000080038BB
:1015F00000100000000000000000000400100010B7
:1016000000000000000000000000000000000000DA
:1016100000000000000000000000000000000000CA
:1016200000000000000000000000000000000000BA
:101630000000000000000000000000080008000892
:101640000020002000000000000400040008000842
:10165000000000000000000000000000000000008A
:10166000000000000000000000000000000000007A
:10167000000000000000000000000000000000006A
:101680000000000000000000000000000018000042
:1016900000000020002000060000000000080008F4
:1016A000000000000000000000000000000000003A
:1016B000000000000000000000000000000000002A
:1016C000000000000000000000000000000000001A
:1016D00000000000000000000000000000100010EA
:1016E000000000000024002000000000000C0000AA
:1016F00000000000000000000000000000000000EA
:1017000000000000000000000000000000000000D9
:1017100000000000000000000000000000000000C9
:1017200000000000000000000000000000000010A9
:101730000004000400000000002000040004000079
:101740000000000000000000000000000000000099
:101750000000000000000000000000000000000089
:101760000000000000000000000000000000000079
:101770000000000000000000000000000000003039
:1017800000340000000000000000003400300000C1
:101790000000000000000000000000000000000049
:1017A0000000000000000000000000000000000039
:1017B0000000000000000000000000000000000029
:1017C0000000000000000000000000000000000415
:1017D00000040020000000000004000400100000CD
:1017E00000000000000000000000000000000000F9
:1017F00000000000000000000000000000000000E9
:1018000000000000000000000000000000000000D8
:101810000000000000000000000000000000000CBC
:101820000000000000200024000000000010001054
:1018300000000000000000000000000000000000A8
:101840000000000000000000000000000000000098
:101850000000000000000000000000000000000088
:101860000000000000000000000000000008000868
:10187000000000000006002000200000000000180A
:101880000000000000000000000000000000000058
:101890000000000000000000000000000000000048
:1018A0000000000000000000000000000000000038
:1018B0000000000000000000000000000008000818
:1018C00000040004000000000020002000080008C0
:1018D0000008000000000000000000000000000000
:1018E00000000000000000000000000000000000F8
:1018F00000000000000000000000000000000000E8
:1019000000000000000000000000000000100010B7
:101910000004000000000000000000100038000873
:1019200000000000000000000000080800000000A7
:1019300078784878687838380000000000001C1C6F
:10194000363E2A3E223E363E1C1C00007E7E4B7FE9
:10195000517F6B7FC5FF89FFD7FF7C7C1C1CF4FC8B
:10196000ACFCD6FEAAFED6FE6C7C38380102040818
:1019700010204080080B0002020201000904000050
:1019800001020200000524001001052401010104E8
:101990002402060524060001070581031000400902
:1019A000040100020A0000000705020240000007CF
:1019B0000583024000000403090412010002EF0243
:1019C0000140412336800001010203014172647528
:1019D000696E6F204C4C430041726475696E6F20D4
:1019E0004C656F6E6172646F0000E525D32511248C
:1019F0001FBECFEFDAE0DEBFCDBF11E0A0E0B1E067
:101A0000E8E8F8E502C005900D92A836B107D9F7CD
:101A100026E0A8E6B1E001C01D92AF37B207E1F7BA
:101A20001CE0C6EFDCE004C02197FE010E94FF2A03
:101A3000C53FD107C9F70E9458180C94372C0C9455
:101A40000000CF92DF92EF92FF920F931F93CF93FC
:101A5000DF936C017A018B01C0E0D0E0CE15DF0589
:101A600089F0D8016D918D01D601ED91FC91019025
:101A7000F081E02DC6010995892B11F47E0102C089
:101A80002196ECCFC701DF91CF911F910F91FF906D
:101A9000EF90DF90CF90089580917001E0916E01FA
:101AA000F0916F01882349F0CF01029690936F0166
:101AB00080936E01859194910895CF010296909341
:101AC0006F0180936E0180819181089580917101F1
:101AD00008950895089580E090E008950E94322CC2
:101AE0003FB7F89480917C0190917D01A0917E0197
:101AF000B0917F0126B5A89B05C02F3F19F0019634
:101B0000A11DB11D3FBFBA2FA92F982F8827820F83
:101B1000911DA11DB11DBC01CD0142E0660F771FD3
:101B2000881F991F4A95D1F708958F929F92AF927F
:101B3000BF92CF92DF92EF92FF926B017C010E94E5
:101B4000700D4B015C01C114D104E104F104F1F00A
:101B50000E94700DDC01CB0188199909AA09BB0903
:101B6000883E9340A105B10570F321E0C21AD10867
:101B7000E108F10888EE880E83E0981EA11CB11CD4
:101B8000C114D104E104F10419F7DDCFFF90EF9007
:101B9000DF90CF90BF90AF909F908F9008951F924D
:101BA0000F920FB60F9211242F933F938F939F9311
:101BB000AF93BF938091680190916901A0916A01F0
:101BC000B0916B0130917B0123E0230F2D3720F47E
:101BD0000196A11DB11D05C026E8230F0296A11D87
:101BE000B11D20937B018093680190936901A093BC
:101BF0006A01B0936B0180917C0190917D01A0916D
:101C00007E01B0917F010196A11DB11D80937C01E1
:101C100090937D01A0937E01B0937F01BF91AF911E
:101C20009F918F913F912F910F900FBE0F901F901A
:101C30001895CF92DF92EF92FF920F931F93CF935D
:101C4000DF930E944C0D811520E8920761F480918A
:101C500071008D7F80937100109291004698479893
:101C6000109274018BC021E020937401813020E830
:101C7000920751F480916C0190916D0190936F01E6
:101C800080936E010E944C0D97FD05C02091730159
:101C9000222309F43FC02091720121113BC021E0B1
:101CA00020937501EC01DF77209769F481E0809340
:101CB000760146983FE9C32E3FE0D32EE12CF12C6C
:101CC000CAEFD0E014C08E0120E030E060E472E49E
:101CD0008FE090E0A90198010E94A12769017A0193
:101CE00081E0C81AD108E108F10810927601E0916C
:101CF0009205F09193050995811103C081E08093CD
:101D00007601809175018823B9F180917601811166
:101D100033C003C010927501C5CF46992DC0479AB4
:101D20000E944C0D009771F09C01DE010E94F52786
:101D3000DC01CB0129E0B595A795979587952A9564
:101D4000D1F703C08FEF9FEFDC01109290002AE0E3
:101D500020939100D0929900C092980080937701CF
:101D600090937801A0937901B0937A0180917100EA
:101D700082608093710002C04798D2CFDF91CF91EB
:101D80001F910F91FF90EF90DF90CF9008951F92D9
:101D90000F920FB60F9211242F933F934F935F939F
:101DA0006F937F938F939F93AF93BF93EF93FF9323
:101DB0008091770190917801A0917901B0917A0199
:101DC000892B8A2B8B2B81F18091760181110BC09D
:101DD00098B180E4892788B980917501882319F02A
:101DE00088B1805888B98091770190917801A0914D
:101DF0007901B0917A01181619061A061B06B4F477
:101E00008091770190917801A0917901B0917A0148
:101E10000197A109B1098093770190937801A0936C
:101E20007901B0937A0102C00E94190EFF91EF91DF
:101E3000BF91AF919F918F917F916F915F914F91E2
:101E40003F912F910F900FBE0F901F9018954F92BA
:101E50005F926F927F928F929F92AF92BF92CF923A
:101E6000DF92EF92FF920F931F93CF93DF9300D0F7
:101E700000D0CDB7DEB749012C2DA02EB12CDC014E
:101E8000AA0DBB1D1A161B060CF0B3C180389105B4
:101E90000CF0AFC1FB01EE0DF11D1E161F060CF07C
:101EA000A8C1603471050CF0A4C14115510509F4B5
:101EB000A0C1FB0177FF04C0EE27FF27E61BF70B4D
:101EC0003E2F3770732EFB0177FD379633E0F59583
:101ED000E7953A95E1F73E2F77FF07C0772029F085
:101EE0003FEF3E0F68E06719762E97FF05C0EE279B
:101EF000FF27E81BF90B02C0E0E0F0E0A038B105D5
:101F000024F060E8F62EF81A01C0F02EFE1A632FB6
:101F1000032E000C770B3F3F1CF4A62FA09501C0A9
:101F2000A0E011E0BE2DB77009F410E0E694E6944D
:101F3000E694E10E6E0D711D693071051CF068E0CC
:101F4000E62EE31AEA1A3A0F60E83603800D911D77
:101F500011248E0F9F1FA09FE00DF11D11244E0F25
:101F60005F1F61E070E0072C02C0660F771F0A94C4
:101F7000E2F7233009F4FCC098F4213009F4AEC034
:101F8000223009F036C12FEF269F8001279F100DC8
:101F90001124009510951C830B835C80E30E27C0F1
:101FA0002A3F29F02B3F09F024C1E30E83C0E30E42
:101FB0004EC0FA01EC0DFD1DE491E69F4001E79F44
:101FC000900C11249A82898237FD04C02C91202321
:101FD000822A8C92711014C0EFEFCE1ADE0A11968D
:101FE000CF1438F33F5F4A0D5B1D80589F4F3E155D
:101FF00009F4FFC0DC01AC57BE4FC12CD12CF0CF8F
:10200000373054F7FD01E058FF4F208125219A8099
:1020100029292083E1CFFA01E00FF11FE491E69F27
:102020006001E79FD00C1124DA82C98237FD03C01A
:102030002C91C22ACC92711013C00F5F1F4F1196C2
:102040000F1548F33F5F4A0D5B1D80589F4F3E15AB
:1020500009F4CFC0DC01AC57BE4F00E010E0F0CF78
:1020600037305CF7FD01E058FF4FD0802A812D29E1
:102070002083E3CFFA01EC0DFD1DE491E69FD00132
:10208000E79FB00D1124BA83A98337FD05C0A09541
:10209000F8012081A223A083711015C0FFEFCF1A91
:1020A000DF0A0F5F1F4FCF1428F33F5F4A0D5B1D00
:1020B00080589F4F3E1509F49CC08C010C571E4F51
:1020C000C12CD12CF0CF37304CF7F801E058FF4F3E
:1020D0002A812095A0812A232083E0CFD401AE0F4E
:1020E000BF1FE30E3E1509F484C0FC01EC57FE4F00
:1020F0004F01C12CD12CCF1498F5FD01EC0DFD1D25
:10210000E491E69F8001E79F100D11240095109542
:102110001C830B83FA01EC0DFD1DE491E69F200169
:10212000E79F500C11245A82498237FD05C0F40103
:1021300020810223402A4082772059F037304CF426
:10214000F401E058FF4F10812C8121231A81212BAB
:102150002083FFEFCF1ADF0A2FEF821A920ACBCF2C
:102160003F5F4A0D5B1DAA0DBB1D80589F4FBACF24
:10217000CF2CD12CE40FF51FDC01AC57BE4FAC01C6
:102180004C5F5D4F00E810E00C191D09AC18BD084C
:10219000AA0CBB1C6F2C2E2DCF93DF93EA018590E8
:1021A000C590772059F0869E4001C69E6001373069
:1021B0002CF49881D0949D219929999333233AF056
:1021C0009C91C0949C2198299D930C94E8101196A1
:1021D000FA9429F7EA9451F0F62C33951124EA0D7C
:1021E000F11DA00FB11DC00FD11DD9CFDF91CF912F
:1021F00011240F900F900F900F90DF91CF911F91AE
:102200000F91FF90EF90DF90CF90BF90AF909F9095
:102210008F907F906F905F904F900895CF92DF9254
:10222000EF920F931F93CF93DF934115510591F1D7
:10223000FA0104913196E4904E5F5F4F222321F121
:1022400030E0220F331FC02FD0E0AE2DA695A6950B
:10225000A695EA2FF0E0A1E0B0E01E2D177011F472
:10226000A0E0B0E0AE0FBF1FCA9F6001CB9FD00CB3
:10227000DA9FD00C11242C9DF0012D9DF00D3C9D7A
:10228000F00D11244E0F5F1F23E0C22E20E030E03E
:102290000E94270FDF91CF911F910F91EF90DF9058
:1022A000CF900895BC0180E090E00C94950D8FB123
:1022B0002CB193B130E02095309520743327A901DB
:1022C00023E0559547952A95E1F7292F30E0209591
:1022D0003095207133273595279535952795242BF3
:1022E0008095807F822B089583B7817F83BF83B7DA
:1022F000816083BF889583B78E7F83BF08958EBD2D
:1023000000000DB407FEFDCF0895109271013E98B4
:102310003F9808953E9A3F9A81E080937101089515
:10232000FC01840F911D18161906E4F5E038F1053B
:10233000CCF5F7FF02C0E0E0F0E08138910514F041
:1023400080E890E0382F3E1BAB0177FF02C0495F69
:102350005F4F83E0559547958A95E1F75695542F41
:10236000442757954795E40FF51FEC57FE4F6770CC
:10237000772781E090E001C0880F6A95EAF7482F3F
:10238000222349F0213071F4315020F08081842BD8
:102390008193FACF08958095315020F09081982351
:1023A0009193FACF089560387105D0F44034510507
:1023B000B8F4ECE6F9E180E1849FD001A078112423
:1023C000A60F4770E40FF11D8491AC57BE4F222336
:1023D00019F06C91862B03C080956C9186238C93A9
:1023E0000895AF92BF92CF92DF92EF92FF920F9338
:1023F0001F93CF93DF936C01EB01142F022F7C010D
:102400005C01A40EB11CEA14FB0454F421E0402F3B
:10241000BE01C7010E944E138FEFE81AF80AF3CFEE
:1024200022E0200F42E0410FBE016150710900E03F
:10243000C60101970E947A13DF91CF911F910F91EE
:10244000FF90EF90DF90CF90BF90AF900895FC0188
:1024500080918301811103C08FEF9FEF08959FB793
:10246000F89482E08093E9002091F20030E01216A7
:10247000130614F421E030E02115310559F02898B5
:1024800084E6809382018091F10080838091F20044
:10249000882319F09FBFC90108958BE68093E80057
:1024A000F9CF2FB7F89483E08093E9009091E8008A
:1024B000892F807295FF04C09091F20080E4891BFF
:1024C0002FBF0895CF93DF931F92CDB7DEB76983F7
:1024D000DC01ED91FC910280F381E02D41E050E0C0
:1024E000BE016F5F7F4F09950F90DF91CF910895E7
:1024F00083E08093E9008091F200882319F08AE359
:102500008093E80008950E94511290E00895CF93BF
:10251000DF931F92CDB7DEB7FC018485958597FDCB
:1025200005C02FEF3FEF358724870BC0CE01019602
:102530000E942712019719F4898190E002C08FEF61
:102540009FEF0F90DF91CF9108950F931F93CF933B
:10255000DF931F92CDB7DEB78C01FC018485958592
:1025600097FF0EC0CE0101960E942712019719F421
:10257000298130E002C02FEF3FEFF8013587248733
:10258000F801848595850F90DF91CF911F910F9170
:1025900008958F929F92AF92BF92CF92DF92EF9267
:1025A000FF920F931F93CF93DF935C016B017A012E
:1025B00080912D01882309F45BC0809183018823D9
:1025C00009F456C08091810180FF05C08091E00030
:1025D00082608093E000E70110E00AEF83E0882E3C
:1025E0009AE3992E2097D9F10E94511281110AC0C5
:1025F000015009F43DC061E070E080E090E00E948D
:10260000950DF0CF282F30E0C217D3070CF48C2F94
:102610004FB7F8948092E9009091E80095FF1DC0B3
:10262000282F30E0C21BD30BF601982F915020F0D9
:1026300081918093F100FACFC20ED31E112319F0BD
:102640009092E80009C08091E80085FD06C0909254
:10265000E80011E0209709F010E04FBFC3CF11113F
:10266000C3CF5D9884E6809380011E141F0444F05C
:1026700081E090E0F5019383828380E090E001C0E7
:10268000C701DF91CF911F910F91FF90EF90DF90E5
:10269000CF90BF90AF909F908F900895DF92EF9270
:1026A000FF920F931F93CF93DF937C01D22E8B0168
:1026B000040F111DEB0177FF0EC0C0E0D0E00BC08E
:1026C000C417D5077CF42D2DAE01B70187E096E045
:1026D0000E94D3112196A801013411058CF340E426
:1026E00050E0EECFDF91CF911F910F91FF90EF90CF
:1026F000DF900895DF92EF92FF920F931F93CF9395
:10270000DF93EC017B01D42E122F6034710520F48D
:10271000202FCE010E949011B701610F711D6150F1
:1027200071096034710528F4202F4D2DCE010E94CF
:102730009011202F412FB701CE010E944E13CE01E0
:102740008D0D911D202F412FB7010197DF91CF9162
:102750001F910F91FF90EF90DF900C944E1380919A
:1027600084018EBD10928401E5E8F1E08081119230
:102770000DB407FEFDCF8EBD85E0E438F807B1F754
:102780000DB407FEFDCF0895CF92EF920F93411540
:10279000510561F0FA0104913196E4904E5F5F4F6C
:1027A00022E0C22E20E030E00E94270F0F91EF9030
:1027B000CF90089520910D06282329F490910C06BE
:1027C000982381E009F480E008955F926F927F92F0
:1027D0008F929F92AF92BF92CF92DF92EF92FF9231
:1027E0000F931F93CF93DF93EC018B017A01A90123
:1027F000461B570B57FF03C0519541955109C7011F
:102800008C1B9D0B97FF03C09195819591095524D1
:1028100053948417950714F0512C0AC09E2D8F2DC8
:102820007901292F382F9C2F8D2FE801092F182F80
:10283000EC16FD0654F4902F812F8901292F382F93
:102840009C2F8D2FE701E92EF82E37016C1A7D0A97
:102850005901A01AB10AB7FE03C0B194A194B108FE
:10286000630177FE03C08FEFC81AD80AD594C794C6
:102870000217130714F08FEF01C081E0882E880F34
:102880009908EC16FD06B4F020E0552019F0AE01D1
:10289000B80102C0A801BE0187E096E00E94D311F2
:1028A000CA18DB08D7FE04C0080D191DC60CD71CBA
:1028B0002196E7CFDF91CF911F910F91FF90EF907D
:1028C000DF90CF90BF90AF909F908F907F906F9050
:1028D0005F9008958F929F92AF92BF92CF92DF92B6
:1028E000EF92FF920F931F93CF93DF93CDB7DEB795
:1028F000A2970FB6F894DEBF0FBECDBF8C016B015F
:10290000FC01E484F58464817581868197810E944D
:10291000ED284B015C01F801608171818281938116
:102920000E94ED2826E0F801B096DE015D96019048
:102930000D922A95E1F726E0FE017D96DE011996BB
:1029400001900D922A95E1F77A8369839C828B82AC
:10295000DE82CD82F886EF822EE0FE013196DE0126
:102960001F9601900D922A95E1F74091CC05509168
:10297000CD052091CE053091CF05421753070CF5B8
:10298000A091D005B091D1059A012F5F3F4F3093B0
:10299000CD052093CC05788B6F879A8A898ADC8A4B
:1029A000CB8AFE8AED8A8EE0849F9001859F300D50
:1029B0001124A20FB31FFE013F9601900D928A953C
:1029C000E1F7A2960FB6F894DEBF0FBECDBFDF9140
:1029D000CF911F910F91FF90EF90DF90CF90BF901C
:1029E000AF909F908F90089580911D0681110DC02A
:1029F00082E08093190684E080931A0610921C06E8
:102A000010921B0681E080931D0689E196E00895EF
:102A1000FC018485958597FD0BC09FB7F89482E0F3
:102A20008093E9008091F2009FBF90E001960895A5
:102A30009FB7F89482E08093E9008091F2009FBFF5
:102A400090E008954091790650917A06209177069A
:102A50003091780642175307B4F49091E8009570CE
:102A6000E1F39091E80092FD19C08093F10080910C
:102A7000790690917A0601968F739927892B19F41C
:102A80008EEF8093E8008091790690917A06019606
:102A900090937A068093790681E0089580E0089506
:102AA000DF92EF92FF920F931F93CF93DF93D82E75
:102AB0008A017B01E40EF51EEB01CE15DF0571F0F6
:102AC000D7FE03C0FE01849101C088810E942215B7
:102AD00021968111F2CF8FEF9FEF01C0C801DF91E6
:102AE000CF911F910F91FF90EF90DF90089561506B
:102AF00030F02091F100FC0120830196F8CF289856
:102B000084E68093820108950F931F93CF93DF9300
:102B10001F92CDB7DEB782E0898342E450E064E7DC
:102B200079E180E80E9450150E94F414DC011296AD
:102B30000D911C9113970115110569F0D801ED91C4
:102B4000FC910280F381E02DBE016F5F7F4FC801D1
:102B5000099597FF07C089810F90DF91CF911F9151
:102B60000F910895F80100851185E5CF1F920F920E
:102B70000FB60F9211248F939F938091E100909153
:102B8000E100937F9093E10083FF0FC01092E90072
:102B900091E09093EB001092EC0092E39093ED00A3
:102BA0001092830198E09093F00082FF20C093E0A0
:102BB0009093E9009091F200992319F09AE3909391
:102BC000E80090918001992339F090918001915013
:102BD00090938001992389F190918201992339F092
:102BE00090918201915090938201992341F184FF49
:102BF00010C08091E2008E7E81608093E20080911F
:102C0000E1008F7E8093E100809181018E7E806162
:102C100011C080FF16C08091E2008E7E806180939B
:102C2000E2008091E1008E7E8093E100809181013D
:102C30008E7E81608093810104C05D9ACDCF289AF9
:102C4000D6CF9F918F910F900FBE0F901F90189528
:102C50001F920F920FB60F921124CF92DF92EF9234
:102C6000FF920F931F932F933F934F935F936F9315
:102C70007F938F939F93AF93BF93EF93FF93CF93E4
:102C8000DF93CDB7DEB76C97DEBFCDBF1092E90002
:102C90008091E80083FFEDC168E0CE0145960E9477
:102CA000771582EF8093E8008D8987FF05C09091AA
:102CB000E80090FFFCCF03C09EEF9093E800982FB0
:102CC000907609F0C6C09E892F89188D91110CC08D
:102CD000803829F4809176068093F10002C010922A
:102CE000F1001092F10048C1422F50E0512B913079
:102CF00051F4811141C14130510509F03DC180912C
:102D000076068D7F0BC0933061F4811135C141305F
:102D1000510509F031C18091760682608093760674
:102D20002BC1953041F48091E80080FFFCCF2068F2
:102D30002093E30021C1963009F05FC0EB8CFC8C3E
:102D40001092E90010927A0610927906123091F5ED
:102D500010927806109277060E94841599E0BE01C1
:102D60006F5F7F4FDB01E92F1D92EA95E9F79983A9
:102D70001A8391E09E8390EA98879AEF9987209131
:102D8000790630917A06275F3F4F3C832B838D83F2
:102D90001092E90010927A0610927906F092780665
:102DA000E092770649E050E080E00E9450150E94D2
:102DB0008415E2C0F0927806E09277060E94F4143F
:102DC000DC011296ED90FC901397E114F10409F4E4
:102DD000C0C0D701ED91FC910480F581E02DBE01CA
:102DE0006B5E7F4FC7010995009719F00CF0C4C0C6
:102DF000C7C0F701E084F184E8CF973009F4C0C080
:102E0000983021F481E08093F100B6C0993009F048
:102E1000B3C0837009F0B4C0E1E6F1E081E021E0E5
:102E200036E39081992361F08093E9002093EB00D1
:102E300091919093EC003093ED008F5F873089F78C
:102E40008EE78093EA001092EA008F8980938301D5
:102E500093C08B8D9C8D1092E90010927A0610928F
:102E600079069093780680937706898D811156C0F4
:102E70008E899D89913A59F4813209F081C047E0E9
:102E800050E066E271E080E00E94501575C091321A
:102E900009F076C0833289F4888D90E0982F8827D6
:102EA0002F89822BA0E0B0E080932E0190932F0118
:102EB000A0933001B09331015FC0803269F48091FA
:102EC000E80082FFFCCF67E086E291E00E94771580
:102ED0008BEF8093E80006C0823209F04DC08F89E5
:102EE00080932D0180917506882319F0EEEFFAE0AA
:102EF00002C0E0E0F8E08091260190912701A091C6
:102F00002801B0912901803B9440A105B10509F049
:102F10007BC080912D0180FF93C076C00E94F41485
:102F2000DC0112960D911C9113970115110541F1C9
:102F3000D801ED91FC910190F081E02DBE016B5E16
:102F40007F4FC8010995811117C0F80100851185CF
:102F5000ECCF113009F44EC0133091F48F898823DF
:102F600009F445C0823081F440E860E188ED99E1E0
:102F70000E94F226882321F08EEF8093E80079C02A
:102F800081E28093EB0075C0813029F440E86BE06A
:102F90008CEC99E1EDCF833099F70E94F414DC01B9
:102FA0001296ED90FC9013978E010F5F1F4F6801F2
:102FB000E114F10479F0D701ED91FC910680F781DD
:102FC000E02DB801C7010995080F111DF701E08434
:102FD000F184EECFD8011C92F60101900020E9F7B0
:102FE0003197BF016C197D0940E0C601C1CF66EB86
:102FF00079E102C06AEB79E16115710509F2FB0123
:10300000449150E080E840CF0FB6F894A8958091A5
:103010006000886180936000109260000FBEA895E8
:10302000EE3F2AE0F20739F08091FE0A9091FF0A04
:1030300091838083A1CF1092FF0A1092FE0A9CCF49
:10304000EE3F8AE0F80731F0808191819093FF0A8A
:103050008093FE0A87E797E7918380839BE088E16E
:103060000FB6F894A895809360000FBE909360000F
:1030700083CF6C960FB6F894DEBF0FBECDBFDF9145
:10308000CF91FF91EF91BF91AF919F918F917F91E0
:103090006F915F914F913F912F911F910F91FF90F1
:1030A000EF90DF90CF900F900FBE0F901F9018956C
:1030B000CF93DF9300D000D01F92CDB7DEB77894C6
:1030C00084B5826084BD84B5816084BD85B582602D
:1030D00085BD85B5816085BD80916E0081608093DE
:1030E0006E00109281008091810082608093810047
:1030F0008091810081608093810080918000816057
:1031000080938000809191008260809391008091F3
:103110009100816080939100809190008160809304
:1031200090008091C10084608093C1008091C100B3
:1031300082608093C1008091C10081608093C10052
:103140008091C30081608093C3008091C000826041
:103150008093C0008091C20081608093C200809102
:103160007A00846080937A0080917A0082608093F4
:103170007A0080917A00816080937A0080917A0051
:10318000806880937A0010928301109276061092E4
:1031900081018091D70081608093D70080EA80937D
:1031A000D80089B5806189BD89B5826089BD09B4BF
:1031B00000FEFDCF61E070E080E090E00E94950DA0
:1031C0008091D8008F7C80618093D8008091E0004E
:1031D000807F8093E0008091E1008E7E8093E1000B
:1031E0008DE08093E200559A209AEEEFFFE78591FB
:1031F00094918B3F9C4D19F481E08093750681EC8E
:1032000080937C0085B1806F85B9249884B1866EE7
:1032100084B95E9A5F988AB1806D8AB9769A6E9801
:1032200081B3806F81BB899880B38D7080BB80E54E
:103230008CBD81E08DBD85E090E00E9452115F9AC7
:1032400085E090E00E9452115E985C985AECE52E61
:1032500050E0F52E0DE00E0DF70184910E947F11D4
:10326000FFEFEF1AFF0A0E11F7CF5C9A81E8809307
:10327000640081E08093650000E014E080E00E943B
:103280007F1101501109D1F70E94571187FF1FC00C
:103290005C9885EA0E947F115C9A2E982F982D9851
:1032A000809164008062809364000E947411FDCF5D
:1032B0002D980E9457118478843871F00E9457111C
:1032C0008471843129F188EC90E00E9452110E94AF
:1032D000571182FDEDCF38C02D9A88EC90E00E9406
:1032E00052112F9882E090E00E948B278F3F29F0A7
:1032F0006FEF82E090E00E94932784EF91E00E94BC
:1033000052112F9A0E94571184788438D9F3D6CF5E
:103310002D9A88EC90E00E9452112E9882E090E065
:103320000E948B27882329F060E082E090E00E94D1
:10333000932784EF91E00E9452112E9A0E94571118
:1033400084718431D9F3BFCF2D9A82E090E00E943E
:103350008B27882319F00E948A1102C00E948511D0
:1033600082E390E00E9452110E9457118111F8CF20
:10337000809164008E7F8093640080917A008064E5
:1033800080937A0080917A0086FDFCCF00917800CE
:10339000109179000E94700D20E030E09801112713
:1033A0000027600F711F821F931F61157105810532
:1033B000910511F00E9482278091640081608093C2
:1033C000640034E0232E312C10E12FB7F894809163
:1033D000680190916901A0916A01B0916B012FBFC2
:1033E00040911306509114066091150670911606CF
:1033F00020911706222341F020910F06821B809313
:103400001806109217060EC284179507A607B7076D
:1034100038F4481B423008F405C20E94741102C2FD
:1034200001E00093170680930F0690931006A09377
:103430001106B093120620910E06820F911DA11D58
:10344000B11D8093130690931406A0931506B093B4
:10345000160680910A0690910B06019690930B0632
:1034600080930A0680910C0680930D060E945711E6
:1034700080930C0680912001811110C00E94571189
:1034800086FD0CC0D7C180910A0690910B0666E9B3
:1034900070E00E94D72A892B09F0EDC181E080936A
:1034A000200180910C0181114AC200911B01011180
:1034B0000AC02091710181E090E0821B91099093F4
:1034C0001F0180931E0180E20E94DA138823A1F07D
:1034D000011109C080910D0190910E011816190675
:1034E0005CF5019718C080911E0190911F0118167C
:1034F000190614F501971CC080E40E94DA13882392
:10350000D9F001110DC080910D0190910E01833011
:10351000910594F4019690930E0180930D010CC0D7
:1035200080911E0190911F01181619062CF001962A
:1035300090931F0180931E0188E00E94DA13882374
:10354000B9F1011113C080910D0190910E018130EC
:10355000910521F481E080930C01F1C190931D014C
:1035600080931C0181E080931B0128C080911C0185
:1035700090911D01039711F580911E0190911F01FB
:10358000009719F40E948A1104C0019711F40E9457
:1035900085116091710182E090E06D830E948B271C
:1035A0006D81681749F082E090E00E94932704C083
:1035B00084E00E94DA13811110921B0180911B019B
:1035C0008111D4C04AE856E062E070E08AE090E001
:1035D0000E94C41320910D0130910E01E09015015D
:1035E000F090160141E0E41AF10840911301509166
:1035F0001401249FC001259F900D349F900D11242C
:10360000E80EF91E4091170150911801249FC00146
:10361000259F900D349F900D1124E80EF91E709097
:10362000110180910F01A0901901B0901A0151E091
:10363000A51AB10867014701880E911CC814D90466
:1036400054F421E0472DB501C6010E944E138FEFBF
:10365000C81AD80AF3CF209111012E5F40910F01B3
:103660004E5F6091190170911A016250710900E07A
:10367000C70101970E947A13209111013091120124
:1036800040910F01509110016091190170911A0140
:1036900061507109C7010E94F11160911901709187
:1036A0001A0120E04EE556E0809115019091160137
:1036B0000E940E116091190170911A01209115015B
:1036C000309116018091130190911401820F931F84
:1036D000E0911701F091180120E042E356E08E0FCF
:1036E0009F1F0E940E116091190170911A01809123
:1036F000130190911401880F991F209115013091A9
:103700001601820F931FE0911701F0911801EE0F3F
:10371000FF1F20E046E056E08E0F9F1F0E940E1113
:103720006091190170911A01809113019091140117
:103730009C01220F331F820F931F2091150130919E
:103740001601820F931F2091170130911801F90182
:10375000EE0FFF1FE20FF31F20E04AED55E08E0F42
:103760009F1F0E940E110E94AF135CC080911C012C
:1037700090911D018230910549F448ED53E060E0DD
:1037800070E080E290E00E94C413EDCF039759F7F8
:103790004AE856E062E070E08AE090E00E94C413DC
:1037A00080911E0190911F01009739F0019751F40B
:1037B00042E150E08AE490E009C04DE050E08BE344
:1037C00090E004C040E050E080E090E020911101E2
:1037D000309112016091190170911A0161507109C3
:1037E0000E94F1116091190170911A0120E040EBE3
:1037F00053E085E290E00E940E11609119017091F2
:103800001A0120E048E953E08CE390E00E940E1199
:103810006091190170911A0120E046E753E08BE4B2
:1038200090E09FCF80E090E0892B09F4CECD0E94FC
:103830000000CACD609124017091250165307105A9
:103840000CF021CE6F5F7F4F7093250160932401B0
:103850008091220190912301EEEEF1E00491EFEED0
:10386000F1E0E4902AEFC22E20E030E040EF51E09A
:103870000E94270F78CF80912101811133C0809160
:1038800071008D7F809371001092700184E895E043
:1038900090936F0180936E0190936D0180936C0102
:1038A00086E194E0909385058093840582E390E01F
:1038B00090938705809386058DE298E09093890523
:1038C0008093880584E690E090938B0580938A0529
:1038D00080E090E890938D0580938C050E94190EEE
:1038E00000932101609124017091250180912201B2
:1038F00090912301EEEEF1E00491EFEEF1E0E4901F
:10390000BAEFCB2E20E030E040EF51E00E94270FCD
:103910006091240170912501675E7F4F80912201A3
:103920009091230145EE51E080960E94C41320E05F
:1039300047ED50E06EE270E08EE190E012CF81E062
:10394000E4E8F1E081118FEF00248193819381936A
:1039500081930394D1F71092CD051092CC05E12C00
:10396000F12C80919A0590919B05E816F9060CF0D0
:1039700096C0F70124E0EE0FFF1F2A95E1F7A09013
:103980009E05B0909F0545018E0E9F1ED40118968E
:10399000CD90DC901997C114D10409F45DC01E9636
:1039A0006D917C911F97772780910A0690910B0665
:1039B0000E94D72A892B01F5B1E0CB1AD108D40196
:1039C0001996DC92CE9218971C968D919C911D971A
:1039D0001A964D915C911B97415051098417950798
:1039E00030F401961D969C938E931C9705C0D401CC
:1039F0001D961C921E921C97AE0EBF1E20910401B4
:103A0000309105014091060150910701F501648153
:103A10007581868197810E9404280E94ED282B01E0
:103A20003C0120910001309101014091020150912F
:103A30000301D5016D917D918D919C910E94042887
:103A40000E94ED28DC01CB01F50124854AE259E111
:103A5000B2010E940E111FC0BC016E197F0940E027
:103A600050E0D401AC0DBD1DFD017096B12E01904A
:103A70000D92BA94E1F74F5F5F4FF0E1CF0ED11C8A
:103A80004617570771F7019790939B0580939A0506
:103A900021E0E21AF1084FEFE41AF40A62CF0E9423
:103AA0007D2724E630E040E050E00E94A12762300C
:103AB0007105810591050CF077C020E030E0A90187
:103AC0006091E6057091E7058091E8059091E90520
:103AD0000E94142A18160CF067C06091F0057091CE
:103AE000F1057695679580E090E00E94232920916A
:103AF000D6053091D7054091D8055091D9050E943F
:103B0000052820E030E040E850E40E9404286B01E2
:103B10007C016091EE057091EF057695679580E0E8
:103B200090E00E9423292091D2053091D305409145
:103B3000D4055091D5050E94052820E030E040E8EA
:103B400050E40E940428E0919A05F0919B05209191
:103B50009C0530919D05E217F30734F520919E05F1
:103B600030919F05AF014F5F5F4F50939B0540938E
:103B70009A05AF0104E0440F551F0A95E1F7F901DA
:103B8000E40FF51F6083718382839383C482D5829F
:103B9000E682F78231862086338622861586148651
:103BA00088E090E097878687C12CD12C20919405DE
:103BB00030919505C216D3060CF069C0E0909805C7
:103BC000F0909905C601B4E0880F991FBA95E1F706
:103BD000E80EF91ED70118968D919C9119970097C0
:103BE000A1F1019719969C938E9318972091040147
:103BF00030910501409106015091070114966D9195
:103C00007D918D919C9117970E9404280E94ED2828
:103C10004B015C01209100013091010140910201B2
:103C200050910301F70160817181828193810E942B
:103C300004280E94ED28DC01CB01F701248548EA25
:103C400051E1B4010E940E111EC0B9016C197D0929
:103C500040E050E0D701A40FB51FFD017096B12ED2
:103C600001900D92BA94E1F70196405F5F4F86177D
:103C7000970781F7215031093093950520939405DA
:103C8000F1E0CF1AD1082FEFC21AD20A8FCF0E94CB
:103C9000571184FF42C02091DE053091DF0540912D
:103CA000D6055091D7056091D8057091D905C0907F
:103CB000D205D090D305E090D405F090D505809141
:103CC000940590919505E0919605F09197058E17D2
:103CD0009F071CF5E0919805F0919905DC0111967C
:103CE000B0939505A0939405A4E0880F991FAA9519
:103CF000E1F7E80FF91FC082D182E282F3824483A8
:103D00005583668377834EE150E051874087138661
:103D1000128635872487178616866091C2057091B2
:103D2000C305072E000C880B990B0E9425292091B2
:103D3000A4053091A5054091A6055091A7050E94C4
:103D400005280E94ED286B017C01A090C405B0906D
:103D5000C5058091C0059091C105BC01990F880BE4
:103D6000990B0E9425292091A0053091A105409131
:103D7000A2055091A3050E9405280E94ED2870938A
:103D8000C7056093C605D092C905C092C805A09228
:103D9000CA05B092CB056EE671E180EA95E00E941B
:103DA0006A1420E030E0A9016091E6057091E70512
:103DB0008091E8059091E9050E94142A1816ACF547
:103DC0000E94571185FF13C02091FE053091FF0519
:103DD00040910006509101066091E2057091E30563
:103DE0008091E4059091E5050E94052816C00E9487
:103DF000571186FF1AC02091FE053091FF054091B2
:103E00000006509101066091E2057091E3058091F2
:103E1000E4059091E5050E9404286093E205709303
:103E2000E3058093E4059093E5056091E2057091C8
:103E3000E3058091E4059091E5050E94ED28CB0112
:103E400068E671E00E94EB2ABC01990F880B990B80
:103E50000E9425296B017C0120E030E0A9010E942D
:103E6000712887FF0AC020E030E044EB53E4C7012B
:103E7000B6010E9405286B017C01C092E205D09238
:103E8000E305E092E405F092E50520E030E044EB44
:103E900053E4C701B6010E947B286B017C0160914D
:103EA000DC057091DD05072E000C880B990B0E9434
:103EB00025299B01AC01C701B6010E94192A0E9465
:103EC000ED287093DF056093DE050E94571183FF94
:103ED00029C02091020630910306409104065091BA
:103EE00005066091E6057091E7058091E8059091DF
:103EF000E9050E9405286093E6057093E705809325
:103F0000E8059093E905C090EA05D090EB05E090B4
:103F1000EC05F090ED05A70196010E94142A1816F1
:103F200034F136C00E94571182FF32C06091020600
:103F30007091030680910406909105069B01AC01E7
:103F40000E9405289B01AC016091E6057091E70590
:103F50008091E8059091E9050E9404286B017C019D
:103F600020E030E0A9010E94712887FD09C0C092BD
:103F7000E605D092E705E092E805F092E90508C071
:103F80001092E6051092E7051092E8051092E905F7
:103F9000C090E605D090E705E090E805F090E905CF
:103FA00020E030E04AE754E46091E2057091E305D7
:103FB0008091E4059091E5050E94192A20E030EDFA
:103FC0004FE557E40E947B284B015C010E94762854
:103FD0009B01AC01C701B6010E94192A2091D205AC
:103FE0003091D3054091D4055091D5050E94052804
:103FF0002B013C016093D2057093D3058093D405C7
:104000009093D505C501B4010E94862A9B01AC019D
:10401000C701B6010E94192A9B01AC016091D60527
:104020007091D7058091D8059091D9050E940428F8
:104030004B015C016093D6057093D7058093D8053A
:104040009093D90520E030E0A901C301B2010E949C
:10405000712887FF09C01092D2051092D3051092E3
:10406000D4051092D50533C0C090EE05D090EF0571
:10407000E0900801F0900901B60180E090E00E9414
:1040800023299B01AC01C301B2010E9405282B0129
:104090003C01B7010F2C000C880B990B0E942529BD
:1040A0009B01AC01C301B2010E94142A18167CF4D2
:1040B000B7016C197D0980E090E00E94232960938C
:1040C000D2057093D3058093D4059093D50520E055
:1040D00030E0A901C501B4010E94712887FF09C021
:1040E0001092D6051092D7051092D8051092D905D6
:1040F00033C0C090F005D090F105E0900A01F09037
:104100000B01B60180E090E00E9423299B01AC01E5
:10411000C501B4010E9405284B015C01B7010F2CB9
:10412000000C880B990B0E9425299B01AC01C5014D
:10413000B4010E94142A18167CF4B7016C197D0989
:1041400080E090E00E9423296093D6057093D70504
:104150008093D8059093D9056091F4057091F50589
:10416000072E000C880B990B0E9425292091D6055B
:104170003091D7054091D8055091D9050E94052866
:104180000E94ED286B017C01A090F605B090F70528
:104190008091F2059091F305BC01990F880B990B62
:1041A0000E9425292091D2053091D3054091D40554
:1041B0005091D5050E9405280E94ED287093F905BD
:1041C0006093F805D092FB05C092FA05A092FC0519
:1041D000B092FD056CEE79E082ED95E00E946A14E4
:1041E0008091C6059091C705E090C805F090C9057B
:1041F0006091CA05E091CB052091F8053091F90551
:10420000A090FA05B090FB05F091FD054091FC05EA
:10421000D901A40FB11D8A179B070CF091C0AC0106
:10422000460F511DBA01241735070CF089C0A501AE
:104230004F0F511DE416F5060CF082C06701CE0E3B
:10424000D11CAC14BD040CF07BC0281739070CF04E
:104250008AC42091F605821B91092091F2053091C4
:10426000F305821B930BBC016F5F7F4F072E000C81
:10427000880B990B0E9425292091D2053091D305F6
:104280004091D4055091D5050E9404282B013C0192
:104290008091F4059091F505AE14BF040CF06AC44A
:1042A0002091F705E21AF108E81AF90AB7016F5FE1
:1042B0007F4F072E000C880B990B0E942529209117
:1042C000D6053091D7054091D8055091D9050E9467
:1042D00004286B017C0120E030E0A901C301B20198
:1042E0000E94142A53014201181624F0B7FAB09420
:1042F000B7F8B09420E030E0A901C701B6010E94F0
:10430000142AA701960118160CF05058C501B401E3
:104310000E94712887FF32C4A30192016091D205E7
:104320007091D3058091D4059091D5050E94052800
:104330006093D2057093D3058093D4059093D505EF
:104340006091F0057091F1057695679580E090E0B9
:104350000E9423292091D6053091D7054091D80598
:104360005091D9050E9405284B015C016091EE0532
:104370007091EF057695679580E090E00E94232983
:104380002091D2053091D3054091D4055091D505A7
:104390000E9405286B017C014090000150900101B2
:1043A000609002017090030120E030E040E052E4B0
:1043B000C301B2010E940528A70196010E94142A98
:1043C00018163CF420E030E040E052E4C701B601AA
:1043D00020C020E030E040E053E4C301B2010E947D
:1043E000052820E030E040E052E40E940428A701C4
:1043F00096010E94712887FF16C020E030E040E05F
:1044000052E4C701B6010E94052820E030E040E0F8
:1044100053E40E940428609300017093010180938B
:1044200002019093030140900001509001016090BF
:1044300002017090030120E030E0A901C301B20144
:104440000E94712887FF09C010920001109201019B
:1044500010920201109203012EC0E0900801F0902A
:10446000090120E030E040E053E4C301B2010E94C2
:1044700005282B013C01B7010F2C000C880B990B70
:104480000E9425299B01AC01C301B2010E94142A9C
:1044900018168CF4B70160587109072E000C880BB0
:1044A000990B0E942529609300017093010180936C
:1044B000020190930301C0900401D0900501E090A7
:1044C0000601F090070120E030E040EC51E4C70124
:1044D000B6010E940528A50194010E94142A18160D
:1044E0003CF420E030E040EC51E4C501B40120C0D0
:1044F00020E030E040E852E4C701B6010E94052800
:1045000020E030E040EC51E40E940428A501940131
:104510000E94712887FF16C020E030E040EC51E493
:10452000C501B4010E94052820E030E040E852E4D3
:104530000E94042860930401709305018093060192
:10454000909307018090040190900501A0900601CE
:10455000B090070120E030E0A901C501B4010E943C
:10456000712887FF09C01092040110920501109272
:104570000601109207012EC0E0900A01F0900B0195
:1045800020E030E040E852E4C501B4010E94052873
:104590004B015C01B7010F2C000C880B990B0E949A
:1045A00025299B01AC01C501B4010E94142A1816EB
:1045B0008CF4B70160547109072E000C880B990B1D
:1045C0000E942529609304017093050180930601E0
:1045D000909307018090040190900501A09006013E
:1045E000B0900701C0900001D0900101E09002015D
:1045F000F0900301A501940160E070E088E492E48A
:104600000E9404280E94ED2869837A838B839C830F
:10461000A701960160E070E080EA92E40E9404281D
:104620000E94ED282B013C01A501940160E070E09F
:10463000CB010E9404280E94ED284B015C01A701D8
:10464000960160E070E0CB010E9404280E94ED28F2
:10465000DC01CB0129813A81A201B4010E94E5135A
:104660008090040190900501A0900601B090070190
:10467000C0900001D0900101E0900201F090030190
:10468000A501940160E070E080EA92E40E940428B1
:104690000E94ED2869837A838B839C83A70196010E
:1046A00060E070E080EF92E40E9404280E94ED2810
:1046B0002B013C01A501940160E070E088E492E4E4
:1046C0000E9404280E94ED284B015C01A70196017D
:1046D00060E070E080EA92E40E9404280E94ED28E5
:1046E000DC01CB0129813A81A201B4010E94E513CA
:1046F0008090040190900501A0900601B090070100
:10470000C0900001D0900101E0900201F0900301FF
:10471000A501940160E070E080E793E40E94042822
:104720000E94ED2869837A838B839C83A70196017D
:1047300060E070E080E293E40E9404280E94ED288B
:104740002B013C01A501940160E070E080EA92E455
:104750000E9404280E94ED284B015C01A7019601EC
:1047600060E070E080EF92E40E9404280E94ED284F
:10477000DC01CB0129813A81A201B4010E94E51339
:104780008090040190900501A0900601B09007016F
:10479000C0900001D0900101E0900201F09003016F
:1047A000A501940160E070E08CE893E40E94042885
:1047B0000E94ED2869837A838B839C83A7019601ED
:1047C00060E070E080E793E40E9404280E94ED28F6
:1047D0002B013C01A501940160E070E080E793E4C7
:1047E0000E9404280E94ED284B015C01A70196015C
:1047F00060E070E080E293E40E9404280E94ED28CB
:10480000DC01CB0129813A81A201B4010E94E513A8
:104810008090040190900501A0900601B0900701DE
:10482000C0900001D0900101E0900201F0900301DE
:10483000A501940160E070E084EB93E40E940428F9
:104840000E94ED2869837A838B839C83A70196015C
:1048500060E070E088EC93E40E9404280E94ED2858
:104860002B013C01A501940160E070E08CE893E429
:104870000E9404280E94ED284B015C01A7019601CB
:1048800060E070E080E793E40E9404280E94ED2835
:10489000DC01CB0129813A81A201B4010E94E51318
:1048A0008090040190900501A0900601B09007014E
:1048B000C0900001D0900101E0900201F09003014E
:1048C000A501940160E070E086E194E40E94042870
:1048D0000E94ED2869837A838B839C83A7019601CC
:1048E00060E070E086E194E40E9404280E94ED28D4
:1048F0002B013C01A501940160E070E084EB93E49E
:104900000E9404280E94ED284B015C01A70196013A
:1049100060E070E088EC93E40E9404280E94ED2897
:10492000DC01CB0129813A81A201B4010E94E51387
:104930008090000190900101A0900201B0900301CD
:104940002091040130910501409106015091070129
:1049500060E070E086E194E40E9404280E94ED2863
:104960006B017C01A501940160E070E08AE794E4AA
:104970000E9404280E94ED282B013C01A50194010E
:1049800060E070E086E194E40E9404280E94ED2833
:10499000DC01CB019601A201B6010E94E5138090D3
:1049A000040190900501A0900601B0900701C0900D
:1049B0000001D0900101E0900201F0900301A501F7
:1049C000940160E070E08FE294E40E9404280E9469
:1049D000ED2869837A838B839C83A701960160E02D
:1049E00070E088EC94E40E9404280E94ED282B01DA
:1049F0003C01A501940160E070E086E194E40E942E
:104A000004280E94ED284B015C01A701960160E09B
:104A100070E08AE794E40E9404280E94ED28DC01FB
:104A2000CB0129813A81A201B4010E94E513809053
:104A3000040190900501A0900601B0900701C0907C
:104A40000001D0900101E0900201F0900301A50166
:104A5000940160E070E08AE794E40E9404280E94D8
:104A6000ED2869837A838B839C83A701960160E09C
:104A700070E08AEF94E40E9404280E94ED282B0144
:104A80003C01A501940160E070E08FE294E40E9493
:104A900004280E94ED284B015C01A701960160E00B
:104AA00070E088EC94E40E9404280E94ED28DC0168
:104AB000CB0129813A81A201B4010E94E513A12C06
:104AC000B12CC12CD12C8091CC059091CD05C8166C
:104AD000D90614F00C94B31BE090D005F090D105EA
:104AE000EA0CFB1CD70114968D909C90159712969A
:104AF0006D917C911397072E000C880B990B0E94E7
:104B00002529209104013091050140910601509121
:104B100007010E9404280E94ED282B013C01F701A7
:104B200080819181BC01990F880B990B0E942529E6
:104B30002091000130910101409102015091030147
:104B40000E9404280E94ED28DC01CB01F701268198
:104B5000A401B2010E940E11FFEFCF1ADF0A2EE06E
:104B6000A20EB11CB0CF8091F2059091F305681BA5
:104B7000790B7CCBB601681B790B9BCBA701960107
:104B80006091D6057091D7058091D8059091D9058F
:104B90000E9405286093D6057093D7058093D805A9
:104BA0009093D905CDCB80919805909199050E945D
:104BB0009A2B80919E0590919F050E949A2B80913F
:104BC000D0059091D1050C949A2BCF92DF92EF9261
:104BD000FF920F931F93CF93DF93E5E2F6E01382EA
:104BE000128288EE93E0A0E0B0E084839583A683F0
:104BF000B7838CE491E0918380838FEF9FEF95875B
:104C00008487E7E0F6E02EE531E0318320831582EA
:104C1000168220E127839483838314861586168663
:104C20001786108A86E69DE09093930580939205FF
:104C300080E090E8909391058093900546983E9A85
:104C400047983F9AC2EDD5E0188219821A821B82DA
:104C50001C821D821E821F82198618861B861A8658
:104C60001D861C861F861E86188A198A1A8A1B8A28
:104C70001C8A1D8A1E8A1F8AC12CD12CE12C80E43B
:104C8000F82EC88ED98EEA8EFB8E1D8E1C8E1F8E3E
:104C90001E8E19A218A21BA21AA21CA21DA280E09D
:104CA00090E0A0E4B0E48CA79DA7AEA7BFA78AE0E0
:104CB00097EDA3EABCE388AB99ABAAABBBAB0E9470
:104CC0007D2728E631E040E050E00E94A1270E94C5
:104CD0002529688B798B8A8B9B8B80E090E0A0EAFA
:104CE000B1E488839983AA83BB838C839D83AE833D
:104CF000BF8384E190E09D8F8C8F00E110E01F8FD7
:104D00000E8F86E0ECE3F1E0A2EFB5E001900D92AA
:104D10008A95E1F788E190E09B878A87CCECD5E023
:104D2000198218828AE090E09B838A838CE890E065
:104D30000E94052B9D838C83E0EAF5E011861086A6
:104D4000138612861586148617861686108A118A8F
:104D5000128A138A148A158A168A178AC08ED18EEF
:104D6000E28EF38E8EE090E0958F848F178F068F02
:104D700080E090E0A0EFB1E480839183A283B383CD
:104D800084839583A683B78386E0E2E4F1E0A0EC18
:104D9000B5E001900D928A95E1F7CAE9D5E0198254
:104DA000188283E090E09B838A8380E390E00E94F6
:104DB000052B9D838C83C4E9D5E0198218828EE18E
:104DC00090E09B838A8380EE91E00E94052B9D8377
:104DD0008C83DF91CF911F910F91FF90EF90DF9027
:104DE000CF900895CF92DF92EF92FF920F931F938F
:104DF000CF93DF931F92CDB7DEB7182F062FE42E87
:104E0000862F880F8E5F99830E94221583E00E946F
:104E10002215F12EC12E9981D92E8C2D8F19801734
:104E200098F4F601E7FE02C0849101C080810E94DF
:104E30002215182F80E00E9422158123FFEFCF1A40
:104E4000DF0A8111EACF01C081E00F90DF91CF919D
:104E50001F910F91FF90EF90DF90CF9008958F9268
:104E60009F92AF92BF92CF92DF92EF92FF92CF9339
:104E7000DF93EC01688179818A819B8161157105DD
:104E80008105910521F464E279ED8BE597E02DE150
:104E900033EF41E050E00E94A12749015A019B01F4
:104EA000AC01A7EAB1E40E94C0276B017C01ACEE23
:104EB000B4EFA50194010E94CE27DC01CB018C0D3B
:104EC0009D1DAE1DBF1DB7FF03C00197A109B048CE
:104ED00088839983AA83BB83BC01CD019F77DF912F
:104EE000CF91FF90EF90DF90CF90BF90AF909F90C9
:104EF0008F9008950E942F27089582E391E00E94E9
:104F00002F27089560933201709333018093340109
:104F1000909335010895F999FECF92BD81BDF89A1D
:104F2000992780B50895262FF999FECF1FBA92BD13
:104F300081BD20BD0FB6F894FA9AF99A0FBE01967A
:104F40000895052E97FB1EF400940E94B82757FD84
:104F500007D00E94D32707FC03D04EF40C94B82747
:104F600050954095309521953F4F4F4F5F4F089595
:104F700090958095709561957F4F8F4F9F4F0895C5
:104F80000E94F527A59F900DB49F900DA49F800DC2
:104F9000911D11240895B7FF0C94C0270E94C027CB
:104FA000821B930B0895A1E21A2EAA1BBB1BFD01C5
:104FB0000DC0AA1FBB1FEE1FFF1FA217B307E407F8
:104FC000F50720F0A21BB30BE40BF50B661F771F50
:104FD000881F991F1A9469F7609570958095909530
:104FE0009B01AC01BD01CF010895A29FB001B39F09
:104FF000C001A39F700D811D1124911DB29F700DE2
:10500000811D1124911D08955058BB27AA270E9485
:105010001C280C94C6290E948D2938F00E949429DE
:1050200020F039F49F3F19F426F40C948A290EF4E9
:10503000E095E7FB0C948429E92F0E94EB2958F3B3
:10504000BA17620773078407950720F079F4A6F56D
:105050000C940D2A0EF4E0950B2EBA2FA02D0B0107
:10506000B90190010C01CA01A0011124FF27591BAD
:1050700099F0593F50F4503E68F11A16F040A22FB3
:10508000232F342F4427585FF3CF46953795279524
:10509000A795F0405395C9F77EF41F16BA0B620B23
:1050A000730B840BBAF09150A1F0FF0FBB1F661F6A
:1050B000771F881FC2F70EC0BA0F621F731F841FAD
:1050C00048F4879577956795B795F7959E3F08F0D3
:1050D000B0CF9395880F08F09927EE0F9795879595
:1050E00008950E94602908F481E008950E949D2996
:1050F000E3950C94D7290E948F280C94C6290E940E
:10510000942958F00E948D2940F029F45F3F29F03E
:105110000C94842951110C940E2A0C948A290E9413
:10512000EB2968F39923B1F3552391F3951B550BA4
:10513000BB27AA2762177307840738F09F5F5F4F6A
:10514000220F331F441FAA1FA9F335D00E2E3AF0A9
:10515000E0E832D091505040E695001CCAF72BD0C1
:10516000FE2F29D0660F771F881FBB1F2617370712
:105170004807AB07B0E809F0BB0B802DBF01FF2744
:1051800093585F4F3AF09E3F510578F00C94842974
:105190000C940E2A5F3FE4F3983ED4F386957795FE
:1051A0006795B795F7959F5FC9F7880F911D9695FD
:1051B000879597F90895E1E0660F771F881FBB1F59
:1051C000621773078407BA0720F0621B730B840B06
:1051D000BA0BEE1F88F7E09508950E94F4286894B2
:1051E000B1110C940E2A08950E94F32988F09F575C
:1051F00098F0B92F9927B751B0F0E1F0660F771FFB
:10520000881F991F1AF0BA95C9F714C0B13091F0F0
:105210000E940D2AB1E008950C940D2A672F782F73
:105220008827B85F39F0B93FCCF3869577956795B5
:10523000B395D9F73EF490958095709561957F4F21
:105240008F4F9F4F0895E89409C097FB3EF49095C7
:105250008095709561957F4F8F4F9F4F9923A9F04F
:10526000F92F96E9BB279395F695879577956795DE
:10527000B795F111F8CFFAF4BB0F11F460FF1BC022
:105280006F5F7F4F8F4F9F4F16C0882311F096E9B5
:1052900011C0772321F09EE8872F762F05C0662363
:1052A00071F096E8862F70E060E02AF09A95660F1C
:1052B000771F881FDAF7880F9695879597F90895D5
:1052C000990F0008550FAA0BE0E8FEEF1616170617
:1052D000E807F907C0F012161306E407F50798F07F
:1052E000621B730B840B950B39F40A2661F0232B98
:1052F000242B252B21F408950A2609F4A140A69514
:105300008FEF811D811D089597F99F6780E870E0F8
:1053100060E008959FEF80EC089500240A9416162B
:10532000170618060906089500240A941216130693
:105330001406050608950C948A290E94F329D8F3CF
:10534000E894E0E0BB279F57F0F02AED3FE049ECFE
:1053500006C0EE0FBB0F661F771F881F28F0B23AFA
:1053600062077307840728F0B25A620B730B840B31
:10537000E3959A9572F7803830F49A95BB0F661FC3
:10538000771F881FD2F790480C94902A092E039417
:10539000000C11F4882352F0BB0F40F4BF2B11F422
:1053A00060FF04C06F5F7F4F8F4F9F4F0895EF9353
:1053B000E0FF07C0A2EA2AED3FE049EC5FEB0E9464
:1053C0001C280E94C6290F90039401FC9058ECEA17
:1053D000F0E00C949C2A57FD9058440F551F59F04B
:1053E0005F3F71F04795880F97FB991F61F09F3FD2
:1053F00079F087950895121613061406551FF2CFFB
:105400004695F1DF08C0161617061806991FF1CF4A
:1054100086957105610508940895E894BB27662771
:105420007727CB0197F908950E94602908F48FEF40
:1054300008950E942C2A0C94C6290E948D2938F0C8
:105440000E94942920F0952311F00C9484290C9447
:105450008A2911240C940E2A0E94EB2970F3959F3F
:10546000C1F3950F50E0551F629FF001729FBB275B
:10547000F00DB11D639FAA27F00DB11DAA1F649FF7
:105480006627B00DA11D661F829F2227B00DA11DAA
:10549000621F739FB00DA11D621F839FA00D611D30
:1054A000221F749F3327A00D611D231F849F600D51
:1054B000211D822F762F6A2F11249F5750409AF07A
:1054C000F1F088234AF0EE0FFF1FBB1F661F771F06
:1054D000881F91505040A9F79E3F510580F00C94D1
:1054E00084290C940E2A5F3FE4F3983ED4F386950A
:1054F00077956795B795F795E7959F5FC1F7FE2B71
:10550000880F911D9695879597F908959F930E940E
:105510009D290F9007FCEE5F0C94D7299F3F31F037
:10552000915020F4879577956795B795880F911DD1
:105530009695879597F908959F938F937F936F938F
:10554000FF93EF939B01AC010E94192AEF91FF9109
:105550000E94B02A2F913F914F915F910C94192A8C
:10556000DF93CF931F930F93FF92EF92DF927B0114
:105570008C01689406C0DA2EEF010E942C2AFE01ED
:10558000E894A5912591359145915591A6F3EF01A8
:105590000E941C28FE019701A801DA9469F7DF90A8
:1055A000EF90FF900F911F91CF91DF910895AA1B6B
:1055B000BB1B51E107C0AA1FBB1FA617B70710F0FE
:1055C000A61BB70B881F991F5A95A9F78095909530
:1055D000BC01CD01089597FB072E16F4009407D067
:1055E00077FD09D00E94D72A07FC05D03EF490959C
:1055F00081959F4F0895709561957F4F0895EE0FA7
:10560000FF1F0590F491E02D0994CF93DF93823032
:10561000910510F482E090E0E0917D06F0917E0625
:1056200020E030E0C0E0D0E0309711F140815181BE
:1056300048175907C0F04817590761F482819381D0
:10564000209719F09B838A832BC090937E068093CA
:105650007D0626C02115310519F04217530718F4AD
:105660009A01BE01DF01EF010280F381E02DDCCF62
:105670002115310509F1281B390B2430310590F42F
:1056800012968D919C9113976115710521F0FB0184
:105690009383828304C090937E0680937D06FD01F0
:1056A000329644C0FD01E20FF31F81939193225083
:1056B00031092D933C933AC020917B0630917C06B2
:1056C000232B41F4209138013091390130937C062D
:1056D00020937B0620913601309137012115310549
:1056E00041F42DB73EB740913A0150913B01241B44
:1056F000350BE0917B06F0917C06E217F307A0F4EE
:105700002E1B3F0B2817390778F0AC014E5F5F4F17
:105710002417350748F04E0F5F1F50937C064093C7
:105720007B068193919302C0E0E0F0E0CF01DF912E
:10573000CF9108950F931F93CF93DF93009709F4B0
:105740008CC0FC0132971382128200917D06109169
:105750007E060115110581F420813181820F931F8E
:1057600020917B0630917C062817390779F5F09354
:105770007C06E0937B0671C0D80140E050E0AE1794
:10578000BF0750F412962D913C911397AD0121154E
:10579000310509F1D901F3CF9D01DA013383228369
:1057A00060817181860F971F8217930769F4EC015E
:1057B00028813981260F371F2E5F3F4F3183208389
:1057C0008A819B8193838283452B29F4F0937E0603
:1057D000E0937D0642C01396FC93EE931297ED0181
:1057E000499159919E01240F351FE217F30771F477
:1057F00080819181840F951F029611969C938E93C0
:105800008281938113969C938E931297E0E0F0E04F
:10581000D80112968D919C911397009719F0F80179
:105820008C01F6CF8D919C9198012E5F3F4F820F96
:10583000931F20917B0630917C062817390769F465
:10584000309729F410927E0610927D0602C01382D2
:10585000128210937C0600937B06DF91CF911F91FB
:105860000F91089581E090E0F8940C94372C1CE09F
:10587000C6EFDCE004C0FE010E94FF2A2196C73F6C
:08588000D107C9F7F894FFCF2E
:105888000000000000000000D007E8030001001736
:105898000009001500100004003700000000000097
:1058A80000001D00D2FF00E1000000000000FFFF23
:1058B800FFFF0100000000007F06800005000400D3
:1058C8000A0A020003000A0B000000006212C91253
:1058D8008312781208158712A51200000000690DBE
:0858E80000C1808100000000F6
:2070000055C000006EC000006CC000006AC0000068C0000066C0000064C0000062C0000043
:2070200060C000005EC00000F2C400005AC0000058C0000056C0000054C0000052C00000EE
:2070400050C0000078C000004CC000004AC0000048C0000046C0000044C0000042C00000BE
:2070600040C000003EC000003CC000003AC0000038C0000036C0000034C0000032C0000048
:2070800030C000002EC000002CC000002AC0000028C0000026C0000024C0000022C00000A8
:2070A00020C000001EC000001CC0000011241FBECFEFDAE0DEBFCDBF11E0A0E0B1E0E2E3BC
:2070C000FFE702C005900D92A83AB107D9F711E0A8EAB1E001C01D92AE3BB107E1F78FD30B
:2070E00026C78ECFF89410926F0010928100109285001092840081E085BF15BE47985D9AEB
:20710000289A0C94000008952091B2013091B3012F5F3F4F3093B3012093B201932F37FFA6
:2071200003C08EEF831B982F990F921710F447980895479A08951F920F920FB60F9211246E
:207140002F938F939F93EF93FF9310928500109284008091A8019091A901009741F00197D3
:207160009093A9018093A801892B09F45D9A8091AA019091AB01009741F001979093AB0126
:207180008093AA01892B09F4289AE0E0F0E0859194918F5F9F4F49F08091AC019091AD0151
:2071A00001969093AD018093AC01FF91EF919F918F912F910F900FBE0F901F90189584E0BC
:2071C0008093E9000DC08091E8008B778093E80003C08EB3882351F08091E80082FFF9CFBE
:2071E0008091E80085FFEFCF8091F1000895982F83E08093E9008091E80085FD0DC0809136
:20720000E8008E778093E80003C08EB3882369F08091E80080FFF9CF9093F1005D9884E6CB
:2072200090E09093A9018093A80108954F925F926F927F928F929F92AF92BF92CF92DF921E
