:100000000C9484080C94AC080C94AC080C94AC08C8
:100010000C94AC080C94AC080C94AC080C94AC0890
:100020000C94AC080C94AC080C94200F0C94920F18
:100030000C94AC080C94AC080C94AC080C94AC0870
:100040000C94AC080C94AC080C94AC080C94AC0860
:100050000C94AC080C94AC080C94AC080C94701282
:100060000C94AC080C94AC080C94AC080C94AC0840
:100070000C94AC080C94AC080C94AC080C94AC0830
:100080000C9468130C94AC080C94AC080C94AC0859
:100090000C94AC080C94AC080C94AC080C94AC0810
:1000A0000C94AC080C94AC080C94AC08084AD73BF0
:1000B0003BCE016E84BCBFFDC12F3D6C74319ABD37
:1000C00056833DDA3D00C77F11BED9E4BB4C3E915B
:1000D0006BAAAABE000000803F05A84CCDB2D44E4A
:1000E000B93836A9020C50B9918688083CA6AAAA4C
:1000F0002ABE000000803F00D5F08D14A1C881CF3A
:10010000D9F1AF2000420F28E5F6ED56D9D9E4F633
:10011000EDD62AC964B7CA49A79CB25B26BBFDFFCE
:10012000DF2A47E59CB44AAAA5726472FB76ABEC61
:100130006C72FB766B9564B2DBFFFFAD725476FB9D
:10014000AD6EB51D475B65B74B2567DB2ABB5D2AE6
:10015000399B928A5C4945A6A4429E928A7CABEC6C
:1001600076A9E46C5B65B74B25675352912AA9C801
:10017000945476BBDD4E0A06080C06030303063FC3
:100180002FB0BD54CE29B9DDA6D387D3743A9D4E86
:10019000A7D3E9743A1D515649A97C3ABDDD2AE935
:1001A0009C543A08CA291DFED2DB6DDBE576BBDD27
:1001B000A6D3E9743A9D4EA7D3E9F476BB555249CC
:1001C000E7A4B2EB5857B84DA7D3E97476BBDD2E40
:1001D0009593312965955452492595DCC69E5D2A33
:1001E000A99C73CE39E79C734E4EB7545239E79CA5
:1001F00073CE392795BA774EDDAA57AD5EFD761DD1
:10020000593ADBB94EF5B75332AB64ED6EF5AF7AC0
:10021000F5B9CE756EBBDDAED369E75098AE9D9251
:10022000DB743AA6A55376BB554EAEB6CE49A52390
:10023000DB2E9D73CED5BB7F1B3D1FFCB47556E9ED
:10024000F57A1DD4A4EC3ABA74E73A954AD5AE567D
:1002500065D5A594BB56CAB961B7F476BD5D6FD7B5
:10026000DBED76BDDD6EB7DBED72BBDD6E97DBEDF2
:1002700072BBDCA6B74A8E5D7F3F80BC4849252B08
:100280005991A59554323A2595AC64744A2A59C9B6
:10029000E89454323F0C2C9554A954292AA9A4AAB5
:1002A000A4A452A554A952AA14F4B84CA7D3E97433
:1002B0002A954AF5AA57E97C2D15EB769D8E6DBBE4
:1002C0004E562EDBAB5E752E954AA7D3E9743A3FA6
:1002D000BEA592AA2AE7A8A492AA961795545255A9
:1002E000525249259D723795545255A552112EB33D
:1002F000D974369D4EA7D3E9743E9DCFE787073D5D
:100300005DB4D1A5A34B47D6D9B218B3659311A656
:10031000A34B47175D3AEFE122A7529D4D67D3E902
:10032000743A9D4EE7D3F97C2AE7F89DEC7CB2D372
:10033000C9CE75AE739DEB5CE73AD7D95C67539D28
:100340007270E13E9D4EA7D3E9743A9DCE66436B31
:100350003E9F4EA7D3E9743A9D4E27878DF6F964E8
:10036000A7939DEB5CE73AD7B9CE75AEB3B9CE662D
:1003700093037B123F3FD1974EA7D3E9743A9D4E2A
:10038000A7D3E968D3E9743A9D4E479B0E8DE97473
:100390003A9D4EA7D3E9743A9D0EDF843ADD76BBD1
:1003A000DD6EB73ACDC7974EF7AA5739E728DBD5A8
:1003B000EE5DEDDED52E429DE623D4E9B6DBED768B
:1003C000BBD5693E7CCBEDA94FFDAF7AD5FFFFFFD2
:1003D0009FDAAEE4F6289D73BFEADDAB5E29A9641F
:1003E000DBA5DC5EFF7F727B6D977C727B6ABBEA6C
:1003F00055AF7AD5AB5EF576BB92DBC377BBDAD56A
:10040000AE76BFEABD92AA5DEDAC92EEFF4F39E742
:100410007697FBFFBF76B58BAF573D653AEF9C53A0
:10042000727B6ABB6ABBEC55AFB25BBB7DBB7DBB6D
:100430006CBB44B84EE79C53B9CBBD4E2BE75CED8B
:100440006A57FF7FBDEAAD73CE7DEA53CEB974BA69
:100450005EF52A77B9CB39E7EC36E59CAB5DEDFE6E
:10046000FFDF2EDBD52EA9A4924A2AF5A9FF558FCE
:10047000F2B64BB5DD7EEAFFFF539FFAD476D57610
:10048000ABD3CA3957769BDCEEB6BB57BDCA39A78A
:1004900072CE792539EDF6FF7FBBE5DCEE9554CAC7
:1004A0003997FAD4876F3E9DB6DBED76BB3D9D262E
:1004B000E453DB55CE3995DDBE5DF6AAA76CBB943F
:1004C0004AAAECF6FFDF4925DB6E5FF54A6D5772ED
:1004D0007B3A1D1FBED3E9743A9D4EA7D3E9743A07
:1004E0001D6D3ADA743A9D4EA7D3A1299D4E479BC4
:1004F0008E361D9AD2A10F0608007F3E7F0C7F1812
:100500007F3E7F007F001F0E7F3E7F387F0E7F0083
:100510001F0E08007F3E7F3E7F0A7F021F007F364E
:100520007F3E7F087F367F007F007F367F007F150C
:1005300008007F3E7F3E7F187F3E7F007F3E7F3EEC
:100540007F2A7F227F007F3E7F3E7F207F207000BA
:100550007F3E7F3E7F127F1E3F003F1508007F3E9B
:100560007F3E7F127F1E3F007F3E7F3E7F207F20A9
:1005700070007F3E7F3E7F127F3E7F007F0E7F3E7A
:100580007F387F0E7F001F15080077227F3E7F3E59
:100590007F227F007F3E7F0C7F187F3E7F007F3E63
:1005A0007F3E7F0A7F021F007F3E7F3E7F227F3E8D
:1005B0007F007F7F3FA040B9DD6EDF6E9D546435C4
:1005C00095DD6EB7FFFF5BE5B8AAA292DBEDF6FF03
:1005D0007FAB2453D5F6FFB776BBDDBE3D252B554B
:1005E0001593DD6EB7FFFF6F4FC94A5545E594DDA2
:1005F0006EFFFFFF5F057D67B395AC5CED6A57BB8F
:10060000DAD5AEE4EDB6B5FB4FBD92D995E3923A9B
:100610009DAE9D52AE942B75EA6A59EACA96ABE438
:10062000E52A79B6B2E52A79B6D45557E5AA6CC958
:10063000CB55F27255B6E4B6B225CF75AE73B52B75
:1006400077B9CB5DD775EE7439F5A94F7DEA954C36
:100650006F6BA596D9DAD5AE76B5AB5D2D2B59D992
:100660007CF0AAF23955BBDA55A53AD7B94A5636C5
:100670009BCE29972EB5BB76B5AB64BA76B5AB5D8C
:10068000ED52A9D4E79CAA7255D5555D95ABAAAB9E
:10069000EA4A5D5557EA525D5597EAAABA54A7EA65
:1006A000529DAA4B75555DAAABEA525DA9ABEA4AC9
:1006B0005D5557D5557555E5AA9493B54BA7D3A964
:1006C00054EA53D239BB4EA73EA7B8944FE7B3952F
:1006D000AC64E73A5795AA5D9DCA2938319BAD5C59
:1006E000AD4AA95A95BBD4659395DCEE2A77B94BF0
:1006F000A9DAD54E49E594734AD5EA5ED54EC96D5F
:100700003A9D54F3CBAEEAAA5CB65297BA9453AE74
:1007100096DFEA579D2BA59CECC82A99AEB83AE51E
:100720005C29D5A9FFBB96CA9572A5AE525DD9CA00
:1007300056ADDA29F8289D4E6FB795ACE4252FA564
:10074000CAA9DA9572B5AC6C3E58EBDDBB47527264
:1007500079B94ABA6E75B9CB5DEE7297BBDCE52EFE
:10076000FDA952D55D55AAAE7B7575777575B7DE57
:10077000A6B7955452B9F2AD145EF3E97436F4EEAF
:10078000A85C2D2BA9647A9BDE56AE7697ABE4B6B7
:100790007255A95B55A59CDBA6D3E9743A9D4E6FB3
:1007A0006B77B9CA2A1DEFDEBDF3C34F7BF7CECFFF
:1007B000BBBC54EF6E25F525F3E974252B59C9CA46
:1007C000756AA5CAD5A9AAAE4EF5F7F7EA729D3BA0
:1007D000BBCEAE9DAA5257D5555D555D555DD555DD
:1007E0007555D55557555DA5AEBA2A75D5AA5C5530
:1007F000EA5655A95B9552B72A75D59FBADCA73A38
:100800005795ABCA55AEAAAB72555D555D95ABBC5D
:10081000CBAEB3EBEC3A5BD9CA55E56A5595927607
:100820009D4FA7D3E97436BB72B25297AB9593B183
:10083000BF7BF7B056DEA9DCC9FDD6D9CA55A56E77
:100840005555AE53555DDD57A9DB294AAA53A95426
:1008500055577757AE5355B94E55E55A55A56E5570
:1008600095BA955D87CE743A5DB9CBDDAB5B5D4ED5
:1008700049E79C934A2ABBDDAED3616BA96E5595BF
:10088000BA5555EA5655A95B55E56A7749252B3B7C
:1008900096B2CA5DEA5655A95B55E56A55CB6536F1
:1008A0009D7CF74E05CDA5F3E96C252B59C94AD699
:1008B0002E95CA75AE739DEB5CE73AD7B9CE75AE8F
:1008C000739D4AD5AE9295AC64252B79B9CB5DEE7C
:1008D000D2913BA583A69258CA5DEE7297AB642570
:1008E0002B59C94AD62E95CA75AE739DEB5CE73A73
:1008F000D7B9CE75AE739D4AD5AE9295AC6465D32B
:10090000D974D01014100000E020A038082C040482
:1009100000288818202020E0000000001F10302050
:100920007B6B3717173120686820101F000000000C
:10093000E060B0184820840404084830202060C0DB
:10094000800000030F301030605B4A36171710200C
:100950002C20100A0F000080C0407018C8A4048426
:100960002C081890302060C000000007091B3621B9
:1009700021405B4A261713102C34100D070000008D
:1009800080807010D0848404840808D8302020E04F
:10099000000000001F10162C2C2041465A671B1027
:1009A00010161807000000000080E030C484848422
:1009B000040808183020E000000000001C1F302C44
:1009C0002C2C6C41424A731010180F0000000000DC
:1009D000000000F018848484840C0C0838E00000C7
:1009E0000000000000003F202C2C6C4C4D40437850
:1009F000080F000000000000000000C06C048484A8
:100A00008484047CC0000000000000000000007F1F
:100A1000404C4C4C444C4C407F0000000000000017
:100A20000000E038080C0C8484848418F000000076
:100A30000000000000000F087843404C446C2C2854
:100A4000203F00000000000000E0203018080804EB
:100A5000848484CC38E0800000000000000F18106F
:100A600010734A40406C2C282C301F1C00000000E2
:100A7000E0202030D0000884048484DC187080805A
:100A80000000000007181610101B675A444020246D
:100A90002C16101F00000000C06020309018082C99
:100AA0008404A4CC187040C0800000070D10342CC2
:100AB000101317264A5B402021361B0907000080CF
:100AC000C0602020304808040484244C18B060E042
:100AD0000000000F0A10202C20101717364A5B6008
:100AE0003010300F03000000E020202018882C0474
:100AF00004042C0838A020E0000000001F1020682B
:100B00006820311717376B792030101F00000080E4
:100B1000C0404030584CA40404060808103060C09F
:100B2000800000030E303060585861361717332AA2
:100B30002D3018090F000000C040603848CC0484F4
:100B400004044808103020C0800000070918302035
:100B500060505865361713232D301B0D0700000019
:100B60008080C030DCC4C40684044C08183020E007
:100B7000000000001F103020204040504137131368
:100B800015110C07000000000000C0709CC4C48454
:100B90000404448C1830E00000000000183F2028B6
:100BA0002C4040404041731314180700000000001F
:100BB000000000E018C4D4848404048C1CF00000FD
:100BC0000000000000203F6160404C404040417800
:100BD000180F000000000000000000C07C048484A6
:100BE0008484047CC0000000000000000000007F3E
:100BF00040404048484040407F0000000000000066
:100C00000000F01C8C040484C4D4C410E000000074
:100C10000000000000000F1878414040404C406048
:100C2000613F20000000000000E030188C44040404
:100C300084C4C49070C000000000000000071814B5
:100C4000137341404040402C28203F180000000012
:100C5000E0203098084C048406C448D030C080801E
:100C600000000000070C11151313374150404020BD
:100C70002030101F00000080C020301008480404FD
:100C80008404C848386040C0000000070D1B302DA8
:100C9000231317366558506020301809070000806C
:100CA000C06030100808060404A04858304040C016
:100CB0008000000F0918302D2B3317173661585854
:100CC0006030300E030014100000F810A03808281F
:100CD000282828288818A02060C0000000001F10C5
:100CE000362263633717173723606222101F000014
:100CF0000000F020B0184828A828282848303030B4
:100D000060C0000000030F321036624342361717EE
:100D100017232021100B0F0000C0E0407018C8A856
:100D200028A828081890302060C000000007081B81
:100D300036202D464342261713132131100F06008B
:100D40000000C0407010D0A8A828A80808D0B0A003
:100D500020E0000000001F10162E2E204D46426796
:100D60001B1311101807000000000080E030D0882D
:100D7000A8A828280818B020E000000000001C1FC8
:100D8000302E2E2C6C414642731310180F000000B9
:100D90000000000080E01088A8A8A828088818F0A3
:100DA00000000000000000003F202E2C6C4C4D4045
:100DB0004379080F000000000000000000C0780820
:100DC000A8A8A8A80878C000000000000000000043
:100DD000007F404C4C4C484C4C407F0000000000D1
:100DE00000000000F018880828A8A8A88810E08053
:100DF00000000000000000000F087943404D446CE3
:100E00002C2A203F00000000000000E020B018085D
:100E10002828A8A888D030E0800000000000000F3B
:100E2000181013734246416C2C262E301F1C0000F4
:100E30000000E020A0B0D00808A828A8A8D0107012
:100E400040C00000000007181011131B6742464DF8
:100E5000202E2E12101F00000000C06020309018BD
:100E60000828A828A8C8187040E0C00000060F1085
:100E70003121131317264243442C20361B08070048
:100E80000000C06030303048282828A8284818B012
:100E900020F00000000F0B102121231717173642F6
:100EA00043623610320F03000000C06020A0188893
:100EB00028282828280838A010F8000000001F1053
:100EC000226262233717173763612236101F000032
:100ED0000000C060A0B05848A828282808081018AA
:100EE00020C0800000030F3030664242673617177B
:100EF000332320331B090F000000C040603848C86E
:100F000008A8281C4808101020E0800000070B18D3
:100F100030206D4642673617132321311B0D070021
:100F2000000080804030D0C8C828B40C4808989091
:100F300030E0000000001F103026204044424737B8
:100F4000131311110C07000000000080C07090C83E
:100F5000C8B42C2848889810F00000000000183F02
:100F600020282C404040464373131018070000000F
:100F70000000000000E010C8C4ACA828088818F0E1
:100F800000000000000000003F6060484C4040400E
:100F90004378180F000000000000000000C078082F
:100FA000B8B8B8B80878C000000000000000000021
:100FB000007F4040404C4C4040407F00000000001B
:100FC00000000000F018880828A8ACC4C810E00091
:100FD00000000000000000000F1878434040404C23
:100FE0004860603F00000000000000F01098884852
:100FF000282CB4C8C89070C0800000000000000712
:101000001810137343444048402C28203F18000018
:101010000000E030909808480CB428C848D0304010
:10102000808000000000070C111113133747424461
:1010300040202630101F00000080E020501008489B
:101040001C28A808C848386040C0000000070D1BD5
:101050003121231317366742466D2030180B0700E5
:101060000080C02018100808282828A84858B0A0D8
:1010700060C00000000F091B3321233317173667A8
:1010800042426630300F0300080B000202020100EA
:1010900009040000010202000005240010010524DB
:1010A000010101042402060524060001070581034D
:1010B00010004009040100020A00000007050202B6
:1010C00040000007058302400000040309041201E8
:1010D0000002EF02014041233680000101020301BA
:1010E00041726475696E6F204C4C430041726475A7
:1010F000696E6F204C656F6E6172646F000102044F
:10110000081020408000DD2011241FBECFEFDAE060
:10111000DEBFCDBF11E0A0E0B1E0EAECFDE402C02B
:1011200005900D92A035B107D9F728E0A0E5B1E010
:1011300001C01D92A632B207E1F718E0C4E8D8E07A
:1011400004C02197FE010E94D826C338D107C9F7F1
:101150000E9406170C94E3260C9400005F926F9295
:101160007F928F929F92AF92BF92CF92DF92EF9237
:10117000FF920F931F93CF93DF93EC018B017A01C2
:10118000A901461B570B57FF03C0519541955109C3
:10119000C7018C1B9D0B97FF03C091958195910909
:1011A000552453948417950714F0512C0AC09E2D92
:1011B0008F2D7901292F382F9C2F8D2FE801092F92
:1011C000182FEC16FD0654F4902F812F8901292F3A
:1011D000382F9C2F8D2FE701E92EF82E37016C1A3E
:1011E0007D0A5901A01AB10AB7FE03C0B194A194B7
:1011F000B108630177FE03C08FEFC81AD80AD594EF
:10120000C7940217130714F08FEF01C081E0882EF6
:10121000880F9908EC16FD06B4F021E0552019F06E
:10122000AE01B80102C0A801BE0180EA97E00E94A9
:101230002014CA18DB08D7FE04C0080D191DC60CFF
:10124000D71C2196E7CFDF91CF911F910F91FF908F
:10125000EF90DF90CF90BF90AF909F908F907F9056
:101260006F905F900895EEE5F1E081E0A0E0B8E0D6
:1012700000800EBC8111012C1197A0FDFDCF0192C1
:10128000B9F70DB408952F923F924F925F926F92EB
:101290007F928F929F92AF92BF92CF92DF92EF9206
:1012A000FF920F931F93CF93DF93CDB7DEB72B97AA
:1012B0000FB6F894DEBF0FBECDBF4C016B015A8351
:1012C00049831C821B821D821E8268E070E0CE0171
:1012D00001960E94DB1301961C0168E070E0CE01CC
:1012E00001960E94DB138C0161E070E0CE01019653
:1012F0000E94DB13482FC401820D931D97FDD3C0BC
:1013000050E8851691040CF0CEC098012F5F3F4F36
:10131000C601820F931F97FDC6C060E4C616D104B4
:101320000CF0C1C08601D7FE04C0002711270C199C
:101330001D09077011277601D7FE03C077E0E70E7D
:10134000F11C63E0F594E7946A95E1F7D7FE09C0D4
:1013500081E0E81AF10888E090E0BC01601B710BA5
:101360008B01690137FF03C077E0C70ED11C53E042
:10137000D594C7945A95E1F727703327232B19F09A
:101380008FEFC81AD80A4F8331E020E0A12CB12C8E
:10139000612C712C88E090E0AC01401B510B598707
:1013A00048876C147D040CF07EC044244394512C77
:1013B00061E070E0CE0101962A873B870E94DB1333
:1013C0002A853B85892B21F452E0450E511CF0CF34
:1013D000B201CE0101960E94DB13AC014F5F5F4F5B
:1013E000E0E0F0E02A853B85E417F50708F052C0FD
:1013F0006F816111232B330F09F04AC0B701660DCD
:10140000771DCB010196099798F5C501880D991DA7
:101410008038910568F52B015694542C4424579438
:101420004794480C591C4A0C5B1C6F3F8FEF7807A0
:10143000B1F1D201A25ABE4F822F002E01C0880FF7
:101440000A94EAF79C91892B8C930115110581F080
:101450006730710569F0D201A252BE4F30E00884B6
:1014600002C0359527950A94E2F78C91282B2C938E
:101470009FEFA91AB90AA214B30444F06FEF661AD9
:10148000760A31E020E0A12CB12C02C031E020E04E
:101490003196AACF4F8151E045274F8382CF011566
:1014A0001105C9F6E5CF2B960FB6F894DEBF0FBE37
:1014B000CDBFDF91CF911F910F91FF90EF90DF9003
:1014C000CF90BF90AF909F908F907F906F905F90E4
:1014D0004F903F902F9008958F929F92AF92BF921E
:1014E000CF92DF92EF92FF920F93CF93DF936B0136
:1014F000EC014C01840E911C5B01A20EB11CC815BD
:10150000D905ECF47601D7FE10C0E12CF12C0DC00A
:10151000E816F90694F4202FA701BE0180EA97E0AF
:101520000E9420142FEFE21AF20AC50121E4A2164C
:10153000B10474F380E490E0EBCF2196E0CFDF912B
:10154000CF910F91FF90EF90DF90CF90BF90AF9031
:101550009F908F9008956F927F928F929F92AF92FB
:10156000BF92CF92DF92EF92FF920F931F93CF9390
:10157000DF9300D000D0CDB7DEB7DC0141155105B7
:1015800009F4E8C1FA011491319694916A01F2E0EC
:10159000CF0ED11CE12EF12C222309F1492F4695C3
:1015A00046954695E42FF0E041E050E0892F8770A2
:1015B00011F440E050E04E0F5F1FE49EF001E59E05
:1015C000F00DF49EF00D1124033011F4EE0FFF1F07
:1015D0002E9FA0012F9F500D1124C40ED51E0F3F2A
:1015E00009F402E0AD014E0D5F1D141615060CF056
:1015F000B1C1A038B1050CF0ADC19B01290F311D5F
:10160000121613060CF0A6C1603471050CF0A2C1CD
:10161000C114D10409F49EC1362F3770FB0177FD48
:10162000379623E0F595E7952A95E1F72E2F77FF7A
:1016300004C0332311F02FEF2E0FB7FF05C066272C
:1016400077276A1B7B0B02C060E070E040385105D1
:1016500024F050E85A1B952E01C0912E961AA22E06
:10166000022E000CBB082F3F1CF48A2D809501C070
:1016700080E041E0592F577009F440E09695969527
:101680009695940FA90EB11C49E0A416B10414F06C
:1016900098E0921B981B280F40E82403A00DB11D71
:1016A0001124A60FB71F819F600D711D11243601F3
:1016B000660E771E41E050E06A01032E02C0CC0C9A
:1016C000DD1C0A94E2F7033009F400C1A0F40130F4
:1016D00009F4B1C0023009F03DC18FEF8C9DB0011B
:1016E0008D9D700D1124609570957C836B838C802B
:1016F000492F420F29C00A3F31F00B3F09F02AC1A0
:10170000492F420F84C0492F420F4FC0F301E00F11
:10171000F11FE491EC9D5001ED9DB00C1124BA82B3
:10172000A98227FD05C0FC0150815623A52AA0826D
:10173000311113C00F5F1F4F0196091538F32F5F4A
:101740006E0C7F1CA058BF4F241709F403C1CD01B4
:10175000825A9E4F00E010E0F0CF27305CF7FC018A
:10176000E058FF4F50815821BA805B295083E2CF67
:10177000F301E60FF71FE491EC9D8001ED9D100D44
:1017800011241A83098327FD04C0FC015081052B15
:101790000083311113C06F5F7F4F0196691540F3CD
:1017A0002F5F6E0C7F1CA058BF4F241709F4D2C0C6
:1017B000CD01825A9E4F60E070E0F0CF27305CF799
:1017C000FC01E058FF4F10815A81512B5083E3CF29
:1017D000F301E00FF11FE491EC9DC001ED9D900D30
:1017E00011249A83898327FD05C08095FB01908190
:1017F00089238083311114C00F5F1F4F6F5F7F4FAC
:10180000091530F32F5F6E0C7F1CA058BF4F2417B3
:1018100009F4A0C0BD01625A7E4F00E010E0F0CF95
:10182000273054F7FB01E058FF4F8A818095908163
:1018300089238083E1CF892E820EA301CB018619F3
:101840009709281509F486C0BD01625A7E4F5B01D5
:1018500000E010E00915A0F5F801E80FF91FE40F0A
:10186000F51FE491EC9DB001ED9D700D1124609584
:1018700070957C836B83FA01E00FF11FE491EC9D7E
:101880003001ED9D700C11247A82698227FD05C01C
:10189000F50170816723662A6082332359F027306F
:1018A0004CF4F501E058FF4F70816C8167237A8119
:1018B000672B60830F5F1F4FFFEFAF1ABF0ACACFBE
:1018C0002F5F4E0D5F1DA058BF4FBBCFA92CB12C71
:1018D000F301E60FF71FA25ABE4F60E870E06A19E5
:1018E0007B09EA18FB088701000F111F592D492FAA
:1018F000792CE32ECF93DF93ED01EF96EF962296AE
:101900008590A590EE2059F08C9C4001AC9C500134
:1019100027302CF4F880B094FB20F928F992222388
:101920003AF0FC90A094FA20F828FD920C94990CBF
:1019300011965A9529F74A9551F0572D2395112460
:10194000E00FF11DA60FB11DC60FD11DD9CFDF913C
:10195000CF9111240F900F900F900F90DF91CF91A6
:101960001F910F91FF90EF90DF90CF90BF90AF90BD
:101970009F908F907F906F9008959C01285E3F4FBD
:101980002839310570F5FC0197FF02C0E0E0F0E076
:1019900049968138910514F080E890E08E1BAB01E8
:1019A0004770552721E030E001C0220F4A95EAF741
:1019B000209577FF02C0695F7F4F93E0759567952B
:1019C0009A95E1F77695762F662777956795E60FD6
:1019D000F71FE25AFE4F815020F09081922391939D
:1019E000FACF08950F93242F03E0AB0168E370E072
:1019F0000E94AB0A0F9108952091A607282329F48D
:101A00009091A507982381E009F480E008958F92D2
:101A10009F92AF92BF92CF92DF92EF92FF920F937D
:101A20001F93CF93DF93EC016B015A0149010E9490
:101A3000AE089701A801B401C5010E94AE08960145
:101A4000AE01B701C801DF91CF911F910F91FF90B7
:101A5000EF90DF90CF90BF90AF909F908F900C94BD
:101A6000AE0865E070E080E090E00C943612FC0176
:101A700080915D01811103C08FEF9FEF08959FB7A3
:101A8000F89482E08093E9002091F20030E0121691
:101A9000130614F421E030E02115310559F028989F
:101AA00084E680935C018091F10080838091F20054
:101AB000882319F09FBFC90108958BE68093E80041
:101AC000F9CF2FB7F89483E08093E9009091E80074
:101AD000892F807295FF04C09091F20080E4891BE9
:101AE0002FBF08958F929F92AF92BF92CF92DF92B5
:101AF000EF92FF920F931F93CF93DF935C016B01E3
:101B00007A0180911B01882309F45BC080915D01FB
:101B1000882309F456C080915B0180FF05C0809145
:101B2000E00082608093E000E70110E00AEF83E0CC
:101B3000882E9AE3992E2097D9F10E94610D811188
:101B40000AC0015009F43DC061E070E080E090E01F
:101B50000E943612F0CF282F30E0C217D3070CF4C2
:101B60008C2F4FB7F8948092E9009091E80095FF90
:101B70001DC0282F30E0C21BD30BF601982F9150C7
:101B800020F081918093F100FACFC20ED31E112371
:101B900019F09092E80009C08091E80085FD06C028
:101BA0009092E80011E0209709F010E04FBFC3CFFA
:101BB0001111C3CF5D9884E680935A011E141F044F
:101BC00044F081E090E0F5019383828380E090E02F
:101BD00001C0C701DF91CF911F910F91FF90EF904E
:101BE000DF90CF90BF90AF909F908F90089580919D
:101BF000AF0781110DC082E08093AB0784E0809332
:101C0000AC071092AE071092AD0781E08093AF074A
:101C10008BEA97E00895CF93DF931F92CDB7DEB79D
:101C20006983DC01ED91FC910280F381E02D41E0BC
:101C300050E0BE016F5F7F4F09950F90DF91CF910C
:101C4000089583E08093E9008091F200882319F0E1
:101C50008AE38093E8000895FC018485958597FDCB
:101C60000BC09FB7F89482E08093E9008091F20066
:101C70009FBF90E0019608959FB7F89482E080930B
:101C8000E9008091F2009FBF90E00895409116080E
:101C900050911708209114083091150842175307E6
:101CA000B4F49091E8009570E1F39091E80092FD12
:101CB00019C08093F1008091160890911708019641
:101CC0008F739927892B19F48EEF8093E800809108
:101CD000160890911708019690931708809316089C
:101CE00081E0089580E00895DF92EF92FF920F93D4
:101CF0001F93CF93DF93D82E8A017B01E40EF51E4C
:101D0000EB01CE15DF0571F0D7FE03C0FE01849113
:101D100001C088810E94460E21968111F2CF8FEF7B
:101D20009FEF01C0C801DF91CF911F910F91FF90EC
:101D3000EF90DF900895615030F02091F100FC01A8
:101D400020830196F8CF289884E680935C0108955B
:101D50000E94610D90E00895CF93DF931F92CDB75D
:101D6000DEB7FC018485958597FD05C02FEF3FEF19
:101D7000358724870BC0CE0101960E94370D01974D
:101D800019F4898190E002C08FEF9FEF0F90DF91EF
:101D9000CF9108950F931F93CF93DF931F92CDB7E9
:101DA000DEB78C01FC018485958597FF0EC0CE01BE
:101DB00001960E94370D019719F4298130E002C085
:101DC0002FEF3FEFF80135872487F801848595854B
:101DD0000F90DF91CF911F910F9108950F931F9353
:101DE000CF93DF931F92CDB7DEB782E0898342E4C1
:101DF00050E068E870E180E80E94740E0E94F70DE0
:101E0000DC0112960D911C9113970115110569F0D3
:101E1000D801ED91FC910280F381E02DBE016F5F4E
:101E20007F4FC801099597FF07C089810F90DF9107
:101E3000CF911F910F910895F80100851185E5CF8D
:101E40001F920F920FB60F9211248F939F93809140
:101E5000E1009091E100937F9093E10083FF0FC038
:101E60001092E90091E09093EB001092EC0092E365
:101E70009093ED0010925D0198E09093F00082FF46
:101E800020C093E09093E9009091F200992319F01B
:101E90009AE39093E80090915A01992339F0909138
:101EA0005A01915090935A01992389F190915C01C4
:101EB000992339F090915C01915090935C019923A2
:101EC00041F184FF10C08091E2008E7E816080939A
:101ED000E2008091E1008F7E8093E10080915B01C0
:101EE0008E7E806111C080FF16C08091E2008E7EE0
:101EF00080618093E2008091E1008E7E8093E1001A
:101F000080915B018E7E816080935B0104C05D9A4D
:101F1000CDCF289AD6CF9F918F910F900FBE0F9063
:101F20001F9018951F920F920FB60F921124CF9207
:101F3000DF92EF92FF920F931F932F933F934F9354
:101F40005F936F937F938F939F93AF93BF93EF9321
:101F5000FF93CF93DF93CDB7DEB76C97DEBFCDBFD6
:101F60001092E9008091E80083FFEDC168E0CE01A6
:101F700045960E949B0E82EF8093E8008D8987FF33
:101F800005C09091E80090FFFCCF03C09EEF9093B6
:101F9000E800982F907609F0C6C09E892F89188D89
:101FA00091110CC0803829F4809113088093F100BE
:101FB00002C01092F1001092F10048C1422F50E08F
:101FC000512B913051F4811141C14130510509F03B
:101FD0003DC1809113088D7F0BC0933061F4811156
:101FE00035C14130510509F031C18091130882603B
:101FF000809313082BC1953041F48091E80080FF55
:10200000FCCF20682093E30021C1963009F05FC027
:10201000EB8CFC8C1092E9001092170810921608B5
:10202000123091F510921508109214080E94EE0ECD
:1020300099E0BE016F5F7F4FDB01E92F1D92EA95AA
:10204000E9F799831A8391E09E8390EA98879AEF43
:1020500099872091160830911708275F3F4F3C83DE
:102060002B838D831092E9001092170810921608A6
:10207000F0921508E092140849E050E080E00E94D8
:10208000740E0E94EE0EE2C0F0921508E092140861
:102090000E94F70DDC011296ED90FC901397E1146D
:1020A000F10409F4C0C0D701ED91FC910480F581E1
:1020B000E02DBE016B5E7F4FC7010995009719F0B7
:1020C0000CF0C4C0C7C0F701E084F184E8CF9730BA
:1020D00009F4C0C0983021F481E08093F100B6C0CB
:1020E000993009F0B3C0837009F0B4C0E4E4F1E0C2
:1020F00081E021E036E39081992361F08093E9004B
:102100002093EB0091919093EC003093ED008F5F62
:10211000873089F78EE78093EA001092EA008F8972
:1021200080935D0193C08B8D9C8D1092E90010927D
:102130001708109216089093150880931408898D3B
:10214000811156C08E899D89913A59F4813209F0E6
:1021500081C047E050E064E171E080E00E94740ECD
:1021600075C0913209F076C0833289F4888D90E091
:10217000982F88272F89822BA0E0B0E080931C0144
:1021800090931D01A0931E01B0931F015FC0803288
:1021900069F48091E80082FFFCCF67E084E191E080
:1021A0000E949B0E8BEF8093E80006C0823209F0FC
:1021B0004DC08F8980931B0180911208882319F0EC
:1021C000EEEFFAE002C0E0E0F8E0809114019091B7
:1021D0001501A0911601B0911701803B9440A10513
:1021E000B10509F07BC080911B0180FF93C076C0D0
:1021F0000E94F70DDC0112960D911C9113970115A9
:10220000110541F1D801ED91FC910190F081E02D93
:10221000BE016B5E7F4FC8010995811117C0F8019F
:1022200000851185ECCF113009F44EC0133091F4C4
:102230008F89882309F445C0823081F440E860E149
:102240008CEE90E10E944D22882321F08EEF809346
:10225000E80079C081E28093EB0075C0813029F4F9
:1022600040E86BE080EE90E1EDCF833099F70E947B
:10227000F70DDC011296ED90FC9013978E010F5F25
:102280001F4F6801E114F10479F0D701ED91FC9141
:102290000680F781E02DB801C7010995080F111DCF
:1022A000F701E084F184EECFD8011C92F601019091
:1022B0000020E9F73197BF016C197D0940E0C601A4
:1022C000C1CF6AEC70E102C06EEC70E1611571057E
:1022D00009F2FB01449150E080E840CF0FB6F8943A
:1022E000A8958091600088618093600010926000E2
:1022F0000FBEA895EE3F2AE0F20739F08091FE0A62
:102300009091FF0A91838083A1CF1092FF0A1092CF
:10231000FE0A9CCFEE3F8AE0F80731F08081918180
:102320009093FF0A8093FE0A87E797E79183808363
:102330009BE088E10FB6F894A895809360000FBEEB
:102340009093600083CF6C960FB6F894DEBF0FBEFB
:10235000CDBFDF91CF91FF91EF91BF91AF919F9151
:102360008F917F916F915F914F913F912F911F912D
:102370000F91FF90EF90DF90CF900F900FBE0F90D6
:102380001F901895CF92DF92EF92FF920F931F93B9
:10239000CF93DF936C017A018B01C0E0D0E0CE15C2
:1023A000DF0589F0D8016D918D01D601ED91FC9189
:1023B0000190F081E02DC6010995892B11F47E0171
:1023C00002C02196ECCFC701DF91CF911F910F91F1
:1023D000FF90EF90DF90CF90089580915801E091A9
:1023E0005601F0915701882349F0CF01029690934E
:1023F000570180935601859194910895CF010296DB
:102400009093570180935601808191810895809126
:10241000590108950895089580E090E008950E947C
:10242000DE263FB7F8948091220890912308A0916E
:102430002408B091250826B5A89B05C02F3F19F0A8
:102440000196A11DB11D3FBFBA2FA92F982F882734
:10245000820F911DA11DB11DBC01CD0142E0660F8F
:10246000771F881F991F4A95D1F708958F929F92E1
:10247000AF92BF92CF92DF92EF92FF926B017C01FD
:102480000E9411124B015C01C114D104E104F1045A
:10249000F1F00E941112DC01CB0188199909AA09F7
:1024A000BB09883E9340A105B10570F321E0C21A33
:1024B000D108E108F10888EE880E83E0981EA11C7F
:1024C000B11CC114D104E104F10419F7DDCFFF9070
:1024D000EF90DF90CF90BF90AF909F908F90089536
:1024E0001F920F920FB60F9211242F933F938F9349
:1024F0009F93AF93BF938091500190915101A09110
:102500005201B09153013091210823E0230F2D3760
:1025100020F40196A11DB11D05C026E8230F0296E7
:10252000A11DB11D2093210880935001909351016A
:10253000A0935201B09353018091220890912308F7
:10254000A0912408B09125080196A11DB11D80938A
:10255000220890932308A0932408B0932508BF91E4
:10256000AF919F918F913F912F910F900FBE0F9040
:102570001F901895CF92DF92EF92FF920F931F93C7
:10258000CF93DF930E94ED11811520E8920761F44B
:10259000809171008D7F8093710010929100469818
:1025A000479810921A088BC021E020931A088130B6
:1025B00020E8920751F48091540190915501909335
:1025C0005701809356010E94ED1197FD05C020919F
:1025D0001908222309F43FC02091180821113BC09B
:1025E00021E020931B08EC01DF77209769F481E05C
:1025F00080931C0846983FE9C32E3FE0D32EE12C80
:10260000F12CCAEFD0E014C08E0120E030E060E48D
:1026100072E48FE090E0A90198010E94FC22690118
:102620007A0181E0C81AD108E108F10810921C086B
:10263000E0916C05F0916D050995811103C081E071
:1026400080931C0880911B088823B9F180911C0895
:10265000811133C003C010921B08C5CF46992DC00D
:10266000479A0E94ED11009771F09C01DE010E94D3
:102670005023DC01CB0129E0B595A7959795879567
:102680002A95D1F703C08FEF9FEFDC0110929000E5
:102690002AE020939100D0929900C09298008093F4
:1026A0001D0890931E08A0931F08B09320088091E6
:1026B000710082608093710002C04798D2CFDF9191
:1026C000CF911F910F91FF90EF90DF90CF900895E1
:1026D0001F920F920FB60F9211242F933F934F9397
:1026E0005F936F937F938F939F93AF93BF93EF937A
:1026F000FF9380911D0890911E08A0911F08B09132
:102700002008892B8A2B8B2B81F180911C08811149
:102710000BC098B180E4892788B980911B08882371
:1027200019F088B1805888B980911D0890911E08D1
:10273000A0911F08B0912008181619061A061B064A
:10274000B4F480911D0890911E08A0911F08B091CB
:1027500020080197A109B10980931D0890931E08D4
:10276000A0931F08B093200802C00E94BA12FF91E4
:10277000EF91BF91AF919F918F917F916F915F91F9
:102780004F913F912F910F900FBE0F901F90189572
:102790008FB18095807F669B88601C9B84600895C4
:1027A000109259013E983F9808953E9A3F9A81E0D1
:1027B0008093590108951F93CF93DF93DC0120E0AC
:1027C00030E040E050E011E0C1E0D0E026173707EC
:1027D00091F114968C911497811115C014961C9345
:1027E000149712968D919C911397ED91FC911197EE
:1027F000E80FF91FE4911596EC931597019613963F
:102800009C938E93129714969C91149715968C9185
:102810001597892349F0FE01022E02C0EE0FFF1F1B
:102820000A94E2F74E2B5F2B990F14969C93149702
:102830002F5F3F4FCBCFCA01DF91CF911F910895FA
:1028400060387105D0F440345105B8F4EDEFF0E193
:1028500080E1849FD001A0781124A60F4770E40F77
:10286000F11D8491A25ABE4F222319F06C91862B40
:1028700003C080956C9186238C930895CF92DF924C
:10288000EF92FF92CF93DF93EC01188219821A82A4
:102890001B821C821D821E821F82188619861A8640
:1028A0001B861C861E861D86188A1F86198A1A8A10
:1028B000198E1A8E1B8E1C8E1D8E1E8E1F8E18A2B8
:1028C00019A280E090E0A0E0B0E48AA39BA3ACA3AF
:1028D000BDA380E090E0A0E6B0E48EA39FA3A8A7EC
:1028E000B9A78DEC9CECACE4BDE38AA79BA7ACA791
:1028F000BDA783E393E3A3EBBEE38EA79FA7A8AB9B
:10290000B9AB8AE097EDA3EABCE38AAB9BABACAB77
:10291000BDAB80E090E0A0E8BFEB8EAB9FABA8AF73
:10292000B9AF0E94D8222CE2C22EDD24D394E12C30
:10293000F12CA70196010E94FC220E94F2246883D8
:1029400079838A839B830E94D822A70196010E94E3
:10295000FC220E94F2246C837D838E839F8384E11A
:102960008B8780E18C8786E0EAE4F1E0DE011D964A
:1029700001900D928A95E1F70E94D82225E030E07F
:1029800040E050E00E94FC229B01AC012B5F3F4FD6
:102990004F4F5F4F61E070E080E090E00E94FC22CA
:1029A000CA01B9010E94F2242AE037ED43E25CE358
:1029B0000E9460236AAB7BAB8CAB9DABCAA4DBA44B
:1029C000ECA4FDA40E94D82220E030E0A901C701B8
:1029D000B6010E9460236AA77BA78CA79DA788E108
:1029E0008887DF91CF91FF90EF90DF90CF9008958F
:1029F0004F925F926F927F928F929F92AF92BF920F
:102A0000CF92DF92EF92FF920F931F93CF93DF93BA
:102A100000D000D000D0CDB7DEB7FC0129833A83C7
:102A20004B835C8329813A81EB80FC80472F83892B
:102A30009489A588B688508D7789DC01A70FB11DD0
:102A40002A173B070CF0B4C0D901A60FB11DBD0178
:102A50008A179B070CF0ACC0D501A50FB11DEA1673
:102A6000FB060CF0A5C06701C40ED11CAC14BD045C
:102A70000CF09EC08F014585568582179307ACF4F4
:102A8000F8018189B901681B7109641B750B6F5FBF
:102A90007F4F072E000C880B990B0E94F224D8015F
:102AA0002D913D914D915C910DC0641B750B072ECE
:102AB000000C880B990B0E94F224F80120813181CF
:102AC000428153810E945F232B013C01D8011F9654
:102AD0008D919C915097AE14BF04ACF452962C91FA
:102AE000B701621B7109681B790B6F5F7F4F072E5F
:102AF000000C880B990B0E94F224F8012481358187
:102B00004681578110C0B601681B790B072E000C57
:102B1000880B990B0E94F224D80114962D913D91B7
:102B20004D915C9117970E945F236B017C0120E01F
:102B300030E0A901C301B2010E94082653014201FD
:102B4000181624F0B7FAB094B7F8B09420E030E04B
:102B5000A901C701B6010E940826A701960118160F
:102B60000CF05058C501B4010E943E2487FF10C0EC
:102B7000A3019201F80160817181828193810E9499
:102B80006023D8016D937D938D939C93139710C010
:102B9000A7019601F80164817581868197810E9461
:102BA0006023D80114966D937D938D939C93179712
:102BB00026960FB6F894DEBF0FBECDBFDF91CF9142
:102BC0001F910F91FF90EF90DF90CF90BF90AF904B
:102BD0009F908F907F906F905F904F900895CF92CD
:102BE000DF92EF92FF920F931F93CF93DF93EC014D
:102BF0006F857889072E000C880B990B0E94F224B0
:102C00002C813D814E815F810E9460230E94BA2405
:102C10006B017C0109891A898D859E85BC01990FFC
:102C2000880B990B0E94F224288139814A815B81AB
:102C30000E9460230E94BA247C8B6B8BDE8ACD8A33
:102C40000F8B188FDF91CF911F910F91FF90EF9015
:102C5000DF90CF9008954F925F926F927F928F9204
:102C60009F92AF92BF92CF92DF92EF92FF920F931B
:102C70001F93CF93DF93EC01CE8CDF8CE8A0F9A0FB
:102C800020E030E04AE754E46A8D7B8D8C8D9D8D89
:102C90000E94152620E030ED4FE557E40E944824BD
:102CA0004B015C010E9443249B01AC01C701B601AA
:102CB0000E941526288139814A815B810E94602308
:102CC0002B013C01688379838A839B83C501B4010E
:102CD0000E9482269B01AC01C701B6010E94152605
:102CE0009B01AC016C817D818E819F810E945F235D
:102CF0006B017C016C837D838E839F8320E030E0B9
:102D0000A901C301B2010E943E2487FF05C01882B9
:102D100019821A821B822EC0AB8400910801109187
:102D20000901B12CB5010B2C000C880B990B0E94EA
:102D3000F2249B01AC01C301B2010E9460232B016C
:102D40003C01B80180E090E00E94F0249B01AC01BE
:102D5000C301B2010E940826181664F4C8018A193A
:102D60009B09BC0180E090E00E94F0246883798395
:102D70008A839B8320E030E0A901C701B6010E944D
:102D80003E2487FF05C01C821D821E821F822DC02B
:102D9000AC8400910A0110910B01B12CB5010B2CF0
:102DA000000C880B990B0E94F2249B01AC01C70117
:102DB000B6010E9460236B017C01B80180E090E0C5
:102DC0000E94F0249B01AC01C701B6010E940826B5
:102DD00018165CF4B8016A197B0980E090E00E9443
:102DE000F0246C837D838E839F83DF91CF911F912D
:102DF0000F91FF90EF90DF90CF90BF90AF909F909A
:102E00008F907F906F905F904F900895CF93DF9356
:102E1000CDB7DEB7CA54D1090FB6F894DEBF0FBEE6
:102E2000CDBF789484B5826084BD84B5816084BD53
:102E300085B5826085BD85B5816085BD80916E0058
:102E4000816080936E001092810080918100826089
:102E500080938100809181008160809381008091C6
:102E600080008160809380008091910082608093D7
:102E700091008091910081608093910080919000F9
:102E80008160809390008091C10084608093C10034
:102E90008091C10082608093C1008091C1008160F7
:102EA0008093C1008091C30081608093C3008091B2
:102EB000C00082608093C0008091C20081608093D6
:102EC000C20080917A00846080937A0080917A00B9
:102ED000826080937A0080917A00816080937A008A
:102EE00080917A00806880937A0010925D01109240
:102EF000130810925B018091D70081608093D70006
:102F000080EA8093D80089B5806189BD89B58260E7
:102F100089BD09B400FEFDCF61E070E080E090E083
:102F20000E9436128091D8008F7C80618093D800F7
:102F30008091E000807F8093E0008091E1008E7EB0
:102F40008093E1008DE08093E200559A209AEEEFA5
:102F5000FFE7859194918B3F9C4D19F481E080931C
:102F6000120881EC80937C0085B1806F85B984B1B3
:102F7000877E84B984B1876E84B95E9A5F988AB17E
:102F8000806D8AB9769A6E9881B3806F81BB89987B
:102F900080B38D7080BB80E58CBD81E08DBD0E94CB
:102FA000310D5F9A0E94310D5E985C98E8EFF0E079
:102FB0008DE08E0F94919EBD00000DB407FEFDCFF5
:102FC00031968E13F7CF5C9A81E8809364008091EC
:102FD00065008160809365000E94C813803839F4D1
:102FE0002E9880916400806280936400FFCF82E01D
:102FF00090E00E94E622882319F00E94D51302C0B7
:103000000E94D0138FB7F894409150015091510114
:1030100060915201709153018FBF8091A807342FA6
:10302000381B832F9091A907992329F03093AA0781
:103030001092A9073EC19091A707391748F48F5FF6
:10304000891708F036C181E083BF889513BE31C16E
:1030500011E01093A9074093A8078091A3079091CE
:10306000A40701969093A4078093A3078091A507D6
:103070008093A6070E94C8138093A5078091100132
:10308000811110C00E94C81386FD0CC01AC1809126
:10309000A3079091A40766E970E00E94B026892BEF
:1030A00009F022C181E08093100180910C0181110F
:1030B00095C180910E01811117C080E20E94FC0C25
:1030C000882331F080910D01882371F081500AC06E
:1030D00080E40E94FC0C882339F080910D0183303C
:1030E00018F48F5F80930D0184E00E94FC0C88230C
:1030F00009F457C080910D01813069F58091640019
:103100008E7F8093640080917A00806480937A003F
:1031100080917A0086FDFCCF0091780010917900B3
:103120000E94111220E030E0980111270027600F63
:10313000711F821F931F611571058105910511F0A3
:103140000E94DD228091640081608093640081E0B0
:1031500080930C0143C190910F019330E1F4809171
:103160005901882319F00E94D01302C00E94D51380
:103170006091590182E090E028966FAF28970E94F5
:10318000E62228966FAD2897681789F082E090E0D4
:103190000E94EE220CC080930F0181E080930E010B
:1031A00006C088E00E94FC0C811110920E018091F3
:1031B0000E01811168C043EB55E060E070E080E0F3
:1031C00090E00E94430980910D0199E1899F802D33
:1031D0001124815FE82EF12C01E02AE047E167E34A
:1031E00070E0C7010E946C0A670191E0C91AD1081A
:1031F00066E370E0C6010E94BD0C06E310E020E02B
:10320000A801B60180EA97E00E9420140F5F1F4FCB
:1032100000341105A1F7E7E1EE0EF11C06E310E022
:1032200020E0A801B70180EA97E00E9420140F5F18
:103230001F4F00341105A1F740E067E875E080E119
:1032400090E00E94F20C40E06BE575E089E290E0CE
:103250000E94F20C40E06FE275E082E490E00E9490
:10326000F20C40E061E175E08BE590E00E94F20C29
:103270004091590167EF74E08AE690E00E94F20CF9
:103280000E94330916C080910F01811109C044E7E3
:1032900053E060E070E080E290E00E944309F0CFEC
:1032A000823071F748E752E060E070E080E090E043
:1032B000F4CF80E090E0892B09F4A4CE0E940000B6
:1032C000A1CE6091130165300CF0E1CE6F5F609389
:1032D0001301062E000C770B809112014FE751E08D
:1032E000082E000C990BD9CF80911101811133C0A8
:1032F000809171008D7F80937100109258018EE54E
:1033000095E09093570180935601909355018093D7
:103310005401E6E1F4E0F0935F05E0935E0522E3FB
:1033200030E030936105209360058DE298E0909342
:1033300063058093620584E690E090936505809331
:10334000640580E090E890936705809366050E948D
:10335000BA121093110160911301062E000C770B25
:10336000809112014FE751E0082E000C990B0E944A
:10337000430960911301062E000C770B675E7F4FA7
:1033800080911201082E000C990B00E026E048E025
:1033900080960E946C0A60911301062E000C770B38
:1033A000675E7F4F80911201082E000C990B0AEF87
:1033B00020E047E751E080960E94AB0A00E025E05C
:1033C00040E86FE270E08EE190E00E946C0A45E018
:1033D00051E06EE270E08EE190E05FCF8091940565
:1033E00090919505089709F1CE0101960E943E142F
:1033F000809194059091950588309105B4F49C01D5
:103400002F5F3F4F3093950520939405FAE3F89F83
:10341000D001F99FB00D1124AA56BA4FFE01319682
:103420008AE301900D928A95E1F7809004019090D3
:103430000501A0900601B0900701C0900001D09056
:103440000101E0900201F0900301A501940160E008
:1034500070E088E493E40E945F230E94BA246BAF7B
:103460007CAF8DAF9EAFA701960160E070E08AE768
:1034700093E40E945F230E94BA2423966CAF7DAF31
:103480008EAF9FAF2397A501940160E070E0CB0160
:103490000E945F230E94BA2427966CAF7DAF8EAF47
:1034A0009FAF2797A701960160E070E088EC92E457
:1034B0000E945F230E94BA242B013C01A5019401C4
:1034C00060E070E08AE793E40E945F230E94BA24E0
:1034D0004B015C01A701960160E070E0CB010E9406
:1034E0005F230E94BA24DC01CB01EBACFCAC21963B
:1034F0000EAD1FAD219725962EAD3FAD2597A201AC
:10350000B4010E94070D8090040190900501A090E5
:103510000601B0900701C0900001D0900101E09039
:103520000201F0900301A501940160E070E08FEAD0
:1035300093E40E945F230E94BA246BAF7CAF8DAFEF
:103540009EAFA701960160E070E08AEF93E40E94CD
:103550005F230E94BA2423966CAF7DAF8EAF9FAFDE
:103560002397A501940160E070E0CB010E945F23E6
:103570000E94BA2427966CAF7DAF8EAF9FAF27977E
:10358000A701960160E070E088EC93E40E945F235D
:103590000E94BA242B013C01A501940160E070E077
:1035A00088E493E40E945F230E94BA244B015C01EB
:1035B000A701960160E070E08AE793E40E945F2330
:1035C0000E94BA24DC01CB01EBACFCAC21960EAD21
:1035D0001FAD219725962EAD3FAD2597A201B401D1
:1035E0000E94070D8090040190900501A0900601B3
:1035F000B0900701C0900001D0900101E09002015D
:10360000F0900301A501940160E070E08AE793E483
:103610000E945F230E94BA246BAF7CAF8DAF9EAF38
:10362000A701960160E070E88BE394E40E945F23B9
:103630000E94BA2423966CAF7DAF8EAF9FAF2397C5
:10364000A501940160E070E0CB010E945F230E941D
:10365000BA2427966CAF7DAF8EAF9FAF2797A70197
:10366000960160E070E889E094E40E945F230E9484
:10367000BA242B013C01A501940160E070E08FEABF
:1036800093E40E945F230E94BA244B015C01A701CE
:10369000960160E070E08AEF93E40E945F230E944D
:1036A000BA24DC01CB01EBACFCAC21960EAD1FAD16
:1036B000219725962EAD3FAD2597A201B4010E941A
:1036C000070D8EE695E00E94EF152091940730914A
:1036D00095074091960750919707609184077091E4
:1036E000850780918607909187070E940826181603
:1036F000ACF50E94C81385FF13C020918C07309150
:103700008D0740918E0750918F07609180077091CF
:10371000810780918207909183070E94602316C0E1
:103720000E94C81386FF1AC020918C0730918D0724
:1037300040918E0750918F076091800770918107AB
:1037400080918207909183070E945F236093800796
:103750007093810780938207909383070E94C81318
:1037600082FF55C0C0908407D0908507E0908607FF
:10377000F090870720E030E0A901C701B6010E9460
:10378000082618164CF4209198073091990740911B
:103790009A0750919B0710C020E030E040E850E4C9
:1037A000609198077091990780919A0790919B0773
:1037B0000E9415269B01AC01C701B6010E9460233F
:1037C000609384077093850780938607909387079B
:1037D000C0908807D0908907E0908A07F0908B0707
:1037E000A7019601609184077091850780918607F3
:1037F000909187070E9408261816ECF5C09284075E
:10380000D0928507E0928607F092870734C00E9425
:10381000C81383FF30C0C0908407D0908507E09024
:103820008607F090870720919C0730919D07409173
:103830009E0750919F07C701B6010E9408261816DF
:10384000D4F4609198077091990780919A079091AC
:103850009B079B01AC010E9460239B01AC01C70147
:10386000B6010E945F23609384077093850780935D
:1038700086079093870786E697E00E942B1686E6D8
:1038800097E00E94EF156091800770918107809109
:103890008207909183070E94BA24CB0168E671E009
:1038A0000E94C426BC01990F880B990B0E94F22438
:1038B0006B017C0120E030E0A9010E943E2487FFDB
:1038C0000AC020E030E044EB53E4C701B6010E9497
:1038D00060236B017C01C0928007D0928107E09247
:1038E0008207F092830720E030E044EB53E4C70105
:1038F000B6010E9448246B017C0160916E0770E064
:1039000080E090E00E94F2249B01AC01C701B60167
:103910000E9415260E94C12460936F078091720750
:1039200039EFF32EF80E1091710718502091040111
:1039300030910501409106015091070160916A079D
:1039400070916B0780916C0790916D070E945F23C7
:1039500020E030E040E850E40E9460230E94BA2456
:103960004B015C0120910001309101014091020165
:103970005091030160916607709167078091680715
:10398000909169070E945F2320E030E040E850E416
:103990000E9460230E94BA24DC01CB0100E02F2D9D
:1039A000412FB4010E946C0A20910401309105015D
:1039B000409106015091070160916A0770916B0771
:1039C00080916C0790916D070E945F230E94BA243A
:1039D0006B017C01209100013091010140910201B5
:1039E00050910301609166077091670780916807A5
:1039F000909169070E945F230E94BA24DC01CB01E9
:103A00000AEF20916F0746EC5CE0B6010E94AB0A1A
:103A10002091810530918205409183055091840564
:103A2000609185057091860586E697E00E94F814FE
:103A30001BAE8BAD282E312C80919405909195056D
:103A4000281639060CF079C22AE3229D8001239DB5
:103A5000100D1124C8018A569A4F21969FAF8EAF40
:103A600021970E942B1621968EAD9FAD21970E9423
:103A7000EF15F801EC56FA4F648D758D868D978D94
:103A80000E94BA24CB0168E671E00E94C426BC0102
:103A9000990F880B990B0E94F2246B017C0120E0A6
:103AA00030E0A9010E943E2487FF0AC020E030E0F8
:103AB00044EB53E4C701B6010E9460236B017C0113
:103AC000EAE3E29DC001E39D900D11248C010C56A8
:103AD0001A4FF801C48ED58EE68EF78E20E030E0C6
:103AE00044EB53E4C701B6010E9448242B013C017A
:103AF000F801628570E080E090E00E94F2249B0172
:103B0000AC01C301B2010E9415260E94C124F80134
:103B1000638740A051A062A073A020E030E0A9011B
:103B2000C301B2010E940826181634F4F80124A932
:103B300035A946A957A90DC020E030E040E850E47F
:103B4000F80164A975A986A997A90E9415269B0169
:103B5000AC01C301B2010E946023F80160A371A30C
:103B600082A393A3FAE3F29DC001F39D900D11246B
:103B70008C010C561A4FF80144A055A066A077A0FE
:103B8000A301920160A171A182A193A10E940826C4
:103B900018162CF4F80140A251A262A273A28090E0
:103BA0006A0790906B07A0906C07B0906D074090EB
:103BB0006607509067076090680770906907FAE39E
:103BC000F29DC001F39D900D11248C010C561A4FEB
:103BD000F80120A931A942A953A960A171A182A12C
:103BE00093A10E94082618160CF093C0F801628178
:103BF0007381848195810E94BA2427966CAF7DAF32
:103C00008EAF9FAF2797C301B2010E94BA242596B9
:103C10002EAD3FAD2597261B370BB901072E000CA3
:103C2000880B990B0E94F2249B01AC01C501B401E1
:103C300028962FAF289729963FAF29972A964FAFFE
:103C40002A972B965FAF2B970E94BA244B015C01F9
:103C5000F80166817781808591850E94BA24F401FC
:103C6000E61BF70BBF01072E000C880B990B0E9477
:103C7000F22428962FAD289729963FAD29972A96AA
:103C80004FAD2A972B965FAD2B970E94DF2320E044
:103C900030ED4FE557E40E94152620E030E04AE77A
:103CA00054E40E94482420E030E044E353E40E94BE
:103CB00060230E94BA244B015C01C701B6010E9437
:103CC000BA24C401861B970B68E671E00E94C426E3
:103CD000845E9D4F68E671E00E94C426BC01645B6F
:103CE0007109072E000C880B990B0E94F224F80131
:103CF00024A535A546A557A50E9415269B01AC0114
:103D0000C701B6010E946023F801648F758F868F0A
:103D1000978FFAE3F29DC001F39D900D11249C0151
:103D20002C563A4F7901F901868599EFC92EC80EB4
:103D3000858528EFD22ED80E2091040130910501FF
:103D400040910601509107016681778180859185B8
:103D50000E945F2320E030E040E850E40E946023AE
:103D60000E94BA244B015C012091000130910101B5
:103D70004091020150910301F701628173818481B6
:103D800095810E945F2320E030E040E850E40E94EB
:103D900060230E94BA24DC01CB0100E02C2D4D2DC4
:103DA000B4010E946C0A20910401309105014091F8
:103DB000060150910701F701668177818085918521
:103DC0000E945F230E94BA244B015C0120910001F4
:103DD000309101014091020150910301F70162818C
:103DE0007381848195810E945F230E94BA24DC0143
:103DF000CB010AEFF701238544E059E0B4010E94AA
:103E0000AB0A8091A3079091A40765E070E00E943F
:103E1000B026892B09F058C020910401309105018A
:103E20004091060150910701F701668177818085F5
:103E300091850E945F234B015C01F70166856695C1
:103E400070E080E090E00E94F2249B01AC01C5018B
:103E5000B4010E94602320E030E040EE50E40E9474
:103E60005F230E94BA244B015C0120910001309134
:103E700001014091020150910301F70162817381B8
:103E8000848195810E945F232B013C01F7016585A8
:103E9000669570E080E090E00E94F2249B01AC0106
:103EA000C301B2010E94602320E030E040EA50E408
:103EB0000E945F230E94BA24DC01CB0101E024E0D0
:103EC0004AE0B4010E946C0A2091790730917A0788
:103ED00040917B0750917C0760917D0770917E0730
:103EE00021968EAD9FAD21970E94F81400E0802F9F
:103EF00090E0209194053091950582179307CCF4BA
:103F0000FBAD0F17A1F02AE3289FF001299FF00DC8
:103F10001124EA56FA4F23893489458956896789DD
:103F2000708D21968EAD9FAD21970E94F8140F5F82
:103F3000DECF3BAD3F5F3BAF7CCD609172076695B6
:103F400070E080E090E00E94F22420916A073091B6
:103F50006B0740916C0750916D070E9460234B01E5
:103F60005C0160917107669570E080E090E00E94CE
:103F7000F2242091660730916707409168075091BD
:103F800069070E9460236B017C0140900001509002
:103F90000101609002017090030120E030E040E0F8
:103FA00052E4C301B2010E946023A70196010E945E
:103FB000082618163CF420E030E040E052E4C70147
:103FC000B60120C020E030E040E053E4C301B2017C
:103FD0000E94602320E030E040E052E40E945F2332
:103FE000A70196010E943E2487FF16C020E030E022
:103FF00040E052E4C701B6010E94602320E030E0B7
:1040000040E053E40E945F2360930001709301013C
:1040100080930201909303014090000150900101B0
:10402000609002017090030120E030E0A901C3011B
:10403000B2010E943E2487FF09C010920001109235
:10404000010110920201109203012AC0E0900801C0
:10405000F090090120E030E040E053E4C301B201F8
:104060000E9460232B013C01B70180E090E00E9498
:10407000F0249B01AC01C301B2010E94082618166E
:104080007CF4B7016058710980E090E00E94F02450
:1040900060930001709301018093020190930301EA
:1040A000C0900401D0900501E0900601F090070156
:1040B00020E030E040EC51E4C701B6010E946023EB
:1040C000A50194010E94082618163CF420E030E077
:1040D00040EC51E4C501B40120C020E030E040E8EC
:1040E00052E4C701B6010E94602320E030E040ECBA
:1040F00051E40E945F23A50194010E943E2487FFA2
:1041000016C020E030E040EC51E4C501B4010E944B
:10411000602320E030E040E852E40E945F23609397
:104120000401709305018093060190930701C090EC
:104130000401D0900501E0900601F090070120E015
:1041400030E0A901C701B6010E943E2487FF09C0E3
:1041500010920401109205011092060110920701BD
:104160008FC800910A0110910B0120E030E040E877
:1041700052E4C701B6010E9460236B017C01B801C3
:1041800080E090E00E94F0249B01AC01C701B601E1
:104190000E94082618160CF073C8B8016054710903
:1041A00080E090E00E94F024609304017093050188
:1041B000809306019093070163C8CF93DF93109219
:1041C000BA071092B90788EE93E0A0E0B0E08093C0
:1041D000BB079093BC07A093BD07B093BE078EE2C8
:1041E00091E09093B8078093B7078FEF9FEF90937C
:1041F000C4078093C30781E491E09093A107809363
:10420000A0071092A5071092A607C0E1C093A707C8
:104210001092A4071092A3071092A90787E092E1D9
:1042200090936D0580936C0580E090E890936B050A
:1042300080936A0546983E9A47983F9A109266077F
:1042400010926707109268071092690710926A0728
:1042500010926B0710926C0710926D0710926E0708
:1042600010926F07109270071092710710927207E8
:1042700010927407109273071092760710927507C8
:10428000109277071092780710927F07109280079C
:104290001092810710928207109283071092840770
:1042A00010928507109286071092870780E090E0B1
:1042B000A0E0B0E48093880790938907A0938A07D1
:1042C000B0938B0780E090E0A0E6B0E480938C0789
:1042D00090938D07A0938E07B0938F078DEC9CEC85
:1042E000ACE4BDE38093900790939107A09392076D
:1042F000B093930783E393E3A3EBBEE38093940728
:1043000090939507A0939607B09397078AE097ED4F
:10431000A3EABCE38093980790939907A0939A0728
:10432000B0939B0780E090E0A0E8BFEB80939C07F0
:1043300090939D07A0939E07B0939F070E94D82259
:1043400028E631E040E050E00E94FC220E94F22486
:10435000609380077093810780938207909383070F
:1043600080E090E0A0EAB1E480936607909367074D
:10437000A0936807B093690780936A0790936B07CF
:10438000A0936C07B0936D0784E180937107C0938D
:10439000720786E0E4E2F1E0A3E7B7E001900D9256
:1043A0008A95E1F788E180936E0710929505109247
:1043B0009405C0E0D0E0CE018A569A4F0E943E1488
:1043C000EA96C03D81E0D807B1F710920F0810922D
:1043D00010081092110880E090E0A0EFB1E4809303
:1043E000070890930808A0930908B0930A088093DF
:1043F0000B0890930C08A0930D08B0930E08109230
:104400007605109277051092780510928705109224
:1044100088051092890510928A0510928B051092DA
:104420008C0510928D0510928E0510928F0580E0FC
:1044300090E0A0E0B0E48093900590939105A09364
:104440009205B093930580E090E0A0EAB2E48093F7
:104450006E0590936F05A0937005B093710580E091
:1044600090E0A0E2B2E48093720590937305A0936C
:104470007405B093750584E18093790580E180939C
:104480007A0586E0E4E2F1E0ABE7B5E001900D9259
:104490008A95E1F7DF91CF910895CF92DF92EF9265
:1044A000FF920F931F93CF93DF931F92CDB7DEB789
:1044B000182F062FE42E862F880F8E5F99830E9477
:1044C000460E83E00E94460EF12EC12E9981D92E10
:1044D0008C2D8F19801798F4F601E7FE02C08491A5
:1044E00001C080810E94460E182F80E00E94460E77
:1044F0008123FFEFCF1ADF0A8111EACF01C081E0EB
:104500000F90DF91CF911F910F91FF90EF90DF906F
:10451000CF9008958F929F92AF92BF92CF92DF92E9
:10452000EF92FF92CF93DF93EC01688179818A81CA
:104530009B81611571058105910521F464E279ED96
:104540008BE597E02DE133EF41E050E00E94FC2243
:1045500049015A019B01AC01A7EAB1E40E941B2367
:104560006B017C01ACEEB4EFA50194010E942923FC
:10457000DC01CB018C0D9D1DAE1DBF1DB7FF03C01F
:104580000197A109B04888839983AA83BB83BC01A2
:10459000CD019F77DF91CF91FF90EF90DF90CF908B
:1045A000BF90AF909F908F9008950E948A220895A7
:1045B00080E291E00E948A22089560932001709326
:1045C000210180932201909323010895F999FECF50
:1045D00092BD81BDF89A992780B50895262FF99943
:1045E000FECF1FBA92BD81BD20BD0FB6F894FA9AD6
:1045F000F99A0FBE01960895052E97FB1EF40094BC
:104600000E94132357FD07D00E942E2307FC03D0DE
:104610004EF40C94132350954095309521953F4FBF
:104620004F4F5F4F089590958095709561957F4F9E
:104630008F4F9F4F08950E945023A59F900DB49FC8
:10464000900DA49F800D911D11240895B7FF0C9427
:104650001B230E941B23821B930B0895A1E21A2E99
:10466000AA1BBB1BFD010DC0AA1FBB1FEE1FFF1F16
:10467000A217B307E407F50720F0A21BB30BE40B66
:10468000F50B661F771F881F991F1A9469F76095AD
:104690007095809590959B01AC01BD01CF01089567
:1046A000A29FB001B39FC001A39F700D811D112473
:1046B000911DB29F700D811D1124911D08955058B8
:1046C000BB27AA270E9477230C94BA250E94812534
:1046D00038F00E94882520F039F49F3F19F426F421
:1046E0000C9457250EF4E095E7FB0C945125E92F27
:1046F0000E94DF2558F3BA176207730784079507EE
:1047000020F079F4A6F50C9401260EF4E0950B2E1A
:10471000BA2FA02D0B01B90190010C01CA01A00113
:104720001124FF27591B99F0593F50F4503E68F16E
:104730001A16F040A22F232F342F4427585FF3CFAF
:10474000469537952795A795F0405395C9F77EF480
:104750001F16BA0B620B730B840BBAF09150A1F0C9
:10476000FF0FBB1F661F771F881FC2F70EC0BA0F4F
:10477000621F731F841F48F4879577956795B795D7
:10478000F7959E3F08F0B0CF9395880F08F09927D2
:10479000EE0F9795879508950E94812560F080E837
:1047A00091E009F49EEF0E94882528F040E851E04E
:1047B00071F45EEF0CC00C9457250C940126E92F80
:1047C000E0780E94DF2540F3092E052AB1F3261771
:1047D00037074807590738F00E2E07F8E02569F02B
:1047E000E025E0640AC0EF6307F8009407FADB01F4
:1047F000B9019D01DC01CA01AD01EF930E945F2464
:104800000E94BA250E940F245F91552339F02BEDA9
:104810003FE049E450FD49EC0C9460230895DF9398
:10482000DD27B92FBF7740E85FE316161706480764
:104830005B0718F4D92F0E940D269F938F937F93C7
:104840006F930E948A26ECEAF0E00E945A250E94AB
:10485000BA252F913F914F915F910E942826DD2329
:1048600051F09058A2EA2AED3FE049EC5FE3D0789E
:104870005D270E947723DF910C94BA250E942D2595
:1048800008F481E008950E949125E3950C94CB25CE
:104890000E945C240C94BA250E94882558F00E943E
:1048A000812540F029F45F3F29F00C9451255111E6
:1048B0000C9402260C9457250E94DF2568F3992357
:1048C000B1F3552391F3951B550BBB27AA2762170C
:1048D0007307840738F09F5F5F4F220F331F441F19
:1048E000AA1FA9F335D00E2E3AF0E0E832D091504D
:1048F0005040E695001CCAF72BD0FE2F29D0660F3A
:10490000771F881FBB1F261737074807AB07B0E87C
:1049100009F0BB0B802DBF01FF2793585F4F3AF082
:104920009E3F510578F00C9451250C9402265F3F70
:10493000E4F3983ED4F3869577956795B795F79508
:104940009F5FC9F7880F911D9695879597F90895F0
:10495000E1E0660F771F881FBB1F6217730784078C
:10496000BA0720F0621B730B840BBA0BEE1F88F79B
:10497000E09508950E94C1246894B1110C94022618
:1049800008950E94E72588F09F5798F0B92F99273E
:10499000B751B0F0E1F0660F771F881F991F1AF02A
:1049A000BA95C9F714C0B13091F00E940126B1E068
:1049B00008950C940126672F782F8827B85F39F067
:1049C000B93FCCF3869577956795B395D9F73EF4C3
:1049D00090958095709561957F4F8F4F9F4F08956B
:1049E000E89409C097FB3EF4909580957095619589
:1049F0007F4F8F4F9F4F9923A9F0F92F96E9BB273F
:104A00009395F695879577956795B795F111F8CFBA
:104A1000FAF4BB0F11F460FF1BC06F5F7F4F8F4F25
:104A20009F4F16C0882311F096E911C0772321F01B
:104A30009EE8872F762F05C0662371F096E8862FB3
:104A400070E060E02AF09A95660F771F881FDAF70A
:104A5000880F9695879597F90895990F0008550F37
:104A6000AA0BE0E8FEEF16161706E807F907C0F0F4
:104A700012161306E407F50798F0621B730B840BFC
:104A8000950B39F40A2661F0232B242B252B21F4D6
:104A900008950A2609F4A140A6958FEF811D811D76
:104AA000089597F99F6780E870E060E008959FEFB0
:104AB00080EC0895DF93CF931F930F93FF92EF92B3
:104AC000DF927B018C01689406C0DA2EEF010E9410
:104AD0002826FE01E894A59125913591459155919F
:104AE000A6F3EF010E947723FE019701A801DA9453
:104AF00069F7DF90EF90FF900F911F91CF91DF91B9
:104B0000089500240A941616170618060906089533
:104B100000240A94121613061406050608950C9430
:104B200057250E94E725D8F3E894E0E0BB279F577C
:104B3000F0F02AED3FE049EC06C0EE0FBB0F661F18
:104B4000771F881F28F0B23A62077307840728F09E
:104B5000B25A620B730B840BE3959A9572F7803807
:104B600030F49A95BB0F661F771F881FD2F79048C5
:104B70000C949026092E0394000C11F4882352F013
:104B8000BB0F40F4BF2B11F460FF04C06F5F7F4F79
:104B90008F4F9F4F0895EF93E0FF07C0A2EA2AEDE1
:104BA0003FE049EC5FEB0E9477230E94BA250F900B
:104BB000039401FC9058E9EDF0E00C949C2657FD1D
:104BC0009058440F551F59F05F3F71F04795880F7B
:104BD00097FB991F61F09F3F79F087950895121612
:104BE00013061406551FF2CF4695F1DF08C01616BE
:104BF00017061806991FF1CF86957105610508946F
:104C00000895E894BB2766277727CB0197F9089585
:104C10000E942D2508F48FEF08959B01AC0160E000
:104C200070E080E89FE30C9448240E9428260C94AE
:104C3000BA250E94812538F00E94882520F095230E
:104C400011F00C9451250C94572511240C94022634
:104C50000E94DF2570F3959FC1F3950F50E0551F1B
:104C6000629FF001729FBB27F00DB11D639FAA27C1
:104C7000F00DB11DAA1F649F6627B00DA11D661F10
:104C8000829F2227B00DA11D621F739FB00DA11D31
:104C9000621F839FA00D611D221F749F3327A00DEB
:104CA000611D231F849F600D211D822F762F6A2F87
:104CB00011249F5750409AF0F1F088234AF0EE0FEC
:104CC000FF1FBB1F661F771F881F91505040A9F719
:104CD0009E3F510580F00C9451250C9402265F3FB5
:104CE000E4F3983ED4F3869577956795B795F79555
:104CF000E7959F5FC1F7FE2B880F911D96958795CD
:104D000097F908959F930E9491250F9007FCEE5FFD
:104D10000C94CB259B01AC010C9415269F3F31F0E0
:104D2000915020F4879577956795B795880F911DD9
:104D30009695879597F908959F938F937F936F9397
:104D4000FF93EF939B01AC010E941526EF91FF9119
:104D50000E945A252F913F914F915F910C941526F7
:104D6000AA1BBB1B51E107C0AA1FBB1FA617B70791
:104D700010F0A61BB70B881F991F5A95A9F78095AD
:104D80009095BC01CD01089597FB072E16F4009471
:104D900007D077FD09D00E94B02607FC05D03EF46D
:104DA000909581959F4F0895709561957F4F0895D7
:104DB000EE0FFF1F0590F491E02D099481E090E043
:0A4DC000F8940C94E326F894FFCF5A
:104DCA000000000000000000D007E8030001000016
:104DDA0000001DD200E1000000000000FFFFFFFFFD
:104DEA0001000000050004000A0A000000000B0E82
:104DFA00720DA80E210E2C0EAC0ECA0E1900000060
:104E0A00000A1200C18081000000050004000A0A9D
:00000001FF
