:100000000C9418070C9440070C9440070C9440077C
:100010000C9440070C9440070C9440070C94400744
:100020000C9440070C9440070C94160D0C94880D0A
:100030000C9440070C9440070C9440070C94400724
:100040000C9440070C9440070C9440070C94400714
:100050000C9440070C9440070C9440070C946610D5
:100060000C9440070C9440070C9440070C944007F4
:100070000C9440070C9440070C9440070C944007E4
:100080000C945E110C9440070C9440070C944007AC
:100090000C9440070C9440070C9440070C944007C4
:1000A0000C9440070C9440070C944007084AD73B37
:1000B0003BCE016E84BCBFFDC12F3D6C74319ABD37
:1000C00056833DDA3D00C77F11BED9E4BB4C3E915B
:1000D0006BAAAABE000000803F05A84CCDB2D44E4A
:1000E000B93836A9020C50B9918688083CA6AAAA4C
:1000F0002ABE000000803F00138F9BA3787030D988
:10010000D40B65001B119C861B78E4CD90E9B420CC
:1001100001A80E5810C45822086EE37605AF134F9D
:100120009BE9663AD914D94CA44C548A8CD4C5F2B4
:1001300013A910511708128306A2A80280058693FE
:10014000E97422231B138F8F22074517032D831277
:10015000876120085B3DFA991C94B000220B07864A
:100160004101B9112ED4CD1A77134FEF329D861865
:10017000C2642225040D2223F527242E60A04461A9
:100180000093C96483050673C52713CFEFBB1262C2
:10019000B9509A50808645F2831ADB30901BB21515
:1001A00039A99DE531130F5FD31126458A142932F1
:1001B000C7F4F7CCC96452A4C86432617E0813CF77
:1001C0001F4B1CA400A59672A18664F5E374563DEE
:1001D00021BA911B32486BFA0D13CFEFBD044C4985
:1001E000432983B20835C4A9F99E596503053772BE
:1001F000431603636501C39D7713CF77AEB9A8A4F7
:10020000A4210E4A59E8603A2D977C6294E18172EC
:10021000422E808CE2C0CA02304CCD23130FAF5C5B
:100220002C9B8144954991C946CA663AD94EEE192C
:10023000C8743A990EA002802A1A881283202C15BD
:10024000033647130F67968BC970085182804C960E
:100250009BC9663A9D4EEECE6C97D30A15A02A1A1A
:100260004820AA0254580E83B437134FF74C2693F4
:100270006D08039C4C26051723012623DF1961B165
:10028000840A836908241025084845A69339EE138B
:100290000F6796C3C5643990B2984C8A48953A85E1
:1002A000E1CABB0E60B3A93059249040C500820852
:1002B000CBE1626AEB15138FAFC40B752371B1C02C
:1002C000520645880E9B0B78E45171B2C0828B8533
:1002D00003062A2082B80883521171628F134FF7E8
:1002E0004C26D30A7742994891A264D894C9B71290
:1002F0001758265344030812C26602031C6099E390
:100300000E134FEF32994E27938D142952549B644C
:10031000F0E9C6C56444414026532C30C082758E36
:10032000E40513CFEFB3B3186E4B2DA59661FA7B9E
:100330001A466391AD48A818B04219EB0B13CF5F72
:1003400013B10C4AA9A5944107FEAA295B11AD225D
:10035000A18AE8C6F91D130FDF6A1C142952A4E80C
:10036000723233F3FD35A950A16214409960694B94
:10037000FB0D138FEFB845174929B594038BE9B4EA
:100380005CF2A5AC510B56285851065044004DD98B
:100390002CD3B7138FCF3CA56C482965504A5954CC
:1003A0009C960BE623633184015628838144415097
:1003B000072E360BAC3B77138F9BA370495D1890CB
:1003C00032281516CB20DB72113F51992262A925E4
:1003D0002C11444065C090C5122A2CA6F40813CFF6
:1003E000F75C049C16D9482917060399960BF194DB
:1003F000675E5A07DB38441001C5010B16070A4E29
:100400000603D8DD13CFF75C10D8590C6152EE808B
:1004100084E5E042B9E413A30C0FA41430B26041A8
:1004200063D9A0C266D0F104130F7F530B7E035C27
:100430007E11130F7F512617DE3039F049130F7FDD
:10044000511F52E415934F01134F7F4B26EF0C932E
:10045000777E0A130F7F4A268BC94B2683C9E41B7C
:10046000130F7F4B26830FB132F816130F7F5306FD
:10047000F01160F249130F7F5326838796C9470115
:10048000130F7F4B266F94C91B261F03130F7F4A40
:10049000260F584679C464F20D130F7F4A2677DF82
:1004A00030D94C26DF00134F7FD20C3EC464F02DB0
:1004B000130F7F5160F03960009F02138F9BA3B22E
:1004C0005D4C360B28B000015888E014E1227E61B3
:1004D000C8946A694275C082204603458A6ADCAEC8
:1004E0007505138F9B5BE40094C9404606B0002855
:1004F0000B05598927F013C52989A50903070C9114
:10050000A8140D8A30A8D309E308138F8FA21BD536
:10051000C540860561002A0B41D886A39FC94109C1
:100520008B44160E0C0914099BB094BA59E30E13B0
:10053000CF6F1BA61A161260088230109489904B58
:100540003E9BED64618D54097240640B05365DF18C
:1005500009134FEF3B0D61328000505183CAA2F95D
:10056000418D6DA930994C34485DCEF51E13CF5F97
:10057000932E0A5941B20265157FD5941BB215D14D
:100580008DDC707E0713CF1F4B98D850010116B039
:10059000588438FB0BD6503722BA911B52D39A7E1F
:1005A0000313CFCF7309C8C4CA004170004116516C
:1005B00027E9E7CC2A1B28B8911B12B1182B8BE92D
:1005C000CE3B138FCF3C123754162A3040A8031964
:1005D0002C55B6E62363B12DBA089B208584C890BC
:1005E00085098BA087DC01130FAF5C2C9B81140D58
:1005F000138000CD42CA66B29999DC3384E9742233
:10060000881AA410553410250629121503364713ED
:100610008FAFC40B8853105900082CA0C062335907
:100620006EF4C8ABB5DC469522856844020B86960D
:1006300038A816278E1B13CF774F860B10174160F3
:100640000105165060B1B28130C727461904891AD6
:100650003054162C5818931A82E2A0E309138FAF76
:10066000C483751B6401051620000B08B20C78C00A
:10067000BE5F3029A53461C08205410C058B06C5DB
:10068000C140D7BA02138FAFC40B752371B1800577
:1006900080C002882C9B0BE4E423E9A4C4D2C8C226
:1006A000010395225542C04945C4497204138F8FF6
:1006B00022171037581605600102B000029BE602AF
:1006C0007E25DBC922912543A568108541210606B8
:1006D0003258E30E13CF8F2307212E16B080020B62
:1006E000C030413DF4B39D4E16D648D12003C5001D
:1006F0000D14321CC33C01138FDF685C84B200010F
:100700005800022C4238F4677413ACD48528485042
:10071000AC50C8A2EB3D13CF5F932E0AC00210600D
:10072000015056F1574DD98A681591A1886E9CDF0A
:1007300001138F9FE981101680000B00814509CBC2
:10074000F437ACB202052B8A0A8A2C8B95B0FB1EBB
:10075000138FEFB84537242C0001165060319D826D
:100760005CF2A5AC510B3150B0A20C30484153B4EF
:100770002CD3B7138FAF844BCA86002C000416000D
:100780006551618B70C17C642C86302006CA00459F
:10079000A21475E0C284C574E70E138FDB53E09298
:1007A000BA30000B1080052C9641B6E5227E2261FE
:1007B0008A886580102216292A03862C4CA9A1CC90
:1007C000E211138F6F2A07212E24C0024060010519
:1007D0001612B7F5207E632D6530448952A144245A
:1007E000B060C1200E4A2913D60D13CFF73109B0DE
:1007F000B3584081051458808465800BF1E4274686
:1008000019A28498C6C882050B4B1C6A9030E87800
:1008100002D5F08D14A1C881CFD9F1AF2000438F4C
:100820004F4E75DB2C4F63AC5ABBC6B8DC46E92C87
:10083000ABEB72AB56BBE8B11DE4B2E6482F63AC3C
:100840005A6786D753DDF6745ADD5ADDA3A75B4598
:10085000C5BAFD82A7E04572F23A2EEA655C73C91B
:10086000E375CC251F5F97BC1E17F532AE9E82172D
:10087000C9C9E37AB98EB9042FEAC507438F39C5D0
:1008800053DD364BB386B86AED12C7C49B586A2C49
:10089000AB6BE2AD5AEDA27A6807A95DC591CA1C9F
:1008A000E2AA7546F4104F75DB93CED5ADD52D7603
:1008B000E3ADA262DD4AA77A8A4E832E254ECDC1D2
:1008C000E1527539DC8DCBF430A7CBD9B84C0FE3AE
:1008D000C8714E97CBF4B00E0E97AACBE1213A0D1A
:1008E000BA9438B5D3E5DCD3E56C5C065DAA2E1D61
:1008F000070105877A106F3D093FAFBFD3D39CA78F
:100900001E9D835FC2D5AB57AF5EBD72E0B4B3B975
:10091000E6360E87FE9DDA9FC1B16BA8A7DE7AF49A
:10092000EAD5AB57AF1E7B1B97394F793CF3B3BC6D
:100930007AF5D85B4FB330B34EEBB22EE3C8B39C1D
:10094000D661EFBDF7C1F3B8CCBDF73E0C1C15D393
:1009500050321475E7011744364606CEC8A938A5AB
:100960005A59AA6C44B7755B2E98417F897818470D
:10097000AFC4D12C972B1D1ED6BC71540F7B5725AD
:10098000BAF3FCFEF7F152333C8847FE34A907CE98
:10099000944119C44061C24820C595B9FEBA1C7B78
:1009A000520FD6E972B91C6EEBB66EEB74B95C2EC1
:1009B000A7751B2FE231A7F1EB00BFBFDFE5EAD53A
:1009C000AB57AF5EBD72E7EAD5AB57EE5CF93E5769
:1009D000AF5EBD7AF5EA95DF7B9FCEA15ED48B3A00
:1009E000A6F3FECC8BAA49ED9BAA85AA85AAE53E73
:1009F0009DF7FB740EF5A25ED4319DF7DF8B17D502
:100A0000A544D5A0AAAAAA1297C18B3CE82A5135C1
:100A10005175AF31D481174155052F32D471C78B31
:100A2000C4E55275A9BA545D2E8317F9C1556BD52B
:100A30001255934BAB965CAAAA4257C15A5555AD75
:100A40005A9EA8FAD24B6DF0227199A16E55C372CD
:100A5000E945976BA963A8E3F74E676A6BAD4C272E
:100A60005DB56A4155ADAAED2AE852E8AAD7AA5A5F
:100A70006B25B55D2EE8AA55ABAABAD455B5BDAC69
:100A80004B752951F5270F75C465D0A5AAAAEA525E
:100A9000E232431DD3495761B9C08B7599A89AD4E6
:100AA00026B5C9E5CD72A9AABA5C6F5C2697D05568
:100AB0007529BFF7C1552FEA45BDE8F5C13D2E9315
:100AC000DAB05C4BDDAA3E19EABE84E5525565AC4E
:100AD00031D411551397C18B5EB9FF6CAF5EBD7AEF
:100AE000F5EAD5D7BEF6EAD5AB5FF3EA6B5FFB3527
:100AF0003F0F6BFFBFECE8D5ABD93163B91C2FA713
:100B000057AFEEC4C4C46BD605C0CBD1AB57D3101E
:100B1000D3E9F11280B588218D57AF5E4D438CDD4E
:100B2000001EAE5EBD9A981880C6EC3C5CB97A7522
:100B30002726262626E66F35F9CE58B00F5D8C0B9A
:100B40007AFA9E471E9174A00287EF99609ABCDBE7
:100B5000000000000028001CBEB7E1265E647F3163
:100B60000B68164460C960780C1860010516D07CCB
:100B7000F12FC5B004101110008220C8001060A22F
:100B80003028A45D71810A0650494185052A3850F4
:100B9000D938940100840021000004008010004234
:100BA000184000184000184080221020040800104F
:100BB00020000C208400001002000040000000080B
:100BC00030684751D9A86C54F6DEA26C540E3D062D
:100BD0002EA04C0001068220010001118150073F28
:100BE000D4130A132614648110263090C142600A7F
:100BF000822320D4AE43E90888D1B419C20DB99C30
:100C000078A6038009C04C801CC62D323538A15B04
:100C10002E006C40E0141917282E552E3D85CC006F
:100C20007000021489D1AF79E5B9575E2337E486A5
:100C30002C063280494058088509139493F7AC2656
:100C4000858F04A700006B440A1B0A1B0A1B0A1BA2
:100C50008C09140400004100140500440500C4255B
:100C6000C045804BC804001809C04D387AF5E773B9
:100C7000056EC2456006008043E122C04580030046
:100C8000B801C00D00C01200608DB8D82C368BCDD5
:100C900062B34C60090030831F81265D99D0A42B7C
:100CA000EF1881800523A98083289B021B0A1B2A39
:100CB000C30D41160020AAA222518A1497CBE56ADF
:100CC0004300800900C000000006000030000080E2
:100CD0000140800140800104000D0A2045E180C2EE
:100CE000010827C2098003007000000E00004C00BC
:100CF00060A6CBE572B95C2E070007007003743B59
:100D0000986C169BC546C330B610B060C4C1BBAC6E
:100D10002685E75DB602DC8011280500870080A8E3
:100D20000080A800414DB6F32026A80080A84010FE
:100D300015001015007003801BA0FB90F71C7BEBC7
:100D4000695DD661172FCA31B771997BCF4BBEB59C
:100D500021B801C00D006E007003801B241B881F8A
:100D600022D910DC00E006004BC501DC006C5DFD03
:100D7000EF2E0F8F233A1D60C10A052B14AC50B023
:100D8000420113CA584E991131000002401004006C
:100D900001408C1159C548E22C090F6D5C685990CF
:100DA00040CA1406B3D3D91052B020A18D8B0908C4
:100DB0000B0002020201000904000001020200000F
:100DC0000524001001052401010104240206052464
:100DD0000600010705810310004009040100020A12
:100DE00000000007050202400000070583024000E2
:100DF000000403090412010002EF020140412336FE
:100E00008000010102030141726475696E6F204C1C
:100E10004C430041726475696E6F204C656F6E6162
:100E200072646F0001020408102040809920C721DD
:100E300011241FBECFEFDAE0DEBFCDBF12E0A0E08D
:100E4000B1E0E8EDFEE402C005900D92A230B107DA
:100E5000D9F727E0A2E0B2E001C01D92AE31B2079F
:100E6000E1F717E0C7E1D7E004C02197FE010E9437
:100E70002726C631D107C9F70E94AE140C945F270C
:100E80000C9400009C01240F311D1216130684F5EA
:100E9000803891056CF5FC0197FF02C0E0E0F0E0BE
:100EA0002138310514F020E830E02E1BAB014770EB
:100EB000552781E090E001C0880F4A95EAF78095B8
:100EC00077FF02C0695F7F4F93E0759567959A95AC
:100ED000E1F77695762F662777956795E60FF71FEA
:100EE000EF5EFD4F215020F0908198239193FACF2F
:100EF00008955F926F927F928F929F92AF92BF926E
:100F0000CF92DF92EF92FF920F931F93CF93DF93D5
:100F1000EC018B017A01A901461B570B57FF03C057
:100F2000519541955109C7018C1B9D0B97FF03C03B
:100F3000919581959109552453948417950714F040
:100F4000512C0AC09E2D8F2D7901292F382F9C2FCF
:100F50008D2FE801092F182FEC16FD0654F4902F61
:100F6000812F8901292F382F9C2F8D2FE701E92E02
:100F7000F82E37016C1A7D0A5901A01AB10AB7FE82
:100F800003C0B194A194B108630177FE03C08FEF51
:100F9000C81AD80AD594C7940217130714F08FEF14
:100FA00001C081E0882E880F9908EC16FD06B4F088
:100FB00021E0552019F0AE01B80102C0A801BE0120
:100FC0008FE996E00E94D111CA18DB08D7FE04C051
:100FD000080D191DC60CD71C2196E7CFDF91CF91C4
:100FE0001F910F91FF90EF90DF90CF90BF90AF9047
:100FF0009F908F907F906F905F900895DF92EF9217
:10100000FF920F931F93CF93DF937C01D22E8B011E
:10101000040F111DEB0177FF0EC0C0E0D0E00BC044
:10102000C417D5077CF42D2DAE01B7018FE996E0EA
:101030000E94D1112196A801013411058CF340E4DE
:1010400050E0EECFDF91CF911F910F91FF90EF9085
:10105000DF900895EF92FF920F931F93CF93DF934A
:10106000EC018B01E42EF22E6034710510F40E9425
:101070004207B8016F0D711D61507109603471052F
:1010800020F44E2DCE010E94420720E04F2DB801E2
:10109000CE010E94FE07CE018E0D911D20E04F2D46
:1010A000B8010197DF91CF911F910F91FF90EF90C1
:1010B0000C94FE07E1E1F2E081E0A0E0B8E00080FE
:1010C0000EBC8111012C1197A0FDFDCF0192B9F743
:1010D0000DB408952F923F924F925F926F927F923C
:1010E0008F929F92AF92BF92CF92DF92EF92FF9238
:1010F0000F931F93CF93DF93CDB7DEB764970FB6EF
:10110000F894DEBF0FBECDBF4C01CB013A01FA010E
:1011100044913196E491342F3F773F5F232E312C59
:10112000B401620D731D77FDE3C1F0E88F169104E1
:101130000CF0DEC13E2F3F733F5FBC01630F711D9A
:1011400077FDD6C1803491050CF0D2C1B42EBB1C02
:10115000BB24BB1C71E0E6FF70E0EE1FEE27EE1F24
:10116000E887AC0197FF04C044275527481B590B5B
:101170006A0117E0C122DD24AC0197FF02C0495F7C
:101180005F4FDA0143E0B595A7954A95E1F7BA8339
:10119000A98397FF0CC0C114D10449F01197BA83F9
:1011A000A98388E090E0FC01EC19FD096F0181E062
:1011B00090E0AC010C2C02C0440F551F0A94E2F7DA
:1011C0005A874987832F869586958695377009F0CB
:1011D0008F5FA82F880FBB0BBF83AE83B02FB27079
:1011E000BB8701FF08C0EE80FF80E1E0EE1AF10846
:1011F00081E0782702C0E12CF12C102F11701D83A3
:1012000000FF03C0D101119702C0A0E0B0E037E0B9
:1012100040E150E060E0412C512CAA24A394C1018C
:1012200001979E878D878E819F81E816F9060CF0C5
:101230005FC1F7FC5DC18A0141E050E05C834B83F4
:10124000F80193E0F695E7959A95E1F7E60DF71D1D
:10125000E491F0E0C8018770992702C0F595E79501
:101260008A95E2F7A8014F5F5F4FE0FF08C00B814E
:101270001C810F5F1F4F1C830B838A01E1CF8B8181
:101280009C810197C1F4FA0183E0F695E7958A9570
:10129000E1F7E60DF71D849190E04770552702C0F5
:1012A000959587954A95E2F7817099270196A8014F
:1012B0004E5F5F4F42C00B811C8101501109188B9A
:1012C0000F8781E090E00F8402C0880F991F0A9475
:1012D000E2F701961A8A198AFA0113E0F695E79562
:1012E0001A95E1F7E60DF71DE4910E2F10E01C8B27
:1012F0000B8BFA01E770FF27FC83EB830B8002C0A6
:10130000159507950A94E2F700FF0AC0E1E0F0E0C6
:10131000098802C0EE0FFF1F0A94E2F78E0F9F1F8D
:101320004F5F5F4F09891A890F5F1F4F1A8B098B17
:10133000EF85F8890E171F077CF2188A1F86FA2D91
:10134000F81BFC870F8518890817190708F0CCC00F
:10135000032F10E01C830B838C01EF85F8890E1B93
:101360001F0BEB81FC81B1100DC0E017F10718F4E1
:101370000F8518892AC01C85310FEF853E0F988B89
:101380008F8739C0E017F10730F53730C9F0772380
:1013900069F007E010E00E1B1F0BEFEFF0E002C05A
:1013A000F595E7950A95E2F78F0108C000E81FEF71
:1013B0000B8002C0169507950A94E2F7602B01C0D6
:1013C0006FEF0F851889EB81FC810E0F1F1F188BA3
:1013D0000F8730E010C0772319F0EB81FC8107C044
:1013E00007E010E0EB81FC810E1B1F0BF801E852B7
:1013F000FE4FE0816E2B315008F070C0662309F477
:1014000045C039813E0D38300CF040C0FD01E80D7B
:10141000F91DE038F105D0F5E985FA856E9F800168
:101420006F9F100D112437FD17C0F40160E83603DB
:10143000E00DF11D1124EA0FFB1FEF5EFD4FFA8B4B
:10144000E98B6081222311F0602B03C0E02FE0952F
:101450006E23E989FA896083C114D104B9F0373069
:10146000A9F03F3F9CF0F40160E83603E00DF11D68
:101470001124EA0FFB1FEF56FD4F3081222311F09C
:10148000312B03C0612F609536233083088501110D
:101490007A251FEF411A510A3D81332311F011972C
:1014A00001C011964214530484F06B85662321F029
:1014B000A1E0EA1AF10803C0BFEFEB1AFB0A0D81A5
:1014C000002331F0AD85BE8505C037E060E006C081
:1014D000A0E0B0E037E060E0412C512CEF85F889C6
:1014E0003196F88BEF872ECF1A2D1B19B12E9BCE7C
:1014F00064960FB6F894DEBF0FBECDBFDF91CF91DB
:101500001F910F91FF90EF90DF90CF90BF90AF9021
:101510009F908F907F906F905F904F903F902F9013
:1015200008958F929F92AF92BF92CF92DF92EF92E7
:10153000FF920F93CF93DF93EC016B01042F82E2B4
:10154000E82E81E0F82EF70124813581468157810C
:101550006C817D818E819F810E94AE220E94092430
:101560004B015C01F7012081318142815381688107
:1015700079818A819B810E94AE220E940924DC012C
:10158000CB0121E0A601B4010E946A08DF91CF914E
:101590000F91FF90EF90DF90CF90BF90AF909F9012
:1015A0008F9008958F929F92AF92BF92CF92DF92C9
:1015B000EF92FF920F931F93CF93DF93EC016B0198
:1015C0005A0149010E9479079701A801B401C50198
:1015D0000E9479079601AE01B701C801DF91CF9152
:1015E0001F910F91FF90EF90DF90CF90BF90AF9041
:1015F0009F908F900C94790765E070E080E090E018
:101600000C942C102091A506282329F49091A4066F
:10161000982381E009F480E00895CF93DF93EC01F3
:10162000488159818A819B81481759079CF4AC8174
:10163000BD81CA0101969983888386E2849F9001C7
:10164000859F300D1124A20FB31FFB0101900D9255
:101650008A95E1F7DF91CF910895FC0180910F0207
:10166000811103C08FEF9FEF08959FB7F89482E038
:101670008093E9002091F20030E01216130614F472
:1016800021E030E02115310559F0289884E6809357
:101690000E028091F10080838091F200882319F07E
:1016A0009FBFC90108958BE68093E800F9CF2FB75B
:1016B000F89483E08093E9009091E800892F80728C
:1016C00095FF04C09091F20080E4891B2FBF08951C
:1016D0008F929F92AF92BF92CF92DF92EF92FF9242
:1016E0000F931F93CF93DF935C016B017A0180917D
:1016F0002101882309F45BC080910F02882309F43B
:1017000056C080910D0280FF05C08091E00082608C
:101710008093E000E70110E00AEF83E0882E9AE36F
:10172000992E2097D9F10E94570B81110AC00150C0
:1017300009F43DC061E070E080E090E00E942C1070
:10174000F0CF282F30E0C217D3070CF48C2F4FB7FF
:10175000F8948092E9009091E80095FF1DC0282F31
:1017600030E0C21BD30BF601982F915020F08191ED
:101770008093F100FACFC20ED31E112319F090927C
:10178000E80009C08091E80085FD06C09092E8005D
:1017900011E0209709F010E04FBFC3CF1111C3CF64
:1017A0005D9884E680930C021E141F0444F081E0CF
:1017B00090E0F5019383828380E090E001C0C7014F
:1017C000DF91CF911F910F91FF90EF90DF90CF901D
:1017D000BF90AF909F908F9008958091AE06811139
:1017E0000DC082E08093AA0684E08093AB0610923D
:1017F000AD061092AC0681E08093AE068AEA96E0D0
:101800000895CF93DF931F92CDB7DEB76983DC01D4
:10181000ED91FC910280F381E02D41E050E0BE01AA
:101820006F5F7F4F09950F90DF91CF91089583E00F
:101830008093E9008091F200882319F08AE3809375
:10184000E8000895FC018485958597FD0BC09FB73E
:10185000F89482E08093E9008091F2009FBF90E0CD
:10186000019608959FB7F89482E08093E9008091F3
:10187000F2009FBF90E0089540910A0750910B0736
:10188000209108073091090742175307B4F490914B
:10189000E8009570E1F39091E80092FD19C0809303
:1018A000F10080910A0790910B0701968F73992799
:1018B000892B19F48EEF8093E80080910A079091AC
:1018C0000B07019690930B0780930A0781E0089518
:1018D00080E00895DF92EF92FF920F931F93CF93D2
:1018E000DF93D82E8A017B01E40EF51EEB01CE15A5
:1018F000DF0571F0D7FE03C0FE01849101C088812D
:101900000E943C0C21968111F2CF8FEF9FEF01C016
:10191000C801DF91CF911F910F91FF90EF90DF9061
:101920000895615030F02091F100FC012083019670
:10193000F8CF289884E680930E0208950E94570BF2
:1019400090E00895CF93DF931F92CDB7DEB7FC01EF
:101950008485958597FD05C02FEF3FEF3587248758
:101960000BC0CE0101960E942D0B019719F48981BD
:1019700090E002C08FEF9FEF0F90DF91CF9108951D
:101980000F931F93CF93DF931F92CDB7DEB78C01D8
:10199000FC018485958597FF0EC0CE0101960E94BB
:1019A0002D0B019719F4298130E002C02FEF3FEF92
:1019B000F80135872487F801848595850F90DF919C
:1019C000CF911F910F9108950F931F93CF93DF93A2
:1019D0001F92CDB7DEB782E0898342E450E06FEA20
:1019E0007DE080E80E946A0C0E94ED0BDC011296FB
:1019F0000D911C9113970115110569F0D801ED9116
:101A0000FC910280F381E02DBE016F5F7F4FC80122
:101A1000099597FF07C089810F90DF91CF911F91A2
:101A20000F910895F80100851185E5CF1F920F925F
:101A30000FB60F9211248F939F938091E1009091A4
:101A4000E100937F9093E10083FF0FC01092E900C3
:101A500091E09093EB001092EC0092E39093ED00F4
:101A600010920F0298E09093F00082FF20C093E064
:101A70009093E9009091F200992319F09AE39093E2
:101A8000E80090910C02992339F090910C0291504A
:101A900090930C02992389F190910E02992339F0C9
:101AA00090910E02915090930E02992341F184FF80
:101AB00010C08091E2008E7E81608093E200809170
:101AC000E1008F7E8093E10080910D028E7E806127
:101AD00011C080FF16C08091E2008E7E80618093ED
:101AE000E2008091E1008E7E8093E10080910D0202
:101AF0008E7E816080930D0204C05D9ACDCF289ABE
:101B0000D6CF9F918F910F900FBE0F901F90189579
:101B10001F920F920FB60F921124CF92DF92EF9285
:101B2000FF920F931F932F933F934F935F936F9366
:101B30007F938F939F93AF93BF93EF93FF93CF9335
:101B4000DF93CDB7DEB76C97DEBFCDBF1092E90053
:101B50008091E80083FFEDC168E0CE0145960E94C8
:101B6000910C82EF8093E8008D8987FF05C09091EA
:101B7000E80090FFFCCF03C09EEF9093E800982F01
:101B8000907609F0C6C09E892F89188D91110CC0DE
:101B9000803829F4809107078093F10002C01092E9
:101BA000F1001092F10048C1422F50E0512B9130CA
:101BB00051F4811141C14130510509F03DC180917D
:101BC00007078D7F0BC0933061F4811135C141301F
:101BD000510509F031C180910707826080930707A2
:101BE0002BC1953041F48091E80080FFFCCF206844
:101BF0002093E30021C1963009F05FC0EB8CFC8C90
:101C00001092E90010920B0710920A07123091F51A
:101C100010920907109208070E94E40C99E0BE0197
:101C20006F5F7F4FDB01E92F1D92EA95E9F79983FA
:101C30001A8391E09E8390EA98879AEF9987209182
:101C40000A0730910B07275F3F4F3C832B838D831F
:101C50001092E90010920B0710920A07F092090700
:101C6000E092080749E050E080E00E946A0C0E9480
:101C7000E40CE2C0F0920907E09208070E94ED0B25
:101C8000DC011296ED90FC901397E114F10409F435
:101C9000C0C0D701ED91FC910480F581E02DBE011B
:101CA0006B5E7F4FC7010995009719F00CF0C4C017
:101CB000C7C0F701E084F184E8CF973009F4C0C0D1
:101CC000983021F481E08093F100B6C0993009F09A
:101CD000B3C0837009F0B4C0EBEFF1E081E021E024
:101CE00036E39081992361F08093E9002093EB0023
:101CF00091919093EC003093ED008F5F873089F7DE
:101D00008EE78093EA001092EA008F8980930F0299
:101D100093C08B8D9C8D1092E90010920B0710924E
:101D20000A079093090780930807898D811156C08F
:101D30008E899D89913A59F4813209F081C047E03A
:101D400050E06AE171E080E00E946A0C75C0913257
:101D500009F076C0833289F4888D90E0982F882727
:101D60002F89822BA0E0B0E080932E0190932F0169
:101D7000A0933001B09331015FC0803269F480914B
:101D8000E80082FFFCCF67E08AE191E00E94910CBD
:101D90008BEF8093E80006C0823209F04DC08F8936
:101DA0008093210180910607882319F0EEEFFAE075
:101DB00002C0E0E0F8E080911A0190911B01A0912F
:101DC0001C01B0911D01803B9440A105B10509F0B3
:101DD0007BC08091210180FF93C076C00E94ED0BF3
:101DE000DC0112960D911C9113970115110541F11B
:101DF000D801ED91FC910190F081E02DBE016B5E68
:101E00007F4FC8010995811117C0F8010085118520
:101E1000ECCF113009F44EC0133091F48F89882330
:101E200009F445C0823081F440E860E183E19EE03E
:101E30000E948A21882321F08EEF8093E80079C0E8
:101E400081E28093EB0075C0813029F440E86BE0BB
:101E500087E09EE0EDCF833099F70E94ED0BDC0127
:101E60001296ED90FC9013978E010F5F1F4F680143
:101E7000E114F10479F0D701ED91FC910680F7812E
:101E8000E02DB801C7010995080F111DF701E08485
:101E9000F184EECFD8011C92F60101900020E9F701
:101EA0003197BF016C197D0940E0C601C1CF61EFD8
:101EB0007DE002C065EF7DE06115710509F2FB016F
:101EC000449150E080E840CF0FB6F894A8958091F7
:101ED0006000886180936000109260000FBEA8953A
:101EE000EE3F2AE0F20739F08091FE0A9091FF0A56
:101EF00091838083A1CF1092FF0A1092FE0A9CCF9B
:101F0000EE3F8AE0F80731F0808191819093FF0ADB
:101F10008093FE0A87E797E7918380839BE088E1BF
:101F20000FB6F894A895809360000FBE9093600060
:101F300083CF6C960FB6F894DEBF0FBECDBFDF9196
:101F4000CF91FF91EF91BF91AF919F918F917F9131
:101F50006F915F914F913F912F911F910F91FF9042
:101F6000EF90DF90CF900F900FBE0F901F901895BD
:101F7000CF92DF92EF92FF920F931F93CF93DF9355
:101F80006C017A018B01C0E0D0E0CE15DF0589F04D
:101F9000D8016D918D01D601ED91FC910190F081F8
:101FA000E02DC6010995892B11F47E0102C021960E
:101FB000ECCFC701DF91CF911F910F91FF90EF9070
:101FC000DF90CF90089580910A02E0910802F0918D
:101FD0000902882349F0CF01029690930902809369
:101FE0000802859194910895CF0102969093090279
:101FF0008093080280819181089580910B02089559
:102000000895089580E090E008950E945A273FB710
:10201000F8948091160790911707A0911807B09136
:10202000190726B5A89B05C02F3F19F00196A11DE1
:10203000B11D3FBFBA2FA92F982F8827820F911D5E
:10204000A11DB11DBC01CD0142E0660F771F881FA5
:10205000991F4A95D1F708958F929F92AF92BF92A0
:10206000CF92DF92EF92FF926B017C010E940710EA
:102070004B015C01C114D104E104F104F1F00E94B0
:102080000710DC01CB0188199909AA09BB09883E10
:102090009340A105B10570F321E0C21AD108E1080F
:1020A000F10888EE880E83E0981EA11CB11CC114B3
:1020B000D104E104F10419F7DDCFFF90EF90DF9038
:1020C000CF90BF90AF909F908F9008951F920F92E6
:1020D0000FB60F9211242F933F938F939F93AF933B
:1020E000BF938091020290910302A0910402B091EB
:1020F00005023091150723E0230F2D3720F40196B8
:10210000A11DB11D05C026E8230F0296A11DB11D1A
:10211000209315078093020290930302A093040278
:10212000B09305028091160790911707A0911807A8
:10213000B09119070196A11DB11D809316079093C8
:102140001707A0931807B0931907BF91AF919F91FC
:102150008F913F912F910F900FBE0F901F90189568
:10216000CF92DF92EF92FF920F931F93CF93DF9363
:102170000E94E30F811520E8920761F480917100BD
:102180008D7F80937100109291004698479810922D
:102190000E078BC021E020930E07813020E89207C4
:1021A00051F4809106029091070290930902809366
:1021B00008020E94E30F97FD05C020910D0722231E
:1021C00009F43FC020910C0721113BC021E020936E
:1021D0000F07EC01DF77209769F481E08093100707
:1021E00046983FE9C32E3FE0D32EE12CF12CCAEFF5
:1021F000D0E014C08E0120E030E060E472E48FE0B3
:1022000090E0A90198010E944B2269017A0181E0C6
:10221000C81AD108E108F10810921007E0911F06D2
:10222000F09120060995811103C081E08093100789
:1022300080910F078823B9F180911007811133C075
:1022400003C010920F07C5CF46992DC0479A0E9430
:10225000E30F009771F09C01DE010E949F22DC01D8
:10226000CB0129E0B595A795979587952A95D1F744
:1022700003C08FEF9FEFDC01109290002AE02093C3
:102280009100D0929900C09298008093110790938A
:102290001207A0931307B093140780917100826016
:1022A0008093710002C04798D2CFDF91CF911F91E8
:1022B0000F91FF90EF90DF90CF9008951F920F92B3
:1022C0000FB60F9211242F933F934F935F936F9309
:1022D0007F938F939F93AF93BF93EF93FF938091DF
:1022E000110790911207A0911307B0911407892B41
:1022F0008A2B8B2B81F18091100781110BC098B133
:1023000080E4892788B980910F07882319F088B164
:10231000805888B98091110790911207A0911307F6
:10232000B0911407181619061A061B06B4F480910A
:10233000110790911207A0911307B091140701970C
:10234000A109B1098093110790931207A093130775
:10235000B093140702C00E94B010FF91EF91BF919B
:10236000AF919F918F917F916F915F914F913F912D
:102370002F910F900FBE0F901F9018958FB18095E1
:10238000807F669B88601C9B8460089510920B027E
:102390003E983F9808953E9A3F9A81E080930B02C1
:1023A000089560387105D0F440345105B8F4E4E282
:1023B000FEE080E1849FD001A0781124A60F477031
:1023C000E40FF11D8491AF5EBD4F222319F06C9193
:1023D000862B03C080956C9186238C930895AF92D1
:1023E000BF92CF92DF92EF92FF920F931F93CF9302
:1023F000DF936C01EB01142F022F7C015C01A40E12
:10240000B11CEA14FB0454F421E0402FBE01C701C3
:102410000E94FE078FEFE81AF80AF3CF22E0200FA0
:1024200042E0410FBE0161507109C6010197DF9181
:10243000CF911F910F91FF90EF90DF90CF90BF90C1
:10244000AF900C942A08CF92DF92EF92FF92CF9335
:10245000DF93EC016A8D7B8D8C8D9D8D0E9409240C
:10246000CB0168E671E00E941326BC01990F880B2E
:10247000990B0E9441246B017C0120E030E0A9010E
:102480000E948D2387FF0AC020E030E044EB53E434
:10249000C701B6010E94AF226B017C01CA8EDB8EA0
:1024A000EC8EFD8E20E030E044EB53E4C701B60132
:1024B0000E9497236B017C018885682F70E080E083
:1024C00090E00E9441249B01AC01C701B6010E942B
:1024D00064250E9409246987DF91CF91FF90EF90D6
:1024E000DF90CF900895FC01108211821282138236
:1024F0001482158216821782108611861286138620
:10250000148616861586108A1786118A128A118EED
:10251000128E138E148E158E168E178E10A211A287
:1025200080E090E0A0E0B0E482A393A3A4A3B5A3CD
:1025300008954F925F926F927F928F929F92AF9287
:10254000BF92CF92DF92EF92FF920F931F93CF93A0
:10255000DF9300D000D000D0CDB7DEB7FC012983D7
:102560003A834B835C8329813A81EB80FC80472F3F
:1025700083899489A588B688508D7789DC01A70F57
:10258000B11D2A173B070CF0B4C0D901A60FB11D2D
:10259000BD018A179B070CF0ACC0D501A50FB11D7A
:1025A000EA16FB060CF0A5C06701C40ED11CAC14E2
:1025B000BD040CF09EC08F01458556858217930798
:1025C000ACF4F8018189B901681B7109641B750BB2
:1025D0006F5F7F4F072E000C880B990B0E944124E0
:1025E000D8012D913D914D915C910DC0641B750BEF
:1025F000072E000C880B990B0E944124F8012081C2
:102600003181428153810E94AE222B013C01D801CD
:102610001F968D919C915097AE14BF04ACF45296C6
:102620002C91B701621B7109681B790B6F5F7F4F9B
:10263000072E000C880B990B0E944124F80124817D
:1026400035814681578110C0B601681B790B072E72
:10265000000C880B990B0E944124D80114962D91EF
:102660003D914D915C9117970E94AE226B017C01C8
:1026700020E030E0A901C301B2010E9457255301B7
:102680004201181624F0B7FAB094B7F8B09420E0DD
:1026900030E0A901C701B6010E945725A7019601A4
:1026A00018160CF05058C501B4010E948D2387FF05
:1026B00010C0A3019201F801608171818281938130
:1026C0000E94AF22D8016D937D938D939C931397B5
:1026D00010C0A7019601F8016481758186819781F8
:1026E0000E94AF22D80114966D937D938D939C9395
:1026F000179726960FB6F894DEBF0FBECDBFDF91B9
:10270000CF911F910F91FF90EF90DF90CF90BF90EE
:10271000AF909F908F907F906F905F904F900895B3
:10272000CF92DF92EF92FF920F931F93CF93DF939D
:10273000EC016F857889072E000C880B990B0E949D
:1027400041242C813D814E815F810E94AF220E94F5
:1027500009246B017C0109891A898D859E85BC013C
:10276000990F880B990B0E944124288139814A8155
:102770005B810E94AF220E9409247C8B6B8BDE8AD6
:10278000CD8A0F8B188FDF91CF911F910F91FF9002
:10279000EF90DF90CF9008954F925F926F927F926B
:1027A0008F929F92AF92BF92CF92DF92EF92FF9261
:1027B0000F931F93CF93DF93EC01CE8CDF8CE8A0B7
:1027C000F9A020E030E04AE754E46A8D7B8D8C8DDF
:1027D0009D8D0E94642520E030ED4FE557E40E9476
:1027E00097234B015C010E9492239B01AC01C7011E
:1027F000B6010E946425288139814A815B810E944B
:10280000AF222B013C01688379838A839B83C501B6
:10281000B4010E94D1259B01AC01C701B6010E9401
:1028200064259B01AC016C817D818E819F810E941A
:10283000AE226B017C016C837D838E839F8320E0BD
:1028400030E0A901C301B2010E948D2387FF05C0BA
:10285000188219821A821B8231C0AB84B12C00917C
:102860002A0110912B01B5010B2C000C880B990B40
:102870000E9441249B01AC01C301B2010E94AF221E
:102880002B013C01B801012E000C880B990B0E9412
:1028900041249B01AC01C301B2010E9457251816C7
:1028A0006CF4C8018A199B09BC01990F880B990B1C
:1028B0000E944124688379838A839B8320E030E0EF
:1028C000A901C701B6010E948D2387FF05C01C82A4
:1028D0001D821E821F8231C0AC84B12C00912C015C
:1028E00010912D01B5010B2C000C880B990B0E9447
:1028F00041249B01AC01C701B6010E94AF226B01CC
:102900007C01B801012E000C880B990B0E94412418
:102910009B01AC01C701B6010E94572518166CF443
:10292000B8016A197B09072E000C880B990B0E94CD
:1029300041246C837D838E839F83DF91CF911F9190
:102940000F91FF90EF90DF90CF90BF90AF909F904E
:102950008F907F906F905F904F900895CF93DF930B
:10296000CDB7DEB7C055D1090FB6F894DEBF0FBEA4
:10297000CDBF789484B5826084BD84B5816084BD08
:1029800085B5826085BD85B5816085BD80916E000D
:10299000816080936E00109281008091810082603E
:1029A000809381008091810081608093810080917B
:1029B000800081608093800080919100826080938C
:1029C00091008091910081608093910080919000AE
:1029D0008160809390008091C10084608093C100E9
:1029E0008091C10082608093C1008091C1008160AC
:1029F0008093C1008091C30081608093C300809167
:102A0000C00082608093C0008091C200816080938A
:102A1000C20080917A00846080937A0080917A006D
:102A2000826080937A0080917A00816080937A003E
:102A300080917A00806880937A0010920F02109241
:102A4000070710920D028091D70081608093D70014
:102A500080EA8093D80089B5806189BD89B582609C
:102A600089BD09B400FEFDCF61E070E080E090E038
:102A70000E942C108091D8008F7C80618093D800B8
:102A80008091E000807F8093E0008091E1008E7E65
:102A90008093E1008DE08093E200559A209AEEEF5A
:102AA000FFE7859194918B3F9C4D19F481E08093D1
:102AB000060781EC80937C0085B1806F85B984B175
:102AC000877E84B984B1876E84B95E9A5F988AB133
:102AD000806D8AB9769A6E9881B3806F81BB899830
:102AE00080B38D7080BB80E58CBD81E08DBD0E9480
:102AF000FC0A5F9A0E94FC0A5E985C98E1E1F8E0AB
:102B00008DE08E0F94919EBD00000DB407FEFDCFA9
:102B100031968E13F7CF5C9A81E8809364008091A0
:102B200065008160809365000E94BE11803839F491
:102B30002E9880916400806280936400FFCF82E0D1
:102B400090E00E943522882319F00E94CB1102C028
:102B50000E94C6118FB7F89440910202509103026F
:102B600060910402709105028FBF8091A706342FF7
:102B7000381B832F9091A806992329F03093A9063A
:102B80001092A8069BC19091A606391748F48F5F52
:102B9000891708F093C181E083BF889513BE8EC169
:102BA00011E01093A8064093A7068091A206909189
:102BB000A30601969093A3068093A2068091A40693
:102BC0008093A5060E94BE118093A40680911401F3
:102BD000811110C00E94BE1186FD0CC077C180918A
:102BE000A2069091A30666E970E00E94FF25892B5A
:102BF00009F083C181E0809314018091000181116B
:102C000001C210910F0111110AC020910B0281E045
:102C100090E0821B9109909313018093120180E24E
:102C20000E94020B8823A1F0111109C080910101BB
:102C300090910201181619065CF5019718C0809151
:102C40001201909113011816190614F501971CC072
:102C500080E40E94020B8823D9F011110DC08091ED
:102C60000101909102018230910594F401969093B4
:102C70000201809301010CC0809112019091130117
:102C8000181619062CF001969093130180931201E7
:102C900084E00E94020B882309F463C011113BC039
:102CA0008091010190910201009769F58091640083
:102CB0008E7F8093640080917A00806480937A0094
:102CC00080917A0086FDFCCF009178001091790008
:102CD0000E94071020E030E0980111270027600FC4
:102CE000711F821F931F611571058105910511F0F8
:102CF0000E942C228091640081608093640081E0B6
:102D0000809300017FC1909311018093100181E0B5
:102D100080930F012CC080911001909111010297B6
:102D200031F58091120190911301009719F40E94DE
:102D3000CB1104C0019711F40E94C61160910B02DF
:102D400082E090E02F966FAF2F970E9435222F964A
:102D50006FAD2F97681749F082E090E00E943D2206
:102D600004C088E00E94020B811110920F01809133
:102D70000F0181116AC000E021E042EF5AE062E0F9
:102D800070E08AE090E00E946A0820910101309191
:102D900002010091090110910A01015011094091AD
:102DA000070150910801249FC001259F900D349F79
:102DB000900D1124080F191F40910B0150910C0127
:102DC000249FC001259F900D349F900D1124080F62
:102DD000191F9090050180910301C0900D01D090C2
:102DE0000E01B1E0CB1AD10878015801A80EB11C30
:102DF000EA14FB0454F421E0492DB601C7010E94F6
:102E0000FE07EFEFEE1AFE0AF3CF209105012E5FC9
:102E1000409103014E5F60910D0170910E0162506F
:102E20007109C80101970E942A082091050130917B
:102E30000601409103015091040160910D017091D0
:102E40000E0161507109C80136C080911001909146
:102E500011018130910569F400E021E04AEB59E06D
:102E600060E070E080E290E00E946A080E945A08E8
:102E700025C00297D9F78091120190911301009714
:102E800039F0019751F442E150E08AE490E009C042
:102E90004DE050E08BE390E004C040E050E080E083
:102EA00090E0209105013091060160910D01709133
:102EB0000E01615071090E94EF11D8CF80E090E0BF
:102EC000892B09F447CE0E94000044CE609118017E
:102ED00070911901653071050CF081CE6F5F7F4FE5
:102EE000709319016093180100E021E049EF58E068
:102EF0008091160190911701B7CF80911501811132
:102F000033C0809171008D7F8093710010920A020E
:102F100081E196E090930902809308029093070262
:102F20008093060286E194E0909312068093110646
:102F300082E390E090931406809313068DE298E06C
:102F4000909316068093150684E690E090931806F9
:102F50008093170680E090E890931A0680931906F4
:102F60000E94B01010931501609118017091190121
:102F700000E021E049EF58E080911601909117019F
:102F80000E946A08C0901801D090190189E1C80E0A
:102F9000D11C0091160110911701780190E2E90E01
:102FA000F11C085D1F4FE016F10651F020E046E0ED
:102FB000B601C7010E94FE07AFEFEA1AFA0AF3CF83
:102FC0006091180170911901675E7F4F8091160121
:102FD0009091170100E021E042EF58E080960E94B6
:102FE0006A0820E04CE758E06EE270E08EE190E085
:102FF0000E946A0821E04EE158E06EE270E08EE146
:1030000090E032CF209152063091530680915406C1
:1030100090915506281739070CF0C2C0CE010196D1
:103020000E94731218A61FA281E090E09AA789A7B8
:1030300086E290E00E942D269CA78BA780E090E07E
:10304000A0E6B0E48DA79EA7AFA7B8AB8DEC9CEC33
:10305000ACE4BDE389AB9AABABABBCAB83E393E32E
:10306000A3EBBEE38DAB9EABAFABB8AF8AE097ED01
:10307000A3EABCE389AF9AAFABAFBCAF80E090E00E
:10308000A0E8BFEB21968CAF9DAFAEAFBFAF21974D
:103090000E9427225CE2C52EDD24D394E12CF12C82
:1030A000A70196010E944B220E94412469837A83E2
:1030B0008B839C830E942722A70196010E944B22AA
:1030C0000E9441246D837E838F83988784E18C875F
:1030D00080E18D8786E0ECE3F1E0DE011E96019051
:1030E0000D928A95E1F70E94272225E030E040E02A
:1030F00050E00E944B229B01AC012B5F3F4F4F4F92
:103100005F4F61E070E080E090E00E944B22CA01D6
:10311000B9010E9441242AE037ED43E25CE30E94BA
:10312000AF2269AF7AAF8BAF9CAFC9A8DAA8EBA882
:10313000FCA80E94272220E030E0A901C701B601C7
:103140000E94AF2269AB7AAB8BAB9CAB88E18987DD
:103150008091520690915306209154063091550665
:1031600082179307CCF4A0915606B09157069C01A4
:103170002F5F3F4F309353062093520646E0880F4F
:10318000991F4A95E1F7A80FB91F80E4FE01319617
:1031900001900D928A95E1F78BA59CA50E94C2260D
:1031A0008090260190902701A0902801B0902901DD
:1031B000C0902201D0902301E0902401F0902501DD
:1031C000A501940160E070E088E493E40E94AE22DF
:1031D0000E94092425966CAF7DAF8EAF9FAF2597D7
:1031E000A701960160E070E08AE793E40E94AE22B6
:1031F0000E94092429966CAF7DAF8EAF9FAF2997AF
:10320000A501940160E070E0CB010E94AE220E9413
:1032100009242D966CAF7DAF8EAF9FAF2D97A70180
:10322000960160E070E088EC92E40E94AE220E9479
:1032300009242B013C01A501940160E070E08AE7BC
:1032400093E40E94AE220E9409244B015C01A70175
:10325000960160E070E0CB010E94AE220E9409243A
:10326000DC01CB012396EEACFFAC239727960EAD85
:103270001FAD27972B962EAD3FAD2B97A201B40122
:103280000E94D20A8090260190902701A0902801E8
:10329000B0902901C0902201D0902301E090240138
:1032A000F0902501A501940160E070E08FEA93E4BD
:1032B0000E94AE220E94092425966CAF7DAF8EAF8E
:1032C0009FAF2597A701960160E070E08AEF93E435
:1032D0000E94AE220E94092429966CAF7DAF8EAF6A
:1032E0009FAF2997A501940160E070E0CB010E9497
:1032F000AE220E9409242D966CAF7DAF8EAF9FAF9A
:103300002D97A701960160E070E088EC93E40E949D
:10331000AE220E9409242B013C01A501940160E02A
:1033200070E088E493E40E94AE220E9409244B01DD
:103330005C01A701960160E070E08AE793E40E94D7
:10334000AE220E940924DC01CB012396EEACFFAC37
:10335000239727960EAD1FAD27972B962EAD3FAD29
:103360002B97A201B4010E94D20A8090260190906E
:103370002701A0902801B0902901C0902201D0908F
:103380002301E0902401F0902501A501940160E063
:1033900070E08AE793E40E94AE220E9409242596F9
:1033A0006CAF7DAF8EAF9FAF2597A701960160E010
:1033B00070E88BE394E40E94AE220E9409242996CF
:1033C0006CAF7DAF8EAF9FAF2997A501940160E0F0
:1033D00070E0CB010E94AE220E9409242D966CAFB2
:1033E0007DAF8EAF9FAF2D97A701960160E070E88B
:1033F00089E094E40E94AE220E9409242B013C0142
:10340000A501940160E070E08FEA93E40E94AE228F
:103410000E9409244B015C01A701960160E070E065
:103420008AEF93E40E94AE220E940924DC01CB01C2
:103430002396EEACFFAC239727960EAD1FAD2797D2
:103440002B962EAD3FAD2B97A201B4010E94D20A5C
:1034500040E069E97DE087E496E00E94910A81E21C
:1034600096E00E94901340E062E77DE081E296E002
:103470000E94910A20918C0630918D0640918E0613
:1034800050918F066091760670917706809178064C
:10349000909179060E9457251816ACF50E94BE112E
:1034A00085FF13C0209184063091850640918606E1
:1034B0005091870660917206709173068091740630
:1034C000909175060E94AF2216C00E94BE1186FF21
:1034D0001AC020918406309185064091860650914D
:1034E00087066091720670917306809174069091C0
:1034F00075060E94AE2260937206709373068093E5
:103500007406909375060E94BE1182FF55C0C0904C
:103510007606D0907706E0907806F090790620E065
:1035200030E0A901C701B6010E94572518164CF4D6
:103530002091900630919106409192065091930609
:1035400010C020E030E040E850E4609190067091B7
:10355000910680919206909193060E9464259B01AA
:10356000AC01C701B6010E94AF226093760670934A
:1035700077068093780690937906C0907A06D0906B
:103580007B06E0907C06F0907D06A7019601609195
:1035900076067091770680917806909179060E9460
:1035A00057251816ECF5C0927606D0927706E09271
:1035B0007806F092790634C00E94BE1183FF30C0B5
:1035C000C0907606D0907706E0907806F090790665
:1035D0002091940630919506409196065091970659
:1035E000C701B6010E9457251816D4F460919006C1
:1035F0007091910680919206909193069B01AC0187
:103600000E94AF229B01AC01C701B6010E94AE220D
:103610006093760670937706809378069093790688
:1036200088E596E00E94CC1388E596E00E9490130E
:1036300088E596E00E9423120E94272224E630E0CB
:1036400040E050E00E944B226230710581059105F7
:103650000CF09AC0C0907606D0907706E09078067D
:10366000F090790620E030E0A901C701B6010E9480
:10367000572518160CF088C020917E0630917F06E1
:103680008091800690918106281739070CF07CC044
:103690008090720690907306A0907406B0907506A4
:1036A00060916406669570E080E090E00E9441249D
:1036B00020915C0630915D0640915E0650915F0658
:1036C0000E94AF2220E030E040E850E40E94AE22A9
:1036D0002B013C0160916306669570E080E090E00C
:1036E0000E944124209158063091590640915A0673
:1036F00050915B060E94AF2220E030E040E850E4A9
:103700000E94AE22AB01BC01CE01019660964FAF84
:10371000609761965FAF61972F966FAF2F972E9648
:103720007FAF2E970E94731260964FAD609761969F
:103730005FAD61972F966FAD2F972E967FAD2E9729
:1037400049835A836B837C834D825E826F82788645
:103750008B8E9C8EAD8EBE8E20E030E040E05FE32D
:10376000C701B6010E9464256F8F78A389A39AA32D
:1037700084E0898798E09B878A8FBE016F5F7F4FC7
:103780008EE796E00E940D0B0E94BE1183FF1FC0C2
:1037900020E030E0A9016091760670917706809173
:1037A0007806909179060E945725181684F4809126
:1037B000A20680FD0CC02091980630919906809158
:1037C0009A0690919B06281739070CF46CC4C12CFB
:1037D000D12C06E28091980690919906C816D906D8
:1037E0000CF072C00C9DD0010D9DB00D1124E09124
:1037F0009C06F0919D06EA0FFB1F818D8823E1F165
:103800008150818FE0909C06F0909D06EA0EFB1E91
:10381000D7015A968D909D90AD90BC905D9720E019
:1038200030E044EB52E4C501B4010E945725F70192
:1038300011851816A4F420E030E047E853E4C501F0
:10384000B4010E948D2387FF0AC0E12FF0E0EE0F44
:10385000FF1FEE58FE4F6081718141E009C0E12FEA
:10386000F0E0EE0FFF1FEE58FE4F6081718140E0E7
:10387000C7010E94910A24C0C60140919806509148
:1038800099069D012A5D3F4F8417950784F4E091C6
:103890009C06F0919D06AE0FBF1FE20FF31F402F55
:1038A00001900D924A95E1F70196D901E6CF41507A
:1038B00051095093990640939806F1E0CF1AD10828
:1038C0002FEFC21AD20A86CFE0916106F0E0EE0F28
:1038D000FF1FEE55FE4F6081718140E088E596E064
:1038E0000E94910A209134063091350640913606A7
:1038F00050913706609138067091390688E596E058
:103900000E949912212C312C23961FAE1EAE2397B4
:1039100080915206909153062396AEADBFAD23978A
:10392000A817B9070CF074C20091560610915706FB
:10393000020D131DC8010E94CC13C8010E949013F0
:10394000C8010E942312D8015E96CD90DD90ED90C3
:10395000FC90919720E030E0A901C701B6010E94D8
:103960005725181634F4F80120AD31AD42AD53ADF2
:103970000DC020E030E040E850E4F80160AD71ADEA
:1039800082AD93AD0E9464259B01AC01C701B601D5
:103990000E94AF22D8015E966D937D938D939C9388
:1039A0009197F801C2A0D3A0E4A0F5A0A7019601C9
:1039B000668D778D80A191A10E94572518163CF441
:1039C000D8015E96CD92DD92ED92FC9291970E9485
:1039D000272224E630E040E050E00E944B22623093
:1039E0007105810591050CF08EC0F801C68CD78C4D
:1039F000E0A0F1A020E030E0A901C701B6010E94DB
:103A0000572518160CF07FC0F80126A137A180A514
:103A100091A5281739070CF076C0D8015A968D90D9
:103A20009D90AD90BC905D971C966C91669570E0F2
:103A300080E090E00E944124F80124813581468194
:103A400057810E94AF2220E030E040E850E40E941D
:103A5000AE222B013C01D8011B966C91669570E05B
:103A600080E090E00E944124F80120813181428170
:103A700053810E94AF2220E030E040E850E40E94F1
:103A8000AE22AB01BC01CE01019660964FAF6097AC
:103A900061965FAF61972F966FAF2F972E967FAF8E
:103AA0002E970E94731260964FAD609761965FAD3E
:103AB00061972F966FAD2F972E967FAD2E974983E6
:103AC0005A836B837C834D825E826F8278868B8E75
:103AD0009C8EAD8EBE8E20E030E040E05FE3C701FB
:103AE000B6010E9464256F8F78A389A39AA3F4E09E
:103AF000F98728E02B87FA8FBE016F5F7F4FC801DF
:103B000086960E940D0BC0905C06D0905D06E090FA
:103B10005E06F0905F068090580690905906A0903F
:103B20005A06B0905B060091560610915706020D9A
:103B3000131DD801D4962D913D914D915C91D7974D
:103B40005E966D917D918D919C9191970E945725E4
:103B500018160CF097C0F801608171818281938101
:103B60000E9409242B013C01C501B4010E940924D3
:103B70009201261B370BB901072E000C880B990BFD
:103B80000E9441249B01AC01C701B6012E962FAFC4
:103B90002E972F963FAF2F9760964FAF6097619605
:103BA0005FAF61970E9409246B017C01D8011496D4
:103BB0006D917D918D919C9117970E940924F6013A
:103BC000E61BF70BBF01072E000C880B990B0E9418
:103BD00041242E962FAD2E972F963FAD2F976096AE
:103BE0004FAD609761965FAD61970E942E23D8011B
:103BF0005A96CD90DD90ED90FC905D9720E030EDF1
:103C00004FE557E40E94642520E030E04AE754E4A1
:103C10000E94972320E030E044E353E40E94AF2267
:103C20000E9409244B015C01C701B6010E940924CE
:103C3000C401861B970B68E671E00E941326845E20
:103C40009D4F68E671E00E941326BC01645B710918
:103C5000072E000C880B990B0E944124F80120A923
:103C600031A942A953A90E9464259B01AC01C70157
:103C7000B6010E94AF22D8015A966D937D938D9321
:103C80009C935D97D8011996EC91F0E0EE0FFF1F21
:103C9000EE5BFE4F6081718140E0C8010E94910A95
:103CA0008091A2069091A30665E070E00E94FF2536
:103CB000892BC9F0809156069091570620916B068A
:103CC00030916C0640916D0650916E0660916F06C2
:103CD00070917006820D931D0E949912E12CF12CB7
:103CE00000E010E080C02091260130912701409132
:103CF000280150912901F80164817581868197819D
:103D00000E94AE226B017C01D8011C966C916695D5
:103D100070E080E090E00E9441249B01AC01C7016B
:103D2000B6010E94AF2220E030E040EE50E40E9455
:103D3000AE220E9409247B012091220130912301AF
:103D40004091240150912501F801608171818281A7
:103D500093810E94AE224B015C01D8011B966C91AD
:103D6000669570E080E090E00E9441249B01AC01E8
:103D7000C501B4010E94AF2220E030E040EA50E4E7
:103D80000E94AE220E9409246B018B01065F1F4F27
:103D9000C016D10609F48ECF21E044E0B701C60178
:103DA0000E94FE07BFEFCB1ADB0AF2CF2396EEADDF
:103DB000FFAD23970E171F0789F08091560690914B
:103DC0005706FC01EE0DFF1D23893489458956896C
:103DD0006789708D820D931D0E9499120F5F1F4F8E
:103DE000F0E4EF0EF11C80915206909153060817F3
:103DF0001907E4F223962EAD3FAD23972F5F3F4F77
:103E000023963FAF2EAF239730E4230E311C80CD95
:103E100060916406669570E080E090E00E94412425
:103E200020915C0630915D0640915E0650915F06E0
:103E30000E94AF226B017C0160916306669570E081
:103E400080E090E00E94412420915806309159066C
:103E500040915A0650915B060E94AF224B015C01D3
:103E60004090220150902301609024017090250120
:103E700020E030E040E052E4C301B2010E94AF22F2
:103E8000A50194010E94572518163CF420E030E06B
:103E900040E052E4C501B40120C020E030E040E041
:103EA00053E4C301B2010E94AF2220E030E040E0C1
:103EB00052E40E94AE22A50194010E948D2387FF47
:103EC00016C020E030E040E052E4C501B4010E9499
:103ED000AF2220E030E040E053E40E94AE22609345
:103EE00022017093230180932401909325018090F7
:103EF000220190902301A0902401B090250120E0A0
:103F000030E0A901C501B4010E948D2387FF09C0DB
:103F10001092220110922301109224011092250187
:103F20002EC000912A0110912B0120E030E040E0EA
:103F300053E4C501B4010E94AF224B015C01B801FA
:103F4000012E000C880B990B0E9441249B01AC01AF
:103F5000C501B4010E94572518168CF4B8016058A9
:103F60007109072E000C880B990B0E944124609365
:103F70002201709323018093240190932501809066
:103F8000260190902701A0902801B090290120E0FF
:103F900030E040EC51E4C501B4010E94AF22A7011A
:103FA00096010E94572518163CF420E030E040ECC2
:103FB00051E4C701B60120C020E030E040E852E4FF
:103FC000C501B4010E94AF2220E030E040EC51E492
:103FD0000E94AE22A70196010E948D2387FF16C082
:103FE00020E030E040EC51E4C701B6010E94AF226E
:103FF00020E030E040E852E40E94AE2260932601C7
:10400000709327018093280190932901C090260185
:10401000D0902701E0902801F090290120E030E0C5
:10402000A901C701B6010E948D2387FF0AC0109223
:1040300026011092270110922801109229010C9458
:10404000361700912C0110912D0120E030E040E85E
:1040500052E4C701B6010E94AF226B017C01B80196
:10406000012E000C880B990B0E9441249B01AC018E
:10407000C701B6010E945725181614F00C94361784
:10408000B80160547109072E000C880B990B0E942F
:104090004124609326017093270180932801909317
:1040A00029010C94361710916106C0905C06D090DF
:1040B0005D06E0905E06F0905F0680905806909056
:1040C0005906A0905A06B0905B06CE0101960E9458
:1040D000731289829A82AB82BC82CD82DE82EF82A9
:1040E000F8861A878AE08A8F40919806509199063F
:1040F00080919A0690919B06481759070CF067CB60
:10410000A0919C06B0919D06CA01019690939906D4
:104110008093980686E2849F9001859F300D11243C
:10412000A20FB31FFE01319601900D928A95E1F71F
:104130004ECBEF92FF920F931F93CF93DF93E6EB5B
:10414000F6E01382128288EE93E0A0E0B0E0848370
:104150009583A683B78384EE91E0918380838FEF6C
:104160009FEF95878487EFE9F6E088EF91E09183F0
:1041700080831582168210E11783148213821186C0
:104180008DEF9FE09093200680931F0680E090E8DB
:1041900090931E0680931D0646983E9A47983F9A34
:1041A00088E596E00E947312C8E5D6E01FA21EA221
:1041B00081E090E099A788A786E290E00E942D26F2
:1041C0009BA78AA780E090E0A0E6B0E48CA79DA71B
:1041D000AEA7BFA78DEC9CECACE4BDE388AB99AB7C
:1041E000AAABBBAB83E393E3A3EBBEE38CAB9DAB8A
:1041F000AEABBFAB8AE097EDA3EABCE388AF99AF63
:10420000AAAFBBAF80E090E0A0E8BFEB8CAF9DAF62
:10421000AEAFBFAF109299061092980685E0E82ED7
:10422000F12CF0929B06E0929A068EEB90E00E94B1
:104230002D2690939D0680939C060E94272228E6B7
:1042400031E040E050E00E944B220E9441246A8FFE
:104250007B8F8C8F9D8F80E090E0A0EAB1E4888313
:104260009983AA83BB838C839D83AE83BF8304E140
:104270000B871C8786E0E2EDF1E0A5E6B6E0019051
:104280000D928A95E1F788E18887C2E5D6E0198228
:104290001882FB82EA8280E491E00E942D269D83B1
:1042A0008C83E7E4F6E010861186128680E090E0C9
:1042B000A0EFB1E480839183A283B3838483958349
:1042C000A683B78381E296E00E947312E1E2F6E0F2
:1042D00080E090E0A0EAB2E480839183A283B3837C
:1042E00080E090E0A0E2B2E484839583A683B78364
:1042F0000387148786E0E2EDF1E0AEE2B6E00190DC
:104300000D928A95E1F7DF91CF911F910F91FF9068
:10431000EF900895CF92DF92EF92FF920F931F9349
:10432000CF93DF931F92CDB7DEB7182F062FE42E61
:10433000862F880F8E5F99830E943C0C83E00E9439
:104340003C0CF12EC12E9981D92E8C2D8F198017FE
:1043500098F4F601E7FE02C0849101C080810E94BA
:104360003C0C182F80E00E943C0C8123FFEFCF1AF9
:10437000DF0A8111EACF01C081E00F90DF91CF9178
:104380001F910F91FF90EF90DF90CF900895809153
:104390005606909157060E94C22680919C069091E5
:1043A0009D060E94C22680918206909183060C94FD
:1043B000C2268F929F92AF92BF92CF92DF92EF92DE
:1043C000FF92CF93DF93EC01688179818A819B8191
:1043D000611571058105910521F464E279ED8BE5A4
:1043E00097E02DE133EF41E050E00E944B2249017C
:1043F0005A019B01AC01A7EAB1E40E946A226B0159
:104400007C01ACEEB4EFA50194010E947822DC019E
:10441000CB018C0D9D1DAE1DBF1DB7FF03C00197C5
:10442000A109B04888839983AA83BB83BC01CD01CD
:104430009F77DF91CF91FF90EF90DF90CF90BF906B
:10444000AF909F908F9008950E94D921089582E3A4
:1044500091E00E94D9210895609332017093330155
:1044600080933401909335010895F999FECF92BD60
:1044700081BDF89A992780B50895262FF999FECF26
:104480001FBA92BD81BD20BD0FB6F894FA9AF99A71
:104490000FBE01960895052E97FB1EF400940E940E
:1044A000622257FD07D00E947D2207FC03D04EF404
:1044B0000C94622250954095309521953F4F4F4F77
:1044C0005F4F089590958095709561957F4F8F4FC0
:1044D0009F4F08950E949F22A59F900DB49F900D1D
:1044E000A49F800D911D11240895B7FF0C946A229A
:1044F0000E946A22821B930B0895A1E21A2EAA1B26
:10450000BB1BFD010DC0AA1FBB1FEE1FFF1FA21783
:10451000B307E407F50720F0A21BB30BE40BF50B80
:10452000661F771F881F991F1A9469F76095709509
:10453000809590959B01AC01BD01CF010895A29F8C
:10454000B001B39FC001A39F700D811D1124911D67
:10455000B29F700D811D1124911D08955058BB27E5
:10456000AA270E94C6220C9409250E94D02438F064
:104570000E94D72420F039F49F3F19F426F40C94BC
:10458000A6240EF4E095E7FB0C94A024E92F0E94EA
:104590002E2558F3BA17620773078407950720F092
:1045A00079F4A6F50C9450250EF4E0950B2EBA2F55
:1045B000A02D0B01B90190010C01CA01A001112429
:1045C000FF27591B99F0593F50F4503E68F11A16D5
:1045D000F040A22F232F342F4427585FF3CF469566
:1045E00037952795A795F0405395C9F77EF41F1688
:1045F000BA0B620B730B840BBAF09150A1F0FF0F52
:10460000BB1F661F771F881FC2F70EC0BA0F621F3D
:10461000731F841F48F4879577956795B795F7952D
:104620009E3F08F0B0CF9395880F08F09927EE0FC2
:104630009795879508950E94D02460F080E891E0D6
:1046400009F49EEF0E94D72428F040E851E071F46D
:104650005EEF0CC00C94A6240C945025E92FE07852
:104660000E942E2540F3092E052AB1F3261737079D
:104670004807590738F00E2E07F8E02569F0E025C5
:10468000E0640AC0EF6307F8009407FADB01B901A0
:104690009D01DC01CA01AD01EF930E94AE230E948F
:1046A00009250E945E235F91552339F02BED3FE0F1
:1046B00049E450FD49EC0C94AF220895DF93DD27C7
:1046C000B92FBF7740E85FE31616170648075B0768
:1046D00018F4D92F0E945C259F938F937F936F933B
:1046E0000E94D925ECEAF0E00E94A9240E94092545
:1046F0002F913F914F915F910E947725DD2351F0DB
:104700009058A2EA2AED3FE049EC5FE3D0785D27BC
:104710000E94C622DF910C9409250E947C2408F493
:1047200081E008950E94E024E3950C941A250E94EC
:10473000AB230C9409250E94D72458F00E94D02462
:1047400040F029F45F3F29F00C94A02451110C94FF
:1047500051250C94A6240E942E2568F39923B1F3C9
:10476000552391F3951B550BBB27AA276217730797
:10477000840738F09F5F5F4F220F331F441FAA1F2B
:10478000A9F335D00E2E3AF0E0E832D091505040E7
:10479000E695001CCAF72BD0FE2F29D0660F771F95
:1047A000881FBB1F261737074807AB07B0E809F07B
:1047B000BB0B802DBF01FF2793585F4F3AF09E3F00
:1047C000510578F00C94A0240C9451255F3FE4F33C
:1047D000983ED4F3869577956795B795F7959F5F43
:1047E000C9F7880F911D9695879597F90895E1E08F
:1047F000660F771F881FBB1F621773078407BA07EE
:1048000020F0621B730B840BBA0BEE1F88F7E09548
:1048100008950E9410246894B1110C9451250895B4
:104820000E94362588F09F5798F0B92F9927B751E5
:10483000B0F0E1F0660F771F881F991F1AF0BA9544
:10484000C9F714C0B13091F00E945025B1E008952D
:104850000C945025672F782F8827B85F39F0B93F1F
:10486000CCF3869577956795B395D9F73EF49095F7
:104870008095709561957F4F8F4F9F4F0895E89475
:1048800009C097FB3EF490958095709561957F4F98
:104890008F4F9F4F9923A9F0F92F96E9BB27939546
:1048A000F695879577956795B795F111F8CFFAF456
:1048B000BB0F11F460FF1BC06F5F7F4F8F4F9F4F87
:1048C00016C0882311F096E911C0772321F09EE8E5
:1048D000872F762F05C0662371F096E8862F70E04B
:1048E00060E02AF09A95660F771F881FDAF7880F25
:1048F0009695879597F90895990F0008550FAA0B7B
:10490000E0E8FEEF16161706E807F907C0F01216E2
:104910001306E407F50798F0621B730B840B950BE5
:1049200039F40A2661F0232B242B252B21F408953A
:104930000A2609F4A140A6958FEF811D811D0895D7
:1049400097F99F6780E870E060E008959FEF80EC42
:104950000895DF93CF931F930F93FF92EF92DF920F
:104960007B018C01689406C0DA2EEF010E94772546
:10497000FE01E894A5912591359145915591A6F3B5
:10498000EF010E94C622FE019701A801DA9469F79F
:10499000DF90EF90FF900F911F91CF91DF910895DD
:1049A00000240A941616170618060906089500240E
:1049B0000A94121613061406050608950C94A624EC
:1049C0000E943625D8F3E894E0E0BB279F57F0F02B
:1049D0002AED3FE049EC06C0EE0FBB0F661F771FC4
:1049E000881F28F0B23A62077307840728F0B25A8A
:1049F000620B730B840BE3959A9572F7803830F451
:104A00009A95BB0F661F771F881FD2F790480C94AA
:104A1000DF25092E0394000C11F4882352F0BB0FFC
:104A200040F4BF2B11F460FF04C06F5F7F4F8F4FC6
:104A30009F4F0895EF93E0FF07C0A2EA2AED3FE001
:104A400049EC5FEB0E94C6220E9409250F90039457
:104A500001FC9058E9EDF0E00C94EB2557FD9058DF
:104A6000440F551F59F05F3F71F04795880F97FB32
:104A7000991F61F09F3F79F08795089512161306EC
:104A80001406551FF2CF4695F1DF08C0161617061B
:104A90001806991FF1CF8695710561050894089550
:104AA000E894BB2766277727CB0197F908950E94E2
:104AB0007C2408F48FEF08959B01AC0160E070E066
:104AC00080E89FE30C9497230E9477250C94092596
:104AD0000E94D02438F00E94D72420F0952311F0B2
:104AE0000C94A0240C94A62411240C9451250E940B
:104AF0002E2570F3959FC1F3950F50E0551F629FCF
:104B0000F001729FBB27F00DB11D639FAA27F00D26
:104B1000B11DAA1F649F6627B00DA11D661F829F4D
:104B20002227B00DA11D621F739FB00DA11D621F32
:104B3000839FA00D611D221F749F3327A00D611D4F
:104B4000231F849F600D211D822F762F6A2F112431
:104B50009F5750409AF0F1F088234AF0EE0FFF1F64
:104B6000BB1F661F771F881F91505040A9F79E3FBB
:104B7000510580F00C94A0240C9451255F3FE4F380
:104B8000983ED4F3869577956795B795F795E79511
:104B90009F5FC1F7FE2B880F911D9695879597F91A
:104BA00008959F930E94E0240F9007FCEE5F0C9401
:104BB0001A259B01AC010C9464259F3F31F0915064
:104BC00020F4879577956795B795880F911D9695F1
:104BD000879597F908959F938F937F936F93FF9392
:104BE000EF939B01AC010E946425EF91FF910E941D
:104BF000A9242F913F914F915F910C946425AA1B9A
:104C0000BB1B51E107C0AA1FBB1FA617B70710F0B7
:104C1000A61BB70B881F991F5A95A9F780959095E9
:104C2000BC01CD01089597FB072E16F4009407D020
:104C300077FD09D00E94FF2507FC05D03EF4909532
:104C400081959F4F0895709561957F4F0895EE0F60
:104C5000FF1F0590F491E02D0994CF93DF938230EC
:104C6000910510F482E090E0E0911C07F0911D079F
:104C700020E030E0C0E0D0E0309711F14081518178
:104C800048175907C0F04817590761F4828193818A
:104C9000209719F09B838A832BC090931D078093E4
:104CA0001C0726C02115310519F04217530718F4C7
:104CB0009A01BE01DF01EF010280F381E02DDCCF1C
:104CC0002115310509F1281B390B2430310590F4E9
:104CD00012968D919C9113976115710521F0FB013E
:104CE0009383828304C090931D0780931C07FD016A
:104CF000329644C0FD01E20FF31F8193919322503D
:104D000031092D933C933AC020911A0730911B072B
:104D1000232B41F4209138013091390130931B0746
:104D200020931A0720913601309137012115310562
:104D300041F42DB73EB740913A0150913B01241BFD
:104D4000350BE0911A07F0911B07E217F307A0F467
:104D50002E1B3F0B2817390778F0AC014E5F5F4FD1
:104D60002417350748F04E0F5F1F50931B074093E1
:104D70001A078193919302C0E0E0F0E0CF01DF9148
:104D8000CF9108950F931F93CF93DF93009709F46A
:104D90008CC0FC0132971382128200911C07109183
:104DA0001D070115110581F420813181820F931FA8
:104DB00020911A0730911B072817390779F5F093CE
:104DC0001B07E0931A0771C0D80140E050E0AE170E
:104DD000BF0750F412962D913C911397AD01211508
:104DE000310509F1D901F3CF9D01DA013383228323
:104DF00060817181860F971F8217930769F4EC0118
:104E000028813981260F371F2E5F3F4F3183208342
:104E10008A819B8193838283452B29F4F0931D071C
:104E2000E0931C0742C01396FC93EE931297ED019A
:104E3000499159919E01240F351FE217F30771F430
:104E400080819181840F951F029611969C938E9379
:104E50008281938113969C938E931297E0E0F0E009
:104E6000D80112968D919C911397009719F0F80133
:104E70008C01F6CF8D919C9198012E5F3F4F820F50
:104E8000931F20911A0730911B072817390769F4DF
:104E9000309729F410921D0710921C0702C013824C
:104EA000128210931B0700931A07DF91CF911F9175
:104EB0000F91089581E090E0F8940C945F2717E03B
:104EC000C7E1D7E004C0FE010E9427262196C83121
:084ED000D107C9F7F894FFCFE8
:104ED800000000170009001500100004003700004A
:104EE8000000000000001D00D2FF00E100000000EB
:104EF80000000000000000000000D007E803FFFFEA
:104F0800FFFF0100000000001E07800005000400EC
:104F18000A0A0404DE03B7039303720356033D032E
:104F280022030103DD02B6028F026A0243021C0259
:104F3800F901D901BE01A5018A01690145011E01D6
:104F4800F800B004A60499048C04800475046B046A
:104F5800750480048C049904A604B0046004530406
:104F680048043D043204280432043D044804530430
:104F78006004EA07C2079A07730750073107160744
:104F8800F706D406AD0685065D0636060F06E70564
:104F9800C205A10585056D0551052F050A05E20421
:104FA800BB04050004000A0A01020408102040801E
:104FB80000000000010C680B9E0C170C220CA20CC0
:104FC800C00C190000000000001000C18081000022
:024FD8000000D7
:00000001FF
