:100000000C9487090C94AF090C94AF090C94AF09B8
:100010000C94AF090C94AF090C94AF090C94AF0980
:100020000C94AF090C94AF090C943B230C94AD23B2
:100030000C94AF090C94AF090C94AF090C94AF0960
:100040000C94AF090C94AF090C94AF090C94AF0950
:100050000C94AF090C94AF090C94AF090C947A0B73
:100060000C94AF090C94AF090C94AF090C94AF0930
:100070000C94AF090C94AF090C94AF090C94AF0920
:100080000C94C40B0C94AF090C94AF090C94AF09F9
:100090000C94AF090C94AF090C94AF090C94AF0900
:1000A0000C94AF090C94AF090C94AF09084AD73BE4
:1000B0003BCE016E84BCBFFDC12F3D6C74319ABD37
:1000C00056833DDA3D00C77F11BED9E4BB4C3E915B
:1000D0006BAAAABE000000803F05A84CCDB2D44E4A
:1000E000B93836A9020C50B9918688083CA6AAAA4C
:1000F0002ABE000000803F0001020408102040805A
:10010000D5F08D14A1C881CFD9F1AF2000420F28BE
:10011000E5F6ED56D9D9E4F6EDD62AC964B7CA4951
:10012000A79CB25B26BBFDFFDF2A47E59CB44AAA29
:10013000A5726472FB76ABEC6C72FB766B9564B265
:10014000DBFFFFAD725476FBAD6EB51D475B65B747
:100150004B2567DB2ABB5D2A399B928A5C4945A601
:10016000A4429E928A7CABEC76A9E46C5B65B74BAB
:1001700025675352912AA9C8945476BBDD4E0A07CD
:10018000080C0603030306003F2FB0BD54CE29B967
:10019000DDA6D387D3743A9D4EA7D3E9743A1D5197
:1001A0005649A97C3ABDDD2AE99C543A08CA291D62
:1001B000FED2DB6DDBE576BBDDA6D3E9743A9D4E5E
:1001C000A7D3E9F476BB555249E7A4B2EB5857B828
:1001D0004DA7D3E97476BBDD2E95933129659554EF
:1001E00052492595DCC69E5D2AA99C73CE39E79CB1
:1001F000734E4EB7545239E79C73CE392795BA7770
:100200004EDDAA57AD5EFD761D593ADBB94EF5B706
:100210005332AB64ED6EF5AF7AF5B9CE756EBBDDDA
:10022000AED369E75098AE9D92DB743AA6A553769B
:10023000BB554EAEB6CE49A523DB2E9D73CED5BBA6
:100240007F1B3D1FFCB47556E9F57A1DD4A4EC3A2A
:10025000BA74E73A954AD5AE5665D5A594BB56CA49
:10026000B961B7F476BD5D6FD7DBED76BDDD6EB7F6
:10027000DBED72BBDD6E97DBED72BBDCA6B74A8EA1
:100280005D7F3F80BC4849252B5991A59554323A52
:100290002595AC64744A2A59C9E89454323F0C2C11
:1002A0009554A954292AA9A4AAA4A452A554A95290
:1002B000AA14F4B84CA7D3E9742A954AF5AA57E9C9
:1002C0007C2D15EB769D8E6DBB4E562EDBAB5E7591
:1002D0002E954AA7D3E9743A3FBEA592AA2AE7A869
:1002E000A492AA961795545255525249259D723799
:1002F00095545255A552112EB3D974369D4EA7D39D
:10030000E9743E9DCFE787073D5DB4D1A5A34B4778
:10031000D6D9B218B3659311A6A34B47175D3AEF30
:10032000E122A7529D4D67D3E9743A9D4EE7D3F978
:100330007C2AE7F89DEC7CB2D3C9CE75AE739DEBF9
:100340005CE73AD7D95C67539D7270E13E9D4EA73A
:10035000D3E9743A9DCE66436B3E9F4EA7D3E974B2
:100360003A9D4E27878DF6F964A7939DEB5CE73A9B
:10037000D7B9CE75AEB3B9CE6693037B123F3FD1EA
:10038000974EA7D3E9743A9D4EA7D3E968D3E97491
:100390003A9D4E479B0E8DE9743A9D4EA7D3E97462
:1003A0003A9D0EDF843ADD76BBDD6EB73ACDC79756
:1003B0004EF7AA5739E728DBD5EE5DEDDED52E42A4
:1003C0009DE623D4E9B6DBED76BBD5693E7CCBED6B
:1003D000A94FFDAF7AD5FFFFFF9FDAAEE4F6289D67
:1003E00073BFEADDAB5E29A964DBA5DC5EFF7F722B
:1003F0007B6D977C727B6ABBEA55AF7AD5AB5EF5B5
:1004000076BB92DBC377BBDAD5AE76BFEABD92AAE4
:100410005DEDAC92EEFF4F39E77697FBFFBF76B507
:100420008BAF573D653AEF9C53727B6ABB6ABBEC5E
:1004300055AFB25BBB7DBB7DBB6CBB44B84EE79C8C
:1004400053B9CBBD4E2BE75CED6A57FF7FBDEAADDC
:1004500073CE7DEA53CEB974BA5EF52A77B9CB393B
:10046000E7EC36E59CAB5DEDFEFFDF2EDBD52EA97C
:10047000A4924A2AF5A9FF558FF2B64BB5DD7EEA64
:10048000FFFF539FFAD476D576ABD3CA3957769B04
:10049000DCEEB6BB57BDCA39A772CE792539EDF669
:1004A000FF7FBBE5DCEE9554CA3997FAD4876F3EDF
:1004B0009DB6DBED76BB3D9D26E453DB55CE3995ED
:1004C000DDBE5DF6AAA76CBB944AAAECF6FFDF4935
:1004D00025DB6E5FF54A6D57727B3A1D1FBED3E96F
:1004E000743A9D4EA7D3E9743A1D6D3ADA743A9D79
:1004F0004EA7D3A1299D4E479B8E361D9AD2A10FA0
:100500000608007F3E7F0C7F187F3E7F007F001F24
:100510000E7F3E7F387F0E7F001F0E08007F3E7FDC
:100520003E7F0A7F021F007F367F3E7F087F367F37
:10053000007F007F367F007F1508007F3E7F3E7F73
:10054000187F3E7F007F3E7F3E7F2A7F227F007F95
:100550003E7F3E7F207F2070007F3E7F3E7F127F68
:100560001E3F003F1508007F3E7F3E7F127F1E3FEB
:10057000007F3E7F3E7F207F2070007F3E7F3E7F5A
:10058000127F3E7F007F0E7F3E7F387F0E7F001FF1
:1005900015080077227F3E7F3E7F227F007F3E7FCF
:1005A0000C7F187F3E7F007F3E7F3E7F0A7F021FC9
:1005B000007F3E7F3E7F227F3E7F007F7F3FA040C7
:1005C000B9DD6EDF6E9D54643595DD6EB7FFFF5B60
:1005D000E5B8AAA292DBEDF6FF7FAB2453D5F6FF78
:1005E000B776BBDDBE3D252B551593DD6EB7FFFFFE
:1005F0006F4FC94A5545E594DD6EFFFFFF5F057DEE
:1006000067B395AC5CED6A57BBDAD5AEE4EDB6B531
:10061000FB4FBD92D995E3923A9DAE9D52AE942B7D
:1006200075EA6A59EACA96ABE4E52A79B6B2E52AD0
:1006300079B6D45557E5AA6CC9CB55F27255B6E4D4
:10064000B6B225CF75AE73B52B77B9CB5DD775EE46
:100650007439F5A94F7DEA954C6F6BA596D9DAD51B
:10066000AE76B5AB5D2D2B59D97CF0AAF23955BBCE
:10067000DA55A53AD7B94A56369BCE29972EB5BB3F
:1006800076B5AB64BA76B5AB5DED52A9D4E79CAA5A
:100690007255D5555D95ABAAABEA4A5D5557EA52FE
:1006A0005D5597EAAABA54A7EA529DAA4B75555DC3
:1006B000AAABEA525DA9ABEA4A5D5557D5557555C7
:1006C000E5AA9493B54BA7D3A954EA53D239BB4EAC
:1006D000A73EA7B8944FE7B395AC64E73A5795AAFD
:1006E0005D9DCA2938319BAD5CAD4AA95A95BBD4F2
:1006F000659395DCEE2A77B94BA9DAD54E49E59496
:10070000734AD5EA5ED54EC96D3A9D54F3CBAEEA35
:10071000AA5CB65297BA9453AE96DFEA579D2BA5C2
:100720009CECC82A99AEB83AE55C29D5A9FFBB96DE
:10073000CA9572A5AE525DD9CA56ADDA29F8289D80
:100740004E6FB795ACE4252FA5CAA9DA9572B5AC62
:100750006C3E58EBDDBB47527279B94ABA6E75B937
:10076000CB5DEE7297BBDCE52EFDA952D55D55AA97
:10077000AE7B7575777575B7DEA6B7955452B9F22D
:10078000AD145EF3E97436F4EEA85C2D2BA9647AFF
:100790009BDE56AE7697ABE4B67255A95B55A59C29
:1007A000DBA6D3E9743A9D4E6F6B77B9CA2A1DEF69
:1007B000DEBDF3C34F7BF7CECFBBBC54EF6E25F548
:1007C00025F3E974252B59C9CA756AA5CAD5A9AA02
:1007D000AE4EF5F7F7EA729D3BBBCEAE9DAA5257DF
:1007E000D5555D555D555DD5557555D55557555DF7
:1007F000A5AEBA2A75D5AA5C55EA5655A95B95529D
:10080000B72A75D59FBADCA73A5795ABCA55AEAA99
:10081000AB72555D555D95ABBCCBAEB3EBEC3A5BC3
:10082000D9CA55E56A559592769D4FA7D3E9743696
:10083000BB72B25297AB9593B1BF7BF7B056DEA9AE
:10084000DCC9FDD6D9CA55A56E5555AE53555DDDEB
:1008500057A9DB294AAA53A95455577757AE535580
:10086000B94E55E55A55A56E5595BA955D87CE7426
:100870003A5DB9CBDDAB5B5D4E49E79C934A2ABB41
:10088000DDAED3616BA96E5595BA5555EA5655A99B
:100890005B55E56A7749252B3B96B2CA5DEA56550A
:1008A000A95B55E56A55CB65369D7CF74E05CDA510
:1008B000F3E96C252B59C94AD62E95CA75AE739D9E
:1008C000EB5CE73AD7B9CE75AE739D4AD5AE92953B
:1008D000AC64252B79B9CB5DEED2913BA583A69272
:1008E00058CA5DEE7297AB64252B59C94AD62E952E
:1008F000CA75AE739DEB5CE73AD7B9CE75AE739D02
:100900004AD5AE9295AC6465D3D974D0104110002D
:10091000FFFEFFFEFFFEFFFEFF66FF66FFFCFF9887
:10092000FE00FC000000FFFEFFFEFFFEFFFEFF00DA
:10093000FF00FFFEFFFEFF00FF0000007E3CFF7E89
:10094000FF7EFF7EFFE6FFE6FFE6FFC6FF00EF004B
:1009500000000F060F06FFFEFFFEFFFEFFFEFF0674
:10096000FF060F000F000000FFFEFFFEFFFEFFFE70
:10097000FF66FF66FF06FF060F000F000000FFFE88
:10098000FFFEFFFEFFFEFF06FF06FFFEFFFCFF006F
:10099000FE000F070F070F070F070F060F060F07C1
:1009A0000F030F000700000007030F070F070F07D3
:1009B0000F060F060F070F030F00070000000F06BA
:1009C0000F060F060F060F070F070F070F030F0085
:1009D00007000000000000000F070F070F070F07B8
:1009E0000F000F000000000000000F070F070F07A7
:1009F0000F070F060F060F060F060F000F0000006F
:100A00000F070F070F070F070F060F060F070F033C
:100A10000F00070608007F3E7F3E7F227F3E7F005B
:100A20007F0077227F3E7F3E7F207F0070007F3AED
:100A30007F3A7F2E7F2E7F007F007F227F2A7F3E9E
:100A40007F3E7F007F001F0E1F087F3E7F3E7F009E
:100A50007F007F2E7F2E7F3A7F3A7F007F007F3E90
:100A60007F3E7F2A7F3A7F007F00070207027F3E9A
:100A70007F3E7F007F007F3E7F3E7F2A7F3E7F005C
:100A80007F001F0E1F0A7F3E7F3E7F007F141000F5
:100A900000E020A038082C0404002888182020201A
:100AA000E0000000001F1030207B6B37171731204B
:100AB000686820101F00000000E060B01848208423
:100AC0000404084830202060C0800000030F30106C
:100AD00030605B4A36171710202C20100A0F0000D8
:100AE00080C0407018C8A404842C0818903020607E
:100AF000C000000007091B362121405B4A2617135E
:100B0000102C34100D0700000080807010D08484F9
:100B100004840808D8302020E0000000001F1016D0
:100B20002C2C2041465A671B101016180700000095
:100B3000000080E030C4848484040808183020E079
:100B400000000000001C1F302C2C2C6C41424A730A
:100B50001010180F0000000000000000F01884843E
:100B600084840C0C0838E000000000000000003F06
:100B7000202C2C6C4C4D404378080F0000000000E6
:100B800000000000C06C0484848484047CC00000E5
:100B900000000000000000007F404C4C4C444C4CD6
:100BA000407F000000000000000000E038080C0C4E
:100BB0008484848418F00000000000000000000F0E
:100BC000087843404C446C2C28203F000000000073
:100BD0000000E0203018080804848484CC38E080C9
:100BE0000000000000000F181010734A40406C2CE9
:100BF000282C301F1C00000000E0202030D000080E
:100C000084048484DC1870808000000000071816BB
:100C100010101B675A444020242C16101F0000009F
:100C200000C06020309018082C8404A4CC187040B8
:100C3000C0800000070D10342C101317264A5B40AB
:100C40002021361B0907000080C0602020304808A2
:100C5000040484244C18B060E00000000F0A102047
:100C60002C20101717364A5B603010300F0300003D
:100C700000E020202018882C0404042C0838A02030
:100C8000E0000000001F1020686820311717376B44
:100C9000792030101F00000080C0404030584CA424
:100CA0000404060808103060C0800000030E3030D5
:100CB00060585861361717332A2D3018090F000075
:100CC00000C040603848CC04840404480810302038
:100CD000C08000000709183020605058653617138F
:100CE000232D301B0D070000008080C030DCC4C401
:100CF0000684044C08183020E0000000001F10306B
:100D000020204040504137131315110C07000000FC
:100D1000000000C0709CC4C4840404448C1830E0FB
:100D20000000000000183F20282C40404040417344
:100D3000131418070000000000000000E018C4D4DD
:100D4000848404048C1CF000000000000000203F9C
:100D50006160404C4040404178180F0000000000A6
:100D600000000000C07C0484848484047CC00000F3
:100D700000000000000000007F4040404848404024
:100D8000407F000000000000000000F01C8C040404
:100D900084C4D4C410E00000000000000000000F74
:100DA0001878414040404C4060613F200000000006
:100DB0000000E030188C44040484C4C49070C00067
:100DC0000000000000000718141373414040404029
:100DD0002C28203F1800000000E0203098084C0428
:100DE0008406C448D030C0808000000000070C1189
:100DF0001513133741504040202030101F000000D1
:100E000080C0203010084804048404C8483860407A
:100E1000C0000000070D1B302D23131736655850F6
:100E2000602030180907000080C0603010080806F4
:100E30000404A04858304040C08000000F0918301A
:100E40002D2B331717366158586030300E030007CA
:100E5000088040A058E0C0800A10F018C810E8E8E8
:100E600010B020E001031E112F2F111E03010808EE
:100E70000000784868380000001C362A22361C0022
:100E80007E4B516BC589D77C1CF4ACD6AAD66C3886
:100E900014100000F810A0380828282828288818DE
:100EA000A02060C0000000001F10362263633717C7
:100EB000173723606222101F00000000F020B018D6
:100EC0004828A82828284830303060C00000000397
:100ED0000F32103662434236171717232021100BAA
:100EE0000F0000C0E0407018C8A828A82808189073
:100EF000302060C000000007081B36202D4643420A
:100F0000261713132131100F06000000C040701087
:100F1000D0A8A828A80808D0B0A020E000000000B1
:100F20001F10162E2E204D4642671B131110180756
:100F3000000000000080E030D088A8A82828081809
:100F4000B020E000000000001C1F302E2E2C6C4151
:100F50004642731310180F0000000000000080E0EC
:100F60001088A8A8A828088818F000000000000031
:100F700000003F202E2C6C4C4D404379080F0000A0
:100F800000000000000000C07808A8A8A8A8087801
:100F9000C0000000000000000000007F404C4C4CEE
:100FA000484C4C407F000000000000000000F0189A
:100FB000880828A8A8A88810E08000000000000089
:100FC00000000F087943404D446C2C2A203F00005C
:100FD0000000000000E020B018082828A8A888D049
:100FE00030E0800000000000000F1810137342462C
:100FF000416C2C262E301F1C00000000E020A0B009
:10100000D00808A828A8A8D0107040C00000000090
:1010100007181011131B6742464D202E2E12101F69
:1010200000000000C060203090180828A828A8C838
:10103000187040E0C00000060F103121131317266E
:101040004243442C20361B0807000000C0603030AB
:101050003048282828A8284818B020F00000000FA1
:101060000B10212123171717364243623610320F17
:1010700003000000C06020A018882828282828081D
:1010800038A010F8000000001F10226262233717FA
:10109000173763612236101F00000000C060A0B047
:1010A0005848A82828280808101820C080000003E5
:1010B0000F303066424267361717332320331B093F
:1010C0000F000000C040603848C808A8281C480825
:1010D000101020E0800000070B1830206D4642679A
:1010E0003617132321311B0D07000000808040308C
:1010F000D0C8C828B40C4808989030E00000000020
:101100001F103026204044424737131311110C079B
:10111000000000000080C07090C8C8B42C28488827
:101120009810F00000000000183F20282C4040409C
:10113000464373131018070000000000000000E091
:1011400010C8C4ACA828088818F0000000000000EF
:1011500000003F6060484C4040404378180F00005A
:1011600000000000000000C07808B8B8B8B80878DF
:10117000C0000000000000000000007F4040404C24
:101180004C4040407F000000000000000000F018CC
:10119000880828A8ACC4C810E000000000000000C7
:1011A00000000F1878434040404C4860603F00000A
:1011B0000000000000F010988848282CB4C8C8909F
:1011C00070C0800000000000000718101373434433
:1011D0004048402C28203F1800000000E030909844
:1011E00008480CB428C848D0304080800000000077
:1011F000070C111113133747424440202630101FAB
:1012000000000080E020501008481C28A808C848AA
:10121000386040C0000000070D1B31212313173632
:101220006742466D2030180B07000080C020181060
:101230000808282828A84858B0A060C00000000F5F
:10124000091B332123331717366742426630300FAC
:10125000030010100000F09CF6FE9F0D0D9FFEF69F
:101260009CF0000000000003061F3BEFEF3B1F0651
:10127000030000001010E030182C343434343434BF
:10128000343494C404FC7F404E4E55555B55554E46
:101290004E406F37180F080B0002020201000904CC
:1012A00000000102020000052400100105240101D4
:1012B000010424020605240600010705810310002D
:1012C0004009040100020A00000007050202400074
:1012D0000007058302400000040309041201000214
:1012E000EF020140412336800001010203014172F7
:1012F0006475696E6F204C4C430041726475696E71
:101300006F204C656F6E6172646F0000AB28112412
:101310001FBECFEFDAE0DEBFCDBF12E0A0E0B1E04C
:10132000E0E2FFE502C005900D92A037B107D9F7C2
:101330002AE0A0E7B2E001C01D92A43AB207E1F7AB
:1013400019E0C7E8D9E004C02197FE010E94832F6D
:10135000C638D107C9F70E94DD250C948E2F0C9456
:101360000000809187020895CF92DF92EF92FF9262
:101370000F931F93CF93DF936C017A018B01C0E031
:10138000D0E0CE15DF0589F0D8016D918D01D60131
:10139000ED91FC910190F081E02DC6010995892B1A
:1013A00011F47E0102C02196ECCFC701DF91CF91ED
:1013B0001F910F91FF90EF90DF90CF9008953FB76E
:1013C000F89480917A0290917B02A0917C02B09176
:1013D0007D0226B5A89B05C02F3F19F00196A11DDF
:1013E000B11D3FBFBA2FA92F982F8827820F911DBB
:1013F000A11DB11DBC01CD0142E0660F771F881F02
:10140000991F4A95D1F7089580918602E091840250
:10141000F0918502882349F0CF01029690938502CE
:1014200080938402859194910895CF0102969093C0
:10143000850280938402808191810895CF92DF920A
:10144000EF92FF920F931F93CF93DF930E94040AB2
:10145000811520E8920761F4809171008D7F80935F
:1014600071001092910046984798109272028BC0BA
:1014700021E020937202813020E8920751F480919C
:1014800082029091830290938502809384020E944D
:10149000040A97FD05C020917102222309F43FC080
:1014A0002091700221113BC021E020937302EC01D6
:1014B000DF77209769F481E08093740246983FE9D2
:1014C000C32E3FE0D32EE12CF12CCAEFD0E014C0A4
:1014D0008E0120E030E060E472E48FE090E0A9014A
:1014E00098010E945A2B69017A0181E0C81AD1083B
:1014F000E108F10810927402E091A706F091A806A5
:101500000995811103C081E0809374028091730278
:101510008823B9F180917402811133C003C0109205
:101520007302C5CF46992DC0479A0E94040A0097BE
:1015300071F09C01DE010E94AE2BDC01CB0129E0A1
:10154000B595A795979587952A95D1F703C08FEF05
:101550009FEFDC01109290002AE020939100D0923E
:101560009900C09298008093750290937602A093A0
:101570007702B0937802809171008260809371004D
:1015800002C04798D2CFDF91CF911F910F91FF906A
:10159000EF90DF90CF900895109287023E983F9889
:1015A00008953E9A3F9A81E08093870208950895B6
:1015B000089580E090E008950E94892F4091900A5C
:1015C0005091910A20918E0A30918F0A4217530749
:1015D000B4F49091E8009570E1F39091E80092FDE9
:1015E00019C08093F1008091900A9091910A019620
:1015F0008F739927892B19F48EEF8093E8008091DF
:10160000900A9091910A01969093910A8093900A82
:1016100081E0089580E00895DF92EF92FF920F93AA
:101620001F93CF93DF93D82E8A017B01E40EF51E22
:10163000EB01CE15DF0571F0D7FE03C0FE018491EA
:1016400001C088810E94DE0A21968111F2CF8FEFBE
:101650009FEF01C0C801DF91CF911F910F91FF90C3
:10166000EF90DF900895615030F02091F100FC017F
:1016700020830196F8CF289884E68093950A0895F0
:101680008F929F92AF92BF92CF92DF92EF92FF9292
:101690006B017C010E94DF094B015C01C114D10484
:1016A000E104F104F1F00E94DF09DC01CB018819AB
:1016B0009909AA09BB09883E9340A105B10570F3B9
:1016C00021E0C21AD108E108F10888EE880E83E013
:1016D000981EA11CB11CC114D104E104F10419F736
:1016E000DDCFFF90EF90DF90CF90BF90AF909F90B5
:1016F0008F9008951F920F920FB60F9211242F937F
:101700003F938F939F93AF93BF9380917E0290916D
:101710007F02A0918002B09181023091790223E092
:10172000230F2D3720F40196A11DB11D05C026E819
:10173000230F0296A11DB11D2093790280937E0292
:1017400090937F02A0938002B093810280917A02ED
:1017500090917B02A0917C02B0917D020196A11D27
:10176000B11D80937A0290937B02A0937C02B09388
:101770007D02BF91AF919F918F913F912F910F90DB
:101780000FBE0F901F9018951F920F920FB60F92D9
:1017900011242F933F934F935F936F937F938F9376
:1017A0009F93AF93BF93EF93FF93809175029091B6
:1017B0007602A0917702B0917802892B8A2B8B2B2D
:1017C00081F18091740281110BC098B180E4892766
:1017D00088B980917302882319F088B1805888B93C
:1017E0008091750290917602A0917702B091780273
:1017F000181619061A061B06B4F48091750290910A
:101800007602A0917702B09178020197A109B109FF
:101810008093750290937602A0937702B09378023A
:1018200002C00E941E0AFF91EF91BF91AF919F915C
:101830008F917F916F915F914F913F912F910F9079
:101840000FBE0F901F9018950F9303E00E94BA1CD3
:101850000F9108958FB18095807F669B88601C9B57
:1018600084600895FC01840F911D18161906E4F593
:10187000E038F105CCF5F7FF02C0E0E0F0E0813898
:10188000910514F080E890E0382F3E1BAB0177FF04
:1018900002C0495F5F4F83E0559547958A95E1F710
:1018A0005695542F442757954795E40FF51FE75653
:1018B000FD4F6770772781E090E001C0880F6A953F
:1018C000EAF7482F222349F0213071F4315020F0FB
:1018D0008081842B8193FACF08958095315020F038
:1018E000908198239193FACF08951F93CF93DF931C
:1018F000DC0120E030E040E050E011E0C1E0D0E069
:101900002617370791F114968C911497811115C001
:1019100014961C93149712968D919C911397ED91A8
:10192000FC911197E80FF91FE4911596EC93159728
:10193000019613969C938E93129714969C911497EC
:1019400015968C911597892349F0FE01022E02C04D
:10195000EE0FFF1F0A94E2F74E2B5F2B990F1496A0
:101960009C9314972F5F3F4FCBCFCA01DF91CF914C
:101970001F91089560387105D0F440345105B8F4D2
:10198000E8EFF0E080E1849FD001A0781124A60F59
:101990004770E40FF11D8491A756BD4F222319F023
:1019A0006C91862B03C080956C9186238C9308954F
:1019B0008F929F92AF92BF92DF92EF92FF920F931E
:1019C0001F93CF93DF93EC017B01D42E0FE812E03D
:1019D000F80124813581468157816C817D818E811A
:1019E0009F810E94BD2B0E94182D4B015C01F801C4
:1019F0002081318142815381688179818A819B81F3
:101A00000E94BD2B0E94182DDC01CB010AEF2D2D69
:101A1000A701B4010E94BA1CDF91CF911F910F91D1
:101A2000FF90EF90DF90BF90AF909F908F900895C0
:101A3000FC01108211821282138214821582168296
:101A400017821086118612861386148615861686CE
:101A50001786108A118A128A138A82E0848B158A6B
:101A600087E4868B178A118E108E138E128E148E39
:101A7000158E0895CF92DF92EF92FF92CF93DF936E
:101A8000EC010E94180D83E393E3A3EBBEE38CA368
:101A90009DA3AEA3BFA38AE097EDA3EABCE388A70A
:101AA00099A7AAA7BBA785E08CA71DA61EA680E0C4
:101AB00090E0A0E6B0E48FA798ABA9ABBAAB80E00A
:101AC00090E0A0E8BFEB8BAB9CABADABBEAB0E9494
:101AD000012B28E631E040E050E00E945A2B0E94A2
:101AE000502D6C877D878E879F870E94012B20E970
:101AF000C22EDD24D394E12CF12CA70196010E9483
:101B00005A2B0E94502D688379838A839B830E947D
:101B1000012BA70196010E945A2B0E94502D6C8325
:101B20007D838E839F8384E1888790E1998796E007
:101B3000E4E2F2E0DE01589601900D929A95E1F709
:101B400098E19A878CA781E08D8B80E58E8BDF9161
:101B5000CF91FF90EF90DF90CF900895CF92DF92DA
:101B6000EF92FF92CF93DF93EC01188219821A82D1
:101B70001B821C821D821E821F820E94012B20E973
:101B8000C22EDD24D394E12CF12CA70196010E94F2
:101B90005A2B0E94502D688379838A839B830E94ED
:101BA000012BA70196010E945A2B0E94502D6C8395
:101BB0007D838E839F83DF91CF91FF90EF90DF90A5
:101BC000CF900895CF92DF92EF92FF92CF93DF9361
:101BD000EC016C857D858E859F850E94182DCB013B
:101BE00068E671E00E946F2F97FF02C088599E4FF0
:101BF000BC01990F880B990B0E94502D6C877D8733
:101C00008E879F8720E030E044EB53E40E94A62CAF
:101C10006B017C018A85682F70E080E090E00E9473
:101C2000502D9B01AC01C701B6010E94732E0E948A
:101C30001F2D6B87DF91CF91FF90EF90DF90CF90BA
:101C400008952F923F924F925F926F927F928F9260
:101C50009F92AF92BF92CF92DF92EF92FF920F933B
:101C60001F93CF93DF93CDB7DEB72B970FB6F894C2
:101C7000DEBF0FBECDBF9E838D83162F1A01DC0100
:101C8000CD90DD90ED90FC90139780908F02909016
:101C90009002A0909102B090920218966C9170E020
:101CA00080E090E00E94502D9B01AC01C701B6017D
:101CB0000E94BE2BA50194010E94662E18160CF0FE
:101CC00048C020E030E04EEF52E4C501B4010E946C
:101CD000BE2B9B01AC01C701B6010E949C2C87FF63
:101CE00038C0ED81FE8144805580668077806091A8
:101CF000930270919402809195029091960269836B
:101D00007A838B839C83618570E080E090E00E9401
:101D1000502D9B01AC01C301B2010E94BE2B298151
:101D20003A814B815C810E94662E181694F420E063
:101D300030E04CE752E469817A818B819C810E947A
:101D4000BE2B9B01AC01C301B2010E949C2C87FDFC
:101D50009EC120919302309194024091950250913E
:101D60009602AD81BE8114966D917D918D919C916D
:101D700017970E94BD2B20E030E040E052E40E9423
:101D8000BD2B2B013C01A5019401C701B6010E94A6
:101D9000BD2B20E030E040E852E40E94BD2B9B01C7
:101DA000AC01C301B2010E94A62C6B017C0120E0B2
:101DB00030E0A901C301B2010E949C2C87FF0EC034
:101DC000A701960160E070E088EF91EC0E94A62CDC
:101DD0000E94182D9B0161EE7FEF0DC0A7019601B7
:101DE00060E070E088EF91E40E94A62C0E94182D1C
:101DF0009B016EE170E0213C8FEF38076CF420E02E
:101E000030E04CE752ECC701B6010E94732E0E94ED
:101E1000182D21EC3FEF0FC02034310564F020E095
:101E200030E04CE752E4C701B6010E94732E0E94D5
:101E3000182D2EE330E0412F133008F042E0D1019D
:101E40008C918B01005E1F4FF901E05CFF4FFB8717
:101E5000EA87E42EF12C882309F468C0440F4F5F11
:101E6000B8016E197F0921E0CF010E94CC1E81E0EC
:101E700090E06C01CE18DF08222433242E183F088E
:101E8000220C331CA12CB12C88248394912C6A85BC
:101E90007B857A8369831E830D83AE14BF040CF0A7
:101EA000F6C07FEFC716D70641F081E0E81AF108C7
:101EB00092E0290E311CC20CD31CAFEFAA1ABA0A49
:101EC000B2E08B0E911CC80CD91C3E2D330F3F5F26
:101ED00021E0432F28014E185F08B20189819A81C1
:101EE0008A0D9B1D39870E94CC1E6D807E806A18EA
:101EF0007B0821E0482DB3018A859B858E0D9F1DAF
:101F00000E94CC1E21E03985432FB20189819A813C
:101F10008A199B090E94CC1E21E0482DB3018A85B5
:101F20009B858E199F090E94CC1EB7CF81E090E05F
:101F30005C01AE18BF08882799278E199F091C01DC
:101F4000220C331CA8014E0D5F1D21E06A857B85A4
:101F500083E399E00E94BA0CA8014E195F0921E0C1
:101F60006A857B8583E399E00E94BA0C6A857B854C
:101F70006E0D7F1D21E0A80183E399E00E94BA0C59
:101F80006A857B856E197F0921E0A80183E399E0CA
:101F90000E94BA0CC12CD12CE1E0F0E0FA83E98375
:101FA0006A857B857E836D8318870F83CE14DF045B
:101FB0000CF06DC07FEFA716B70641F081E0E81A7C
:101FC000F10892E0290E311CA20CB31CAFEFCA1A23
:101FD000DA0AE981FA813296FA83E983AE0EBF1EEE
:101FE0006D807E806C0C7D1C21E048018E0C9F1C56
:101FF000A401B30183E399E00E94BA0C4D805E8096
:102000004C185D0821E0A401B20183E399E00E942D
:10201000BA0C21E048018E189F08A401B30183E3A4
:1020200099E00E94BA0C21E0A401B20183E399E097
:102030000E94BA0C8F8098848C0C9D1C21E0A40116
:102040006A847B846E0C7F1CB30183E399E00E9459
:10205000BA0C21E0A4014A845B844E185F08B201E7
:1020600083E399E00E94BA0C8F8098848C189D08B5
:1020700021E0A401B30183E399E00E94BA0C21E0BE
:10208000A401B20183E399E00E94BA0C8FCF2B9692
:102090000FB6F894DEBF0FBECDBFDF91CF911F9179
:1020A0000F91FF90EF90DF90CF90BF90AF909F90F7
:1020B0008F907F906F905F904F903F902F900895FA
:1020C000DC01FB01808191812D913C911197149647
:1020D0004C911497B901640F711D86179707DCF4B2
:1020E0004481840F911D28173907ACF42281338174
:1020F00012964D915C91139715968C91BA01680FC9
:10210000711D261737073CF48581280F311D81E0AA
:10211000421753070CF080E00895CF92DF92EF92C0
:10212000FF920F931F93CF93DF93EC016A8D7B8D0A
:10213000072E000C880B990B0E94502D2C813D819D
:102140004E815F810E94BE2B0E94182D6B017C0185
:102150000C8D1D8D888D998DBC01990F880B990B65
:102160000E94502D288139814A815B810E94BE2BBB
:102170000E94182D7F8F6E8FD9A2C8A20AA31BA31D
:10218000DF91CF911F910F91FF90EF90DF90CF9053
:1021900008954F925F926F927F928F929F92AF922B
:1021A000BF92CF92DF92EF92FF920F931F93CF9344
:1021B000DF93EC01C888D988EA88FB8820E030E00A
:1021C0004AE754E46C857D858E859F850E94732E39
:1021D00020E030ED4FE557E40E94A62C2B013C0196
:1021E0000E94A12C9B01AC01C701B6010E94732E75
:1021F000288139814A815B810E94BE2B4B015C01A1
:10220000688379838A839B83C301B2010E94E02E95
:102210009B01AC01C701B6010E94732E9B01AC016A
:102220006C817D818E819F810E94BD2B6B017C0121
:102230006C837D838E839F838D89882309F463C09B
:1022400020E030E0A901C501B4010E949C2C87FF69
:1022500005C0188219821A821B8224C0088510E0EA
:10226000B801012E000C880B990B0E94502D9B0188
:10227000AC01C501B4010E94BE2B20E030E048EC67
:1022800053E40E94662E18166CF480E991E0801BDE
:10229000910BBC0180E090E00E944E2D6883798311
:1022A0008A839B8320E030E0A901C701B6010E9428
:1022B0009C2C87FF05C01C821D821E821F8223C0AA
:1022C000098510E0B801012E000C880B990B0E94C3
:1022D000502D9B01AC01C701B6010E94BE2B20E02E
:1022E00030E048EC53E40E94662E181664F460E96E
:1022F00071E0601B710B80E090E00E944E2D6C83BA
:102300007D838E839F83DF91CF911F910F91FF90EB
:10231000EF90DF90CF90BF90AF909F908F907F9085
:102320006F905F904F9008952F923F924F925F92DF
:102330006F927F928F929F92AF92BF92CF92DF92D5
:10234000EF92FF920F931F93CF93DF93CDB7DEB73A
:10235000CF55D1090FB6F894DEBF0FBECDBF00E058
:1023600010E0B801012E000C880B990B0E94502D33
:1023700020919302309194024091950250919602DF
:102380000E94BD2B0E94182D6034710530F421E0AD
:1023900040E880E090E00E94320C085D1F4F083B4F
:1023A00021E01207F1F600E010E0B801012E000C68
:1023B000880B990B0E94502D20918F023091900232
:1023C00040919102509192020E94BD2B0E94182DC3
:1023D000DC01CB0121E040E460E070E00E94CC1E13
:1023E000085D1F4F083B31E01307F9F680911E0787
:1023F000AE014F5F5F4F1A01811111C08DEC96E065
:102400000E948D1040E064E772E18DEC96E00E943E
:10241000D80C1982A10162E08DEC96E010C089EA27
:1024200096E00E948D1040E062E572E189EA96E054
:102430000E94D80C1982A10162E089EA96E00E940C
:10244000210E80911D07882309F4E5C0C090010783
:10245000D0900207E0900307F090040720E030E0FE
:10246000A901C701B6010E94662E181624F0C70103
:10247000B601905802C0C701B601209115073091EE
:10248000160740911707509118070E94662E1816DC
:102490000CF056C06091050770E080E090E00E946B
:1024A000502D9B01AC01C701B6010E94A62C20E073
:1024B00030E040E85FE30E94BD2B6B017C010E948D
:1024C0002A0C85FF19C020912007309121074091E7
:1024D000220750912307C701B6010E94BE2B9B0122
:1024E000AC016091FD067091FE068091FF0690910F
:1024F00000070E94BE2B1CC00E942A0C86FF20C031
:102500002091200730912107409122075091230705
:10251000C701B6010E94BE2B9B01AC016091FD0674
:102520007091FE068091FF06909100070E94BD2BDE
:102530006093FD067093FE068093FF06909300075C
:102540000E942A0C82FF33C02091190730911A078C
:1025500040911B0750911C07609101077091020781
:1025600080910307909104070E94BE2B6B017C01B0
:102570006093010770930207809303079093040709
:1025800010910507612F70E080E090E00E94502DCF
:102590009B01AC01C701B6010E94662E1816DCF53E
:1025A000612F70E080E090E00E944E2D2CC00E94D0
:1025B0002A0C83FF30C0C0900107D0900207E09042
:1025C0000307F090040720912407309125074091DC
:1025D000260750912707C701B6010E94662E1816DC
:1025E000D4F46091190770911A0780911B0790919C
:1025F0001C079B01AC010E94BE2B9B01AC01C701D3
:10260000B6010E94BD2B609301077093020780936F
:1026100003079093040781EF96E00E94C91081EFB1
:1026200096E00E948D1081EF96E00E94E20D2091CD
:102630001F07222309F4C4C18091360990913709FC
:102640006CE370E00E945B2F892B09F0B9C1215027
:1026500020931F0780911D07882309F44EC08091A5
:10266000FA0669EFF62EF80E1091F906185020912F
:10267000930230919402409195025091960260919C
:10268000F5067091F6068091F7069091F8060E9483
:10269000BD2B20E030E040E850E40E94BE2B0E94B9
:1026A000182D4B015C0120918F02309190024091D6
:1026B0009102509192026091F1067091F206809120
:1026C000F3069091F4060E94BD2B20E030E040E834
:1026D00050E40E94BE2B0E94182DDC01CB0100E0CB
:1026E0002F2D412FB4010E94F81E4091FC0660E995
:1026F0007EE081EF96E00E94D80C6091FA06669524
:1027000070E080E090E00E94502D2091F50630911D
:10271000F6064091F7065091F8060E94BE2B6B0119
:102720007C018091F9068695682F70E080E090E04A
:102730000E94502D2091F1063091F2064091F3064F
:102740005091F4060E94BE2B4B015C0140908F0219
:1027500050909002609091027090920220E030E0E0
:1027600048E552E4C301B2010E94BE2BA5019401C9
:102770000E94662E18163CF420E030E048E552E452
:10278000C501B40120C020E030E04EEF52E4C301A7
:10279000B2010E94BE2B20E030E048E552E40E94E6
:1027A000BD2BA50194010E949C2C87FF16C020E040
:1027B00030E048E552E4C501B4010E94BE2B20E0A0
:1027C00030E04EEF52E40E94BD2B60938F02709375
:1027D0009002809391029093920280908F02909049
:1027E0009002A0909102B090920220E030E0A90106
:1027F000C501B4010E949C2C87FF09C010928F0272
:102800001092900210929102109292021CC020E04D
:1028100030E04EEF52E4C501B4010E94BE2B20E02F
:1028200030E048EC53E40E94662E181664F480E011
:1028300090E8A8E8B3E480938F0290939002A0936D
:102840009102B09392028090930290909402A09093
:102850009502B090960220E030E048ED51E4C501C9
:10286000B4010E94BE2BA70196010E94662E181685
:102870003CF420E030E048ED51E4C701B60120C04F
:1028800020E030E04CE752E4C501B4010E94BE2BC9
:1028900020E030E048ED51E40E94BD2BA7019601F5
:1028A0000E949C2C87FF16C020E030E048ED51E4E8
:1028B000C701B6010E94BE2B20E030E04CE752E495
:1028C0000E94BD2B609393027093940280939502B3
:1028D00090939602C0909302D0909402E09095025B
:1028E000F090960220E030E0A901C701B6010E94F5
:1028F0009C2C87FF09C010929302109294021092B0
:102900009502109296021CC020E030E04CE752E4A1
:10291000C701B6010E94BE2B20E030E048EC53E432
:102920000E94662E181664F480E090E8A8EAB3E4EA
:102930008093930290939402A0939502B093960291
:1029400080911E07811140C06BEE76E08FE097E02A
:102950000E9460108823C1F18DEC96E00E945E20F9
:10296000882391F10E9437216B017C01C1010E94F3
:10297000180DB601DD0C880B990B0E94502D698350
:102980007A838B839C83B701FF0C880B990B0E9481
:10299000502D6D837E838F83988780E189878A8716
:1029A00086E0EAE2F2E0DE01599601900D928A9506
:1029B000E1F784E48F8B84E2F101A9EAB6E086C7EF
:1029C00082E08093050746CE80911E07882371F030
:1029D00067EC76E08FE097E00E946010882331F08A
:1029E00089EA96E00E945E20811143C780913609F2
:1029F000909137096CE370E00E945B2F892B69F49A
:102A000080911D07882349F0809197029091980248
:102A10000196909398028093970210E008E140910C
:102A20000B01141708F05FC0812F90E0089FB001E0
:102A3000099F700D1124FB01E55FFE4F27892223BA
:102A400081F1DB01A45FBE4F7D010196089FD0019B
:102A5000099FB00D1124A55FBE4F6C9170E080916D
:102A60003609909137090E945B2F892B79F4215008
:102A7000278B2485422F50E0838590E001974817EB
:102A800059071CF42F5F248701C01486C7010E94D8
:102A9000C910F70143856EE67EE0C7010E94D80C9D
:102AA00020C0812F282F30E0029FD001039FB00D5E
:102AB0001124A45FBE4F2F5F3F4F029FF001039F81
:102AC000F00D1124E45FFE4F902F01900D929A9526
:102AD000E1F78F5F8413E6CF815080930B011111D2
:102AE00011501F5F9CCF8091E2088A30B9F0C1017C
:102AF0000E94AE0DA091E208AA3080F481E08A0F16
:102B00008093E208F8E0AF9FD0011124AD51B74F98
:102B100088E0F10101900D928A95E1F710E0809133
:102B2000E208181768F428E0129FC001112440E061
:102B300068E57EE08D51974F0E94D80C1F5FEFCF64
:102B400010E005E280912808181708F03EC0E12E39
:102B5000F12C0E9D60010F9DD00C1124B601695B14
:102B6000774F8FE097E00E946010882309F4B3C686
:102B7000C601875D974F0E945E20882309F4ABC68B
:102B8000912F809128089817C8F4292F30E0029FD0
:102B9000D001039FB00D1124A75DB74F2F5F3F4FAA
:102BA000029FF001039FF00D1124E75DF74F802F86
:102BB00001900D928A95E1F79F5FE3CF815080935A
:102BC0002808111111501F5FBDCF80912807853053
:102BD00009F490C00E9437216B017C01C1010E9461
:102BE000180D83E393E3A3EBBEE38DA39EA3AFA3F2
:102BF000B8A78AE097EDA3EABCE389A79AA7ABA799
:102C0000BCA785E08DA71EA61FA68DEC9CECACE4AE
:102C1000BDE388AB99ABAAABBBABB601DD0C880BAF
:102C2000990B0E94502D69837A838B839C83B70113
:102C3000FF0C880B990B0E94502D6D837E838F8330
:102C4000988784E1898780E18A8786E0E0E3F2E083
:102C5000DE01599601900D928A95E1F70E94012BB1
:102C600025E030E040E050E00E945A2B9B01AC018F
:102C70002B5F3F4F4F4F5F4F61E070E080E090E08F
:102C80000E945A2BCA01B9010E94502D2AE037ED4B
:102C900043E25CE30E94BE2B69A77AA78BA79CA79F
:102CA000C8A8D9A8EAA8FBA80E94012B20E030E020
:102CB000A901C701B6010E94BE2B68AB79AB8AABF4
:102CC0009BAB88E18B8785E48F8B83E0888FA09115
:102CD0002807A53078F481E08A0F8093280783E3E2
:102CE0008A9FD0011124A75DB84FF10101900D9288
:102CF0008A95E1F7C12C53E3D52E80912807C81699
:102D000008F0EEC480911D07882389F0DC9C8001C7
:102D10001124B801695B784F8FE097E00E94601042
:102D2000882329F0C801875D984F0E945E2030916A
:102D3000280729963FAF299747E4E42E47E0F42E71
:102D40000CE417E018AE4C2D50E02E965FAF4EAF5E
:102D50002E97D49E9001D59E300D1124C901895B18
:102D6000984F64969FAF8EAF6497C901885D984F66
:102D7000DC015F966696BFAFAEAF6697FC017996B1
:102D80006096FFAFEEAF6097AC014F5F5F4F5DAFF6
:102D90004CAF12966896BFAFAEAF68973296629608
:102DA000FFAFEEAF62974C5F5F4F22965FAF4EAFC3
:102DB000229713976A96BFAFAEAF6A9732966C961A
:102DC000FFAFEEAF6C97A901475D584F2B965FAFF1
:102DD0004EAF2B9738AD29964FAD2997341709F48C
:102DE000DCC158AD5C1509F4CFC1B70164968EAD56
:102DF0009FAD64970E9460102C968FAF2C9788230C
:102E000009F4C2C1F701389780818534A9F42B9663
:102E1000AEADBFAD2B979C968C919C9731969081CF
:102E2000981720F4891B9C968C93D6C02B96EEADF8
:102E3000FFAD2B9714A606C02596FFAD2597FF235F
:102E400009F4CAC000910B010B3009F48EC02E9614
:102E50002EAD3FAD2E97D29EF001D39EF00D1124E2
:102E6000E85DF84F81889288A388B48845805680B1
:102E700067807084F28481819281A381B48188AF5C
:102E800099AFAAAFBBAF6185258536854785508947
:102E90002CAF3DAF4EAF5FAF0B3008F066C081E0A6
:102EA000800F80930B0138E1309F80011124045F73
:102EB0001E4F669570E080E090E00E94502D9B01CF
:102EC000AC0168AD79AD8AAD9BAD0E94BE2B20E010
:102ED00030E040E850E40E94BD2BD8016D937D9313
:102EE0008D939C9313976F2D669570E080E090E032
:102EF0000E94502D9B01AC01C301B2010E94BE2B68
:102F000020E030E040E850E40E94BD2BF8016483EB
:102F10007583868397831086118624E02287138623
:102F20008CAD9DADAEADBFAD84879587A687B787C5
:102F300020E030E040E05FE3C501B4010E94732E61
:102F4000D80150966D937D938D939C935397E2E0B7
:102F50005496EC93549755961C925597F4E05696D8
:102F6000FC93569788E057968C9380911D07882391
:102F700049F080919702909198020396909398025D
:102F8000809397028C2D29962FAD29978217C8F42C
:102F9000282F30E0D29ED001D39EB00D1124A75D22
:102FA000B84F2F5F3F4FD29EF001D39EF00D1124FA
:102FB000E75DF84F9D2D01900D929A95E1F78F5F97
:102FC000E2CF822F8150809328072C963FAD2C971B
:102FD00025963FAF2597E1C0D7016D917C9166960C
:102FE000EEADFFAD6697808191818617970794F4C7
:102FF0006C96AEADBFAD6C978C91681B71096096F5
:10300000EEADFFAD609780819181681B790B6F5F9A
:103010007F4F0DC0F80131978081680F711D609658
:10302000EEADFFAD609780819181681B790B072E13
:10303000000C880B990B0E94502DACADBDAD2D91AD
:103040003D914D915C910E94BD2B2B013C01F701FC
:10305000628173816896AEADBFAD68978D919C918A
:103060008617970704F56A96EEADFFAD6A978081E3
:10307000681B71096296AEADBFAD62978D919C9150
:10308000681B790B6F5F7F4F072E000C880B990B25
:103090000E94502D2296EEADFFAD22972081318106
:1030A000428153811AC0D8018C91680F711D6296BC
:1030B000EEADFFAD629780819181681B790B072E81
:1030C000000C880B990B0E94502D2296AEADBFAD1F
:1030D00022972D913D914D915C910E94BD2B4B010A
:1030E0005C0120E030E0A901C301B2010E94662E1C
:1030F000181654F0A3019201505828962CAF3DAFFA
:103100004EAF5FAF289706C028964CAE5DAE6EAE50
:103110007FAE289720E030E0A901C501B4010E94EC
:10312000662EA501940118160CF0505828966CAD27
:103130007DAD8EAD9FAD28970E949C2C87FF0DC062
:10314000A3019201ACADBDAD6D917D918D919C912E
:103150000E94BE2BECADFDAD10C0A50194012296DE
:10316000AEADBFAD22976D917D918D919C910E94E6
:10317000BE2B2296EEADFFAD2297608371838283D2
:10318000938325961FAE2597F8ADFF5FF8AF23E335
:10319000E20EF11C0D5C1F4F1DCEEC2CF12CDE9CC1
:1031A0008001DF9C100D1124C801875D984F99AFF5
:1031B00088AF0E94C91088AD99AD0E948D1088AD6E
:1031C00099AD0E94E20D085D184FD80199962D9196
:1031D0003D914D915C919C9751966D917D918D9112
:1031E0009C9154970E94BE2B4B015C01F801618BAE
:1031F000728B838B948B7588672D70E080E090E0F4
:103200000E94502D9B01AC01C501B4010E94662EA5
:1032100018166CF4672D70E080E090E00E944E2D4F
:10322000D80151966D937D938D939C935497DE9C1A
:10323000C001DF9C900D1124FC01E85DF84F5F0197
:10324000828539EF932E980E1185185020919302A4
:103250003091940240919502509196026581768159
:10326000878190850E94BD2B20E030E040E850E44B
:103270000E94BE2B0E94182D2B013C0120918F0231
:10328000309190024091910250919202D501119695
:103290006D917D918D919C9114970E94BD2B20E0A2
:1032A00030E040E850E40E94BE2B0E94182DDC0163
:1032B000CB0100E0292D412FB2010E94F81EE8AD9C
:1032C000F9AD43856DE87AE0CF010E94D80C80917A
:1032D0003609909137096AE070E00E945B2F892BD4
:1032E00041F4D5019F969C919F9781E089279F96F5
:1032F0008C93DE9C8001DF9C100D1124085D184F1B
:10330000F80187A5882309F459C0209193023091D0
:103310009402409195025091960265817681878151
:1033200090850E94BD2B4B015C01D8011A966C91CF
:10333000669570E080E090E00E94502D9B01AC010A
:10334000C501B4010E94BE2B20E030E040EC50E407
:103350000E94BD2B0E94182D4B015C0120918F0211
:10336000309190024091910250919202F801618156
:103370007281838194810E94BD2B2B013C01D80175
:1033800019966C91669570E080E090E00E94502D57
:103390009B01AC01C301B2010E94BE2B20E030E0D2
:1033A00040E850E40E94BD2B0E94182DDC01CB01A7
:1033B00001E023E047E0B4010E94F81E2091F506E9
:1033C0003091F6064091F7065091F8062CAF3DAFCC
:1033D0004EAF5FAF4090F1065090F2066090F3065A
:1033E0007090F406DE9C8001DF9C100D1124085DB6
:1033F000184FD80195962D913D914D915C919897DC
:1034000051966D917D918D919C9154970E94662E5D
:1034100018160CF00FC180913609909137096AE0B7
:1034200070E00E945B2F892B91F40E94012B2AE00F
:1034300030E040E050E00E945A2B63307105810576
:1034400091052CF4F80196A581E0892786A7DE9CDA
:103450008001DF9C100D1124085D184FD8019E9645
:103460008C919E97882361F151968D909D90AD909F
:10347000BC90549755966C91669570E080E090E012
:103480000E94502D9B01AC01C501B4010E94662E23
:103490001816B4F4F80161A572A583A594A59B0143
:1034A000AC010E94BE2B9B01AC01C501B4010E947E
:1034B000BD2BD80151966D937D938D939C9354971A
:1034C000DE9C8001DF9C100D1124085D184FF8016F
:1034D00061817281838194810E94182D24966CAF42
:1034E0007DAF8EAF9FAF2497C301B2010E941F2D05
:1034F00022962EAD3FAD2297261B370BB901072E22
:10350000000C880B990B0E94502D9B01AC016CADF7
:103510007DAD8EAD9FAD6D962FAF6D976E963FAF23
:103520006E976F964FAF6F97A0965FAFA0970E9470
:103530001F2D4B015C01D80115966D917D918D91E8
:103540009C9118970E94182DF401E61BF70BBF0100
:10355000072E000C880B990B0E94502D6D962FADF5
:103560006D976E963FAD6E976F964FAD6F97A09625
:103570005FADA0970E943D2CD8011D968D909D9027
:10358000AD90BC90509720E030ED4FE557E40E949D
:10359000732E20E030E04AE754E40E94A62C20E09D
:1035A00030E044E353E40E94BE2B0E94182D2B010F
:1035B0003C01C501B4010E94182DC201861B970B66
:1035C00068E671E00E946F2F845E9D4F68E671E0AF
:1035D0000E946F2FBC01645B7109072E000C880BE1
:1035E000990B0E94502D2B013C0120E030E048E473
:1035F00052E4F80161897289838994890E94A62C1A
:10360000D801D0962D913D914D915C91D3970E9418
:10361000BE2B9B01AC01C301B2010E94732E9B0122
:10362000AC01C501B4010E94BE2BF8016587768705
:103630008787908BDE9C8001DF9C100D1124085D34
:10364000184F2091F1063091F2064091F306509107
:10365000F406D80111966D917D918D919C911497EE
:103660000E94BD2B4B015C012091F5063091F606BE
:103670004091F7065091F806F801658176818781BF
:1036800090850E94BD2B2B013C01A5019401C50131
:10369000B4010E94732E4B015C01A3019201C3018E
:1036A000B2010E94732E9B01AC01C501B4010E94BE
:1036B000BE2B0E94EE2E9B01AC0160E070E088E41E
:1036C00093E40E94A62C0E941F2D81E08983AE0105
:1036D0004F5F5F4F88AD99AD0E94210EC3940DCB13
:1036E0004AE069E872E080919702909198020E9406
:1036F0000F2B00E012E099E8C92E92E0D92E26E0C7
:10370000E22EF12CF60101900020E9F7C7018E1B93
:103710009F0B202F30E086579D4F2817390760F404
:1037200020E043E15AE062E070E0812F90E00E94E7
:10373000240C1B5F0F5FE6CF00E089E8E82E82E0F3
:10374000F82EF70101900020E9F73197E958F2408F
:10375000802F90E08E179F0780F4FC01E757FD4F04
:103760002081205343E15AE062E070E0812F90E035
:103770000E94240C1B5F0F5FE4CF80911D07811115
:103780005CC080910901893124F48F5F8093090125
:1037900047C080910A018A3F20F48F5F80930A011D
:1037A0003FC010920A0182ED8093090110929802A5
:1037B000109297021092040181E08093050110920B
:1037C0000601109207011092280714E2D101E12F9F
:1037D0001D92EA95E9F7C1010E94180DF101ADECC7
:1037E000B6E0812F01900D928A95E1F7D101E12F8A
:1037F0001D92EA95E9F7C1010E94180DF101A9EAAD
:10380000B6E001900D921A95E1F7C1010E943A0DC0
:1038100087E3F101A1EFB6E001900D928A95E1F7FF
:1038200060910901062E000C770B8091080120E0C1
:103830004DE059E090E00E94240C0E941A1FC15AEA
:10384000DF4F0FB6F894DEBF0FBECDBFDF91CF9133
:103850001F910F91FF90EF90DF90CF90BF90AF90AE
:103860009F908F907F906F905F904F903F902F90A0
:1038700008950E9437216B017C01C1010E94180D3F
:10388000B601DD0C880B990B0E94502D69837A8359
:103890008B839C83B701FF0C880B990B0E94502DE2
:1038A0006D837E838F83988780E189878A8786E00E
:1038B000E6E3F2E0DE01599601900D928A95E1F778
:1038C00083E48F8B84E2F101ADECB6E001900D92C0
:1038D0008A95E1F78BC80E9DC0010F9D900D1124B4
:1038E0009C01275D374F7901C9010E948D1040E08E
:1038F0006FE47EE0C7010E94D80C65C94F925F92C9
:103900006F927F928F929F92AF92BF92CF92DF92EF
:10391000EF92FF920E94012B6B017C010E94012B10
:103920002B013C0180E7882E99249394A12CB12C83
:10393000C701B601A50194010E945A2BCB01409604
:103940006C01C301B201A50194010E945A2B7B01B5
:1039500020E1E20EF11CC701B601FF90EF90DF906D
:10396000CF90BF90AF909F908F907F906F905F901F
:103970004F9008956F927F928F929F92AF92BF92D5
:10398000CF92DF92EF92FF920F931F93CF93DF932B
:1039900000D000D0CDB7DEB7DC014115510509F4E8
:1039A000E8C1FA011491319694916A01F2E0CF0EC8
:1039B000D11CE12EF12C222309F1492F4695469581
:1039C0004695E42FF0E041E050E0892F877011F434
:1039D00040E050E04E0F5F1FE49EF001E59EF00DC9
:1039E000F49EF00D1124033011F4EE0FFF1F2E9FF3
:1039F000A0012F9F500D1124C40ED51E0F3F09F4B6
:103A000002E0AD014E0D5F1D141615060CF0B1C19C
:103A1000A038B1050CF0ADC19B01290F311D121664
:103A200013060CF0A6C1603471050CF0A2C1C114DC
:103A3000D10409F49EC1362F3770FB0177FD37960C
:103A400023E0F595E7952A95E1F72E2F77FF04C03F
:103A5000332311F02FEF2E0FB7FF05C0662777270E
:103A60006A1B7B0B02C060E070E04038510524F017
:103A700050E85A1B952E01C0912E961AA22E022EA6
:103A8000000CBB082F3F1CF48A2D809501C080E0FC
:103A900041E0592F577009F440E096959695969518
:103AA000940FA90EB11C49E0A416B10414F098E0DB
:103AB000921B981B280F40E82403A00DB11D112470
:103AC000A60FB71F819F600D711D11243601660E70
:103AD000771E41E050E06A01032E02C0CC0CDD1CD1
:103AE0000A94E2F7033009F400C1A0F4013009F4AC
:103AF000B1C0023009F03DC18FEF8C9DB0018D9DAA
:103B0000700D1124609570957C836B838C80492F98
:103B1000420F29C00A3F31F00B3F09F02AC1492F5B
:103B2000420F84C0492F420F4FC0F301E00FF11F35
:103B3000E491EC9D5001ED9DB00C1124BA82A98254
:103B400027FD05C0FC0150815623A52AA082311112
:103B500013C00F5F1F4F0196091538F32F5F6E0CCE
:103B60007F1CA058BF4F241709F403C1CD0187560D
:103B70009D4F00E010E0F0CF27305CF7FC01E058EB
:103B8000FF4F50815821BA805B295083E2CFF30167
:103B9000E60FF71FE491EC9D8001ED9D100D1124BF
:103BA0001A83098327FD04C0FC015081052B008383
:103BB000311113C06F5F7F4F0196691540F32F5F7E
:103BC0006E0C7F1CA058BF4F241709F4D2C0CD0142
:103BD00087569D4F60E070E0F0CF27305CF7FC0126
:103BE000E058FF4F10815A81512B5083E3CFF301EE
:103BF000E00FF11FE491EC9DC001ED9D900D1124AB
:103C00009A83898327FD05C08095FB0190818923D4
:103C10008083311114C00F5F1F4F6F5F7F4F0915F5
:103C200030F32F5F6E0C7F1CA058BF4F241709F490
:103C3000A0C0BD0167567D4F00E010E0F0CF2730F7
:103C400054F7FB01E058FF4F8A81809590818923CA
:103C50008083E1CF892E820EA301CB0186199709BB
:103C6000281509F486C0BD0167567D4F5B0100E051
:103C700010E00915A0F5F801E80FF91FE40FF51F92
:103C8000E491EC9DB001ED9D700D1124609570954F
:103C90007C836B83FA01E00FF11FE491EC9D30010E
:103CA000ED9D700C11247A82698227FD05C0F50113
:103CB00070816723662A6082332359F027304CF4E1
:103CC000F501E058FF4F70816C8167237A81672B83
:103CD00060830F5F1F4FFFEFAF1ABF0ACACF2F5F7E
:103CE0004E0D5F1DA058BF4FBBCFA92CB12CF301C7
:103CF000E60FF71FA756BD4F60E870E06A197B0911
:103D0000EA18FB088701000F111F592D492F792C44
:103D1000E32ECF93DF93ED01EF96EF9622968590F9
:103D2000A590EE2059F08C9C4001AC9C50012730AE
:103D30002CF4F880B094FB20F928F99222233AF071
:103D4000FC90A094FA20F828FD920C94A81E1196DD
:103D50005A9529F74A9551F0572D23951124E00FD4
:103D6000F11DA60FB11DC60FD11DD9CFDF91CF9187
:103D700011240F900F900F900F90DF91CF911F9112
:103D80000F91FF90EF90DF90CF90BF90AF909F90FA
:103D90008F907F906F900895DF92EF92FF920F9334
:103DA0001F93CF93DF937C01D22E8B01040F111D43
:103DB000EB0177FF0EC0C0E0D0E00BC0C417D50701
:103DC0007CF42D2DAE01B70183E399E00E94BA0C7B
:103DD0002196A801013411058CF340E450E0EECFA8
:103DE000DF91CF911F910F91FF90EF90DF90089599
:103DF000CF92DF92EF92FF920F931F93CF93DF93B7
:103E00006B01122FEC017C01E40EF11CCE15DF05D5
:103E100044F4202F412FB601CE010E94CC1E2196E2
:103E2000F5CFDF91CF911F910F91FF90EF90DF9031
:103E3000CF900895E9E9F2E081E0A0E0B8E00080E9
:103E40000EBC8111012C1197A0FDFDCF0192B9F795
:103E50000DB408952F923F924F925F926F927F928E
:103E60008F929F92AF92BF92CF92DF92EF92FF928A
:103E70000F931F93CF93DF93CDB7DEB72B970FB67A
:103E8000F894DEBF0FBECDBF4C016B015A8349834E
:103E90001C821B821D821E8268E070E0CE010196AA
:103EA0000E94750C01961C0168E070E0CE0101963D
:103EB0000E94750C8C0161E070E0CE0101960E94B9
:103EC000750C482FC401820D931D97FDD3C050E897
:103ED000851691040CF0CEC098012F5F3F4FC601AC
:103EE000820F931F97FDC6C060E4C616D1040CF084
:103EF000C1C08601D7FE04C0002711270C191D0977
:103F0000077011277601D7FE03C077E0E70EF11C9A
:103F100063E0F594E7946A95E1F7D7FE09C081E084
:103F2000E81AF10888E090E0BC01601B710B8B017E
:103F3000690137FF03C077E0C70ED11C53E0D59469
:103F4000C7945A95E1F727703327232B19F08FEF89
:103F5000C81AD80A4F8331E020E0A12CB12C612C83
:103F6000712C88E090E0AC01401B510B59874887C9
:103F70006C147D040CF07EC044244394512C61E009
:103F800070E0CE0101962A873B870E94750C2A8536
:103F90003B85892B21F452E0450E511CF0CFB20134
:103FA000CE0101960E94750CAC014F5F5F4FE0E0BF
:103FB000F0E02A853B85E417F50708F052C06F81D1
:103FC0006111232B330F09F04AC0B701660D771D2D
:103FD000CB010196099798F5C501880D991D803888
:103FE000910568F52B015694542C4424579447941A
:103FF000480C591C4A0C5B1C6F3F8FEF7807B1F1DE
:10400000D201A756BD4F822F002E01C0880F0A94FF
:10401000EAF79C91892B8C930115110581F067308B
:10402000710569F0D201A75EBC4F30E0088402C080
:10403000359527950A94E2F78C91282B2C939FEFC6
:10404000A91AB90AA214B30444F06FEF661A760AEB
:1040500031E020E0A12CB12C02C031E020E031960B
:10406000AACF4F8151E045274F8382CF011511051B
:10407000C9F6E5CF2B960FB6F894DEBF0FBECDBFC5
:10408000DF91CF911F910F91FF90EF90DF90CF9034
:10409000BF90AF909F908F907F906F905F904F9068
:1040A0003F902F90089520913909282329F4909169
:1040B0003809982381E009F480E008954F925F92D7
:1040C0006F927F928F929F92AF92BF92CF92DF9228
:1040D000EF92FF921F93CF93DF93FC019689953463
:1040E00009F089C09789292F30E0309398022093F6
:1040F000970280911D07981720F4891B80931D0754
:1041000078C010921D0710920107109202071092BA
:10411000030710920407C0910B01CB3009F469C06A
:104120008090F5069090F606A090F706B090F806FD
:104130001091FA064090F1065090F2066090F30656
:104140007090F4066091F906C090FD06D090FE06CE
:10415000E090FF06F0900007CB3008F04AC081E005
:104160008C0F80930B0188E1C89FE0011124C45F8C
:10417000DE4F669570E080E090E00E94502D9B013C
:10418000AC01C301B2010E94BE2B20E030E040E848
:1041900050E40E94BD2B688379838A839B83612FBF
:1041A000669570E080E090E00E94502D9B01AC018C
:1041B000C501B4010E94BE2B20E030E040E850E48D
:1041C0000E94BD2B6C837D838E839F831886198606
:1041D00084E08A871B86CC86DD86EE86FF86188A79
:1041E000198A1A8A1B8A92E09C8B1D8A8E8B88E022
:1041F0008F8B80E02CC0933469F481E080931E079C
:1042000080911D078823B9F08091970290919802C0
:1042100005960DC0943489F410921E0780911D07F5
:10422000882349F080919702909198020F9690937D
:1042300098028093970281E00AC09335D1F680916D
:104240001F078D5F80931F0781E080930507DF9133
:10425000CF911F91FF90EF90DF90CF90BF90AF90E4
:104260009F908F907F906F905F904F9008958F9266
:104270009F92AF92BF92CF92DF92EF92FF920F93F5
:104280001F93CF93DF930E947E1CEB018C01072EBE
:10429000000C880B990B0E94502D6B017C018090C3
:1042A0008F0290909002A0909102B090920220E034
:1042B00030E0A9010E94BE2BA50194010E94662E48
:1042C00018167CF0BE01C801DF91CF911F910F91AC
:1042D000FF90EF90DF90CF90BF90AF909F908F9026
:1042E000089520E030E04EEF52E4C501B4010E9491
:1042F000BE2B9B01AC01C701B6010E949C2C87FF1D
:10430000E1CFB801012E000C880B990B0E94502DB3
:104310006B017C018090930290909402A090950292
:10432000B090960220E030E0A9010E94BE2BA501CA
:1043300094010E94662E18162CF620E030E04CE71F
:1043400052E4C501B4010E94BE2B9B01AC01C70120
:10435000B6010E949C2C87FFB5CF95CF65E070E039
:1043600080E090E00C94400BFC018091960A811152
:1043700003C08FEF9FEF08959FB7F89482E080937A
:10438000E9002091F20030E01216130614F421E047
:1043900030E02115310559F0289884E68093950A7C
:1043A0008091F10080838091F200882319F09FBFF3
:1043B000C90108958BE68093E800F9CF2FB7F894F0
:1043C00083E08093E9009091E800892F807295FF47
:1043D00004C09091F20080E4891B2FBF0895809162
:1043E0009C0A81110DC082E08093980A84E080933A
:1043F000990A10929B0A10929A0A81E080939C0A73
:1044000088E99AE00895CF93DF931F92CDB7DEB786
:104410006983DC01ED91FC910280F381E02D41E0A4
:1044200050E0BE016F5F7F4F09950F90DF91CF91F4
:10443000089583E08093E9008091F200882319F0C9
:104440008AE38093E80008950E94DE2190E00895B9
:10445000CF93DF931F92CDB7DEB7FC01848595859E
:1044600097FD05C02FEF3FEF358724870BC0CE01A6
:1044700001960E94B421019719F4898190E002C04D
:104480008FEF9FEF0F90DF91CF9108950F931F93C0
:10449000CF93DF931F92CDB7DEB78C01FC018485EB
:1044A000958597FF0EC0CE0101960E94B421019719
:1044B00019F4298130E002C02FEF3FEFF801358772
:1044C0002487F801848595850F90DF91CF911F9106
:1044D0000F910895FC018485958597FD0BC09FB7CA
:1044E000F89482E08093E9008091F2009FBF90E011
:1044F000019608959FB7F89482E08093E900809137
:10450000F2009FBF90E008958F929F92AF92BF926A
:10451000CF92DF92EF92FF920F931F93CF93DF938F
:104520005C016B017A0180911F02882309F45BC052
:104530008091960A882309F456C08091940A80FFDE
:1045400005C08091E00082608093E000E70110E008
:104550000AEF83E0882E9AE3992E2097D9F10E94E2
:10456000DE2181110AC0015009F43DC061E070E014
:1045700080E090E00E94400BF0CF282F30E0C2177F
:10458000D3070CF48C2F4FB7F8948092E9009091E8
:10459000E80095FF1DC0282F30E0C21BD30BF601A9
:1045A000982F915020F081918093F100FACFC20EA4
:1045B000D31E112319F09092E80009C08091E80001
:1045C00085FD06C09092E80011E0209709F010E008
:1045D0004FBFC3CF1111C3CF5D9884E68093970A74
:1045E0001E141F0444F081E090E0F5019383828360
:1045F00080E090E001C0C701DF91CF911F910F9142
:10460000FF90EF90DF90CF90BF90AF909F908F90F2
:1046100008950F931F93CF93DF931F92CDB7DEB70B
:1046200082E0898342E450E066E972E180E80E941A
:104630000C0B0E94EF21DC0112960D911C91139737
:104640000115110569F0D801ED91FC910280F3810B
:10465000E02DBE016F5F7F4FC801099597FF07C02E
:1046600089810F90DF91CF911F910F910895F801EB
:1046700000851185E5CF1F920F920FB60F9211247E
:104680008F939F938091E1009091E100937F9093AD
:10469000E10083FF0FC01092E90091E09093EB00DE
:1046A0001092EC0092E39093ED001092960A98E03D
:1046B0009093F00082FF20C093E09093E9009091E6
:1046C000F200992319F09AE39093E8009091970AE9
:1046D000992339F09091970A91509093970A9923D2
:1046E00089F19091950A992339F09091950A91500A
:1046F0009093950A992341F184FF10C08091E200C4
:104700008E7E81608093E2008091E1008F7E8093B5
:10471000E1008091940A8E7E806111C080FF16C0F6
:104720008091E2008E7E80618093E2008091E100C2
:104730008E7E8093E1008091940A8E7E81608093CA
:10474000940A04C05D9ACDCF289AD6CF9F918F91BD
:104750000F900FBE0F901F9018951F920F920FB6DB
:104760000F921124CF92DF92EF92FF920F931F933B
:104770002F933F934F935F936F937F938F939F9369
:10478000AF93BF93EF93FF93CF93DF93CDB7DEB794
:104790006C97DEBFCDBF1092E9008091E80083FFE7
:1047A000EDC168E0CE0145960E94330B82EF809305
:1047B000E8008D8987FF05C09091E80090FFFCCF4D
:1047C00003C09EEF9093E800982F907609F0C6C042
:1047D0009E892F89188D91110CC0803829F4809101
:1047E000930A8093F10002C01092F1001092F10040
:1047F00048C1422F50E0512B913051F4811141C1F9
:104800004130510509F03DC18091930A8D7F0BC065
:10481000933061F4811135C14130510509F031C146
:104820008091930A82608093930A2BC1953041F462
:104830008091E80080FFFCCF20682093E30021C135
:10484000963009F05FC0EB8CFC8C1092E90010925E
:10485000910A1092900A123091F510928F0A1092DC
:104860008E0A0E94092399E0BE016F5F7F4FDB0132
:10487000E92F1D92EA95E9F799831A8391E09E83C7
:1048800090EA98879AEF99872091900A3091910A3F
:10489000275F3F4F3C832B838D831092E90010925A
:1048A000910A1092900AF0928F0AE0928E0A49E0E3
:1048B00050E080E00E940C0B0E940923E2C0F092BD
:1048C0008F0AE0928E0A0E94EF21DC011296ED9091
:1048D000FC901397E114F10409F4C0C0D701ED91E5
:1048E000FC910480F581E02DBE016B5E7F4FC70116
:1048F0000995009719F00CF0C4C0C7C0F701E08417
:10490000F184E8CF973009F4C0C0983021F481E0F9
:104910008093F100B6C0993009F0B3C0837009F0FC
:10492000B4C0E9E6F2E081E021E036E3908199232A
:1049300061F08093E9002093EB0091919093EC005B
:104940003093ED008F5F873089F78EE78093EA0020
:104950001092EA008F898093960A93C08B8D9C8D6C
:104960001092E9001092910A1092900A90938F0A87
:1049700080938E0A898D811156C08E899D89913AC6
:1049800059F4813209F081C047E050E068E172E0FB
:1049900080E00E940C0B75C0913209F076C0833222
:1049A00089F4888D90E0982F88272F89822BA0E0AA
:1049B000B0E08093140290931502A0931602B09376
:1049C00017025FC0803269F48091E80082FFFCCF5B
:1049D00067E088E192E00E94330B8BEF8093E80060
:1049E00006C0823209F04DC08F8980931F028091EA
:1049F000920A882319F0EEEFFAE002C0E0E0F8E056
:104A00008091180290911902A0911A02B0911B0294
:104A1000803B9440A105B10509F07BC080911F0245
:104A200080FF93C076C00E94EF21DC0112960D91A9
:104A30001C9113970115110541F1D801ED91FC91DD
:104A40000190F081E02DBE016B5E7F4FC80109959A
:104A5000811117C0F80100851185ECCF113009F4E0
:104A60004EC0133091F48F89882309F445C08230F9
:104A700081F440E860E18AEF92E10E94762A88237F
:104A800021F08EEF8093E80079C081E28093EB0003
:104A900075C0813029F440E86BE08EEE92E1EDCFF5
:104AA000833099F70E94EF21DC011296ED90FC9083
:104AB00013978E010F5F1F4F6801E114F10479F025
:104AC000D701ED91FC910680F781E02DB801C70177
:104AD0000995080F111DF701E084F184EECFD8018C
:104AE0001C92F60101900020E9F73197BF016C1983
:104AF0007D0940E0C601C1CF68ED72E102C06CEDF6
:104B000072E16115710509F2FB01449150E080E802
:104B100040CF0FB6F894A89580916000886180938B
:104B20006000109260000FBEA895EE3F2AE0F207E9
:104B300039F08091FE0A9091FF0A91838083A1CF82
:104B40001092FF0A1092FE0A9CCFEE3F8AE0F8070F
:104B500031F0808191819093FF0A8093FE0A87E76C
:104B600097E7918380839BE088E10FB6F894A8953E
:104B7000809360000FBE9093600083CF6C960FB659
:104B8000F894DEBF0FBECDBFDF91CF91FF91EF91C3
:104B9000BF91AF919F918F917F916F915F914F9155
:104BA0003F912F911F910F91FF90EF90DF90CF9049
:104BB0000F900FBE0F901F901895CF93DF9300D0EA
:104BC0001F92CDB7DEB7789484B5826084BD84B57A
:104BD000816084BD85B5826085BD85B5816085BDF8
:104BE00080916E00816080936E00109281008091B0
:104BF0008100826080938100809181008160809338
:104C0000810080918000816080938000809191007C
:104C100082608093910080919100816080939100E7
:104C2000809190008160809390008091C1008460A9
:104C30008093C1008091C10082608093C100809107
:104C4000C10081608093C1008091C3008160809326
:104C5000C3008091C00082608093C0008091C20038
:104C600081608093C20080917A00846080937A0092
:104C700080917A00826080937A0080917A008160CE
:104C800080937A0080917A00806880937A001092F5
:104C9000960A1092930A1092940A8091D70081602C
:104CA0008093D70080EA8093D80089B5806189BD60
:104CB00089B5826089BD09B400FEFDCF61E070E076
:104CC00080E090E00E94400B8091D8008F7C806152
:104CD0008093D8008091E000807F8093E0008091F5
:104CE000E1008E7E8093E1008DE08093E200559A92
:104CF000209AEEEFFFE7859194918B3F9C4D19F43C
:104D000081E08093920A81EC80937C0085B1806F72
:104D100085B984B1877E84B984B1876E84B95E9A7F
:104D20005F988AB1806D8AB9769A6E9881B3806FE8
:104D300081BB899880B38D7080BB80E58CBD81E09C
:104D40008DBD0E94AE215F9A0E94AE215E985C9854
:104D5000E0E0F1E08DE08E0F94919EBD00000DB477
:104D600007FEFDCF31968E13F7CF5C9A81E88093D2
:104D70006400809165008160809365000E942A0C28
:104D8000803839F42E9880916400806280936400AA
:104D9000FFCF82E090E00E94442B882319F00E940C
:104DA000D10A02C00E94CC0A212C60E8362E79E993
:104DB000E72E76E0F72EE6E1CE2EE4E0DE2EF2E3FB
:104DC000AF2EB12CADE28A2EA8E09A2EB4E66B2E5F
:104DD000712C5524539459E1452E8FB7F894409186
:104DE0007E0250917F0260918002709181028FBF9C
:104DF00080913B09342F381B832F90913C099923D4
:104E000029F030933D0910923C0934C190913A0940
:104E1000391740F48F5F891708F02CC153BE88956D
:104E200013BE28C150923C0940933B09809136093A
:104E300090913709019690933709809336098091B4
:104E40003809809339090E942A0C8093380980918F
:104E50000001811110C00E942A0C86FD0CC012C1F5
:104E6000809136099091370966E970E00E945B2FC6
:104E7000892B09F018C15092000180910401811121
:104E8000F7C080910601811117C080E20E94532073
:104E9000882331F080910501882371F081500AC088
:104EA00080E40E945320882339F0809105018330EB
:104EB00018F48F5F8093050184E00E9453208823BB
:104EC00009F44FC080910501813061F580930401A0
:104ED000809164008E7F8093640080917A0080646A
:104EE00080937A0080917A0086FDFCCF0091780053
:104EF000109179000E94DF0920E030E0980111272D
:104F00000027600F711F821F931F611571058105B6
:104F1000910511F00E94062B8091640081608093BE
:104F20006400A6C08330C1F480918702882319F001
:104F30000E94CC0A02C00E94D10A6091870282E0DE
:104F400090E069830E94442B6981681781F082E0B8
:104F500090E00E944C2B0BC08093070150920601F9
:104F600006C088E00E9453208111109206018091B2
:104F70000601811167C04CEB55E060E070E080E015
:104F800090E00E942A1F80910501849D802D1124AC
:104F9000815F282F30E03B832A8301E02AE047E14C
:104FA00067E370E08A819B810E94F81E0A811B8161
:104FB0000150110920E049E166E370E0C8010E9458
:104FC000320C20E04BE066E370E0C8010E94CC1E8A
:104FD00020E04BE066E370E08A819B8147960E9467
:104FE000CC1E20E040E955E068E370E080E190E00D
:104FF0000E94240C20E044E655E068E370E089E27A
:1050000090E00E94240C20E048E355E068E370E063
:1050100082E490E00E94240C20E04AE155E068E33D
:1050200070E08BE590E00E94240C2091870240E024
:1050300055E068E370E08AE690E00E94240C0E944C
:105040001A1F18C080910701811109C04DE753E074
:1050500060E070E080E290E00E942A1FF0CF823092
:1050600071F741E852E060E070E080E090E0F4CF5A
:105070000E94941180E090E0892B09F4AECE0E944A
:105080000000A7CE6091030165300CF0E9CE6F5FA0
:1050900060930301062E000C770B8091020148E813
:1050A00051E090E0D9CF80910101811127C080911A
:1050B00071008D7F8093710010928602F0928502BC
:1050C000E0928402F0928302E0928202D0929A06E9
:1050D000C0929906B0929C06A0929B0690929E0662
:1050E00080929D067092A00660929F063092A20662
:1050F0002092A1060E941E0A5092010160910301B4
:10510000062E000C770B8091020148E851E090E0F8
:105110000E942A1F60910301062E000C770B675E28
:105120007F4F8091020190E002E020E04FE751E0E4
:1051300080960E94BA1C00E025E040E86FE270E033
:105140008EE190E00E94F81E4DE051E06EE270E0CA
:105150008EE190E081CF2F923F924F925F926F92BB
:105160007F928F929F92AF92BF92CF92DF92EF92F7
:10517000FF920F931F93CF93DF93109241091092E8
:10518000400988EE93E0A0E0B0E08093420990935C
:105190004309A0934409B093450982E592E09093B6
:1051A0003F0980933E098FEF9FEF90934B098093C7
:1051B0004A0984E692E0909334098093330910926F
:1051C00038091092390980E180933A091092370921
:1051D0001092360910923C0981EB99E09093A80651
:1051E0008093A70680E090E89093A6068093A5069A
:1051F00046983E9A47983F9A1092E208C0E0D0E065
:10520000CE018D51974F0E94AE0D2896C035D10525
:10521000B9F710922808C0E0D0E011E0CE01875D18
:10522000974F0E94180DFE01E85DF74F15A3A59654
:10523000C93BD10599F710922807C7E5D7E053E39A
:10524000452E542C53EB652E5EE3752E6AE0862EB8
:1052500067ED962E63EAA62E6CE3B62E15E07DEC84
:10526000C72E7CECD72E7CE4E72E7DE3F72ECE0113
:105270008E970E94180DFE013A97408251826282F9
:105280007382349680829182A282B3823496108394
:10529000319610821882C982DA82EB82FC82E39610
:1052A00088E0C635D80719F710928E090FE819E083
:1052B000C7EAD9E0C12CD12C93E3492E542C93EBAF
:1052C000692E9EE3792E25E0E22E34E1332E40E173
:1052D000242EC8010E94180D4C865D866E867F863E
:1052E0008AE097EDA3EABCE3888B998BAA8BBB8BF2
:1052F000F601E257F64FE5A616A617A68DEC9CEC34
:10530000ACE4BDE38F8B988FA98FBA8F0E943721B1
:105310004B015C01072E000C880B990B0E94502D4D
:10532000D8016D937D938D939C931397B501BB0C1E
:10533000880B990B0E94502DF80164837583868336
:105340009783FE0170973082319680E1F82E20829B
:10535000ECE3F2E0DE0186E001900D928A95E1F740
:105360000E94012B25E030E040E050E00E945A2BE3
:105370009B01AC012B5F3F4F4F4F5F4F61E070E0EF
:1053800080E090E00E945A2BCA01B9010E94502D82
:105390002AE037ED43E25CE30E94BE2B688B798BF9
:1053A0008A8B9B8B8F88988CA98CBA8C0E94012B3E
:1053B00020E030E0A901C501B4010E94BE2B6F8B33
:1053C000788F898F9A8FFE013E9788E180833C9683
:1053D00095E490833196E082A3E3CA0ED11C0D5C64
:1053E0001F4FE396BFEFCB16D10409F072CF81EFC8
:1053F00096E00E943A0D0E9437214B015C018DEC32
:1054000096E00E94180DB401990C880B990B0E942C
:10541000502D6093CD067093CE068093CF06909367
:10542000D006B501BB0C880B990B0E94502D6093E0
:10543000D1067093D2068093D3069093D406F0924F
:10544000D506F092D60686E0E2E4F2E0A5EEB6E0FC
:1054500001900D928A95E1F783E48093E3060E9420
:1054600037214B015C0189EA96E00E94180DB401D6
:10547000990C880B990B0E94502D6093A90670938C
:10548000AA068093AB069093AC06B501BB0C880BC3
:10549000990B0E94502D6093AD067093AE068093D9
:1054A000AF069093B006F092B106F092B20686E095
:1054B000E8E4F2E0A1ECB6E001900D928A95E1F704
:1054C00084E48093BF06DF91CF911F910F91FF90ED
:1054D000EF90DF90CF90BF90AF909F908F907F9094
:1054E0006F905F904F903F902F900895CF92DF92F2
:1054F000EF92FF920F931F93CF93DF931F92CDB73D
:10550000DEB7182F062FE42E862F880F8E5F998323
:105510000E94DE0A83E00E94DE0AF12EC12E9981EC
:10552000D92E8C2D8F19801798F4F601E7FE02C052
:10553000849101C080810E94DE0A182F80E00E94C1
:10554000DE0A8123FFEFCF1ADF0A8111EACF01C003
:1055500081E00F90DF91CF911F910F91FF90EF901D
:10556000DF90CF9008958F929F92AF92BF92CF928B
:10557000DF92EF92FF92CF93DF93EC016881798104
:105580008A819B81611571058105910521F464E291
:1055900079ED8BE597E02DE133EF41E050E00E949B
:1055A0005A2B49015A019B01AC01A7EAB1E40E94C0
:1055B000792B6B017C01ACEEB4EFA50194010E9444
:1055C000872BDC01CB018C0D9D1DAE1DBF1DB7FFD0
:1055D00003C00197A109B04888839983AA83BB833C
:1055E000BC01CD019F77DF91CF91FF90EF90DF90CD
:1055F000CF90BF90AF909F908F9008950E94B32A54
:10560000089580E292E00E94B32A089560932002F8
:105610007093210280932202909323020895BB2766
:105620004A3031F4992322F4BDE2909581959F4F41
:105630000C941B2BBB27FB015527AA27880F991F0A
:10564000AA1FA41710F0A41B83955051B9F7A05DB1
:10565000AA3308F0A95DA193009779F7B111B1932E
:105660001192CB010C94342BDC01FC01672F71915A
:105670007723E1F7329704C07C916D937083629138
:10568000AE17BF07C8F30895F999FECF92BD81BD4B
:10569000F89A992780B50895262FF999FECF1FBA59
:1056A00092BD81BD20BD0FB6F894FA9AF99A0FBE4B
:1056B00001960895052E97FB1EF400940E94712B0D
:1056C00057FD07D00E948C2B07FC03D04EF40C949E
:1056D000712B50954095309521953F4F4F4F5F4F1F
:1056E000089590958095709561957F4F8F4F9F4F4E
:1056F00008950E94AE2BA59F900DB49F900DA49F7E
:10570000800D911D11240895B7FF0C94792B0E94F0
:10571000792B821B930B0895A1E21A2EAA1BBB1BA7
:10572000FD010DC0AA1FBB1FEE1FFF1FA217B3076D
:10573000E407F50720F0A21BB30BE40BF50B661F83
:10574000771F881F991F1A9469F760957095809547
:1057500090959B01AC01BD01CF010895A29FB001BE
:10576000B39FC001A39F700D811D1124911DB29F95
:10577000700D811D1124911D08955058BB27AA2733
:105780000E94D52B0C94182E0E94DF2D38F00E9419
:10579000E62D20F039F49F3F19F426F40C94B52D32
:1057A0000EF4E095E7FB0C94AF2DE92F0E943D2EFF
:1057B00058F3BA17620773078407950720F079F446
:1057C000A6F50C945F2E0EF4E0950B2EBA2FA02DAB
:1057D0000B01B90190010C01CA01A0011124FF279E
:1057E000591B99F0593F50F4503E68F11A16F04099
:1057F000A22F232F342F4427585FF3CF4695379598
:105800002795A795F0405395C9F77EF41F16BA0B5C
:10581000620B730B840BBAF09150A1F0FF0FBB1F0A
:10582000661F771F881FC2F70EC0BA0F621F731F53
:10583000841F48F4879577956795B795F7959E3FB0
:1058400008F0B0CF9395880F08F09927EE0F979541
:10585000879508950E94DF2D60F080E891E009F4BB
:105860009EEF0E94E62D28F040E851E071F45EEFD3
:105870000CC00C94B52D0C945F2EE92FE0780E949B
:105880003D2E40F3092E052AB1F3261737074807A6
:10589000590738F00E2E07F8E02569F0E025E0649E
:1058A0000AC0EF6307F8009407FADB01B9019D0114
:1058B000DC01CA01AD01EF930E94BD2C0E94182E9D
:1058C0000E946D2C5F91552339F02BED3FE049E4A8
:1058D00050FD49EC0C94BE2B0895DF93DD27B92FC2
:1058E000BF7740E85FE31616170648075B0718F412
:1058F000D92F0E946B2E9F938F937F936F930E945B
:105900002E2FECEAF0E00E94B82D0E94182E2F9165
:105910003F914F915F910E94862EDD2351F0905868
:10592000A2EA2AED3FE049EC5FE3D0785D270E94D0
:10593000D52BDF910C94182E0E948B2D08F481E05A
:1059400008950E94EF2DE3950C94292E0E94BA2C05
:105950000C94182E0E94E62D58F00E94DF2D40F086
:1059600029F45F3F29F00C94AF2D51110C94602E57
:105970000C94B52D0E943D2E68F39923B1F3552365
:1059800091F3951B550BBB27AA2762177307840752
:1059900038F09F5F5F4F220F331F441FAA1FA9F3E8
:1059A00035D00E2E3AF0E0E832D091505040E695D6
:1059B000001CCAF72BD0FE2F29D0660F771F881F37
:1059C000BB1F261737074807AB07B0E809F0BB0B2A
:1059D000802DBF01FF2793585F4F3AF09E3F51053E
:1059E00078F00C94AF2D0C94602E5F3FE4F3983E5A
:1059F000D4F3869577956795B795F7959F5FC9F727
:105A0000880F911D9695879597F90895E1E0660FA7
:105A1000771F881FBB1F621773078407BA0720F020
:105A2000621B730B840BBA0BEE1F88F7E095089589
:105A30000E941F2D6894B1110C94602E08950E944D
:105A4000452E88F09F5798F0B92F9927B751B0F09D
:105A5000E1F0660F771F881F991F1AF0BA95C9F7F2
:105A600014C0B13091F00E945F2EB1E008950C9403
:105A70005F2E672F782F8827B85F39F0B93FCCF3B6
:105A8000869577956795B395D9F73EF4909580956F
:105A9000709561957F4F8F4F9F4F0895E89409C08F
:105AA00097FB3EF490958095709561957F4F8F4F51
:105AB0009F4F9923A9F0F92F96E9BB279395F69567
:105AC000879577956795B795F111F8CFFAF4BB0FE5
:105AD00011F460FF1BC06F5F7F4F8F4F9F4F16C049
