:100000000C9481090C94A9090C94A9090C94A909D0
:100010000C94A9090C94A9090C94A9090C94A90998
:100020000C94A9090C94A9090C94FA0E0C946C0F69
:100030000C94A9090C94A9090C94A9090C94A90978
:100040000C94A9090C94A9090C94A9090C94A90968
:100050000C94A9090C94A9090C94A9090C944A12AE
:100060000C94A9090C94A9090C94A9090C94A90948
:100070000C94A9090C94A9090C94A9090C94A90938
:100080000C9442130C94A9090C94A9090C94A90985
:100090000C94A9090C94A9090C94A9090C94A90918
:1000A0000C94A9090C94A9090C94A909084AD73BF6
:1000B0003BCE016E84BCBFFDC12F3D6C74319ABD37
:1000C00056833DDA3D00C77F11BED9E4BB4C3E915B
:1000D0006BAAAABE000000803F05A84CCDB2D44E4A
:1000E000B93836A9020C50B9918688083CA6AAAA4C
:1000F0002ABE000000803F00D5F08D14A1C881CF3A
:10010000D9F1AF2000438F4F4E75DB2C4F63AC5AB3
:10011000BBC6B8DC46E92CABEB72AB56BBE8B11DF5
:10012000E4B2E6482F63AC5A6786D753DDF6745ABB
:10013000DD5ADDA3A75B45C5BAFD82A7E04572F293
:100140003A2EEA655C73C9E375CC251F5F97BC1E28
:1001500017F532AE9E8217C9C9E37AB98EB9042F5A
:10016000EAC507438F39C553DD364BB386B86AED10
:1001700012C7C49B586A2CAB6BE2AD5AEDA27A68E9
:1001800007A95DC591CA1CE2AA7546F4104F75DB3C
:1001900093CED5ADD52D76E3ADA262DD4AA77A8A9E
:1001A0004E832E254ECDC1E1527539DC8DCBF43016
:1001B000A7CBD9B84C0FE3C8714E97CBF4B00E0E55
:1001C00097AACBE1213A0DBA9438B5D3E5DCD3E553
:1001D0006C5C065DAA2E1D070105877A106F3D092C
:1001E00041EFBF761C0EE3966BF84D5EBD7AF5EAE3
:1001F000D52B074E3B9B6B6EE370E85FAC4C7E46A5
:100200006EF122DE7ACBD5AB57AF5EBD7AEC6D5C7A
:10021000E63CE5F1CCEFE2EAD56B6EBD8DC385110E
:10022000D6B8ACCB3AE519C771997BEFBDF7C1F3EE
:10023000B8CCBDF73E0C1C15D350321475E701172E
:1002400044364606CE8413E420C1A103A313956D62
:10025000DDD603E5B2FA0338494FB97A71399AE528
:1002600072A5C3C39A378EEA61EFAA44779EDFFF77
:100270005A6B66194FF94BA51E3853066510038556
:100280000923811457E6FA63E7265E8CDBE172B935
:100290009CD66DDDD66D9D2E97CBE5B46EE3453CC7
:1002A000E6347E250A080000101028287C7C2828C7
:1002B00074743838545428280000A4A4ADAD7A7A58
:1002C00056567A7A2E2EF9F93E3ED7D7A2A21410AE
:1002D00000000000E0E020E0A0E038F808F82CFC86
:1002E00004FC04FC00F828F888F818F820E020E066
:1002F00020E0E0E000000000000000001F1F101FD1
:10030000303F203F7B7F6B7F373F171F171F313FE9
:10031000203F687F687F203F101F1F1F00000000E4
:1003200000000000E0E060E0B0F018F848F820F8C5
:1003300084FC04FC04FC08F848F830F020E020E0DD
:1003400060E0C0C080800000000003030F0F303F5A
:10035000101F303F607F5B7F4A7F363F171F171F9C
:10036000101F203F2C3F203F101F0A0F0F0F0000CF
:1003700000008080C0C040C070F018F8C8F8A4FC2D
:1003800004FC84FC2CFC08F818F890F030F020E015
:1003900060E0C0C00000000000000707090F1B1F3D
:1003A000363F213F213F407F5B7F4A7F263F171F1B
:1003B000131F101F2C3F343F101F0D0F07070000A5
:1003C000000000008080808070F010F0D0F084FC8D
:1003D00084FC04FC84FC08F808F8D8F830F020E02D
:1003E00020E0E0E000000000000000001F1F101FE0
:1003F000161F2C3F2C3F203F417F467F5A7F677F4F
:100400001B1F101F101F161F181F070700000000DA
:100410000000000000008080E0E030F0C4F484FCC4
:1004200084FC84FC04FC08F808F818F830F020E09C
:10043000E0E0000000000000000000001C1C1F1F86
:10044000303F2C3F2C3F2C3F6C7F417F427F4A7FC7
:10045000737F101F101F181F0F0F000000000000F7
:1004600000000000000000000000F0F018F884FC1C
:1004700084FC84FC84FC0CFC0CFC08F838F8E0E0FC
:10048000000000000000000000000000000000006C
:100490003F3F203F2C3F2C3F6C7F4C7F4D7F407F68
:1004A000437F787F080F0F0F00000000000000005E
:1004B00000000000000000000000C0C06CEC04FC64
:1004C00084FC84FC84FC84FC04FC7CFCC0C0000034
:1004D000000000000000000000000000000000001C
:1004E00000007F7F407F4C7F4C7F4C7F447F4C7F60
:1004F0004C7F407F7F7F0000000000000000000074
:100500000000000000000000E0E038F808F80CFCF3
:100510000CFC84FC84FC84FC84FC18F8F0F00000E3
:1005200000000000000000000000000000000000CB
:100530000F0F080F787F437F407F4C7F447F6C7F95
:100540002C3F283F203F3F3F0000000000000000FC
:10055000000000000000E0E020E030F018F808F8AB
:1005600008F804FC84FC84FC84FCCCFC38F8E0E053
:1005700080800000000000000000000000000F0F5D
:10058000181F101F101F737F4A7F407F407F6C7FB2
:100590002C3F283F2C3F303F1F1F1C1C0000000039
:1005A00000000000E0E020E020E030F0D0F000F0BB
:1005B00008F884FC04FC84FC84FCDCFC18F870F073
:1005C0008080808000000000000000000707181FE6
:1005D000161F101F101F1B1F677F5A7F447F407F0D
:1005E000203F243F2C3F161F101F1F1F000000003C
:1005F00000000000C0C060E020E030F090F018F88B
:1006000008F82CFC84FC04FCA4FCCCFC18F870F06A
:1006100040C0C0C080800000000007070D0F101F01
:10062000343F2C3F101F131F171F263F4A7F5B7F4D
:10063000407F203F213F363F1B1F090F0707000067
:1006400000008080C0C060E020E020E030F048F88A
:1006500008F804FC04FC84FC24FC4CFC18F8B0F002
:1006600060E0E0E00000000000000F0F0A0F101F24
:10067000203F2C3F203F101F171F171F363F4A7F78
:100680005B7F607F303F101F303F0F0F0303000080
:1006900000000000E0E020E020E020E018F888F80A
:1006A0002CFC04FC04FC04FC2CFC08F838F8A0E04A
:1006B00020E0E0E000000000000000001F1F101F0D
:1006C000203F687F687F203F313F171F171F373F4C
:1006D0006B7F797F203F303F101F1F1F00000000FD
:1006E00000008080C0C040C040C030F058F84CFCD2
:1006F000A4FC04FC04FC06FE08F808F810F030F036
:1007000060E0C0C080800000000003030E0F303F97
:10071000303F607F587F587F617F363F171F171F1C
:10072000333F2A3F2D3F303F181F090F0F0F0000A6
:1007300000000000C0C040C060E038F848F8CCFCC1
:1007400004FC84FC04FC04FC48F808F810F030F0C9
:1007500020E0C0C08080000000000707090F181FBC
:10076000303F203F607F507F587F657F363F171FA7
:10077000131F233F2D3F303F1B1F0D0F07070000A6
:100780000000000080808080C0C030F0DCFCC4FC31
:10079000C4FC06FE84FC04FC4CFC08F818F830F09D
:1007A00020E0E0E000000000000000001F1F101F1C
:1007B000303F203F203F407F407F507F417F373F89
:1007C000131F131F151F111F0C0F07070000000038
:1007D0000000000000000000C0C070F09CFCC4FCE1
:1007E000C4FC84FC04FC04FC44FC8CFC18F830F0D1
:1007F000E0E00000000000000000000018183F3F8B
:10080000203F283F2C3F407F407F407F407F417FFB
:10081000737F131F141F181F07070000000000003C
:1008200000000000000000000000E0E018F8C4FC38
:10083000D4FC84FC84FC04FC04FC8CFC1CFCF0F068
:100840000000000000000000000000000000202068
:100850003F3F617F607F407F4C7F407F407F407F94
:10086000417F787F181F0F0F00000000000000007C
:1008700000000000000000000000C0C07CFC04FC80
:1008800084FC84FC84FC84FC04FC7CFCC0C0000070
:100890000000000000000000000000000000000058
:1008A00000007F7F407F407F407F487F487F407FC0
:1008B000407F407F7F7F00000000000000000000BC
:1008C0000000000000000000F0F01CFC8CFC04FCA8
:1008D00004FC84FCC4FCD4FCC4FC10F0E0E0000088
:1008E0000000000000000000000000000000000008
:1008F0000F0F181F787F417F407F407F407F4C7FE4
:10090000407F607F617F3F3F2020000000000000AB
:10091000000000000000E0E030F018F88CFC44FC1F
:1009200004FC04FC84FCC4FCC4FC90F070F0C0C067
:1009300000000000000000000000000000000707A9
:10094000181F141F131F737F417F407F407F407F1C
:10095000407F2C3F283F203F3F3F181800000000F9
:1009600000000000E0E020E030F098F808F84CFCCF
:1009700004FC84FC06FEC4FC48F8D0F030F0C0C093
:1009800080808080000000000000000007070C0F3E
:10099000111F151F131F131F373F417F507F407FCB
:1009A000407F203F203F303F101F1F1F00000000EE
:1009B00000008080C0C020E030F010F008F848F857
:1009C00004FC04FC84FC04FCC8F848F838F860E037
:1009D00040C0C0C000000000000007070D0F1B1F33
:1009E000303F2D3F233F131F171F363F657F587F32
:1009F000507F607F203F303F181F090F070700001E
:100A000000008080C0C060E030F010F008F808F806
:100A100006FE04FC04FCA0F848F858F830F040C08A
:100A200040C0C0C08080000000000F0F090F181FD9
:100A3000303F2D3F2B3F333F171F171F363F617F3E
:100A4000587F587F607F303F303F0E0F0303000018
:100A50000808000000007878487868783838000086
:100A6000000000001C1C363E2A3E223E363E1C1C66
:100A700000007E7E4B7F517F6B7FC5FF89FFD7FFD4
:100A80007C7C1C1CF4FCACFCD6FEAAFED6FE6C7C66
:100A90003838141000000000F8F810F0A0E038F822
:100AA00008F828F828F828F828F828F888F818F816
:100AB000A0E020E060E0C0C00000000000000000F6
:100AC0001F1F101F363F223F637F637F373F171F73
:100AD000171F373F233F607F627F223F101F1F1F7A
:100AE0000000000000000000F0F020E0B0F018F876
:100AF00048F828F8A8F828F828F828F848F830F036
:100B000030F030F060E0C0C00000000000000303DF
:100B10000F0F323F101F363F627F437F427F363FC9
:100B2000171F171F171F233F203F213F101F0B0FB9
:100B30000F0F00000000C0C0E0E040C070F018F8E7
:100B4000C8F8A8F828F8A8F828F808F818F890F0D5
:100B500030F020E060E0C0C00000000000000707A7
:100B6000080F1B1F363F203F2D3F467F437F427FAC
:100B7000263F171F131F131F213F313F101F0F0F59
:100B80000606000000000000C0C040C070F010F079
:100B9000D0F0A8F8A8F828F8A8F808F808F8D0F0D5
:100BA000B0F0A0E020E0E0E0000000000000000065
:100BB0001F1F101F161F2E3F2E3F203F4D7F467FC9
:100BC000427F677F1B1F131F111F101F181F07076E
:100BD000000000000000000000008080E0E030F035
:100BE000D0F088F8A8F8A8F828F828F808F818F835
:100BF000B0F020E0E0E00000000000000000000095
:100C00001C1C1F1F303F2E3F2E3F2C3F6C7F417F0F
:100C1000467F427F737F131F101F181F0F0F0000A6
:100C20000000000000000000000000008080E0E004
:100C300010F088F8A8F8A8F8A8F828F808F888F8B4
:100C400018F8F0F0000000000000000000000000B4
:100C5000000000003F3F203F2E3F2C3F6C7F4C7F29
:100C60004D7F407F437F797F080F0F0F000000000A
:100C70000000000000000000000000000000C0C0F4
:100C800078F808F8A8F8A8F8A8F8A8F808F878F804
:100C9000C0C00000000000000000000000000000D4
:100CA0000000000000007F7F407F4C7F4C7F4C7F26
:100CB000487F4C7F4C7F407F7F7F0000000000001A
:100CC000000000000000000000000000F0F018F834
:100CD00088F808F828F8A8F8A8F8A8F888F810F014
:100CE000E0E0808000000000000000000000000044
:100CF000000000000F0F080F797F437F407F4D7F7A
:100D0000447F6C7F2C3F2A3F203F3F3F0000000084
:100D100000000000000000000000E0E020E0B0F073
:100D200018F808F828F828F8A8F8A8F888F8D0F0F3
:100D300030F0E0E0808000000000000000000000D3
:100D400000000F0F181F101F131F737F427F467F75
:100D5000417F6C7F2C3F263F2E3F303F1F1F1C1CC6
:100D60000000000000000000E0E020E0A0E0B0F0A3
:100D7000D0F008F808F8A8F828F8A8F8A8F8D0F0F3
:100D800010F070F040C0C0C0000000000000000083
:100D90000707181F101F111F131F1B1F677F427F9C
:100DA000467F4D7F203F2E3F2E3F121F101F1F1FDB
:100DB0000000000000000000C0C060E020E030F053
:100DC00090F018F808F828F8A8F828F8A8F8C8F853
:100DD00018F870F040C0E0E0C0C000000000060657
:100DE0000F0F101F313F213F131F131F171F263FE7
:100DF000427F437F447F2C3F203F363F1B1F080F1D
:100E00000707000000000000C0C060E030F030F0D4
:100E100030F048F828F828F828F8A8F828F848F812
:100E200018F8B0F020E0F0F00000000000000F0F14
:100E30000B0F101F213F213F233F171F171F171FA5
:100E4000363F427F437F627F363F101F323F0F0F96
:100E50000303000000000000C0C060E020E0A0E04C
:100E600018F888F828F828F828F828F828F808F852
:100E700038F8A0E010F0F8F80000000000000000D2
:100E80001F1F101F223F627F627F233F373F171FC4
:100E9000171F373F637F617F223F363F101F1F1FA1
:100EA0000000000000000000C0C060E0A0E0B0F062
:100EB00058F848F8A8F828F828F828F808F808F8A2
:100EC00010F018F820E0C0C080800000000003038C
:100ED0000F0F303F303F667F427F427F677F363F54
:100EE000171F171F333F233F203F333F1B1F090F9F
:100EF0000F0F000000000000C0C040C060E038F8E4
:100F000048F8C8F808F8A8F828F81CFC48F808F8C9
:100F100010F010F020E0E0E0808000000000070703
:100F20000B0F181F303F203F6D7F467F427F677F4A
:100F3000363F171F131F233F213F313F1B1F0D0F4C
:100F400007070000000000008080808040C030F073
:100F5000D0F0C8F8C8F828F8B4FC0CFC48F808F839
:100F600098F890F030F0E0E0000000000000000091
:100F70001F1F101F303F263F203F407F447F427F8E
:100F8000477F373F131F131F111F111F0C0F070738
:100F9000000000000000000000008080C0C070F071
:100FA00090F0C8F8C8F8B4FC2CFC28F848F888F889
:100FB00098F810F0F0F000000000000000000000C1
:100FC00018183F3F203F283F2C3F407F407F407F05
:100FD000467F437F737F131F101F181F07070000F2
:100FE0000000000000000000000000000000E0E041
:100FF00010F0C8F8C4FCACFCA8F828F808F888F889
:1010000018F8F0F0000000000000000000000000F0
:10101000000000003F3F607F607F487F4C7F407F43
:10102000407F407F437F787F181F0F0F0000000034
:101030000000000000000000000000000000C0C030
:1010400078F808F8B8F8B8F8B8F8B8F808F878F800
:10105000C0C0000000000000000000000000000010
:101060000000000000007F7F407F407F407F4C7F7A
:101070004C7F407F407F407F7F7F0000000000006A
:10108000000000000000000000000000F0F018F870
:1010900088F808F828F8A8F8ACFCC4FCC8F810F0E8
:1010A000E0E0000000000000000000000000000080
:1010B000000000000F0F181F787F437F407F407FA4
:1010C000407F4C7F487F607F607F3F3F0000000093
:1010D00000000000000000000000F0F010F098F8A0
:1010E00088F848F828F82CFCB4FCC8F8C8F890F048
:1010F00070F0C0C080800000000000000000000010
:1011000000000707181F101F131F737F437F447FC2
:10111000407F487F407F2C3F283F203F3F3F1818AB
:101120000000000000000000E0E030F090F098F8CF
:1011300008F848F80CFCB4FC28F8C8F848F8D0F0D7
:1011400030F040C08080808000000000000000007F
:1011500007070C0F111F111F131F131F373F477F66
:10116000427F447F407F203F263F303F101F1F1F9C
:101170000000000000008080E0E020E050F010F06F
:1011800008F848F81CFC28F8A8F808F8C8F848F847
:1011900038F860E040C0C0C0000000000000070751
:1011A0000D0F1B1F313F213F233F131F171F363FDA
:1011B000677F427F467F6D7F203F303F181F0B0FB8
:1011C0000707000000008080C0C020E018F810F081
:1011D00008F808F828F828F828F8A8F848F858F87F
:1011E000B0F0A0E060E0C0C00000000000000F0F01
:1011F000090F1B1F333F213F233F333F171F171F8B
:10120000363F677F427F427F667F303F303F0F0F20
:10121000030300001010E0E030F018F82CFC34FC60
:1012200034FC34FC34FC34FC34FC34FC34FC94FCDE
:10123000C4FC04FCFCFC7F7F407F4E7F4E7F557FCB
:10124000557F5B7F557F557F4E7F4E7F407F6F7F01
:10125000373F181F0F0F0A10F0F018F8C8F810F0F9
:10126000E8F8E8F810F0B0F020E0E0E00101030356
:101270001E1F111F2F3F2F3F111F1E1F03030101B0
:10128000080B000202020100090400000102020032
:1012900000052400100105240101010424020605B3
:1012A0002406000107058103100040090401000223
:1012B0000A00000007050202400000070583024003
:1012C00000000403090412010002EF02014041235F
:1012D000368000010102030141726475696E6F205E
:1012E0004C4C430041726475696E6F204C656F6EA3
:1012F0006172646F000102040810204080008B229C
:10130000792411241FBECFEFDAE0DEBFCDBF11E09C
:10131000A0E0B1E0E8E4F4E502C005900D92AA3641
:10132000B107D9F726E0AAE6B1E001C01D92AC3EB4
:10133000B207E1F719E0C0E8D9E004C02197FE0147
:101340000E94DF28CF37D107C9F70E944D170C94B0
:10135000172A0C9400009C01240F311D121613064D
:1013600084F5803891056CF5FC0197FF02C0E0E040
:10137000F0E02138310514F020E830E02E1BAB01FD
:101380004770552781E090E001C0880F4A95EAF741
:10139000809577FF02C0695F7F4F93E075956795F1
:1013A0009A95E1F77695762F662777956795E60FFC
:1013B000F71FE758FE4F215020F09081982391931A
:1013C000FACF08952FB7F89483E08093E9009091C5
:1013D000E800892F807295FF04C09091F20080E4AC
:1013E000891B2FBF0895CF93DF931F92CDB7DEB730
:1013F0006983DC01ED91FC910280F381E02D41E0F5
:1014000050E0BE016F5F7F4F09950F90DF91CF9144
:10141000089583E08093E9008091F200882319F019
:101420008AE38093E80008950E94E20990E008951D
:101430005F926F927F928F929F92AF92BF92CF9264
:10144000DF92EF92FF920F931F93CF93DF93EC0104
:101450008B017A01A901461B570B57FF03C0519519
:1014600041955109C7018C1B9D0B97FF03C09195B6
:1014700081959109552453948417950714F0512CA4
:101480000AC09E2D8F2D7901292F382F9C2F8D2F4B
:10149000E801092F182FEC16FD0654F4902F812F28
:1014A0008901292F382F9C2F8D2FE701E92EF82E47
:1014B00037016C1A7D0A5901A01AB10AB7FE03C0A0
:1014C000B194A194B108630177FE03C08FEFC81AED
:1014D000D80AD594C7940217130714F08FEF01C0F0
:1014E00081E0882E880F9908EC16FD06B4F021E003
:1014F000552019F0AE01B80102C0A801BE0186E670
:1015000096E00E94CA13CA18DB08D7FE04C0080D73
:10151000191DC60CD71C2196E7CFDF91CF911F91E3
:101520000F91FF90EF90DF90CF90BF90AF909F9082
:101530008F907F906F905F9008958F929F92AF925F
:10154000BF92CF92DF92EF92FF920F931F93CF93B0
:10155000DF935C016B017A0180912D01882309F4EE
:101560005BC080917701882309F456C08091750192
:1015700080FF05C08091E00082608093E000E70179
:1015800010E00AEF83E0882E9AE3992E2097D9F194
:101590000E94E20981110AC0015009F43DC061E0D6
:1015A00070E080E090E00E941012F0CF282F30E031
:1015B000C217D3070CF48C2F4FB7F8948092E90030
:1015C0009091E80095FF1DC0282F30E0C21BD30B7F
:1015D000F601982F915020F081918093F100FACF7D
:1015E000C20ED31E112319F09092E80009C0809119
:1015F000E80085FD06C09092E80011E0209709F010
:1016000010E04FBFC3CF1111C3CF5D9884E6809324
:1016100074011E141F0444F081E090E0F5019383EF
:10162000828380E090E001C0C701DF91CF911F91DC
:101630000F91FF90EF90DF90CF90BF90AF909F9071
:101640008F900895DF92EF92FF920F931F93CF93A5
:10165000DF937C01D22E8B01040F111DEB0177FF6C
:101660000EC0C0E0D0E00BC0C417D5077CF42D2D10
:10167000AE01B70186E696E00E94CA132196A80142
:10168000013411058CF340E450E0EECFDF91CF91AF
:101690001F910F91FF90EF90DF900895EF92FF92CE
:1016A0000F931F93CF93DF93EC018B01E42EF22E67
:1016B0006034710510F40E94AB09B8016F0D711D03
:1016C000615071096034710520F44E2DCE010E94E5
:1016D000AB0920E04F2DB801CE010E94220BCE01B4
:1016E0008E0D911D20E04F2DB8010197DF91CF9114
:1016F0001F910F91FF90EF900C94220B8091790134
:101700008EBD10927901EAE7F1E0808111920DB46B
:1017100007FEFDCF8EBD85E0E937F807B1F70DB4C0
:1017200007FEFDCF089520916C06282329F490919F
:101730006B06982381E009F480E008952F923F9290
:101740004F925F926F927F928F929F92AF92BF92D1
:10175000CF92DF92EF92FF920F931F93CF93DF937D
:10176000CDB7DEB72E970FB6F894DEBF0FBECDBF54
:101770009B878A874A012C87FA0184913196E491EC
:10178000982F9F779F5FE92EF12CFC82EB82A701B7
:10179000AA85BB854A0F5B1F57FD95C1A038B105CF
:1017A0000CF091C19E2F9F739F5FAB01490F511D9C
:1017B00057FD89C1603471050CF085C1881F8827E9
:1017C000881FBB24B394E6FFB12CEE1FEE27EE1F5B
:1017D000ED833B0177FF04C066247724661A770AFD
:1017E000B7E06B227724AB0177FF02C0495F5F4F00
:1017F0007A01E3E0F594E794EA95E1F7FA82E98269
:1018000077FF0EC06114710459F09701215031091E
:101810003A83298348E050E0BA01661977093B0111
:1018200041E050E0DA01062C02C0AA0FBB1F0A9467
:10183000E2F7BF83AE83492F46954695469597704C
:1018400009F04F5F00E010E097E060E170E030E009
:10185000412C512C212C312CE42E440FFF08F98609
:10186000E886AA24A394A885B9852A163B060CF01D
:101870002AC1DB0141E050E0FD0163E0F695E79508
:101880006A95E1F7E80DF91DE491F0E0BD0167709C
:10189000772702C0F595E7956A95E2F7BD016F5F7E
:1018A0007F4FE0FF04C04F5F5F4FDB01E5CF41306A
:1018B0005105C9F4FB0143E0F695E7954A95E1F738
:1018C000E80DF91D449150E06770772702C05595E7
:1018D00047956A95E2F7417055274F5F5F4FBD010D
:1018E0006E5F7F4F35C0DA01119741E050E00A2E5C
:1018F00002C0440F551F0A94E2F74F5F5F4FE12C7F
:10190000F12CFB0123E0F695E7952A95E1F7E80D28
:10191000F91DE491F0E06B0127E0C222DD2402C052
:10192000F595E795CA94E2F7E0FF0AC0E1E0F0E040
:101930000E2C02C0EE0FFF1F0A94E2F74E0F5F1F3E
:101940006F5F7F4FEFEFEE1AFE0AEA16FB06CCF24E
:10195000E0E0F0E0DA2CD41AE417F50708F0AFC0A5
:10196000A92FB0E07A01EE1AFF0A811107C0AE1567
:10197000BF0560F19D0D9E0FFA0138C0AE15BF0581
:1019800048F5973011F1BB20A1F027E0E22EF12CB1
:10199000EA1AFB0AFE86ED86EE24EA94F12C0D8409
:1019A00002C0F594E7940A94E2F7FE86ED86ED8492
:1019B0000AC090E8E92EFF24FA940A2E02C0F69499
:1019C000E7940A94E2F73E2901C03FEFEA0FFB1FBC
:1019D00090E00CC0B11006C027E0E22EF12CEA1A0C
:1019E000FB0AD701AE5BBE4FAC913A2B915008F089
:1019F00064C0332309F448C09981920D98300CF0EB
:101A000043C0AA85BB85A00FB11FA038B105E0F582
:101A1000AE81BF813A9F70013B9FF00C112497FD6E
:101A200016C0AA85BB85292F30E82303A00DB11D60
:101A30001124A00FB11FA758BE4F3C912C85222323
:101A400011F03E2903C0CE2CC0943C213C9361147C
:101A50007104D1F09730C1F09F3FB4F0AA85BB85E7
:101A6000392F20E83203A00DB11D1124A00FB11FA2
:101A7000A750BE4F9C913C85332311F09F2903C092
:101A80003F2D309593239C939D819111BA24AFEF04
:101A90004A1A5A0AEB80FC804E145F042CF40F5F44
:101AA0001F4F97E030E009C02FEF221A320A00E002
:101AB00010E097E030E0412C512C31964DCF4A2D6B
:101AC000481B842FD0CE2E960FB6F894DEBF0FBEE3
:101AD000CDBFDF91CF911F910F91FF90EF90DF90DD
:101AE000CF90BF90AF909F908F907F906F905F90BE
:101AF0004F903F902F9008958F929F92AF92BF92F8
:101B0000CF92DF92EF92FF920F931F93CF93DF93C9
:101B1000EC016B015A0149010E94180A9701A801C2
:101B2000B401C5010E94180A9601AE01B701C801AF
:101B3000DF91CF911F910F91FF90EF90DF90CF90A9
:101B4000BF90AF909F908F900C94180A65E070E062
:101B500080E090E00C941012CF93DF93EC01288189
:101B600039818A819B81281739079CF4AC81BD811A
:101B7000C90101969983888385E0220F331F8A95D6
:101B8000E1F7A20FB31F80E2FB0101900D928A954D
:101B9000E1F7DF91CF910895FC01809177018111E8
:101BA00003C08FEF9FEF08959FB7F89482E0809372
:101BB000E9002091F20030E01216130614F421E03F
:101BC00030E02115310559F0289884E6809376019C
:101BD0008091F10080838091F200882319F09FBFEB
:101BE000C90108958BE68093E800F9CF80917C06C7
:101BF00081110DC082E08093780684E0809379069D
:101C000010927B0610927A0681E080937C0688E72A
:101C100096E00895FC018485958597FD0BC09FB7DC
:101C2000F89482E08093E9008091F2009FBF90E0F9
:101C3000019608959FB7F89482E08093E90080911F
:101C4000F2009FBF90E008954091D8065091D906C8
:101C50002091D6063091D70642175307B4F49091DD
:101C6000E8009570E1F39091E80092FD19C080932F
:101C7000F1008091D8069091D90601968F7399272B
:101C8000892B19F48EEF8093E8008091D80690910B
:101C9000D90601969093D9068093D80681E00895DD
:101CA00080E00895DF92EF92FF920F931F93CF93FE
:101CB000DF93D82E8A017B01E40EF51EEB01CE15D1
:101CC000DF0571F0D7FE03C0FE01849101C0888159
:101CD0000E94240E21968111F2CF8FEF9FEF01C059
:101CE000C801DF91CF911F910F91FF90EF90DF908E
:101CF0000895615030F02091F100FC01208301969D
:101D0000F8CF289884E68093760108950F931F9367
:101D1000CF93DF931F92CDB7DEB78C01FC01848592
:101D2000958597FF0EC0CE0101960E94CC0D0197BC
:101D300019F4298130E002C02FEF3FEFF801358719
:101D40002487F801848595850F90DF91CF911F91AD
:101D50000F910895CF93DF931F92CDB7DEB7FC01AB
:101D60008485958597FD05C02FEF3FEF3587248744
:101D70000BC0CE0101960E94CC0D019719F4898108
:101D800090E002C08FEF9FEF0F90DF91CF91089509
:101D90000F931F93CF93DF931F92CDB7DEB782E0EF
:101DA000898342E450E060E872E180E80E94520ECC
:101DB0000E94F60DDC0112960D911C9113970115EE
:101DC000110569F0D801ED91FC910280F381E02DBD
:101DD000BE016F5F7F4FC801099597FF07C08981DA
:101DE0000F90DF91CF911F910F910895F801008519
:101DF0001185E5CF1F920F920FB60F9211248F938A
:101E00009F938091E1009091E100937F9093E10096
:101E100083FF0FC01092E90091E09093EB001092C5
:101E2000EC0092E39093ED001092770198E090938C
:101E3000F00082FF20C093E09093E9009091F200BF
:101E4000992319F09AE39093E800909174019923F3
:101E500039F090917401915090937401992389F114
:101E600090917601992339F0909176019150909359
:101E70007601992341F184FF10C08091E2008E7EAB
:101E800081608093E2008091E1008F7E8093E10089
:101E9000809175018E7E806111C080FF16C0809197
:101EA000E2008E7E80618093E2008091E1008E7E70
:101EB0008093E100809175018E7E81608093750131
:101EC00004C05D9ACDCF289AD6CF9F918F910F9065
:101ED0000FBE0F901F9018951F920F920FB60F9282
:101EE0001124CF92DF92EF92FF920F931F932F93C3
:101EF0003F934F935F936F937F938F939F93AF9392
:101F0000BF93EF93FF93CF93DF93CDB7DEB76C977B
:101F1000DEBFCDBF1092E9008091E80083FFEDC1E4
:101F200068E0CE0145960E94790E82EF8093E8002A
:101F30008D8987FF05C09091E80090FFFCCF03C01A
:101F40009EEF9093E800982F907609F0C6C09E8986
:101F50002F89188D91110CC0803829F48091D506F5
:101F60008093F10002C01092F1001092F10048C17C
:101F7000422F50E0512B913051F4811141C1413039
:101F8000510509F03DC18091D5068D7F0BC093307E
:101F900061F4811135C14130510509F031C18091A1
:101FA000D50682608093D5062BC1953041F480918F
:101FB000E80080FFFCCF20682093E30021C1963029
:101FC00009F05FC0EB8CFC8C1092E9001092D906EE
:101FD0001092D806123091F51092D7061092D606BC
:101FE0000E94C80E99E0BE016F5F7F4FDB01E92FB1
:101FF0001D92EA95E9F799831A8391E09E8390EA0E
:1020000098879AEF99872091D8063091D906275F53
:102010003F4F3C832B838D831092E9001092D906A9
:102020001092D806F092D706E092D60649E050E02A
:1020300080E00E94520E0E94C80EE2C0F092D706C5
:10204000E092D6060E94F60DDC011296ED90FC900F
:102050001397E114F10409F4C0C0D701ED91FC918C
:102060000480F581E02DBE016B5E7F4FC7010995AD
:10207000009719F00CF0C4C0C7C0F701E084F184E8
:10208000E8CF973009F4C0C0983021F481E0809304
:10209000F100B6C0993009F0B3C0837009F0B4C044
:1020A000E3E6F1E081E021E036E39081992361F0FD
:1020B0008093E9002093EB0091919093EC00309392
:1020C000ED008F5F873089F78EE78093EA001092EA
:1020D000EA008F898093770193C08B8D9C8D10923D
:1020E000E9001092D9061092D8069093D7068093F3
:1020F000D606898D811156C08E899D89913A59F4F1
:10210000813209F081C047E050E066E271E080E092
:102110000E94520E75C0913209F076C0833289F464
:10212000888D90E0982F88272F89822BA0E0B0E03F
:1021300080932E0190932F01A0933001B093310131
:102140005FC0803269F48091E80082FFFCCF67E0D5
:1021500086E291E00E94790E8BEF8093E80006C042
:10216000823209F04DC08F8980932D018091D40671
:10217000882319F0EEEFFAE002C0E0E0F8E0809189
:10218000260190912701A0912801B0912901803B5F
:102190009440A105B10509F07BC080912D0180FF1D
:1021A00093C076C00E94F60DDC0112960D911C9131
:1021B00013970115110541F1D801ED91FC910190A2
:1021C000F081E02DBE016B5E7F4FC8010995811142
:1021D00017C0F80100851185ECCF113009F44EC00D
:1021E000133091F48F89882309F445C0823081F43B
:1021F00040E860E184EE92E10E943C24882321F0D3
:102200008EEF8093E80079C081E28093EB0075C087
:10221000813029F440E86BE088ED92E1EDCF833026
:1022200099F70E94F60DDC011296ED90FC90139741
:102230008E010F5F1F4F6801E114F10479F0D7019F
:10224000ED91FC910680F781E02DB801C701099559
:10225000080F111DF701E084F184EECFD8011C9224
:10226000F60101900020E9F73197BF016C197D0953
:1022700040E0C601C1CF62EC72E102C066EC72E1DF
:102280006115710509F2FB01449150E080E840CFEF
:102290000FB6F894A89580916000886180936000E3
:1022A000109260000FBEA895EE3F2AE0F20739F0C9
:1022B0008091FE0A9091FF0A91838083A1CF1092B2
:1022C000FF0A1092FE0A9CCFEE3F8AE0F80731F039
:1022D000808191819093FF0A8093FE0A87E797E7B8
:1022E000918380839BE088E10FB6F894A895809352
:1022F00060000FBE9093600083CF6C960FB6F89489
:10230000DEBF0FBECDBFDF91CF91FF91EF91BF91A7
:10231000AF919F918F917F916F915F914F913F917D
:102320002F911F910F91FF90EF90DF90CF900F9022
:102330000FBE0F901F901895CF92DF92EF92FF92F1
:102340000F931F93CF93DF936C017A018B01C0E051
:10235000D0E0CE15DF0589F0D8016D918D01D60151
:10236000ED91FC910190F081E02DC6010995892B3A
:1023700011F47E0102C02196ECCFC701DF91CF910D
:102380001F910F91FF90EF90DF90CF900895809173
:102390007201E0917001F0917101882349F0CF0141
:1023A00002969093710180937001859194910895A4
:1023B000CF01029690937101809370018081918189
:1023C00008958091730108950895089580E090E044
:1023D00008950E94122A3FB7F8948091E4069091E4
:1023E000E506A091E606B091E70626B5A89B05C0D4
:1023F0002F3F19F00196A11DB11D3FBFBA2FA92F84
:10240000982F8827820F911DA11DB11DBC01CD0100
:1024100042E0660F771F881F991F4A95D1F70895EC
:102420008F929F92AF92BF92CF92DF92EF92FF92E4
:102430006B017C010E94EB114B015C01C114D104C2
:10244000E104F104F1F00E94EB11DC01CB018819E9
:102450009909AA09BB09883E9340A105B10570F30B
:1024600021E0C21AD108E108F10888EE880E83E065
:10247000981EA11CB11CC114D104E104F10419F788
:10248000DDCFFF90EF90DF90CF90BF90AF909F9007
:102490008F9008951F920F920FB60F9211242F93D1
:1024A0003F938F939F93AF93BF9380916A019091D5
:1024B0006B01A0916C01B0916D013091E30623E0B6
:1024C000230F2D3720F40196A11DB11D05C026E86C
:1024D000230F0296A11DB11D2093E30680936A018C
:1024E00090936B01A0936C01B0936D018091E40611
:1024F0009091E506A091E606B091E7060196A11D30
:10250000B11D8093E4069093E506A093E606B09390
:10251000E706BF91AF919F918F913F912F910F90BF
:102520000FBE0F901F901895CF92DF92EF92FF92FF
:102530000F931F93CF93DF930E94C711811520E85B
:10254000920761F4809171008D7F809371001092E9
:102550009100469847981092DC068BC021E02093AA
:10256000DC06813020E8920751F480916E01909151
:102570006F0190937101809370010E94C71197FDC4
:1025800005C02091DB06222309F43FC02091DA0622
:1025900021113BC021E02093DD06EC01DF7720977D
:1025A00069F481E08093DE0646983FE9C32E3FE060
:1025B000D32EE12CF12CCAEFD0E014C08E0120E024
:1025C00030E060E472E48FE090E0A90198010E949D
:1025D000032569017A0181E0C81AD108E108F108F0
:1025E0001092DE06E0918705F0918805099581112A
:1025F00003C081E08093DE068091DD068823B9F177
:102600008091DE06811133C003C01092DD06C5CF74
:1026100046992DC0479A0E94C711009771F09C01FE
:10262000DE010E945725DC01CB0129E0B595A79575
:10263000979587952A95D1F703C08FEF9FEFDC011F
:10264000109290002AE020939100D0929900C092BD
:1026500098008093DF069093E006A093E106B09384
:10266000E2068091710082608093710002C04798F9
:10267000D2CFDF91CF911F910F91FF90EF90DF901C
:10268000CF9008951F920F920FB60F9211242F939F
:102690003F934F935F936F937F938F939F93AF93EA
:1026A000BF93EF93FF938091DF069091E006A09196
:1026B000E106B091E206892B8A2B8B2B81F1809168
:1026C000DE0681110BC098B180E4892788B980911A
:1026D000DD06882319F088B1805888B98091DF061B
:1026E0009091E006A091E106B091E2061816190655
:1026F0001A061B06B4F48091DF069091E006A091C3
:10270000E106B091E2060197A109B1098093DF06C5
:102710009093E006A093E106B093E20602C00E9407
:102720009412FF91EF91BF91AF919F918F917F9103
:102730006F915F914F913F912F910F900FBE0F902E
:102740001F9018958FB12CB193B130E02095309542
:1027500020743327A90123E0559547952A95E1F781
:10276000292F30E020953095207133273595279516
:1027700035952795242B8095807F822B0895109284
:1027800073013E983F9808953E9A3F9A81E0809366
:102790007301089560387105D0F440345105B8F4E0
:1027A000E5EFF2E180E1849FD001A0781124A60F2B
:1027B0004770E40FF11D8491A758BE4F222319F0F2
:1027C0006C91862B03C080956C9186238C93089521
:1027D000AF92BF92CF92DF92EF92FF920F931F932F
:1027E000CF93DF936C01EB01142F022F7C015C016E
:1027F000A40EB11CEA14FB0454F421E0402FBE01E6
:10280000C7010E94220B8FEFE81AF80AF3CF22E0EB
:10281000200F42E0410FBE0161507109C6010197CE
:10282000DF91CF911F910F91FF90EF90DF90CF90AC
:10283000BF90AF900C944E0BCF93DF93EC01DB0174
:1028400085E0AA0FBB1F8A95E1F740E22881398114
:10285000CD018096621773077CF4EC81FD81AE0F89
:10286000BF1FE80FF91F242F01900D922A95E1F761
:102870006F5F7F4FDC01EACF215031093983288314
:10288000DF91CF910895CF92DF92EF92FF92CF9395
:10289000DF93EC016C857D858E859F850E94C12626
:1028A000CB0168E671E00E94CB28BC01990F880B30
:1028B000990B0E94F9266B017C0120E030E0A90110
:1028C0000E94452687FF0AC020E030E044EB53E435
:1028D000C701B6010E9467256B017C01CC86DD86AD
:1028E000EE86FF8620E030E044EB53E4C701B601FA
:1028F0000E944F266B017C018A8D9B8DBC01990F34
:10290000880B990B0E94F9269B01AC01C701B60107
:102910000E941C280E94C1267D8F6C8FDF91CF9171
:10292000FF90EF90DF90CF900895FC01108211820C
:1029300012821382148215821682178211861086E3
:10294000138612861486158616861786108A118AB3
:10295000128A138A80E090E0A0E0B0E4848B958B2B
:10296000A68BB78B118E108E138E128E158E148E31
:10297000178E168E08954F925F926F927F928F926C
:102980009F92AF92BF92CF92DF92EF92FF920F93FE
:102990001F93CF93DF9300D000D000D0CDB7DEB728
:1029A000FC0129833A834B835C8329813A81EB8044
:1029B000FC80472F86A197A1A0A4B1A453A572A51E
:1029C000DC01A70FB11D2A173B070CF0B4C0D901D9
:1029D000A60FB11DBD018A179B070CF0ACC0D50135
:1029E000A50FB11DEA16FB060CF0A5C06701C40EC9
:1029F000D11CAC14BD040CF09EC08F0140A151A1AC
:102A000082179307ACF4F80184A1B901681B71091E
:102A1000641B750B6F5F7F4F072E000C880B990BA3
:102A20000E94F926D8012D913D914D915C910DC0E8
:102A3000641B750B072E000C880B990B0E94F9265E
:102A4000F80120813181428153810E9466252B014A
:102A50003C01D80192968D919C919397AE14BF043E
:102A6000ACF495962C91B701621B7109681B790B28
:102A70006F5F7F4F072E000C880B990B0E94F92681
:102A8000F801248135814681578110C0B601681B49
:102A9000790B072E000C880B990B0E94F926D801A0
:102AA00014962D913D914D915C9117970E9466254A
:102AB0006B017C0120E030E0A901C301B2010E945A
:102AC0000F2853014201181624F0B7FAB094B7F852
:102AD000B09420E030E0A901C701B6010E940F28A0
:102AE000A701960118160CF05058C501B4010E94B8
:102AF000452687FF10C0A3019201F8016081718112
:102B0000828193810E946725D8016D937D938D9377
:102B10009C93139710C0A7019601F80164817581F9
:102B2000868197810E946725D80114966D937D93C5
:102B30008D939C93179726960FB6F894DEBF0FBE21
:102B4000CDBFDF91CF911F910F91FF90EF90DF905C
:102B5000CF90BF90AF909F908F907F906F905F903D
:102B60004F900895CF92DF92EF92FF920F931F93B1
:102B7000CF93DF93EC016AA17BA1072E000C880B99
:102B8000990B0E94F9262C813D814E815F810E9424
:102B900067250E94C1266B017C010CA11DA188A1A3
:102BA00099A1BC01990F880B990B0E94F9262881E5
:102BB00039814A815B810E9467250E94C1267FA3DB
:102BC0006EA3D9A6C8A60AA71BA7DF91CF911F9114
:102BD0000F91FF90EF90DF90CF9008958F929F928A
:102BE000AF92BF92EF92FF920F931F93CF93DF9319
:102BF0008C01FC01848D958DFB01E80FF91FC081CC
:102C0000D0E080E0E82E81E0F82EF70124813581C4
:102C100046815781F80164817581868197810E9480
:102C200066250E94C1264B015C01F701208131819C
:102C300042815381F80160817181828193810E9478
:102C400066250E94C126DC01CB0121E0AE01B40162
:102C5000DF91CF911F910F91FF90EF90BF90AF90B8
:102C60009F908F900C949E0B4F925F926F927F92E9
:102C70008F929F92AF92BF92CF92DF92EF92FF928C
:102C80000F931F93CF93DF93EC01C888D988EA880C
:102C9000FB8820E030E04AE754E46C857D858E8532
:102CA0009F850E941C2820E030ED4FE557E40E94EC
:102CB0004F264B015C010E944A269B01AC01C701D3
:102CC000B6010E941C28288139814A815B810E94BB
:102CD00067252B013C01688379838A839B83C50127
:102CE000B4010E9489289B01AC01C701B6010E9472
:102CF0001C289B01AC016C817D818E819F810E948B
:102D000066256B017C016C837D838E839F8320E02D
:102D100030E0A901C301B2010E94452687FF05C02A
:102D2000188219821A821B8231C0A884B98400914A
:102D3000080110910901B5010B2C000C880B990BAF
:102D40000E94F9269B01AC01C301B2010E946725D4
:102D50002B013C01B801012E000C880B990B0E943D
:102D6000F9269B01AC01C301B2010E940F2818167D
:102D70006CF4C8018A199B09BC01990F880B990B47
:102D80000E94F926688379838A839B8320E030E060
:102D9000A901C701B6010E94452687FF05C01C8214
:102DA0001D821E821F8231C0AA84BB8400910A0149
:102DB00010910B01B5010B2C000C880B990B0E9494
:102DC000F9269B01AC01C701B6010E9467256B0182
:102DD0007C01B801012E000C880B990B0E94F9268A
:102DE0009B01AC01C701B6010E940F2818166CF4B4
:102DF000B8016A197B09072E000C880B990B0E94F9
:102E0000F9266C837D838E839F83DF91CF911F9101
:102E10000F91FF90EF90DF90CF90BF90AF909F9079
:102E20008F907F906F905F904F900895FC01668D1A
:102E3000778D77278091690690916A060E94B7285E
:102E4000892B79F4848D958D228D338D2150310914
:102E50008217930720F40196958F848F0895158E1D
:102E6000148E0895CF93DF93EC016E8D7F8D7727BD
:102E70008091690690916A060E94B728892B29F4EF
:102E8000888D998D0197998F888FCE010E94161792
:102E9000CE01DF91CF910C943416CF93DF93CDB751
:102EA000DEB7E0970FB6F894DEBF0FBECDBF7894C3
:102EB00084B5826084BD84B5816084BD85B582603F
:102EC00085BD85B5816085BD80916E0081608093F0
:102ED0006E00109281008091810082608093810059
:102EE0008091810081608093810080918000816069
:102EF0008093800080919100826080939100809106
:102F00009100816080939100809190008160809316
:102F100090008091C10084608093C1008091C100C5
:102F200082608093C1008091C10081608093C10064
:102F30008091C30081608093C3008091C000826053
:102F40008093C0008091C20081608093C200809114
:102F50007A00846080937A0080917A008260809306
:102F60007A0080917A00816080937A0080917A0063
:102F7000806880937A00109277011092D5061092A3
:102F800075018091D70081608093D70080EA80939B
:102F9000D80089B5806189BD89B5826089BD09B4D1
:102FA00000FEFDCF61E070E080E090E00E94101232
:102FB0008091D8008F7C80618093D8008091E00060
:102FC000807F8093E0008091E1008E7E8093E1001D
:102FD0008DE08093E200559A209AEEEFFFE785910D
:102FE00094918B3F9C4D19F481E08093D40681EC41
:102FF00080937C0085B1806F85B9249884B1866EFA
:1030000084B95E9A5F988AB1806D8AB9769A6E9813
:1030100081B3806F81BB899880B38D7080BB80E560
:103020008CBD81E08DBD0E94A60D5F9A0E94A60D09
:103030005E985C98E8EFF0E08DE08E0F94919EBD75
:1030400000000DB407FEFDCF31968E13F7CF5C9ACA
:1030500081E88093640081E0809365000E94A21360
:10306000803839F42E9880916400806280936400E7
:10307000FFCF82E090E00E94ED24882319F00E94A7
:10308000C41302C00E94BF13B4E02B2E312C2FB703
:10309000F89480916A0190916B01A0916C01B091BC
:1030A0006D012FBF409172065091730660917406B6
:1030B0007091750620917606222341F020916E06CC
:1030C000821B80937706109276069BC18417950722
:1030D000A607B70778F4481B423008F492C183B7BB
:1030E000817F83BF83B7816083BF889583B78E7FDD
:1030F00083BF87C111E01093760680936E0690938C
:103100006F06A0937006B093710620916D06820F32
:10311000911DA11DB11D8093720690937306A0931B
:103120007406B09375068091690690916A060196BF
:1031300090936A068093690680916B0680936C0673
:103140000E94A21380936B0680912001811110C010
:103150000E94A21386FD0CC05CC18091690690910B
:103160006A0666E970E00E94B728892B09F067C1FA
:1031700081E08093200180910C018111C7C11091E1
:103180001B0111110AC02091730181E090E0821BA4
:10319000910990931F0180931E0180E20E94930B7E
:1031A0008823A1F0111109C080910D0190910E01A9
:1031B000181619065CF5019718C080911E019091B0
:1031C0001F011816190614F501971CC080E40E940F
:1031D000930B8823D9F011110DC080910D019091AE
:1031E0000E018230910594F4019690930E01809324
:1031F0000D010CC080911E0190911F011816190637
:103200002CF0019690931F0180931E0188E00E948C
:10321000930B882309F45FC011113BC080910D010D
:1032200090910E01009769F5809164008E7F8093E4
:10323000640080917A00806480937A0080917A00A3
:1032400086FDFCCF00917800109179000E94EB116F
:1032500020E030E0980111270027600F711F821FC6
:10326000931F611571058105910511F00E94E424F9
:103270008091640081608093640081E080930C0100
:1032800045C190931D0180931C0181E080931B0137
:1032900028C080911C0190911D01029711F5809129
:1032A0001E0190911F01009719F40E94C41304C0DD
:1032B000019711F40E94BF136091730182E090E0C6
:1032C0006EA70E94ED246EA5681749F082E090E099
:1032D0000E94F52404C084E00E94930B8111109297
:1032E0001B0180911B01811160C020910D01309163
:1032F0000E01009115011091160101501109409124
:10330000130150911401249FC001259F900D349FFB
:10331000900D1124080F191F4091170150911801A9
:10332000249FC001259F900D349F900D1124080FFC
:10333000191F9090110180910F01C0901901D09038
:103340001A0131E0C31AD10878015801A80EB11C46
:10335000EA14FB0454F421E0492DB601C7010E9490
:10336000220B8FEFE81AF80AF3CF209111012E5F9C
:1033700040910F014E5F6091190170911A016250E6
:103380007109C80101970E944E0B209111013091E3
:10339000120140910F01509110016091190170913B
:1033A0001A0161507109C80129C080911C019091D6
:1033B0001D01029719F00E947E0B23C080911E010F
:1033C00090911F01009739F0019751F442E150E0CC
:1033D0008AE490E009C04DE050E08BE390E004C047
:1033E00040E050E080E090E0209111013091120126
:1033F0006091190170911A01615071090E94E813DE
:10340000DACF80E090E0892B09F441CE0E940000E1
:103410003BCE6091240170912501653071050CF05F
:103420009CCE6F5F7F4F709325016093240121E054
:1034300040EE51E0809122019091230164C080917F
:103440002101811133C0809171008D7F80937100C3
:103450001092720189E795E0909371018093700159
:1034600090936F0180936E0186E194E090937A05CA
:103470008093790582E390E090937C0580937B05AF
:103480008DE298E090937E0580937D0584E690E040
:103490009093800580937F0580E090E8909382056B
:1034A000809381050E949412109321016091240160
:1034B0007091250121E040EE51E080912201909130
:1034C00023010E949E0B6091240170912501675E8B
:1034D0007F4F809122019091230121E049ED51E03D
:1034E00080960E949E0B20E043E651E06EE270E081
:1034F0008EE190E00E949E0B21E045E051E06EE2FB
:1035000070E08EE190E00E949E0B55CF8090040108
:1035100090900501A0900601B0900701C0900001B5
:10352000D0900101E0900201F0900301A501940107
:1035300060E070E088EC93E40E9466250E94C1265A
:1035400069A37AA38BA39CA3A701960160E070E016
:103550008AEF93E40E9466250E94C1266DA37EA394
:103560008FA398A7A501940160E070E0CB010E94B1
:1035700066250E94C12669A77AA78BA79CA7A701E9
:10358000960160E070E088E493E40E9466250E9462
:10359000C1262B013C01A501940160E070E08AEF97
:1035A00093E40E9466250E94C1264B015C01A7019D
:1035B000960160E070E0CB010E9466250E94C12662
:1035C000DC01CB01E9A0FAA00DA11EA129A53AA515
:1035D000A201B4010E947C0D80900401909005012D
:1035E000A0900601B0900701C0900001D0900101A9
:1035F000E0900201F0900301A501940160E070E009
:103600008FE294E40E9466250E94C12669A37AA3F2
:103610008BA39CA3A701960160E070E08AE794E485
:103620000E9466250E94C1266DA37EA38FA398A742
:10363000A501940160E070E0CB010E9466250E9424
:10364000C12669A77AA78BA79CA7A701960160E06E
:1036500070E088E494E40E9466250E94C1262B0154
:103660003C01A501940160E070E088EC93E40E94C5
:1036700066250E94C1264B015C01A701960160E00E
:1036800070E08AEF93E40E9466250E94C126DC0167
:10369000CB01E9A0FAA00DA11EA129A53AA5A2017E
:1036A000B4010E947C0D8090040190900501A090CF
:1036B0000601B0900701C0900001D0900101E09098
:1036C0000201F0900301A501940160E070E08AEF2F
:1036D00093E40E9466250E94C12669A37AA38BA366
:1036E0009CA3A701960160E070E88BEB94E40E9434
:1036F00066250E94C1266DA37EA38FA398A7A5016E
:10370000940160E070E0CB010E9466250E94C12612
:1037100069A77AA78BA79CA7A701960160E070E82C
:1037200089E894E40E9466250E94C1262B013C0191
:10373000A501940160E070E08FE294E40E946625A8
:103740000E94C1264B015C01A701960160E070E078
:103750008AE794E40E9466250E94C126DC01CB0121
:10376000E9A0FAA00DA11EA129A53AA5A201B401C4
:103770000E947C0D66E572E185EB95E00E94EE15F6
:1037800089E895E00E94341689E895E00E94B21518
:1037900064E172E189E895E00E94EE1520915306FC
:1037A00030915406409155065091560660912D0671
:1037B00070912E0680912F06909130060E940F285E
:1037C0001816ACF50E94A21385FF13C020914F0676
:1037D0003091500640915106509152066091290651
:1037E00070912A0680912B0690912C060E946725E5
:1037F00016C00E94A21386FF1AC020914F06309176
:1038000050064091510650915206609129067091E0
:103810002A0680912B0690912C060E9466256093C3
:10382000290670932A0680932B0690932C060E94FB
:10383000A21383FF55C0C0902D06D0902E06E090B5
:103840002F06F090300620E030E0A901C701B60154
:103850000E940F2818164CF42091570630915806F4
:103860004091590650915A0610C020E030E040E8DF
:1038700050E46091570670915806809159069091D6
:103880005A060E941C289B01AC01C701B6010E9488
:10389000672560932D0670932E0680932F069093D4
:1038A0003006C0903106D0903206E0903306F0909A
:1038B0003406A701960160912D0670912E06809125
:1038C0002F06909130060E940F281816ECF5C09232
:1038D0002D06D0922E06E0922F06F092300634C0CC
:1038E0000E94A21382FF30C0C0902D06D0902E06F9
:1038F000E0902F06F090300620915B0630915C0638
:1039000040915D0650915E06C701B6010E940F28E6
:103910001816D4F460915706709158068091590694
:1039200090915A069B01AC010E9467259B01AC0156
:10393000C701B6010E94662560932D0670932E067E
:1039400080932F06909330068DE196E00E94341606
:103950008DE196E00E94B2158DE196E00E9443143D
:103960000E94DF2424E630E040E050E00E9403257E
:10397000623071058105910594F4C0902D06D090B8
:103980002E06E0902F06F090300620E030E0A901EE
:10399000C701B6010E940F2818160CF4BCC40E947F
:1039A000A21382FF5AC020E030E0A90160912D06E9
:1039B00070912E0680912F06909130060E940F285C
:1039C00018160CF04AC00091390610913A06C090C2
:1039D0002106D0902206E0902306F09024068090E5
:1039E0001D0690901E06A0901F06B0902006CE01E6
:1039F00001960E94951489829A82AB82BC82CD8204
:103A0000DE82EF82F8861E8F0D8F8FE090E09A8F16
:103A1000898F80915F0690916006209161063091B8
:103A2000620682179307CCF4A0916306B0916406F6
:103A30009C012F5F3F4F3093600620935F06F5E0B7
:103A4000880F991FFA95E1F7A80FB91FFE0131966B
:103A500080E201900D928A95E1F780E090E060911C
:103A60005F067091600686179707C4F5409163065C
:103A7000509164069C01E5E0220F331FEA95E1F7BF
:103A8000420F531FFA01208D318D2115310529F088
:103A900021503109318F208F1FC07B01E81AF90AAC
:103AA00000E010E0DA01A00FB11FFD01B0966894AC
:103AB000DD24D5F801900D92DA94E1F72F5F3F4FA6
:103AC000005E1F4F2E153F0569F761507109709315
:103AD000600660935F0601970196C1CF00E010E099
:103AE0008091490690914A060817190744F5780114
:103AF000B5E0EE0CFF1CBA95E1F780914D06909170
:103B00004E068E0D9F1DFC01208D318D232B69F0FB
:103B10000E94321780914D0690914E0660E57AE042
:103B20008E0D9F1D0E94EE1507C0B80189E496E036
:103B30000E941C14015011090F5F1F4FD1CF62E981
:103B40007AE08DE196E00E94EE152091AF0530916C
:103B5000B0054091B1055091B2056091B3057091E7
:103B6000B4058DE196E00E94BB1485ED95E00E94BE
:103B7000341685ED95E00E94B21585ED95E00E9422
:103B80004314C090E505D090E605E090E705F0907D
:103B9000E80520E030E0A901C701B6010E940F2826
:103BA00018164CF420910F06309110064091110622
:103BB0005091120610C020E030E040E850E46091DF
:103BC0000F067091100680911106909112060E94C6
:103BD0001C289B01AC01C701B6010E9467256093B8
:103BE000E5057093E6058093E7059093E805C0909E
:103BF000E905D090EA05E090EB05F090EC05A7010F
:103C000096016091E5057091E6058091E705909138
:103C1000E8050E940F28181644F4C092E505D092DA
:103C2000E605E092E705F092E8058091690690913B
:103C30006A0666E170E00E94B728892B09F09EC0F1
:103C4000C090E505D090E605E090E705F090E80526
:103C50008090E1059090E205A090E305B090E40526
:103C60006091DF057091E00577FF02C06F5F7F4FC5
:103C700075956795072E000C880B990B0E94F92605
:103C80002091D9053091DA054091DB055091DC0592
:103C90000E94672520E030E040EE50E40E94662557
:103CA0002B013C016091DD057091DE0577FF02C0BC
:103CB0006F5F7F4F75956795072E000C880B990BEA
:103CC0000E94F9262091D5053091D6054091D7055F
:103CD0005091D8050E94672520E030E040EA50E48A
:103CE0000E946625AB01BC01CE0101964FA758ABDF
:103CF0006EA77DA70E9495144FA558A96EA57DA516
:103D000049835A836B837C834D825E826F8278867F
:103D10008D869E86AF86B88AC98ADA8AEB8AFC8A43
:103D200022E030E03C8F2B8F85E090E098A38F8FCE
:103D30003A8F298F809117069091180620911906C5
:103D400030911A0682179307CCF4A0911B06B0910C
:103D50001C069C012F5F3F4F3093180620931706D7
:103D6000E5E0880F991FEA95E1F7A80FB91FFE015A
:103D7000319680E201900D928A95E1F70E94DF244E
:103D800024E630E040E050E00E94032562307105F7
:103D90008105910594F4C090E505D090E605E0908A
:103DA000E705F090E80520E030E0A901C701B60181
:103DB0000E940F2818160CF42EC3809021069090B4
:103DC0002206A0902306B090240640901D06509035
:103DD0001E0660901F067090200620910B06309101
:103DE0000C0640910D0650910E066091E50570910C
:103DF000E6058091E7059091E8050E940F281816C6
:103E00000CF08CC06091D5057091D6058091D705D6
:103E10009091D8050E94C1266B017C01C301B201BB
:103E20000E94C126F601E61BF70BBF01072E000C0E
:103E3000880B990B0E94F9269B01AC01C501B401C6
:103E40002DA73EA74FA758AB0E94C1266B017C014E
:103E50006091D9057091DA058091DB059091DC05C0
:103E60000E94C126F601E61BF70BBF01072E000CCE
:103E7000880B990B0E94F9262DA53EA54FA558A9A0
:103E80000E94E6258090E1059090E205A090E30570
:103E9000B090E40520E030ED4FE557E40E941C2887
:103EA00020E030E04AE754E40E944F2620E030E072
:103EB00044E353E40E9467250E94C1266B017C0104
:103EC000C501B4010E94C126C601861B970B68E696
:103ED00071E00E94CB28845E9D4F68E671E00E94ED
:103EE000CB28BC01645B7109072E000C880B990B71
:103EF0000E94F9262DEC3CEC4CE45DE30E941C286A
:103F00009B01AC01C501B4010E9467256093E105E6
:103F10007093E2058093E3059093E40500E010E0E0
:103F200080910106909102060817190744F578015F
:103F300075E0EE0CFF1C7A95E1F7809105069091F3
:103F400006068E0D9F1DFC01208D318D232B69F0FF
:103F50000E943217809105069091060660E57AE08E
:103F60008E0D9F1D0E94EE1507C0B80181E096E0FE
:103F70000E941C14015011090F5F1F4FD1CF6EEC2E
:103F800072E085ED95E00E94EE15C12CD12C409198
:103F9000170650911806C416D5060CF054C08601B9
:103FA00065E0000F111F6A95E1F7E0901B06F090A5
:103FB0001C06E00EF11EF701208D318D2115310513
:103FC00001F1668D778D77278091690690916A0659
:103FD0000E94B728892B21F421503109318F208F7D
:103FE000C7010E941617C7010E94341680911B0654
:103FF00090911C0664EA72E0800F911F0E94EE15FA
:104000001EC0BA016C197D0980E090E0D701A20FB3
:10401000B31FFD01B09610E201900D921A95E1F7E1
:104020000196205E3F4F8617970781F7415051094F
:104030005093180640931706F1E0CF1AD1082FEFDE
:10404000C21AD20AA4CF209143063091440640916F
:10405000450650914606609147067091480685EDE9
:1040600095E00E94BB14609127067091280677FFA7
:1040700002C06F5F7F4F75956795072E000C880B08
:10408000990B0E94F9262091210630912206409139
:104090002306509124060E9467254B015C01609124
:1040A00025067091260677FF02C06F5F7F4F7595DA
:1040B0006795072E000C880B990B0E94F92620911A
:1040C0001D0630911E0640911F06509120060E9449
:1040D00067256B017C0140900001509001016090C8
:1040E00002017090030120E030E040E052E4C3019F
:1040F000B2010E946725A70196010E940F28181699
:104100003CF420E030E040E052E4C701B60120C0BA
:1041100020E030E040E053E4C301B2010E94672593
:1041200020E030E040E052E40E946625A7019601BD
:104130000E94452687FF16C020E030E040E052E4B0
:10414000C701B6010E94672520E030E040E053E45B
:104150000E94662560930001709301018093020123
:104160009093030140900001509001016090020182
:104170007090030120E030E0A901C301B2010E9468
:10418000452687FF09C0109200011092010110928C
:104190000201109203012EC0E0900801F090090185
:1041A00020E030E040E053E4C301B2010E94672503
:1041B0002B013C01B7010F2C000C880B990B0E94BE
:1041C000F9269B01AC01C301B2010E940F28181609
:1041D0008CF4B70160587109072E000C880B990BFD
:1041E0000E94F926609300017093010180930201FF
:1041F00090930301C0900401D0900501E090060166
:10420000F090070120E030E040EC51E4C701B60136
:104210000E946725A50194010E940F2818163CF4FE
:1042200020E030E040EC51E4C501B40120C020E0C2
:1042300030E040E852E4C701B6010E94672520E063
:1042400030E040EC51E40E946625A50194010E94F3
:10425000452687FF16C020E030E040EC51E4C50160
:10426000B4010E94672520E030E040E852E40E945B
:104270006625609304017093050180930601909375
:104280000701C0900401D0900501E0900601F09074
:10429000070120E030E0A901C701B6010E944526D0
:1042A00087FF09C0109204011092050110920601C7
:1042B0001092070180C800910A0110910B0120E0C3
:1042C00030E040E852E4C701B6010E9467256B0167
:1042D0007C01B801012E000C880B990B0E94F92675
:1042E0009B01AC01C701B6010E940F2818160CF003
:1042F00062C8B80160547109072E000C880B990B35
:104300000E94F926609304017093050180930601D1
:104310009093070150C88090290690902A06A0909B
:104320002B06B0902C06609127067091280677FF27
:1043300002C06F5F7F4F75956795072E000C880B45
:10434000990B0E94F9262091210630912206409176
:104350002306509124060E94672520E030E040E8C3
:1043600050E40E9466252B013C0160912506709166
:10437000260677FF02C06F5F7F4F75956795072E02
:10438000000C880B990B0E94F92620911D06309194
:104390001E0640911F06509120060E94672520E0CE
:1043A00030E040E850E40E946625AB01BC01CE013C
:1043B00001964FA758AB6EA77DA70E9495144FA5F5
:1043C00058A96EA57DA549835A836B837C834D8252
:1043D0005E826F8278868D869E86AF86B88A20E060
:1043E00030E040E05FE3C701B6010E941C28698B02
:1043F0007A8B8B8B9C8B3C8E2B8E88E090E098A3E5
:104400008F8F3A8E298EBE016F5F7F4F89E496E0D1
:104410000E94AC0DC4CA8090E1059090E205A09086
:10442000E305B090E4056091DF057091E00577FF4A
:1044300002C06F5F7F4F75956795072E000C880B44
:10444000990B0E94F9262091D9053091DA05409107
:10445000DB055091DC050E94672520E030E040E854
:1044600050E40E9466252B013C016091DD057091AE
:10447000DE0577FF02C06F5F7F4F75956795072E4A
:10448000000C880B990B0E94F9262091D5053091DC
:10449000D6054091D7055091D8050E94672520E0A8
:1044A00030E040E850E40E946625AB01BC01CE013B
:1044B00001964FA758AB6EA77DA70E9495144FA5F4
:1044C00058A96EA57DA549835A836B837C834D8251
:1044D0005E826F8278868D869E86AF86B88A20E05F
:1044E00030E040E05FE3C701B6010E941C28698B01
:1044F0007A8B8B8B9C8B3C8E2B8EE8E0F0E0F8A3C4
:10450000EF8F3A8E298EBE016F5F7F4F81E096E07C
:104510000E94AC0D52CC2F923F924F925F926F92BD
:104520007F928F929F92AF92BF92CF92DF92EF9243
:10453000FF920F931F93CF93DF9300D000D0CDB79E
:10454000DEB7E4E8F6E01382128288EE93E0A0E0A2
:10455000B0E084839583A683B7838EE491E0918352
:1045600080838FEF9FEF95878487E6E6F6E020E66D
:1045700031E0318320831582168220E127839483E2
:1045800083831486158616861786108A81EE91E13C
:10459000909388058093870580E090E89093860546
:1045A0008093850546983E9A47983F9A8DE196E01C
:1045B0000E94951410923E0610923D0610924006FD
:1045C00010923F0680912506809341068091270630
:1045D0008093420610924A061092490683E090E0CA
:1045E00090934C0680934B0680E690E00E94E5286D
:1045F00090934E0680934D06412C512C80E6682EF8
:1046000080E4782E40924F065092500660925106F8
:1046100070925206812C912CA12C9FE3B92E80928E
:10462000530690925406A0925506B09256068AE020
:1046300097EDA3EABCE38093570690935806A093A6
:104640005906B0935A06C12CD12C20E8E22E2FEB4C
:10465000F22EC0925B06D0925C06E0925D06F0926C
:104660005E061092600610925F068FE090E09093D5
:1046700062068093610680EE91E00E94E5289093A7
:104680006406809363060E94DF2428E631E040E060
:1046900050E00E9403250E94F9266093290670933A
:1046A0002A0680932B0690932C0680E090E0A0EAE7
:1046B000B1E4EDE1F6E080839183A283B38380933C
:1046C000210690932206A0932306B093240634E19A
:1046D000232E312C309226062092250600E110E090
:1046E000109328060093270686E0ECE3F1E0ADE3A3
:1046F000B6E001900D928A95E1F728E130E0309321
:1047000038062093370685ED95E02B833C830E9485
:10471000951445ED55E0FA0115A614A683E090E046
:1047200097A786A780E690E049835A830E94E528F0
:1047300049815A81FA0191AB80AB42AA53AA64AA7B
:1047400075AA86AA97AAA0AEB1AEC0921306D0925F
:104750001406E0921506F0921606109218061092B2
:10476000170681E090E090931A068093190680E284
:1047700090E049835A830E94E52890931C06809319
:104780001B0680E090E0A8E4B2E449815A81FA0176
:1047900080839183A283B38384839583A683B78325
:1047A000318620861387028786E0ECE3F1E0A5EFEF
:1047B000B5E001900D928A95E1F78AE097EDA3E2CA
:1047C000BCE3FA0182AF93AFA4AFB5AF2B813C81BC
:1047D000338F228F85EB95E00E949514E5EBF5E091
:1047E0008AE090E0918780871387028780E090E0DD
:1047F000A0EFB1E480839183A283B3838483958304
:10480000A683B78389E895E00E949514E9E8F5E06E
:1048100080E090E0A0EAB2E480839183A283B38336
:1048200080E090E0A0E2B2E484839583A683B7831E
:10483000318620861387028786E0ECE3F1E0A9EA5F
:10484000B5E001900D928A95E1F70F900F900F90CF
:104850000F90DF91CF911F910F91FF90EF90DF901C
:10486000CF90BF90AF909F908F907F906F905F9010
:104870004F903F902F900895CF92DF92EF92FF924A
:104880000F931F93CF93DF931F92CDB7DEB7182FEF
:10489000062FE42E862F880F8E5F99830E94240EA8
:1048A00083E00E94240EF12EC12E9981D92E8C2DE9
:1048B0008F19801798F4F601E7FE02C0849101C0B9
:1048C00080810E94240E182F80E00E94240E8123F4
:1048D000FFEFCF1ADF0A8111EACF01C081E00F900C
:1048E000DF91CF911F910F91FF90EF90DF90CF90CC
:1048F000089580911B0690911C060E947A29809150
:104900000506909106060E947A298091630690918F
:1049100064060E947A2980914D0690914E060C946F
:104920007A298F929F92AF92BF92CF92DF92EF92AD
:10493000FF92CF93DF93EC01688179818A819B811B
:10494000611571058105910521F464E279ED8BE52E
:1049500097E02DE133EF41E050E00E94032549014B
:104960005A019B01AC01A7EAB1E40E9422256B0128
:104970007C01ACEEB4EFA50194010E943025DC016E
:10498000CB018C0D9D1DAE1DBF1DB7FF03C0019750
:10499000A109B04888839983AA83BB83BC01CD0158
:1049A0009F77DF91CF91FF90EF90DF90CF90BF90F6
:1049B000AF909F908F9008950E949124089582E374
:1049C00091E00E9491240895609332017093330125
:1049D00080933401909335010895F999FECF92BDEB
:1049E00081BDF89A992780B50895262FF999FECFB1
:1049F0001FBA92BD81BD20BD0FB6F894FA9AF99AFC
:104A00000FBE01960895052E97FB1EF400940E9498
:104A10001A2557FD07D00E94352507FC03D04EF418
:104A20000C941A2550954095309521953F4F4F4F46
:104A30005F4F089590958095709561957F4F8F4F4A
:104A40009F4F08950E945725A59F900DB49F900DEC
:104A5000A49F800D911D11240895B7FF0C94222569
:104A60000E942225821B930B0895A1E21A2EAA1BF5
:104A7000BB1BFD010DC0AA1FBB1FEE1FFF1FA2170E
:104A8000B307E407F50720F0A21BB30BE40BF50B0B
:104A9000661F771F881F991F1A9469F76095709594
:104AA000809590959B01AC01BD01CF010895A29F17
:104AB000B001B39FC001A39F700D811D1124911DF2
:104AC000B29F700D811D1124911D08955058BB2770
:104AD000AA270E947E250C94C1270E94882738F0BF
:104AE0000E948F2720F039F49F3F19F426F40C948C
:104AF0005E270EF4E095E7FB0C945827E92F0E94FF
:104B0000E62758F3BA17620773078407950720F062
:104B100079F4A6F50C9408280EF4E0950B2EBA2F24
:104B2000A02D0B01B90190010C01CA01A0011124B3
:104B3000FF27591B99F0593F50F4503E68F11A165F
:104B4000F040A22F232F342F4427585FF3CF4695F0
:104B500037952795A795F0405395C9F77EF41F1612
:104B6000BA0B620B730B840BBAF09150A1F0FF0FDC
:104B7000BB1F661F771F881FC2F70EC0BA0F621FC8
:104B8000731F841F48F4879577956795B795F795B8
:104B90009E3F08F0B0CF9395880F08F09927EE0F4D
:104BA0009795879508950E94882760F080E891E0A6
:104BB00009F49EEF0E948F2728F040E851E071F43D
:104BC0005EEF0CC00C945E270C940828E92FE07867
:104BD0000E94E62740F3092E052AB1F3261737076E
:104BE0004807590738F00E2E07F8E02569F0E02550
:104BF000E0640AC0EF6307F8009407FADB01B9012B
:104C00009D01DC01CA01AD01EF930E9466260E945E
:104C1000C1270E9416265F91552339F02BED3FE006
:104C200049E450FD49EC0C9467250895DF93DD2796
:104C3000B92FBF7740E85FE31616170648075B07F2
:104C400018F4D92F0E9414289F938F937F936F930A
:104C50000E949128ECEAF0E00E9461270E94C1279F
:104C60002F913F914F915F910E942F28DD2351F0AA
:104C70009058A2EA2AED3FE049EC5FE3D0785D2747
:104C80000E947E25DF910C94C1270E94342708F4EE
:104C900081E008950E949827E3950C94D2270E9402
:104CA00063260C94C1270E948F2758F00E94882702
:104CB00040F029F45F3F29F00C94582751110C94CF
:104CC00009280C945E270E94E62768F39923B1F324
:104CD000552391F3951B550BBB27AA276217730722
:104CE000840738F09F5F5F4F220F331F441FAA1FB6
:104CF000A9F335D00E2E3AF0E0E832D09150504072
:104D0000E695001CCAF72BD0FE2F29D0660F771F1F
:104D1000881FBB1F261737074807AB07B0E809F005
:104D2000BB0B802DBF01FF2793585F4F3AF09E3F8A
:104D3000510578F00C9458270C9409285F3FE4F350
:104D4000983ED4F3869577956795B795F7959F5FCD
:104D5000C9F7880F911D9695879597F90895E1E019
:104D6000660F771F881FBB1F621773078407BA0778
:104D700020F0621B730B840BBA0BEE1F88F7E095D3
:104D800008950E94C8266894B1110C9409280895CA
:104D90000E94EE2788F09F5798F0B92F9927B751B6
:104DA000B0F0E1F0660F771F881F991F1AF0BA95CF
:104DB000C9F714C0B13091F00E940828B1E00895FD
:104DC0000C940828672F782F8827B85F39F0B93FEF
:104DD000CCF3869577956795B395D9F73EF4909582
:104DE0008095709561957F4F8F4F9F4F0895E89400
:104DF00009C097FB3EF490958095709561957F4F23
:104E00008F4F9F4F9923A9F0F92F96E9BB279395D0
:104E1000F695879577956795B795F111F8CFFAF4E0
:104E2000BB0F11F460FF1BC06F5F7F4F8F4F9F4F11
:104E300016C0882311F096E911C0772321F09EE86F
:104E4000872F762F05C0662371F096E8862F70E0D5
:104E500060E02AF09A95660F771F881FDAF7880FAF
:104E60009695879597F90895990F0008550FAA0B05
:104E7000E0E8FEEF16161706E807F907C0F012166D
:104E80001306E407F50798F0621B730B840B950B70
:104E900039F40A2661F0232B242B252B21F40895C5
:104EA0000A2609F4A140A6958FEF811D811D089562
:104EB00097F99F6780E870E060E008959FEF80ECCD
:104EC0000895DF93CF931F930F93FF92EF92DF929A
:104ED0007B018C01689406C0DA2EEF010E942F2816
:104EE000FE01E894A5912591359145915591A6F340
:104EF000EF010E947E25FE019701A801DA9469F76F
:104F0000DF90EF90FF900F911F91CF91DF91089567
:104F100000240A9416161706180609060895002498
:104F20000A94121613061406050608950C945E27BB
:104F30000E94EE27D8F3E894E0E0BB279F57F0F0FB
:104F40002AED3FE049EC06C0EE0FBB0F661F771F4E
:104F5000881F28F0B23A62077307840728F0B25A14
:104F6000620B730B840BE3959A9572F7803830F4DB
:104F70009A95BB0F661F771F881FD2F790480C9435
:104F80009728092E0394000C11F4882352F0BB0FCC
:104F900040F4BF2B11F460FF04C06F5F7F4F8F4F51
:104FA0009F4F0895EF93E0FF07C0A2EA2AED3FE08C
:104FB00049EC5FEB0E947E250E94C1270F9003946D
:104FC00001FC9058E9EDF0E00C94A32857FD9058AF
:104FD000440F551F59F05F3F71F04795880F97FBBD
:104FE000991F61F09F3F79F0879508951216130677
:104FF0001406551FF2CF4695F1DF08C016161706A6
:105000001806991FF1CF86957105610508940895DA
:10501000E894BB2766277727CB0197F908950E946C
:10502000342708F48FEF08959B01AC0160E070E035
:1050300080E89FE30C944F260E942F280C94C127F0
:105040000E94882738F00E948F2720F0952311F0C6
:105050000C9458270C945E2711240C9409280E9464
:10506000E62770F3959FC1F3950F50E0551F629F9F
:10507000F001729FBB27F00DB11D639FAA27F00DB1
:10508000B11DAA1F649F6627B00DA11D661F829FD8
:105090002227B00DA11D621F739FB00DA11D621FBD
:1050A000839FA00D611D221F749F3327A00D611DDA
:1050B000231F849F600D211D822F762F6A2F1124BC
:1050C0009F5750409AF0F1F088234AF0EE0FFF1FEF
:1050D000BB1F661F771F881F91505040A9F79E3F46
:1050E000510580F00C9458270C9409285F3FE4F395
:1050F000983ED4F3869577956795B795F795E7959C
:105100009F5FC1F7FE2B880F911D9695879597F9A4
:1051100008959F930E9498270F9007FCEE5F0C94D0
:10512000D2279B01AC010C941C289F3F31F0915079
:1051300020F4879577956795B795880F911D96957B
:10514000879597F908959F938F937F936F93FF931C
:10515000EF939B01AC010E941C28EF91FF910E94EC
:1051600061272F913F914F915F910C941C28AA1BAE
:10517000BB1B51E107C0AA1FBB1FA617B70710F042
:10518000A61BB70B881F991F5A95A9F78095909574
:10519000BC01CD01089597FB072E16F4009407D0AB
:1051A00077FD09D00E94B72807FC05D03EF4909502
:1051B00081959F4F0895709561957F4F0895EE0FEB
:1051C000FF1F0590F491E02D0994CF93DF93823077
:1051D000910510F482E090E0E091EA06F091EB0690
:1051E00020E030E0C0E0D0E0309711F14081518103
:1051F00048175907C0F04817590761F48281938115
:10520000209719F09B838A832BC09093EB068093A1
:10521000EA0626C02115310519F04217530718F484
:105220009A01BE01DF01EF010280F381E02DDCCFA6
:105230002115310509F1281B390B2430310590F473
:1052400012968D919C9113976115710521F0FB01C8
:105250009383828304C09093EB068093EA06FD015A
:10526000329644C0FD01E20FF31F819391932250C7
:1052700031092D933C933AC02091E8063091E9061C
:10528000232B41F420913801309139013093E90604
:105290002093E80620913601309137012115310520
:1052A00041F42DB73EB740913A0150913B01241B88
:1052B000350BE091E806F091E906E217F307A0F458
:1052C0002E1B3F0B2817390778F0AC014E5F5F4F5C
:1052D0002417350748F04E0F5F1F5093E90640939F
:1052E000E8068193919302C0E0E0F0E0CF01DF9106
:1052F000CF9108950F931F93CF93DF93009709F4F5
:105300008CC0FC013297138212820091EA06109140
:10531000EB060115110581F420813181820F931F65
:105320002091E8063091E9062817390779F5F093BE
:10533000E906E093E80671C0D80140E050E0AE17FE
:10534000BF0750F412962D913C911397AD01211592
:10535000310509F1D901F3CF9D01DA0133832283AD
:1053600060817181860F971F8217930769F4EC01A2
:1053700028813981260F371F2E5F3F4F31832083CD
:105380008A819B8193838283452B29F4F093EB06DA
:10539000E093EA0642C01396FC93EE931297ED0158
:1053A000499159919E01240F351FE217F30771F4BB
:1053B00080819181840F951F029611969C938E9304
:1053C0008281938113969C938E931297E0E0F0E094
:1053D000D80112968D919C911397009719F0F801BE
:1053E0008C01F6CF8D919C9198012E5F3F4F820FDB
:1053F000931F2091E8063091E9062817390769F4D0
:10540000309729F41092EB061092EA0602C013823C
:1054100012821093E9060093E806DF91CF911F9165
:105420000F91089581E090E0F8940C94172A19E008
:10543000C0E8D9E004C0FE010E94DF282196C138EF
:08544000D107C9F7F894FFCF72
:105448000000000000000000D007E803000000177B
:1054580000090015001000040037000000000000DB
:1054680000001D00D2FF00E1000000000000FFFF67
:10547800FFFF010000000000EC06800005000400AA
:105488000A0A010204081020408000000000F30905
:105498009D0A140A090A0A0EAA0E860E00000000C8
:0A54A800E41100C180810000000043
:2070000055C000006EC000006CC000006AC0000068C0000066C0000064C0000062C0000043
:2070200060C000005EC00000F2C400005AC0000058C0000056C0000054C0000052C00000EE
:2070400050C0000078C000004CC000004AC0000048C0000046C0000044C0000042C00000BE
:2070600040C000003EC000003CC000003AC0000038C0000036C0000034C0000032C0000048
:2070800030C000002EC000002CC000002AC0000028C0000026C0000024C0000022C00000A8
:2070A00020C000001EC000001CC0000011241FBECFEFDAE0DEBFCDBF11E0A0E0B1E0E2E3BC
:2070C000FFE702C005900D92A83AB107D9F711E0A8EAB1E001C01D92AE3BB107E1F78FD30B
:2070E00026C78ECFF89410926F0010928100109285001092840081E085BF15BE47985D9AEB
:20710000289A0C94000008952091B2013091B3012F5F3F4F3093B3012093B201932F37FFA6
:2071200003C08EEF831B982F990F921710F447980895479A08951F920F920FB60F9211246E
:207140002F938F939F93EF93FF9310928500109284008091A8019091A901009741F00197D3
:207160009093A9018093A801892B09F45D9A8091AA019091AB01009741F001979093AB0126
:207180008093AA01892B09F4289AE0E0F0E0859194918F5F9F4F49F08091AC019091AD0151
:2071A00001969093AD018093AC01FF91EF919F918F912F910F900FBE0F901F90189584E0BC
:2071C0008093E9000DC08091E8008B778093E80003C08EB3882351F08091E80082FFF9CFBE
:2071E0008091E80085FFEFCF8091F1000895982F83E08093E9008091E80085FD0DC0809136
:20720000E8008E778093E80003C08EB3882369F08091E80080FFF9CF9093F1005D9884E6CB
:2072200090E09093A9018093A80108954F925F926F927F928F929F92AF92BF92CF92DF921E
:20724000EF92FF920F931F93CF93DF9384E08093E9008091E80082FF57C2289884E690E067
:207260009093AB018093AA01AADF182F853481F48CE49DE19093AD018093AC0107B600FC4B
:20728000FDCFF999FECF81E180935700E89503C0843519F494DF8DE00DC28C34E1F38035F9
:2072A000D1F3843721F484E4A2DF80E003C2813611F489E5FFC18134B1F481DF182F7FDFE3
:2072C00090E0880F991FAA2797FDA095BA2F312F330F20E0442737FD4095542F822B932B68
:2072E000A42BB52BB8C1803711F483E5E3C1833549F4C0E0D1E089917ADF21E0C730D20714
:20730000D1F7D9C1863521F481E371DF80E3D2C1833731F487E86BDF85E969DF8EE1CAC149
:207320008536B9F4E0E0F0E093E085E090935700E89507B600FCFDCF80935700E89507B65D
:2073400000FCFDCFE058FF4FA0E7E030FA0771F7A2CF823739F4E1E0F0E089E08093570024
:207360008491A8C1863439F4E0E0F0E089E08093570084919FC18E3439F4E3E0F0E089E0E5
:2073800080935700849196C1813539F4E2E0F0E089E08093570084918DC1823631F489E521
:2073A00026DF80E024DF80E885C1823419F0873609F0E5C01092AD011092AC0100DF082FE8
:2073C000FEDEF82EFCDE682E8554823008F071C1902F80E0CF2DD0E0C82BD92B10926F00B3
:2073E000173609F04BC081E180935700E895DD24CC24C3943FC0E090AE01F090AF010091CC
:20740000B0011091B101B6E46B16D9F4ED2DF0E0EE29FF29E4918E2FEADEDD2081F082E08D
:2074200090E0A0E0B0E0E80EF91E0A1F1B1FE092AE01F092AF010093B0011093B101DC2470
:2074400018C0D801C701B695A7959795879559D5CEDE82E090E0A0E0B0E0E80EF91E0A1FF2
:207460001B1FE092AE01F092AF010093B0011093B1012197209709F0BECF7DC08090AE01F5
:207480009090AF01A090B001B090B10196E4691609F05DC083E0F40180935700E89507B63E
:2074A00000FCFDCF54C0F6E46F1661F5772031F1E090AE01F090AF010091B0011091B1019E
:2074C0007EDED82ECC24852D90E08C299D29F7010C0140925700E895112482E090E0A0E08B
:2074E000B0E0E80EF91E0A1F1B1FE092AE01F092AF010093B0011093B10102C060DE582E1A
:20750000742423C0E090AE01F090AF010091B0011091B10116950795F794E79450DE682FFA
:20752000C701F7D48091AE019091AF01A091B001B091B1010296A11DB11D8093AE01909349
:20754000AF01A093B001B093B101219704C05524772444244394209709F0A5CF96E46916B6
:2075600041F485E0F40180935700E89507B600FCFDCF8DE03CDE82E080936F009CC0833492
:2075800071F40091AE011091AF0119DE90E021E0F8010C0120935700E89511247CCE8336C8
:2075A00019F5E090AE01F090AF010091B0011091B10105DEF701E16090E021E00C0120938C
:2075C0005700E895112482E090E0A0E0B0E0E80EF91E0A1F1B1FE092AE01F092AF0100936A
:2075E000B0011093B10157CE8D3661F4E091AE01F091AF0185E080935700E89507B600FCF2
:20760000FDCF49CE823551F4E091AE01F091AF0105911491812FEBDD802F4CC0843421F5FE
:20762000E090AE01F090AF010091B0011091B10116950795F794E794C2DD682FC70169D4DE
:207640008091AE019091AF01A091B001B091B1010296A11DB11D8093AE019093AF01A093D8
:20766000B001B093B10117CE843609F5E090AE01F090AF010091B0011091B101D801C70142
:20768000B695A795979587953CD4B1DD82E090E0A0E0B0E0E80EF91E0A1F1B1FE092AE010A
:2076A000F092AF010093B0011093B10104C08B3111F08FE39CDD83E08093E9009091E8002B
:2076C0008091E8008E778093E80095FF04C010C08EB38823C9F08091E80080FFF9CF809193
:2076E000E8008E778093E80003C08EB3882361F08091E80080FFF9CF84E08093E9008091F1
:20770000E8008B778093E800DF91CF911F910F91FF90EF90DF90CF90BF90AF909F908F90AC
