:100000000C9477090C949F090C949F090C949F09F8
:100010000C949F090C949F090C949F090C949F09C0
:100020000C949F090C949F090C94AE210C942022EF
:100030000C949F090C949F090C949F090C949F09A0
:100040000C949F090C949F090C949F090C949F0990
:100050000C949F090C949F090C949F090C94061B07
:100060000C949F090C949F090C949F090C949F0970
:100070000C949F090C949F090C949F090C949F0960
:100080000C94501B0C949F090C949F090C949F098D
:100090000C949F090C949F090C949F090C949F0940
:1000A0000C949F090C949F090C949F09084AD73B14
:1000B0003BCE016E84BCBFFDC12F3D6C74319ABD37
:1000C00056833DDA3D00C77F11BED9E4BB4C3E915B
:1000D0006BAAAABE000000803F05A84CCDB2D44E4A
:1000E000B93836A9020C50B9918688083CA6AAAA4C
:1000F0002ABE000000803F00411000FFFEFFFEFF0F
:10010000FEFFFEFF66FF66FFFCFF98FE00FC00009E
:1001100000FFFEFFFEFFFEFFFEFF00FF00FFFEFFF1
:10012000FEFF00FF0000007E3CFF7EFF7EFF7EFFA3
:10013000E6FFE6FFE6FFC6FF00EF0000000F060F38
:1001400006FFFEFFFEFFFEFFFEFF06FF060F000F8D
:10015000000000FFFEFFFEFFFEFFFEFF66FF66FFE2
:1001600006FF060F000F000000FFFEFFFEFFFEFF70
:10017000FEFF06FF06FFFEFFFCFF00FE000F070F5D
:10018000070F070F070F060F060F070F030F0007D4
:1001900000000007030F070F070F070F060F060FDA
:1001A000070F030F00070000000F060F060F060FD2
:1001B000060F070F070F070F030F000700000000CF
:1001C0000000000F070F070F070F070F000F0000B9
:1001D00000000000000F070F070F070F070F060FA3
:1001E000060F060F060F000F0000000F070F070F86
:1001F000070F070F060F060F070F030F000706086C
:10020000007F3E7F3E7F227F3E7F007F0077227F00
:100210003E7F3E7F207F0070007F3A7F3A7F2E7FB7
:100220002E7F007F007F227F2A7F3E7F3E7F007FE0
:10023000001F0E1F087F3E7F3E7F007F007F2E7FC6
:100240002E7F3A7F3A7F007F007F3E7F3E7F2A7F6E
:100250003A7F007F00070207027F3E7F3E7F007FDC
:10026000007F3E7F3E7F2A7F3E7F007F001F0E1F64
:100270000A7F3E7F3E7F007F14100000E020A03800
:10028000082C040400288818202020E0000000002A
:100290001F1030207B6B3717173120686820101F24
:1002A00000000000E060B0184820840404084830D2
:1002B000202060C0800000030F301030605B4A36A1
:1002C000171710202C20100A0F000080C040701853
:1002D000C8A404842C081890302060C000000007D7
:1002E000091B362121405B4A261713102C34100DB0
:1002F0000700000080807010D0848404840808D82F
:10030000302020E0000000001F10162C2C20414659
:100310005A671B1010161807000000000080E0301C
:10032000C4848484040808183020E0000000000021
:100330001C1F302C2C2C6C41424A731010180F00DB
:1003400000000000000000F018848484840C0C0875
:1003500038E000000000000000003F202C2C6C4C16
:100360004D404378080F000000000000000000C06E
:100370006C0484848484047CC000000000000000BD
:100380000000007F404C4C4C444C4C407F0000002F
:10039000000000000000E038080C0C8484848418FD
:1003A000F00000000000000000000F087843404CFF
:1003B000446C2C28203F00000000000000E02030AA
:1003C00018080804848484CC38E080000000000011
:1003D000000F181010734A40406C2C282C301F1C42
:1003E00000000000E0202030D0000884048484DC79
:1003F000187080800000000007181610101B675A44
:10040000444020242C16101F00000000C060203043
:100410009018082C8404A4CC187040C080000007F9
:100420000D10342C101317264A5B402021361B096F
:1004300007000080C0602020304808040484244C59
:1004400018B060E00000000F0A10202C20101717D1
:10045000364A5B603010300F03000000E02020209F
:1004600018882C0404042C0838A020E000000000A8
:100470001F1020686820311717376B792030101F44
:1004800000000080C0404030584CA4040406080816
:10049000103060C0800000030E3030605858613664
:1004A0001717332A2D3018090F000000C04060389C
:1004B00048CC048404044808103020C080000007A1
:1004C0000918302060505865361713232D301B0D46
:1004D000070000008080C030DCC4C40684044C08DF
:1004E000183020E0000000001F1030202040405055
:1004F0004137131315110C07000000000000C070F5
:100500009CC4C4840404448C1830E0000000000043
:10051000183F20282C404040404173131418070016
:1005200000000000000000E018C4D4848404048C9F
:100530001CF000000000000000203F6160404C40C3
:1005400040404178180F000000000000000000C08B
:100550007C0484848484047CC000000000000000CB
:100560000000007F40404048484040407F0000007D
:10057000000000000000F01C8C040484C4D4C410EB
:10058000E00000000000000000000F18784140402B
:10059000404C4060613F20000000000000E0301847
:1005A0008C44040484C4C49070C0000000000000A7
:1005B00000071814137341404040402C28203F1876
:1005C00000000000E0203098084C048406C448D0A5
:1005D00030C0808000000000070C11151313374154
:1005E000504040202030101F00000080C0203010FC
:1005F000084804048404C848386040C0000000076C
:100600000D1B302D23131736655850602030180904
:1006100007000080C06030100808060404A0485895
:10062000304040C08000000F0918302D2B331717C1
:10063000366158586030300E0300080800007848D2
:1006400068380000001C362A22361C007E4B516B95
:10065000C589D77C1CF4ACD6AAD66C38141000001F
:10066000F810A0380828282828288818A02060C05A
:10067000000000001F10362263633717173723600E
:100680006222101F00000000F020B0184828A8289F
:1006900028284830303060C0000000030F32103688
:1006A00062434236171717232021100B0F0000C09A
:1006B000E0407018C8A828A828081890302060C00A
:1006C00000000007081B36202D464342261713134F
:1006D0002131100F06000000C0407010D0A8A828DB
:1006E000A80808D0B0A020E0000000001F10162EBF
:1006F0002E204D4642671B13111018070000000002
:100700000080E030D088A8A828280818B020E00091
:10071000000000001C1F302E2E2C6C41464273132B
:1007200010180F0000000000000080E01088A8A84A
:10073000A828088818F000000000000000003F20F2
:100740002E2C6C4C4D404379080F00000000000037
:10075000000000C07808A8A8A8A80878C000000079
:10076000000000000000007F404C4C4C484C4C40C6
:100770007F000000000000000000F018880828A892
:10078000A8A88810E08000000000000000000F080A
:100790007943404D446C2C2A203F000000000000AB
:1007A00000E020B018082828A8A888D030E08000F1
:1007B00000000000000F181013734246416C2C26F5
:1007C0002E301F1C00000000E020A0B0D00808A8B8
:1007D00028A8A8D0107040C0000000000718101111
:1007E000131B6742464D202E2E12101F00000000E2
:1007F000C060203090180828A828A8C8187040E0C9
:10080000C00000060F103121131317264243442C59
:1008100020361B0807000000C06030303048282810
:1008200028A8284818B020F00000000F0B10212144
:1008300023171717364243623610320F03000000A9
:10084000C06020A0188828282828280838A010F878
:10085000000000001F102262622337171737636100
:100860002236101F00000000C060A0B05848A82821
:1008700028280808101820C0800000030F303066B8
:10088000424267361717332320331B090F0000003D
:10089000C040603848C808A8281C4808101020E04C
:1008A000800000070B1830206D464267361713236F
:1008B00021311B0D0700000080804030D0C8C828BF
:1008C000B40C4808989030E0000000001F1030265B
:1008D000204044424737131311110C070000000059
:1008E0000080C07090C8C8B42C2848889810F000C8
:1008F00000000000183F20282C404040464373135E
:100900001018070000000000000000E010C8C4AC90
:10091000A828088818F000000000000000003F60D0
:1009200060484C4040404378180F00000000000031
:10093000000000C07808B8B8B8B80878C000000057
:10094000000000000000007F4040404C4C40404010
:100950007F000000000000000000F018880828A8B0
:10096000ACC4C810E00000000000000000000F1838
:1009700078434040404C4860603F00000000000069
:1009800000F010988848282CB4C8C89070C0800027
:100990000000000000071810137343444048402C27
:1009A00028203F1800000000E030909808480CB460
:1009B00028C848D03040808000000000070C11118A
:1009C00013133747424440202630101F0000008098
:1009D000E020501008481C28A808C848386040C0CB
:1009E000000000070D1B3121231317366742466DA7
:1009F0002030180B07000080C02018100808282895
:100A000028A84858B0A060C00000000F091B33217F
:100A100023331717366742426630300F0300101039
:100A20000000F8FCFEFF9F0F0F9FFFFEFCF8000088
:100A3000000001070F3F7FFFFF7F3F0F070100000E
:100A40001010E030182C343434343434343494C43A
:100A500004FC7F404E4E55555B55554E4E406F370A
:100A6000180FD5F08D14A1C881CFD9F1AF20004265
:100A70000F28E5F6ED56D9D9E4F6EDD62AC964B7C4
:100A8000CA49A79CB25B26BBFDFFDF2A47E59CB4A1
:100A90004AAAA5726472FB76ABEC6C72FB766B951E
:100AA00064B2DBFFFFAD725476FBAD6EB51D475BE4
:100AB00065B74B2567DB2ABB5D2A399B928A5C4967
:100AC00045A6A4429E928A7CABEC76A9E46C5B6559
:100AD000B74B25675352912AA9C8945476BBDD4E73
:100AE0000A07080C0603030306003F2FB0BD54CECF
:100AF00029B9DDA6D387D3743A9D4EA7D3E9743ABA
:100B00001D515649A97C3ABDDD2AE99C543A08CAD0
:100B1000291DFED2DB6DDBE576BBDDA6D3E9743A99
:100B20009D4EA7D3E9F476BB555249E7A4B2EB58E2
:100B300057B84DA7D3E97476BBDD2E95933129655F
:100B4000955452492595DCC69E5D2AA99C73CE39E1
:100B5000E79C734E4EB7545239E79C73CE392795B4
:100B6000BA774EDDAA57AD5EFD761D593ADBB94E18
:100B7000F5B75332AB64ED6EF5AF7AF5B9CE756E5D
:100B8000BBDDAED369E75098AE9D92DB743AA6A563
:100B90005376BB554EAEB6CE49A523DB2E9D73CE04
:100BA000D5BB7F1B3D1FFCB47556E9F57A1DD4A457
:100BB000EC3ABA74E73A954AD5AE5665D5A594BBDA
:100BC00056CAB961B7F476BD5D6FD7DBED76BDDD92
:100BD0006EB7DBED72BBDD6E97DBED72BBDCA6B7EB
:100BE0004A8E5D7F3F80BC4849252B5991A595547D
:100BF000323A2595AC64744A2A59C9E89454323F74
:100C00000C2C9554A954292AA9A4AAA4A452A554E9
:100C1000A952AA14F4B84CA7D3E9742A954AF5AAA4
:100C200057E97C2D15EB769D8E6DBB4E562EDBABBA
:100C30005E752E954AA7D3E9743A3FBEA592AA2ABB
:100C4000E7A8A492AA961795545255525249259D49
:100C5000723795545255A552112EB3D974369D4E04
:100C6000A7D3E9743E9DCFE787073D5DB4D1A5A327
:100C70004B47D6D9B218B3659311A6A34B47175D5E
:100C80003AEFE122A7529D4D67D3E9743A9D4EE7B2
:100C9000D3F97C2AE7F89DEC7CB2D3C9CE75AE734C
:100CA0009DEB5CE73AD7D95C67539D7270E13E9D3E
:100CB0004EA7D3E9743A9DCE66436B3E9F4EA7D3B1
:100CC000E9743A9D4E27878DF6F964A7939DEB5CF6
:100CD000E73AD7B9CE75AEB3B9CE6693037B123F70
:100CE0003FD1974EA7D3E9743A9D4EA7D3E968D375
:100CF000E9743A9D4E479B0E8DE9743A9D4EA7D3F9
:100D0000E9743A9D0EDF843ADD76BBDD6EB73ACDED
:100D1000C7974EF7AA5739E728DBD5EE5DEDDED54C
:100D20002E429DE623D4E9B6DBED76BBD5693E7C49
:100D3000CBEDA94FFDAF7AD5FFFFFF9FDAAEE4F60A
:100D4000289D73BFEADDAB5E29A964DBA5DC5EFFED
:100D50007F727B6D977C727B6ABBEA55AF7AD5ABAD
:100D60005EF576BB92DBC377BBDAD5AE76BFEABD64
:100D700092AA5DEDAC92EEFF4F39E77697FBFFBF8D
:100D800076B58BAF573D653AEF9C53727B6ABB6A71
:100D9000BBEC55AFB25BBB7DBB7DBB6CBB44B84EFF
:100DA000E79C53B9CBBD4E2BE75CED6A57FF7FBD87
:100DB000EAAD73CE7DEA53CEB974BA5EF52A77B93F
:100DC000CB39E7EC36E59CAB5DEDFEFFDF2EDBD5E6
:100DD0002EA9A4924A2AF5A9FF558FF2B64BB5DD8C
:100DE0007EEAFFFF539FFAD476D576ABD3CA395744
:100DF000769BDCEEB6BB57BDCA39A772CE792539D2
:100E0000EDF6FF7FBBE5DCEE9554CA3997FAD4873F
:100E10006F3E9DB6DBED76BB3D9D26E453DB55CEA4
:100E20003995DDBE5DF6AAA76CBB944AAAECF6FF25
:100E3000DF4925DB6E5FF54A6D57727B3A1D1FBE99
:100E4000D3E9743A9D4EA7D3E9743A1D6D3ADA742A
:100E50003A9D4EA7D3A1299D4E479B8E361D9AD20F
:100E6000A10F0608007F3E7F0C7F187F3E7F007F2A
:100E7000001F0E7F3E7F387F0E7F001F0E08007F11
:100E80003E7F3E7F0A7F021F007F367F3E7F087FC6
:100E9000367F007F007F367F007F1508007F3E7F12
:100EA0003E7F187F3E7F007F3E7F3E7F2A7F227FEE
:100EB000007F3E7F3E7F207F2070007F3E7F3E7F11
:100EC000127F1E3F003F1508007F3E7F3E7F127F4E
:100ED0001E3F007F3E7F3E7F207F2070007F3E7F51
:100EE0003E7F127F3E7F007F0E7F3E7F387F0E7FEA
:100EF000001F15080077227F3E7F3E7F227F007F04
:100F00003E7F0C7F187F3E7F007F3E7F3E7F0A7FC3
:100F1000021F007F3E7F3E7F227F3E7F007F7F3F1C
:100F2000A040B9DD6EDF6E9D54643595DD6EB7FF70
:100F3000FF5BE5B8AAA292DBEDF6FF7FAB2453D5A9
:100F4000F6FFB776BBDDBE3D252B551593DD6EB79D
:100F5000FFFF6F4FC94A5545E594DD6EFFFFFF5F08
:100F6000057D67B395AC5CED6A57BBDAD5AEE4EDB1
:100F7000B6B5FB4FBD92D995E3923A9DAE9D52AE68
:100F8000942B75EA6A59EACA96ABE4E52A79B6B2B7
:100F9000E52A79B6D45557E5AA6CC9CB55F27255F6
:100FA000B6E4B6B225CF75AE73B52B77B9CB5DD7A6
:100FB00075EE7439F5A94F7DEA954C6F6BA596D9FE
:100FC000DAD5AE76B5AB5D2D2B59D97CF0AAF239C6
:100FD00055BBDA55A53AD7B94A56369BCE29972E36
:100FE000B5BB76B5AB64BA76B5AB5DED52A9D4E7C7
:100FF0009CAA7255D5555D95ABAAABEA4A5D55578B
:10100000EA525D5597EAAABA54A7EA529DAA4B75CF
:10101000555DAAABEA525DA9ABEA4A5D5557D55575
:101020007555E5AA9493B54BA7D3A954EA53D23981
:10103000BB4EA73EA7B8944FE7B395AC64E73A57C9
:1010400095AA5D9DCA2938319BAD5CAD4AA95A95D8
:10105000BBD4659395DCEE2A77B94BA9DAD54E4916
:10106000E594734AD5EA5ED54EC96D3A9D54F3CBEB
:10107000AEEAAA5CB65297BA9453AE96DFEA579D91
:101080002BA59CECC82A99AEB83AE55C29D5A9FFF6
:10109000BB96CA9572A5AE525DD9CA56ADDA29F88B
:1010A000289D4E6FB795ACE4252FA5CAA9DA957295
:1010B000B5AC6C3E58EBDDBB47527279B94ABA6E9B
:1010C00075B9CB5DEE7297BBDCE52EFDA952D55DFF
:1010D00055AAAE7B7575777575B7DEA6B795545270
:1010E000B9F2AD145EF3E97436F4EEA85C2D2BA9C9
:1010F000647A9BDE56AE7697ABE4B67255A95B5523
:10110000A59CDBA6D3E9743A9D4E6F6B77B9CA2ACA
:101110001DEFDEBDF3C34F7BF7CECFBBBC54EF6EEC
:1011200025F525F3E974252B59C9CA756AA5CAD5D1
:10113000A9AAAE4EF5F7F7EA729D3BBBCEAE9DAACB
:101140005257D5555D555D555DD5557555D5555796
:10115000555DA5AEBA2A75D5AA5C55EA5655A95B68
:101160009552B72A75D59FBADCA73A5795ABCA55A1
:10117000AEAAAB72555D555D95ABBCCBAEB3EBEC97
:101180003A5BD9CA55E56A559592769D4FA7D3E942
:101190007436BB72B25297AB9593B1BF7BF7B05622
:1011A000DEA9DCC9FDD6D9CA55A56E5555AE535535
:1011B0005DDD57A9DB294AAA53A95455577757AE85
:1011C0005355B94E55E55A55A56E5595BA955D8757
:1011D000CE743A5DB9CBDDAB5B5D4E49E79C934A7B
:1011E0002ABBDDAED3616BA96E5595BA5555EA564B
:1011F00055A95B55E56A7749252B3B96B2CA5DEA4E
:101200005655A95B55E56A55CB65369D7CF74E056D
:10121000CDA5F3E96C252B59C94AD62E95CA75AED2
:10122000739DEB5CE73AD7B9CE75AE739D4AD5AEE8
:101230009295AC64252B79B9CB5DEED2913BA58319
:10124000A69258CA5DEE7297AB64252B59C94AD64F
:101250002E95CA75AE739DEB5CE73AD7B9CE75AEE5
:10126000739D4AD5AE9295AC6465D3D974D01008FD
:101270000B0002020201000904000001020200004A
:10128000052400100105240101010424020605249F
:101290000600010705810310004009040100020A4D
:1012A000000000070502024000000705830240001D
:1012B000000403090412010002EF02014041233639
:1012C0008000010102030141726475696E6F204C58
:1012D0004C430041726475696E6F204C656F6E619E
:1012E00072646F000102040810204080D02811248D
:1012F0001FBECFEFDAE0DEBFCDBF11E0A0E0B1E06E
:10130000E4EEFDE502C005900D92A238B107D9F7D1
:1013100028E0A2E8B1E001C01D92A339B207E1F7CD
:1013200019E0C7E7D9E004C02197FE010E94E52E2D
:10133000C637D107C9F70E9402260C94F02E0C94F0
:101340000000CF93DF93EC018BE0FB013296DE01CE
:10135000129601900D928A95E1F7FB0185858D87A4
:1013600086858E8787858F8786E07096DE0150960A
:1013700001900D928A95E1F786E0FB017696DE01F9
:10138000569601900D928A95E1F7FB01848D8C8F22
:10139000858D968DA78DB0A18D8F9E8FAF8FB8A3B1
:1013A00081A192A1A3A1B4A189A39AA3ABA3BCA339
:1013B00085A196A1A7A1B0A58DA39EA3AFA3B8A711
:1013C000CE01DF91CF910895CF93DF93EC018BE0B5
:1013D000FB013296DE01129601900D928A95E1F79B
:1013E000FB0185858D8786858E8787858F8786E03B
:1013F0007096DE01509601900D928A95E1F786E095
:10140000FB017696DE01569601900D928A95E1F7E2
:10141000FB01848D8C8F858D968DA78DB0A18D8FCE
:101420009E8FAF8FB8A381A192A1A3A1B4A189A3DC
:101430009AA3ABA3BCA385A196A1A7A1B0A58DA398
:101440009EA3AFA3B8A7CE01DF91CF910895FC0171
:10145000653451F492A9491720F4941B92AB80E0B3
:10146000089512AA81E008950895CF92DF92EF9235
:10147000FF92CF93DF93EC016D8D7E8D8F8D98A1C0
:101480000E947A2CCB0168E671E00E94D12E97FF72
:1014900002C088599E4FBC01990F880B990B0E947E
:1014A000B22C6D8F7E8F8F8F98A320E030E044EBBD
:1014B00053E40E94082C6B017C018A85682F70E040
:1014C00080E090E00E94B22C9B01AC01C701B60104
:1014D0000E94D52D0E94812C6B87DF91CF91FF90C8
:1014E000EF90DF90CF9008954F925F926F927F922E
:1014F0008F929F92AF92BF92CF92DF92EF92FF9224
:101500000F931F93CF93DF93EC01F9010E891F898D
:10151000A88DB98DEB8C2081318182819381B4803B
:10152000F580DA8C48018D0C911C281539050CF0DA
:101530008DC02B0D311D021713070CF087C09D01C4
:101540002E0D311D821793070CF080C08F0D911D59
:10155000A817B9070CF07AC08F01DB01E881F98187
:1015600020813181FA0140816C91CE01F901099508
:10157000811189C0F801608171812E893F89888934
:101580009989261737070CF063C02C89621B7109F3
:10159000681B790B6F5F7F4F072E000C880B990B30
:1015A0000E94B22C2A813B814C815D810E941F2BBD
:1015B0006B017C01F80182819381488D598D2A89C4
:1015C0003B89481759070CF04AC04D89841B910983
:1015D000821B930B0196BC01990F880B990B0E94FB
:1015E000B22C2E813F81488559850E941F2B4B01CB
:1015F0005C0120E030E0A901C701B6010E94C82DBE
:1016000026013701181624F077FA709477F8709451
:1016100020E030E0A901C501B4010E94C82DA50158
:10162000940118160CF05058C301B2010E94FE2B11
:1016300087FF1CC0A70196016A817B818C819D81F7
:101640000E94202B6A837B838C839D8380E01CC057
:10165000F8012481620F711D681B790B9DCFF80181
:101660004581840F911D821B930BB5CFA501940179
:101670006E817F81888599850E94202B6E837F8370
:1016800088879987E3CF81E0DF91CF911F910F91F8
:10169000FF90EF90DF90CF90BF90AF909F908F9092
:1016A0007F906F905F904F90089580E00895CF9263
:1016B000DF92EF92FF920F931F93CF93DF93EC0192
:1016C0006A897B89072E000C880B990B0E94B22C2B
:1016D0002E813F81488559850E94202B0E947A2CBB
:1016E0006B017C010C891D8988899989BC01990F3E
:1016F000880B990B0E94B22C2A813B814C815D8121
:101700000E94202B0E947A2C7F8B6E8BD98EC88EE4
:101710000A8F1B8FDF91CF911F910F91FF90EF9058
:10172000DF90CF9008954F925F926F927F928F9249
:101730009F92AF92BF92CF92DF92EF92FF920F9360
:101740001F93CF93DF93EC01C9A0DAA0EBA0FCA01C
:1017500020E030E04AE754E46D8D7E8D8F8D98A1B6
:101760000E94D52D20E030ED4FE557E40E94082C73
:101770002B013C010E94032C9B01AC01C701B60167
:101780000E94D52D2A813B814C815D810E94202BB6
:101790004B015C016A837B838C839D83C301B2010F
:1017A0000E94422E9B01AC01C701B6010E94D52DBB
:1017B0009B01AC016E817F81888599850E941F2BDA
:1017C0006B017C016E837F838887998720E030E0FE
:1017D000A901C501B4010E94FE2B87FF05C01A8232
:1017E0001B821C821D8224C00E8510E0B801012ED0
:1017F000000C880B990B0E94B22C9B01AC01C50117
:10180000B4010E94202B20E030E048EC53E40E9419
:10181000C82D18166CF480E991E0801B910BBC0177
:1018200080E090E00E94B02C6A837B838C839D8350
:1018300020E030E0A901C701B6010E94FE2B87FF1E
:1018400005C01E821F821886198623C00F8510E0EE
:10185000B801012E000C880B990B0E94B22C9B0141
:10186000AC01C701B6010E94202B20E030E048EC1B
:1018700053E40E94C82D181664F460E971E0601BFF
:10188000710B80E090E00E94B02C6E837F8388878C
:101890009987DF91CF911F910F91FF90EF90DF908B
:1018A000CF90BF90AF909F908F907F906F905F9000
:1018B0004F9008958F929F92AF92BF92DF92EF92D6
:1018C000FF920F931F93CF93DF93EC017B01D42EF4
:1018D0000BE911E0F80124813581468157816C8143
:1018E0007D818E819F810E941F2B0E947A2C4B014B
:1018F0005C01F801208131814281538168817981C5
:101900008A819B810E941F2B0E947A2CDC01CB01D3
:101910000AEF2D2DA701B4010E948D1DDF91CF91FB
:101920001F910F91FF90EF90DF90BF90AF909F902D
:101930008F9008952F923F924F925F926F927F9275
:101940008F929F92AF92BF92CF92DF92EF92FF92CF
:101950000F931F93CF93DF93CDB7DEB72B970FB6BF
:10196000F894DEBF0FBECDBF1701D9011C91FB015A
:101970004080518062807380DC01CD90DD90ED90DD
:10198000FC9080909B0190909C01A0909D01B09054
:101990009E01FA01608170E080E090E00E94B22C2C
:1019A0009B01AC01C701B6010E94202BA501940147
:1019B0000E94C82D18160CF042C020E030E04EEF17
:1019C00052E4C501B4010E94202B9B01AC01C70168
:1019D000B6010E94FE2B87FF32C060919F0170917B
:1019E000A0018091A1019091A20169837A838B83E8
:1019F0009C83612F70E080E090E00E94B22C9B01FC
:101A0000AC01C301B2010E94202B29813A814B8194
:101A10005C810E94C82D181694F420E030E04CE759
:101A200052E469817A818B819C810E94202B9B01E9
:101A3000AC01C301B2010E94FE2B87FDA4C120911D
:101A40009F013091A0014091A1015091A201C301D9
:101A5000B2010E941F2B20E030E040E052E40E94DF
:101A60001F2B2B013C01A5019401C701B6010E9467
:101A70001F2B20E030E040E852E40E941F2B9B0126
:101A8000AC01C301B2010E94082C6B017C0120E073
:101A900030E0A901C301B2010E94FE2B87FF0EC0F6
:101AA000A701960160E070E088EF91EC0E94082C9D
:101AB0000E947A2C9B0161EE7FEF0DC0A701960179
:101AC00060E070E088EF91E40E94082C0E947A2C7C
:101AD0009B016EE170E0213C8FEF38079CF420E021
:101AE00030E04CEF52ECC701B6010E94D52D20E04A
:101AF00030E040E05FE30E94D52D0E947A2C21EC7B
:101B00003FEF15C02034310594F020E030E04CEF79
:101B100052E4C701B6010E94D52D20E030E040E03C
:101B20005FE30E94D52D0E947A2C2EE330E0402FF7
:101B3000033008F042E0D1018C918B01005E1F4F11
:101B4000F901E05CFF4FFB87EA87E42EF12C882344
:101B500009F468C0440F4F5FB8016E197F0921E096
:101B6000CF010E94061C81E090E06C01CE18DF08D6
:101B7000222433242E183F08220C331CA12CB12C14
:101B800088248394912C6A857B857A8369831E835C
:101B90000D83AE14BF040CF0F6C07FEFC716D70656
:101BA00041F081E0E81AF10892E0290E311CC20CE4
:101BB000D31CAFEFAA1ABA0AB2E08B0E911CC80C64
:101BC000D91C3E2D330F3F5F21E0432F28014E18D3
:101BD0005F08B20189819A818A0D9B1D39870E9415
:101BE000061C6D807E806A187B0821E0482DB301B9
:101BF0008A859B858E0D9F1D0E94061C21E03985DC
:101C0000432FB20189819A818A199B090E94061C7F
:101C100021E0482DB3018A859B858E199F090E947A
:101C2000061CB7CF81E090E05C01AE18BF088827A2
:101C300099278E199F091C01220C331CA8014E0DF7
:101C40005F1D21E06A857B8586EA97E00E94A725D3
:101C5000A8014E195F0921E06A857B8586EA97E035
:101C60000E94A7256A857B856E0D7F1D21E0A80156
:101C700086EA97E00E94A7256A857B856E197F0911
:101C800021E0A80186EA97E00E94A725C12CD12C6B
:101C9000E1E0F0E0FA83E9836A857B857E836D83EA
:101CA00018870F83CE14DF040CF06DC07FEFA716EA
:101CB000B70641F081E0E81AF10892E0290E311CE4
:101CC000A20CB31CAFEFCA1ADA0AE981FA81329684
:101CD000FA83E983AE0EBF1E6D807E806C0C7D1C86
:101CE00021E048018E0C9F1CA401B30186EA97E015
:101CF0000E94A7254D805E804C185D0821E0A4015C
:101D0000B20186EA97E00E94A72521E048018E18DB
:101D10009F08A401B30186EA97E00E94A72521E06D
:101D2000A401B20186EA97E00E94A7258F809884DB
:101D30008C0C9D1C21E0A4016A847B846E0C7F1CAA
:101D4000B30186EA97E00E94A72521E0A4014A8416
:101D50005B844E185F08B20186EA97E00E94A725CF
:101D60008F8098848C189D0821E0A401B30186EA35
:101D700097E00E94A72521E0A401B20186EA97E03E
:101D80000E94A7258FCF2B960FB6F894DEBF0FBE0B
:101D9000CDBFDF91CF911F910F91FF90EF90DF901A
:101DA000CF90BF90AF909F908F907F906F905F90FB
:101DB0004F903F902F900895FC011282138214825D
:101DC0001582168217821086118612861386148653
:101DD0008BE291E09183808387E48587168617865E
:101DE000118A108A138A128A148A158A148E158E03
:101DF000168E178E10A211A212A213A214A280E0B6
:101E000090E0A0E0B0E485A396A3A7A3B0A70895AF
:101E1000CF93DF93EC010E94DC0E83E491E0998381
:101E200088830E94AA1F69A77AA78BA79CA7072E61
:101E3000000C880B990B0E94B22C6A837B838C83E5
:101E40009D836BA57CA5072E000C880B990B0E9427
:101E5000B22C6E837F838887998780E18E878F87F6
:101E600086E0EBE1F1E0DE01509601900D928A955B
:101E7000E1F784E48D87DF91CF910895CF93DF93CD
:101E8000EC010E94DC0E8DE391E0998388830E942F
:101E9000AA1F69A77AA78BA79CA7072E000C880BFF
:101EA000990B0E94B22C6A837B838C839D836BA5E4
:101EB0007CA5072E000C880B990B0E94B22C6E8318
:101EC0007F838887998780E18E878F8786E0EBE123
:101ED000F1E0DE01509601900D928A95E1F783E4DE
:101EE0008D87DF91CF9108954F925F926F927F928D
:101EF0008F929F92AF92BF92CF92DF92EF92FF921A
:101F00000F931F93CF93DF93CDB7DEB7A9970FB68B
:101F1000F894DEBF0FBECDBFFC01653409F06FC081
:101F200082A9481718F4841B82AB81C08F0112AAC2
:101F300011A212A213A214A2C58CD68CE78CF0A019
:101F40006785669570E080E090E00E94B22CF80111
:101F500026813781408551850E94202B20E030E08A
:101F600040E850E40E941F2B4B015C01F80186857C
:101F70008695682F70E080E090E00E94B22CF80116
:101F800022813381448155810E94202B20E030E062
:101F900040E850E40E941F2B2B013C01CE0101962A
:101FA0000E94DC0E83E791E09A8389834B825C82F6
:101FB0006D827E828F829886A986BA86CE8EDF8ECB
:101FC000E8A2F9A21AA21BA21CA21DA284E08B8780
:101FD00098E09D878D8F80910107843040F591E0D6
:101FE000980F90930107F9E28F9FC0011124BE0161
:101FF0006F5F7F4F8E5F984F0E94A10918C06334B6
:1020000041F481E083AB8091820190918301059638
:1020100008C0643461F413AA809182019091830115
:102020000A96909383018093820181E001C080E051
:10203000A9960FB6F894DEBF0FBECDBFDF91CF914A
:102040001F910F91FF90EF90DF90CF90BF90AF90D6
:102050009F908F907F906F905F904F900895CF9258
:10206000DF92EF92FF92CF93DF93EC010E94DC0EA0
:1020700083E393E3A3EBBEE389A79AA7ABA7BCA72F
:102080008AE097EDA3EABCE38DA79EA7AFA7B8AB04
:1020900083E089AB85E08AAB87E391E0998388830D
:1020A0001BAA80E090E0A0E6B0E48CAB9DABAEABA9
:1020B000BFAB80E090E0A0E8BFEB88AF99AFAAAFDC
:1020C000BBAF0E94632A28E631E040E050E00E9466
:1020D000BC2A0E94B22C6D8F7E8F8F8F98A30E9496
:1020E000632A20E9C22EDD24D394E12CF12CA70130
:1020F00096010E94BC2A0E94B22C6A837B838C8347
:102100009D830E94632AA70196010E94BC2A0E9417
:10211000B22C6E837F838887998784E18E8790E1D4
:102120009F8796E0E1E2F1E0DE01509601900D928A
:102130009A95E1F798E19A878AAB80E58D87DF91E0
:10214000CF91FF90EF90DF90CF900895CF92DF92E4
:10215000EF92FF92CF93DF93EC010E94DC0E83E3BA
:1021600093E3A3EBBEE389A79AA7ABA7BCA78AE03A
:1021700097EDA3EABCE38DA79EA7AFA7B8AB83E01A
:1021800089AB85E08AAB1BAA1CAA8DEC9CECACE465
:10219000BDE38DAB9EABAFABB8AF81E391E099836C
:1021A00088830E94AA1F69AF7AAF8BAF9CAF072EBE
:1021B000000C880B990B0E94B22C6A837B838C8362
:1021C0009D836BAD7CAD072E000C880B990B0E9494
:1021D000B22C6E837F838887998784E18E8780E124
:1021E0008F8786E0E1E2F1E0DE01509601900D92EA
:1021F0008A95E1F70E94632A25E030E040E050E054
:102200000E94BC2A9B01AC012B5F3F4F4F4F5F4F99
:1022100061E070E080E090E00E94BC2ACA01B90150
:102220000E94B22C2AE037ED43E25CE30E94202BAF
:102230006DA77EA78FA798ABCDA8DEA8EFA8F8ACB6
:102240000E94632A20E030E0A901C701B6010E9484
:10225000202B6DAB7EAB8FAB98AF88E18A8785E48E
:102260008D87DF91CF91FF90EF90DF90CF90089511
:102270002F923F924F925F926F927F928F929F9296
:10228000AF92BF92CF92DF92EF92FF920F931F9384
:10229000CF93DF93CDB7DEB7C854D1090FB6F8940A
:1022A000DEBF0FBECDBF00E010E0B801012E000C74
:1022B000880B990B0E94B22C20919F013091A001B4
:1022C0004091A1015091A2010E941F2B0E947A2CE3
:1022D0006034710530F421E040E880E090E00E9435
:1022E0001F25005B1F4F003E21E01207F1F600E0C2
:1022F00010E0B801012E000C880B990B0E94B22C43
:1023000020919B0130919C0140919D0150919E0133
:102310000E941F2B0E947A2CDC01CB0121E040E4BB
:1023200060E070E00E94061C005B1F4F003E31E041
:102330001307F9F680914006FE0131961F018111C5
:1023400017C080EE95E00E94570B40E060E47AE011
:1023500082EE95E00E945A0C1982710102E02FEE84
:1023600035E04EEE55E066EE75E082EE95E016C083
:1023700083EB95E00E94570B40E06EE17AE085EB3D
:1023800095E00E945A0C1982710102E022EC35E0BE
:1023900041EC55E069EB75E085EB95E00E949A0C05
:1023A00080913F06882309F4D5C0C0902E06D090B6
:1023B0002F06E0903006F0903106209136063091DD
:1023C00037064091380650913906C701B6010E9480
:1023D000C82D18160CF055C02091320630913306E6
:1023E0004091340650913506C701B6010E94082C71
:1023F00020E030E040E85FE30E941F2B6B017C018E
:102400000E940C2585FF19C020914106309142069B
:102410004091430650914406C701B6010E94202B0B
:102420009B01AC0160912A0670912B0680912C06CD
:1024300090912D060E94202B1CC00E940C2586FF27
:1024400020C02091410630914206409143065091B0
:102450004406C701B6010E94202B9B01AC0160918C
:102460002A0670912B0680912C0690912D060E94D1
:102470001F2B60932A0670932B0680932C06909353
:102480002D060E940C2582FF31C020913A06309122
:102490003B0640913C0650913D0660912E0670919E
:1024A0002F0680913006909131060E94202B609378
:1024B0002E0670932F068093300690933106C090BD
:1024C0003206D0903306E0903406F0903506A7012E
:1024D00096010E94C82D1816ECF5C0922E06D092D7
:1024E0002F06E0923006F092310634C00E940C258F
:1024F00083FF30C0C0902E06D0902F06E0903006AB
:10250000F0903106209145063091460640914706ED
:1025100050914806C701B6010E94C82D1816D4F480
:1025200060913A0670913B0680913C0690913D0681
:102530009B01AC010E94202B9B01AC01C701B6019D
:102540000E941F2B60932E0670932F0680933006F7
:10255000909331068DE096E00E94930B8DE096E01B
:102560000E94570B8DE096E00E94350A80913F064D
:10257000882309F44EC080911C0629EFF22EF80E34
:1025800010911B06185020919F013091A00140919D
:10259000A1015091A20160911306709114068091DF
:1025A0001506909116060E941F2B20E030E040E8AF
:1025B00050E40E94202B0E947A2C4B015C01209158
:1025C0009B0130919C0140919D0150919E01609131
:1025D0000F067091100680911106909112060E94CC
:1025E0001F2B20E030E040E850E40E94202B0E94A6
:1025F0007A2CDC01CB0100E02F2D412FB4010E9489
:10260000321C409118066CE576E08FE096E00E945F
:102610005A0C60911C06669570E080E090E00E9484
:10262000B22C20911306309114064091150650915A
:1026300016060E94202B6B017C0180911B0686955B
:10264000682F70E080E090E00E94B22C20910F068D
:102650003091100640911106509112060E94202BD5
:102660004B015C0140909B0150909C0160909D014A
:1026700070909E0120E030E048E552E4C301B201D1
:102680000E94202BA50194010E94C82D18163CF42D
:1026900020E030E048E552E4C501B40120C020E06C
:1026A00030E04EEF52E4C301B2010E94202B20E043
:1026B00030E048E552E40E941F2BA50194010E94DE
:1026C000FE2B87FF16C020E030E048E552E4C5014C
:1026D000B4010E94202B20E030E04EEF52E40E9433
:1026E0001F2B60939B0170939C0180939D0190939D
:1026F0009E0180909B0190909C01A0909D01B090C4
:102700009E0120E030E0A901C501B4010E94FE2B2A
:1027100087FF09C010929B0110929C0110929D01AD
:1027200010929E011CC020E030E04EEF52E4C50143
:10273000B4010E94202B20E030E048EC53E40E94DA
:10274000C82D181664F480E090E8A8E8B3E48093FC
:102750009B0190939C01A0939D01B0939E0180905A
:102760009F019090A001A090A101B090A20120E053
:1027700030E048ED51E4C501B4010E94202BA701CF
:1027800096010E94C82D18163CF420E030E048ED78
:1027900051E4C701B60120C020E030E04CE752E42C
:1027A000C501B4010E94202B20E030E048ED51E447
:1027B0000E941F2BA70196010E94FE2B87FF16C0C7
:1027C00020E030E048ED51E4C701B6010E94202B23
:1027D00020E030E04CE752E40E941F2B60939F0101
:1027E0007093A0018093A1019093A201C0909F01DA
:1027F000D090A001E090A101F090A20120E030E093
:10280000A901C701B6010E94FE2B87FF09C01092E3
:102810009F011092A0011092A1011092A2011CC070
:1028200020E030E04CE752E4C701B6010E94202BC3
:1028300020E030E048EC53E40E94C82D181664F400
:1028400080E090E8A8EAB3E480939F019093A00110
:10285000A093A101B093A201198226EF35E0A10156
:102860006DEE75E08DE096E00E94740A8823A1F079
:10287000C1010E94080FB10183EB95E00E94E409B9
:102880008AA59BA5ACA5BDA58093DC059093DD052D
:10289000A093DE05B093DF05198229EC35E0A10194
:1028A00060EC75E08DE096E00E94740A8823A1F048
:1028B000C1010E943E0FB10180EE95E00E94E40943
:1028C0008AA59BA5ACA5BDA58093090690930A0691
:1028D000A0930B06B0930C0680913F06882359F015
:1028E0008091A9079091AA076CE370E00E94BD2E29
:1028F000892B09F493C510E009E2809101071817AC
:1029000008F05DC0212F30E0029FF001039FF00D21
:102910001124EF5FF84F458D411102C0F12E2FC0F9
:10292000658570E08091A9079091AA070E94BD2E4D
:10293000892B79F44150458F4485642F70E083855D
:1029400090E00197681779071CF44F5F448701C036
:102950001486029F7001039FF00C1124C7018E5F43
:10296000984F0E94930BF701EF5FF84F44856AE39D
:1029700076E0C7018C5F984F0E945A0C1EC0809170
:102980000107F816B0F42F2D30E0C9010196089F19
:10299000B001099F700D11246E5F784F029FC00136
:1029A000039F900D11248E5F984F0E94A109F3940C
:1029B000E6CF81508093010711501F5F9ECF809119
:1029C0004906833009F440C0C1010E94A610E0917D
:1029D0004906E330C8F581E08E0F80934906FDE398
:1029E000EF9F80011124B101C801865B994F0E94BD
:1029F000A109F801E75BF94F8AA59BA5ACA5BDA588
:102A000082A793A7A4A7B5A78EA59FA5A8A9B9A992
:102A100086A797A7A0ABB1AB8AA982AB8BA983ABE2
:102A20008CA984AB8DA985AB8EA99FA9A8ADB9ADA2
:102A300086AB97ABA0AFB1AF8AAD9BADACADBDAD32
:102A400082AF93AFA4AFB5AF1EAE809149064EAD35
:102A5000481708F0DFC33EAD232F30E021963FAF8B
:102A60002EAF21974DE3429FC001439F900D11244B
:102A70008C01075B194FF80123A9211102C1809134
:102A80003F06882349F0809182019091830103964B
:102A900090938301809382014DE321962EAD3FAD4B
:102AA0002197429F8001439F100D1124075B194F0E
:102AB00020E030E040E05FE3F80162A173A184A16F
:102AC00095A10E94D52D6B017C01F801468C578C95
:102AD00060A071A06089669570E080E090E00E943F
:102AE000B22CF80127813085418552850E94202B28
:102AF00020E030E040E850E40E941F2B4B015C01D5
:102B0000F8016785669570E080E090E00E94B22C45
:102B1000F80123813481458156810E94202B20E0D9
:102B200030E040E850E40E941F2BAB01BC01C10122
:102B300028964FAF289729965FAF299726966FAFB3
:102B4000269727967FAF27970E94DC0E23E731E078
:102B50003A83298328964FAD289729965FAD299708
:102B600026966FAD269727967FAD27974B835C837C
:102B70006D837E838F829886A986BA864E8E5F8EFD
:102B800068A279A2CAA2DBA2ECA2FDA234E03B8734
:102B900048E04D873D8F80910107843068F491E0D3
:102BA000980F90930107E9E2E89FC0011124B10159
:102BB0008E5F984F0E94A109FEAC80914906F816DD
:102BC00008F058C08F2D90E09C012F5F3F4FFDE330
:102BD000F29F6001F39FD00C1124B601665B794F20
:102BE000F89F8001F99F100D1124C801865B994F51
:102BF0000E94A109D601A75BB94F9A964D915D91AC
:102C00006D917C919D97F801E75BF94F42A753A71F
:102C100064A775A79E964D915D916D917C91D1971A
:102C200046A757A760AB71ABD2968C91D29782AB77
:102C3000D3968C91D39783ABD4968C91D49784AB55
:102C4000D5968C91D59785ABD6964D915D916D912A
:102C50007C91D99746AB57AB60AF71AFDA968D9147
:102C60009D910D90BC91A02D82AF93AFA4AFB5AF55
:102C7000F394A3CF8150809349062EAD21502EAFFF
:102C8000C5C2FC01E65BF94F2396FFAFEEAF239779
:102C9000CF010E94930B23968EAD9FAD23970E9488
:102CA000570B23968EAD9FAD23970E94350AF801EE
:102CB00026A537A540A951A962A173A184A195A118
:102CC0000E94202BF80162A373A384A395A3C6A03E
:102CD000D7A0E0A4F1A4A70196010E94C82D181660
:102CE0002CF4F801C2A2D3A2E4A2F5A24DE32196EE
:102CF0002EAD3FAD2197429F6001439FD00C112420
:102D0000C601875B994F7C01FC01808999EFB92E40
:102D1000B80E1785185020919F013091A001409165
:102D2000A1015091A20167817085818592850E94E1
:102D30001F2B20E030E040E850E40E94202B0E944E
:102D40007A2C2B013C0120919B0130919C014091F8
:102D50009D0150919E01F701638174818581968167
:102D60000E941F2B20E030E040E850E40E94202B1E
:102D70000E947A2CDC01CB0100E02B2D412FB20107
:102D80000E94321C9601245B394F25963FAF2EAF2F
:102D90002597F701448568E772E0C9010E945A0C43
:102DA0008091A9079091AA076AE070E00E94BD2E69
:102DB000892B31F4F70185A9F1E08F27F70185AB65
:102DC0004DE321962EAD3FAD2197429F8001439F59
:102DD000100D1124075B194FF80185A9882309F408
:102DE00057C020919F013091A0014091A1015091C5
:102DF000A20167817085818592850E941F2B6B01DE
:102E00007C01F8016089669570E080E090E00E94A6
:102E1000B22C9B01AC01C701B6010E94202B20E01F
:102E200030E040EC50E40E941F2B0E947A2C6B0192
:102E30007C0120919B0130919C0140919D0150911A
:102E40009E01F80163817481858196810E941F2B08
:102E50004B015C01F8016785669570E080E090E0C9
:102E60000E94B22C9B01AC01C501B4010E94202B31
:102E700020E030E040E850E40E941F2B0E947A2CB2
:102E8000DC01CB0101E023E047E0B6010E94321CE7
:102E90004DE321962EAD3FAD2197429F6001439FA8
:102EA000D00C11248601075B194F20910F06309139
:102EB00010064091110650911206F8016381748149
:102EC000858196810E941F2B4B015C012091130686
:102ED000309114064091150650911606F80167814D
:102EE0007085818592850E941F2B2B013C01A501D5
:102EF0009401C501B4010E94D52D4B015C01A301D1
:102F00009201C301B2010E94D52D9B01AC01C50104
:102F1000B4010E94202B0E94502E9B01AC01F1E0D5
:102F2000F98360E070E088E493E40E94082C0E943A
:102F3000812C9601275A394FA601485A594FC6018C
:102F4000805B994F7101062FBC0125968EAD9FAD18
:102F500025970E949A0C80913F06882369F096017C
:102F6000205A394FA6014558594FB601695A794F31
:102F70008DE096E00E94740A8090130690901406EB
:102F8000A0901506B090160640900F0650901006BF
:102F900060901106709012064DE321962EAD3FAD64
:102FA0002197429F8001439F100D1124075B194F09
:102FB000F80122A533A544A555A562A173A184A15A
:102FC00095A10E94C82D18160CF004C18091A90784
:102FD0009091AA076AE070E00E94BD2E892B81F4CF
:102FE0000E94632A2AE030E040E050E00E94BC2AC0
:102FF000633030F4F80184A9F1E08F27F80184AB45
:103000004DE321962EAD3FAD2197429F8001439F16
:10301000100D1124075B194FF80184A9882351F181
:10302000C2A0D3A0E4A0F5A020E030E040E05FE340
:1030300066A177A180A591A50E94D52D9B01AC0129
:10304000C701B6010E94C82D1816A4F4F80166A5A0
:1030500077A580A991A99B01AC010E94202B9B011F
:10306000AC01C701B6010E941F2BF80162A373A334
:1030700084A395A34DE321962EAD3FAD2197429FAA
:103080008001439F100D1124075B194FF8016381E4
:103090007481858196810E947A2C6B017C01C30129
:1030A000B2010E94812C9601261B370BB901072E15
:1030B000000C880B990B0E94B22C9B01AC01C5013E
:1030C000B40126962FAF269727963FAF27972896CD
:1030D0004FAF289729965FAF29970E94812C6B01EB
:1030E0007C01F80167817085818592850E947A2C28
:1030F000F601E61BF70BBF01072E000C880B990B9E
:103100000E94B22C26962FAD269727963FAD279783
:1031100028964FAD289729965FAD29970E949F2B3F
:10312000F801C68CD78CE0A0F1A020E030ED4FE58F
:1031300057E40E94D52D20E030E04AE754E40E9495
:10314000082C20E030E044E353E40E94202B0E944E
:103150007A2C4B015C01C701B6010E947A2CC40194
:10316000861B970B68E671E00E94D12E845E9D4F0E
:1031700068E671E00E94D12EBC01645B7109072EE4
:10318000000C880B990B0E94B22C4B015C0120E0D3
:1031900030E048E452E4F80162A173A184A195A152
:1031A0000E94082CF80126A937A940AD51AD0E9414
:1031B000202B9B01AC01C501B4010E94D52D9B01C0
:1031C000AC01C701B6010E94202BF801668F778FF2
:1031D00080A391A310E0809149061817B8F4FEADC2
:1031E0001F1791F02DE3219FB00111249B01205A5C
:1031F000394FAB014558594F695A794F23968EADD7
:103200009FAD23970E94740A1F5FE5CF3EAD3F5FDD
:103210003EAF1BCC4AE0B1018091820190918301C5
:103220000E94712A00E012E086E0C82ED12CF10144
:1032300001900020E9F73197E219F309802F90E01F
:1032400096012E1B3F0B8217930760F420E04EEF90
:1032500051E062E070E0812F90E00E9406251B5F44
:103260000F5FE5CF00E0F10101900020E9F7319711
:10327000E219F309802F90E08E179F0780F4F10187
:10328000E80FF91F208120534EEF51E062E070E01B
:10329000812F90E00E9406251B5F0F5FE4CF0FB6E1
:1032A000F894DEBF0FBECDBF80913F0681119AC05A
:1032B00080910101893124F48F5F8093010185C0E1
:1032C00080910201813E20F48F5F809302017DC0D6
:1032D0001092020182ED80930101109283011092FD
:1032E00082011092030181E0809304011092050194
:1032F0001092060110924906C1010E943E0FB101D1
:1033000080EE95E00E94E4098AA59BA5ACA5BDA529
:103310008093090690930A06A0930B06B0930C06BF
:10332000C1010E94080FB10183EB95E00E94E409FE
:103330008AA59BA5ACA5BDA58093DC059093DD0572
:10334000A093DE05B093DF05C1010E942F10B101EB
:103350008DE096E00E94E4098AA59BA5ACA5BDA5D9
:103360008093360690933706A0933806B0933906BB
:103370008EA59FA5A8A9B9A980933A0690933B066C
:10338000A0933C06B0933D068AA980933E068BA984
:1033900080933F068CA9809340068DA99EA9AFA972
:1033A000B8AD8093410690934206A0934306B09334
:1033B000440689AD9AADABADBCAD80934506909304
:1033C0004606A0934706B093480660910101062E79
:1033D000000C770B8091000120E048EF50E090E076
:1033E0000E9406250E94541CC85BDF4F0FB6F8945C
:1033F000DEBF0FBECDBFDF91CF911F910F91FF9028
:10340000EF90DF90CF90BF90AF909F908F907F9084
:103410006F905F904F903F902F9008958091820120
:10342000909183010196909383018093820163CAF6
:1034300040918A0850918B08209188083091890822
:1034400042175307B4F49091E8009570E1F390911E
:10345000E80092FD19C08093F10080918A08909154
:103460008B0801968F739927892B19F48EEF80931F
:10347000E80080918A0890918B08019690938B08C0
:1034800080938A0881E0089580E00895CF92DF92CA
:10349000EF92FF920F931F93CF93DF936C017A010A
:1034A0008B01C0E0D0E0CE15DF0589F0D8016D9129
:1034B0008D01D601ED91FC910190F081E02DC601C6
:1034C0000995892B11F47E0102C02196ECCFC7012A
:1034D000DF91CF911F910F91FF90EF90DF90CF90F0
:1034E00008953FB7F8948091900190919101A09137
:1034F0009201B091930126B5A89B05C02F3F19F00A
:103500000196A11DB11D3FBFBA2FA92F982F882763
:10351000820F911DA11DB11DBC01CD0142E0660FBE
:10352000771F881F991F4A95D1F708950E94EB2EA7
:10353000DF92EF92FF920F931F93CF93DF93D82EDA
:103540008A017B01E40EF51EEB01CE15DF0571F05B
:10355000D7FE03C0FE01849101C088810E94181A21
:1035600021968111F2CF8FEF9FEF01C0C801DF914B
:10357000CF911F910F91FF90EF90DF9008956150D0
:1035800030F02091F100FC0120830196F8CF2898BB
:1035900084E68093990108958F929F92AF92BF9293
:1035A000CF92DF92EF92FF926B017C010E94711A21
:1035B0004B015C01C114D104E104F104F1F00E945B
:1035C000711ADC01CB0188199909AA09BB09883E47
:1035D0009340A105B10570F321E0C21AD108E108BA
:1035E000F10888EE880E83E0981EA11CB11CC1145E
:1035F000D104E104F10419F7DDCFFF90EF90DF90E3
:10360000CF90BF90AF909F908F9008951F920F9290
:103610000FB60F9211242F933F938F939F93AF93E5
:10362000BF938091940190919501A0919601B091E2
:10363000970130918F0123E0230F2D3720F401965D
:10364000A11DB11D05C026E8230F0296A11DB11DC5
:1036500020938F018093940190939501A0939601FC
:10366000B09397018091900190919101A091920166
:10367000B09193010196A11DB11D8093900190938B
:103680009101A0939201B0939301BF91AF919F914B
:103690008F913F912F910F900FBE0F901F90189513
:1036A0001F920F920FB60F9211242F933F934F93B7
:1036B0005F936F937F938F939F93AF93BF93EF939A
:1036C000FF938091860190918701A0918801B0912C
:1036D0008901892B8A2B8B2B81F1809185018111A6
:1036E0000BC098B180E4892788B980918401882330
:1036F00019F088B1805888B980918601909187012E
:10370000A0918801B0918901181619061A061B06A6
:10371000B4F48091860190918701A0918801B091C5
:1037200089010197A109B1098093860190938701CE
:10373000A0938801B093890102C00E945824FF9190
:10374000EF91BF91AF919F918F917F916F915F9119
:103750004F913F912F910F900FBE0F901F90189592
:1037600080919801E0918C01F0918D01882349F0BE
:10377000CF01029690938D0180938C018591949155
:103780000895CF01029690938D0180938C018081E2
:10379000918108954F925F926F927F928F929F9244
:1037A000AF92BF92CF92DF92EF92FF920E94632A74
:1037B0006B017C010E94632A2B013C0182E7882E69
:1037C00099249394A12CB12CC701B601A5019401B1
:1037D0000E94BC2ACB010F966C01C301B201A50166
:1037E00094010E94BC2A7B012FE0E20EF11CC7016C
:1037F000B601FF90EF90DF90CF90BF90AF909F9079
:103800008F907F906F905F904F900895DF92EF922E
:10381000FF920F931F93CF93DF937C01D22E8B01E6
:10382000040F111DEB0177FF0EC0C0E0D0E00BC00C
:10383000C417D5077CF42D2DAE01B70186EA97E0B9
:103840000E94A7252196A801013411058CF340E4BC
:1038500050E0EECFDF91CF911F910F91FF90EF904D
:10386000DF900895CF92DF92EF92FF920F931F9314
:10387000CF93DF936B01122FEC017C01E40EF11C5E
:10388000CE15DF0544F4202F412FB601CE010E9452
:10389000061C2196F5CFDF91CF911F910F91FF90DC
:1038A000EF90DF90CF900895E3EAF1E081E0A0E0AF
:1038B000B8E000800EBC8111012C1197A0FDFDCF56
:1038C0000192B9F70DB408952F923F924F925F92F3
:1038D0006F927F928F929F92AF92BF92CF92DF9220
:1038E000EF92FF920F931F93CF93DF93CDB7DEB785
:1038F0002B970FB6F894DEBF0FBECDBF4C016B0106
:103900005A8349831C821B821D821E8268E070E0FC
:10391000CE0101960E94622501961C0168E070E0CC
:10392000CE0101960E9462258C0161E070E0CE011B
:1039300001960E946225482FC401820D931D97FDB8
:10394000D3C050E8851691040CF0CEC098012F5FCB
:103950003F4FC601820F931F97FDC6C060E4C61695
:10396000D1040CF0C1C08601D7FE04C00027112786
:103970000C191D09077011277601D7FE03C077E0E7
:10398000E70EF11C63E0F594E7946A95E1F7D7FE42
:1039900009C081E0E81AF10888E090E0BC01601BF2
:1039A000710B8B01690137FF03C077E0C70ED11C93
:1039B00053E0D594C7945A95E1F727703327232B0A
:1039C00019F08FEFC81AD80A4F8331E020E0A12CFC
:1039D000B12C612C712C88E090E0AC01401B510BA4
:1039E000598748876C147D040CF07EC044244394AE
:1039F000512C61E070E0CE0101962A873B870E943E
:103A000062252A853B85892B21F452E0450E511C05
:103A1000F0CFB201CE0101960E946225AC014F5F4A
:103A20005F4FE0E0F0E02A853B85E417F50708F0FA
:103A300052C06F816111232B330F09F04AC0B701C7
:103A4000660D771DCB010196099798F5C501880D84
:103A5000991D8038910568F52B015694542C442407
:103A600057944794480C591C4A0C5B1C6F3F8FEFCE
:103A70007807B1F1D201AD55BE4F822F002E01C0A3
:103A8000880F0A94EAF79C91892B8C9301151105F4
:103A900081F06730710569F0D201AD5DBD4F30E056
:103AA000088402C0359527950A94E2F78C91282B5B
:103AB0002C939FEFA91AB90AA214B30444F06FEF34
:103AC000661A760A31E020E0A12CB12C02C031E068
:103AD00020E03196AACF4F8151E045274F8382CF16
:103AE00001151105C9F6E5CF2B960FB6F894DEBF88
:103AF0000FBECDBFDF91CF911F910F91FF90EF903F
:103B0000DF90CF90BF90AF909F908F907F906F90FD
:103B10005F904F903F902F9008956F927F928F9279
:103B20009F92AF92BF92CF92DF92EF92FF920F934C
:103B30001F93CF93DF9300D000D0CDB7DEB7DC0169
:103B40004115510509F4E8C1FA0114913196949197
:103B50006A01F2E0CF0ED11CE12EF12C222309F1F3
:103B6000492F469546954695E42FF0E041E050E018
:103B7000892F877011F440E050E04E0F5F1FE49EE4
:103B8000F001E59EF00DF49EF00D1124033011F4C8
:103B9000EE0FFF1F2E9FA0012F9F500D1124C40E6A
:103BA000D51E0F3F09F402E0AD014E0D5F1D141646
:103BB00015060CF0B1C1A038B1050CF0ADC19B01E8
:103BC000290F311D121613060CF0A6C160347105C1
:103BD0000CF0A2C1C114D10409F49EC1362F377074
:103BE000FB0177FD379623E0F595E7952A95E1F7F8
:103BF0002E2F77FF04C0332311F02FEF2E0FB7FFC6
:103C000005C0662777276A1B7B0B02C060E070E067
:103C10004038510524F050E85A1B952E01C0912ED2
:103C2000961AA22E022E000CBB082F3F1CF48A2DE0
:103C3000809501C080E041E0592F577009F440E0C1
:103C4000969596959695940FA90EB11C49E0A416E9
:103C5000B10414F098E0921B981B280F40E824034D
:103C6000A00DB11D1124A60FB71F819F600D711DFE
:103C700011243601660E771E41E050E06A01032EE2
:103C800002C0CC0CDD1C0A94E2F7033009F400C139
:103C9000A0F4013009F4B1C0023009F03DC18FEF4A
:103CA0008C9DB0018D9D700D1124609570957C8365
:103CB0006B838C80492F420F29C00A3F31F00B3FA4
:103CC00009F02AC1492F420F84C0492F420F4FC02B
:103CD000F301E00FF11FE491EC9D5001ED9DB00C5C
:103CE0001124BA82A98227FD05C0FC015081562308
:103CF000A52AA082311113C00F5F1F4F019609152D
:103D000038F32F5F6E0C7F1CA058BF4F241709F4A7
:103D100003C1CD018D559E4F00E010E0F0CF27305C
:103D20005CF7FC01E058FF4F50815821BA805B29B5
:103D30005083E2CFF301E60FF71FE491EC9D800181
:103D4000ED9D100D11241A83098327FD04C0FC0189
:103D50005081052B0083311113C06F5F7F4F019697
:103D6000691540F32F5F6E0C7F1CA058BF4F2417BE
:103D700009F4D2C0CD018D559E4F60E070E0F0CFC8
:103D800027305CF7FC01E058FF4F10815A81512B1E
:103D90005083E3CFF301E00FF11FE491EC9DC001EC
:103DA000ED9D900D11249A83898327FD05C0809590
:103DB000FB01908189238083311114C00F5F1F4F55
:103DC0006F5F7F4F091530F32F5F6E0C7F1CA0587B
:103DD000BF4F241709F4A0C0BD016D557E4F00E010
:103DE00010E0F0CF273054F7FB01E058FF4F8A81F5
:103DF0008095908189238083E1CF892E820EA30153
:103E0000CB0186199709281509F486C0BD016D55A7
:103E10007E4F5B0100E010E00915A0F5F801E80F06
:103E2000F91FE40FF51FE491EC9DB001ED9D700DBD
:103E30001124609570957C836B83FA01E00FF11F6C
:103E4000E491EC9D3001ED9D700C11247A82698221
:103E500027FD05C0F50170816723662A6082332340
:103E600059F027304CF4F501E058FF4F70816C8118
:103E700067237A81672B60830F5F1F4FFFEFAF1AB5
:103E8000BF0ACACF2F5F4E0D5F1DA058BF4FBBCFDB
:103E9000A92CB12CF301E60FF71FAD55BE4F60E81A
:103EA00070E06A197B09EA18FB088701000F111FEF
:103EB000592D492F792CE32ECF93DF93ED01EF9607
:103EC000EF9622968590A590EE2059F08C9C4001AB
:103ED000AC9C500127302CF4F880B094FB20F928DA
:103EE000F99222233AF0FC90A094FA20F828FD924F
:103EF0000C947B1F11965A9529F74A9551F0572D2E
:103F000023951124E00FF11DA60FB11DC60FD11D81
:103F1000D9CFDF91CF9111240F900F900F900F9078
:103F2000DF91CF911F910F91FF90EF90DF90CF9095
:103F3000BF90AF909F908F907F906F900895209149
:103F4000AC07282329F49091AB07982381E009F46A
:103F500080E008958F929F92AF92BF92CF92DF92AE
:103F6000EF92FF920F931F93CF93DF930E94CA1B90
:103F7000EB018C01072E000C880B990B0E94B22CD0
:103F80006B017C0180909B0190909C01A0909D0111
:103F9000B0909E0120E030E0A9010E94202BA501F5
:103FA00094010E94C82D18167CF0BE01C801DF9153
:103FB000CF911F910F91FF90EF90DF90CF90BF9026
:103FC000AF909F908F90089520E030E04EEF52E444
:103FD000C501B4010E94202B9B01AC01C701B601B1
:103FE0000E94FE2B87FFE1CFB801012E000C880B49
:103FF000990B0E94B22C6B017C0180909F019090E4
:10400000A001A090A101B090A20120E030E0A901A0
:104010000E94202BA50194010E94C82D18162CF691
:1040200020E030E04CE752E4C501B4010E94202BAF
:104030009B01AC01C701B6010E94FE2B87FFB5CFE3
:1040400095CF65E070E080E090E00C94CC1AFC0124
:1040500080919A01811103C08FEF9FEF08959FB760
:10406000F89482E08093E9002091F20030E012168B
:10407000130614F421E030E02115310559F0289899
:1040800084E6809399018091F10080838091F20011
:10409000882319F09FBFC90108958BE68093E8003B
:1040A000F9CF2FB7F89483E08093E9009091E8006E
:1040B000892F807295FF04C09091F20080E4891BE3
:1040C0002FBF08958091B50781110DC082E08093C4
:1040D000B10784E08093B2071092B4071092B3073F
:1040E00081E08093B50781EB97E00895CF93DF934C
:1040F0001F92CDB7DEB76983DC01ED91FC910280A0
:10410000F381E02D41E050E0BE016F5F7F4F0995E4
:104110000F90DF91CF91089583E08093E900809123
:10412000F200882319F08AE38093E8000895FC01E7
:104130008485958597FD0BC09FB7F89482E08093A6
:10414000E9008091F2009FBF90E0019608959FB72B
:10415000F89482E08093E9008091F2009FBF90E0A4
:1041600008958F929F92AF92BF92CF92DF92EF927B
:10417000FF920F931F93CF93DF935C016B017A0142
:1041800080911601882309F45BC080919A018823ED
:1041900009F456C080918E0880FF05C08091E00030
:1041A00082608093E000E70110E00AEF83E0882E50
:1041B0009AE3992E2097D9F10E94512081110AC0CB
:1041C000015009F43DC061E070E080E090E00E94A1
:1041D000CC1AF0CF282F30E0C217D3070CF48C2F65
:1041E0004FB7F8948092E9009091E80095FF1DC0C8
:1041F000282F30E0C21BD30BF601982F915020F0EE
:1042000081918093F100FACFC20ED31E112319F0D1
:104210009092E80009C08091E80085FD06C0909268
:10422000E80011E0209709F010E04FBFC3CF111153
:10423000C3CF5D9884E680938F081E141F0444F05A
:1042400081E090E0F5019383828380E090E001C0FB
:10425000C701DF91CF911F910F91FF90EF90DF90F9
:10426000CF90BF90AF909F908F9008950E94512063
:1042700090E008950F931F93CF93DF931F92CDB7D4
:10428000DEB78C01FC018485958597FF0EC0CE01B9
:1042900001960E942720019719F4298130E002C07D
:1042A0002FEF3FEFF80135872487F8018485958546
:1042B0000F90DF91CF911F910F910895CF93DF93CE
:1042C0001F92CDB7DEB7FC018485958597FD05C0AB
:1042D0002FEF3FEF358724870BC0CE0101960E9458
:1042E0002720019719F4898190E002C08FEF9FEF9A
:1042F0000F90DF91CF9108950F931F93CF93DF938A
:104300001F92CDB7DEB782E0898342E450E06FE6CA
:1043100072E180E80E94981A0E946220DC011296E5
:104320000D911C9113970115110569F0D801ED91BC
:10433000FC910280F381E02DBE016F5F7F4FC801C9
:10434000099597FF07C089810F90DF91CF911F9149
:104350000F910895F80100851185E5CF1F920F9206
:104360000FB60F9211248F939F938091E10090914B
:10437000E100937F9093E10083FF0FC01092E9006A
:1043800091E09093EB001092EC0092E39093ED009B
:1043900010929A0198E09093F00082FF20C093E081
:1043A0009093E9009091F200992319F09AE3909389
:1043B000E80090918F08992339F090918F089150DF
:1043C00090938F08992389F190919901992339F05D
:1043D00090919901915090939901992341F184FF13
:1043E00010C08091E2008E7E81608093E200809117
:1043F000E1008F7E8093E10080918E088E7E806147
:1044000011C080FF16C08091E2008E7E8061809393
:10441000E2008091E1008E7E8093E10080918E0821
:104420008E7E816080938E0804C05D9ACDCF289ADD
:10443000D6CF9F918F910F900FBE0F901F90189520
:104440001F920F920FB60F921124CF92DF92EF922C
:10445000FF920F931F932F933F934F935F936F930D
:104460007F938F939F93AF93BF93EF93FF93CF93DC
:10447000DF93CDB7DEB76C97DEBFCDBF1092E900FA
:104480008091E80083FFEDC168E0CE0145960E946F
:10449000BF1A82EF8093E8008D8987FF05C0909155
:1044A000E80090FFFCCF03C09EEF9093E800982FA8
:1044B000907609F0C6C09E892F89188D91110CC085
:1044C000803829F480918D088093F10002C0109209
:1044D000F1001092F10048C1422F50E0512B913071
:1044E00051F4811141C14130510509F03DC1809124
:1044F0008D088D7F0BC0933061F4811135C141303F
:10450000510509F031C180918D08826080938D083A
:104510002BC1953041F48091E80080FFFCCF2068EA
:104520002093E30021C1963009F05FC0EB8CFC8C36
:104530001092E90010928B0810928A08123091F5BF
:1045400010928908109288080E947C2199E0BE018F
:104550006F5F7F4FDB01E92F1D92EA95E9F79983A1
:104560001A8391E09E8390EA98879AEF9987209129
:104570008A0830918B08275F3F4F3C832B838D83C4
:104580001092E90010928B0810928A08F092890824
:10459000E092880849E050E080E00E94981A0E946A
:1045A0007C21E2C0F0928908E09288080E94622093
:1045B000DC011296ED90FC901397E114F10409F4DC
:1045C000C0C0D701ED91FC910480F581E02DBE01C2
:1045D0006B5E7F4FC7010995009719F00CF0C4C0BE
:1045E000C7C0F701E084F184E8CF973009F4C0C078
:1045F000983021F481E08093F100B6C0993009F041
:10460000B3C0837009F0B4C0ECE7F1E081E021E0D1
:1046100036E39081992361F08093E9002093EB00C9
:1046200091919093EC003093ED008F5F873089F784
:104630008EE78093EA001092EA008F8980939A01B6
:1046400093C08B8D9C8D1092E90010928B08109274
:104650008A089093890880938808898D811156C0B3
:104660008E899D89913A59F4813209F081C047E0E1
:1046700050E06FE071E080E00E94981A75C09132BE
:1046800009F076C0833289F4888D90E0982F8827CE
:104690002F89822BA0E0B0E080930B0190930C0156
:1046A000A0930D01B0930E015FC0803269F4809138
:1046B000E80082FFFCCF67E08FE091E00E94BF1A24
:1046C0008BEF8093E80006C0823209F04DC08F89DD
:1046D0008093160180918C08882319F0EEEFFAE0A0
:1046E00002C0E0E0F8E080910F0190911001A091EC
:1046F0001101B0911201803B9440A105B10509F070
:104700007BC08091160180FF93C076C00E9462201A
:10471000DC0112960D911C9113970115110541F1C1
:10472000D801ED91FC910190F081E02DBE016B5E0E
:104730007F4FC8010995811117C0F80100851185C7
:10474000ECCF113009F44EC0133091F48F898823D7
:1047500009F445C0823081F440E860E183ED92E1E4
:104760000E94C525882321F08EEF8093E80079C050
:1047700081E28093EB0075C0813029F440E86BE062
:1047800087EC92E1EDCF833099F70E946220DC0143
:104790001296ED90FC9013978E010F5F1F4F6801EA
:1047A000E114F10479F0D701ED91FC910680F781D5
:1047B000E02DB801C7010995080F111DF701E0842C
:1047C000F184EECFD8011C92F60101900020E9F7A8
:1047D0003197BF016C197D0940E0C601C1CF61EB83
:1047E00072E102C065EB72E16115710509F2FB012E
:1047F000449150E080E840CF0FB6F894A89580919E
:104800006000886180936000109260000FBEA895E0
:10481000EE3F2AE0F20739F08091FE0A9091FF0AFC
:1048200091838083A1CF1092FF0A1092FE0A9CCF41
:10483000EE3F8AE0F80731F0808191819093FF0A82
:104840008093FE0A87E797E7918380839BE088E166
:104850000FB6F894A895809360000FBE9093600007
:1048600083CF6C960FB6F894DEBF0FBECDBFDF913D
:10487000CF91FF91EF91BF91AF919F918F917F91D8
:104880006F915F914F913F912F911F910F91FF90E9
:10489000EF90DF90CF900F900FBE0F901F90189564
:1048A00080918E0108950895089580E090E0089524
:1048B000CF92DF92EF92FF920F931F93CF93DF93EC
:1048C0000E94B01B811520E8920761F4809171006D
:1048D0008D7F8093710010929100469847981092B6
:1048E00092088BC021E020939208813020E8920743
:1048F00051F480918A0190918B0190938D01809366
:104900008C010E94B01B97FD05C0209191082223C5
:1049100009F43FC02091900821113BC021E0209371
:104920008401EC01DF77209769F481E080938501B1
:1049300046983FE9C32E3FE0D32EE12CF12CCAEF7D
:10494000D0E014C08E0120E030E060E472E48FE03B
:1049500090E0A90198010E94BC2A69017A0181E0D6
:10496000C81AD108E108F10810928501E091B1055B
:10497000F091B2050995811103C081E08093850112
:10498000809184018823B9F180918501811133C020
:1049900003C010928401C5CF46992DC0479A0E944A
:1049A000B01B009771F09C01DE010E94102BDC010E
:1049B000CB0129E0B595A795979587952A95D1F7CD
:1049C00003C08FEF9FEFDC01109290002AE020934C
:1049D0009100D0929900C0929800809386019093A4
:1049E0008701A0938801B093890180917100826052
:1049F0008093710002C04798D2CFDF91CF911F9171
:104A00000F91FF90EF90DF90CF9008950F9303E008
:104A10000E948D1D0F9108958FB18095807F669BB8
:104A200088601C9B8460089510928E013E983F9888
:104A300008953E9A3F9A81E080938E010895FC018B
:104A4000840F911D18161906E4F5E038F105CCF530
:104A5000F7FF02C0E0E0F0E08138910514F080E853
:104A600090E0382F3E1BAB0177FF02C0495F5F4FDC
:104A700083E0559547958A95E1F75695542F44273D
:104A800057954795E40FF51FED55FE4F6770772753
:104A900081E090E001C0880F6A95EAF7482F222351
:104AA00049F0213071F4315020F08081842B8193C2
:104AB000FACF08958095315020F0908198239193FA
:104AC000FACF08951F93CF93DF93DC0120E030E00D
:104AD00040E050E011E0C1E0D0E02617370791F147
:104AE00014968C911497811115C014961C931497E9
:104AF00012968D919C911397ED91FC911197E80F6F
:104B0000F91FE4911596EC931597019613969C93D3
:104B10008E93129714969C91149715968C911597D5
:104B2000892349F0FE01022E02C0EE0FFF1F0A94F6
:104B3000E2F74E2B5F2B990F14969C9314972F5FDF
:104B40003F4FCBCFCA01DF91CF911F9108956038BD
:104B50007105D0F440345105B8F4E4EEF2E180E19F
:104B6000849FD001A0781124A60F4770E40FF11D97
:104B70008491AD55BE4F222319F06C91862B03C052
:104B800080956C9186238C930895CF92DF92EF925B
:104B9000FF920F931F93CF93DF931F92CDB7DEB792
:104BA000182F062FE42E862F880F8E5F99830E9480
:104BB000181A83E00E94181AF12EC12E9981D92E5D
:104BC0008C2D8F19801798F4F601E7FE02C08491AE
:104BD00001C080810E94181A182F80E00E94181AC4
:104BE0008123FFEFCF1ADF0A8111EACF01C081E0F4
:104BF0000F90DF91CF911F910F91FF90EF90DF9079
:104C0000CF900895CF93DF9300D01F92CDB7DEB73A
:104C1000789484B5826084BD84B5816084BD85B597
:104C2000826085BD85B5816085BD80916E008160A3
:104C300080936E0010928100809181008260809349
:104C4000810080918100816080938100809180004B
:104C500081608093800080919100826080939100B8
:104C6000809191008160809391008091900081609B
:104C7000809390008091C10084608093C1008091F6
:104C8000C10082608093C1008091C10081608093E7
:104C9000C1008091C30081608093C3008091C000F7
:104CA00082608093C0008091C20081608093C200C6
:104CB00080917A00846080937A0080917A0082608B
:104CC00080937A0080917A00816080937A0080914D
:104CD0007A00806880937A0010929A0110928D0871
:104CE00010928E088091D70081608093D70080EA6F
:104CF0008093D80089B5806189BD89B5826089BDFE
:104D000009B400FEFDCF61E070E080E090E00E9419
:104D1000CC1A8091D8008F7C80618093D8008091DC
:104D2000E000807F8093E0008091E1008E7E8093A0
:104D3000E1008DE08093E200559A209AEEEFFFE7C4
:104D4000859194918B3F9C4D19F481E080938C0860
:104D500081EC80937C0085B1806F85B984B1877EBA
:104D600084B984B1876E84B95E9A5F988AB1806D88
:104D70008AB9769A6E9881B3806F81BB899880B327
:104D80008D7080BB80E58CBD81E08DBD0E942120AF
:104D90005F9A0E9421205E985C98E2E6FAE08DE03E
:104DA0008E0F94919EBD00000DB407FEFDCF31968D
:104DB0008E13F7CF5C9A81E8809364008091650040
:104DC0008160809365000E940C25803839F42E980C
:104DD00080916400806280936400FFCF82E090E065
:104DE0000E94A62A882319F00E94192502C00E9459
:104DF0001425212C60E8362E73EAE72E75E0F72E95
:104E0000E6E1CE2EE4E0DE2EF2E3AF2EB12CADE2F1
:104E10008A2EA8E09A2EB4E66B2E712C552453945A
:104E200059E1452E8FB7F894409194015091950126
:104E300060919601709197018FBF8091AE07342FDA
:104E4000381B832F9091AF07992329F03093B00737
:104E50001092AF0734C19091AD07391740F48F5FBE
:104E6000891708F02CC153BE889513BE28C15092F3
:104E7000AF074093AE078091A9079091AA070196CA
:104E80009093AA078093A9078091AB078093AC0702
:104E90000E940C258093AB0780910701811110C0FF
:104EA0000E940C2586FD0CC012C18091A90790912B
:104EB000AA0766E970E00E94BD2E892B09F018C18F
:104EC00050920701809103018111F7C08091050183
:104ED000811117C080E20E949F1F882331F08091CA
:104EE0000401882371F081500AC080E40E949F1F52
:104EF000882339F080910401833018F48F5F809308
:104F0000040184E00E949F1F882309F44FC0809110
:104F10000401813061F580930301809164008E7FEC
:104F20008093640080917A00806480937A008091FD
:104F30007A0086FDFCCF00917800109179000E94E4
:104F4000711A20E030E0980111270027600F711FCF
:104F5000821F931F611571058105910511F00E9453
:104F6000682A80916400816080936400A6C08330C9
:104F7000C1F480918E01882319F00E94142502C08B
:104F80000E94192560918E0182E090E069830E9461
:104F9000A62A6981681781F082E090E00E94AE2A1B
:104FA0000BC0809306015092050106C088E00E9464
:104FB0009F1F81111092050180910501811167C029
:104FC0004EE15FE060E070E080E090E00E94641CF1
:104FD00080910401849D802D1124815F282F30E071
:104FE0003B832A8301E02AE047E167E370E08A819E
:104FF0009B810E94321C0A811B810150110920E013
:1050000049E166E370E0C8010E941F2520E04BE003
:1050100066E370E0C8010E94061C20E04BE066E3F6
:1050200070E08A819B8147960E94061C20E042EF37
:105030005EE068E370E080E190E00E94062520E0F9
:1050400046EC5EE068E370E089E290E00E940625AD
:1050500020E04AE95EE068E370E082E490E00E94CC
:10506000062520E04CE75EE068E370E08BE590E029
:105070000E94062520918E0142E65EE068E370E022
:105080008AE690E00E9406250E94541C18C0809178
:105090000601811109C04FED5CE060E070E080E244
:1050A00090E00E94641CF0CF823071F743EE5BE029
:1050B00060E070E080E090E0F4CF0E94381180E082
:1050C00090E0892B09F4AECE0E940000A7CE60913B
:1050D0000A0165300CF0E9CE6F5F60930A01062E7D
:1050E000000C770B809109014AEE5AE090E0D9CF8D
:1050F00080910801811127C0809171008D7F80937C
:10510000710010929801F0928D01E0928C01F09262
:105110008B01E0928A01D092A405C092A305B092BF
:10512000A605A092A5059092A8058092A705709269
:10513000AA056092A9053092AC052092AB050E94A9
:1051400058245092080160910A01062E000C770B3A
:10515000809109014AEE5AE090E00E94641C60913F
:105160000A01062E000C770B675E7F4F80910901C4
:1051700090E002E020E041EE5AE080960E948D1D12
:1051800000E025E040E86FE270E08EE190E00E94F0
:10519000321C4FE65AE06EE270E08EE190E081CF83
:1051A0002F923F924F925F926F927F928F929F9237
:1051B000AF92BF92CF92DF92EF92FF920F931F9325
:1051C000CF93DF931092C0071092BF0788EE93E051
:1051D000A0E0B0E08093C1079093C207A093C307FB
:1051E000B093C4078FE491E09093BE078093BD070E
:1051F0008FEF9FEF9093CA078093C90789E791E0EB
:105200009093A7078093A6071092AB071092AC0764
:1052100080E18093AD071092AA071092A90710921F
:10522000AF0780E594E29093B2058093B10580E0EA
:1052300090E89093B0058093AF0546983E9A4798C2
:105240003F9A10920107C2E0D7E003E711E0CE01D8
:105250000E94DC0E19830883A99687E0C63AD80716
:10526000B1F7109249068AE496E00E94A61087E8FA
:1052700096E00E94A61084EC96E00E94A610109280
:105280000D080EE018E0C2E4D8E08CE1E82E88E0DA
:10529000F82E93E3492E542C93EB692E9EE3792E3E
:1052A0002DE6C22E21E0D22E34E1332E40E1242E11
:1052B000C8010E94DC0ED7015B964D925D926D9203
:1052C0007C925E978AE097EDA3EABCE3F701878FB3
:1052D00090A3A1A3B2A3FE01339783E0808331960C
:1052E00095E090833196108218828DEC9CECACE4B2
:1052F000BDE389839A83AB83BC83D801CD92DC92D2
:105300000E94AA1FF80161AF72AF83AF94AF6D81A5
:105310007E81072E000C880B990B0E94B22CD801BD
:1053200012966D937D938D939C9315976F817885DD
:10533000072E000C880B990B0E94B22CF801668393
:10534000778380879187D7013C92FE01B5972082B1
:10535000DE019497E5E4F1E086E001900D928A95F4
:10536000E1F70E94632A25E030E040E050E00E942F
:10537000BC2A9B01AC012B5F3F4F4F4F5F4F61E059
:1053800070E080E090E00E94BC2ACA01B9010E944E
:10539000B22C2AE037ED43E25CE30E94202BF701B8
:1053A000678F70A381A392A389809A80AB80BC8011
:1053B0000E94632A20E030E0A901C501B4010E94E7
:1053C000202B69837A838B839C83FE01BA9788E1C3
:1053D0008083339695E49083035C1F4FED96ADE395
:1053E000EA0EF11CB8E008381B0709F061CF8DE028
:1053F00096E00E942F1080EE95E00E943E0F83EB16
:1054000095E0DF91CF911F910F91FF90EF90DF908A
:10541000CF90BF90AF909F908F907F906F905F9054
:105420004F903F902F900C94080F8F929F92AF92C5
:10543000BF92CF92DF92EF92FF92CF93DF93EC0176
:10544000688179818A819B8161157105810591054A
:1054500021F464E279ED8BE597E02DE133EF41E053
:1054600050E00E94BC2A49015A019B01AC01A7EA05
:10547000B1E40E94DB2A6B017C01ACEEB4EFA50124
:1054800094010E94E92ADC01CB018C0D9D1DAE1D0B
:10549000BF1DB7FF03C00197A109B0488883998356
:1054A000AA83BB83BC01CD019F77DF91CF91FF9091
:1054B000EF90DF90CF90BF90AF909F908F90089526
:1054C0000E94152A089587E191E00E94152A089507
:1054D00060931701709318018093190190931A013A
:1054E0000895BB274A3031F4992322F4BDE2909508
:1054F00081959F4F0C947D2ABB27FB015527AA2736
:10550000880F991FAA1FA41710F0A41B8395505150
:10551000B9F7A05DAA3308F0A95DA193009779F7C8
:10552000B111B1931192CB010C94962ADC01FC01CC
:10553000672F71917723E1F7329704C07C916D93C7
:1055400070836291AE17BF07C8F30895F999FECF33
:1055500092BD81BDF89A992780B50895262FF999B3
:10556000FECF1FBA92BD81BD20BD0FB6F894FA9A46
:10557000F99A0FBE01960895052E97FB1EF400942C
:105580000E94D32A57FD07D00E94EE2A07FC03D0C1
:105590004EF40C94D32A50954095309521953F4F69
:1055A0004F4F5F4F089590958095709561957F4F0F
:1055B0008F4F9F4F08950E94102BA59F900DB49F71
:1055C000900DA49F800D911D11240895B7FF0C9498
:1055D000DB2A0E94DB2A821B930B0895A1E21A2E7C
:1055E000AA1BBB1BFD010DC0AA1FBB1FEE1FFF1F87
:1055F000A217B307E407F50720F0A21BB30BE40BD7
:10560000F50B661F771F881F991F1A9469F760951D
:105610007095809590959B01AC01BD01CF010895D7
:10562000A29FB001B39FC001A39F700D811D1124E3
:10563000911DB29F700D811D1124911D0895505828
:10564000BB27AA270E94372B0C947A2D0E94412D4C
:1056500038F00E94482D20F039F49F3F19F426F4C9
:105660000C94172D0EF4E095E7FB0C94112DE92F07
:105670000E949F2D58F3BA17620773078407950796
:1056800020F079F4A6F50C94C12D0EF4E0950B2EC4
:10569000BA2FA02D0B01B90190010C01CA01A00184
:1056A0001124FF27591B99F0593F50F4503E68F1DF
:1056B0001A16F040A22F232F342F4427585FF3CF20
:1056C000469537952795A795F0405395C9F77EF4F1
:1056D0001F16BA0B620B730B840BBAF09150A1F03A
:1056E000FF0FBB1F661F771F881FC2F70EC0BA0FC0
:1056F000621F731F841F48F4879577956795B79548
:10570000F7959E3F08F0B0CF9395880F08F0992742
:10571000EE0F9795879508950E94412D60F080E8DF
:1057200091E009F49EEF0E94482D28F040E851E0F6
:1057300071F45EEF0CC00C94172D0C94C12DE92F61
:10574000E0780E949F2D40F3092E052AB1F3261719
:1057500037074807590738F00E2E07F8E02569F09B
:10576000E025E0640AC0EF6307F8009407FADB0164
:10577000B9019D01DC01CA01AD01EF930E941F2C0C
:105780000E947A2D0E94CF2B5F91552339F02BED8B
:105790003FE049E450FD49EC0C94202B0895DF9341
:1057A000DD27B92FBF7740E85FE3161617064807D5
:1057B0005B0718F4D92F0E94CD2D9F938F937F9371
:1057C0006F930E94902EECEAF0E00E941A2D0E9446
:1057D0007A2D2F913F914F915F910E94E82DDD230B
:1057E00051F09058A2EA2AED3FE049EC5FE3D0780F
:1057F0005D270E94372BDF910C947A2D0E94ED2CAF
:1058000008F481E008950E94512DE3950C948B2DAE
:105810000E941C2C0C947A2D0E94482D58F00E9456
:10582000412D40F029F45F3F29F00C94112D5111C6
:105830000C94C22D0C94172D0E949F2D68F3992370
:10584000B1F3552391F3951B550BBB27AA2762177C
:105850007307840738F09F5F5F4F220F331F441F89
:10586000AA1FA9F335D00E2E3AF0E0E832D09150BD
:105870005040E695001CCAF72BD0FE2F29D0660FAA
:10588000771F881FBB1F261737074807AB07B0E8ED
:1058900009F0BB0B802DBF01FF2793585F4F3AF0F3
:1058A0009E3F510578F00C94112D0C94C22D5F3F52
:1058B000E4F3983ED4F3869577956795B795F79579
:1058C0009F5FC9F7880F911D9695879597F9089561
:1058D000E1E0660F771F881FBB1F621773078407FD
:1058E000BA0720F0621B730B840BBA0BEE1F88F70C
:1058F000E09508950E94812C6894B1110C94C22DFA
:1059000008950E94A72D88F09F5798F0B92F9927E6
:10591000B751B0F0E1F0660F771F881F991F1AF09A
:10592000BA95C9F714C0B13091F00E94C12DB1E011
:1059300008950C94C12D672F782F8827B85F39F010
:10594000B93FCCF3869577956795B395D9F73EF433
:1059500090958095709561957F4F8F4F9F4F0895DB
:10596000E89409C097FB3EF49095809570956195F9
:105970007F4F8F4F9F4F9923A9F0F92F96E9BB27AF
:105980009395F695879577956795B795F111F8CF2B
:10599000FAF4BB0F11F460FF1BC06F5F7F4F8F4F96
:1059A0009F4F16C0882311F096E911C0772321F08C
:1059B0009EE8872F762F05C0662371F096E8862F24
:1059C00070E060E02AF09A95660F771F881FDAF77B
:1059D000880F9695879597F90895990F0008550FA8
:1059E000AA0BE0E8FEEF16161706E807F907C0F065
:1059F00012161306E407F50798F0621B730B840B6D
:105A0000950B39F40A2661F0232B242B252B21F446
:105A100008950A2609F4A140A6958FEF811D811DE6
:105A2000089597F99F6780E870E060E008959FEF20
:105A300080EC0895DF93CF931F930F93FF92EF9223
:105A4000DF927B018C01689406C0DA2EEF010E9480
:105A5000E82DFE01E894A591259135914591559148
:105A6000A6F3EF010E94372BFE019701A801DA94FB
:105A700069F7DF90EF90FF900F911F91CF91DF9129
:105A8000089500240A9416161706180609060895A4
:105A900000240A94121613061406050608950C94A1
:105AA000172D0E94A72DD8F3E894E0E0BB279F575D
:105AB000F0F02AED3FE049EC06C0EE0FBB0F661F89
:105AC000771F881F28F0B23A62077307840728F00F
:105AD000B25A620B730B840BE3959A9572F7803878
