:100000000C9498040C94C0040C94C0040C94C00488
:100010000C94C0040C94C0040C94C0040C94C00450
:100020000C94C0040C94C0040C94200C0C94920CFE
:100030000C94C0040C94C0040C94C0040C94C00430
:100040000C94C0040C94C0040C94C0040C94C00420
:100050000C94C0040C94C0040C94C0040C94690764
:100060000C94C0040C94C0040C94C0040C94C00400
:100070000C94C0040C94C0040C94C0040C94C004F0
:100080000C9461080C94C0040C94C0040C94C0043B
:100090000C94C0040C94C0040C94C0040C94C004D0
:1000A0000C94C0040C94C0040C94C00405A84CCD5E
:1000B000B2D44EB93836A9020C50B9918688083CA2
:1000C000A6AAAA2ABE000000803FD5F08D14A1C8C0
:1000D00081CFD9F1AF2000430D00F800FCF8FEFC01
:1000E000FF0CFF0CFF1CFF18FE00FCF8FEFCFF0CD1
:1000F000FF0CFFFCFFF8FE00FEFCFFFCFF78FEF0AB
:10010000FC78FEFCFFFCFF00FEFCFFFCFFCCFFCCFC
:10011000FFFCFF78FE00FE3CFF7CFFE0FEE0FE7C83
:10012000FF3CFF00FEF8FEFCFF0CFF0CFF1CFF185D
:10013000FE00FCF8FEFCFF0CFF0CFFFCFFF8FE00CD
:10014000FEFCFFFCFFCCFFCCFFFCFF78FE00FEFCBA
:10015000FFFCFF6CFF6CFF0CFF0CFF001E000C008F
:10016000030007030F071F061F061F071F030F00CB
:1001700007030F071F061F061F071F030F000F07A8
:100180001F071F000F0007000F071F071F000F07A3
:100190001F071F000F0007000300010000000700F9
:1001A0000F071F071F000F00070007030F071F0699
:1001B0001F061F071F030F0007030F071F061F0659
:1001C0001F071F030F000F071F071F000F000F0758
:1001D0001F071F000F071F071F061F061F061F060A
:1001E0001F000F0006412E0000000000000000006C
:1001F00000000000C0E0F0F8FCFCFEFE040000007F
:1002000000000000000080808080808080808080EE
:1002100080800002071FFFFEFEFCFCF8F0E080007B
:1002200000000000000000000000000000000000CE
:10023000000000001E7FFFFFFFFFFFFFFFFFFEFC2F
:10024000FC06060303030301010101010101010191
:1002500001010103030307070F1F3F7FFFFF3F0754
:10026000000000000000000000000080808080800E
:1002700080C0C0C0C0E0F0FD8F0307070707070379
:1002800001000080C0E0E0F0F0F0F0F0F06000C0AD
:10029000E0E0F0F0F0F0F0E0D83C9CDCDC98333F9C
:1002A0007FFFDFDF6F6F371B0E0402070D1B333735
:1002B000676F6FCFCFCFCFDFDF1F1E0000000000C2
:1002C000000000010D070301010130180C0C0C188F
:1002D00000030F1F7FFF9F9F0F0F0FCD3303010000
:1002E0000000FFFF00000000000000000000000010
:1002F000000000000000000000030F1C3060C08000
:1003000000000000000000000000000000000000ED
:100310000000003830200020202111D1D0E8C7E2B1
:10032000B01C0F03000000000000000000000000EF
:1003300000000000000000000000000000000000BD
:1003400001030306060C0C18181818303030303032
:10035000303018181818180C0C0C06060301030787
:1003600003000000000000000000000000412E001B
:10037000000000000000000000000000C0E0F0F8F5
:10038000FCFCFEFE04000000000000000000808075
:10039000808080808080808080800002071FFFFE38
:1003A000FEFCFCF8F0E0800000000000000000000F
:1003B0000000000000000000000000001E7FFFFFA2
:1003C000FFFFFFFFFFFFFEFCFC0606030303030124
:1003D00001010101010101010101010303030707FB
:1003E0000F1F3F7FFFFF3F070000000000000000DD
:1003F000000000808080808080C0C0C0C0E0F0FD30
:100400008F0307070707070301000080C0E0E0F043
:10041000F0F0F0F0F06000C0E0E0F0F0F0F0F0E0BC
:10042000D83C9CDCDC98333F7FFFDFDF6F6F371BEE
:100430000E0402070D1B3337676F6FCFCFCFCFDFAF
:10044000DF1F1E0000000000000000010D07030177
:100450000101183C7E7E7E3C18030F1F7FFF9F9F8B
:100460000F0F0FCD330301000000FFFF000000005D
:10047000000000000000000000000000000000007C
:1004800000030F1C3060C08000000000000000006E
:1004900000000000000000000000003830200020B4
:1004A000202111D1D0E8C7E2B01C0F0300000000EA
:1004B000000000000000000000000000000000003C
:1004C000000000000000000001030306060C0C18E9
:1004D0001818183030303030303018181818180C00
:1004E0000C0C0606030103070300000000000000D7
:1004F0000000000000141000000000F8F810F0A048
:10050000E038F808F828F828F828F828F828F888B3
:10051000F818F8A0E020E060E0C0C0000000000093
:100520000000001F1F101F363F223F637F637F378D
:100530003F171F171F373F233F627F627F223F1005
:100540001F1F1F000000000000C0C0E0E040C0709E
:10055000F018F8C8F8A8F828F8A8F828F808F81843
:10056000F890F030F020E060E0C0C0000000000033
:10057000000707080F1B1F363F203F2D3F467F43D4
:100580007F427F263F171F131F131F213F313F104C
:100590001F0F0F060600000000000000008080E032
:1005A000E030F0D0F088F8A8F8A8F828F828F80883
:1005B000F818F8B0F020E0E0E000000000000000D3
:1005C0000000001C1C1F1F303F2E3F2E3F2C3F6C95
:1005D0007F417F467F427F737F131F101F181F0FBD
:1005E0000F000000000000000000000000000000FC
:1005F00000C0C078F808F8A8F8A8F8A8F8A8F80883
:10060000F878F8C0C0000000000000000000000002
:100610000000000000000000007F7F407F4C7F4C06
:100620007F4C7F447F4C7F4C7F407F7F7F0000006A
:1006300000000000000000000000000000E0E020DA
:10064000E0B0F018F808F828F828F8A8F8A8F88812
:10065000F8D0F030F0E0E080800000000000000002
:1006600000000000000F0F181F101F131F737F42A0
:100670007F467F417F6C7F2C3F263F2E3F303F1FC0
:100680001F1C1C0000000000000000C0C060E02033
:10069000E030F090F018F808F828F8A8F828F8A842
:1006A000F8C8F818F870F040C0E0E0C0C0000000E2
:1006B0000006060F0F101F313F213F131F131F1796
:1006C0001F263F427F437F447F2C3F203F363F1B06
:1006D0001F080F0707000000000000C0C060E020F6
:1006E000E0A0E018F888F828F828F828F828F82872
:1006F000F808F838F8A0E010F0F8F8000000000062
:100700000000001F1F101F223F627F627F233F37C0
:100710003F171F171F373F637F627F223F363F100F
:100720001F1F1F0000000000000000C0C040C0608C
:10073000E038F848F8C8F808F8A8F828F81CFC4889
:10074000F808F810F010F020E0E0E08080000000F1
:100750000007070B0F181F303F203F6D7F467F4279
:100760007F677F363F171F131F233F213F313F1BFA
:100770001F0D0F070700000000000000008080C070
:10078000C070F090F0C8F8C8F8B4FC2CFC28F84809
:10079000F888F898F810F0F0F00000000000000071
:1007A00000000018183F3F203F283F2C3F407F406B
:1007B0007F407F467F437F737F131F101F181F07E3
:1007C0000700000000000000000000000000000022
:1007D00000C0C078F808F8B8F8B8F8B8F8B8F80861
:1007E000F878F8C0C0000000000000000000000021
:1007F0000000000000000000007F7F407F407F403D
:100800007F4C7F4C7F407F407F407F7F7F00000098
:1008100000000000000000000000000000F0F010E8
:10082000F098F888F848F828F82CFCB4FCC8F8C808
:10083000F890F070F0C0C080800000000000000060
:1008400000000000000707181F101F131F737F43CD
:100850007F447F407F487F407F2C3F283F203F3FA1
:100860003F18180000000000008080E0E020E05009
:10087000F010F008F848F81CFC28F8A8F808F8C8A8
:10088000F848F838F860E040C0C0C0000000000040
:100890000007070D0F1B1F313F213F233F131F1779
:1008A0001F363F677F427F467F6D7F203F303F1876
:1008B0001F0B0F07070000080B00020202010009CE
:1008C00004000001020200000524001001052401BB
:1008D0000101042402060524060001070581031016
:1008E000004009040100020A00000007050202405E
:1008F0000000070583024000000403090412010000
:1009000002EF020140412336800001010203014150
:10091000726475696E6F204C4C4300417264756956
:100920006E6F204C656F6E6172646F009F145A1475
:1009300011241FBECFEFDAE0DEBFCDBF12E0A0E092
:10094000B1E0E8E4F6E302C005900D92A831B107EA
:10095000D9F727E0A8E1B2E001C01D92AE34B2079A
:10096000E1F714E0C7E9D4E004C02197FE010E943A
:100970000C1BC639D107C9F70E94E90F0C94171B4D
:100980000C94000080912402E0912202F091230255
:10099000882349F0CF01029690932302809322028C
:1009A000859194910895CF010296909323028093AC
:1009B000220280819181089580911B0208950895FB
:1009C000089580E090E00895CB0108957F928F9282
:1009D0009F92AF92BF92CF92DF92EF92FF920F93CE
:1009E0001F93CF93DF93EC0149015A018B01C12C76
:1009F000D12C7601C814D904EA04FB0484F5F8016B
:100A000071908F018F8580FF0BC0E881F981008490
:100A1000F185E02D20E144E060E070E0CE01099531
:100A2000EB85FC858D859E85E817F90738F4708283
:100A30008B859C8501969C878B870BC0E881F9810B
:100A4000672D70E0028CF38DE02DCE0109950196A3
:100A500049F02FEFC21AD20AE20AF20ACBCFB40150
:100A6000C50102C0B601C701DF91CF911F910F915F
:100A7000FF90EF90DF90CF90BF90AF909F908F90BE
:100A80007F900895CF93DF93EC01E881F98102888C
:100A9000F389E02D09958F3F2FEF920731F02D81DB
:100AA0003E812F5F3F4F3E832D83DF91CF9108958D
:100AB0008FEF9FEF089560E070E0CB01089580E034
:100AC00090E00895CB010895CF93DF93EC018889DE
:100AD0009989DC01ED91FC910084F185E02D099567
:100AE000892BA9F388899989DC01ED91FC91028415
:100AF000F385E02DDF91CF910994CF93DF93EC0143
:100B000088899989DC01ED91FC910084F185E02DC3
:100B10000995892BA9F388899989DC01ED91FC91CC
:100B20000484F585E02DDF91CF910994AF92BF92B7
:100B3000CF92DF92EF92FF920F931F93CF93DF93A9
:100B400000D000D0CDB7DEB78C015B01C12CD12C19
:100B50007601F80180899189DC01ED91FC91028494
:100B6000F385E02D29833A834B835C8309952981A2
:100B70003A814B815C818F3F71F0C216D306E40647
:100B8000F5064CF4D5018D935D01BFEFCB1ADB0A5E
:100B9000EB0AFB0ADECFC701B6010F900F900F9052
:100BA0000F90DF91CF911F910F91FF90EF90DF9009
:100BB000CF90BF90AF900895DC0150968D919C919D
:100BC0005197DC01ED91FC910084F185E02D0994B1
:100BD00080E090E0089580E090E0089580E090E06B
:100BE000089580E090E008950895CF93DF93C09139
:100BF0003A06D0913B06E881F9810084F185E02D29
:100C0000CE010995892BB9F3E881F9810284F38536
:100C1000E02DCE01DF91CF9109941F93CF93DF9305
:100C2000182FC0913A06D0913B068A3041F4E881F2
:100C3000F9810190F081E02D6DE0CE010995E88108
:100C4000F9810190F081E02D612FCE01099521E01D
:100C500030E0019711F420E030E0C901DF91CF913D
:100C60001F9108950F931F93CF93DF938C01EB0196
:100C70006F3F8FEF780719F480E090E00FC06A3083
:100C800031F46DE0F801808991890E94C20E6C2FC9
:100C9000F801808991890E94C20ECE01DF91CF9127
:100CA0001F910F9108958F929F92BF92CF92DF92E2
:100CB000EF92FF920F931F93CF93DF9300D000D05A
:100CC000CDB7DEB78C014B01C12CD12C7601C216F9
:100CD000D306E406F50644F5F401B1904F01FAE0BD
:100CE000BF120EC06DE0F8018089918929833A8393
:100CF0004B835C830E94C20E5C814B813A812981C7
:100D00006B2DF8018089918929833A834B835C8319
:100D10000E94C20EFFEFCF1ADF0AEF0AFF0A5C81C2
:100D20004B813A812981D3CFCA01B9010F900F902D
:100D30000F900F90DF91CF911F910F91FF90EF9047
:100D4000DF90CF90BF909F908F900895FB012081FE
:100D50003181FC0131832083FB0142815381F90100
:100D6000369720813181FC01E20FF31F51834083CC
:100D700008952BEF31E0FC013183208325E032E040
:100D8000358B248B6BE072E00C94A606DC01ED91B0
:100D9000FC91369720813181820F931F0C94B90604
:100DA000CF93DF93EC010E94B906CE01DF91CF9182
:100DB0000C94FE16DC01ED91FC9136972081318177
:100DC000820F931F0C94D0060C94FE16FB01208119
:100DD0003181FC0131832083FB0142815381F90180
:100DE000369720813181FC01E20FF31F518340834C
:100DF000089523E831E0FC01318320832DE831E0C0
:100E0000318F208F63E971E00C94E606DC01ED91EF
:100E1000FC91369720813181820F931F0C94F90643
:100E2000CF93DF93EC010E94F906CE01DF91CF91C1
:100E30000C94FE16DC01ED91FC91369720813181F6
:100E4000820F931F0C941007089508950C94FE16BA
:100E5000DC01ED91FC91369720813181820F931F47
:100E60000C9426070C94FE16089508950C94FE1613
:100E7000DC01ED91FC91369720813181820F931F27
:100E80000C9436070C94FE163FB7F89480912F020D
:100E900090913002A0913102B091320226B5A89B08
:100EA00005C02F3F19F00196A11DB11D3FBFBA2FFC
:100EB000A92F982F8827820F911DA11DB11DBC015C
:100EC000CD0142E0660F771F881F991F4A95D1F721
:100ED00008951F920F920FB60F9211242F933F93F4
:100EE0008F939F93AF93BF9380911C0290911D02AB
:100EF000A0911E02B0911F0230912E0223E0230F19
:100F00002D3720F40196A11DB11D05C026E8230F41
:100F10000296A11DB11D20932E0280931C02909376
:100F20001D02A0931E02B0931F0280912F02909188
:100F30003002A0913102B09132020196A11DB11D83
:100F400080932F0290933002A0933102B09332022B
:100F5000BF91AF919F918F913F912F910F900FBEB5
:100F60000F901F901895CF92DF92EF92FF920F9300
:100F70001F93CF93DF930E94C204811520E892074C
:100F800061F4809171008D7F8093710010929100C7
:100F900046984798109227028BC021E020932702A1
:100FA000813020E8920751F4809120029091210233
:100FB00090932302809322020E94C20497FD05C0F1
:100FC00020912602222309F43FC0209125022111FD
:100FD0003BC021E020932802EC01DF77209769F4E1
:100FE00081E08093290246983FE9C32E3FE0D32E4B
:100FF000E12CF12CCAEFD0E014C08E0120E030E0EB
:1010000060E472E48FE090E0A90198010E94B317B8
:1010100069017A0181E0C81AD108E108F10810924B
:101020002902E091F206F091F3060995811103C0BF
:1010300081E080932902809128028823B9F1809170
:101040002902811133C003C010922802C5CF4699EE
:101050002DC0479A0E94C204009771F09C01DE01E6
:101060000E940718DC01CB0129E0B595A79597955B
:1010700087952A95D1F703C08FEF9FEFDC0110927F
:1010800090002AE020939100D0929900C09298009D
:1010900080932A0290932B02A0932C02B0932D02EE
:1010A0008091710082608093710002C04798D2CF16
:1010B000DF91CF911F910F91FF90EF90DF90CF9034
:1010C00008951F920F920FB60F9211242F933F9302
:1010D0004F935F936F937F938F939F93AF93BF9340
:1010E000EF93FF9380912A0290912B02A0912C0202
:1010F000B0912D02892B8A2B8B2B81F180912902B3
:1011000081110BC098B180E4892788B980912802A9
:10111000882319F088B1805888B980912A0290916B
:101120002B02A0912C02B0912D02181619061A0656
:101130001B06B4F480912A0290912B02A0912C02FC
:10114000B0912D020197A109B10980932A029093D1
:101150002B02A0932C02B0932D0202C00E94B30771
:10116000FF91EF91BF91AF919F918F917F916F917F
:101170005F914F913F912F910F900FBE0F901F9055
:1011800018954F925F926F927F928F929F92AF923B
:10119000BF92CF92DF92EF92FF920F931F93CF9364
:1011A000DF9300D000D0CDB7DEB749012C2DA02EA3
:1011B000B12CDC01AA0DBB1D1A161B060CF0B3C125
:1011C000803891050CF0AFC1FB01EE0DF11D1E162C
:1011D0001F060CF0A8C1603471050CF0A4C14115C4
:1011E000510509F4A0C1FB0177FF04C0EE27FF27DA
:1011F000E61BF70B3E2F3770732EFB0177FD3796FA
:1012000033E0F595E7953A95E1F73E2F77FF07C074
:10121000772029F03FEF3E0F68E06719762E97FFA1
:1012200005C0EE27FF27E81BF90B02C0E0E0F0E065
:10123000A038B10524F060E8F62EF81A01C0F02EAF
:10124000FE1A632F032E000C770B3F3F1CF4A62FD2
:10125000A09501C0A0E011E0BE2DB77009F410E028
:10126000E694E694E694E10E6E0D711D6930710509
:101270001CF068E0E62EE31AEA1A3A0F60E836033B
:10128000800D911D11248E0F9F1FA09FE00DF11D59
:1012900011244E0F5F1F61E070E0072C02C0660F43
:1012A000771F0A94E2F7233009F4FCC098F4213048
:1012B00009F4AEC0223009F036C12FEF269F80011D
:1012C000279F100D1124009510951C830B835C80C3
:1012D000E30E27C02A3F29F02B3F09F024C1E30E7B
:1012E00083C0E30E4EC0FA01EC0DFD1DE491E69FB4
:1012F0004001E79F900C11249A82898237FD04C037
:101300002C912023822A8C92711014C0EFEFCE1AF8
:10131000DE0A1196CF1438F33F5F4A0D5B1D8058EB
:101320009F4F3E1509F4FFC0DC01A65CBD4FC12CE8
:10133000D12CF0CF373054F7FD01E058FF4F20811A
:1013400025219A8029292083E1CFFA01E00FF11F9E
:10135000E491E69F6001E79FD00C1124DA82C982F4
:1013600037FD03C02C91C22ACC92711013C00F5FBD
:101370001F4F11960F1548F33F5F4A0D5B1D8058B4
:101380009F4F3E1509F4CFC0DC01A65CBD4F00E0C5
:1013900010E0F0CF37305CF7FD01E058FF4FD08010
:1013A0002A812D292083E3CFFA01EC0DFD1DE49164
:1013B000E69FD001E79FB00D1124BA83A98337FDC2
:1013C00005C0A095F8012081A223A083711015C04B
:1013D000FFEFCF1ADF0A0F5F1F4FCF1428F33F5FD5
:1013E0004A0D5B1D80589F4F3E1509F49CC08C012F
:1013F000065C1D4FC12CD12CF0CF37304CF7F801D3
:10140000E058FF4F2A812095A0812A232083E0CF36
:10141000D401AE0FBF1FE30E3E1509F484C0FC01DA
:10142000E65CFD4F4F01C12CD12CCF1498F5FD0186
:10143000EC0DFD1DE491E69F8001E79F100D112446
:10144000009510951C830B83FA01EC0DFD1DE491B2
:10145000E69F2001E79F500C11245A82498237FDF4
:1014600005C0F40120810223402A4082772059F0F0
:1014700037304CF4F401E058FF4F10812C812123C8
:101480001A81212B2083FFEFCF1ADF0A2FEF821A58
:10149000920ACBCF3F5F4A0D5B1DAA0DBB1D805842
:1014A0009F4FBACFCF2CD12CE40FF51FDC01A65CE7
:1014B000BD4FAC0146545D4F00E810E00C191D090A
:1014C000AC18BD08AA0CBB1C6F2C2E2DCF93DF933C
:1014D000EA018590C590772059F0869E4001C69E0E
:1014E000600137302CF49881D0949D2199299993EB
:1014F00033233AF09C91C0949C2198299D930C949D
:10150000820A1196FA9429F7EA9451F0F62C339551
:101510001124EA0DF11DA00FB11DC00FD11DD9CFAF
:10152000DF91CF9111240F900F900F900F90DF91CA
:10153000CF911F910F91FF90EF90DF90CF90BF90D0
:10154000AF909F908F907F906F905F904F90089595
:10155000BC0180E090E00C94C90E8FB12CB193B126
:1015600030E02095309520743327A90123E055956C
:1015700047952A95E1F7292F30E020953095207185
:1015800033273595279535952795242B8095807F92
:10159000822B089583B7817F83BF83B7816083BF28
:1015A000889583B78E7F83BF08958EBD00000DB4EC
:1015B00007FEFDCF089508950895089540913502DE
:1015C0005091360220913302309134024217530772
:1015D000B4F49091E8009570E1F39091E80092FDE9
:1015E00019C08093F10080913502909136020196E6
:1015F0008F739927892B19F48EEF8093E8008091DF
:10160000350290913602019690933602809335020E
:1016100081E0089580E00895DF92EF92FF920F93AA
:101620001F93CF93DF93D82E8A017B01E40EF51E22
:10163000EB01CE15DF0571F0D7FE03C0FE018491EA
:1016400001C088810E94DE0A21968111F2CF8FEFBE
:101650009FEF01C0C801DF91CF911F910F91FF90C3
:10166000EF90DF900895615030F02091F100FC017F
:1016700020830196F8CF289884E680933802089555
:10168000CF92DF92EF92FF920F931F93CF93DF934E
:101690006C017A018B01C0E0D0E0CE15DF0589F046
:1016A000D8016D918D01D601ED91FC910190F081F1
:1016B000E02DC6010995892B11F47E0102C0219607
:1016C000ECCFC701DF91CF911F910F91FF90EF9069
:1016D000DF90CF900895CF93DF931F92CDB7DEB701
:1016E0006983DC01ED91FC910280F381E02D41E002
:1016F00050E0BE016F5F7F4F09950F90DF91CF9152
:10170000089583E08093E9008091F200882319F026
:101710008AE38093E8000895FC018485958597FD10
:101720000BC09FB7F89482E08093E9008091F200AB
:101730009FBF90E0019608959FB7F89482E0809350
:10174000E9008091F2009FBF90E008950E94121B73
:101750000F931F93CF93DF931F92CDB7DEB782E035
:10176000898342E450E067EB78E080E80E940C0B4C
:101770000E94D50FDC0112960D911C911397011553
:10178000110569F0D801ED91FC910280F381E02D03
:10179000BE016F5F7F4FC801099597FF07C0898120
:1017A0000F90DF91CF911F910F910895F80100855F
:1017B0001185E5CF0E94C40F90E008950F931F9309
:1017C000CF93DF931F92CDB7DEB78C01FC018485E8
:1017D000958597FF0EC0CE0101960E949A0F019742
:1017E00019F4298130E002C02FEF3FEFF80135876F
:1017F0002487F801848595850F90DF91CF911F9103
:101800000F910895CF93DF931F92CDB7DEB7FC0100
:101810008485958597FD05C02FEF3FEF3587248799
:101820000BC0CE0101960E949A0F019719F489818D
:1018300090E002C08FEF9FEF0F90DF91CF9108955E
:101840001F920F920FB60F9211248F939F93809146
:10185000E1009091E100937F9093E10083FF0FC03E
:101860001092E90091E09093EB001092EC0092E36B
:101870009093ED001092390298E09093F00082FF6F
:1018800020C093E09093E9009091F200992319F021
:101890009AE39093E80090913702992339F0909160
:1018A0003702915090933702992389F19091380231
:1018B000992339F0909138029150909338029923EE
:1018C00041F184FF10C08091E2008E7E81608093A0
:1018D000E2008091E1008F7E8093E1008091190207
:1018E0008E7E806111C080FF16C08091E2008E7EE6
:1018F00080618093E2008091E1008E7E8093E10020
:10190000809119028E7E81608093190204C05D9AD5
:10191000CDCF289AD6CF9F918F910F900FBE0F9069
:101920001F9018951F920F920FB60F921124CF920D
:10193000DF92EF92FF920F931F932F933F934F935A
:101940005F936F937F938F939F93AF93BF93EF9327
:10195000FF93CF93DF93CDB7DEB76C97DEBFCDBFDC
:101960001092E9008091E80083FFEDC168E0CE01AC
:1019700045960E94330B82EF8093E8008D8987FFA4
:1019800005C09091E80090FFFCCF03C09EEF9093BC
:10199000E800982F907609F0C6C09E892F89188D8F
:1019A00091110CC0803829F480911A028093F100C3
:1019B00002C01092F1001092F10048C1422F50E095
:1019C000512B913051F4811141C14130510509F041
:1019D0003DC180911A028D7F0BC0933061F481115B
:1019E00035C14130510509F031C180911A02826040
:1019F00080931A022BC1953041F48091E80080FF5A
:101A0000FCCF20682093E30021C1963009F05FC02D
:101A1000EB8CFC8C1092E900109236021092350289
:101A2000123091F510923402109233020E94A80BEA
:101A300099E0BE016F5F7F4FDB01E92F1D92EA95B0
:101A4000E9F799831A8391E09E8390EA98879AEF49
:101A500099872091350230913602275F3F4F3C83B2
:101A60002B838D831092E90010923602109235027A
:101A7000F0923402E092330249E050E080E00E94AC
:101A80000C0B0E94A80BE2C0F0923402E0923302E9
:101A90000E94D50FDC011296ED90FC901397E11493
:101AA000F10409F4C0C0D701ED91FC910480F581E7
:101AB000E02DBE016B5E7F4FC7010995009719F0BD
:101AC0000CF0C4C0C7C0F701E084F184E8CF9730C0
:101AD00009F4C0C0983021F481E08093F100B6C0D1
:101AE000993009F0B3C0837009F0B4C0E3E2F1E0CB
:101AF00081E021E036E39081992361F08093E90051
:101B00002093EB0091919093EC003093ED008F5F68
:101B1000873089F78EE78093EA001092EA008F8978
:101B20008093390293C08B8D9C8D1092E9001092A6
:101B30003602109235029093340280933302898DDD
:101B4000811156C08E899D89913A59F4813209F0EC
:101B500081C047E050E060E171E080E00E940C0B42
:101B600075C0913209F076C0833289F4888D90E097
:101B7000982F88272F89822BA0E0B0E080930C015A
:101B800090930D01A0930E01B0930F015FC08032BE
:101B900069F48091E80082FFFCCF67E080E191E08A
:101BA0000E94330B8BEF8093E80006C0823209F06D
:101BB0004DC08F898093170180911802882319F0F6
:101BC000EEEFFAE002C0E0E0F8E0809110019091C1
:101BD0001101A0911201B0911301803B9440A10525
:101BE000B10509F07BC08091170180FF93C076C0DA
:101BF0000E94D50FDC0112960D911C9113970115CF
:101C0000110541F1D801ED91FC910190F081E02D99
:101C1000BE016B5E7F4FC8010995811117C0F801A5
:101C200000851185ECCF113009F44EC0133091F4CA
:101C30008F89882309F445C0823081F440E860E14F
:101C40008BE199E00E946214882321F08EEF80934B
:101C5000E80079C081E28093EB0075C0813029F4FF
:101C600040E86BE08FE099E0EDCF833099F70E9478
:101C7000D50FDC011296ED90FC9013978E010F5F4B
:101C80001F4F6801E114F10479F0D701ED91FC9147
:101C90000680F781E02DB801C7010995080F111DD5
:101CA000F701E084F184EECFD8011C92F601019097
:101CB0000020E9F73197BF016C197D0940E0C601AA
:101CC000C1CF69EF78E002C06DEF78E06115710572
:101CD00009F2FB01449150E080E840CF0FB6F89440
:101CE000A8958091600088618093600010926000E8
:101CF0000FBEA895EE3F2AE0F20739F08091FE0A68
:101D00009091FF0A91838083A1CF1092FF0A1092D5
:101D1000FE0A9CCFEE3F8AE0F80731F08081918186
:101D20009093FF0A8093FE0A87E797E79183808369
:101D30009BE088E10FB6F894A895809360000FBEF1
:101D40009093600083CF6C960FB6F894DEBF0FBE01
:101D5000CDBFDF91CF91FF91EF91BF91AF919F9157
:101D60008F917F916F915F914F913F912F911F9133
:101D70000F91FF90EF90DF90CF900F900FBE0F90DC
:101D80001F901895DC01ED91FC910190F081E02D00
:101D900009948F929F92AF92BF92CF92DF92EF926F
:101DA000FF926B017C010E9444074B015C01C1144E
:101DB000D104E104F104F1F00E944407DC01CB01FD
:101DC00088199909AA09BB09883E9340A105B10564
:101DD00070F321E0C21AD108E108F10888EE880EFC
:101DE00083E0981EA11CB11CC114D104E104F104CC
:101DF00019F7DDCFFF90EF90DF90CF90BF90AF90BD
:101E00009F908F9008958F929F92AF92BF92CF92A2
:101E1000DF92EF92FF920F931F93CF93DF935C01BA
:101E20006B017A0180911701882309F45BC08091CE
:101E30003902882309F456C08091190280FF05C039
:101E40008091E00082608093E000E70110E00AEFFB
:101E500083E0882E9AE3992E2097D9F10E94C40F2F
:101E600081110AC0015009F43DC061E070E080E0DA
:101E700090E00E94C90EF0CF282F30E0C217D307A0
:101E80000CF48C2F4FB7F8948092E9009091E80001
:101E900095FF1DC0282F30E0C21BD30BF601982FF1
:101EA000915020F081918093F100FACFC20ED31EA1
:101EB000112319F09092E80009C08091E80085FD97
:101EC00006C09092E80011E0209709F010E04FBFA3
:101ED000C3CF1111C3CF5D9884E6809337021E14DF
:101EE0001F0444F081E090E0F5019383828380E059
:101EF00090E001C0C701DF91CF911F910F91FF903A
:101F0000EF90DF90CF90BF90AF909F908F9008950B
:101F100080913A028EBDEBE3F2E081910DB407FEB1
:101F2000FDCF8EBD86E0EA33F807B9F70DB407FEA2
:101F3000FDCF0895FC0180913902811103C08FEF1C
:101F40009FEF08959FB7F89482E08093E900209175
:101F5000F20030E01216130614F421E030E02115EF
:101F6000310559F0289884E6809338028091F10079
:101F700080838091F200882319F09FBFC9010895E2
:101F80008BE68093E800F9CF2FB7F89483E0809335
:101F9000E9009091E800892F807295FF04C090912C
:101FA000F20080E4891B2FBF089580913C078111C6
:101FB0000DC082E08093380784E080933907109247
:101FC0003B0710923A0781E080933C0788E397E053
:101FD0000895CF93DF9300D000D000D0CDB7DEB707
:101FE000789484B5826084BD84B5816084BD85B5F4
:101FF000826085BD85B5816085BD80916E00816000
:1020000080936E00109281008091810082608093A5
:1020100081008091810081608093810080918000A7
:102020008160809380008091910082608093910014
:1020300080919100816080939100809190008160F7
:10204000809390008091C10084608093C100809152
:10205000C10082608093C1008091C1008160809343
:10206000C1008091C30081608093C3008091C00053
:1020700082608093C0008091C20081608093C20022
:1020800080917A00846080937A0080917A008260E7
:1020900080937A0080917A00816080937A008091A9
:1020A0007A00806880937A001092390210921A02A6
:1020B000109219028091D70081608093D70080EA46
:1020C0008093D80089B5806189BD89B5826089BD5A
:1020D00009B400FEFDCF61E070E080E090E00E9476
:1020E000C90E8091D8008F7C80618093D800809148
:1020F000E000807F8093E0008091E1008E7E8093FD
:10210000E1008DE08093E200559A209AEEEFFFE720
:10211000859194918B3F9C4D19F481E08093180236
:1021200081EC80937C0085B1806F85B9249884B15F
:10213000866E84B95E9A5F988AB1806D8AB9769A04
:102140006E9881B3806F81BB899880B38D7080BB9E
:1021500080E58CBD81E08DBD85E090E00E94A80AFD
:102160005F9A85E090E00E94A80A5E985C981AEC5D
:10217000E12E10E0F12E1DE01E0DF70184910E946A
:10218000D50AFFEFEF1AFF0A1E11F7CF5C9A81E81C
:102190008093640081E08093650000E014E080E0BB
:1021A0000E94D50A01501109D1F70E94AD0A87FF9C
:1021B0001FC05C9885EA0E94D50A5C9A2E982F98D9
:1021C0002D98809164008062809364000E94CA0A06
:1021D000FDCF2D980E94AD0A8478843871F00E945A
:1021E000AD0A8471843129F188EC90E00E94A80A3C
:1021F0000E94AD0A82FDEDCF38C02D9A88EC90E0A8
:102200000E94A80A2F9882E090E00E949D178F3FBD
:1022100029F06FEF82E090E00E94A51784EF91E033
:102220000E94A80A2F9A0E94AD0A84788438D9F3B4
:10223000D6CF2D9A88EC90E00E94A80A2E9882E0D2
:1022400090E00E949D17882329F060E082E090E0F2
:102250000E94A51784EF91E00E94A80A2E9A0E947E
:10226000AD0A84718431D9F3BFCF2D9A82E090E01A
:102270000E949D17882331F03E9A3F9A81E0809317
:102280001B0204C010921B023E983F9882E390E02C
:102290000E94A80A0E94AD0A8111F8CF80916400C3
:1022A0008E7F8093640080917A00806480937A00AE
:1022B00080917A0086FDFCCF009178001091790022
:1022C0000E94440720E030E0980111270027600FAA
:1022D000711F821F931F611571058105910511F012
:1022E0000E94F91580916400816080936400A4EEDF
:1022F0002A2EA6E03A2E2FB7F89480911C029091D6
:102300001D02A0911E02B0911F022FBF4091320703
:10231000509133076091340770913507009136076B
:10232000002341F020912E07821B809337071092E3
:102330003607B8C284179507A607B70738F4481BB5
:10234000423008F4AFC20E94CA0AACC211E0109336
:10235000360780932E0790932F07A0933007B093F2
:10236000310720912D07820F911DA11DB11D809372
:10237000320790933307A0933407B09335078091C9
:10238000290790912A07019690932A07809329079D
:1023900080912B0780932C070E94AD0A80932B0716
:1023A000EAE3F2E001110FEF00240193019301939E
:1023B00001930394D1F7609104017091050120917C
:1023C00006013091070162177307BCF46F5F7F4FFE
:1023D00070930501609304018091020190910301C3
:1023E000EDE6F3E00491EEE6F3E0E490FAEFCF2EB1
:1023F00020E030E04FE653E08BC0809129079091B8
:102400002A0766E970E00E94E41A892B21F0809186
:1024100000018823D1F081E0809300010E94AD0A81
:1024200085FF7BC0209118073091190740911A074A
:1024300050911B076091F4067091F5068091F606A5
:102440009091F7060E9417187EC0309305012093E3
:10245000040180910101811131C0809171008D7F53
:102460008093710010922402309223022092220263
:10247000309221022092200286E194E09093E506BA
:102480008093E40682E390E09093E7068093E6066B
:102490008DE298E09093E9068093E80684E690E068
:1024A0009093EB068093EA0680E090E89093ED0627
:1024B0008093EC060E94B307109301016091040120
:1024C000709105018091020190910301E5EEF1E028
:1024D0000491E6EEF1E0E4905AEFC52E20E030E002
:1024E00047EE51E00E94C10860910A0170910B0112
:1024F0008091080190910901E7EDF0E00491E8ED89
:10250000F0E0E490E3E0CE2E20E030E049ED50E052
:102510000E94C1080E94880FC5C10E94AD0A86FFB3
:102520001AC0209118073091190740911A0750914D
:102530001B076091F4067091F5068091F606909164
:10254000F7060E9416186093F4067093F5068093C0
:10255000F6069093F7066091F4067091F506809167
:10256000F6069091F7060E94FF18CB0168E671E02D
:102570000E94F81ABC01990F880B990B0E94371919
:102580006B017C0120E030E0A9010E94831887FFE5
:102590000AC020E030E044EB53E4C701B6010E94DA
:1025A00017186B017C01C092F406D092F506E092F8
:1025B000F606F092F7060E94AD0A83FF84C00091F0
:1025C000200710912107C0901C07D0901D07E090B4
:1025D0001E07F0901F0720E030E044EB53E46091C9
:1025E000F4067091F5068091F6069091F7060E9428
:1025F0008D184B015C01B801012E000C880B990B62
:102600000E9437199B01AC01C501B4010E94261A32
:102610004B015C0188E691E0B8010E94F81A072E90
:10262000000C880B990B0E9437199B01AC01C50166
:10263000B4010E94261A20E030E04AE754E40E94E8
:10264000261A20E030ED4FE557E40E948D184B012B
:102650005C010E9488189B01AC01C701B6010E9471
:10266000261A9B01AC0160911007709111078091AF
:102670001207909113070E94171860931007709328
:1026800011078093120790931307C501B4010E94AC
:10269000931A9B01AC01C701B6010E94261A9B0147
:1026A000AC01609114077091150780911607909105
:1026B00017070E94161860931407709315078093EC
:1026C00016079093170720E030E044EB53E4609145
:1026D000F4067091F5068091F6069091F7060E9437
:1026E0008D186B017C016091200770912107072EE6
:1026F000000C880B990B0E9437199B01AC01C70194
:10270000B6010E94261A0E94FF182B013C0170930B
:102710002307609322072091100730911107409101
:102720001207509113076091F8067091F906809195
:10273000FA069091FB060E9417186B017C016093CA
:10274000F8067093F9068093FA069093FB062091A1
:1027500014073091150740911607509117076091A3
:10276000FC067091FD068091FE069091FF060E9486
:1027700017184B015C016093FC067093FD06809373
:10278000FE069093FF0600910407109105070115BE
:10279000110561F4909100078091020710920707DC
:1027A0001092060790930807809309076091060727
:1027B00070910707072E000C880B990B0E943719A0
:1027C0009B01AC01C501B4010E9417180E94FF18BB
:1027D00069837A838B839C83F0910807FE83209121
:1027E00009072D83B801110F880B990B0E94371927
:1027F0009B01AC01C701B6010E9417180E94FF1887
:1028000070930B0760930A0789819A8190930D0753
:1028100080930C079E8190930E07ED81E0930F0744
:10282000C501B4010E94FF184B015C01C701B6014C
:102830000E94FF18DC01CB01E5EFF4E00491E6EF24
:10284000F4E0E490442031F192013327220F331F4A
:10285000E02FF0E04E2D469546954695642F70E0AA
:1028600041E050E01E2D177011F440E050E0460F9B
:10287000571FE49FB001E59F700DF49F700D112468
:10288000269FA001279F500D369F500D11244950BF
:102890005B4F02C047EF54E023E0C22E20E030E05F
:1028A000B40136CE80E090E0892B09F424CD0E945B
:1028B00000001DCD8CE396E00E94F9068AEB96E0BD
:1028C0000C94B906CF92DF92EF92FF920F931F9371
:1028D000CF93DF931F92CDB7DEB7182F062FE42ECC
:1028E000862F880F8E5F99830E94DE0A83E00E9404
:1028F000DE0AF12EC12E9981D92E8C2D8F198017C9
:1029000098F4F601E7FE02C0849101C080810E9424
:10291000DE0A182F80E00E94DE0A8123FFEFCF1A23
:10292000DF0A8111EACF01C081E00F90DF91CF91E2
:102930001F910F91FF90EF90DF90CF900895EF924D
:10294000FF921F93CF93DF93AAE6B6E013961C92F3
:102950001E92129748EE53E060E070E014964D939B
:102960005D936D937C9317978BE591E011969C9303
:102970008E93CFEFDFEF1D96DC93CE931C97EAEB9F
:10298000F6E081E2E82EF12CF08EE78A118E128EAD
:10299000138E46E050E060E070E0448F558F668F04
:1029A000778F10A211A212A213A220E224A316A2D2
:1029B00015A211A68CEB96E090A787A38BEF91E070
:1029C0009183808385E092E0958B848B16821582BB
:1029D000108617821286118614861386168615862F
:1029E000108A178689ED91E093838283B38BA28B43
:1029F00010E1118BECE3F6E0F48EE38E158E168E6B
:102A0000178E40A351A362A373A314A215A216A20A
:102A100017A220A712A611A615A61282138214824D
:102A2000158222E436E034A723A723E831E031837E
:102A300020832DE831E0318F208F12861186148695
:102A4000138616861586108A1786128A118A148AAA
:102A5000138A97838683B78BA68B88E0858BB09388
:102A60003B06A0933A0665EF75E08DE096E00E9484
:102A70000216E6E2F7E085E192E091838083158219
:102A800016821783D483C383148615861686178609
:102A9000108A8CED94E09093F3068093F20680E028
:102AA00090E89093F1068093F00646983E9A4798F6
:102AB0003F9AC4EFD6E0188219821A821B8280E006
:102AC00090E0A0E8B2E48C839D83AE83BF8380E076
:102AD00090E0A0E0B2E488879987AA87BB8780E16D
:102AE00090E09D878C879F878E8786E0E9E2F1E002
:102AF000A4E0B7E001900D928A95E1F71C8E1D8E3F
:102B00001E8E1F8E18A219A21AA21BA280E090E0AE
:102B1000A0E4B0E48CA39DA3AEA3BFA38DEC9CEC7A
:102B2000ACE4BDE388A799A7AAA7BBA78CE090E077
:102B30009DA78CA71FA61EA683E090E099AB88AB4B
:102B4000DF91CF911F91FF90EF9008958F929F9208
:102B5000AF92BF92CF92DF92EF92FF92CF93DF932B
:102B6000EC01688179818A819B81611571058105FC
:102B7000910521F464E279ED8BE597E02DE133EFE7
:102B800041E050E00E94B31749015A019B01AC019A
:102B9000A7EAB1E40E94D2176B017C01ACEEB4EF5E
:102BA000A50194010E94E017DC01CB018C0D9D1D55
:102BB000AE1DBF1DB7FF03C00197A109B0488883B0
:102BC0009983AA83BB83BC01CD019F77DF91CF910D
:102BD000FF90EF90DF90CF90BF90AF909F908F903D
:102BE00008950E94A615089588E191E00E94A61517
:102BF0000895609318017093190180931A019093BE
:102C00001B0108950F931F93CF93DF93009731F427
:102C10006115710519F480E090E03AC08B01EC0178
:102C20006EE070E081E090E00E944D16FC01892B7F
:102C300091F380E883830115110571F013870287F2
:102C400081E883838091440790914507892B21F483
:102C5000F0934507E09344072097C9F0D187C087D8
:102C60008381826083838091460790914707892BF7
:102C700071F4F0934707E0934607809148079091DD
:102C80004907892B21F4F0934907E0934807CF01C6
:102C9000DF91CF911F910F9108950F931F93CF93C1
:102CA000DF93869F8001879F100D969F100D112442
:102CB000C8010E946916EC01009729F0A80160E0A4
:102CC00070E00E949617CE01DF91CF911F910F9176
:102CD0000895CF93DF938230910510F482E090E065
:102CE000E0914C07F0914D0720E030E0C0E0D0E0EB
:102CF000309711F14081518148175907C0F04817AA
:102D0000590761F482819381209719F09B838A830C
:102D10002BC090934D0780934C0726C02115310599
:102D200019F04217530718F49A01BE01DF01EF01B1
:102D30000280F381E02DDCCF2115310509F1281B3C
:102D4000390B2430310590F412968D919C91139794
:102D50006115710521F0FB019383828304C0909378
:102D60004D0780934C07FD01329644C0FD01E20FF0
:102D7000F31F81939193225031092D933C933AC0D4
:102D800020914A0730914B07232B41F420911E01DB
:102D900030911F0130934B0720934A0720911C016B
:102DA00030911D012115310541F42DB73EB74091F9
:102DB000200150912101241B350BE0914A07F0912D
:102DC0004B07E217F307A0F42E1B3F0B2817390718
:102DD00078F0AC014E5F5F4F2417350748F04E0F77
:102DE0005F1F50934B0740934A078193919302C012
:102DF000E0E0F0E0CF01DF91CF9108950F931F93B2
:102E0000CF93DF93009709F48CC0FC0132971382B3
:102E1000128200914C0710914D070115110581F4A4
:102E200020813181820F931F20914A0730914B07F7
:102E30002817390779F5F0934B07E0934A0771C0DB
:102E4000D80140E050E0AE17BF0750F412962D9124
:102E50003C911397AD012115310509F1D901F3CF4B
:102E60009D01DA013383228360817181860F971F70
:102E70008217930769F4EC0128813981260F371FE7
:102E80002E5F3F4F318320838A819B81938382838E
:102E9000452B29F4F0934D07E0934C0742C013965D
:102EA000FC93EE931297ED01499159919E01240FE5
:102EB000351FE217F30771F480819181840F951F0C
:102EC000029611969C938E938281938113969C9384
:102ED0008E931297E0E0F0E0D80112968D919C91CC
:102EE0001397009719F0F8018C01F6CF8D919C9102
:102EF00098012E5F3F4F820F931F20914A07309118
:102F00004B072817390769F4309729F410924D07B9
:102F100010924C0702C01382128210934B07009349
:102F20004A07DF91CF911F910F910895DC0101C0F5
:102F30006D9341505040E0F70895F999FECF92BD4E
:102F400081BDF89A992780B50895262FF999FECF6B
:102F50001FBA92BD81BD20BD0FB6F894FA9AF99AB6
:102F60000FBE01960895052E97FB1EF400940E9453
:102F7000CA1757FD07D00E94E51707FC03D04EF48F
:102F80000C94CA1750954095309521953F4F4F4F5F
:102F90005F4F089590958095709561957F4F8F4F05
:102FA0009F4F08950E940718A59F900DB49F900D04
:102FB000A49F800D911D11240895B7FF0C94D21782
:102FC0000E94D217821B930B0895A1E21A2EAA1B0E
:102FD000BB1BFD010DC0AA1FBB1FEE1FFF1FA217C9
:102FE000B307E407F50720F0A21BB30BE40BF50BC6
:102FF000661F771F881F991F1A9469F7609570954F
:10300000809590959B01AC01BD01CF010895A29FD1
:10301000B001B39FC001A39F700D811D1124911DAC
:10302000B29F700D811D1124911D08955058BB272A
:10303000AA270E942E180C94D8190E949F1938F0C4
:103040000E94A61920F039F49F3F19F426F40C943D
:103050009C190EF4E095E7FB0C949619E92F0E9459
:10306000FD1958F3BA17620773078407950720F014
:1030700079F4A6F50C941F1A0EF4E0950B2EBA2FD6
:10308000A02D0B01B90190010C01CA01A00111246E
:10309000FF27591B99F0593F50F4503E68F11A161A
:1030A000F040A22F232F342F4427585FF3CF4695AB
:1030B00037952795A795F0405395C9F77EF41F16CD
:1030C000BA0B620B730B840BBAF09150A1F0FF0F97
:1030D000BB1F661F771F881FC2F70EC0BA0F621F83
:1030E000731F841F48F4879577956795B795F79573
:1030F0009E3F08F0B0CF9395880F08F09927EE0F08
:103100009795879508950E94721908F481E00895B3
:103110000E94AF19E3950C94E9190E94A1180C9430
:10312000D8190E94A61958F00E949F1940F029F45E
:103130005F3F29F00C94961951110C94201A0C94AD
:103140009C190E94FD1968F39923B1F3552391F35B
:10315000951B550BBB27AA2762177307840738F006
:103160009F5F5F4F220F331F441FAA1FA9F335D063
:103170000E2E3AF0E0E832D091505040E695001C17
:10318000CAF72BD0FE2F29D0660F771F881FBB1FD1
:10319000261737074807AB07B0E809F0BB0B802DAF
:1031A000BF01FF2793585F4F3AF09E3F510578F0DB
:1031B0000C9496190C94201A5F3FE4F3983ED4F3D4
:1031C000869577956795B795F7959F5FC9F7880FAF
:1031D000911D9695879597F90895E1E0660F771F01
:1031E000881FBB1F621773078407BA0720F0621B92
:1031F000730B840BBA0BEE1F88F7E09508950E94BD
:1032000006196894B1110C94201A08950E94051AA9
:1032100088F09F5798F0B92F9927B751B0F0E1F097
:10322000660F771F881F991F1AF0BA95C9F714C047
:10323000B13091F00E941F1AB1E008950C941F1A4A
:10324000672F782F8827B85F39F0B93FCCF3869580
:1032500077956795B395D9F73EF4909580957095DD
:1032600061957F4F8F4F9F4F0895E89409C097FB5A
:103270003EF490958095709561957F4F8F4F9F4F4D
:103280009923A9F0F92F96E9BB279395F695879591
:1032900077956795B795F111F8CFFAF4BB0F11F454
:1032A00060FF1BC06F5F7F4F8F4F9F4F16C08823FB
:1032B00011F096E911C0772321F09EE8872F762F31
:1032C00005C0662371F096E8862F70E060E02AF072
:1032D0009A95660F771F881FDAF7880F969587955E
:1032E00097F90895990F0008550FAA0BE0E8FEEF33
:1032F00016161706E807F907C0F012161306E407BA
:10330000F50798F0621B730B840B950B39F40A26B2
:1033100061F0232B242B252B21F408950A2609F490
:10332000A140A6958FEF811D811D089597F99F6794
:1033300080E870E060E008959FEF80EC089500243D
:103340000A941616170618060906089500240A940A
:10335000121613061406050608950C949C190E9473
:10336000051AD8F3E894E0E0BB279F57F0F02AED68
:103370003FE049EC06C0EE0FBB0F661F771F881FAA
:1033800028F0B23A62077307840728F0B25A620B3A
:10339000730B840BE3959A9572F7803830F49A9505
:1033A000BB0F661F771F881FD2F790480C949D1A99
:1033B000092E0394000C11F4882352F0BB0F40F443
:1033C000BF2B11F460FF04C06F5F7F4F8F4F9F4F83
:1033D0000895EF93E0FF07C0A2EA2AED3FE049EC31
:1033E0005FEB0E942E180E94D8190F90039401FCE5
:1033F0009058ECEAF0E00C94A91A57FD9058440F4D
:10340000551F59F05F3F71F04795880F97FB991F43
:1034100061F09F3F79F08795089512161306140600
:10342000551FF2CF4695F1DF08C01616170618068D
:10343000991FF1CF86957105610508940895E89468
:10344000BB2766277727CB0197F908950E94391A81
:103450000C94D8190E949F1938F00E94A61920F0E8
:10346000952311F00C9496190C949C1911240C942A
:10347000201A0E94FD1970F3959FC1F3950F50E03B
:10348000551F629FF001729FBB27F00DB11D639F16
:10349000AA27F00DB11DAA1F649F6627B00DA11DBC
:1034A000661F829F2227B00DA11D621F739FB00D62
:1034B000A11D621F839FA00D611D221F749F3327D2
:1034C000A00D611D231F849F600D211D822F762F6B
:1034D0006A2F11249F5750409AF0F1F088234AF048
:1034E000EE0FFF1FBB1F661F771F881F91505040B4
:1034F000A9F79E3F510580F00C9496190C94201A60
:103500005F3FE4F3983ED4F3869577956795B7953A
:10351000F795E7959F5FC1F7FE2B880F911D969554
:10352000879597F908959F930E94AF190F9007FC14
:10353000EE5F0C94E9199F3F31F0915020F487958C
:1035400077956795B795880F911D9695879597F90B
:1035500008959F938F937F936F93FF93EF939B01B6
:10356000AC010E94261AEF91FF910E94BD1A2F9183
:103570003F914F915F910C94261ADF93CF931F9345
:103580000F93FF92EF92DF927B018C01689406C04B
:10359000DA2EEF010E94391AFE01E894A5912591D7
:1035A000359145915591A6F3EF010E942E18FE0129
:1035B0009701A801DA9469F7DF90EF90FF900F91DF
:1035C0001F91CF91DF910895AA1BBB1B51E107C04A
:1035D000AA1FBB1FA617B70710F0A61BB70B881FA3
:1035E000991F5A95A9F780959095BC01CD01089532
:1035F00097FB072E16F4009407D077FD09D00E94A0
:10360000E41A07FC05D03EF4909581959F4F0895EC
:10361000709561957F4F0895EE0FFF1F0590F4910F
:10362000E02D099481E090E0F8940C94171B14E0CD
:10363000C7E9D4E004C0FE010E940C1B2196C839E2
:08364000D107C9F7F894FFCF90
:1036480000001D00D2FF05001E002E00FFFFFFFF37
:1036580000E10000000000000100000000004E072B
:10366800800000C1808100000004000800080818DC
:10367800000000000000000000E8FFE8FF00000074
:1036880000000014000000000000000000ECFFEC47
:10369800FF000000000000000000006B0B030FDAC1
:1036A8000B810B8C0B020CDE0B06000000000024C3
:1036B800072607FAFFFAFF00002507280718000069
:1036C800000000F9061007E8FFE8FF000006071AE7
:1036D80007830135013F018D0100000000DB0AE48A
:1036E80006F405F105EE05EB05E8055F055B0558F1
:1036F8000542056205E604E4040200000000003407
:10370800073607FEFFFEFF000035073807000000F8
:1037180000DD0A420700000000DC0A3207F405F168
:1037280005EE05EB05E805DC0596057D05640562F3
:103738000553063206140000000000B906D006EC56
:10374800FFECFF0000C606DA06FB0149015301053C
:083758000200000000DF040084
:00000001FF
