:100000000C9489040C94B1040C94B1040C94B104C4
:100010000C94B1040C94B1040C94B1040C94B1048C
:100020000C94B1040C94B1040C94110C0C94830C3A
:100030000C94B1040C94B1040C94B1040C94B1046C
:100040000C94B1040C94B1040C94B1040C94B1045C
:100050000C94B1040C94B1040C94B1040C945A07A0
:100060000C94B1040C94B1040C94B1040C94B1043C
:100070000C94B1040C94B1040C94B1040C94B1042C
:100080000C9452080C94B1040C94B1040C94B10477
:100090000C94B1040C94B1040C94B1040C94B1040C
:1000A0000C94B1040C94B1040C94B104D5F08D14EB
:1000B000A1C881CFD9F1AF2000430D00F800FCF8B2
:1000C000FEFCFF0CFF0CFF1CFF18FE00FCF8FEFC02
:1000D000FF0CFF0CFFFCFFF8FE00FEFCFFFCFF78AE
:1000E000FEF0FC78FEFCFFFCFF00FEFCFFFCFFCCFA
:1000F000FFCCFFFCFF78FE00FE3CFF7CFFE0FEE053
:10010000FE7CFF3CFF00FEF8FEFCFF0CFF0CFF1C1A
:10011000FF18FE00FCF8FEFCFF0CFF0CFFFCFFF8D4
:10012000FE00FEFCFFFCFFCCFFCCFFFCFF78FE00D6
:10013000FEFCFFFCFF6CFF6CFF0CFF0CFF001E00C1
:100140000C00030007030F071F061F061F071F03EE
:100150000F0007030F071F061F061F071F030F00CF
:100160000F071F071F000F0007000F071F071F00C3
:100170000F071F071F000F0007000300010000000A
:1001800007000F071F071F000F00070007030F07D7
:100190001F061F061F071F030F0007030F071F0679
:1001A0001F061F071F030F000F071F071F000F0069
:1001B0000F071F071F000F071F071F061F061F0639
:1001C0001F061F000F0006412E0000000000000067
:1001D000000000000000C0E0F0F8FCFCFEFE04009F
:1001E000000000000000000080808080808080800F
:1001F000808080800002071FFFFEFEFCFCF8F0E01C
:10020000800000000000000000000000000000006E
:100210000000000000001E7FFFFFFFFFFFFFFFFF49
:10022000FEFCFC06060303030301010101010101B9
:10023000010101010103030307070F1F3F7FFFFFB8
:100240003F070000000000000000000000808080E8
:10025000808080C0C0C0C0E0F0FD8F0307070707A3
:10026000070301000080C0E0E0F0F0F0F0F0F06083
:1002700000C0E0E0F0F0F0F0F0E0D83C9CDCDC986E
:10028000333F7FFFDFDF6F6F371B0E0402070D1B4D
:100290003337676F6FCFCFCFCFDFDF1F1E00000078
:1002A0000000000000010D070301010130180C0CD3
:1002B0000C1800030F1F7FFF9F9F0F0F0FCD3303FD
:1002C00001000000FFFF000000000000000000002F
:1002D0000000000000000000000000030F1C306060
:1002E000C0800000000000000000000000000000CE
:1002F00000000000003830200020202111D1D0E87B
:10030000C7E2B01C0F030000000000000000000066
:1003100000000000000000000000000000000000DD
:10032000000001030306060C0C18181818303030B2
:100330003030303018181818180C0C0C0606030151
:10034000030703000000000000000000000000415F
:100350002E00000000000000000000000000C0E0CF
:10036000F0F8FCFCFEFE04000000000000000000AD
:100370008080808080808080808080800002071F55
:10038000FFFEFEFCFCF8F0E0800000000000000032
:1003900000000000000000000000000000001E7FC0
:1003A000FFFFFFFFFFFFFFFFFEFCFC06060303034A
:1003B0000301010101010101010101010103030325
:1003C00007070F1F3F7FFFFF3F07000000000000EF
:1003D0000000000000808080808080C0C0C0C0E03D
:1003E000F0FD8F0307070707070301000080C0E047
:1003F000E0F0F0F0F0F0F06000C0E0E0F0F0F0F0DD
:10040000F0E0D83C9CDCDC98333F7FFFDFDF6F6F90
:10041000371B0E0402070D1B3337676F6FCFCFCF2B
:10042000CFDFDF1F1E0000000000000000010D07ED
:1004300003010101183C7E7E7E3C18030F1F7FFFE5
:100440009F9F0F0F0FCD330301000000FFFF00003F
:10045000000000000000000000000000000000009C
:10046000000000030F1C3060C0800000000000008E
:1004700000000000000000000000000000383020F4
:100480000020202111D1D0E8C7E2B01C0F030000EA
:10049000000000000000000000000000000000005C
:1004A0000000000000000000000001030306060C2D
:1004B0000C18181818303030303030301818181820
:1004C000180C0C0C060603010307030000000000D3
:1004D00000000000000000141000000000F8F810F8
:1004E000F0A0E038F808F828F828F828F828F828C4
:1004F000F888F818F8A0E020E060E0C0C000000034
:1005000000000000001F1F101F363F223F637F6363
:100510007F373F171F171F373F233F627F627F22BE
:100520003F101F1F1F000000000000C0C0E0E0409F
:10053000C070F018F8C8F8A8F828F8A8F828F80843
:10054000F818F890F030F020E060E0C0C000000043
:100550000000000707080F1B1F363F203F2D3F46B6
:100560007F437F427F263F171F131F131F213F31F9
:100570003F101F0F0F060600000000000000008063
:1005800080E0E030F0D0F088F8A8F8A8F828F82843
:10059000F808F818F8B0F020E0E0E00000000000F3
:1005A00000000000001C1C1F1F303F2E3F2E3F2C60
:1005B0003F6C7F417F467F427F737F131F101F1860
:1005C0001F0F0F00000000000000000000000000EE
:1005D000000000C0C078F808F8A8F8A8F8A8F8A8A3
:1005E000F808F878F8C0C000000000000000000023
:1005F00000000000000000000000007F7F407F4CF2
:100600007F4C7F4C7F447F4C7F4C7F407F7F7F00BF
:10061000000000000000000000000000000000E0FA
:10062000E020E0B0F018F808F828F828F8A8F8A8B2
:10063000F888F8D0F030F0E0E080800000000000A2
:10064000000000000000000F0F181F101F131F7381
:100650007F427F467F417F6C7F2C3F263F2E3F307D
:100660003F1F1F1C1C0000000000000000C0C060F5
:10067000E020E030F090F018F808F828F8A8F82802
:10068000F8A8F8C8F818F870F040C0E0E0C0C00062
:1006900000000006060F0F101F313F213F131F13EC
:1006A0001F171F263F427F437F447F2C3F203F364A
:1006B0003F1B1F080F0707000000000000C0C060BC
:1006C000E020E0A0E018F888F828F828F828F828B2
:1006D000F828F808F838F8A0E010F0F8F800000062
:1006E00000000000001F1F101F223F627F627F2357
:1006F0003F373F171F171F373F637F627F223F3609
:100700003F101F1F1F0000000000000000C0C0407D
:10071000C060E038F848F8C8F808F8A8F828F81CCD
:10072000FC48F808F810F010F020E0E0E0808000CD
:1007300000000007070B0F181F303F203F6D7F465A
:100740007F427F677F363F171F131F233F213F31B3
:100750003F1B1F0D0F070700000000000000008076
:1007600080C0C070F090F0C8F8C8F8B4FC2CFC2829
:10077000F848F888F898F810F0F0F0000000000051
:10078000000000000018183F3F203F283F2C3F404A
:100790007F407F407F467F437F737F131F101F186A
:1007A0001F0707000000000000000000000000001C
:1007B000000000C0C078F808F8B8F8B8F8B8F8B881
:1007C000F808F878F8C0C000000000000000000041
:1007D00000000000000000000000007F7F407F401C
:1007E0007F407F4C7F4C7F407F407F407F7F7F00FA
:1007F000000000000000000000000000000000F009
:10080000F010F098F888F848F828F82CFCB4FCC8E8
:10081000F8C8F890F070F0C0C080800000000000C0
:10082000000000000000000707181F101F131F73AF
:100830007F437F447F407F487F407F2C3F283F207D
:100840003F3F3F18180000000000008080E0E020DB
:10085000E050F010F008F848F81CFC28F8A8F80858
:10086000F8C8F848F838F860E040C0C0C0000000A0
:1008700000000007070D0F1B1F313F213F233F13CF
:100880001F171F363F677F427F467F6D7F203F30B7
:100890003F181F0B0F07070000080B0002020201A0
:1008A00000090400000102020000052400100105F7
:1008B0002401010104240206052406000107058124
:1008C0000310004009040100020A000000070502AD
:1008D00002400000070583024000000403090412DF
:1008E000010002EF020140412336800001010203B2
:1008F0000141726475696E6F204C4C430041726413
:1009000075696E6F204C656F6E6172646F00E713DE
:10091000A21311241FBECFEFDAE0DEBFCDBF12E07D
:10092000A0E0B1E0EAEBF1E302C005900D92A8313E
:10093000B107D9F727E0A8E1B2E001C01D92A634C3
:10094000B207E1F714E0C8E8D4E004C02197FE0143
:100950000E94C518C738D107C9F70E94DA0F0C9456
:10096000D0180C94000080912402E0912202F091B2
:100970002302882349F0CF010296909323028093AB
:100980002202859194910895CF01029690932302BB
:100990008093220280819181089580911B020895A5
:1009A0000895089580E090E00895CB0108957F9226
:1009B0008F929F92AF92BF92CF92DF92EF92FF926F
:1009C0000F931F93CF93DF93EC0149015A018B01E1
:1009D000C12CD12C7601C814D904EA04FB0484F597
:1009E000F80171908F018F8580FF0BC0E881F9813C
:1009F0000084F185E02D20E144E060E070E0CE016C
:100A00000995EB85FC858D859E85E817F90738F4F7
:100A100070828B859C8501969C878B870BC0E881B3
:100A2000F981672D70E0028CF38DE02DCE010995E0
:100A3000019649F02FEFC21AD20AE20AF20ACBCF8E
:100A4000B401C50102C0B601C701DF91CF911F916A
:100A50000F91FF90EF90DF90CF90BF90AF909F905D
:100A60008F907F900895CF93DF93EC01E881F98117
:100A70000288F389E02D09958F3F2FEF920731F01F
:100A80002D813E812F5F3F4F3E832D83DF91CF919C
:100A900008958FEF9FEF089560E070E0CB01089517
:100AA00080E090E00895CB010895CF93DF93EC01AF
:100AB00088899989DC01ED91FC910084F185E02D14
:100AC0000995892BA9F388899989DC01ED91FC911D
:100AD0000284F385E02DDF91CF910994CF93DF93CA
:100AE000EC0188899989DC01ED91FC910084F18504
:100AF000E02D0995892BA9F388899989DC01ED916D
:100B0000FC910484F585E02DDF91CF910994AF929B
:100B1000BF92CF92DF92EF92FF920F931F93CF93EA
:100B2000DF9300D000D0CDB7DEB78C015B01C12CC4
:100B3000D12C7601F80180899189DC01ED91FC913D
:100B40000284F385E02D29833A834B835C830995E6
:100B500029813A814B815C818F3F71F0C216D306A7
:100B6000E406F5064CF4D5018D935D01BFEFCB1A79
:100B7000DB0AEB0AFB0ADECFC701B6010F900F902C
:100B80000F900F90DF91CF911F910F91FF90EF90F9
:100B9000DF90CF90BF90AF900895DC0150968D917B
:100BA0009C915197DC01ED91FC910084F185E02D41
:100BB000099480E090E0089580E090E0089580E05E
:100BC00090E0089580E090E008950895CF93DF933A
:100BD000C0913A06D0913B06E881F9810084F18505
:100BE000E02DCE010995892BB9F3E881F9810284C2
:100BF000F385E02DCE01DF91CF9109941F93CF9320
:100C0000DF93182FC0913A06D0913B068A3041F409
:100C1000E881F9810190F081E02D6DE0CE01099528
:100C2000E881F9810190F081E02D612FCE010995D5
:100C300021E030E0019711F420E030E0C901DF91BC
:100C4000CF911F9108950F931F93CF93DF938C0142
:100C5000EB016F3F8FEF780719F480E090E00FC051
:100C60006A3031F46DE0F801808991890E94B30EF9
:100C70006C2FF801808991890E94B30ECE01DF911B
:100C8000CF911F910F9108958F929F92BF92CF9213
:100C9000DF92EF92FF920F931F93CF93DF9300D0D9
:100CA00000D0CDB7DEB78C014B01C12CD12C760121
:100CB000C216D306E406F50644F5F401B1904F01DF
:100CC000FAE0BF120EC06DE0F80180899189298396
:100CD0003A834B835C830E94B30E5C814B813A81E3
:100CE00029816B2DF8018089918929833A834B836F
:100CF0005C830E94B30EFFEFCF1ADF0AEF0AFF0AF0
:100D00005C814B813A812981D3CFCA01B9010F900F
:100D10000F900F900F90DF91CF911F910F91FF9047
:100D2000EF90DF90CF90BF909F908F900895FB0140
:100D300020813181FC0131832083FB014281538179
:100D4000F901369720813181FC01E20FF31F5183B5
:100D5000408308952BEF31E0FC013183208325E0AF
:100D600032E0358B248B6BE072E00C949706DC014B
:100D7000ED91FC91369720813181820F931F0C9465
:100D8000AA06CF93DF93EC010E94AA06CE01DF9161
:100D9000CF910C943A16DC01ED91FC9136972081AD
:100DA0003181820F931F0C94C1060C943A16FB01FB
:100DB00020813181FC0131832083FB0142815381F9
:100DC000F901369720813181FC01E20FF31F518335
:100DD0004083089523E831E0FC01318320832DE82E
:100DE00031E0318F208F63E971E00C94D706DC018C
:100DF000ED91FC91369720813181820F931F0C94E5
:100E0000EA06CF93DF93EC010E94EA06CE01DF9160
:100E1000CF910C943A16DC01ED91FC91369720812C
:100E20003181820F931F0C940107089508950C944B
:100E30003A16DC01ED91FC91369720813181820FC9
:100E4000931F0C9417070C943A16089508950C9468
:100E50003A16DC01ED91FC91369720813181820FA9
:100E6000931F0C9427070C943A163FB7F89480917F
:100E70002F0290913002A0913102B091320226B53A
:100E8000A89B05C02F3F19F00196A11DB11D3FBFC2
:100E9000BA2FA92F982F8827820F911DA11DB11D50
:100EA000BC01CD0142E0660F771F881F991F4A954C
:100EB000D1F708951F920F920FB60F9211242F931E
:100EC0003F938F939F93AF93BF9380911C02909118
:100ED0001D02A0911E02B0911F0230912E0223E04C
:100EE000230F2D3720F40196A11DB11D05C026E862
:100EF000230F0296A11DB11D20932E0280931C0288
:100F000090931D02A0931E02B0931F0280912F02A6
:100F100090913002A0913102B09132020196A11D50
:100F2000B11D80932F0290933002A0933102B093B1
:100F30003202BF91AF919F918F913F912F910F906E
:100F40000FBE0F901F901895CF92DF92EF92FF92F5
:100F50000F931F93CF93DF930E94B304811520E872
:100F6000920761F4809171008D7F809371001092DF
:100F7000910046984798109227028BC021E0209359
:100F80002702813020E8920751F48091200290914D
:100F9000210290932302809322020E94B30497FDC2
:100FA00005C020912602222309F43FC0209125028A
:100FB00021113BC021E020932802EC01DF7720972C
:100FC00069F481E08093290246983FE9C32E3FE00F
:100FD000D32EE12CF12CCAEFD0E014C08E0120E01A
:100FE00030E060E472E48FE090E0A90198010E9493
:100FF000EF1669017A0181E0C81AD108E108F10809
:1010000010922902E091F206F091F3060995811100
:1010100003C081E080932902809128028823B9F1DE
:1010200080912902811133C003C010922802C5CFDC
:1010300046992DC0479A0E94B304009771F09C0115
:10104000DE010E944317DC01CB0129E0B595A7958D
:10105000979587952A95D1F703C08FEF9FEFDC0115
:10106000109290002AE020939100D0929900C092B3
:10107000980080932A0290932B02A0932C02B093A5
:101080002D028091710082608093710002C04798A8
:10109000D2CFDF91CF911F910F91FF90EF90DF9012
:1010A000CF9008951F920F920FB60F9211242F9395
:1010B0003F934F935F936F937F938F939F93AF93E0
:1010C000BF93EF93FF9380912A0290912B02A091FE
:1010D0002C02B0912D02892B8A2B8B2B81F18091D0
:1010E000290281110BC098B180E4892788B98091C9
:1010F0002802882319F088B1805888B980912A0283
:1011000090912B02A0912C02B0912D021816190675
:101110001A061B06B4F480912A0290912B02A0912A
:101120002C02B0912D020197A109B10980932A02E6
:1011300090932B02A0932C02B0932D0202C00E9428
:10114000A407FF91EF91BF91AF919F918F917F91F4
:101150006F915F914F913F912F910F900FBE0F9024
:101160001F9018954F925F926F927F928F929F92ED
:10117000AF92BF92CF92DF92EF92FF920F931F93A5
:10118000CF93DF9300D000D0CDB7DEB749012C2D2F
:10119000A02EB12CDC01AA0DBB1D1A161B060CF0EB
:1011A000B3C1803891050CF0AFC1FB01EE0DF11D0C
:1011B0001E161F060CF0A8C1603471050CF0A4C106
:1011C0004115510509F4A0C1FB0177FF04C0EE27CA
:1011D000FF27E61BF70B3E2F3770732EFB0177FDC1
:1011E000379633E0F595E7953A95E1F73E2F77FF8F
:1011F00007C0772029F03FEF3E0F68E06719762E91
:1012000097FF05C0EE27FF27E81BF90B02C0E0E0BF
:10121000F0E0A038B10524F060E8F62EF81A01C01D
:10122000F02EFE1A632F032E000C770B3F3F1CF4A9
:10123000A62FA09501C0A0E011E0BE2DB77009F463
:1012400010E0E694E694E694E10E6E0D711D6930AF
:1012500071051CF068E0E62EE31AEA1A3A0F60E81E
:101260003603800D911D11248E0F9F1FA09FE00D4E
:10127000F11D11244E0F5F1F61E070E0072C02C0CA
:10128000660F771F0A94E2F7233009F4FCC098F444
:10129000213009F4AEC0223009F036C12FEF269F6D
:1012A0008001279F100D1124009510951C830B833E
:1012B0005C80E30E27C02A3F29F02B3F09F024C1B0
:1012C000E30E83C0E30E4EC0FA01EC0DFD1DE49168
:1012D000E69F4001E79F900C11249A82898237FD96
:1012E00004C02C912023822A8C92711014C0EFEF3D
:1012F000CE1ADE0A1196CF1438F33F5F4A0D5B1DFC
:1013000080589F4F3E1509F4FFC0DC01A65CBD4F1D
:10131000C12CD12CF0CF373054F7FD01E058FF4FEE
:10132000208125219A8029292083E1CFFA01E00F2D
:10133000F11FE491E69F6001E79FD00C1124DA824F
:10134000C98237FD03C02C91C22ACC92711013C000
:101350000F5F1F4F11960F1548F33F5F4A0D5B1D3E
:1013600080589F4F3E1509F4CFC0DC01A65CBD4FED
:1013700000E010E0F0CF37305CF7FD01E058FF4FA0
:10138000D0802A812D292083E3CFFA01EC0DFD1DA9
:10139000E491E69FD001E79FB00D1124BA83A983A1
:1013A00037FD05C0A095F8012081A223A08371100C
:1013B00015C0FFEFCF1ADF0A0F5F1F4FCF1428F3BE
:1013C0003F5F4A0D5B1D80589F4F3E1509F49CC03E
:1013D0008C01065C1D4FC12CD12CF0CF37304CF75F
:1013E000F801E058FF4F2A812095A0812A2320830D
:1013F000E0CFD401AE0FBF1FE30E3E1509F484C049
:10140000FC01E65CFD4F4F01C12CD12CCF1498F5A7
:10141000FD01EC0DFD1DE491E69F8001E79F100D9D
:101420001124009510951C830B83FA01EC0DFD1D12
:10143000E491E69F2001E79F500C11245A824982D3
:1014400037FD05C0F40120810223402A4082772025
:1014500059F037304CF4F401E058FF4F10812C81E3
:1014600021231A81212B2083FFEFCF1ADF0A2FEFD0
:10147000821A920ACBCF3F5F4A0D5B1DAA0DBB1D9E
:1014800080589F4FBACFCF2CD12CE40FF51FDC0131
:10149000A65CBD4FAC0146545D4F00E810E00C194E
:1014A0001D09AC18BD08AA0CBB1C6F2C2E2DCF93A8
:1014B000DF93EA018590C590772059F0869E400120
:1014C000C69E600137302CF49881D0949D219929D3
:1014D000999333233AF09C91C0949C2198299D9331
:1014E0000C94730A1196FA9429F7EA9451F0F62CA9
:1014F00033951124EA0DF11DA00FB11DC00FD11DB0
:10150000D9CFDF91CF9111240F900F900F900F90B2
:10151000DF91CF911F910F91FF90EF90DF90CF90CF
:10152000BF90AF909F908F907F906F905F904F9003
:101530000895BC0180E090E00C94BA0E8FB12CB1FC
:1015400093B130E02095309520743327A90123E032
:10155000559547952A95E1F7292F30E0209530954C
:10156000207133273595279535952795242B809520
:10157000807F822B089583B7817F83BF83B781608B
:1015800083BF889583B78E7F83BF08958EBD00008B
:101590000DB407FEFDCF0895089508950895409174
:1015A00035025091360220913302309134024217B5
:1015B0005307B4F49091E8009570E1F39091E8003E
:1015C00092FD19C08093F10080913502909136020E
:1015D00001968F739927892B19F48EEF8093E80079
:1015E0008091350290913602019690933602809355
:1015F000350281E0089580E00895DF92EF92FF9236
:101600000F931F93CF93DF93D82E8A017B01E40EB3
:10161000F51EEB01CE15DF0571F0D7FE03C0FE010C
:10162000849101C088810E94CF0A21968111F2CF56
:101630008FEF9FEF01C0C801DF91CF911F910F91F4
:10164000FF90EF90DF900895615030F02091F1000D
:10165000FC0120830196F8CF289884E68093380215
:101660000895CF92DF92EF92FF920F931F93CF9343
:10167000DF936C017A018B01C0E0D0E0CE15DF056D
:1016800089F0D8016D918D01D601ED91FC91019009
:10169000F081E02DC6010995892B11F47E0102C06D
:1016A0002196ECCFC701DF91CF911F910F91FF9051
:1016B000EF90DF90CF900895CF93DF931F92CDB737
:1016C000DEB76983DC01ED91FC910280F381E02DAE
:1016D00041E050E0BE016F5F7F4F09950F90DF91B1
:1016E000CF91089583E08093E9008091F2008823F0
:1016F00019F08AE38093E8000895FC0184859585BC
:1017000097FD0BC09FB7F89482E08093E900809129
:10171000F2009FBF90E0019608959FB7F89482E091
:101720008093E9008091F2009FBF90E008950E94AD
:10173000CB180F931F93CF93DF931F92CDB7DEB7D4
:1017400082E0898342E450E069E978E080E80E9421
:10175000FD0A0E94C60FDC0112960D911C91139791
:101760000115110569F0D801ED91FC910280F3811A
:10177000E02DBE016F5F7F4FC801099597FF07C03D
:1017800089810F90DF91CF911F910F910895F801FA
:1017900000851185E5CF0E94B50F90E008950F9365
:1017A0001F93CF93DF931F92CDB7DEB78C01FC015F
:1017B0008485958597FF0EC0CE0101960E948B0F00
:1017C000019719F4298130E002C02FEF3FEFF801B3
:1017D00035872487F801848595850F90DF91CF9117
:1017E0001F910F910895CF93DF931F92CDB7DEB76E
:1017F000FC018485958597FD05C02FEF3FEF358768
:1018000024870BC0CE0101960E948B0F019719F41B
:10181000898190E002C08FEF9FEF0F90DF91CF9111
:1018200008951F920F920FB60F9211248F939F93DA
:101830008091E1009091E100937F9093E10083FF1C
:101840000FC01092E90091E09093EB001092EC0031
:1018500092E39093ED001092390298E09093F0009B
:1018600082FF20C093E09093E9009091F2009923C9
:1018700019F09AE39093E80090913702992339F098
:1018800090913702915090933702992389F190916A
:101890003802992339F09091380291509093380290
:1018A000992341F184FF10C08091E2008E7E816017
:1018B0008093E2008091E1008F7E8093E10080912F
:1018C00019028E7E806111C080FF16C08091E200F7
:1018D0008E7E80618093E2008091E1008E7E809315
:1018E000E100809119028E7E81608093190204C00C
:1018F0005D9ACDCF289AD6CF9F918F910F900FBE32
:101900000F901F9018951F920F920FB60F921124EF
:10191000CF92DF92EF92FF920F931F932F933F93FB
:101920004F935F936F937F938F939F93AF93BF93E7
:10193000EF93FF93CF93DF93CDB7DEB76C97DEBF06
:10194000CDBF1092E9008091E80083FFEDC168E00F
:10195000CE0145960E94240B82EF8093E8008D898A
:1019600087FF05C09091E80090FFFCCF03C09EEF79
:101970009093E800982F907609F0C6C09E892F8931
:10198000188D91110CC0803829F480911A0280932F
:10199000F10002C01092F1001092F10048C1422FF4
:1019A00050E0512B913051F4811141C1413051052A
:1019B00009F03DC180911A028D7F0BC0933061F414
:1019C000811135C14130510509F031C180911A02B0
:1019D000826080931A022BC1953041F48091E80017
:1019E00080FFFCCF20682093E30021C1963009F0EE
:1019F0005FC0EB8CFC8C1092E900109236021092C2
:101A00003502123091F510923402109233020E9486
:101A1000990B99E0BE016F5F7F4FDB01E92F1D92AB
:101A2000EA95E9F799831A8391E09E8390EA988773
:101A30009AEF99872091350230913602275F3F4F08
:101A40003C832B838D831092E90010923602109212
:101A50003502F0923402E092330249E050E080E037
:101A60000E94FD0A0E94990BE2C0F0923402E092BB
:101A700033020E94C60FDC011296ED90FC90139782
:101A8000E114F10409F4C0C0D701ED91FC91048088
:101A9000F581E02DBE016B5E7F4FC7010995009770
:101AA00019F00CF0C4C0C7C0F701E084F184E8CF9E
:101AB000973009F4C0C0983021F481E08093F100A0
:101AC000B6C0993009F0B3C0837009F0B4C0E3E246
:101AD000F1E081E021E036E39081992361F0809389
:101AE000E9002093EB0091919093EC003093ED008E
:101AF0008F5F873089F78EE78093EA001092EA00C3
:101B00008F898093390293C08B8D9C8D1092E90050
:101B10001092360210923502909334028093330271
:101B2000898D811156C08E899D89913A59F48132EF
:101B300009F081C047E050E060E171E080E00E9480
:101B4000FD0A75C0913209F076C0833289F4888D20
:101B500090E0982F88272F89822BA0E0B0E0809317
:101B60000C0190930D01A0930E01B0930F015FC083
:101B7000803269F48091E80082FFFCCF67E080E169
:101B800091E00E94240B8BEF8093E80006C0823224
:101B900009F04DC08F898093170180911802882326
:101BA00019F0EEEFFAE002C0E0E0F8E080911001F9
:101BB00090911101A0911201B0911301803B9440CA
:101BC000A105B10509F07BC08091170180FF93C08A
:101BD00076C00E94C60FDC0112960D911C911397DE
:101BE0000115110541F1D801ED91FC910190F081B1
:101BF000E02DBE016B5E7F4FC8010995811117C0B2
:101C0000F80100851185ECCF113009F44EC0133076
:101C100091F48F89882309F445C0823081F440E82B
:101C200060E18DEF98E00E94AA13882321F08EEFE7
:101C30008093E80079C081E28093EB0075C0813029
:101C400029F440E86BE081EF98E0EDCF833099F71D
:101C50000E94C60FDC011296ED90FC9013978E0146
:101C60000F5F1F4F6801E114F10479F0D701ED9186
:101C7000FC910680F781E02DB801C7010995080F96
:101C8000111DF701E084F184EECFD8011C92F6011A
:101C900001900020E9F73197BF016C197D0940E000
:101CA000C601C1CF6BED78E002C06FED78E0611541
:101CB000710509F2FB01449150E080E840CF0FB676
:101CC000F894A895809160008861809360001092DC
:101CD00060000FBEA895EE3F2AE0F20739F0809130
:101CE000FE0A9091FF0A91838083A1CF1092FF0A90
:101CF0001092FE0A9CCFEE3F8AE0F80731F0808117
:101D000091819093FF0A8093FE0A87E797E791837A
:101D100080839BE088E10FB6F894A89580936000DB
:101D20000FBE9093600083CF6C960FB6F894DEBF21
:101D30000FBECDBFDF91CF91FF91EF91BF91AF91DA
:101D40009F918F917F916F915F914F913F912F91D3
:101D50001F910F91FF90EF90DF90CF900F900FBEEB
:101D60000F901F901895DC01ED91FC910190F0818E
:101D7000E02D09948F929F92AF92BF92CF92DF9203
:101D8000EF92FF926B017C010E9435074B015C01D1
:101D9000C114D104E104F104F1F00E943507DC0123
:101DA000CB0188199909AA09BB09883E9340A1056E
:101DB000B10570F321E0C21AD108E108F10888EEFC
:101DC000880E83E0981EA11CB11CC114D104E1044B
:101DD000F10419F7DDCFFF90EF90DF90CF90BF9027
:101DE000AF909F908F9008958F929F92AF92BF92E5
:101DF000CF92DF92EF92FF920F931F93CF93DF93D7
:101E00005C016B017A0180911701882309F45BC0A2
:101E100080913902882309F456C08091190280FF0D
:101E200005C08091E00082608093E000E70110E04F
:101E30000AEF83E0882E9AE3992E2097D9F10E9429
:101E4000B50F81110AC0015009F43DC061E070E096
:101E500080E090E00E94BA0EF0CF282F30E0C21749
:101E6000D3070CF48C2F4FB7F8948092E90090912F
:101E7000E80095FF1DC0282F30E0C21BD30BF601F0
:101E8000982F915020F081918093F100FACFC20EEB
:101E9000D31E112319F09092E80009C08091E80048
:101EA00085FD06C09092E80011E0209709F010E04F
:101EB0004FBFC3CF1111C3CF5D9884E68093370223
:101EC0001E141F0444F081E090E0F50193838283A7
:101ED00080E090E001C0C701DF91CF911F910F9189
:101EE000FF90EF90DF90CF90BF90AF909F908F903A
:101EF000089580913A028EBDEBE3F2E081910DB43A
:101F000007FEFDCF8EBD86E0EA33F807B9F70DB4C2
:101F100007FEFDCF0895FC0180913902811103C0B5
:101F20008FEF9FEF08959FB7F89482E08093E900C8
:101F30002091F20030E01216130614F421E030E094
:101F40002115310559F0289884E680933802809154
:101F5000F10080838091F200882319F09FBFC901AE
:101F600008958BE68093E800F9CF2FB7F89483E0CB
:101F70008093E9009091E800892F807295FF04C05A
:101F80009091F20080E4891B2FBF0895809134075F
:101F900081110DC082E08093300784E08093310787
:101FA000109233071092320781E08093340780E368
:101FB00097E00895789484B5826084BD84B581608B
:101FC00084BD85B5826085BD85B5816085BD809104
:101FD0006E00816080936E0010928100809181007C
:101FE0008260809381008091810081608093810074
:101FF0008091800081608093800080919100826058
:1020000080939100809191008160809391008091F4
:1020100090008160809390008091C10084608093E3
:10202000C1008091C10082608093C1008091C10095
:1020300081608093C1008091C30081608093C30060
:102040008091C00082608093C0008091C200816056
:102050008093C20080917A00846080937A0080919E
:102060007A00826080937A0080917A008160809308
:102070007A0080917A00806880937A001092390209
:1020800010921A02109219028091D70081608093F9
:10209000D70080EA8093D80089B5806189BD89B571
:1020A000826089BD09B400FEFDCF61E070E080E090
:1020B00090E00E94BA0E8091D8008F7C806180935E
:1020C000D8008091E000807F8093E0008091E10063
:1020D0008E7E8093E1008DE08093E200559A209AF5
:1020E000EEEFFFE7859194918B3F9C4D19F481E0D1
:1020F0008093180281EC80937C0085B1806F85B954
:10210000249884B1866E84B95E9A5F988AB1806D96
:102110008AB9769A6E9881B3806F81BB899880B3B3
:102120008D7080BB80E58CBD81E08DBD85E090E049
:102130000E94990A5F9A85E090E00E94990A5E9851
:102140005C98CCEAD0E01C2F135FFE0184910E94C2
:10215000C60A21961C13F9CF5C9A81E8809364002B
:1021600081E080936500C0E0D4E080E00E94C60A70
:102170002197D9F70E949E0A87FF1FC05C9885EAC5
:102180000E94C60A5C9A2E982F982D988091640020
:102190008062809364000E94BB0AFDCF2D980E944C
:1021A0009E0A8478843871F00E949E0A847184317A
:1021B00029F188EC90E00E94990A0E949E0A82FD13
:1021C000EDCF38C02D9A88EC90E00E94990A2F98A4
:1021D00082E090E00E94D9168F3F29F06FEF82E0F5
:1021E00090E00E94E11684EF91E00E94990A2F9AF4
:1021F0000E949E0A84788438D9F3D6CF2D9A88EC31
:1022000090E00E94990A2E9882E090E00E94D916F0
:10221000882329F060E082E090E00E94E11684EFDC
:1022200091E00E94990A2E9A0E949E0A847184313C
:10223000D9F3BFCF2D9A82E090E00E94D91688236F
:1022400031F03E9A3F9A81E080931B0204C01092C5
:102250001B023E983F9882E390E00E94990A0E94F8
:102260009E0A8111F8CF809164008E7F8093640074
:1022700080917A00806480937A0080917A0086FD54
:10228000FCCFC0917800D09179000E9435078E0173
:1022900020E030E0980111270027600F711F821F96
:1022A000931F611571058105910511F00E94351587
:1022B00080916400816080936400A4E02A2E312C18
:1022C0002FB7F89480911C0290911D02A0911E02DC
:1022D000B0911F022FBF40912A0750912B076091A8
:1022E0002C0770912D07D0912E07DD2341F020910E
:1022F0002607821B80932F0710922E071BC284177C
:102300009507A607B70738F4481B423008F412C2F5
:102310000E94BB0A0FC2C1E0C0932E07809326071C
:1023200090932707A0932807B093290720912507AA
:10233000820F911DA11DB11D80932A0790932B0739
:10234000A0932C07B0932D0780912107909122072D
:102350000196909322078093210780912307809311
:1023600024070E949E0A80932307EAE3F2E0D1113A
:10237000DFEF0024D193D193D193D1930394D1F77C
:1023800060910401709105012091060130910701CF
:1023900062177307BCF46F5F7F4F70930501609302
:1023A00004018091020190910301EFE4F3E00491B4
:1023B000E0E5F3E0E490FAEFCF2E20E030E041E5F5
:1023C00053E07BC0809121079091220766E970E07D
:1023D0000E94B118892B21F080910001882341F0DF
:1023E00081E0809300010E949E0A85FD6BC08BC036
:1023F000309305012093040180910101811133C0C4
:10240000809171008D7F809371001092240284EE80
:1024100096E090932302809322029093210280936E
:10242000200286E194E09093E5068093E40682E33F
:1024300090E09093E7068093E6068DE298E0909313
:10244000E9068093E80684E690E09093EB0680939B
:10245000EA0680E090E89093ED068093EC060E94F7
:10246000A407C0930101609104017091050180915E
:10247000020190910301E7ECF1E00491E8ECF1E056
:10248000E4905AEFC52E20E030E049EC51E00E9484
:10249000B20860910A0170910B018091080190913E
:1024A0000901E9EBF0E00491EAEBF0E0E490E3E00D
:1024B000CE2E20E030E04BEB50E00E94B2080E94AC
:1024C000790F38C1209114073091150740911607F4
:1024D000509117076091F4067091F5068091F60609
:1024E0009091F7060E9452176B017C0120E030E0CA
:1024F000A9010E94AC1818160CF04AC030921D07B2
:1025000020921C0736C00E949E0A86FF3BC0209185
:1025100014073091150740911607509117076091E5
:10252000F4067091F5068091F6069091F7060E94E8
:1025300053176B017C016091FC067091FD06072E1C
:10254000000C880B990B0E94FC179B01AC01C70182
:10255000B6010E94531720E030E040E053E40E94AF
:10256000BF1787FF15C082E090E090931D0780930E
:102570001C07C092F406D092F506E092F606F0929F
:10258000F70606C0E3E0F0E0F0931D07E0931C07B8
:1025900060911C0770911D0777278091210790910A
:1025A00022070E94B118892BB9F480911A079091E3
:1025B0001B07209118073091190721503109821704
:1025C000930734F4019690931B0780931A0704C075
:1025D00010921B0710921A0720910C0730910D07DB
:1025E00040910E0750910F076091F8067091F9061F
:1025F0008091FA069091FB060E9453176B017C01B3
:102600006093F8067093F9068093FA069093FB06A0
:10261000C0910007D0910107209761F49091FC06CA
:102620008091FE0610920307109202079093040710
:10263000809305078090F4069090F506A090F6062A
:10264000B090F7066091020770910307072E000C07
:10265000880B990B0E94FC179B01AC01C701B601C6
:102660000E9453170E94C4172B013C0100910407DC
:1026700010910507BE01DD0F880B990B0E94FC1716
:102680009B01AC01C501B4010E9453170E94C417FD
:102690007093070760930607509209074092080756
:1026A00000930A0710930B07C0911A07D0911B07DC
:1026B000C701B6010E94C4172B013C01C501B4013A
:1026C0000E94C417DC01CB01E7EDF4E00491E8EDD2
:1026D000F4E0E490CC2331F19E013327220F331F25
:1026E000E02FF0E04E2D469546954695642F70E01C
:1026F00041E050E0CE2DC77011F440E050E0460FAD
:10270000571FE49FB001E59F700DF49F700D1124D9
:10271000269FA001279F500D369F500D1124475230
:102720005B4F02C049ED54E023E0C22E20E030E0D0
:10273000B201C3CE80E090E0892B09F4C1CD0E94A4
:102740000000BBCD8CE396E00E94EA068AEB96E09F
:102750000C94AA06CF92DF92EF92FF920F931F93F1
:10276000CF93DF931F92CDB7DEB7182F062FE42E3D
:10277000862F880F8E5F99830E94CF0A83E00E9484
:10278000CF0AF12EC12E9981D92E8C2D8F19801749
:1027900098F4F601E7FE02C0849101C080810E9496
:1027A000CF0A182F80E00E94CF0A8123FFEFCF1AB3
:1027B000DF0A8111EACF01C081E00F90DF91CF9154
:1027C0001F910F91FF90EF90DF90CF900895EF92BF
:1027D000FF921F93CF93DF93AAE6B6E013961C9265
:1027E0001E92129748EE53E060E070E014964D930D
:1027F0005D936D937C9317978BE591E011969C9375
:102800008E93CFEFDFEF1D96DC93CE931C97EAEB10
:10281000F6E081E2E82EF12CF08EE78A118E128E1E
:10282000138E46E050E060E070E0448F558F668F75
:10283000778F10A211A212A213A220E224A316A243
:1028400015A211A68CEB96E090A787A38BEF91E0E1
:102850009183808385E092E0958B848B168215822C
:1028600010861782128611861486138616861586A0
:10287000108A178689ED91E093838283B38BA28BB4
:1028800010E1118BECE3F6E0F48EE38E158E168EDC
:10289000178E40A351A362A373A314A215A216A27C
:1028A00017A220A712A611A615A6128213821482BF
:1028B000158222E436E034A723A723E831E03183F0
:1028C00020832DE831E0318F208F12861186148607
:1028D000138616861586108A1786128A118A148A1C
:1028E000138A97838683B78BA68B88E0858BB093FA
:1028F0003B06A0933A0666EE75E08EEF95E00E94E7
:102900003E15EEE1F7E085E192E091838083158248
:1029100016821783D483C38314861586168617867A
:10292000108A8DEC94E09093F3068093F20680E099
:1029300090E89093F1068093F00646983E9A479867
:102940003F9AC4EFD6E080E090E0A0E2B1E4888353
:102950009983AA83BB831C821D821E821F8280E111
:1029600090E0998788879B878A8786E0E9E2F1E093
:10297000A0E0B7E001900D928A95E1F7188E198ECC
:102980001A8E1B8E83E393E3A3EBBEE38C8F9D8FA4
:10299000AE8FBF8F80E090E0A0ECBFE388A399A347
:1029A000AAA3BBA38CE090E09DA38CA31FA21EA2B0
:1029B00083E090E099A788A7DF91CF911F91FF90C6
:1029C000EF9008958F929F92AF92BF92CF92DF9235
:1029D000EF92FF92CF93DF93EC01688179818A8136
:1029E0009B81611571058105910521F464E279ED02
:1029F0008BE597E02DE133EF41E050E00E94EF16C8
:102A000049015A019B01AC01A7EAB1E40E940E17EB
:102A10006B017C01ACEEB4EFA50194010E941C1780
:102A2000DC01CB018C0D9D1DAE1DBF1DB7FF03C08A
:102A30000197A109B04888839983AA83BB83BC010D
:102A4000CD019F77DF91CF91FF90EF90DF90CF90F6
:102A5000BF90AF909F908F9008950E94E2140895C8
:102A600088E191E00E94E214089560931801709348
:102A7000190180931A0190931B0108950F931F93DE
:102A8000CF93DF93009731F46115710519F480E05D
:102A900090E03AC08B01EC016EE070E081E090E0E4
:102AA0000E948915FC01892B91F380E8838301152D
:102AB000110571F01387028781E8838380913C07B9
:102AC00090913D07892B21F4F0933D07E0933C075B
:102AD0002097C9F0D187C0878381826083838091EA
:102AE0003E0790913F07892B71F4F0933F07E093E5
:102AF0003E078091400790914107892B21F4F09384
:102B00004107E0934007CF01DF91CF911F910F91D3
:102B100008950F931F93CF93DF93869F8001879F24
:102B2000100D969F100D1124C8010E94A515EC01EF
:102B3000009729F0A80160E070E00E94D216CE0153
:102B4000DF91CF911F910F910895CF93DF93823042
:102B5000910510F482E090E0E0914407F091450780
:102B600020E030E0C0E0D0E0309711F140815181A9
:102B700048175907C0F04817590761F482819381BB
:102B8000209719F09B838A832BC0909345078093ED
:102B9000440726C02115310519F04217530718F4D0
:102BA0009A01BE01DF01EF010280F381E02DDCCF4D
:102BB0002115310509F1281B390B2430310590F41A
:102BC00012968D919C9113976115710521F0FB016F
:102BD0009383828304C09093450780934407FD014B
:102BE000329644C0FD01E20FF31F8193919322506E
:102BF00031092D933C933AC020914207309143070D
:102C0000232B41F420911E0130911F013093430783
:102C10002093420720911C0130911D01211531059F
:102C200041F42DB73EB74091200150912101241B62
:102C3000350BE0914207F0914307E217F307A0F448
:102C40002E1B3F0B2817390778F0AC014E5F5F4F02
:102C50002417350748F04E0F5F1F509343074093EA
:102C600042078193919302C0E0E0F0E0CF01DF9151
:102C7000CF9108950F931F93CF93DF93009709F49B
:102C80008CC0FC013297138212820091440710918C
:102C900045070115110581F420813181820F931FB1
:102CA00020914207309143072817390779F5F093AF
:102CB0004307E093420771C0D80140E050E0AE17EF
:102CC000BF0750F412962D913C911397AD01211539
:102CD000310509F1D901F3CF9D01DA013383228354
:102CE00060817181860F971F8217930769F4EC0149
:102CF00028813981260F371F2E5F3F4F3183208374
:102D00008A819B8193838283452B29F4F093450725
:102D1000E093440742C01396FC93EE931297ED01A3
:102D2000499159919E01240F351FE217F30771F461
:102D300080819181840F951F029611969C938E93AA
:102D40008281938113969C938E931297E0E0F0E03A
:102D5000D80112968D919C911397009719F0F80164
:102D60008C01F6CF8D919C9198012E5F3F4F820F81
:102D7000931F20914207309143072817390769F4C0
:102D8000309729F4109245071092440702C013822D
:102D900012821093430700934207DF91CF911F9156
:102DA0000F910895DC0101C06D9341505040E0F750
:102DB0000895F999FECF92BD81BDF89A992780B503
:102DC0000895262FF999FECF1FBA92BD81BD20BD6F
:102DD0000FB6F894FA9AF99A0FBE01960895052E47
:102DE00097FB1EF400940E94061757FD07D00E941F
:102DF000211707FC03D04EF40C940617509540950C
:102E0000309521953F4F4F4F5F4F08959095809596
:102E1000709561957F4F8F4F9F4F08950E94431784
:102E2000A59F900DB49F900DA49F800D911D11241E
:102E30000895B7FF0C940E170E940E17821B930B78
:102E40000895A1E21A2EAA1BBB1BFD010DC0AA1FEB
:102E5000BB1FEE1FFF1FA217B307E407F50720F003
:102E6000A21BB30BE40BF50B661F771F881F991F7E
:102E70001A9469F760957095809590959B01AC01C7
:102E8000BD01CF010895A29FB001B39FC001A39FD0
:102E9000700D811D1124911DB29F700D811D112493
:102EA000911D08955058BB27AA270E946A170C94B9
:102EB00072180E94641838F00E946B1820F039F4E0
:102EC0009F3F19F426F40C9461180EF4E095E7FB8B
:102ED0000C945B18E92F0E94831858F3BA17620705
:102EE00073078407950720F079F4A6F50C94A518CC
:102EF0000EF4E0950B2EBA2FA02D0B01B901900115
:102F00000C01CA01A0011124FF27591B99F0593F58
:102F100050F4503E68F11A16F040A22F232F342FA0
:102F20004427585FF3CF469537952795A795F040EE
:102F30005395C9F77EF41F16BA0B620B730B840B03
:102F4000BAF09150A1F0FF0FBB1F661F771F881FBB
:102F5000C2F70EC0BA0F621F731F841F48F4879513
:102F600077956795B795F7959E3F08F0B0CF939505
:102F7000880F08F09927EE0F9795879508950E947E
:102F8000371808F481E008950E94CB176894B111B6
:102F90000C94A61808950E948B1888F09F5798F0FB
:102FA000B92F9927B751B0F0E1F0660F771F881F4E
:102FB000991F1AF0BA95C9F714C0B13091F00E9468
:102FC000A518B1E008950C94A518672F782F8827CD
:102FD000B85F39F0B93FCCF3869577956795B3958F
:102FE000D9F73EF490958095709561957F4F8F4FFE
:102FF0009F4F0895E89409C097FB3EF49095809503
:10300000709561957F4F8F4F9F4F9923A9F0F92FAE
:1030100096E9BB279395F695879577956795B7952C
:10302000F111F8CFFAF4BB0F11F460FF1BC06F5F12
:103030007F4F8F4F9F4F16C0882311F096E911C024
:10304000772321F09EE8872F762F05C0662371F045
:1030500096E8862F70E060E02AF09A95660F771F59
:10306000881FDAF7880F9695879597F90895990F35
:103070000008550FAA0BE0E8FEEF16161706E80742
:10308000F907C0F012161306E407F50798F0621B63
:10309000730B840B950B39F40A2661F0232B242B38
:1030A000252B21F408950A2609F4A140A6958FEF57
:1030B000811D811D089597F99F6780E870E060E0A9
:1030C00008959FEF80EC089500240A9416161706C1
:1030D00018060906089500240A9412161306140609
:1030E00005060895092E0394000C11F4882352F06C
:1030F000BB0F40F4BF2B11F460FF04C06F5F7F4F24
:103100008F4F9F4F089557FD9058440F551F59F00A
:103110005F3F71F04795880F97FB991F61F09F3FC4
:1031200079F087950895121613061406551FF2CFED
:103130004695F1DF08C0161617061806991FF1CF3D
:1031400086957105610508940895E894BB27662764
:103150007727CB0197F908950E94371808F48FEF6D
:103160000895AA1BBB1B51E107C0AA1FBB1FA617CE
:10317000B70710F0A61BB70B881F991F5A95A9F720
:1031800080959095BC01CD010895EE0FFF1F05902D
:10319000F491E02D099481E090E0F8940C94D0181B
:1031A00014E0C8E8D4E004C0FE010E94C5182196CE
:0A31B000C938D107C9F7F894FFCF22
:1031BA0000001D00D2FF05001E002E00FFFFFFFFCA
:1031CA0000E10000000000000100000000004607C6
:1031DA00800000C18081000000040008000808186F
:1031EA00000000000000000000E8FFE8FF00000007
:1031FA0000000014000000000000000000ECFFECDA
:10320A00FF000000000000000000005C0BF40ECB81
:10321A000B720B7D0BF30BCF0B06000000000015A1
:10322A00071707FAFFFAFF00001607190718000028
:10323A00000000EA060107E8FFE8FF0000F7060BB6
:10324A0007830135013F018D0100000000CC0AD53A
:10325A0006E505E205DF05DC05D90550054C0549FB
:10326A000533055305D704D50402000000000025E4
:10327A00072707FEFFFEFF000026072907000000B8
:10328A0000CE0A330700000000CD0A2307E505E255
:10329A0005DF05DC05D905CD0587056E05550553FE
:1032AA000544062306140000000000AA06C106EC25
:1032BA00FFECFF0000B706CB06FB014901530105ED
:0832CA000200000000D0040026
:2070000055C000006EC000006CC000006AC0000068C0000066C0000064C0000062C0000043
:2070200060C000005EC00000F2C400005AC0000058C0000056C0000054C0000052C00000EE
:2070400050C0000078C000004CC000004AC0000048C0000046C0000044C0000042C00000BE
:2070600040C000003EC000003CC000003AC0000038C0000036C0000034C0000032C0000048
:2070800030C000002EC000002CC000002AC0000028C0000026C0000024C0000022C00000A8
:2070A00020C000001EC000001CC0000011241FBECFEFDAE0DEBFCDBF11E0A0E0B1E0E2E3BC
:2070C000FFE702C005900D92A83AB107D9F711E0A8EAB1E001C01D92AE3BB107E1F78FD30B
:2070E00026C78ECFF89410926F0010928100109285001092840081E085BF15BE47985D9AEB
:20710000289A0C94000008952091B2013091B3012F5F3F4F3093B3012093B201932F37FFA6
:2071200003C08EEF831B982F990F921710F447980895479A08951F920F920FB60F9211246E
:207140002F938F939F93EF93FF9310928500109284008091A8019091A901009741F00197D3
:207160009093A9018093A801892B09F45D9A8091AA019091AB01009741F001979093AB0126
:207180008093AA01892B09F4289AE0E0F0E0859194918F5F9F4F49F08091AC019091AD0151
:2071A00001969093AD018093AC01FF91EF919F918F912F910F900FBE0F901F90189584E0BC
:2071C0008093E9000DC08091E8008B778093E80003C08EB3882351F08091E80082FFF9CFBE
:2071E0008091E80085FFEFCF8091F1000895982F83E08093E9008091E80085FD0DC0809136
:20720000E8008E778093E80003C08EB3882369F08091E80080FFF9CF9093F1005D9884E6CB
:2072200090E09093A9018093A80108954F925F926F927F928F929F92AF92BF92CF92DF921E
:20724000EF92FF920F931F93CF93DF9384E08093E9008091E80082FF57C2289884E690E067
:207260009093AB018093AA01AADF182F853481F48CE49DE19093AD018093AC0107B600FC4B
:20728000FDCFF999FECF81E180935700E89503C0843519F494DF8DE00DC28C34E1F38035F9
:2072A000D1F3843721F484E4A2DF80E003C2813611F489E5FFC18134B1F481DF182F7FDFE3
:2072C00090E0880F991FAA2797FDA095BA2F312F330F20E0442737FD4095542F822B932B68
:2072E000A42BB52BB8C1803711F483E5E3C1833549F4C0E0D1E089917ADF21E0C730D20714
:20730000D1F7D9C1863521F481E371DF80E3D2C1833731F487E86BDF85E969DF8EE1CAC149
:207320008536B9F4E0E0F0E093E085E090935700E89507B600FCFDCF80935700E89507B65D
:2073400000FCFDCFE058FF4FA0E7E030FA0771F7A2CF823739F4E1E0F0E089E08093570024
:207360008491A8C1863439F4E0E0F0E089E08093570084919FC18E3439F4E3E0F0E089E0E5
:2073800080935700849196C1813539F4E2E0F0E089E08093570084918DC1823631F489E521
:2073A00026DF80E024DF80E885C1823419F0873609F0E5C01092AD011092AC0100DF082FE8
:2073C000FEDEF82EFCDE682E8554823008F071C1902F80E0CF2DD0E0C82BD92B10926F00B3
:2073E000173609F04BC081E180935700E895DD24CC24C3943FC0E090AE01F090AF010091CC
:20740000B0011091B101B6E46B16D9F4ED2DF0E0EE29FF29E4918E2FEADEDD2081F082E08D
:2074200090E0A0E0B0E0E80EF91E0A1F1B1FE092AE01F092AF010093B0011093B101DC2470
:2074400018C0D801C701B695A7959795879559D5CEDE82E090E0A0E0B0E0E80EF91E0A1FF2
:207460001B1FE092AE01F092AF010093B0011093B1012197209709F0BECF7DC08090AE01F5
:207480009090AF01A090B001B090B10196E4691609F05DC083E0F40180935700E89507B63E
:2074A00000FCFDCF54C0F6E46F1661F5772031F1E090AE01F090AF010091B0011091B1019E
:2074C0007EDED82ECC24852D90E08C299D29F7010C0140925700E895112482E090E0A0E08B
:2074E000B0E0E80EF91E0A1F1B1FE092AE01F092AF010093B0011093B10102C060DE582E1A
:20750000742423C0E090AE01F090AF010091B0011091B10116950795F794E79450DE682FFA
:20752000C701F7D48091AE019091AF01A091B001B091B1010296A11DB11D8093AE01909349
:20754000AF01A093B001B093B101219704C05524772444244394209709F0A5CF96E46916B6
:2075600041F485E0F40180935700E89507B600FCFDCF8DE03CDE82E080936F009CC0833492
:2075800071F40091AE011091AF0119DE90E021E0F8010C0120935700E89511247CCE8336C8
:2075A00019F5E090AE01F090AF010091B0011091B10105DEF701E16090E021E00C0120938C
:2075C0005700E895112482E090E0A0E0B0E0E80EF91E0A1F1B1FE092AE01F092AF0100936A
:2075E000B0011093B10157CE8D3661F4E091AE01F091AF0185E080935700E89507B600FCF2
:20760000FDCF49CE823551F4E091AE01F091AF0105911491812FEBDD802F4CC0843421F5FE
:20762000E090AE01F090AF010091B0011091B10116950795F794E794C2DD682FC70169D4DE
:207640008091AE019091AF01A091B001B091B1010296A11DB11D8093AE019093AF01A093D8
:20766000B001B093B10117CE843609F5E090AE01F090AF010091B0011091B101D801C70142
:20768000B695A795979587953CD4B1DD82E090E0A0E0B0E0E80EF91E0A1F1B1FE092AE010A
:2076A000F092AF010093B0011093B10104C08B3111F08FE39CDD83E08093E9009091E8002B
:2076C0008091E8008E778093E80095FF04C010C08EB38823C9F08091E80080FFF9CF809193
:2076E000E8008E778093E80003C08EB3882361F08091E80080FFF9CF84E08093E9008091F1
:20770000E8008B778093E800DF91CF911F910F91FF90EF90DF90CF90BF90AF909F908F90AC
:207720007F906F905F904F9008959091B601892F8F77813249F58091B7018032A1F081328A
:2077400019F5913A09F58091E800877F8093E8008DE091E067E070E00BD28091E8008B770B
:207760008093E8000895913279F48091E800877F8093E8008DE091E067E070E05DD2809192
:20778000E8008E778093E800089582E061EC42E0B5D083E061E842E1B1D084E060E842E1EF
:2077A000ADC084B7877F84BF88E10FB6F89480936000109260000FBE20E880E090E00FB63F
:2077C000F89420936100809361000FBE81E085BF92E095BF3F9A209A559AE1E6F0E02083A1
:2077E000108247985D9A289A109289008AEF8093880090936F0083E080938100F0C0409116
:20780000000850910108109201081092000894B714BE88E10FB6F8948093600010926000D5
:207820000FBE292F30E0F901E270F07091FD18C090FF05C0859194918F5F9F4F81F423FFFF
:207840000FC08091090190910A014817590741F0E0E0F0E0859194918F5F9F4F09F042DC64
:20786000A0DF78941092AD011092AC010CC0DEDC36D38091AC019091AD0181549F4110F00D
:207880001092140141DC80911401882381F78091E00081608093E00025DC80E090E0089598
:2078A000FA01923049F0933061F09130F9F485E191E022E130E01EC087E291E02EE330E04D
:2078C00019C0882329F485E691E024E030E012C0813029F489E691E022E230E00BC0823006
:2078E00029F48DE891E028E130E004C080E090E020E030E091838083C90108958093E9004E
:207900008091EB0081608093EB001092ED006093EC004093ED008091EE00881F8827881F62
:2079200008958091B60188238CF403C08EB38823B1F08091E80082FFF9CF8091E8008B772A
:207940008093E80008958EB3882349F08091E80080FFF9CF8091E8008E778093E800089594
:20796000EF92FF920F931F9345D04CD008ED10E0F80180818F77808380818068808380819B
:207980008F7D808319BC1EBA1092B40180EEE82EF12CF70180818B7F8083F8018081816052
:2079A000808380E060E042E0A9DFE1EEF0E080818E7F8083E2EEF0E0808181608083808144
:2079C00088608083F70180818E7F8083F8018081806180831F910F91FF90EF900895E7ED06
:2079E000F0E08081816080838AE482BF81E08093B501B6CFE8EDF0E080818E7F808310921C
:207A0000E20008951092DA001092E10008951F920F920FB60F9211242F933F934F935F93F6
:207A20006F937F938F939F93AF93BF93EF93FF938091DA0080FF1BC08091D80080FF17C0B2
:207A40008091DA008E7F8093DA008091D90080FF0BC080E189BD82E189BD09B400FEFDCF36
:207A600081E08EBB3BD203C019BC1EBA37D28091E10080FF17C08091E20080FF13C0809138
:207A8000E2008E7F8093E2008091E20080618093E2008091D80080628093D80019BC85E049
:207AA0008EBB1CD28091E10084FF2CC08091E20084FF28C080E189BD82E189BD09B400FEC5
:207AC000FDCF8091D8008F7D8093D8008091E1008F7E8093E1008091E2008F7E8093E20012
:207AE0008091E20081608093E2008091B401882331F48091E30087FD02C081E001C084E067
:207B00008EBBECD18091E10083FF21C08091E20083FF1DC08091E100877F8093E10082E06A
:207B20008EBB1092B4018091E1008E7F8093E1008091E2008E7F8093E2008091E2008061E9
:207B40008093E20080E060E042E0D8DEC7D1FF91EF91BF91AF919F918F917F916F915F9130
:207B60004F913F912F910F900FBE0F901F9018959C014091BC015091BD014617570718F49D
:207B8000F90190E044C06115710511F0AB01F8CF8091E8008E778093E80040E050E0F0CF0F
:207BA0008EB3882309F444C0853009F443C08091E80083FF02C081E008958091E80082FD70
:207BC00031C08091E80080FF22C08091F3009091F200782F60E0292F30E0262B372B07C07A
:207BE00081918093F100415050402F5F3F4F4115510519F02830310598F390E02830310566
:207C000009F491E08091E8008E778093E8004115510531F6992321F605C08EB3882341F075
:207C2000853041F08091E80082FFF7CF80E0089582E0089583E008959C016115710529F47C
:207C40008091E8008B778093E800F90126C08EB3882391F1853091F18091E80083FF02C06C
:207C600081E008958091E80082FFF1CF06C08091F10081936150704059F02091F300809191
:207C8000F200322F20E090E0822B932B892B79F78091E8008B778093E80061157105B9F601
:207CA00005C08EB3882341F0853041F08091E80080FFF7CF80E0089582E0089583E00895C2
:207CC0000F931F93DF93CF9300D0CDB7DEB7E6EBF1E08091F100819381E0EE3BF807C9F792
:207CE00024DD8091E80083FFE4C08091B6019091B701953009F46DC0963040F4913081F1A7
:207D0000913070F0933009F0D4C02AC0983009F4A3C0993009F4B2C0963009F0CAC07CC023
:207D2000803809F4C6C0823809F0C3C08091BA0187708093E9008091EB001092E9002091DB
:207D4000E800277F2093E80090E025E0969587952A95E1F781708093F1001092F10087C0D8
:207D6000882319F0823009F0A4C08F71823009F0A0C08091B801882331F52091BA01277097
:207D800009F497C02093E9008091EB0080FF1BC0933021F48091EB00806213C08091EB0018
:207DA00080618093EB0081E090E002C0880F991F2A95E2F78093EA001092EA008091EB00E5
:207DC00088608093EB001092E9008091E800877F51C0882309F06DC01091B8011F770FB79B
:207DE000F8948091E800877F8093E8009ADD8091E80080FFFCCF8091E3008078812B809398
:207E0000E30080688093E300112311F482E001C083E08EBB0FBF4DC08058823008F049C033
:207E20008091B8019091B9016091BA01AE014F5F5F4F36DDBC01009709F43BC08091E8008E
:207E4000877F8093E80089819A8192DE8091E8008B778093E8002DC0803859F58091E800AA
:207E6000877F8093E8008091B4018093F1008091E8008E778093E80054DD1BC08823C9F4CA
:207E80009091B8019230A8F48091E800877F8093E8009093B40145DD8091B401882331F420
:207EA0008091E30087FD02C081E001C084E08EBB6CDC8091E80083FF0AC08091EB0080624E
:207EC0008093EB008091E800877F8093E8000F900F90CF91DF911F910F91089508951F9360
:207EE0008EB3882361F01091E9001092E9008091E80083FF01C0E4DE17701093E9001F916F
:207F00000895F999FECF92BD81BDF89A992780B50895262FF999FECF1FBA92BD81BD20BDBD
:207F20000FB6F894FA9AF99A0FBE01960895F894FFCF4341544552494E4100777700080031
:207F40000000000000080112011001020000084123360001000201000109023E00020100FF
:207F600080320904000001020201000524001001042402040524060001070582030800FF0C
:207F800009040100020A000000070504021000010705830210000104030904220341007216
:207FA000006400750069006E006F0020004C0065006F006E006100720064006F0000001836
:1A7FC00003410072006400750069006E006F0020004C004C004300000000D7
:00000001FF
