:100000000C94CA060C94F2060C94F2060C94F206B8
:100010000C94F2060C94F2060C94F2060C94F20680
:100020000C94F2060C94F2060C94740F0C94E60FE8
:100030000C94F2060C94F2060C94F2060C94F20660
:100040000C94F2060C94F2060C94F2060C94F20650
:100050000C94F2060C94F2060C94F2060C94011324
:100060000C94F2060C94F2060C94F2060C94F20630
:100070000C94F2060C94F2060C94F2060C94F20620
:100080000C944B130C94F2060C94F2060C94F206AA
:100090000C94F2060C94F2060C94F2060C94F20600
:1000A0000C94F2060C94F2060C94F20605A84CCDC2
:1000B000B2D44EB93836A9020C50B9918688083CA2
:1000C000A6AAAA2ABE000000803FD5F08D14A1C8C0
:1000D00081CFD9F1AF2000430D00F800FCF8FEFC01
:1000E000FF0CFF0CFF1CFF18FE00FCF8FEFCFF0CD1
:1000F000FF0CFFFCFFF8FE00FEFCFFFCFF78FEF0AB
:10010000FC78FEFCFFFCFF00FEFCFFFCFFCCFFCCFC
:10011000FFFCFF78FE00FE3CFF7CFFE0FEE0FE7C83
:10012000FF3CFF00FEF8FEFCFF0CFF0CFF1CFF185D
:10013000FE00FCF8FEFCFF0CFF0CFFFCFFF8FE00CD
:10014000FEFCFFFCFFCCFFCCFFFCFF78FE00FEFCBA
:10015000FFFCFF6CFF6CFF0CFF0CFF001E000C008F
:10016000030007030F071F061F061F071F030F00CB
:1001700007030F071F061F061F071F030F000F07A8
:100180001F071F000F0007000F071F071F000F07A3
:100190001F071F000F0007000300010000000700F9
:1001A0000F071F071F000F00070007030F071F0699
:1001B0001F061F071F030F0007030F071F061F0659
:1001C0001F071F030F000F071F071F000F000F0758
:1001D0001F071F000F071F071F061F061F061F060A
:1001E0001F000F0006412E0000000000000000006C
:1001F00000000000C0E0F0F8FCFCFEFE040000007F
:1002000000000000000080808080808080808080EE
:1002100080800002071FFFFEFEFCFCF8F0E080007B
:1002200000000000000000000000000000000000CE
:10023000000000001E7FFFFFFFFFFFFFFFFFFEFC2F
:10024000FC06060303030301010101010101010191
:1002500001010103030307070F1F3F7FFFFF3F0754
:10026000000000000000000000000080808080800E
:1002700080C0C0C0C0E0F0FD8F0307070707070379
:1002800001000080C0E0E0F0F0F0F0F0F06000C0AD
:10029000E0E0F0F0F0F0F0E0D83C9CDCDC98333F9C
:1002A0007FFFDFDF6F6F371B0E0402070D1B333735
:1002B000676F6FCFCFCFCFDFDF1F1E0000000000C2
:1002C000000000010D070301010130180C0C0C188F
:1002D00000030F1F7FFF9F9F0F0F0FCD3303010000
:1002E0000000FFFF00000000000000000000000010
:1002F000000000000000000000030F1C3060C08000
:1003000000000000000000000000000000000000ED
:100310000000003830200020202111D1D0E8C7E2B1
:10032000B01C0F03000000000000000000000000EF
:1003300000000000000000000000000000000000BD
:1003400001030306060C0C18181818303030303032
:10035000303018181818180C0C0C06060301030787
:1003600003000000000000000000000000412E001B
:10037000000000000000000000000000C0E0F0F8F5
:10038000FCFCFEFE04000000000000000000808075
:10039000808080808080808080800002071FFFFE38
:1003A000FEFCFCF8F0E0800000000000000000000F
:1003B0000000000000000000000000001E7FFFFFA2
:1003C000FFFFFFFFFFFFFEFCFC0606030303030124
:1003D00001010101010101010101010303030707FB
:1003E0000F1F3F7FFFFF3F070000000000000000DD
:1003F000000000808080808080C0C0C0C0E0F0FD30
:100400008F0307070707070301000080C0E0E0F043
:10041000F0F0F0F0F06000C0E0E0F0F0F0F0F0E0BC
:10042000D83C9CDCDC98333F7FFFDFDF6F6F371BEE
:100430000E0402070D1B3337676F6FCFCFCFCFDFAF
:10044000DF1F1E0000000000000000010D07030177
:100450000101183C7E7E7E3C18030F1F7FFF9F9F8B
:100460000F0F0FCD330301000000FFFF000000005D
:10047000000000000000000000000000000000007C
:1004800000030F1C3060C08000000000000000006E
:1004900000000000000000000000003830200020B4
:1004A000202111D1D0E8C7E2B01C0F0300000000EA
:1004B000000000000000000000000000000000003C
:1004C000000000000000000001030306060C0C18E9
:1004D0001818183030303030303018181818180C00
:1004E0000C0C0606030103070300000000000000D7
:1004F00000000000001008007F3E7F3E7F227F3E0C
:100500007F007F3E7F3E7F0A7F021F007F3E7F3E4F
:100510007F0A7F021F00070B08007F3E7F3E7F227D
:100520007F3E7F007F3E7F0C7F187F3E7F007F13E2
:1005300008007F2E7F2E7F3A7F3A7F007F3E7F3EEE
:100540007F0A7F021F007F367F3E7F087F367F0055
:100550007F007F367F007F1508007F3E7F3E7F2231
:100560007F2277007F3E7F3E7F227F3E7F007F3E5F
:100570007F0C7F187F3E7F007F3E7F3E7F0A7F0299
:100580001F000715080077227F3E7F3E7F227F00F5
:100590007F3E7F0C7F187F3E7F007F3E7F3E7F0A3D
:1005A0007F021F007F3E7F3E7F227F3E7F007F15C0
:1005B00008007F3E7F3E7F127F1E3F007F3E7F3ED2
:1005C0007F207F2070007F3E7F3E7F127F3E7F0036
:1005D0007F0E7F3E7F387F0E7F001F1508007F3E15
:1005E0007F3E7F187F3E7F007F3E7F3E7F2A7F22B7
:1005F0007F007F3E7F3E7F207F2070007F3E7F3EDA
:100600007F127F1E3F003F2118FF1F976B178BC182
:10061000C6E1E2E0E0C18000000000000180C0E02F
:10062000E1E2C1C3952B47AF1FFFFF7C89F0FFFFBD
:10063000FFFFFBF3FBFFFFF7E2C9C5C5C9E2F7FF08
:10064000FFFBF3FBFFFFFFF0887CFF832219C72F1E
:100650004F9F4F9F0FBF1FBF5FBF1F9F9F3FDF1F5A
:10066000BF5F5F9F3F4F1F8F2791020B1410000049
:100670000000F8F810F0A0E038F808F828F828F89A
:1006800028F828F828F888F818F8A0E020E060E0BA
:10069000C0C000000000000000001F1F101F363FF8
:1006A000223F637F637F373F171F171F373F233F6B
:1006B000627F627F223F101F1F1F000000000000AA
:1006C000C0C0E0E040C070F018F8C8F8A8F828F8FA
:1006D000A8F828F808F818F890F030F020E060E06A
:1006E000C0C00000000000000707080F1B1F363FB6
:1006F000203F2D3F467F437F427F263F171F131F1A
:10070000131F213F313F101F0F0F0606000000008E
:10071000000000008080E0E030F0D0F088F8A8F819
:10072000A8F828F828F808F818F8B0F020E0E0E079
:10073000000000000000000000001C1C1F1F303FD4
:100740002E3F2E3F2C3F6C7F417F467F427F737F41
:10075000131F101F181F0F0F0000000000000000E3
:100760000000000000000000C0C078F808F8A8F8F9
:10077000A8F8A8F8A8F808F878F8C0C000000000A9
:100780000000000000000000000000000000000069
:100790007F7F407F4C7F4C7F4C7F447F4C7F4C7FE2
:1007A000407F7F7F0000000000000000000000008C
:1007B00000000000E0E020E0B0F018F808F828F8A9
:1007C00028F8A8F8A8F888F8D0F030F0E0E08080A9
:1007D0000000000000000000000000000F0F181FC4
:1007E000101F131F737F427F467F417F6C7F2C3F1A
:1007F000263F2E3F303F1F1F1C1C00000000000042
:100800000000C0C060E020E030F090F018F808F878
:1008100028F8A8F828F8A8F8C8F818F870F040C028
:10082000E0E0C0C00000000006060F0F101F313FBF
:10083000213F131F131F171F263F427F437F447F13
:100840002C3F203F363F1B1F080F0707000000000A
:100850000000C0C060E020E0A0E018F888F828F8A8
:1008600028F828F828F828F808F838F8A0E010F058
:10087000F8F800000000000000001F1F101F223FBA
:10088000627F627F233F373F171F171F373F637F0A
:10089000627F223F363F101F1F1F00000000000034
:1008A0000000C0C040C060E038F848F8C8F808F858
:1008B000A8F828F81CFC48F808F810F010F020E020
:1008C000E0E080800000000007070B0F181F303F9A
:1008D000203F6D7F467F427F677F363F171F131F84
:1008E000233F213F313F1B1F0D0F07070000000072
:1008F000000000008080C0C070F090F0C8F8C8F818
:10090000B4FC2CFC28F848F888F898F810F0F0F0BF
:100910000000000000000000000018183F3F203FCA
:10092000283F2C3F407F407F407F467F437F737F3F
:10093000131F101F181F0707000000000000000011
:100940000000000000000000C0C078F808F8B8F807
:10095000B8F8B8F8B8F808F878F8C0C00000000097
:100960000000000000000000000000000000000087
:100970007F7F407F407F407F4C7F4C7F407F407F28
:10098000407F7F7F000000000000000000000000AA
:1009900000000000F0F010F098F888F848F828F807
:1009A0002CFCB4FCC8F8C8F890F070F0C0C080808F
:1009B0000000000000000000000000000707181FF2
:1009C000101F131F737F437F447F407F487F407F0A
:1009D0002C3F283F203F3F3F181800000000000038
:1009E0008080E0E020E050F010F008F848F81CFCAF
:1009F00028F8A8F808F8C8F848F838F860E040C0C7
:100A0000C0C000000000000007070D0F1B1F313F92
:100A1000213F233F131F171F363F677F427F467FCB
:100A20006D7F203F303F181F0B0F070700000E108F
:100A300000000000F0F018F8C8F810F0E8F8E8F846
:100A400010F0B0F020E0E0E0000000000000000046
:100A5000010103031E1F111F2F3F2F3F111F1E1FD8
:100A6000030301010000000000000000E0E010F0BE
:100A700090F010F0E8F8E8F810F010F0A0E0E0E0F6
:100A80000000000000000000010103030E0F111F11
:100A90002F3F2F3F101F0E0F01010000000000002C
:100AA000000000000000E0E030F090F008F8E8F806
:100AB00010F0B0F0E0E000000000000000000000D6
:100AC000000001010E0F101F2F3F2F3F101F0F0FAF
:100AD0000000000000000000000000000000000016
:100AE000F0F010F008F888F810F0F0F000000000C6
:100AF0000000000000000000000000001F1F101F89
:100B00002E3F2E3F101F1F1F00000000000000009E
:100B1000000000000000E0E0B0F010F0E8F808F895
:100B200090F010F0E0E00000000000000000000085
:100B3000000000000F0F101F2F3F2F3F111F0E0F3F
:100B4000010100000000000000000000E0E0A0E063
:100B500010F010F0E8F8E8F810F090F010F0F0F075
:100B60000000000000000000000001010E0F101F37
:100B70002F3F2F3F111F0E0F030301010000000044
:100B800000000000E0E020E0B0F010F0E8F8E8F845
:100B900010F0C8F818F8F0F00000000000000000A5
:100BA000010103031E1F111F2F3F2F3F111F1E1F87
:100BB000030301010000000000000000C0C060E06D
:100BC00030F010F0E8F8E8F808F848F888F8F0F0A5
:100BD0000000000000000000010103030E0F111FC0
:100BE0002F3F2F3F101F0E0F0101000000000000DB
:100BF000000000000000808070F010F068F8E8F855
:100C00000CFC88F87878000000000000000000006C
:100C1000000001010E0F111F2C3F2F3F101F0F0F5F
:100C200000000000000000000000000000000000C4
:100C3000F0F008F86CFC6CFC18F8F0F00000000014
:100C40000000000000000000000000001F1F101F37
:100C50002C3F2C3F101F1F1F000000000000000051
:100C6000000000000000F8F888F80CFCE8F868F8CC
:100C700010F070F080800000000000000000000014
:100C8000000000000F0F101F2F3F2C3F111F0E0FF1
:100C9000010100000000000000000000F0F088F8F2
:100CA00048F808F8E8F8E8F810F030F060E0C0C064
:100CB0000000000000000000000001010E0F101FE6
:100CC0002F3F2F3F111F0E0F0303010100000000F3
:100CD0000808000000000078307810780038000024
:100CE00000000000001C083E1C3E1C3E083E001C8C
:100CF0000000007E347F2E7F147F3AFF76FF28FFAE
:100D0000007C001C08FC50FC28FE54FE28FE107CD1
:100D100000380102040810204080080B0002020283
:100D20000100090400000102020000052400100176
:100D3000052401010104240206052406000107051B
:100D4000810310004009040100020A0000000705A9
:100D5000020240000007058302400000040309046A
:100D600012010002EF02014041233680000101021E
:100D7000030141726475696E6F204C4C43004172EF
:100D80006475696E6F204C656F6E6172646F0000F0
:100D9000FF1EEB1E11241FBECFEFDAE0DEBFCDBF7A
:100DA00012E0A0E0B1E0E8EFFBE402C005900D9294
:100DB000A433B107D9F727E0A4E3B2E001C01D9244
:100DC000A63AB207E1F716E0C9ECD6E004C02197D5
:100DD000FE010E94E425C83CD107C9F70E94031612
:100DE0000C94EF250C940000809140020895089522
:100DF000089580E090E00895CB0108957F928F924E
:100E00009F92AF92BF92CF92DF92EF92FF920F9399
:100E10001F93CF93DF93EC0149015A018B01C12C41
:100E2000D12C7601C814D904EA04FB0484F5F80136
:100E300071908F018F8580FF0BC0E881F98100845C
:100E4000F185E02D20E144E060E070E0CE010995FD
:100E5000EB85FC858D859E85E817F90738F470824F
:100E60008B859C8501969C878B870BC0E881F981D7
:100E7000672D70E0028CF38DE02DCE01099501966F
:100E800049F02FEFC21AD20AE20AF20ACBCFB4011C
:100E9000C50102C0B601C701DF91CF911F910F912B
:100EA000FF90EF90DF90CF90BF90AF909F908F908A
:100EB0007F900895CF93DF93EC01E881F981028858
:100EC000F389E02D09958F3F2FEF920731F02D81A7
:100ED0003E812F5F3F4F3E832D83DF91CF91089559
:100EE0008FEF9FEF089560E070E0CB01089580E000
:100EF00090E00895CB010895CF93DF93EC018889AA
:100F00009989DC01ED91FC910084F185E02D099532
:100F1000892BA9F388899989DC01ED91FC910284E0
:100F2000F385E02DDF91CF910994CF93DF93EC010E
:100F300088899989DC01ED91FC910084F185E02D8F
:100F40000995892BA9F388899989DC01ED91FC9198
:100F50000484F585E02DDF91CF910994AF92BF9283
:100F6000CF92DF92EF92FF920F931F93CF93DF9375
:100F700000D000D0CDB7DEB78C015B01C12CD12CE5
:100F80007601F80180899189DC01ED91FC91028460
:100F9000F385E02D29833A834B835C83099529816E
:100FA0003A814B815C818F3F71F0C216D306E40613
:100FB000F5064CF4D5018D935D01BFEFCB1ADB0A2A
:100FC000EB0AFB0ADECFC701B6010F900F900F901E
:100FD0000F90DF91CF911F910F91FF90EF90DF90D5
:100FE000CF90BF90AF900895DC0150968D919C9169
:100FF0005197DC01ED91FC910084F185E02D09947D
:1010000080E090E0089580E090E0089580E090E036
:10101000089580E090E008950895CF93DF93C09104
:10102000E606D091E706E881F9810084F185E02D9C
:10103000CE010995892BB9F3E881F9810284F38502
:10104000E02DCE01DF91CF9109941F93CF93DF93D1
:10105000182FC091E606D091E7068A3041F4E88166
:10106000F9810190F081E02D6DE0CE010995E881D4
:10107000F9810190F081E02D612FCE01099521E0E9
:1010800030E0019711F420E030E0C901DF91CF9109
:101090001F9108950F931F93CF93DF938C01EB0162
:1010A0006F3F8FEF780719F480E090E00FC06A304F
:1010B00031F46DE0F801808991890E9416126C2F3D
:1010C000F801808991890E941612CE01DF91CF919B
:1010D0001F910F9108958F929F92BF92CF92DF92AE
:1010E000EF92FF920F931F93CF93DF9300D000D026
:1010F000CDB7DEB78C014B01C12CD12C7601C216C5
:10110000D306E406F50644F5F401B1904F01FAE088
:10111000BF120EC06DE0F8018089918929833A835E
:101120004B835C830E9416125C814B813A8129813A
:101130006B2DF8018089918929833A834B835C83E5
:101140000E941612FFEFCF1ADF0AEF0AFF0A5C8136
:101150004B813A812981D3CFCA01B9010F900F90F9
:101160000F900F90DF91CF911F910F91FF90EF9013
:10117000DF90CF90BF909F908F9008950C94D121D5
:101180000C94D121FB0120813181FC01318320832A
:10119000FB0142815381F901369720813181FC01A5
:1011A000E20FF31F5183408308952FE931E0FC01E2
:1011B0003183208329EA31E0318F208F6FEA71E09B
:1011C0000C94C208DC01ED91FC91369720813181AD
:1011D000820F931F0C94D508CF93DF93EC010E94EC
:1011E000D508CE01DF91CF910C94D121DC01ED9196
:1011F000FC91369720813181820F931F0C94EC086B
:10120000089508950C94D121DC01ED91FC9136975D
:1012100020813181820F931F0C9402090C94D121FB
:10122000FB0120813181FC0131832083FB0142815C
:101230005381F901369720813181FC01E20FF31FC0
:1012400051834083089527E132E0FC0131832083FC
:1012500021E232E0358B248B67E272E00C941009B6
:10126000DC01ED91FC91369720813181820F931F33
:101270000C942309CF93DF93EC010E942309CE0144
:10128000DF91CF910C94D121DC01ED91FC91369747
:1012900020813181820F931F0C943A09089508959B
:1012A0000C94D121DC01ED91FC91369720813181A4
:1012B000820F931F0C945009CF92DF92EF92FF920E
:1012C0000F931F93CF93DF930E94AB13811520E8F8
:1012D000920761F4809171008D7F8093710010926C
:1012E000910046984798109243028BC021E02093CA
:1012F0004302813020E8920751F480913B029091A3
:101300003C0290933E0280933D020E94AB1397FDF6
:1013100005C020914202222309F43FC020914102DE
:1013200021113BC021E020934402EC01DF7720979C
:1013300069F481E08093450246983FE9C32E3FE07F
:10134000D32EE12CF12CCAEFD0E014C08E0120E0A6
:1013500030E060E472E48FE090E0A90198010E941F
:10136000862269017A0181E0C81AD108E108F108F2
:1013700010924502E0916406F0916506099581118D
:1013800003C081E080934502809144028823B9F133
:1013900080914502811133C003C010924402C5CF31
:1013A00046992DC0479A0E94AB13009771F09C019B
:1013B000DE010E94DA22DC01CB0129E0B595A79578
:1013C000979587952A95D1F703C08FEF9FEFDC01A2
:1013D000109290002AE020939100D0929900C09240
:1013E00098008093460290934702A0934802B093DE
:1013F00049028091710082608093710002C0479819
:10140000D2CFDF91CF911F910F91FF90EF90DF909E
:10141000CF9008954F925F926F927F928F929F929A
:10142000AF92BF92CF92DF92EF92FF920F931F93F2
:10143000CF93DF9300D000D0CDB7DEB749012C2D7C
:10144000A02EB12CDC01AA0DBB1D1A161B060CF038
:10145000B3C1803891050CF0AFC1FB01EE0DF11D59
:101460001E161F060CF0A8C1603471050CF0A4C153
:101470004115510509F4A0C1FB0177FF04C0EE2717
:10148000FF27E61BF70B3E2F3770732EFB0177FD0E
:10149000379633E0F595E7953A95E1F73E2F77FFDC
:1014A00007C0772029F03FEF3E0F68E06719762EDE
:1014B00097FF05C0EE27FF27E81BF90B02C0E0E00D
:1014C000F0E0A038B10524F060E8F62EF81A01C06B
:1014D000F02EFE1A632F032E000C770B3F3F1CF4F7
:1014E000A62FA09501C0A0E011E0BE2DB77009F4B1
:1014F00010E0E694E694E694E10E6E0D711D6930FD
:1015000071051CF068E0E62EE31AEA1A3A0F60E86B
:101510003603800D911D11248E0F9F1FA09FE00D9B
:10152000F11D11244E0F5F1F61E070E0072C02C017
:10153000660F771F0A94E2F7233009F4FCC098F491
:10154000213009F4AEC0223009F036C12FEF269FBA
:101550008001279F100D1124009510951C830B838B
:101560005C80E30E27C02A3F29F02B3F09F024C1FD
:10157000E30E83C0E30E4EC0FA01EC0DFD1DE491B5
:10158000E69F4001E79F900C11249A82898237FDE3
:1015900004C02C912023822A8C92711014C0EFEF8A
:1015A000CE1ADE0A1196CF1438F33F5F4A0D5B1D49
:1015B00080589F4F3E1509F4FFC0DC01AA5ABD4F69
:1015C000C12CD12CF0CF373054F7FD01E058FF4F3C
:1015D000208125219A8029292083E1CFFA01E00F7B
:1015E000F11FE491E69F6001E79FD00C1124DA829D
:1015F000C98237FD03C02C91C22ACC92711013C04E
:101600000F5F1F4F11960F1548F33F5F4A0D5B1D8B
:1016100080589F4F3E1509F4CFC0DC01AA5ABD4F38
:1016200000E010E0F0CF37305CF7FD01E058FF4FED
:10163000D0802A812D292083E3CFFA01EC0DFD1DF6
:10164000E491E69FD001E79FB00D1124BA83A983EE
:1016500037FD05C0A095F8012081A223A083711059
:1016600015C0FFEFCF1ADF0A0F5F1F4FCF1428F30B
:101670003F5F4A0D5B1D80589F4F3E1509F49CC08B
:101680008C010A5A1D4FC12CD12CF0CF37304CF7AA
:10169000F801E058FF4F2A812095A0812A2320835A
:1016A000E0CFD401AE0FBF1FE30E3E1509F484C096
:1016B000FC01EA5AFD4F4F01C12CD12CCF1498F5F3
:1016C000FD01EC0DFD1DE491E69F8001E79F100DEB
:1016D0001124009510951C830B83FA01EC0DFD1D60
:1016E000E491E69F2001E79F500C11245A82498221
:1016F00037FD05C0F40120810223402A4082772073
:1017000059F037304CF4F401E058FF4F10812C8130
:1017100021231A81212B2083FFEFCF1ADF0A2FEF1D
:10172000821A920ACBCF3F5F4A0D5B1DAA0DBB1DEB
:1017300080589F4FBACFCF2CD12CE40FF51FDC017E
:10174000AA5ABD4FAC014A525D4F00E810E00C1997
:101750001D09AC18BD08AA0CBB1C6F2C2E2DCF93F5
:10176000DF93EA018590C590772059F0869E40016D
:10177000C69E600137302CF49881D0949D21992920
:10178000999333233AF09C91C0949C2198299D937E
:101790000C94CB0B1196FA9429F7EA9451F0F62C9D
:1017A00033951124EA0DF11DA00FB11DC00FD11DFD
:1017B000D9CFDF91CF9111240F900F900F900F9000
:1017C000DF91CF911F910F91FF90EF90DF90CF901D
:1017D000BF90AF909F908F907F906F905F904F9051
:1017E0000895CF92DF92EF920F931F93CF93DF93E1
:1017F0004115510591F1FA0104913196E4904E5F43
:101800005F4F222321F130E0220F331FC02FD0E0A1
:10181000AE2DA695A695A695EA2FF0E0A1E0B0E042
:101820001E2D177011F4A0E0B0E0AE0FBF1FCA9FCD
:101830006001CB9FD00CDA9FD00C11242C9DF001BD
:101840002D9DF00D3C9DF00D11244E0F5F1F23E0E8
:10185000C22E20E030E00E940A0ADF91CF911F9152
:101860000F91EF90DF90CF900895BC0180E090E061
:101870000C9442128FB12CB193B130E02095309589
:1018800020743327A90123E0559547952A95E1F760
:10189000292F30E0209530952071332735952795F5
:1018A00035952795242B8095807F822B089583B7CB
:1018B000817F83BF83B7816083BF889583B78E7F25
:1018C00083BF08958EBD00000DB407FEFDCF0895BF
:1018D000109240023E983F9808953E9A3F9A81E0C8
:1018E000809340020895FC01840F911D181619067B
:1018F000E4F5E038F105CCF5F7FF02C0E0E0F0E0F8
:101900008138910514F080E890E0382F3E1BAB0140
:1019100077FF02C0495F5F4F83E0559547958A95F1
:10192000E1F75695542F442757954795E40FF51F37
:10193000EA5AFD4F6770772781E090E001C0880F79
:101940006A95EAF7482F222349F0213071F431508B
:1019500020F08081842B8193FACF089580953150B7
:1019600020F0908198239193FACF08956038710503
:10197000D0F440345105B8F4E2E1FDE080E1849F09
:10198000D001A0781124A60F4770E40FF11D8491B7
:10199000AA5ABD4F222319F06C91862B03C0809563
:1019A0006C9186238C930895089508950895AF92BD
:1019B000BF92CF92DF92EF92FF920F931F93CF933C
:1019C000DF936C01EB01142F022F7C015C01A40E4C
:1019D000B11CEA14FB0454F421E0402FBE01C701FE
:1019E0000E94C5138FEFE81AF80AF3CF22E0200F08
:1019F00042E0410FBE016150710900E0C60101974C
:101A00000E94F113DF91CF911F910F91FF90EF9002
:101A1000DF90CF90BF90AF9008954F925F926F92FA
:101A20007F928F929F92AF92BF92CF92DF92EF926E
:101A3000FF920F931F93CF93DF93EC01CE8CDF8C3B
:101A4000E8A0F9A020E030E044EB53E46A8D7B8D00
:101A50008C8D9D8D0E94602320E030E040E551E4B4
:101A60000E94FE2420E030E048ED51E40E94FE2474
:101A700020E030E04AE754E40E94FE2420E030ED0C
:101A80004FE557E40E9460232B013C010E945B2339
:101A90009B01AC01C701B6010E94FE242A813B8153
:101AA0004C815D810E94EA224B015C016A837B8349
:101AB0008C839D83C301B2010E946B259B01AC0105
:101AC000C701B6010E94FE249B01AC016E817F819B
:101AD000888599850E94E9226B017C016E837F8352
:101AE0008887998720E030E0A901C501B4010E94F0
:101AF000562387FF05C01A821B821C821D8225C0C7
:101B00000A851B85B801012E000C880B990B0E94D9
:101B10000A249B01AC01C501B4010E94EA2220E025
:101B200030E040E053E40E94F924181674F480E891
:101B300090E0801B910BBC01990F880B990B0E94C0
:101B40000A246A837B838C839D8320E030E0A90193
:101B5000C701B6010E94562387FF05C01E821F825F
:101B60001886198625C00C851D85B801012E000C2C
:101B7000880B990B0E940A249B01AC01C701B60196
:101B80000E94EA2220E030E040E852E40E94F9247A
:101B9000181674F460E470E0601B710B072E000CE3
:101BA000880B990B0E940A246E837F83888799870C
:101BB000DF91CF911F910F91FF90EF90DF90CF9029
:101BC000BF90AF909F908F907F906F905F904F905D
:101BD00008958F929F92AF92BF92EF92FF920F93D0
:101BE0001F93CF93DF93EC010E851F85011511051F
:101BF00031F49A858C85198A188A9A8B8B8B68891F
:101C00007989072E000C880B990B0E940A242E81DB
:101C10003F81488559850E94EA220E94D2234B01C8
:101C20005C01EA88FB88B801110F880B990B0E94B0
:101C30000A242A813B814C815D810E94EA220E9414
:101C4000D2237D8B6C8B9F8A8E8AE88EF98EDF91F2
:101C5000CF911F910F91FF90EF90BF90AF909F9009
:101C60008F900895409151025091520220914F025D
:101C70003091500242175307B4F49091E8009570E8
:101C8000E1F39091E80092FD19C08093F1008091FA
:101C900051029091520201968F739927892B19F462
:101CA0008EEF8093E800809151029091520201964C
:101CB000909352028093510281E0089580E008954C
:101CC000DF92EF92FF920F931F93CF93DF93D82E63
:101CD0008A017B01E40EF51EEB01CE15DF0571F0E4
:101CE000D7FE03C0FE01849101C088810E94320E9C
:101CF00021968111F2CF8FEF9FEF01C0C801DF91D4
:101D0000CF911F910F91FF90EF90DF900895615058
:101D100030F02091F100FC0120830196F8CF289843
:101D200084E6809354020895CF92DF92EF92FF925F
:101D30000F931F93CF93DF936C017A018B01C0E067
:101D4000D0E0CE15DF0589F0D8016D918D01D60167
:101D5000ED91FC910190F081E02DC6010995892B50
:101D600011F47E0102C02196ECCFC701DF91CF9123
:101D70001F910F91FF90EF90DF90CF900895CF9338
:101D8000DF931F92CDB7DEB76983DC01ED91FC9143
:101D90000280F381E02D41E050E0BE016F5F7F4F94
:101DA00009950F90DF91CF91089583E08093E9002A
:101DB0008091F200882319F08AE38093E800089567
:101DC000FC018485958597FD0BC09FB7F89482E050
:101DD0008093E9008091F2009FBF90E00196089502
:101DE0009FB7F89482E08093E9008091F2009FBF52
:101DF00090E008950E94EA250F931F93CF93DF93FD
:101E00001F92CDB7DEB782E0898342E450E06AE1F9
:101E10007DE080E80E94600E0E94EF15DC011296C2
:101E20000D911C9113970115110569F0D801ED91E1
:101E3000FC910280F381E02DBE016F5F7F4FC801EE
:101E4000099597FF07C089810F90DF91CF911F916E
:101E50000F910895F80100851185E5CF0E94DE15E8
:101E600090E00895CF93DF931F92CDB7DEB7FC01CA
:101E70008485958597FD05C02FEF3FEF3587248733
:101E80000BC0CE0101960E94B415019719F4898107
:101E900090E002C08FEF9FEF0F90DF91CF910895F8
:101EA0000F931F93CF93DF931F92CDB7DEB78C01B3
:101EB000FC018485958597FF0EC0CE0101960E9496
:101EC000B415019719F4298130E002C02FEF3FEFDC
:101ED000F80135872487F801848595850F90DF9177
:101EE000CF911F910F9108951F920F920FB60F92ED
:101EF00011248F939F938091E1009091E100937F53
:101F00009093E10083FF0FC01092E90091E090935D
:101F1000EB001092EC0092E39093ED0010925502CA
:101F200098E09093F00082FF20C093E09093E90046
:101F30009091F200992319F09AE39093E800909120
:101F40005302992339F09091530291509093530288
:101F5000992389F190915402992339F09091540278
:101F6000915090935402992341F184FF10C08091C5
:101F7000E2008E7E81608093E2008091E1008F7E9E
:101F80008093E100809135028E7E806111C080FFD8
:101F900016C08091E2008E7E80618093E200809185
:101FA000E1008E7E8093E100809135028E7E81601B
:101FB0008093350204C05D9ACDCF289AD6CF9F91E9
:101FC0008F910F900FBE0F901F9018951F920F9238
:101FD0000FB60F921124CF92DF92EF92FF920F93E0
:101FE0001F932F933F934F935F936F937F938F93A1
:101FF0009F93AF93BF93EF93FF93CF93DF93CDB7AF
:10200000DEB76C97DEBFCDBF1092E9008091E8008B
:1020100083FFEDC168E0CE0145960E94870E82EFF6
:102020008093E8008D8987FF05C09091E80090FFBC
:10203000FCCF03C09EEF9093E800982F907609F0B4
:10204000C6C09E892F89188D91110CC0803829F443
:10205000809136028093F10002C01092F10010923C
:10206000F10048C1422F50E0512B913051F48111C1
:1020700041C14130510509F03DC1809136028D7F4B
:102080000BC0933061F4811135C14130510509F025
:1020900031C1809136028260809336022BC1953027
:1020A00041F48091E80080FFFCCF20682093E3009A
:1020B00021C1963009F05FC0EB8CFC8C1092E900D6
:1020C0001092520210925102123091F51092500269
:1020D00010924F020E94FC0E99E0BE016F5F7F4F8D
:1020E000DB01E92F1D92EA95E9F799831A8391E0C4
:1020F0009E8390EA98879AEF9987209151023091B8
:102100005202275F3F4F3C832B838D831092E9005F
:102110001092520210925102F0925002E0924F023D
:1021200049E050E080E00E94600E0E94FC0EE2C098
:10213000F0925002E0924F020E94EF15DC011296DD
:10214000ED90FC901397E114F10409F4C0C0D7019D
:10215000ED91FC910480F581E02DBE016B5E7F4F17
:10216000C7010995009719F00CF0C4C0C7C0F7016A
:10217000E084F184E8CF973009F4C0C0983021F4AE
:1021800081E08093F100B6C0993009F0B3C083704C
:1021900009F0B4C0E9E3F1E081E021E036E39081A9
:1021A000992361F08093E9002093EB009191909343
:1021B000EC003093ED008F5F873089F78EE78093D6
:1021C000EA001092EA008F898093550293C08B8DAC
:1021D0009C8D1092E900109252021092510290933D
:1021E000500280934F02898D811156C08E899D893E
:1021F000913A59F4813209F081C047E050E066E23B
:1022000071E080E00E94600E75C0913209F076C0E6
:10221000833289F4888D90E0982F88272F89822B2C
:10222000A0E0B0E08093220190932301A0932401C9
:10223000B09325015FC0803269F48091E80082FF8D
:10224000FCCF67E086E291E00E94870E8BEF8093DF
:10225000E80006C0823209F04DC08F8980932D01BD
:1022600080913402882319F0EEEFFAE002C0E0E03A
:10227000F8E08091260190912701A0912801B0916A
:102280002901803B9440A105B10509F07BC08091F4
:102290002D0180FF93C076C00E94EF15DC011296DD
:1022A0000D911C9113970115110541F1D801ED9184
:1022B000FC910190F081E02DBE016B5E7F4FC80163
:1022C0000995811117C0F80100851185ECCF1130F7
:1022D00009F44EC0133091F48F89882309F445C066
:1022E000823081F440E860E18EE79DE00E94AE1EFE
:1022F000882321F08EEF8093E80079C081E28093FB
:10230000EB0075C0813029F440E86BE082E79DE086
:10231000EDCF833099F70E94EF15DC011296ED9016
:10232000FC9013978E010F5F1F4F6801E114F104B9
:1023300079F0D701ED91FC910680F781E02DB8018D
:10234000C7010995080F111DF701E084F184EECF54
:10235000D8011C92F60101900020E9F73197BF01E6
:102360006C197D0940E0C601C1CF6CE57DE002C07B
:1023700060E67DE06115710509F2FB01449150E0D2
:1023800080E840CF0FB6F894A895809160008861EE
:1023900080936000109260000FBEA895EE3F2AE087
:1023A000F20739F08091FE0A9091FF0A91838083B1
:1023B000A1CF1092FF0A1092FE0A9CCFEE3F8AE056
:1023C000F80731F0808191819093FF0A8093FE0A93
:1023D00087E797E7918380839BE088E10FB6F894C5
:1023E000A895809360000FBE9093600083CF6C9699
:1023F0000FB6F894DEBF0FBECDBFDF91CF91FF9136
:10240000EF91BF91AF919F918F917F916F915F916C
:102410004F913F912F911F910F91FF90EF90DF907F
:10242000CF900F900FBE0F901F901895DC01ED918B
:10243000FC910190F081E02D09943FB7F8948091D0
:102440004B0290914C02A0914D02B0914E0226B5E4
:10245000A89B05C02F3F19F00196A11DB11D3FBFDC
:10246000BA2FA92F982F8827820F911DA11DB11D6A
:10247000BC01CD0142E0660F771F881F991F4A9566
:10248000D1F708958F929F92AF92BF92CF92DF9231
:10249000EF92FF926B017C010E941D124B015C01C7
:1024A000C114D104E104F104F1F00E941D12DC0119
:1024B000CB0188199909AA09BB09883E9340A10557
:1024C000B10570F321E0C21AD108E108F10888EEE5
:1024D000880E83E0981EA11CB11CC114D104E10434
:1024E000F10419F7DDCFFF90EF90DF90CF90BF9010
:1024F000AF909F908F9008958F929F92AF92BF92CE
:10250000CF92DF92EF92FF920F931F93CF93DF93BF
:102510005C016B017A0180912D01882309F45BC075
:1025200080915502882309F456C08091350280FFBE
:1025300005C08091E00082608093E000E70110E038
:102540000AEF83E0882E9AE3992E2097D9F10E9412
:10255000DE1581110AC0015009F43DC061E070E050
:1025600080E090E00E944212F0CF282F30E0C217A6
:10257000D3070CF48C2F4FB7F8948092E900909118
:10258000E80095FF1DC0282F30E0C21BD30BF601D9
:10259000982F915020F081918093F100FACFC20ED4
:1025A000D31E112319F09092E80009C08091E80031
:1025B00085FD06C09092E80011E0209709F010E038
:1025C0004FBFC3CF1111C3CF5D9884E680935302F0
:1025D0001E141F0444F081E090E0F5019383828390
:1025E00080E090E001C0C701DF91CF911F910F9172
:1025F000FF90EF90DF90CF90BF90AF909F908F9023
:1026000008951F920F920FB60F9211242F933F93AC
:102610008F939F93AF93BF9380913702909138022D
:10262000A0913902B0913A0230914A0223E0230F7F
:102630002D3720F40196A11DB11D05C026E8230FFA
:102640000296A11DB11D20934A02809337029093F8
:102650003802A0933902B0933A0280914B029091D4
:102660004C02A0914D02B0914E020196A11DB11DE8
:1026700080934B0290934C02A0934D02B0934E0274
:10268000BF91AF919F918F913F912F910F900FBE6E
:102690000F901F9018951F920F920FB60F92112452
:1026A0002F933F934F935F936F937F938F939F935A
:1026B000AF93BF93EF93FF938091460290914702AF
:1026C000A0914802B0914902892B8A2B8B2B81F172
:1026D0008091450281110BC098B180E4892788B9A7
:1026E00080914402882319F088B1805888B980917C
:1026F000460290914702A0914802B09149021816F3
:1027000019061A061B06B4F48091460290914702FE
:10271000A0914802B09149020197A109B1098093A3
:10272000460290934702A0934802B093490202C028
:102730000E945C09FF91EF91BF91AF919F918F91A2
:102740007F916F915F914F913F912F910F900FBEAD
:102750000F901F90189580913F02E0913D02F091FB
:102760003E02882349F0CF01029690933E02809367
:102770003D02859194910895CF01029690933E0277
:1027800080933D02808191810895DF92EF92FF92C4
:102790000F931F93CF93DF937C01D22E8B01040FF5
:1027A000111DEB0177FF0EC0C0E0D0E00BC0C417D5
:1027B000D5077CF42D2DAE01B70184ED96E00E9483
:1027C000B60C2196A801013411058CF340E450E0C9
:1027D000EECFDF91CF911F910F91FF90EF90DF909F
:1027E0000895DF92EF92FF920F931F93CF93DF93A1
:1027F000EC017B01D42E122F6034710520F4202FC0
:10280000CE010E94730CB701610F711D61507109F7
:102810006034710528F4202F4D2DCE010E94730CD9
:10282000202F412FB701CE010E94C513CE018D0D7F
:10283000911D202F412FB7010197DF91CF911F915B
:102840000F91FF90EF90DF900C94C513809156028A
:102850008EBDE7E5F2E081910DB407FEFDCF8EBDA0
:1028600086E0E635F807B9F70DB407FEFDCF089509
:102870002091DA06282329F49091D906982381E043
:1028800009F480E008955F926F927F928F929F92F9
:10289000AF92BF92CF92DF92EF92FF920F931F936E
:1028A000CF93DF93EC018B017A01A901461B570BF3
:1028B00057FF03C0519541955109C7018C1B9D0BD2
:1028C00097FF03C0919581959109552453948417DE
:1028D000950714F0512C0AC09E2D8F2D7901292FB8
:1028E000382F9C2F8D2FE801092F182FEC16FD068D
:1028F00054F4902F812F8901292F382F9C2F8D2F51
:10290000E701E92EF82E37016C1A7D0A5901A01A49
:10291000B10AB7FE03C0B194A194B108630177FE78
:1029200003C08FEFC81AD80AD594C79402171307AB
:1029300014F08FEF01C081E0882E880F9908EC1603
:10294000FD06B4F021E0552019F0AE01B80102C037
:10295000A801BE0184ED96E00E94B60CCA18DB08FF
:10296000D7FE04C0080D191DC60CD71C2196E7CF51
:10297000DF91CF911F910F91FF90EF90DF90CF905B
:10298000BF90AF909F908F907F906F905F900895D1
:102990002F923F924F925F926F927F928F929F926F
:1029A000AF92BF92CF92DF92EF92FF920F931F935D
:1029B000CF93DF93CDB7DEB7A2970FB6F894DEBF03
:1029C0000FBECDBF8C016B01FC01E0A4F1A46681B8
:1029D0007781808591850E94D2231B012C013B01C8
:1029E000F80162817381848195810E94D2235B0109
:1029F00026E0F8013E96DE015D9601900D922A9543
:102A0000E1F726E0FE017D96DE01199601900D9218
:102A10002A95E1F77A8369833C822B82DE82CD821C
:102A2000F886EF828EE0FE013196DE011F9601905E
:102A30000D928A95E1F78090D1069090D20684019C
:102A40000F5F1F4F8016910608F06EC08091CF0671
:102A50009091D00680179107B8F59401275F3F4FFA
:102A60008217930788F54090CD065090CE0630939C
:102A7000D0062093CF068EE0F82FF29FC001F39F7F
:102A8000900D11240E943C218093CD069093CE0698
:102A9000A2019C0160E070E08EE06815790589F084
:102AA0002115310539F0FA01D901982F01900D92C5
:102AB0009A95E1F76F5F7F4F425F5F4F225F3F4F15
:102AC000ECCFC2010E94D1212091D1063091D206D3
:102AD0008EE0829FB001839F700D112440E050E092
:102AE0008EE0982E2017310710F5A091CD06B091F9
:102AF000CE06CA01860F971FA80FB91F109779F04D
:102B0000B88AAF867A8A698ADC8ACB8AFE8AED8A9D
:102B1000FE013F96892D01900D928A95E1F72F5F76
:102B20003F4F425F5F4FDECF0815190520F4109329
:102B3000D2060093D106A2960FB6F894DEBF0FBE60
:102B4000CDBFDF91CF911F910F91FF90EF90DF905C
:102B5000CF90BF90AF909F908F907F906F905F903D
:102B60004F903F902F900895FC0180915502811164
:102B700003C08FEF9FEF08959FB7F89482E0809392
:102B8000E9002091F20030E01216130614F421E05F
:102B900030E02115310559F0289884E680935402DD
:102BA0008091F10080838091F200882319F09FBF0B
:102BB000C90108958BE68093E800F9CF2FB7F89408
:102BC00083E08093E9009091E800892F807295FF5F
:102BD00004C09091F20080E4891B2FBF089580917A
:102BE000EC0681110DC082E08093E80684E08093BA
:102BF000E9061092EB061092EA0681E08093EC065B
:102C000088EE96E00895CF93DF93CDB7DEB76F9748
:102C10000FB6F894DEBF0FBECDBF789484B5826046
:102C200084BD84B5816084BD85B5826085BD85B570
:102C3000816085BD80916E00816080936E001092EE
:102C40008100809181008260809381008091810069
:102C500081608093810080918000816080938000FA
:102C600080919100826080939100809191008160B9
:102C7000809391008091900081608093900080917A
:102C8000C10084608093C1008091C1008260809304
:102C9000C1008091C10081608093C1008091C30018
:102CA00081608093C3008091C00082608093C000E7
:102CB0008091C20081608093C20080917A0084601C
:102CC00080937A0080917A00826080937A0080916C
:102CD0007A00816080937A0080917A008068809386
:102CE0007A001092550210923602109235028091AD
:102CF000D70081608093D70080EA8093D80089B59F
:102D0000806189BD89B5826089BD09B400FEFDCFAF
:102D100061E070E080E090E00E9442128091D80073
:102D20008F7C80618093D8008091E000807F8093C9
:102D3000E0008091E1008E7E8093E1008DE0809341
:102D4000E200559A209AEEEFFFE7859194918B3F30
:102D50009C4D19F481E08093340281EC80937C00D7
:102D600085B1806F85B9249884B1866E84B95E9AE6
:102D70005F988AB1806D8AB9769A6E9881B3806FB8
:102D800081BB899880B38D7080BB80E58CBD81E06C
:102D90008DBD85E090E00E94350C5F9A85E090E063
:102DA0000E94350C5E985C980AEC10E06DE0F62EFF
:102DB000F00EF80184910E94620C0F5F1F4FF01219
:102DC000F8CF5C9A81E88093640081E0809365008D
:102DD00000E014E080E00E94620C01501109D1F77C
:102DE0000E943A0C87FF1FC05C9885EA0E94620C23
:102DF0005C9A2E982F982D98809164008062809321
:102E000064000E94570CFDCF2D980E943A0C8478E4
:102E1000843871F00E943A0C8471843129F188EC75
:102E200090E00E94350C0E943A0C82FDEDCF38C034
:102E30002D9A88EC90E00E94350C2F9882E090E06B
:102E40000E9470228F3F29F06FEF82E090E00E9495
:102E5000782284EF91E00E94350C2F9A0E943A0C60
:102E600084788438D9F3D6CF2D9A88EC90E00E94EC
:102E7000350C2E9882E090E00E947022882329F081
:102E800060E082E090E00E94782284EF91E00E946E
:102E9000350C2E9A0E943A0C84718431D9F3BFCF3D
:102EA0002D9A82E090E00E947022882319F00E94FF
:102EB0006D0C02C00E94680C82E390E00E94350C09
:102EC0000E943A0C8111F8CF809164008E7F80932C
:102ED000640080917A00806480937A0080917A0007
:102EE00086FDFCCF00917800109179000E941D12A0
:102EF00020E030E0980111270027600F711F821F2A
:102F0000931F611571058105910511F00E94CC2078
:102F10008091640081608093640048E0242E312C0D
:102F20002FB7F8948091370290913802A09139021E
:102F3000B0913A022FBF4091E0065091E1066091B6
:102F4000E2067091E3060091E406002341F020912F
:102F5000DC06821B8093E5061092E40619C28417F2
:102F60009507A607B70738F4481B423008F410C28B
:102F70000E94570C0DC211E01093E4068093DC060A
:102F80009093DD06A093DE06B093DF062091DB066A
:102F9000820F911DA11DB11D8093E0069093E10663
:102FA000A093E206B093E3068091D7069091D806ED
:102FB00001969093D8068093D7068091D906809386
:102FC000DA060E943A0C8093D906802FE6E5F2E0FB
:102FD00081118FEF002481938193819381930394D6
:102FE000D1F780911601811110C00E943A0C86FD24
:102FF0000CC0D6C18091D7069091D80666E970E0E2
:103000000E94BC25892B09F0F0C181E08093160154
:1030100080910001811146C21091110111110FC060
:1030200080914002882329F010921501109214011A
:1030300006C081E090E0909315018093140180E236
:103040000E9438148823A1F0111109C08091010158
:1030500090910201181619065CF5019718C080912D
:103060001401909115011816190614F501971CC04A
:1030700080E40E9438148823D9F011110DC080918A
:103080000101909102018330910594F4019690938F
:103090000201809301010CC08091140190911501EF
:1030A000181619062CF001969093150180931401BF
:1030B00088E00E943814882309F482C011115DC091
:1030C00080910101909102018130910521F481E00C
:1030D00080930001E7C1909313018093120181E076
:1030E00080931101E7E0F6E00491E8E0F6E0E49077
:1030F00082E0C82E20E030E049E056E06AE070E06F
:103100008AE090E00E940A0A809111018111F8C0C2
:103110002091010130910201E0900B01F0900C012F
:10312000F1E0EF1AF1084091090150910A01249F42
:10313000C001259F900D349F900D1124E80EF91EBB
:1031400040910D0150910E01249FC001259F900DCB
:10315000349F900D1124E80EF91E90900701809184
:103160000301C0900F01D090100121E0C21AD108D4
:1031700087015701A80EB11C2CC0809112019091BB
:103180001301039709F0AECF8091140190911501BE
:10319000009719F40E946D0C04C0019711F40E946D
:1031A000680C6091400282E090E06F8F0E94702274
:1031B0006F8D681759F082E090E00E94782206C077
:1031C00084E00E943814882309F48CCF10921101F6
:1031D00089CF0A151B054CF421E0492DB601C80121
:1031E0000E94C5130F5F1F4FF4CF209107012E5F80
:1031F000409103014E5F60910F0170911001625088
:10320000710900E0C70101970E94F11320910701A5
:1032100030910801409103015091040160910F0128
:103220007091100161507109C7010E94D70C609123
:103230000F017091100120E04BED55E080910B01E2
:1032400090910C010E94F10B60910F01709110019F
:1032500020910B0130910C018091090190910A019C
:10326000820F931FE0910D01F0910E0120E04FEAD3
:1032700055E08E0F9F1F0E94F10B60910F0170911E
:1032800010018091090190910A01880F991F2091E6
:103290000B0130910C01820F931FE0910D01F09111
:1032A0000E01EE0FFF1F20E043E855E08E0F9F1F39
:1032B0000E94F10B60910F0170911001E0910901E2
:1032C000F0910A01CF01880F991FE80FF91F809133
:1032D0000B0190910C01E80FF91F20910D01309125
:1032E0000E01C901880F991F820F931F20E047E547
:1032F00055E08E0F9F1F0E94F10B0E94261448C0BC
:1033000080911201909113010397B9F780911401F4
:1033100090911501009739F0019751F442E150E086
:103320008AE490E009C04DE050E08BE390E004C0F7
:1033300040E050E080E090E02091070130910801EA
:1033400060910F0170911001615071090E94D70CBA
:1033500060910F017091100120E04FE255E085E28D
:1033600090E00E94F10B60910F017091100120E03C
:1033700047E155E08CE390E00E94F10B60910F0172
:103380007091100120E045EF54E08BE490E0B3CF62
:1033900080E090E0892B09F4C3CD0E940000C0CDED
:1033A00060911A0170911B0120911C0130911D0147
:1033B000621773070CF01ECE6F5F7F4F70931B0177
:1033C00060931A018091180190911901EDE6F3E0E4
:1033D0000491EEE6F3E0E4903AEFC32E20E030E013
:1033E0004FE653E00E940A0A88CF30931B012093D6
:1033F0001A0180911701811133C0809171008D7F76
:103400008093710010923F0286E596E090933E0211
:1034100080933D0290933C0280933B0286E194E0CE
:10342000909357068093560682E390E09093590656
:10343000809358068DE298E090935B0680935A063D
:1034400084E690E090935D0680935C0680E090E8CF
:1034500090935F0680935E060E945C0910931701AB
:1034600060911A0170911B018091180190911901CE
:10347000E5EEF1E00491E6EEF1E0E4902AEFC22EF1
:1034800020E030E047EE51E00E940A0A60912001FE
:103490007091210120E047ED50E080911E01909154
:1034A0001F0129CF8091D1069091D206892B21F05E
:1034B0001092D2061092D10600E010E05CE2B52E28
:1034C00080916A0690916B060817190708F08AC068
:1034D000C0906606D0906706B09E7001B19EF00C59
:1034E0001124F601EE0DFF1D208131811216130605
:1034F0000CF045C062A573A577278091D7069091FF
:10350000D8060E94BC25009721F42150310931834F
:103510002083892B79F480A591A526A137A121507C
:1035200031098217930724F4019691A780A702C05E
:1035300011A610A6CF010E940D0D809166069091F4
:103540006706E80EF91ED70116966D917D918D9153
:103550009C9119970E94D2232B013C01F7016281B3
:103560007381848195810E94D223DC01CB01F70114
:1035700020A540ED5CE0B2010E94F10B30C0970144
:10358000359527953595279563EA7BE8269FA00119
:10359000279F500D369F500D112460E070E09C0174
:1035A000215031094217530788F44F5F5F4FDB0109
:1035B000AE0DBF1DAC0DBD1DFD01BC96AB2C019029
:1035C0000D92AA94E1F7645D7F4FECCF281739077D
:1035D00020F430936B0620936A06015011090F5FA7
:1035E0001F4F6ECF0E94C72024E630E040E050E03D
:1035F0000E94862268307105810591050CF051C04A
:103600008091B7069091B806A091B906B091BA061C
:103610008F87988BA98BBA8B20E030E0A901BC0181
:10362000CD010E94F9241816E4F54091B30650919B
:10363000B4066091B5067091B6064B8B5C8B6D8BB2
:103640007E8B60919F067091A0068091A10690915B
:10365000A2066F8B788F898F9A8F7090A506D09075
:10366000A60680919B0690919C06A0919D06B09124
:103670009E068B8F9C8FAD8FBE8FE090A306F0903F
:10368000A40600916A0610916B0658019FEFA91AD3
:10369000B90A0A151B0508F47DC2A016B10608F484
:1036A00038C38DE696E00E94E90D20E030E044EB5F
:1036B00053E4609187067091880680918906909105
:1036C0008A060E9460236B017C01609193067091D1
:1036D0009406072E000C880B990B0E940A249B016C
:1036E000AC01C701B6010E94FE240E94D223709350
:1036F0009606609395066EE27AE08DE696E00E946B
:10370000C81420E030E0A9016091B7067091B806B6
:103710008091B9069091BA060E94F9241816ACF56A
:103720000E943A0C85FF13C02091C5063091C60651
:103730004091C7065091C8066091B3067091B406D7
:103740008091B5069091B6060E94EA2216C00E94AA
:103750003A0C86FF1AC02091C5063091C6064091EA
:10376000C7065091C8066091B3067091B406809167
:10377000B5069091B6060E94E9226093B306709355
:10378000B4068093B5069093B6066091B306709127
:10379000B4068091B5069091B6060E94D223CB0163
:1037A00068E671E00E94D025BC01990F880B990B47
:1037B0000E940A246B017C0120E030E0A9010E94F4
:1037C000562387FF0AC020E030E044EB53E4C701F2
:1037D000B6010E94EA226B017C01C092B306D0922E
:1037E000B406E092B506F092B6060E943A0C83FF4A
:1037F00029C02091C9063091CA064091CB0650914C
:10380000CC066091B7067091B8068091B906909188
:10381000BA060E94EA226093B7067093B8068093B6
:10382000B9069093BA06C090BB06D090BC06E09053
:10383000BD06F090BE06A70196010E94F924181655
:1038400004F130C00E943A0C82FF2CC02091C906BE
:103850003091CA064091CB065091CC066091B706D4
:103860007091B8068091B9069091BA060E94E9223B
:103870006B017C0120E030E0A9010E94562387FD06
:1038800009C0C092B706D092B806E092B906F0928D
:10389000BA0608C01092B7061092B8061092B90680
:1038A0001092BA0620E030E044EB53E46091B30696
:1038B0007091B4068091B5069091B6060E9460237F
:1038C0006B017C016091BF067091C006072E000C51
:1038D000880B990B0E940A249B01AC01C701B60119
:1038E0000E94FE240E94D2237093C2066093C106F8
:1038F00089E996E00E940D0D89E996E00E94E90DA4
:103900006CE676E089E996E00E94C8148091810611
:10391000909182060091830610918406509185064D
:10392000E09186062091AD063091AE06C090AF06BC
:10393000D090B0064091B2066091B106D901A60FB1
:10394000B11D8A179B070CF090C0BC01650F711D5B
:10395000261737070CF089C0D601A40FB11D0A172E
:103960001B070CF082C07801EE0EF11CCE14DF04B0
:103970000CF07BC0281739070CF0D0C12091AB06A2
:10398000BC01621B71098091A7069091A806681B73
:10399000790B6F5F7F4F072E000C880B990B0E94ED
:1039A0000A2420919B0630919C0640919D065091DF
:1039B0009E060E94E9224B015C018091A90690912C
:1039C000AA06C016D1060CF0B0C12091AC06B80111
:1039D000621B7109681B790B6F5F7F4F072E000C0C
:1039E000880B990B0E940A2420919F063091A00613
:1039F0004091A1065091A2060E94E9226B017C0130
:103A000020E030E0A901C501B4010E94F92424019D
:103A10003501181624F077FA709477F8709420E046
:103A200030E0A901C701B6010E94F924A70196015F
:103A300018160CF05058C301B2010E94562387FF9C
:103A400078C1A501940160919B0670919C068091BC
:103A50009D0690919E060E94EA2260939B067093B9
:103A60009C0680939D0690939E064091CD065091B2
:103A7000CE068091D1069091D2066EE0689F9001AB
:103A8000699F300D11242E503109240F351F1EE07F
:103A9000C901841B950B0E9754F1B901C901841714
:103AA000950711F10E97FC01A089B189E280F3809E
:103AB000AE15BF05B4F4DE011196012F01900D92F1
:103AC0000A95E1F7FB01DC01012F01900D920A95A7
:103AD000E1F7FE013196DB01012F01900D920A956D
:103AE000E1F76E507109DBCF425F5F4FD1CF29E123
:103AF00030E048E250E064E170E084E190E00E9450
:103B0000431428E230E04CE350E069E170E088E2E1
:103B100090E00E94431428E730E040E550E068E27E
:103B200070E08CE390E00E9443142CE830E048E71A
:103B300050E068E770E080E590E00E94431424EBD9
:103B400030E048EC50E06CE870E088E790E00E94DC
:103B50004314E12CF12C00E010E08091D10690910B
:103B6000D2060817190708F0C8CBE091CD06F091EE
:103B7000CE06EE0DFF1D4481558162817381268141
:103B8000808191810E94F10B0F5F1F4FFEE0EF0ECD
:103B9000F11CE3CF20916806309169062A153B0598
:103BA000C0F5C80109962817390798F59090660660
:103BB000C090670690936906809368062CE2DC014A
:103BC0002A9FC0012B9F900D11240E943C218093BD
:103BD000660690936706492D5C2D9C0160E070E0BD
:103BE0008CE26017710789F02115310539F0FA016F
:103BF000D901982F01900D929A95E1F76F5F7F4F51
:103C0000445D5F4F245D3F4FECCF892D9C2D0E947A
:103C1000D12180906A0690906B06C701F7FC01964F
:103C200095958795472C5D2C57FE03C0BFEF4B1A27
:103C30005B0A559447944CE2489D9001499D300D94
:103C400011240091660610916706020F131F6C0184
:103C5000990FEE08FF08052C000C660877088A14F7
:103C60009B0408F056C00115110509F44CC044E04E
:103C700050E0F80151834083C701B6010E940A2435
:103C80009B01AC016B8D7C8D8D8D9E8D0E94EA22F7
:103C9000D80112966D937D938D939C931597C301D4
:103CA000B2010E940A249B01AC016F89788D898D35
:103CB0009A8D0E94EA22F801668377838087918734
:103CC00033862286358624864B895C896D897E8978
:103CD000428F538F648F758F20E030E040E05FE3C8
:103CE0006F85788989899A890E94FE24F801668FF8
:103CF000778F80A391A344E050E057A346A311A679
:103D000010A633A622A65FEF851A950A045D1F4F01
:103D1000A6CFB0926B06A0926A06C3CC8091A7068C
:103D20009091A806681B790B36CEB701681B790BFA
:103D300055CEA701960160919F067091A0068091D3
:103D4000A1069091A2060E94EA2260939F067093BA
:103D5000A0068093A1069093A20687CECF92DF9211
:103D6000EF92FF920F931F93CF93DF931F92CDB7E4
:103D7000DEB7182F062FE42E862F880F8E5F9983CB
:103D80000E94320E83E00E94320EF12EC12E9981E4
:103D9000D92E8C2D8F19801798F4F601E7FE02C0FA
:103DA000849101C080810E94320E182F80E00E9411
:103DB000320E8123FFEFCF1ADF0A8111EACF01C053
:103DC00081E00F90DF91CF911F910F91FF90EF90C5
:103DD000DF90CF90089580916606909167060E94CB
:103DE000D1218091CD069091CE060E94D12184EF01
:103DF00096E00E94D50882E797E00C9423098F9201
:103E00009F92AF92BF92CF92DF92EF92FF920F9369
:103E10001F93CF93DF93A2E2B7E013961C921E92FA
:103E2000129748EE53E060E070E014964D935D9376
:103E30006D937C93179787E791E011969C938E93EF
:103E4000CFEFDFEF1D96DC93CE931C97E2E7F7E010
:103E500081E2E82EF12CF08EE78A118E128E138EFD
:103E600046E050E060E070E0448F558F668F778FBA
:103E700010A211A212A213A220E224A316A215A23C
:103E800011A684E797E090A787A387E192E091834A
:103E9000808381E292E0958B848B16821582108656
:103EA0001782128611861486138616861586108A46
:103EB000178685EF91E093838283B38BA28B10E109
:103EC000118BE4EFF6E0F48EE38E158E168E178ECE
:103ED00040A351A362A373A314A215A216A217A212
:103EE00020A712A611A615A612821382148215828B
:103EF0002AEF36E034A723A72FE931E0318320836E
:103F000029EA31E0318F208F1286118614861386BC
:103F100016861586108A1786128A118A148A138AC1
:103F200097838683B78BA68B88E0858BB093E70653
:103F3000A093E6066DE078E085E298E00E94D52047
:103F4000E4EDF6E081E392E09183808315821682AE
:103F50001783D483C3831486158616861786108A22
:103F600084EF96E0909365068093640680E090E885
:103F7000909363068093620646983E9A47983F9ACC
:103F8000CDECD6E008E010E01B830A831D821C8282
:103F900080E790E00E943C21998388830E94C7209B
:103FA000C9E9D6E028E6822E99249394A12CB12C5D
:103FB000A50194010E9486220E940A246A8F7B8FA9
:103FC0008C8F9D8F84E190E09B878A8730E1C32EA0
:103FD000D12CDD86CC8680E090E0A8E5B2E48A832F
:103FE0009B83AC83BD8380E090E0A0ECB1E48E8342
:103FF0009F83A887B98786E0EFE3F1E0A7EAB6E000
:1040000001900D928A95E1F71E8E1F8E18A219A2BB
:1040100080E090E0A0ECBFE38AA39BA3ACA3BDA388
:1040200080E090E0A0E4B0E48CA79DA7AEA7BFA776
:104030008DEC9CECACE4BDE388AB99ABAAABBBAB1D
:104040004CE0E42EF12CFFA2EEA219A618A61BA6A6
:104050001AA60E94C720CDE6D6E0A50194010E94D1
:1040600086220E940A246A8F7B8F8C8F9D8F8EE020
:1040700090E09B878A87DD86CC8680E090E0A0EF89
:10408000B1E48A839B83AC83BD838E839F83A8879F
:10409000B98786E0E5E4F1E0ABE7B6E001900D9288
:1040A0008A95E1F71E8E1F8E18A219A21AA21BA2D2
:1040B0001CA21DA2FFA2EEA219A618A61BA61AA654
:1040C000C6E6D6E01B830A831D821C8280E691E04F
:1040D0000E943C2199838883DF91CF911F910F919A
:1040E000FF90EF90DF90CF90BF90AF909F908F9018
:1040F00008958F929F92AF92BF92CF92DF92EF92EC
:10410000FF92CF93DF93EC01688179818A819B8153
:10411000611571058105910521F464E279ED8BE566
:1041200097E02DE133EF41E050E00E948622490103
:104130005A019B01AC01A7EAB1E40E94A5226B01E0
:104140007C01ACEEB4EFA50194010E94B322DC0126
:10415000CB018C0D9D1DAE1DBF1DB7FF03C0019788
:10416000A109B04888839983AA83BB83BC01CD0190
:104170009F77DF91CF91FF90EF90DF90CF90BF902E
:10418000AF909F908F9008950E94792008958EE2BD
:1041900091E00E947920089560932E0170932F0181
:1041A000809330019093310108950F931F93CF9323
:1041B000DF93009731F46115710519F480E090E008
:1041C0003AC08B01EC016EE070E081E090E00E946B
:1041D0002021FC01892B91F380E8838301151105CF
:1041E00071F01387028781E8838380919C07909107
:1041F0009D07892B21F4F0939D07E0939C0720975E
:10420000C9F0D187C08783818260838380919E07B4
:1042100090919F07892B71F4F0939F07E0939E077D
:104220008091A0079091A107892B21F4F093A10719
:10423000E093A007CF01DF91CF911F910F910895D7
:104240000F931F93CF93DF93869F8001879F100D5D
:10425000969F100D1124C8010E943C21EC0100978B
:1042600029F0A80160E070E00E946922CE01DF9190
:10427000CF911F910F910895CF93DF9382309105D5
:1042800010F482E090E0E091A407F091A50720E00F
:1042900030E0C0E0D0E0309711F140815181481703
:1042A0005907C0F04817590761F48281938120971C
:1042B00019F09B838A832BC09093A5078093A40752
:1042C00026C02115310519F04217530718F49A0139
:1042D000BE01DF01EF010280F381E02DDCCF21156B
:1042E000310509F1281B390B2430310590F4129661
:1042F0008D919C9113976115710521F0FB019383BA
:10430000828304C09093A5078093A407FD01329691
:1043100044C0FD01E20FF31F8193919322503109B4
:104320002D933C933AC02091A2073091A307232BF1
:1043300041F420913401309135013093A30720934B
:10434000A20720913201309133012115310541F44A
:104350002DB73EB74091360150913701241B350BE4
:10436000E091A207F091A307E217F307A0F42E1B38
:104370003F0B2817390778F0AC014E5F5F4F2417C9
:10438000350748F04E0F5F1F5093A3074093A207D5
:104390008193919302C0E0E0F0E0CF01DF91CF91F3
:1043A00008950F931F93CF93DF93009709F48CC068
:1043B000FC013297138212820091A4071091A50785
:1043C0000115110581F420813181820F931F209105
:1043D000A2073091A3072817390779F5F093A307AF
:1043E000E093A20771C0D80140E050E0AE17BF07CC
:1043F00050F412962D913C911397AD012115310582
:1044000009F1D901F3CF9D01DA0133832283608161
:104410007181860F971F8217930769F4EC01288139
:104420003981260F371F2E5F3F4F318320838A81CA
:104430009B8193838283452B29F4F093A507E09316
:10444000A40742C01396FC93EE931297ED01499195
:1044500059919E01240F351FE217F30771F48081F3
:104460009181840F951F029611969C938E93828161
:10447000938113969C938E931297E0E0F0E0D8011D
:1044800012968D919C911397009719F0F8018C0169
:10449000F6CF8D919C9198012E5F3F4F820F931F15
:1044A0002091A2073091A3072817390769F43097A4
:1044B00029F41092A5071092A40702C01382128259
:1044C0001093A3070093A207DF91CF911F910F9143
:1044D0000895DC0101C06D9341505040E0F708950C
:1044E000F999FECF92BD81BDF89A992780B50895BC
:1044F000262FF999FECF1FBA92BD81BD20BD0FB600
:10450000F894FA9AF99A0FBE01960895052E97FB32
:104510001EF400940E949D2257FD07D00E94B822ED
:1045200007FC03D04EF40C949D2250954095309595
:1045300021953F4F4F4F5F4F08959095809570950F
:1045400061957F4F8F4F9F4F08950E94DA22A59F5C
:10455000900DB49F900DA49F800D911D112408957E
:10456000B7FF0C94A5220E94A522821B930B0895ED
:10457000A1E21A2EAA1BBB1BFD010DC0AA1FBB1F67
:10458000EE1FFF1FA217B307E407F50720F0A21BD9
:10459000B30BE40BF50B661F771F881F991F1A9446
:1045A00069F760957095809590959B01AC01BD0170
:1045B000CF010895A29FB001B39FC001A39F700DCA
:1045C000811D1124911DB29F700D811D1124911D1B
:1045D00008955058BB27AA270E9401230C94AB24AE
:1045E0000E94722438F00E94792420F039F49F3F11
:1045F00019F426F40C946F240EF4E095E7FB0C9468
:104600006924E92F0E94D02458F3BA176207730770
:104610008407950720F079F4A6F50C94F2240EF4A3
:10462000E0950B2EBA2FA02D0B01B90190010C01C2
:10463000CA01A0011124FF27591B99F0593F50F4DA
:10464000503E68F11A16F040A22F232F342F442732
:10465000585FF3CF469537952795A795F04053952A
:10466000C9F77EF41F16BA0B620B730B840BBAF0FA
:104670009150A1F0FF0FBB1F661F771F881FC2F765
:104680000EC0BA0F621F731F841F48F48795779579
:104690006795B795F7959E3F08F0B0CF9395880F33
:1046A00008F09927EE0F9795879508950E94452465
:1046B00008F481E008950E948224E3950C94BC24C0
:1046C0000E9474230C94AB240E94792458F00E9419
:1046D000722440F029F45F3F29F00C9469245111B1
:1046E0000C94F3240C946F240E94D02468F3992333
:1046F000B1F3552391F3951B550BBB27AA276217DE
:104700007307840738F09F5F5F4F220F331F441FEA
:10471000AA1FA9F335D00E2E3AF0E0E832D091501E
:104720005040E695001CCAF72BD0FE2F29D0660F0B
:10473000771F881FBB1F261737074807AB07B0E84E
:1047400009F0BB0B802DBF01FF2793585F4F3AF054
:104750009E3F510578F00C9469240C94F3245F3F3C
:10476000E4F3983ED4F3869577956795B795F795DA
:104770009F5FC9F7880F911D9695879597F90895C2
:10478000E1E0660F771F881FBB1F6217730784075E
:10479000BA0720F0621B730B840BBA0BEE1F88F76D
:1047A000E09508950E94D9236894B1110C94F324E4
:1047B00008950E94D82488F09F5798F0B92F992720
:1047C000B751B0F0E1F0660F771F881F991F1AF0FC
:1047D000BA95C9F714C0B13091F00E94F224B1E04B
:1047E00008950C94F224672F782F8827B85F39F04A
:1047F000B93FCCF3869577956795B395D9F73EF495
:1048000090958095709561957F4F8F4F9F4F08953C
:10481000E89409C097FB3EF490958095709561955A
:104820007F4F8F4F9F4F9923A9F0F92F96E9BB2710
:104830009395F695879577956795B795F111F8CF8C
:10484000FAF4BB0F11F460FF1BC06F5F7F4F8F4FF7
:104850009F4F16C0882311F096E911C0772321F0ED
:104860009EE8872F762F05C0662371F096E8862F85
:1048700070E060E02AF09A95660F771F881FDAF7DC
:10488000880F9695879597F90895990F0008550F09
:10489000AA0BE0E8FEEF16161706E807F907C0F0C6
:1048A00012161306E407F50798F0621B730B840BCE
:1048B000950B39F40A2661F0232B242B252B21F4A8
:1048C00008950A2609F4A140A6958FEF811D811D48
:1048D000089597F99F6780E870E060E008959FEF82
:1048E00080EC089500240A94161617061806090687
:1048F000089500240A941216130614060506089556
:104900000C946F240E94D824D8F3E894E0E0BB27ED
:104910009F57F0F02AED3FE049EC06C0EE0FBB0FC9
:10492000661F771F881F28F0B23A62077307840753
:1049300028F0B25A620B730B840BE3959A9572F7C9
:10494000803830F49A95BB0F661F771F881FD2F707
:1049500090480C947525092E0394000C11F48823BB
:1049600052F0BB0F40F4BF2B11F460FF04C06F5F27
:104970007F4F8F4F9F4F0895EF93E0FF07C0A2EA4C
:104980002AED3FE049EC5FEB0E9401230E94AB243B
:104990000F90039401FC9058ECEAF0E00C94812510
:1049A00057FD9058440F551F59F05F3F71F04795E0
:1049B000880F97FB991F61F09F3F79F087950895C5
:1049C000121613061406551FF2CF4695F1DF08C0E4
:1049D000161617061806991FF1CF86957105610501
:1049E00008940895E894BB2766277727CB0197F9A9
:1049F00008950E94452408F48FEF08950E94112520
:104A00000C94AB240E94722438F00E94792420F088
:104A1000952311F00C9469240C946F2411240C94A8
:104A2000F3240E94D02470F3959FC1F3950F50E0BA
:104A3000551F629FF001729FBB27F00DB11D639F50
:104A4000AA27F00DB11DAA1F649F6627B00DA11DF6
:104A5000661F829F2227B00DA11D621F739FB00D9C
:104A6000A11D621F839FA00D611D221F749F33270C
:104A7000A00D611D231F849F600D211D822F762FA5
:104A80006A2F11249F5750409AF0F1F088234AF082
:104A9000EE0FFF1FBB1F661F771F881F91505040EE
:104AA000A9F79E3F510580F00C9469240C94F324DF
:104AB0005F3FE4F3983ED4F3869577956795B79575
:104AC000F795E7959F5FC1F7FE2B880F911D96958F
:104AD000879597F908959F930E9482240F9007FC71
:104AE000EE5F0C94BC249F3F31F0915020F48795E9
:104AF00077956795B795880F911D9695879597F946
:104B000008959F938F937F936F93FF93EF939B01F0
:104B1000AC010E94FE24EF91FF910E9495252F91F8
:104B20003F914F915F910C94FE24DF93CF931F939D
:104B30000F93FF92EF92DF927B018C01689406C085
:104B4000DA2EEF010E941125FE01E894A59125912E
:104B5000359145915591A6F3EF010E940123FE0185
:104B60009701A801DA9469F7DF90EF90FF900F9119
:104B70001F91CF91DF910895AA1BBB1B51E107C084
:104B8000AA1FBB1FA617B70710F0A61BB70B881FDD
:104B9000991F5A95A9F780959095BC01CD0108956C
:104BA00097FB072E16F4009407D077FD09D00E94DA
:104BB000BC2507FC05D03EF4909581959F4F089544
:104BC000709561957F4F0895EE0FFF1F0590F4914A
:104BD000E02D099481E090E0F8940C94EF2516E024
:104BE000C9ECD6E004C0FE010E94E4252196CA3C2F
:084BF000D107C9F7F894FFCFCB
:104BF8000001001700150009001500100004002A24
:104C080000000000000000001D00D2FF05001E008B
:104C18002E00FFFFFFFF00E1000000000000010080
:104C280000000000A607800000C180810000000687
:104C38000005000808030005000808180000000027
:104C48000000000000E8FFE8FF000000000000147A
:104C5800000000000000000000ECFFECFF00000076
:104C680000000000000000BF0E7C122E0FD50EE0E1
:104C78000E320F500F06000000000000090209FA6A
:104C8800FFFAFF000001090409180000000000D520
:104C980008EC08E8FFE8FF0000E208F6089F015169
:104CA800015B01A90100000000D40CC0080C080930
:104CB800080608030800087707730770075A077A79
:104CC80007FE06FC060200000000004E095009FE1F
:104CD800FFFEFF00004F09520900000000D60CBE7D
:104CE8000800000000D50C0E090C08090806080386
:104CF800080008F407AE0795077C077A076B084A8F
:104D08000814000000000023093A09ECFFECFF003A
:104D18000030094409170265016F012102000000F3
:044D280000F706008A
:00000001FF
